3         Customer#000000003       MG9kdTD                  ARGENTINA5ARGENTINA      AMERICA     11-783-309-8970AUTOMOBILE
11        Customer#000000011       PkWS 3HlXqwTuz           UNITED KI1UNITED KINGDOM EUROPE      33-375-491-3418BUILDING  
19        Customer#000000019       uc,3bHIx84H,wdrmLO       CHINA    5CHINA          ASIA        28-322-300-6827HOUSEHOLD 
27        Customer#000000027       IS8GIyxpBr               CANADA   6CANADA         AMERICA     13-269-466-2768BUILDING  
35        Customer#000000035       TEjWGE4n                 PERU     8PERU           AMERICA     27-480-558-8065HOUSEHOLD 
43        Customer#000000043       ouSbjHk8lh5fKX3zGso3     ROMANIA  5ROMANIA        EUROPE      29-950-388-2698MACHINERY 
51        Customer#000000051       uR,wEai                  JAPAN    4JAPAN          ASIA        22-139-999-6577FURNITURE 
59        Customer#000000059       zLOCP0wh92OtB            ARGENTINA5ARGENTINA      AMERICA     11-267-825-6829MACHINERY 
67        Customer#000000067       rfG0cOgtr5W8 xI          INDONESIA9INDONESIA      ASIA        19-440-601-4116MACHINERY 
75        Customer#000000075       Dh 6jZ,cwxWLKQfR         CHINA    2CHINA          ASIA        28-386-632-3643AUTOMOBILE
83        Customer#000000083       HnhTNB5xpnSF20JBH4Y      RUSSIA   0RUSSIA         EUROPE      32-889-221-3124BUILDING  
91        Customer#000000091       S8OMYFrpHwoNHaGBeuS6E    INDIA    8INDIA          ASIA        18-315-668-6295AUTOMOBILE
99        Customer#000000099       szsrOiPtCH               MOROCCO  2MOROCCO        AFRICA      25-813-865-9473HOUSEHOLD 
107       Customer#000000107       Zwg64UZ,q7GRqo3zm        MOROCCO  6MOROCCO        AFRICA      25-187-290-1949AUTOMOBILE
115       Customer#000000115       0WFt1IXENmUT2BgbsB0ShVK  INDIA    1INDIA          ASIA        18-772-193-7009HOUSEHOLD 
123       Customer#000000123       YsOnaaER8MkvK            ETHIOPIA 2ETHIOPIA       AFRICA      15-715-541-2598BUILDING  
131       Customer#000000131       jyN6lAjb1FtH10rMC        IRAQ     2IRAQ           MIDDLE EAST 21-737-356-1281HOUSEHOLD 
139       Customer#000000139       3ElvBwudHKL0273          INDONESIA8INDONESIA      ASIA        19-322-922-9015MACHINERY 
147       Customer#000000147       6VvIwbVdmcsMzuu,C84G     CHINA    4CHINA          ASIA        28-846-141-4684AUTOMOBILE
155       Customer#000000155       l,sSphiStM               ALGERIA  4ALGERIA        AFRICA      10-326-843-4505AUTOMOBILE
163       Customer#000000163       OgrGcOnm                 VIETNAM  2VIETNAM        ASIA        31-669-405-9401FURNITURE 
171       Customer#000000171       RIhjJCrth89              GERMANY  6GERMANY        EUROPE      17-131-967-8205MACHINERY 
179       Customer#000000179       djez3CWg0nn              EGYPT    3EGYPT          MIDDLE EAST 14-938-511-9262MACHINERY 
187       Customer#000000187       OIlgR6oIRXV5g63q5YG      EGYPT    9EGYPT          MIDDLE EAST 14-774-755-4745FURNITURE 
195       Customer#000000195       WiqQD8hscyKekjMcSB       RUSSIA   3RUSSIA         EUROPE      32-566-834-6494AUTOMOBILE
203       Customer#000000203       2fRlubh lWRinC           ARGENTINA6ARGENTINA      AMERICA     11-899-345-5479MACHINERY 
211       Customer#000000211       URhlVPzz                 JORDAN   8JORDAN         MIDDLE EAST 23-339-906-7838BUILDING  
219       Customer#000000219       eTjiL01eyoKiAe2WQoz3EpPg IRAQ     9IRAQ           MIDDLE EAST 21-239-845-4657AUTOMOBILE
227       Customer#000000227       7wlpEBswtXBPNOD          JORDAN   2JORDAN         MIDDLE EAST 23-604-841-5517MACHINERY 
235       Customer#000000235       bp0rIBMh4fMd             CANADA   9CANADA         AMERICA     13-951-690-3221AUTOMOBILE
243       Customer#000000243       te2FOn8xJ                GERMANY  4GERMANY        EUROPE      17-497-257-7774AUTOMOBILE
251       Customer#000000251       Z9fdQmv07C3k hxwt9nchhuQ JORDAN   3JORDAN         MIDDLE EAST 23-777-501-4435HOUSEHOLD 
259       Customer#000000259       kwh9i86Wj1Zq14nw         ETHIOPIA 0ETHIOPIA       AFRICA      15-764-413-2609HOUSEHOLD 
267       Customer#000000267       el7 bYzj1USp6T5i3KpfZ    MOROCCO  3MOROCCO        AFRICA      25-334-141-9650AUTOMOBILE
275       Customer#000000275       M1UCTKrZ                 RUSSIA   4RUSSIA         EUROPE      32-554-904-1240AUTOMOBILE
283       Customer#000000283       jysHDuTKUKYEjdBhtI LqTt  GERMANY  9GERMANY        EUROPE      17-524-360-5182AUTOMOBILE
291       Customer#000000291       ZlLNbGxnQ                INDIA    6INDIA          ASIA        18-507-465-4011HOUSEHOLD 
299       Customer#000000299       3F3Q0fTkjIv              EGYPT    3EGYPT          MIDDLE EAST 14-585-811-5053HOUSEHOLD 
307       Customer#000000307       xvkJ13                   JORDAN   0JORDAN         MIDDLE EAST 23-153-462-6111FURNITURE 
315       Customer#000000315       pXaKKTCTyc UI3tglBaWRimo GERMANY  2GERMANY        EUROPE      17-238-335-7371FURNITURE 
323       Customer#000000323       ZLnVZ CXRi               CHINA    2CHINA          ASIA        28-464-751-6982AUTOMOBILE
331       Customer#000000331       Ug e2IBbl,LJu            ETHIOPIA 5ETHIOPIA       AFRICA      15-569-811-4193AUTOMOBILE
339       Customer#000000339       jUs1Im28boIduGhp5vbK     UNITED ST0UNITED STATES  AMERICA     34-162-956-9296HOUSEHOLD 
347       Customer#000000347       qRT7WRrnyk               ARGENTINA5ARGENTINA      AMERICA     11-522-774-4990BUILDING  
355       Customer#000000355       205r3Xg9ZW               KENYA    4KENYA          AFRICA      24-317-300-1071FURNITURE 
363       Customer#000000363       2Koh mYARhsVcFn0U2Ab     PERU     7PERU           AMERICA     27-868-646-5634HOUSEHOLD 
371       Customer#000000371       dnxjCYwhuSHx 9KX         RUSSIA   0RUSSIA         EUROPE      32-198-295-3562AUTOMOBILE
379       Customer#000000379       t3QzCf,q1Nbs             GERMANY  0GERMANY        EUROPE      17-172-396-8590AUTOMOBILE
387       Customer#000000387       Yj 9g1mNu00rKRk          CHINA    3CHINA          ASIA        28-852-588-9082HOUSEHOLD 
395       Customer#000000395       b06rg6                   MOROCCO  5MOROCCO        AFRICA      25-986-854-9960HOUSEHOLD 
403       Customer#000000403       9,BVYegfkFL              KENYA    1KENYA          AFRICA      24-821-261-5204HOUSEHOLD 
411       Customer#000000411       V3e,FX5x50scsQDzt5,ESxf  CHINA    2CHINA          ASIA        28-314-144-8954HOUSEHOLD 
419       Customer#000000419       gvbZNJ4UVBAo5yOZ2        MOZAMBIQU5MOZAMBIQUE     AFRICA      26-532-521-2873BUILDING  
427       Customer#000000427       LHzXa71U2AGqfbqj1yYY     BRAZIL   2BRAZIL         AMERICA     12-412-511-5491MACHINERY 
435       Customer#000000435       diwjNQSb3wLYLy WfC       BRAZIL   6BRAZIL         AMERICA     12-280-549-9300MACHINERY 
443       Customer#000000443       UdyNGZ6GSz5              CANADA   7CANADA         AMERICA     13-657-199-6292FURNITURE 
451       Customer#000000451       ZJKTC1Ck,B01             SAUDI ARA5SAUDI ARABIA   MIDDLE EAST 30-280-913-7685HOUSEHOLD 
459       Customer#000000459       CkGH34iK 9vAHXeY7 wAQI   FRANCE   2FRANCE         EUROPE      16-830-827-5386MACHINERY 
467       Customer#000000467       amwRkh0nD                IRAQ     3IRAQ           MIDDLE EAST 21-232-703-7963MACHINERY 
475       Customer#000000475       JJMbj6myLUzMlbUmg63      KENYA    0KENYA          AFRICA      24-482-991-3101BUILDING  
483       Customer#000000483       Yv1QV 1JsV 9sVbNufR      IRAQ     3IRAQ           MIDDLE EAST 21-138-626-7887MACHINERY 
491       Customer#000000491       r3zPOuenxHl0oqIn         ALGERIA  9ALGERIA        AFRICA      10-278-319-1611AUTOMOBILE
499       Customer#000000499       m1hO3VXQVbw              KENYA    5KENYA          AFRICA      24-782-159-8084HOUSEHOLD 
507       Customer#000000507       QlA0Fc 6e,r              KENYA    4KENYA          AFRICA      24-757-494-8481MACHINERY 
515       Customer#000000515       oXxHtgXP                 MOROCCO  8MOROCCO        AFRICA      25-676-660-2366BUILDING  
523       Customer#000000523       sHeOSgsSnJi6pwYSr0v      IRAN     6IRAN           MIDDLE EAST 20-689-591-1243BUILDING  
531       Customer#000000531       ceI1iHfAaZ4DVVcm6GU3     ROMANIA  5ROMANIA        EUROPE      29-221-163-1070HOUSEHOLD 
539       Customer#000000539       FoGcDu9llpFiB LELF3      FRANCE   6FRANCE         EUROPE      16-204-542-3284HOUSEHOLD 
547       Customer#000000547       4h SK3dVkE               RUSSIA   4RUSSIA         EUROPE      32-310-235-1506BUILDING  
555       Customer#000000555       chm8jY6TfQ8CEnsvpuL6     MOROCCO  5MOROCCO        AFRICA      25-903-509-6487BUILDING  
563       Customer#000000563       2RSC1g7cVd,j23Hu         JAPAN    2JAPAN          ASIA        22-725-721-7714FURNITURE 
571       Customer#000000571       hCrDDrMzGhsa             BRAZIL   1BRAZIL         AMERICA     12-125-319-3298HOUSEHOLD 
579       Customer#000000579       9ST2x,s                  ALGERIA  6ALGERIA        AFRICA      10-476-926-5816MACHINERY 
587       Customer#000000587       J2UwoJEQzAOTtuBrxG       FRANCE   3FRANCE         EUROPE      16-255-189-6075AUTOMOBILE
595       Customer#000000595       7Q17BacxM,liY2AwhnHG     ROMANIA  8ROMANIA        EUROPE      29-851-731-6087HOUSEHOLD 
603       Customer#000000603       DFAIWiyqZ0GzuF6AWCZX3    ROMANIA  7ROMANIA        EUROPE      29-345-330-2293AUTOMOBILE
611       Customer#000000611       E1dtWGHE7NrL             ROMANIA  0ROMANIA        EUROPE      29-199-999-4708HOUSEHOLD 
619       Customer#000000619       6bxrNxQA oes7cMa23R      UNITED ST0UNITED STATES  AMERICA     34-860-485-3251FURNITURE 
627       Customer#000000627       uOFz ,iMYi02Ksr13        MOROCCO  8MOROCCO        AFRICA      25-368-875-4424FURNITURE 
635       Customer#000000635       Ftqi0UYvzz56Ov,J6,y      BRAZIL   1BRAZIL         AMERICA     12-283-172-7235AUTOMOBILE
643       Customer#000000643       9T 2avhf                 ALGERIA  9ALGERIA        AFRICA      10-798-403-4636FURNITURE 
651       Customer#000000651       K7rCTwTb3UX9wAO6ih       INDONESIA3INDONESIA      ASIA        19-536-891-5550HOUSEHOLD 
659       Customer#000000659       ThR9miOedPuwVEZy         ALGERIA  5ALGERIA        AFRICA      10-691-991-2788HOUSEHOLD 
667       Customer#000000667       oQqeEC,OD9XC1JXyOsHqcpv0 FRANCE   2FRANCE         EUROPE      16-617-440-6674AUTOMOBILE
675       Customer#000000675       canew8kOzr8RD            SAUDI ARA8SAUDI ARABIA   MIDDLE EAST 30-434-125-5575HOUSEHOLD 
683       Customer#000000683       G0, q8c6vBykpiL          FRANCE   9FRANCE         EUROPE      16-207-873-8389MACHINERY 
691       Customer#000000691       0RkDX6OLU1hIS            MOZAMBIQU0MOZAMBIQUE     AFRICA      26-799-213-6442MACHINERY 
699       Customer#000000699       4R6pspbuk5Sp,036         EGYPT    5EGYPT          MIDDLE EAST 14-138-690-3211HOUSEHOLD 
707       Customer#000000707       DT0nzkij                 VIETNAM  8VIETNAM        ASIA        31-930-910-2221FURNITURE 
715       Customer#000000715       9qLvF42uxUarKl4I 2pE     ROMANIA  6ROMANIA        EUROPE      29-921-675-2026AUTOMOBILE
723       Customer#000000723       5tKvCvmVB                VIETNAM  2VIETNAM        ASIA        31-264-597-1954BUILDING  
731       Customer#000000731       D0ceqTVRO                GERMANY  3GERMANY        EUROPE      17-615-472-6929MACHINERY 
739       Customer#000000739       pAROUfTi3wC              KENYA    5KENYA          AFRICA      24-420-893-6516HOUSEHOLD 
747       Customer#000000747       uuichgTY7NjlZaaRZ6S7K    INDIA    4INDIA          ASIA        18-993-871-3957FURNITURE 
755       Customer#000000755       F2YYbR                   MOZAMBIQU6MOZAMBIQUE     AFRICA      26-374-895-4343HOUSEHOLD 
763       Customer#000000763       ACMrkbcf3a2J3aob         ARGENTINA7ARGENTINA      AMERICA     11-430-510-7504BUILDING  
771       Customer#000000771       J9UMiYJznHVHZDuCG,       UNITED KI6UNITED KINGDOM EUROPE      33-702-565-8038AUTOMOBILE
779       Customer#000000779       2cTZiS4ulZ74edT,RmDnh    ETHIOPIA 3ETHIOPIA       AFRICA      15-265-962-6172HOUSEHOLD 
787       Customer#000000787       wwPe2vMZZ1n1Mm2z0q       IRAN     8IRAN           MIDDLE EAST 20-568-873-3524AUTOMOBILE
795       Customer#000000795       droXvSIcNE               KENYA    9KENYA          AFRICA      24-269-182-8261HOUSEHOLD 
803       Customer#000000803       zm7Xs6R                  CHINA    6CHINA          ASIA        28-240-408-2056BUILDING  
811       Customer#000000811       Rau3ADOLCNXM42D6fjQT     MOROCCO  7MOROCCO        AFRICA      25-917-575-7069BUILDING  
819       Customer#000000819       cug3zDy qHUaZMQNEtYl     JAPAN    5JAPAN          ASIA        22-282-243-8798MACHINERY 
827       Customer#000000827       fmmKD8aBlF9bFndkYf402    KENYA    0KENYA          AFRICA      24-895-982-7170HOUSEHOLD 
835       Customer#000000835       Sjqs42                   VIETNAM  2VIETNAM        ASIA        31-262-279-1206BUILDING  
843       Customer#000000843       OEJ7AElvHgEtD            KENYA    2KENYA          AFRICA      24-999-655-2443HOUSEHOLD 
851       Customer#000000851       H9HRTaOz4yI9             INDONESIA8INDONESIA      ASIA        19-992-541-9405FURNITURE 
859       Customer#000000859       yp6dlWnpbzQ              PERU     8PERU           AMERICA     27-927-668-3168BUILDING  
867       Customer#000000867       KmET9DxfPVs              KENYA    3KENYA          AFRICA      24-908-868-8184FURNITURE 
875       Customer#000000875       8pQ4YU                   CANADA   3CANADA         AMERICA     13-914-493-8599FURNITURE 
883       Customer#000000883       qVQ8rWNU5                CANADA   8CANADA         AMERICA     13-282-751-9252FURNITURE 
891       Customer#000000891       AW0m6YSpe,               IRAQ     9IRAQ           MIDDLE EAST 21-964-905-3123FURNITURE 
899       Customer#000000899       Th5XO5ImeCe9nHFQfQMCkN   BRAZIL   7BRAZIL         AMERICA     12-173-927-5793FURNITURE 
907       Customer#000000907       UeVLwnnpccsG1            IRAN     5IRAN           MIDDLE EAST 20-139-412-9277HOUSEHOLD 
915       Customer#000000915       mtGezp1BRzcfP            ALGERIA  5ALGERIA        AFRICA      10-914-400-1132AUTOMOBILE
923       Customer#000000923       ckBLWkfYtn2VZX           IRAQ     8IRAQ           MIDDLE EAST 21-721-918-4763HOUSEHOLD 
931       Customer#000000931       M,lWVafqdRIO,            ALGERIA  1ALGERIA        AFRICA      10-311-505-6329BUILDING  
939       Customer#000000939       jYaDdfxAlL               ROMANIA  3ROMANIA        EUROPE      29-871-752-9726FURNITURE 
947       Customer#000000947       JnzDRxqCwjRPyeq          RUSSIA   4RUSSIA         EUROPE      32-214-544-4156BUILDING  
955       Customer#000000955       FIis0dJhR                ALGERIA  3ALGERIA        AFRICA      10-957-779-8523AUTOMOBILE
963       Customer#000000963       40EdWkddaWhQyiQ6FfUo8VOZ JORDAN   4JORDAN         MIDDLE EAST 23-439-456-1690HOUSEHOLD 
971       Customer#000000971       z29DUY Uts               ARGENTINA2ARGENTINA      AMERICA     11-718-528-2027AUTOMOBILE
979       Customer#000000979       DvzUxD35ohKtUnalLGO      CHINA    8CHINA          ASIA        28-491-131-2759MACHINERY 
987       Customer#000000987       SO 0UTuH2                INDIA    1INDIA          ASIA        18-105-678-8127AUTOMOBILE
995       Customer#000000995       5tCSAsm4qL5OvHdRZsi      JORDAN   7JORDAN         MIDDLE EAST 23-583-583-6381BUILDING  
1003      Customer#000001003       lE07lPMzVzMhG9CUC        VIETNAM  0VIETNAM        ASIA        31-456-127-4262AUTOMOBILE
1011      Customer#000001011       6m8KP FxT4nnHgoc4C       ETHIOPIA 1ETHIOPIA       AFRICA      15-797-618-9907BUILDING  
1019      Customer#000001019       VMFs38VlBt01g30PzPylii   VIETNAM  0VIETNAM        ASIA        31-982-856-9055FURNITURE 
1027      Customer#000001027       GNaw4R                   BRAZIL   9BRAZIL         AMERICA     12-989-860-3941BUILDING  
1035      Customer#000001035       7yTbQ665G3Bi,6BK0EmQPw   IRAN     1IRAN           MIDDLE EAST 20-219-780-3301AUTOMOBILE
1043      Customer#000001043       HJMn12xn4bl vWC7iVu      GERMANY  7GERMANY        EUROPE      17-570-438-7311HOUSEHOLD 
1051      Customer#000001051       iHS,UFu                  BRAZIL   8BRAZIL         AMERICA     12-522-936-2935HOUSEHOLD 
1059      Customer#000001059       OHwYMiDjmgeIQXhL         UNITED KI8UNITED KINGDOM EUROPE      33-856-939-7367HOUSEHOLD 
1067      Customer#000001067       g25CH,                   UNITED KI2UNITED KINGDOM EUROPE      33-295-889-9701FURNITURE 
1075      Customer#000001075       hTIc2AUg pqhYh2W0yMUTQtr VIETNAM  3VIETNAM        ASIA        31-634-363-5769BUILDING  
1083      Customer#000001083       tnrpYmWGxwyaF            GERMANY  9GERMANY        EUROPE      17-249-381-5703FURNITURE 
1091      Customer#000001091       4ye7wJ3gU92RZC           PERU     2PERU           AMERICA     27-336-584-4138BUILDING  
1099      Customer#000001099       2ZiU64au L               ARGENTINA0ARGENTINA      AMERICA     11-676-420-8375AUTOMOBILE
1107      Customer#000001107       yQBP1SLK2u               ARGENTINA8ARGENTINA      AMERICA     11-778-329-1318AUTOMOBILE
1115      Customer#000001115       Elvb2a3Fi                ETHIOPIA 2ETHIOPIA       AFRICA      15-809-934-4220BUILDING  
1123      Customer#000001123       pO80QGjK7S0Kmoh46dViD    MOZAMBIQU2MOZAMBIQUE     AFRICA      26-696-748-6492MACHINERY 
1131      Customer#000001131       KVAvB1lwuN qHWDDPNckenm  SAUDI ARA3SAUDI ARABIA   MIDDLE EAST 30-407-639-2193MACHINERY 
1139      Customer#000001139       UDGG69rYgUGayNk 9vFytd   RUSSIA   0RUSSIA         EUROPE      32-805-459-6078BUILDING  
1147      Customer#000001147       AVjlczwVwL C             MOROCCO  8MOROCCO        AFRICA      25-398-714-8675HOUSEHOLD 
1155      Customer#000001155       kEDBn1IQWyHyYjg          INDIA    2INDIA          ASIA        18-569-807-2535MACHINERY 
1163      Customer#000001163       54fBdElRY                BRAZIL   2BRAZIL         AMERICA     12-921-858-3267BUILDING  
1171      Customer#000001171       GatOC LsLU9M             INDIA    5INDIA          ASIA        18-906-925-4234HOUSEHOLD 
1179      Customer#000001179       JLtS3n1xDqnNFS5MZc       ROMANIA  8ROMANIA        EUROPE      29-253-171-2742AUTOMOBILE
1187      Customer#000001187       W1GdUKr3vQ               IRAN     0IRAN           MIDDLE EAST 20-180-998-5448AUTOMOBILE
1195      Customer#000001195       71mmXv                   EGYPT    1EGYPT          MIDDLE EAST 14-370-444-3093FURNITURE 
1203      Customer#000001203       9pTq4gggfKoSq            MOZAMBIQU7MOZAMBIQUE     AFRICA      26-852-886-1031MACHINERY 
1211      Customer#000001211       HCACb3Al89h6NqHUJ8q      CHINA    2CHINA          ASIA        28-928-544-3065HOUSEHOLD 
1219      Customer#000001219       kP1xK5be a8tW5JR         EGYPT    4EGYPT          MIDDLE EAST 14-138-617-4856FURNITURE 
1227      Customer#000001227       GiT5IrOJ1zJTZEr          UNITED KI1UNITED KINGDOM EUROPE      33-582-488-2707FURNITURE 
1235      Customer#000001235       q 1E JKZqh               UNITED ST7UNITED STATES  AMERICA     34-860-568-1924BUILDING  
1243      Customer#000001243       g,qSvyYkgjDcCL cxx5qy8hA KENYA    0KENYA          AFRICA      24-328-296-3621MACHINERY 
1251      Customer#000001251       4AjU4c4D4AMLwQx,lAJGwBIg UNITED ST8UNITED STATES  AMERICA     34-384-211-1085MACHINERY 
1259      Customer#000001259        YQc2RRQJV7kl1zxWg       SAUDI ARA3SAUDI ARABIA   MIDDLE EAST 30-592-765-8349HOUSEHOLD 
1267      Customer#000001267       o3dtauyIeWwFRok2whW      UNITED ST2UNITED STATES  AMERICA     34-965-508-8436BUILDING  
1275      Customer#000001275       KUtV3oFy2Kyuz            SAUDI ARA0SAUDI ARABIA   MIDDLE EAST 30-988-842-1491MACHINERY 
1283      Customer#000001283       6JeLWEtDERPB,0KzWB,I6Xs8 ALGERIA  5ALGERIA        AFRICA      10-290-265-8060AUTOMOBILE
1291      Customer#000001291       dg3hkdHiI9zqk7l3242      GERMANY  6GERMANY        EUROPE      17-368-957-1058BUILDING  
1299      Customer#000001299       vm2THnXrMKrn5xvP         IRAQ     9IRAQ           MIDDLE EAST 21-576-356-8344HOUSEHOLD 
1307      Customer#000001307       L OAVSFQauP87            CANADA   0CANADA         AMERICA     13-950-526-2779MACHINERY 
1315      Customer#000001315       5J941X                   IRAN     2IRAN           MIDDLE EAST 20-294-467-1222AUTOMOBILE
1323      Customer#000001323       r9R6okX                  UNITED KI8UNITED KINGDOM EUROPE      33-937-443-3653HOUSEHOLD 
1331      Customer#000001331       mjaArH                   INDIA    4INDIA          ASIA        18-941-341-6572BUILDING  
1339      Customer#000001339       QGiiQ1iMDmLKLAHsZa L68   EGYPT    2EGYPT          MIDDLE EAST 14-118-544-9626MACHINERY 
1347      Customer#000001347       7oXery                   UNITED ST9UNITED STATES  AMERICA     34-811-764-4940HOUSEHOLD 
1355      Customer#000001355       c1r6G98ixzLQkvUV2KphsF   SAUDI ARA1SAUDI ARABIA   MIDDLE EAST 30-997-188-9666AUTOMOBILE
1363      Customer#000001363       mYa,yAtLmW2mCglf         JORDAN   7JORDAN         MIDDLE EAST 23-755-961-1450HOUSEHOLD 
1371      Customer#000001371       H,U3MSp1OT               GERMANY  3GERMANY        EUROPE      17-645-791-9490BUILDING  
1379      Customer#000001379       rqYSBCMywMKnfc           FRANCE   5FRANCE         EUROPE      16-775-482-8718MACHINERY 
1387      Customer#000001387       GQhAzCMyK                ROMANIA  8ROMANIA        EUROPE      29-954-125-4734BUILDING  
1395      Customer#000001395       XJoxiYIa                 UNITED KI5UNITED KINGDOM EUROPE      33-835-910-4680MACHINERY 
1403      Customer#000001403       ,ql804gtMc3uxTf          JAPAN    3JAPAN          ASIA        22-834-154-3127HOUSEHOLD 
1411      Customer#000001411       4iLVKtS                  VIETNAM  6VIETNAM        ASIA        31-954-231-3637AUTOMOBILE
1419      Customer#000001419       JM4NV2pq4Ps0xJNRtU       EGYPT    8EGYPT          MIDDLE EAST 14-239-118-9314FURNITURE 
1427      Customer#000001427       dDsmiig0T4oFKaf9ttFeh1   IRAQ     9IRAQ           MIDDLE EAST 21-151-830-1636AUTOMOBILE
1435      Customer#000001435       s0fqxkVVqLWR             SAUDI ARA9SAUDI ARABIA   MIDDLE EAST 30-934-853-3117AUTOMOBILE
1443      Customer#000001443       qtBPSM2NvmJXNePBT A      IRAN     4IRAN           MIDDLE EAST 20-394-606-7637HOUSEHOLD 
1451      Customer#000001451       Yt69m0Aw1LWZhisHJxL4iG   BRAZIL   8BRAZIL         AMERICA     12-549-807-8397FURNITURE 
1459      Customer#000001459       2sPwjFNEFf               IRAQ     6IRAQ           MIDDLE EAST 21-124-102-6115AUTOMOBILE
1467      Customer#000001467       GE,jQi5oLlkzh4jI         UNITED ST4UNITED STATES  AMERICA     34-536-978-3543FURNITURE 
1475      Customer#000001475       4tUf4SaYT                ALGERIA  4ALGERIA        AFRICA      10-570-652-9900BUILDING  
1483      Customer#000001483       ZjY1C b6                 GERMANY  6GERMANY        EUROPE      17-157-900-4500BUILDING  
1491      Customer#000001491       GjZIP4Fv                 EGYPT    9EGYPT          MIDDLE EAST 14-393-976-5044HOUSEHOLD 
1499      Customer#000001499       4,6jWOEqfnuXkwhB7gs0M    CANADA   2CANADA         AMERICA     13-492-709-5230AUTOMOBILE
1507      Customer#000001507       KtVNuytlncvu             IRAN     5IRAN           MIDDLE EAST 20-754-141-5515BUILDING  
1515      Customer#000001515       QS USHJ02MP2yd7TIcCNGMy  JAPAN    8JAPAN          ASIA        22-710-809-8198MACHINERY 
1523      Customer#000001523         udI60hnJb0IMvB67xQFf   GERMANY  1GERMANY        EUROPE      17-303-152-9489MACHINERY 
1531      Customer#000001531       OomxCS69ZBbyC99b         VIETNAM  8VIETNAM        ASIA        31-612-227-6148AUTOMOBILE
1539      Customer#000001539       EFgodQ9F0u SUYZQcJCNz    PERU     7PERU           AMERICA     27-680-389-2612MACHINERY 
1547      Customer#000001547       RgRcB,                   EGYPT    4EGYPT          MIDDLE EAST 14-637-119-7135AUTOMOBILE
1555      Customer#000001555       7V1UD h0 oKL04nnKV       ETHIOPIA 8ETHIOPIA       AFRICA      15-164-555-4706BUILDING  
1563      Customer#000001563       cb7 vuR7o4Z5KQqgd5       EGYPT    3EGYPT          MIDDLE EAST 14-352-130-6994MACHINERY 
1571      Customer#000001571       akbtXy3o6                FRANCE   5FRANCE         EUROPE      16-159-670-4792BUILDING  
1579      Customer#000001579       TI4GCerFzw2U             CANADA   2CANADA         AMERICA     13-328-940-2601AUTOMOBILE
1587      Customer#000001587       ztyGKSLXBi6r,uNDAxxDeW   PERU     8PERU           AMERICA     27-233-431-9384HOUSEHOLD 
1595      Customer#000001595       bJ6tl8L3gexrf9rd         CANADA   8CANADA         AMERICA     13-575-376-5862MACHINERY 
1603      Customer#000001603       JHju hD17jZD             IRAQ     2IRAQ           MIDDLE EAST 21-251-560-2745HOUSEHOLD 
1611      Customer#000001611       QX3yB3eqWVsGuy7Wet       CHINA    6CHINA          ASIA        28-682-745-5382BUILDING  
1619      Customer#000001619       qM0OslnGfoXRS4YhYUDaUd6  JORDAN   0JORDAN         MIDDLE EAST 23-423-783-1928BUILDING  
1627      Customer#000001627       RV5yXOOv0tjeqxIo         IRAN     9IRAN           MIDDLE EAST 20-564-943-8271AUTOMOBILE
1635      Customer#000001635       HjISwY7cr50HVcC81T7MnYJ  UNITED KI1UNITED KINGDOM EUROPE      33-905-825-8472HOUSEHOLD 
1643      Customer#000001643       ,vdC1qp8aweR4z4          JORDAN   9JORDAN         MIDDLE EAST 23-964-327-2706BUILDING  
1651      Customer#000001651       whCw6gMwEuls sC          CANADA   7CANADA         AMERICA     13-352-449-7444AUTOMOBILE
1659      Customer#000001659       6,g4PcDD8cCUdAKNbhA      IRAQ     4IRAQ           MIDDLE EAST 21-555-140-1861MACHINERY 
1667      Customer#000001667       aEGS4v41BVwq             MOZAMBIQU3MOZAMBIQUE     AFRICA      26-168-125-6938AUTOMOBILE
1675      Customer#000001675       YvuT73pnh06wLlgAyTO1ZyZ  UNITED ST1UNITED STATES  AMERICA     34-352-202-2579AUTOMOBILE
1683      Customer#000001683       ecOqgCbaUID9JwYZuv       RUSSIA   7RUSSIA         EUROPE      32-921-328-1984AUTOMOBILE
1691      Customer#000001691       BvajZGLJDqzvJfZK         JAPAN    1JAPAN          ASIA        22-774-319-3942AUTOMOBILE
1699      Customer#000001699       lGzEu5g4oOROn4QvjK8fEd   ARGENTINA9ARGENTINA      AMERICA     11-103-524-4129HOUSEHOLD 
1707      Customer#000001707       MjHpj4aS20ftMy           IRAQ     9IRAQ           MIDDLE EAST 21-908-740-8066AUTOMOBILE
1715      Customer#000001715       TNwfsu3                  JAPAN    8JAPAN          ASIA        22-604-764-6591BUILDING  
1723      Customer#000001723       riRitYAsJ0nPLmAnd5JX,    RUSSIA   9RUSSIA         EUROPE      32-265-216-2727AUTOMOBILE
1731      Customer#000001731       YOLyjZXp0eenovcSOSR4cSh  BRAZIL   8BRAZIL         AMERICA     12-764-670-7666MACHINERY 
1739      Customer#000001739       lhga8XGNRXPfJTot         JAPAN    8JAPAN          ASIA        22-783-614-7157FURNITURE 
1747      Customer#000001747       xSJopUGOWIGwa2QJA        MOROCCO  2MOROCCO        AFRICA      25-340-306-1899MACHINERY 
1755      Customer#000001755       emfcQnwjix1              CANADA   7CANADA         AMERICA     13-224-608-1533MACHINERY 
1763      Customer#000001763       Co2ATzqc                 ARGENTINA0ARGENTINA      AMERICA     11-677-871-3553AUTOMOBILE
1771      Customer#000001771       evmQypmt DbfynZ4bXvm0KU  IRAQ     8IRAQ           MIDDLE EAST 21-281-527-2523BUILDING  
1779      Customer#000001779       3iow2GjE85s8Gn           UNITED KI6UNITED KINGDOM EUROPE      33-735-278-7962AUTOMOBILE
1787      Customer#000001787       l9Rin,i89mx8LxSK0cC      SAUDI ARA4SAUDI ARABIA   MIDDLE EAST 30-538-860-3086HOUSEHOLD 
1795      Customer#000001795       EaQbFX VR89kRgd6svC3N    VIETNAM  2VIETNAM        ASIA        31-503-364-2335MACHINERY 
1803      Customer#000001803       D7E  PteFioyOXeI         ALGERIA  1ALGERIA        AFRICA      10-104-269-8072FURNITURE 
1811      Customer#000001811       GAuB2XYNF6YxAJ           KENYA    1KENYA          AFRICA      24-228-595-2730MACHINERY 
1819      Customer#000001819       pfaH03EbQcSE64yO         CHINA    0CHINA          ASIA        28-988-529-1045AUTOMOBILE
1827      Customer#000001827       icXm8xlUo0Ca,T           UNITED ST5UNITED STATES  AMERICA     34-892-482-4129BUILDING  
1835      Customer#000001835       XwMDWDz0zgJT7Cpi         GERMANY  7GERMANY        EUROPE      17-906-229-1708AUTOMOBILE
1843      Customer#000001843       5Op16OGLtq5hXrYv         ARGENTINA8ARGENTINA      AMERICA     11-177-280-2385HOUSEHOLD 
1851      Customer#000001851       n873H6Cz5A9uHa           CANADA   9CANADA         AMERICA     13-796-283-1189BUILDING  
1859      Customer#000001859       MV0YXkg6XVwBz            ARGENTINA7ARGENTINA      AMERICA     11-328-136-8914AUTOMOBILE
1867      Customer#000001867       72gC1ZTlzFNQy            ARGENTINA4ARGENTINA      AMERICA     11-816-820-1351MACHINERY 
1875      Customer#000001875       CiwSrmNO0dw3B            IRAN     5IRAN           MIDDLE EAST 20-615-933-6024MACHINERY 
1883      Customer#000001883       vyFP6B54fLxqmV           CHINA    8CHINA          ASIA        28-220-276-1180MACHINERY 
1891      Customer#000001891       xdhHnr2OrFV              INDONESIA7INDONESIA      ASIA        19-258-176-3766HOUSEHOLD 
1899      Customer#000001899       XuQb0mob                 IRAN     5IRAN           MIDDLE EAST 20-625-458-9971MACHINERY 
1907      Customer#000001907       Wjpx2yEVYfTUHPc9Tg       UNITED ST0UNITED STATES  AMERICA     34-635-669-2459HOUSEHOLD 
1915      Customer#000001915       FMtQbAxpu5v3,0NVx        MOZAMBIQU1MOZAMBIQUE     AFRICA      26-623-639-9786AUTOMOBILE
1923      Customer#000001923       m6AVOkvy swPbt,pZ7b9MBfr UNITED KI5UNITED KINGDOM EUROPE      33-921-925-3042HOUSEHOLD 
1931      Customer#000001931       DUbNQry9jewVHI6GLNIbX0aI ROMANIA  5ROMANIA        EUROPE      29-115-738-4447BUILDING  
1939      Customer#000001939       SBEYKDkrUBAt2            ALGERIA  5ALGERIA        AFRICA      10-496-577-2622HOUSEHOLD 
1947      Customer#000001947       s 1fCYZ4AqqTJ            SAUDI ARA8SAUDI ARABIA   MIDDLE EAST 30-537-249-3946MACHINERY 
1955      Customer#000001955       INxAk4G6dbQS             GERMANY  6GERMANY        EUROPE      17-526-892-2370BUILDING  
1963      Customer#000001963       WFokQKiI                 BRAZIL   6BRAZIL         AMERICA     12-579-154-2807BUILDING  
1971      Customer#000001971       DZsft5O035OEx6ql2BKC3CHI JAPAN    8JAPAN          ASIA        22-428-539-2178AUTOMOBILE
1979      Customer#000001979       HSGMB5gHS1ieJ58h         KENYA    8KENYA          AFRICA      24-675-472-7256MACHINERY 
1987      Customer#000001987       lWwjammTGaKVK            ROMANIA  2ROMANIA        EUROPE      29-639-300-9369BUILDING  
1995      Customer#000001995       aIGN3hurONjCDOvfE JLx,5p BRAZIL   8BRAZIL         AMERICA     12-458-927-5158BUILDING  
2003      Customer#000002003       Its9DcwUh80YMjkoM8       INDONESIA7INDONESIA      ASIA        19-805-500-1072FURNITURE 
2011      Customer#000002011       D1WjaW                   VIETNAM  1VIETNAM        ASIA        31-657-597-6456FURNITURE 
2019      Customer#000002019       MsytT6QI1lwygFQ,DhtHjg   PERU     7PERU           AMERICA     27-407-330-5200BUILDING  
2027      Customer#000002027       Y3WD8Bm9J                IRAQ     1IRAQ           MIDDLE EAST 21-362-428-7701HOUSEHOLD 
2035      Customer#000002035       R3SU3DugFfVOmdyW3        JORDAN   7JORDAN         MIDDLE EAST 23-510-253-9264BUILDING  
2043      Customer#000002043       dqTfdPzCB5AMEuwUFpHhsXa9 UNITED KI1UNITED KINGDOM EUROPE      33-515-320-6879AUTOMOBILE
2051      Customer#000002051       ygkeoPWYEnW1A7eD6qdDhZZ  INDONESIA1INDONESIA      ASIA        19-116-645-7647HOUSEHOLD 
2059      Customer#000002059       OQsFB7LNWlG Pc9v 626G    ROMANIA  5ROMANIA        EUROPE      29-107-332-4145MACHINERY 
2067      Customer#000002067       KJ4RZiRckFc10Vu8KPqh1W,e INDONESIA1INDONESIA      ASIA        19-784-447-5728HOUSEHOLD 
2075      Customer#000002075       tGjjK7CQkSvdMa1          ALGERIA  9ALGERIA        AFRICA      10-961-630-9140HOUSEHOLD 
2083      Customer#000002083       MPZyv,Efwre              CANADA   5CANADA         AMERICA     13-725-719-6958FURNITURE 
2091      Customer#000002091       PBqHc8Q2,z               MOZAMBIQU1MOZAMBIQUE     AFRICA      26-966-131-2253FURNITURE 
2099      Customer#000002099       Yk8,47BPzunL09hU7        EGYPT    9EGYPT          MIDDLE EAST 14-117-376-7515HOUSEHOLD 
2107      Customer#000002107        4AWPXKe4aC3bYsTJ        PERU     2PERU           AMERICA     27-820-483-2036MACHINERY 
2115      Customer#000002115       3rqmY6DNP8ueYqv9y        PERU     4PERU           AMERICA     27-525-697-9067FURNITURE 
2123      Customer#000002123       H5kO 1JwwvY5jLin         ARGENTINA3ARGENTINA      AMERICA     11-465-566-3499AUTOMOBILE
2131      Customer#000002131       saLmcPh12Go0FtvAo52      ALGERIA  8ALGERIA        AFRICA      10-239-595-6922AUTOMOBILE
2139      Customer#000002139       fINFUSI                  EGYPT    3EGYPT          MIDDLE EAST 14-559-679-3886FURNITURE 
2147      Customer#000002147       maxUjXXxOAxS             ETHIOPIA 9ETHIOPIA       AFRICA      15-892-888-9705FURNITURE 
2155      Customer#000002155       ipFAxi4                  BRAZIL   9BRAZIL         AMERICA     12-280-212-9692FURNITURE 
2163      Customer#000002163       58cuteis2zPrMhm6vY       IRAN     5IRAN           MIDDLE EAST 20-512-352-2855HOUSEHOLD 
2171      Customer#000002171       ROtv1nBldJxYbz           JAPAN    5JAPAN          ASIA        22-491-212-8606AUTOMOBILE
2179      Customer#000002179       WNMty4 L,UQ6cFmcLhhxZs2  ROMANIA  4ROMANIA        EUROPE      29-785-374-7730BUILDING  
2187      Customer#000002187       J2mj6G7y12LF8CwS         VIETNAM  7VIETNAM        ASIA        31-877-462-6534AUTOMOBILE
2195      Customer#000002195        jw2HHB                  JORDAN   3JORDAN         MIDDLE EAST 23-536-505-6693FURNITURE 
2203      Customer#000002203       ZlHMC6rXOFUlH0KA5        ETHIOPIA 2ETHIOPIA       AFRICA      15-632-394-5252HOUSEHOLD 
2211      Customer#000002211       W1JxGF,SZzPMFykyQYfsoFOS ARGENTINA9ARGENTINA      AMERICA     11-379-939-3040MACHINERY 
2219      Customer#000002219       YCA0PAGuo6               INDONESIA3INDONESIA      ASIA        19-428-750-3410BUILDING  
2227      Customer#000002227        SEYwZbWYuJ,02o          CANADA   5CANADA         AMERICA     13-934-409-3305FURNITURE 
2235      Customer#000002235       H,RPLppcm9P0shztp        UNITED ST0UNITED STATES  AMERICA     34-853-396-3384MACHINERY 
2243      Customer#000002243       ZusL9wX68hmnTnDE         ALGERIA  6ALGERIA        AFRICA      10-962-950-8249FURNITURE 
2251      Customer#000002251       OawzizRKkExKqy7ZbLs      ETHIOPIA 1ETHIOPIA       AFRICA      15-384-539-6192HOUSEHOLD 
2259      Customer#000002259       u uAlZCSZ 3gu1VAS7K      RUSSIA   6RUSSIA         EUROPE      32-267-803-3562MACHINERY 
2267      Customer#000002267       A0bjQBu4LYz8ZCqFiQIRgYO  VIETNAM  4VIETNAM        ASIA        31-421-402-5401MACHINERY 
2275      Customer#000002275       pPju4PjvBOYv9D0aa        FRANCE   4FRANCE         EUROPE      16-278-399-2666AUTOMOBILE
2283      Customer#000002283       LRyO8J2k6oTDiU           ROMANIA  6ROMANIA        EUROPE      29-207-524-7546FURNITURE 
2291      Customer#000002291       lAu5nSpryvWSyaa          ETHIOPIA 5ETHIOPIA       AFRICA      15-175-994-4767AUTOMOBILE
2299      Customer#000002299       mgAkRgF 3nLWhgG          UNITED KI5UNITED KINGDOM EUROPE      33-800-872-9767AUTOMOBILE
2307      Customer#000002307       cRxFNYIsuZ3GC7JaXo3jA6qa ROMANIA  0ROMANIA        EUROPE      29-692-612-8727FURNITURE 
2315      Customer#000002315       ,YkjFAWuCUaxIGKk rZ,90tU VIETNAM  9VIETNAM        ASIA        31-198-202-2427FURNITURE 
2323      Customer#000002323       lx7BEywZ0pLLfvfrB7 mtCU7 JAPAN    6JAPAN          ASIA        22-469-864-1961FURNITURE 
2331      Customer#000002331       mSrDGD8y                 FRANCE   3FRANCE         EUROPE      16-600-633-3725FURNITURE 
2339      Customer#000002339       U80lQznsnu2wDqu1A        UNITED KI2UNITED KINGDOM EUROPE      33-665-756-3503FURNITURE 
2347      Customer#000002347       Of0jQ84PAhGMAbxGgk       JAPAN    8JAPAN          ASIA        22-763-810-9049FURNITURE 
2355      Customer#000002355       U0aXzTWHEaoZrndLDnO5S    EGYPT    3EGYPT          MIDDLE EAST 14-235-939-9764BUILDING  
2363      Customer#000002363       Wcmdwslo1hp8yt1          KENYA    6KENYA          AFRICA      24-503-417-4696MACHINERY 
2371      Customer#000002371       4eL4uRRWiNw,X            GERMANY  2GERMANY        EUROPE      17-685-473-9468HOUSEHOLD 
2379      Customer#000002379       AgV8VellWU53SucnH7a      PERU     3PERU           AMERICA     27-308-285-7521BUILDING  
2387      Customer#000002387       8tVeZYoPoZ P2BCTC        ROMANIA  1ROMANIA        EUROPE      29-300-706-1950AUTOMOBILE
2395      Customer#000002395       6VdXX5P                  RUSSIA   4RUSSIA         EUROPE      32-171-386-6261HOUSEHOLD 
2403      Customer#000002403       9m5guggTGhKVM1qLZQ       ETHIOPIA 6ETHIOPIA       AFRICA      15-668-500-8569MACHINERY 
2411      Customer#000002411       M1P2ab                   PERU     4PERU           AMERICA     27-281-524-2106HOUSEHOLD 
2419      Customer#000002419       8spPVgJD4mKl8yr          JAPAN    4JAPAN          ASIA        22-644-480-4696MACHINERY 
2427      Customer#000002427       VExoTJJ                  INDONESIA0INDONESIA      ASIA        19-877-793-8633AUTOMOBILE
2435      Customer#000002435       cZrkaTf YXVP4Vbb         IRAN     9IRAN           MIDDLE EAST 20-478-387-7078HOUSEHOLD 
2443      Customer#000002443        3uWjy8ThBFw5H           JORDAN   8JORDAN         MIDDLE EAST 23-285-586-9946BUILDING  
2451      Customer#000002451       VZlyEY,SVUIv             UNITED KI0UNITED KINGDOM EUROPE      33-666-287-9537HOUSEHOLD 
2459      Customer#000002459       xey84,Ydk                FRANCE   3FRANCE         EUROPE      16-319-929-1635HOUSEHOLD 
2467      Customer#000002467       NvvbBdbgXjfAFWO5Fl       INDIA    7INDIA          ASIA        18-593-428-8370AUTOMOBILE
2475      Customer#000002475       RdZH50Ax6                MOZAMBIQU5MOZAMBIQUE     AFRICA      26-760-385-5533HOUSEHOLD 
2483      Customer#000002483       GFTAp7                   ETHIOPIA 1ETHIOPIA       AFRICA      15-992-966-4581HOUSEHOLD 
2491      Customer#000002491       XP0voc aiTvW kF          GERMANY  0GERMANY        EUROPE      17-762-961-1141AUTOMOBILE
2499      Customer#000002499       IdMMSgg3OJuRvrweXl9lkAQw INDIA    5INDIA          ASIA        18-628-174-2051BUILDING  
2507      Customer#000002507       0RrEGYc,eeN              BRAZIL   1BRAZIL         AMERICA     12-555-500-9401MACHINERY 
2515      Customer#000002515       kZbHvCLlXcJAcRU7         ALGERIA  7ALGERIA        AFRICA      10-411-125-3726MACHINERY 
2523      Customer#000002523       lhMuir4XsewAE            CHINA    1CHINA          ASIA        28-478-899-8078FURNITURE 
2531      Customer#000002531       9h,psa6GQHO4t83VHibx     IRAN     7IRAN           MIDDLE EAST 20-959-653-8918FURNITURE 
2539      Customer#000002539       UcXmANiqrGZqSl           ALGERIA  5ALGERIA        AFRICA      10-122-918-6103HOUSEHOLD 
2547      Customer#000002547       X4zqQSiAMee1TTZh18       MOROCCO  1MOROCCO        AFRICA      25-332-721-4639HOUSEHOLD 
2555      Customer#000002555       xc1UFP2YDzdDFRn ryPknNN  JORDAN   1JORDAN         MIDDLE EAST 23-717-253-9482FURNITURE 
2563      Customer#000002563       CQuicHFew9I              VIETNAM  4VIETNAM        ASIA        31-755-894-8863FURNITURE 
2571      Customer#000002571       Fr62xMK5CJU50mrfI7NJxnQ5 ETHIOPIA 1ETHIOPIA       AFRICA      15-619-749-8342FURNITURE 
2579      Customer#000002579       cQnDYaqeaQ uPd           INDIA    4INDIA          ASIA        18-572-136-6442MACHINERY 
2587      Customer#000002587       eJAHnz                   UNITED ST8UNITED STATES  AMERICA     34-214-594-7614BUILDING  
2595      Customer#000002595       rD1cvR3r0f6Na2T          JAPAN    7JAPAN          ASIA        22-605-839-2491AUTOMOBILE
2603      Customer#000002603       RGhadk6dF5dOL            ETHIOPIA 7ETHIOPIA       AFRICA      15-832-480-2545AUTOMOBILE
2611      Customer#000002611       aAMf, zkA7Ub3Up n        PERU     2PERU           AMERICA     27-548-357-8741HOUSEHOLD 
2619      Customer#000002619       SX6VU23                  PERU     0PERU           AMERICA     27-593-343-2305MACHINERY 
2627      Customer#000002627       FGTOBW                   MOZAMBIQU7MOZAMBIQUE     AFRICA      26-378-428-2529HOUSEHOLD 
2635      Customer#000002635       3RFYqzZjZTC7cLOE         ALGERIA  0ALGERIA        AFRICA      10-186-567-3184MACHINERY 
2643      Customer#000002643       gdn8DNOn6HEBumY jQZp     MOZAMBIQU6MOZAMBIQUE     AFRICA      26-220-424-8256AUTOMOBILE
2651      Customer#000002651       YiiwYL8I Eg7k9Bq2U0oPC   MOZAMBIQU3MOZAMBIQUE     AFRICA      26-991-953-3689MACHINERY 
2659      Customer#000002659       UubyEFssQerMA1           BRAZIL   2BRAZIL         AMERICA     12-925-522-5537BUILDING  
2667      Customer#000002667       A8tOjAePCIzIt4Ow xmpe0   UNITED KI5UNITED KINGDOM EUROPE      33-755-185-9937MACHINERY 
2675      Customer#000002675       upJN2qkuRmrz,jWRYJ       ALGERIA  2ALGERIA        AFRICA      10-792-674-1867FURNITURE 
2683      Customer#000002683       UR5GG39hf1MJqugn IYzwqB  SAUDI ARA3SAUDI ARABIA   MIDDLE EAST 30-584-646-4227MACHINERY 
2691      Customer#000002691       r0ryhQf8yB4OOzcCNySf     VIETNAM  9VIETNAM        ASIA        31-938-302-6990FURNITURE 
2699      Customer#000002699       GWZ023qB                 GERMANY  3GERMANY        EUROPE      17-164-406-6285AUTOMOBILE
2707      Customer#000002707       pIjwcBmOnTd2             ETHIOPIA 0ETHIOPIA       AFRICA      15-512-897-4405FURNITURE 
2715      Customer#000002715       e4Cofwh1                 INDONESIA3INDONESIA      ASIA        19-427-566-6477MACHINERY 
2723      Customer#000002723       4BRb5uD1JGHPEJ           ARGENTINA2ARGENTINA      AMERICA     11-306-885-6116FURNITURE 
2731      Customer#000002731       FYSach                   MOROCCO  8MOROCCO        AFRICA      25-275-412-4375AUTOMOBILE
2739      Customer#000002739       yogZybdp0b,mgrk0         UNITED ST7UNITED STATES  AMERICA     34-624-612-7041AUTOMOBILE
2747      Customer#000002747       m5ONjrRX414DO7W8Ar       VIETNAM  1VIETNAM        ASIA        31-590-603-4460MACHINERY 
2755      Customer#000002755       ZJsAxptMsM5Kq0WP,0IFI1Ow JAPAN    6JAPAN          ASIA        22-339-974-4006FURNITURE 
2763      Customer#000002763       tNdDJKRUX2qOiY7 VQkMRAAq RUSSIA   0RUSSIA         EUROPE      32-137-890-3251BUILDING  
2771      Customer#000002771       LsNYeFsqb4TupehSwS5sS1   ARGENTINA4ARGENTINA      AMERICA     11-679-526-8871HOUSEHOLD 
2779      Customer#000002779       kDywiSZ6Bv3r OgIcSxmmDCB MOZAMBIQU1MOZAMBIQUE     AFRICA      26-141-761-8605AUTOMOBILE
2787      Customer#000002787       w,P9sZyeWokPYDEl2P15xsb  JAPAN    0JAPAN          ASIA        22-723-477-6521FURNITURE 
2795      Customer#000002795       dMNgLEHm4a               SAUDI ARA1SAUDI ARABIA   MIDDLE EAST 30-594-556-3336MACHINERY 
2803      Customer#000002803       TAp4wk                   INDIA    1INDIA          ASIA        18-594-392-3336BUILDING  
2811      Customer#000002811       FmlZ1mLJpob              MOZAMBIQU9MOZAMBIQUE     AFRICA      26-617-464-1443MACHINERY 
2819      Customer#000002819       J3kij06phJl2Pkpt9eIDUJju JAPAN    9JAPAN          ASIA        22-826-743-5147FURNITURE 
2827      Customer#000002827       PMexaGtSKsAW             FRANCE   0FRANCE         EUROPE      16-802-352-4523BUILDING  
2835      Customer#000002835       8P1cMw2vLd8S5CSn1dPVpPv7 ETHIOPIA 3ETHIOPIA       AFRICA      15-300-463-8840FURNITURE 
2843      Customer#000002843       d2J8zJD3M6kfRMXi3I       ALGERIA  1ALGERIA        AFRICA      10-822-511-5005HOUSEHOLD 
2851      Customer#000002851       E7PZoEc,DnUcdHcbwL       IRAQ     9IRAQ           MIDDLE EAST 21-139-285-2726FURNITURE 
2859      Customer#000002859       ANLEH CKbbiKV5Uwek4      EGYPT    5EGYPT          MIDDLE EAST 14-261-974-2263FURNITURE 
2867      Customer#000002867       fyAi 0lZZc2              CHINA    6CHINA          ASIA        28-376-337-2882AUTOMOBILE
2875      Customer#000002875       4l7tJ9BEKvk3ukqUGRvQUH   KENYA    4KENYA          AFRICA      24-433-597-5050AUTOMOBILE
2883      Customer#000002883       BOjHro                   INDIA    8INDIA          ASIA        18-376-319-2855FURNITURE 
2891      Customer#000002891       4hS83AP                  GERMANY  3GERMANY        EUROPE      17-867-429-6696FURNITURE 
2899      Customer#000002899       x,5CnY                   KENYA    4KENYA          AFRICA      24-365-117-7366AUTOMOBILE
2907      Customer#000002907       6BoTPznU23iGkCIYqKB      CHINA    2CHINA          ASIA        28-666-753-3228FURNITURE 
2915      Customer#000002915       EZViKrrlZhKIgI8Vsm0BJ    ALGERIA  0ALGERIA        AFRICA      10-544-206-6486FURNITURE 
2923      Customer#000002923       sKlAD2NrLA5NHficxhUoN    MOROCCO  8MOROCCO        AFRICA      25-151-826-2531AUTOMOBILE
2931      Customer#000002931       OM,ACIiGfGRXWMxWaB       INDONESIA8INDONESIA      ASIA        19-392-362-4345MACHINERY 
2939      Customer#000002939       eOgj9kMTwxFXss34VTQ      ALGERIA  0ALGERIA        AFRICA      10-512-701-5637BUILDING  
2947      Customer#000002947       Sa0MQe                   CHINA    0CHINA          ASIA        28-818-238-4278MACHINERY 
2955      Customer#000002955       Uzd6YN7cjFYJekl          INDONESIA7INDONESIA      ASIA        19-550-172-8823AUTOMOBILE
2963      Customer#000002963       nnaQj6WTPIo              ALGERIA  6ALGERIA        AFRICA      10-829-706-3363AUTOMOBILE
2971      Customer#000002971       QnGI7xDVoHU              FRANCE   3FRANCE         EUROPE      16-490-684-2376MACHINERY 
2979      Customer#000002979       o DsF7GAx5j3qHSzx        JAPAN    9JAPAN          ASIA        22-438-560-2848HOUSEHOLD 
2987      Customer#000002987       Ffvhm097 a5J8f           GERMANY  4GERMANY        EUROPE      17-209-655-3712AUTOMOBILE
2995      Customer#000002995       yRk0ZEmXz7UMpZKSeXzHE    BRAZIL   0BRAZIL         AMERICA     12-125-567-3671FURNITURE 
3003      Customer#000003003       cngA,ufUGgVF95S3jyJE     MOZAMBIQU5MOZAMBIQUE     AFRICA      26-403-416-3297MACHINERY 
3011      Customer#000003011       bdqHddpQl9vM             GERMANY  2GERMANY        EUROPE      17-874-915-8051BUILDING  
3019      Customer#000003019       Yja5V2HYm                MOZAMBIQU9MOZAMBIQUE     AFRICA      26-197-912-9942HOUSEHOLD 
3027      Customer#000003027       GqX87gqXMYVn             BRAZIL   1BRAZIL         AMERICA     12-650-661-8907AUTOMOBILE
3035      Customer#000003035       81NPhRU1WWg8WLaf         JORDAN   8JORDAN         MIDDLE EAST 23-227-753-6607AUTOMOBILE
3043      Customer#000003043       tDvVgMOP8MoF5 4          UNITED ST5UNITED STATES  AMERICA     34-627-815-3812MACHINERY 
3051      Customer#000003051       IFuadQzs                 SAUDI ARA2SAUDI ARABIA   MIDDLE EAST 30-389-714-4083BUILDING  
3059      Customer#000003059       8WdnwZLw9MkbrWT          ARGENTINA7ARGENTINA      AMERICA     11-361-546-1807HOUSEHOLD 
3067      Customer#000003067       kAQHP1                   ETHIOPIA 1ETHIOPIA       AFRICA      15-279-495-5312BUILDING  
3075      Customer#000003075       RJ4OatRAvF dZceu,nALF,r  PERU     7PERU           AMERICA     27-927-684-9554HOUSEHOLD 
3083      Customer#000003083       l,xb0TwWakVPNi2LH        JAPAN    0JAPAN          ASIA        22-994-964-5120FURNITURE 
3091      Customer#000003091       VQgzeBETreuk             BRAZIL   9BRAZIL         AMERICA     12-627-543-6633AUTOMOBILE
3099      Customer#000003099       uA8JqPsBg95DkxBN4DKTikY4 RUSSIA   5RUSSIA         EUROPE      32-144-444-4329MACHINERY 
3107      Customer#000003107       IchmKZnsZ0cmmdeS,o       MOROCCO  1MOROCCO        AFRICA      25-649-781-1703MACHINERY 
3115      Customer#000003115       oB 75yHls7ptt            JAPAN    7JAPAN          ASIA        22-655-237-7649BUILDING  
3123      Customer#000003123       25G61TbNq,XtcMiM         GERMANY  4GERMANY        EUROPE      17-423-514-1055AUTOMOBILE
3131      Customer#000003131       VwvCig2U41nOUtG          JORDAN   0JORDAN         MIDDLE EAST 23-580-403-3778BUILDING  
3139      Customer#000003139       0MJdrfD2PNOshu           GERMANY  0GERMANY        EUROPE      17-133-747-4811MACHINERY 
3147      Customer#000003147       4Q ZWUxD                 VIETNAM  5VIETNAM        ASIA        31-364-261-4686AUTOMOBILE
3155      Customer#000003155       RKkYgqIujo7NyAzGei       ETHIOPIA 6ETHIOPIA       AFRICA      15-961-507-6017FURNITURE 
3163      Customer#000003163       HONHxmBwiVIfQJigiGw8VQ   FRANCE   5FRANCE         EUROPE      16-891-284-1611AUTOMOBILE
3171      Customer#000003171       4 Q8QSXeFz5idXCpF34P     VIETNAM  9VIETNAM        ASIA        31-310-290-8477AUTOMOBILE
3179      Customer#000003179       P4,XD716                 RUSSIA   6RUSSIA         EUROPE      32-521-509-1739AUTOMOBILE
3187      Customer#000003187       myf8 W21DLrPAFsFiBMPAXH  CANADA   8CANADA         AMERICA     13-903-733-3491FURNITURE 
3195      Customer#000003195       PRFciJOuaYeKvwbRpC       ALGERIA  5ALGERIA        AFRICA      10-259-379-5831HOUSEHOLD 
3203      Customer#000003203       ll2nbPhIAe16             EGYPT    1EGYPT          MIDDLE EAST 14-393-451-9412FURNITURE 
3211      Customer#000003211       9leDg0aebOpDxN7W9PtAe    ARGENTINA0ARGENTINA      AMERICA     11-132-895-4004AUTOMOBILE
3219      Customer#000003219       K8yhjUiyrxJPbb6qA,dz     IRAN     8IRAN           MIDDLE EAST 20-290-276-9708MACHINERY 
3227      Customer#000003227       RaYOy2KE4                INDONESIA7INDONESIA      ASIA        19-319-375-5515MACHINERY 
3235      Customer#000003235       483C9SyTAItL7 S4W2MJ6Pz  MOZAMBIQU9MOZAMBIQUE     AFRICA      26-803-519-3313HOUSEHOLD 
3243      Customer#000003243       P 4QB3wu4WJEM            MOZAMBIQU0MOZAMBIQUE     AFRICA      26-173-996-4130HOUSEHOLD 
3251      Customer#000003251       F8arKBGB25df0XJDTlyf     CHINA    6CHINA          ASIA        28-103-528-9652AUTOMOBILE
3259      Customer#000003259       0IHIPS3tRci              INDIA    6INDIA          ASIA        18-982-494-5079FURNITURE 
3267      Customer#000003267       qaj3gvfgtia              ETHIOPIA 7ETHIOPIA       AFRICA      15-642-210-4311AUTOMOBILE
3275      Customer#000003275       EzzVXFt fQyF             ARGENTINA0ARGENTINA      AMERICA     11-539-549-7946AUTOMOBILE
3283      Customer#000003283       yU7IeiChQGBZx OFjXmZfSd  VIETNAM  6VIETNAM        ASIA        31-987-378-6574HOUSEHOLD 
3291      Customer#000003291       cuMZOn5HME               UNITED KI9UNITED KINGDOM EUROPE      33-889-691-3025AUTOMOBILE
3299      Customer#000003299       PGEgrkpKNM3RvX3DiD       RUSSIA   6RUSSIA         EUROPE      32-127-366-7921HOUSEHOLD 
3307      Customer#000003307       mTXd9JAHJJjHy,Dp         RUSSIA   8RUSSIA         EUROPE      32-433-661-8859MACHINERY 
3315      Customer#000003315       KSGI0wiQrtBac7TGIKbD     INDONESIA6INDONESIA      ASIA        19-486-933-8375AUTOMOBILE
3323      Customer#000003323       grZiq6Ry7IWVFfopamg      JAPAN    0JAPAN          ASIA        22-897-649-8561FURNITURE 
3331      Customer#000003331       ,vWvMEW                  ALGERIA  8ALGERIA        AFRICA      10-276-718-5929BUILDING  
3339      Customer#000003339       HGvJfu962W               UNITED KI8UNITED KINGDOM EUROPE      33-272-222-2835BUILDING  
3347      Customer#000003347       IJ10fB3c6gUd289S,9ZsnUt  ROMANIA  9ROMANIA        EUROPE      29-725-339-7434AUTOMOBILE
3355      Customer#000003355       na5rieYvD5vH1wemr7tX     ALGERIA  2ALGERIA        AFRICA      10-386-374-9654AUTOMOBILE
3363      Customer#000003363       KcEXMPIeCHWaw9NfHhvtm    UNITED KI5UNITED KINGDOM EUROPE      33-568-461-8357MACHINERY 
3371      Customer#000003371       tKAR55JcM2sAm36TxYvq     CHINA    1CHINA          ASIA        28-921-557-1644BUILDING  
3379      Customer#000003379       YOQzRP4u8Z H,hyGxcJzU    RUSSIA   0RUSSIA         EUROPE      32-952-447-2137MACHINERY 
3387      Customer#000003387       hp2N98gSiOPaGGumpzlv6q   SAUDI ARA8SAUDI ARABIA   MIDDLE EAST 30-517-129-7998FURNITURE 
3395      Customer#000003395       h6lxUM                   RUSSIA   7RUSSIA         EUROPE      32-233-397-8305BUILDING  
3403      Customer#000003403       zdiKgo1ynMk              IRAN     3IRAN           MIDDLE EAST 20-395-204-8153HOUSEHOLD 
3411      Customer#000003411       7KgIHpH06yAo6woxbvHl     BRAZIL   0BRAZIL         AMERICA     12-390-738-6907AUTOMOBILE
3419      Customer#000003419       Chj3WDeQVvhAgLifOBi      CHINA    1CHINA          ASIA        28-416-656-7184BUILDING  
3427      Customer#000003427       ,n9Ufp                   EGYPT    4EGYPT          MIDDLE EAST 14-840-218-9696AUTOMOBILE
3435      Customer#000003435       ai,c6e6                  IRAN     8IRAN           MIDDLE EAST 20-116-481-1756HOUSEHOLD 
3443      Customer#000003443       Lu5o89tc7IsXQ            BRAZIL   0BRAZIL         AMERICA     12-209-472-3970HOUSEHOLD 
3451      Customer#000003451       UbM2A8G                  ETHIOPIA 8ETHIOPIA       AFRICA      15-966-886-2509MACHINERY 
3459      Customer#000003459       d kyuZ9H6744HQITds6J     CHINA    7CHINA          ASIA        28-154-572-5060AUTOMOBILE
3467      Customer#000003467       wqhWKeA3qRSGyyPItE2      FRANCE   4FRANCE         EUROPE      16-372-912-1734HOUSEHOLD 
3475      Customer#000003475       FTQ0SabM6ZeGDrzDGFmJTIz  UNITED ST9UNITED STATES  AMERICA     34-377-491-9306FURNITURE 
3483      Customer#000003483       22PXQj3,3Q9sVyErhO       ETHIOPIA 2ETHIOPIA       AFRICA      15-211-763-4640HOUSEHOLD 
3491      Customer#000003491       d1 xAk3QUghlQq22AxGk3    IRAN     0IRAN           MIDDLE EAST 20-970-218-5004HOUSEHOLD 
3499      Customer#000003499       UEbH2FRxDwXbliOvvMUi     RUSSIA   2RUSSIA         EUROPE      32-403-894-3631MACHINERY 
3507      Customer#000003507       FslUcLLmK                CANADA   3CANADA         AMERICA     13-435-950-5393FURNITURE 
3515      Customer#000003515       XyyX9Gb3kUcTGf0xk        INDIA    5INDIA          ASIA        18-954-911-7663HOUSEHOLD 
3523      Customer#000003523       2BjwdlH UuBSMixSpWAaY    UNITED KI6UNITED KINGDOM EUROPE      33-371-997-4176MACHINERY 
3531      Customer#000003531       S8p1ATDy                 VIETNAM  5VIETNAM        ASIA        31-749-908-1422FURNITURE 
3539      Customer#000003539       pMM5UMavhshY0gPYvmGp     UNITED ST4UNITED STATES  AMERICA     34-360-975-9910AUTOMOBILE
3547      Customer#000003547       DE7sphT2tC065            IRAN     6IRAN           MIDDLE EAST 20-197-748-6176HOUSEHOLD 
3555      Customer#000003555       VmABvAjvsdQMcxPLYLyVLUA  IRAQ     1IRAQ           MIDDLE EAST 21-761-480-1662AUTOMOBILE
3563      Customer#000003563       ITPPa21                  MOZAMBIQU0MOZAMBIQUE     AFRICA      26-128-988-5886FURNITURE 
3571      Customer#000003571       sN6RKWQBLE               PERU     7PERU           AMERICA     27-580-105-8347BUILDING  
3579      Customer#000003579       GQd7RDn73x               CHINA    7CHINA          ASIA        28-953-712-1521AUTOMOBILE
3587      Customer#000003587       Q7EPgxe5rLSo UnYYT2fsRhZ ROMANIA  6ROMANIA        EUROPE      29-866-572-5127AUTOMOBILE
3595      Customer#000003595       08Z3DU6BKF8Sq0Uy7        BRAZIL   1BRAZIL         AMERICA     12-193-978-6457FURNITURE 
3603      Customer#000003603       iyh12xyYzs7XKQCqtf0kiUKr SAUDI ARA4SAUDI ARABIA   MIDDLE EAST 30-930-514-5524MACHINERY 
3611      Customer#000003611       xTGBjK33e                CHINA    5CHINA          ASIA        28-530-823-5925MACHINERY 
3619      Customer#000003619       YJ116eufJSgq6xgmZl       KENYA    4KENYA          AFRICA      24-406-965-5131BUILDING  
3627      Customer#000003627       VbWRPciML3KhtuX73qqyAB   ARGENTINA9ARGENTINA      AMERICA     11-123-932-3430HOUSEHOLD 
3635      Customer#000003635       fEO16VCdx4kR             IRAQ     2IRAQ           MIDDLE EAST 21-185-468-3074AUTOMOBILE
3643      Customer#000003643       At2VSEbzsFMf5rKS         FRANCE   5FRANCE         EUROPE      16-226-973-9287HOUSEHOLD 
3651      Customer#000003651       ,scgoSieR4SHRz           CHINA    2CHINA          ASIA        28-239-281-3966MACHINERY 
3659      Customer#000003659       nXi7q,FA,MFEVYMPSgQVNFJ  MOZAMBIQU2MOZAMBIQUE     AFRICA      26-716-132-3837BUILDING  
3667      Customer#000003667       7hawckofDh4dTuu          KENYA    3KENYA          AFRICA      24-917-644-8087BUILDING  
3675      Customer#000003675       UzxGegAkV7Hp0O IRmJe     CANADA   8CANADA         AMERICA     13-153-612-4404FURNITURE 
3683      Customer#000003683       va7bIiHh                 PERU     2PERU           AMERICA     27-670-723-3987AUTOMOBILE
3691      Customer#000003691       la3aZ2dd41O3             IRAN     4IRAN           MIDDLE EAST 20-223-252-2185MACHINERY 
3699      Customer#000003699       esmWxyv92ECFRaO9aIpC2f1  EGYPT    0EGYPT          MIDDLE EAST 14-885-645-2456MACHINERY 
3707      Customer#000003707       1BKXE5wAReWo7Nw          UNITED ST8UNITED STATES  AMERICA     34-675-748-9802AUTOMOBILE
3715      Customer#000003715       PE,hueeV                 FRANCE   0FRANCE         EUROPE      16-128-436-9552FURNITURE 
3723      Customer#000003723       MxgcW01j8gO4FUNV         ALGERIA  8ALGERIA        AFRICA      10-693-176-9876AUTOMOBILE
3731      Customer#000003731       f1GM2f9do2J3NzyEDIJ      JAPAN    2JAPAN          ASIA        22-800-399-9081FURNITURE 
3739      Customer#000003739       JkJLhTp,ki8wwm6C         RUSSIA   7RUSSIA         EUROPE      32-356-403-3698FURNITURE 
3747      Customer#000003747       PmNxEB34KC5W8iTWa        KENYA    4KENYA          AFRICA      24-522-298-2831AUTOMOBILE
3755      Customer#000003755       YgsRNU A                 JAPAN    3JAPAN          ASIA        22-667-729-1856MACHINERY 
3763      Customer#000003763       E7Ozqbjq5K0bwYQq         ALGERIA  1ALGERIA        AFRICA      10-374-374-6989FURNITURE 
3771      Customer#000003771       S3r7aGJejz2w,0fr5MzdZd5  SAUDI ARA3SAUDI ARABIA   MIDDLE EAST 30-852-888-3913AUTOMOBILE
3779      Customer#000003779       e5S,LtYTpi9              ALGERIA  3ALGERIA        AFRICA      10-331-732-2579HOUSEHOLD 
3787      Customer#000003787       FSBrrAGwXJh              RUSSIA   9RUSSIA         EUROPE      32-202-179-3149FURNITURE 
3795      Customer#000003795       h,Vi8NjT0xBHf3Jma7f      ETHIOPIA 0ETHIOPIA       AFRICA      15-715-667-8276BUILDING  
3803      Customer#000003803       05eqAa                   IRAQ     1IRAQ           MIDDLE EAST 21-351-129-2616AUTOMOBILE
3811      Customer#000003811       QUwmhBILqK9              RUSSIA   2RUSSIA         EUROPE      32-701-299-3489FURNITURE 
3819      Customer#000003819       8MHu8GRk                 EGYPT    4EGYPT          MIDDLE EAST 14-689-656-7807BUILDING  
3827      Customer#000003827       yuYJdj8piCA,             MOROCCO  5MOROCCO        AFRICA      25-847-387-4041HOUSEHOLD 
3835      Customer#000003835       jAVuX4mmFqRCVhCUvNUhb    GERMANY  2GERMANY        EUROPE      17-730-284-7189FURNITURE 
3843      Customer#000003843       CmYxvapWReiH9CVCs        BRAZIL   2BRAZIL         AMERICA     12-124-449-9924FURNITURE 
3851      Customer#000003851       dvq6N7KQlNYSzi5rT        KENYA    5KENYA          AFRICA      24-841-357-4614MACHINERY 
3859      Customer#000003859       Nl8wCV                   ROMANIA  3ROMANIA        EUROPE      29-643-829-9733MACHINERY 
3867      Customer#000003867       uh0IWbhEyCeFp3WpT        RUSSIA   2RUSSIA         EUROPE      32-858-313-6457FURNITURE 
3875      Customer#000003875       z1I3ZmaM ZvkjFE4GC       FRANCE   9FRANCE         EUROPE      16-973-886-3881HOUSEHOLD 
3883      Customer#000003883       pTCaqks6K                MOROCCO  6MOROCCO        AFRICA      25-906-464-6194HOUSEHOLD 
3891      Customer#000003891       n,Tw9f15ms0160F RIGZ     ARGENTINA9ARGENTINA      AMERICA     11-487-810-7988MACHINERY 
3899      Customer#000003899       XdPl2M5P3KPwj            PERU     6PERU           AMERICA     27-353-490-1068BUILDING  
3907      Customer#000003907       oKOQB1ktBXm8MrnT         JAPAN    3JAPAN          ASIA        22-715-902-4518FURNITURE 
3915      Customer#000003915       2jW23bQ0y                UNITED KI4UNITED KINGDOM EUROPE      33-427-704-6474MACHINERY 
3923      Customer#000003923       NX 121HheH3iY6pK         KENYA    5KENYA          AFRICA      24-789-239-7089MACHINERY 
3931      Customer#000003931       karwhwCIXpsRuKmruDefqwbC KENYA    3KENYA          AFRICA      24-444-218-7522FURNITURE 
3939      Customer#000003939       yM9A7ZzHEI99pQwzqJtAUBX  MOROCCO  4MOROCCO        AFRICA      25-729-506-6675HOUSEHOLD 
3947      Customer#000003947       BkhjA5                   ETHIOPIA 4ETHIOPIA       AFRICA      15-799-841-3386BUILDING  
3955      Customer#000003955       rehuSF,vYIB95t           IRAN     7IRAN           MIDDLE EAST 20-930-283-1056FURNITURE 
3963      Customer#000003963       GTvAduUnoNmpPGu4sFc5     FRANCE   7FRANCE         EUROPE      16-227-414-1080FURNITURE 
3971      Customer#000003971       Z23qsMu,lX               MOZAMBIQU1MOZAMBIQUE     AFRICA      26-501-619-9874BUILDING  
3979      Customer#000003979       ePf3InunJKl5zmUSX9ng     UNITED KI7UNITED KINGDOM EUROPE      33-390-670-8785MACHINERY 
3987      Customer#000003987       Sw0sSFRNasN2HLmT3dZb5UL  ARGENTINA7ARGENTINA      AMERICA     11-321-635-8103FURNITURE 
3995      Customer#000003995       61Weo5YqHRFlrqbJsi19X,K  KENYA    7KENYA          AFRICA      24-661-400-2505BUILDING  
4003      Customer#000004003       jjVIJQWuEqo              KENYA    3KENYA          AFRICA      24-408-374-6128HOUSEHOLD 
4011      Customer#000004011        npR1sKT                 ETHIOPIA 9ETHIOPIA       AFRICA      15-542-295-7095AUTOMOBILE
4019      Customer#000004019       nNlYufNq Z               SAUDI ARA3SAUDI ARABIA   MIDDLE EAST 30-503-419-1789BUILDING  
4027      Customer#000004027       9xgBimAIW                KENYA    4KENYA          AFRICA      24-421-453-1872MACHINERY 
4035      Customer#000004035       ycZpsIGbsDO2,,0yqO4      IRAQ     8IRAQ           MIDDLE EAST 21-441-576-6921HOUSEHOLD 
4043      Customer#000004043       NqxCryNXTCY9SzsuElEd,    UNITED ST2UNITED STATES  AMERICA     34-674-431-9027MACHINERY 
4051      Customer#000004051       rySBVplL2QM11z           IRAQ     9IRAQ           MIDDLE EAST 21-459-598-8265FURNITURE 
4059      Customer#000004059       DKlmCwWaDrU5ee           JORDAN   1JORDAN         MIDDLE EAST 23-490-690-8685HOUSEHOLD 
4067      Customer#000004067       MqVU5o,6sG9aF            UNITED KI9UNITED KINGDOM EUROPE      33-252-986-6035AUTOMOBILE
4075      Customer#000004075       dKCtKIpqJbT9gn92xfjUv    ETHIOPIA 8ETHIOPIA       AFRICA      15-295-718-4889MACHINERY 
4083      Customer#000004083       7OHBVdDxZ83Y2Mrch        GERMANY  1GERMANY        EUROPE      17-320-954-8027FURNITURE 
4091      Customer#000004091       255PkDSFxTLmO0iC         VIETNAM  8VIETNAM        ASIA        31-751-239-2393MACHINERY 
4099      Customer#000004099       DSxSjybj                 UNITED KI3UNITED KINGDOM EUROPE      33-931-970-7081AUTOMOBILE
4107      Customer#000004107       p5R3pn                   INDIA    9INDIA          ASIA        18-244-706-5339BUILDING  
4115      Customer#000004115       FZMTPwIVcGy00edzT9 n5ptv SAUDI ARA8SAUDI ARABIA   MIDDLE EAST 30-989-566-3593AUTOMOBILE
4123      Customer#000004123       xSvONKsEQMB              PERU     0PERU           AMERICA     27-150-846-1777HOUSEHOLD 
4131      Customer#000004131       HZ1dSu,N2                IRAN     6IRAN           MIDDLE EAST 20-547-118-6493FURNITURE 
4139      Customer#000004139       6Ruv9yJbtFeOANlX         IRAN     3IRAN           MIDDLE EAST 20-684-474-7544AUTOMOBILE
4147      Customer#000004147       6PzaKPI23Z               UNITED ST3UNITED STATES  AMERICA     34-489-840-7094MACHINERY 
4155      Customer#000004155       8fqj 45UeAe              UNITED ST7UNITED STATES  AMERICA     34-126-613-1462MACHINERY 
4163      Customer#000004163       uk1bOZSA7jIubG           CANADA   2CANADA         AMERICA     13-162-701-8091HOUSEHOLD 
4171      Customer#000004171       sgmw3YHPPzo              IRAQ     5IRAQ           MIDDLE EAST 21-443-256-1445FURNITURE 
4179      Customer#000004179       zClV1Y                   MOROCCO  1MOROCCO        AFRICA      25-602-429-5876BUILDING  
4187      Customer#000004187       oPyWl1M                  JORDAN   4JORDAN         MIDDLE EAST 23-533-741-1156MACHINERY 
4195      Customer#000004195       p3wT7PzmE6JOizlYta       PERU     7PERU           AMERICA     27-620-854-7544HOUSEHOLD 
4203      Customer#000004203       PM4YeMBMM8AsU            ALGERIA  4ALGERIA        AFRICA      10-414-704-8332FURNITURE 
4211      Customer#000004211       19iUvswVaXehsam          CANADA   9CANADA         AMERICA     13-666-273-3949FURNITURE 
4219      Customer#000004219       MmCntPmaw iU             SAUDI ARA2SAUDI ARABIA   MIDDLE EAST 30-929-652-9045AUTOMOBILE
4227      Customer#000004227       BuuAuk5                  MOZAMBIQU4MOZAMBIQUE     AFRICA      26-712-820-9073MACHINERY 
4235      Customer#000004235       ,tSLdl xRrEX9E           UNITED KI7UNITED KINGDOM EUROPE      33-543-773-9894AUTOMOBILE
4243      Customer#000004243       2So kPhoXvWHHbE9b88      VIETNAM  9VIETNAM        ASIA        31-654-778-9468HOUSEHOLD 
4251      Customer#000004251       1tYOviHbf6aMl7YcOvAiRO   CANADA   4CANADA         AMERICA     13-274-284-5572MACHINERY 
4259      Customer#000004259       X2OOxlp                  ROMANIA  1ROMANIA        EUROPE      29-796-559-9996MACHINERY 
4267      Customer#000004267       jkAlwl5NV3ffhR1E         ARGENTINA1ARGENTINA      AMERICA     11-580-319-4076BUILDING  
4275      Customer#000004275       8BQRrrMGPtmzZiRdfMD      CANADA   0CANADA         AMERICA     13-394-376-7576FURNITURE 
4283      Customer#000004283       V1gjkp9xmbfoCq6Ih        JAPAN    5JAPAN          ASIA        22-458-586-3296BUILDING  
4291      Customer#000004291       Jxlhbz76HQczCVekX        FRANCE   8FRANCE         EUROPE      16-131-231-9533AUTOMOBILE
4299      Customer#000004299       0yjLn9o2                 UNITED KI4UNITED KINGDOM EUROPE      33-959-716-4140FURNITURE 
4307      Customer#000004307       Uo8j64CX,9mpN5TcgtQ      JORDAN   0JORDAN         MIDDLE EAST 23-923-791-7681BUILDING  
4315      Customer#000004315       txjj004PGduM             SAUDI ARA6SAUDI ARABIA   MIDDLE EAST 30-788-723-3162FURNITURE 
4323      Customer#000004323       r K9JR95G0,1             INDONESIA0INDONESIA      ASIA        19-956-239-4041FURNITURE 
4331      Customer#000004331       4xKDnlbgmcQddNCDCEHMKoyA BRAZIL   6BRAZIL         AMERICA     12-307-871-8900BUILDING  
4339      Customer#000004339       FmSJ2BJqaxUY0MRO         MOZAMBIQU5MOZAMBIQUE     AFRICA      26-700-966-3814AUTOMOBILE
4347      Customer#000004347       fEaMXeogyj1B4W           CHINA    9CHINA          ASIA        28-769-198-5861HOUSEHOLD 
4355      Customer#000004355       dU7Qw,4ZGuLPbWHP         INDIA    4INDIA          ASIA        18-992-225-6731FURNITURE 
4363      Customer#000004363       mg5Ax036                 IRAQ     7IRAQ           MIDDLE EAST 21-649-578-6796MACHINERY 
4371      Customer#000004371       7Hxknxb3rfaw1w8XHvFhdueG RUSSIA   1RUSSIA         EUROPE      32-998-938-6065HOUSEHOLD 
4379      Customer#000004379       x3,Im8SL96Ur             KENYA    9KENYA          AFRICA      24-702-550-7985AUTOMOBILE
4387      Customer#000004387       6USkwHlMx9My             UNITED KI8UNITED KINGDOM EUROPE      33-242-868-9876HOUSEHOLD 
4395      Customer#000004395       DzcO4DwrBwF h2c,         IRAN     5IRAN           MIDDLE EAST 20-267-581-9341MACHINERY 
4403      Customer#000004403       gjUC0KcHTH8w1            GERMANY  3GERMANY        EUROPE      17-531-403-5487BUILDING  
4411      Customer#000004411       C9nDDQLrn,               SAUDI ARA9SAUDI ARABIA   MIDDLE EAST 30-462-104-1200FURNITURE 
4419      Customer#000004419       8qDyK79 xKuGjqn10WAYoZZD MOZAMBIQU5MOZAMBIQUE     AFRICA      26-606-631-3914AUTOMOBILE
4427      Customer#000004427       KOHDnRD                  PERU     8PERU           AMERICA     27-520-965-2644BUILDING  
4435      Customer#000004435       Jn4mRWpJltRdodPJ7r       PERU     0PERU           AMERICA     27-237-663-5289AUTOMOBILE
4443      Customer#000004443       vhhgdNW4DGGtJCE          GERMANY  6GERMANY        EUROPE      17-636-904-4290MACHINERY 
4451      Customer#000004451       dKVd,lY1XvJgdBdDTv HxD   CANADA   6CANADA         AMERICA     13-236-109-7501HOUSEHOLD 
4459      Customer#000004459       QrtfIPkRVR4hjgoVv Ow     CHINA    2CHINA          ASIA        28-338-234-9611AUTOMOBILE
4467      Customer#000004467       ov51TY3L8AMdr            INDONESIA2INDONESIA      ASIA        19-808-879-8221HOUSEHOLD 
4475      Customer#000004475       3lhhf vFt0ix22J7pM       MOZAMBIQU7MOZAMBIQUE     AFRICA      26-695-561-6904BUILDING  
4483      Customer#000004483       bGwN3TmAy5cko0           SAUDI ARA1SAUDI ARABIA   MIDDLE EAST 30-329-789-7714MACHINERY 
4491      Customer#000004491       5cGef0h                  ALGERIA  2ALGERIA        AFRICA      10-810-918-3894HOUSEHOLD 
4499      Customer#000004499       zsI0jKbwuvDtB            VIETNAM  1VIETNAM        ASIA        31-458-699-5342BUILDING  
4507      Customer#000004507       A94q9zzISreNgs3,VKWNB    FRANCE   1FRANCE         EUROPE      16-175-418-2383BUILDING  
4515      Customer#000004515       hReSu5z9sVmCofR6G        ARGENTINA4ARGENTINA      AMERICA     11-322-465-2620MACHINERY 
4523      Customer#000004523       Coye1,DFCgcnKJwbgMn      VIETNAM  9VIETNAM        ASIA        31-806-326-7582HOUSEHOLD 
4531      Customer#000004531       WM14gk                   KENYA    0KENYA          AFRICA      24-157-770-2640AUTOMOBILE
4539      Customer#000004539       2n3dC3o                  CANADA   5CANADA         AMERICA     13-273-783-1043FURNITURE 
4547      Customer#000004547       OIbDG,Z s5hqmPjJbaEojc   BRAZIL   6BRAZIL         AMERICA     12-512-698-5878AUTOMOBILE
4555      Customer#000004555       Q1VRKc Q                 BRAZIL   5BRAZIL         AMERICA     12-358-671-8574FURNITURE 
4563      Customer#000004563       T96O7Qt9lWrX             IRAN     8IRAN           MIDDLE EAST 20-567-862-5913FURNITURE 
4571      Customer#000004571        BNaFabHJSQqzi           INDONESIA0INDONESIA      ASIA        19-733-717-3379AUTOMOBILE
4579      Customer#000004579       3IOm5xRTzD2 OBDWlT       ALGERIA  5ALGERIA        AFRICA      10-674-666-8506FURNITURE 
4587      Customer#000004587       IMJUC,JYFEBPXUhj5k       UNITED ST2UNITED STATES  AMERICA     34-199-968-1834MACHINERY 
4595      Customer#000004595       vP6y735,HdEK4Ew          ETHIOPIA 9ETHIOPIA       AFRICA      15-360-802-8806AUTOMOBILE
4603      Customer#000004603       UO2nLFt8z                UNITED ST4UNITED STATES  AMERICA     34-378-551-3984MACHINERY 
4611      Customer#000004611       oDzKDW6,QwKHK            CHINA    1CHINA          ASIA        28-702-634-5990HOUSEHOLD 
4619      Customer#000004619       rsCa2BSmXMl,wpxJxjBOj    PERU     7PERU           AMERICA     27-810-154-6129AUTOMOBILE
4627      Customer#000004627       9JLeiBvzsyePVHT UB9s     CANADA   2CANADA         AMERICA     13-735-855-1947MACHINERY 
4635      Customer#000004635       z2,MnxvN                 ETHIOPIA 5ETHIOPIA       AFRICA      15-741-760-4553FURNITURE 
4643      Customer#000004643       elFvWj6FAS2jpi2kLgMHsE   GERMANY  7GERMANY        EUROPE      17-821-282-5062MACHINERY 
4651      Customer#000004651       SYvi GYH8RGfQnCoK        EGYPT    2EGYPT          MIDDLE EAST 14-624-524-1975FURNITURE 
4659      Customer#000004659       56Ye5vi5eqpYSeDbXn9      SAUDI ARA1SAUDI ARABIA   MIDDLE EAST 30-360-803-2174HOUSEHOLD 
4667      Customer#000004667       bpFXvYlSwOgE             MOROCCO  2MOROCCO        AFRICA      25-543-668-9549AUTOMOBILE
4675      Customer#000004675       Xq3y17,iLljIS9Zwhm4i     ETHIOPIA 0ETHIOPIA       AFRICA      15-170-857-6818BUILDING  
4683      Customer#000004683       YF8R2qT3vm               ALGERIA  3ALGERIA        AFRICA      10-403-823-4837HOUSEHOLD 
4691      Customer#000004691       5d7YXPlWJk               BRAZIL   6BRAZIL         AMERICA     12-155-808-4010BUILDING  
4699      Customer#000004699       0Nboc6PQYy6o2,tT949ldUWx IRAQ     3IRAQ           MIDDLE EAST 21-673-383-6654BUILDING  
4707      Customer#000004707       ih9ZNXKmPtsK52w          CHINA    7CHINA          ASIA        28-702-126-1356FURNITURE 
4715      Customer#000004715       n,wzyCPtH                UNITED ST8UNITED STATES  AMERICA     34-860-738-8747FURNITURE 
4723      Customer#000004723       dV R fPKmTaXWBtzvM6sp    ETHIOPIA 6ETHIOPIA       AFRICA      15-253-973-4941BUILDING  
4731      Customer#000004731       pmS12OXkJSOwC,           VIETNAM  0VIETNAM        ASIA        31-703-951-3414MACHINERY 
4739      Customer#000004739       ejIAzg7hr                MOZAMBIQU5MOZAMBIQUE     AFRICA      26-187-314-2522FURNITURE 
4747      Customer#000004747       7Lh9BW5Jke3zjkzHFlpE9    MOZAMBIQU9MOZAMBIQUE     AFRICA      26-626-140-7251FURNITURE 
4755      Customer#000004755       bwFJdhZyrp               IRAQ     3IRAQ           MIDDLE EAST 21-675-372-4619BUILDING  
4763      Customer#000004763       xJx6FUGW2o               JAPAN    3JAPAN          ASIA        22-779-249-1104MACHINERY 
4771      Customer#000004771       RAa375jmigSwDt2hdbV      GERMANY  3GERMANY        EUROPE      17-999-710-5706HOUSEHOLD 
4779      Customer#000004779       5begMwHXUq6T6NC,YOGnoln  EGYPT    5EGYPT          MIDDLE EAST 14-346-101-7937HOUSEHOLD 
4787      Customer#000004787       jwSkY6o2X                UNITED ST0UNITED STATES  AMERICA     34-595-318-5194AUTOMOBILE
4795      Customer#000004795       QrOQKRmemqGMfk2nhUVi     PERU     5PERU           AMERICA     27-628-734-6664BUILDING  
4803      Customer#000004803       ywg0OMy                  CANADA   8CANADA         AMERICA     13-833-488-3975HOUSEHOLD 
4811      Customer#000004811       twrFSAeCtCVwyDh          INDIA    2INDIA          ASIA        18-594-463-4727FURNITURE 
4819      Customer#000004819       L3kMy,Nxa4E3iM           MOZAMBIQU9MOZAMBIQUE     AFRICA      26-551-859-3224BUILDING  
4827      Customer#000004827       dRHJ8fra3wjWNBuMNJ7unsk  EGYPT    2EGYPT          MIDDLE EAST 14-962-743-1402MACHINERY 
4835      Customer#000004835       wmapOEjqIkbrqnxSBksbH9   INDIA    1INDIA          ASIA        18-511-816-5434MACHINERY 
4843      Customer#000004843       Uj0TCXD                  VIETNAM  9VIETNAM        ASIA        31-928-684-1024BUILDING  
4851      Customer#000004851       PUzbG,ry1EYawViHXqm      ALGERIA  4ALGERIA        AFRICA      10-868-942-5440HOUSEHOLD 
4859      Customer#000004859       WYyeWS3M0EnMGj8MsIbE     IRAQ     4IRAQ           MIDDLE EAST 21-137-858-2587BUILDING  
4867      Customer#000004867       t5Lbq6QB04A,ZkWZ3FF30    KENYA    1KENYA          AFRICA      24-470-242-4950MACHINERY 
4875      Customer#000004875       ChwV4zvJMveut            ALGERIA  1ALGERIA        AFRICA      10-696-314-2366FURNITURE 
4883      Customer#000004883       o0HrfH                   INDONESIA0INDONESIA      ASIA        19-697-862-7454MACHINERY 
4891      Customer#000004891       D7oFU59                  ETHIOPIA 2ETHIOPIA       AFRICA      15-449-575-9632MACHINERY 
4899      Customer#000004899       9X8aR08CMwEPyp4J0H7gw    ARGENTINA1ARGENTINA      AMERICA     11-621-897-3608HOUSEHOLD 
4907      Customer#000004907       51nse5v                  PERU     5PERU           AMERICA     27-563-451-5833FURNITURE 
4915      Customer#000004915       xx42htY                  INDIA    3INDIA          ASIA        18-121-374-6124AUTOMOBILE
4923      Customer#000004923       7nx4XeCWk7ZlPN9iqMf0     INDIA    7INDIA          ASIA        18-976-115-8475HOUSEHOLD 
4931      Customer#000004931       NvsrTXOtoKvKMX1iODF,     FRANCE   3FRANCE         EUROPE      16-896-820-9209FURNITURE 
4939      Customer#000004939       51mcdPvOE BoB            MOZAMBIQU3MOZAMBIQUE     AFRICA      26-913-309-3651AUTOMOBILE
4947      Customer#000004947       1UcMhMmfLfUVxg5Wi        IRAQ     8IRAQ           MIDDLE EAST 21-102-651-7941BUILDING  
4955      Customer#000004955       6JZ1yTDSYQgN             FRANCE   9FRANCE         EUROPE      16-234-720-5834HOUSEHOLD 
4963      Customer#000004963       l2qUZzmp l,BHY8cRId      ETHIOPIA 5ETHIOPIA       AFRICA      15-617-120-8006HOUSEHOLD 
4971      Customer#000004971       A6UYgLVFuIhIEohrDFL      ARGENTINA0ARGENTINA      AMERICA     11-190-608-2010BUILDING  
4979      Customer#000004979       SvW08FME8HR              IRAQ     0IRAQ           MIDDLE EAST 21-873-241-2734AUTOMOBILE
4987      Customer#000004987       gjtwuK6CJtlqovWzSE3J     INDIA    6INDIA          ASIA        18-118-941-1203HOUSEHOLD 
4995      Customer#000004995       68raYymDpXmOPOJRKk       JAPAN    3JAPAN          ASIA        22-410-226-8674BUILDING  
5003      Customer#000005003       oIIt7E5AecNC             UNITED ST0UNITED STATES  AMERICA     34-306-835-3586BUILDING  
5011      Customer#000005011       IXPCpHZK1FKCRuMS9Xptz    VIETNAM  7VIETNAM        ASIA        31-963-236-8264FURNITURE 
5019      Customer#000005019       nMOa2bgAx 2              ETHIOPIA 5ETHIOPIA       AFRICA      15-920-850-5529AUTOMOBILE
5027      Customer#000005027       U7HIvw                   VIETNAM  6VIETNAM        ASIA        31-949-404-6319BUILDING  
5035      Customer#000005035       nmoMjinmM                JORDAN   8JORDAN         MIDDLE EAST 23-875-401-4439BUILDING  
5043      Customer#000005043       EoEJm1v2ROozs6PWnbP8siOm JORDAN   5JORDAN         MIDDLE EAST 23-502-447-5203FURNITURE 
5051      Customer#000005051       qf2qIIer2g2ELXHRx 98     CANADA   1CANADA         AMERICA     13-439-153-6187BUILDING  
5059      Customer#000005059       7m1XixDh5gPfAppdeo4      FRANCE   3FRANCE         EUROPE      16-579-922-3186MACHINERY 
5067      Customer#000005067       p58KS,jYOTmO8FkwYxI5CzpM ETHIOPIA 8ETHIOPIA       AFRICA      15-684-135-3970AUTOMOBILE
5075      Customer#000005075       nTV48jI                  MOROCCO  5MOROCCO        AFRICA      25-443-460-1873MACHINERY 
5083      Customer#000005083       n4PAJ0dy                 GERMANY  4GERMANY        EUROPE      17-241-193-6754FURNITURE 
5091      Customer#000005091       46CLfbu                  UNITED ST6UNITED STATES  AMERICA     34-220-263-8173AUTOMOBILE
5099      Customer#000005099       HCoiA1tt,ZgHHfbeJkx      IRAN     9IRAN           MIDDLE EAST 20-243-707-9763HOUSEHOLD 
5107      Customer#000005107       GH1ieVBRWvh4w            SAUDI ARA8SAUDI ARABIA   MIDDLE EAST 30-129-245-6365FURNITURE 
5115      Customer#000005115       UQorYa3JozpXY            ROMANIA  3ROMANIA        EUROPE      29-622-691-3133FURNITURE 
5123      Customer#000005123       iQlTiqIpI9u              ALGERIA  1ALGERIA        AFRICA      10-544-433-8557FURNITURE 
5131      Customer#000005131       spdUmsLfI9om             ROMANIA  3ROMANIA        EUROPE      29-257-420-3351FURNITURE 
5139      Customer#000005139       KYqcd7m6YTxR             IRAQ     4IRAQ           MIDDLE EAST 21-720-887-3559MACHINERY 
5147      Customer#000005147       9UGmX1zFwEbFe51          SAUDI ARA9SAUDI ARABIA   MIDDLE EAST 30-234-891-8206MACHINERY 
5155      Customer#000005155       VY0PgfBYEbL12KTnlpY6     MOROCCO  2MOROCCO        AFRICA      25-858-751-8602MACHINERY 
5163      Customer#000005163       UXrFGJKgil6ZvGJ8RF       MOROCCO  0MOROCCO        AFRICA      25-727-808-4121BUILDING  
5171      Customer#000005171       nP9lrvQh5gBYN            INDIA    9INDIA          ASIA        18-209-997-7302HOUSEHOLD 
5179      Customer#000005179       AMVR2PFI4 613QhXKiG1     CHINA    8CHINA          ASIA        28-232-491-2482BUILDING  
5187      Customer#000005187       1FJ2lbho                 VIETNAM  1VIETNAM        ASIA        31-379-129-5500HOUSEHOLD 
5195      Customer#000005195       HKUaIcAp2aC3Ob           UNITED KI7UNITED KINGDOM EUROPE      33-169-162-7605BUILDING  
5203      Customer#000005203       YWRJLzISsxF3pF xieq      IRAQ     3IRAQ           MIDDLE EAST 21-337-310-3090FURNITURE 
5211      Customer#000005211       HEQ P57k5Rqq             MOROCCO  2MOROCCO        AFRICA      25-841-311-6550AUTOMOBILE
5219      Customer#000005219       2GscYbhBYfRUzcUY5GDh4S   ETHIOPIA 8ETHIOPIA       AFRICA      15-758-130-9096HOUSEHOLD 
5227      Customer#000005227       ZeEj8e6m                 KENYA    2KENYA          AFRICA      24-376-747-7604AUTOMOBILE
5235      Customer#000005235       YQ1VLe7,UmWlYHlc         ALGERIA  4ALGERIA        AFRICA      10-547-428-4498HOUSEHOLD 
5243      Customer#000005243       xneyjU,,F0Pfxcsf         ETHIOPIA 4ETHIOPIA       AFRICA      15-324-944-6460FURNITURE 
5251      Customer#000005251       ky5owkMPllGz             JAPAN    7JAPAN          ASIA        22-586-179-8691AUTOMOBILE
5259      Customer#000005259       vVi4Mh4X2vt51HXATXgbngH  GERMANY  6GERMANY        EUROPE      17-588-749-5747BUILDING  
5267      Customer#000005267       l7PKteiIuS49b6x          JAPAN    6JAPAN          ASIA        22-244-870-3498MACHINERY 
5275      Customer#000005275       0T4quN,aRhN4N1EmS45      BRAZIL   1BRAZIL         AMERICA     12-905-955-1032AUTOMOBILE
5283      Customer#000005283       FJC,W5cbq0BNeLpp         JAPAN    4JAPAN          ASIA        22-933-705-7820AUTOMOBILE
5291      Customer#000005291        Uy74NuRtprdceJH5mDgl1   INDIA    9INDIA          ASIA        18-517-104-9336BUILDING  
5299      Customer#000005299       CoTu6uL2Enc03jrJ         JAPAN    9JAPAN          ASIA        22-142-748-1319MACHINERY 
5307      Customer#000005307       XgwmkJvXNxMCF            UNITED ST5UNITED STATES  AMERICA     34-824-641-2340BUILDING  
5315      Customer#000005315       mrpEU5upkB4WBHR          JAPAN    7JAPAN          ASIA        22-634-503-4954AUTOMOBILE
5323      Customer#000005323       tiEucGgEH3wgn            INDONESIA5INDONESIA      ASIA        19-740-639-5340AUTOMOBILE
5331      Customer#000005331       nvCPJNIrJWqphLumO        ROMANIA  3ROMANIA        EUROPE      29-977-795-8548MACHINERY 
5339      Customer#000005339       kdrFpfI1fkn c9RwXt3E85   JAPAN    0JAPAN          ASIA        22-664-893-3258MACHINERY 
5347      Customer#000005347       DX1bvKAkH9WBYim          EGYPT    4EGYPT          MIDDLE EAST 14-945-114-6836AUTOMOBILE
5355      Customer#000005355       GkSDutwioYjq             PERU     4PERU           AMERICA     27-146-100-9934BUILDING  
5363      Customer#000005363       2AUp1OKEvTHF6c0V5NFFij   MOROCCO  2MOROCCO        AFRICA      25-287-671-9660MACHINERY 
5371      Customer#000005371       FgdxSdPgxMWwV            UNITED KI3UNITED KINGDOM EUROPE      33-924-430-3335HOUSEHOLD 
5379      Customer#000005379       ,BoNfv7 sT6bCg           PERU     3PERU           AMERICA     27-268-285-8006BUILDING  
5387      Customer#000005387       nhiSA6R9vp               SAUDI ARA6SAUDI ARABIA   MIDDLE EAST 30-330-509-9215MACHINERY 
5395      Customer#000005395       a9Xo,zs6qJ               INDONESIA5INDONESIA      ASIA        19-187-337-2109FURNITURE 
5403      Customer#000005403       MxeUDur4mc0R5AS          JAPAN    6JAPAN          ASIA        22-118-456-4916BUILDING  
5411      Customer#000005411       x6GxvcZTY3a6hXMYbAI9O    FRANCE   8FRANCE         EUROPE      16-554-825-3481MACHINERY 
5419      Customer#000005419       fYc50ICwdmH4pMQQEtK      BRAZIL   8BRAZIL         AMERICA     12-498-943-4072MACHINERY 
5427      Customer#000005427       TPEaskhUIMBVJqb,xp       MOROCCO  3MOROCCO        AFRICA      25-588-422-6089BUILDING  
5435      Customer#000005435       e,qefuhehk 3cW           ARGENTINA1ARGENTINA      AMERICA     11-265-901-1908FURNITURE 
5443      Customer#000005443       sMR2JfbLYKYGjR1ntSGsA    PERU     4PERU           AMERICA     27-528-564-6504BUILDING  
5451      Customer#000005451       CP 9M0cM                 VIETNAM  9VIETNAM        ASIA        31-827-232-5689FURNITURE 
5459      Customer#000005459       FQeeSBm                  ROMANIA  6ROMANIA        EUROPE      29-737-955-6050AUTOMOBILE
5467      Customer#000005467       kv3QbSegCpuWFnjr za      CHINA    7CHINA          ASIA        28-281-211-3258MACHINERY 
5475      Customer#000005475       ArbsgGHOYn5Zm            RUSSIA   4RUSSIA         EUROPE      32-978-466-8275FURNITURE 
5483      Customer#000005483       iNS1KaNPwkT6u5T          VIETNAM  6VIETNAM        ASIA        31-990-277-2477AUTOMOBILE
5491      Customer#000005491       RtzgCatMhHl1ti           BRAZIL   9BRAZIL         AMERICA     12-117-687-5006AUTOMOBILE
5499      Customer#000005499       l,AYXhqn3jaaMToz         FRANCE   4FRANCE         EUROPE      16-297-910-1953FURNITURE 
5507      Customer#000005507       kRtHo                    IRAN     3IRAN           MIDDLE EAST 20-106-976-2728HOUSEHOLD 
5515      Customer#000005515       GXGnijv6mad512NZTVEKYX3D RUSSIA   6RUSSIA         EUROPE      32-957-643-1368BUILDING  
5523      Customer#000005523       52596mTy8VodV,pGbdfuE0M  INDIA    3INDIA          ASIA        18-602-276-4042BUILDING  
5531      Customer#000005531       d49dQvoH7ehbeo           CANADA   6CANADA         AMERICA     13-861-232-3685BUILDING  
5539      Customer#000005539       husDrtPcdqRqvx0olZ1      IRAQ     6IRAQ           MIDDLE EAST 21-309-823-1091AUTOMOBILE
5547      Customer#000005547       dDmzUIwnbOPGabJ80SyRbu   UNITED KI6UNITED KINGDOM EUROPE      33-693-864-6535FURNITURE 
5555      Customer#000005555       zIyhvUWzNSBx2WZFX1k2KSr  KENYA    5KENYA          AFRICA      24-619-299-9740BUILDING  
5563      Customer#000005563       Z9dPfXlOFmuC2h2ET8693    GERMANY  0GERMANY        EUROPE      17-434-424-7153FURNITURE 
5571      Customer#000005571       6ajGjrfXO                GERMANY  9GERMANY        EUROPE      17-741-285-8315BUILDING  
5579      Customer#000005579       InosH0,Q3hITMl8f,vvfDol9 SAUDI ARA7SAUDI ARABIA   MIDDLE EAST 30-659-715-4197AUTOMOBILE
5587      Customer#000005587       HTw7ahX4dWyaJcCyLcK      INDIA    8INDIA          ASIA        18-907-736-4769HOUSEHOLD 
5595      Customer#000005595       TdHBblZGAtdRWZjDQl       VIETNAM  5VIETNAM        ASIA        31-330-687-4289HOUSEHOLD 
5603      Customer#000005603       ,9nBFcgXa0nXXkUlJegIm    JAPAN    2JAPAN          ASIA        22-686-380-5836FURNITURE 
5611      Customer#000005611       Aq0EJX63HiCph IFCplg     IRAN     1IRAN           MIDDLE EAST 20-390-917-2966HOUSEHOLD 
5619      Customer#000005619       Rxkyc2,,X8,MY6bUFfaipY4p UNITED KI3UNITED KINGDOM EUROPE      33-955-469-7938HOUSEHOLD 
5627      Customer#000005627       fvZjeVNTZvnoYPWaP5zgL    PERU     7PERU           AMERICA     27-392-238-4244BUILDING  
5635      Customer#000005635       GXSSNi                   ETHIOPIA 5ETHIOPIA       AFRICA      15-178-723-3918HOUSEHOLD 
5643      Customer#000005643       4dz8GEFVki,jgVNfCIhw     ETHIOPIA 2ETHIOPIA       AFRICA      15-227-377-6687HOUSEHOLD 
5651      Customer#000005651       EPl2dsiMLxKQtveMw6lEnQ   EGYPT    8EGYPT          MIDDLE EAST 14-144-212-6434AUTOMOBILE
5659      Customer#000005659       BIXsyfmBbwTWn36XPD2w     SAUDI ARA5SAUDI ARABIA   MIDDLE EAST 30-821-187-8033BUILDING  
5667      Customer#000005667       xh3,OuoHPNYfbOGsK7fc     ROMANIA  7ROMANIA        EUROPE      29-106-435-1254AUTOMOBILE
5675      Customer#000005675       q3PXN56F9048             BRAZIL   6BRAZIL         AMERICA     12-125-688-8505FURNITURE 
5683      Customer#000005683       JFNWP2XIR1KMIp8iTr4p     EGYPT    3EGYPT          MIDDLE EAST 14-799-456-9407AUTOMOBILE
5691      Customer#000005691       6OrwIr34                 IRAQ     0IRAQ           MIDDLE EAST 21-492-126-5193FURNITURE 
5699      Customer#000005699       MzUyHFIsU0QGlzJx7Dj2     RUSSIA   9RUSSIA         EUROPE      32-952-948-9376MACHINERY 
5707      Customer#000005707       Dz5Wr4gbLUlV q           IRAQ     6IRAQ           MIDDLE EAST 21-892-364-8512AUTOMOBILE
5715      Customer#000005715       Bzlj9EsN1QbUXBDJ791dso8  PERU     9PERU           AMERICA     27-209-701-1291BUILDING  
5723      Customer#000005723       S10ADuyCFcZabQb          EGYPT    6EGYPT          MIDDLE EAST 14-917-505-4880FURNITURE 
5731      Customer#000005731       C2oEN5                   JORDAN   0JORDAN         MIDDLE EAST 23-237-565-1542HOUSEHOLD 
5739      Customer#000005739       icbg1X62GZzLERm          KENYA    4KENYA          AFRICA      24-431-188-8732FURNITURE 
5747      Customer#000005747       H3LDpP5l s               IRAQ     1IRAQ           MIDDLE EAST 21-777-813-1044MACHINERY 
5755      Customer#000005755       cRLEJKAAqpc7l5lZ4fGFK    MOZAMBIQU1MOZAMBIQUE     AFRICA      26-778-657-2218AUTOMOBILE
5763      Customer#000005763       5nnYAlEF1m               CANADA   7CANADA         AMERICA     13-636-351-3504AUTOMOBILE
5771      Customer#000005771       zXOMmMRv0OV              GERMANY  9GERMANY        EUROPE      17-371-893-5517AUTOMOBILE
5779      Customer#000005779       JIo2UtUbDx4Ipc0yN6NTW    UNITED KI7UNITED KINGDOM EUROPE      33-575-367-4373HOUSEHOLD 
5787      Customer#000005787       psDJb0ZQZ2QPFe5          EGYPT    6EGYPT          MIDDLE EAST 14-872-106-8260HOUSEHOLD 
5795      Customer#000005795       FXEvaQbR                 IRAN     2IRAN           MIDDLE EAST 20-521-900-6233BUILDING  
5803      Customer#000005803       ePRVcss7hPHxVUVnv TZ     UNITED ST3UNITED STATES  AMERICA     34-360-162-3081HOUSEHOLD 
5811      Customer#000005811       MXBwVjptk9qssOriy Ny3    IRAN     9IRAN           MIDDLE EAST 20-650-200-2937AUTOMOBILE
5819      Customer#000005819       3XncGR9nyZCYnJMcHMm9Vf   ROMANIA  7ROMANIA        EUROPE      29-961-863-6493FURNITURE 
5827      Customer#000005827       5l69PKW8t12LVkbSIngyc    SAUDI ARA2SAUDI ARABIA   MIDDLE EAST 30-742-254-5968MACHINERY 
5835      Customer#000005835       P4UXPJpsLy33ANvt30vrtB7  ALGERIA  6ALGERIA        AFRICA      10-638-894-9244AUTOMOBILE
5843      Customer#000005843       zAL1ewwgZKD              INDIA    3INDIA          ASIA        18-819-925-6440HOUSEHOLD 
5851      Customer#000005851       sVltzxk AJ6,4AbPhh0R     EGYPT    1EGYPT          MIDDLE EAST 14-549-117-1797BUILDING  
5859      Customer#000005859       FijPCHu5Rn8vVo           GERMANY  1GERMANY        EUROPE      17-230-636-1558MACHINERY 
5867      Customer#000005867       0wCEtyp34s0B oHtuP       MOROCCO  3MOROCCO        AFRICA      25-482-322-8911HOUSEHOLD 
5875      Customer#000005875       R2RGFT3yYvqABWnmUA       ETHIOPIA 5ETHIOPIA       AFRICA      15-571-827-4357BUILDING  
5883      Customer#000005883       06btTy                   KENYA    9KENYA          AFRICA      24-551-893-3476FURNITURE 
5891      Customer#000005891       e8BxBZs                  JAPAN    7JAPAN          ASIA        22-395-176-6964FURNITURE 
5899      Customer#000005899       U4FJnP                   MOROCCO  4MOROCCO        AFRICA      25-664-161-7454AUTOMOBILE
5907      Customer#000005907       ei7N43x,m4uwY1ND9p       KENYA    2KENYA          AFRICA      24-168-580-6528BUILDING  
5915      Customer#000005915       YlPrX WJeI81p6TGbRjmG    CANADA   4CANADA         AMERICA     13-509-360-9555MACHINERY 
5923      Customer#000005923       aWTWkszOxWU4vEFXDXvP     MOROCCO  7MOROCCO        AFRICA      25-805-660-6916BUILDING  
5931      Customer#000005931       dv6ZBArGpZZals9SKMW      FRANCE   9FRANCE         EUROPE      16-318-333-9053HOUSEHOLD 
5939      Customer#000005939       9DoPMpRkKO66nch          FRANCE   0FRANCE         EUROPE      16-861-587-8384MACHINERY 
5947      Customer#000005947       vo,GyMTQhezyauKrOQ       ALGERIA  3ALGERIA        AFRICA      10-385-422-5097FURNITURE 
5955      Customer#000005955       CFhLH,X9KUgPGueSHy4swi   JAPAN    3JAPAN          ASIA        22-488-863-7182FURNITURE 
5963      Customer#000005963       ki0VUpN6xK8uoYuO,bA99Sq  JAPAN    5JAPAN          ASIA        22-423-972-3885AUTOMOBILE
5971      Customer#000005971       N8J4QLD                  ALGERIA  5ALGERIA        AFRICA      10-116-360-8803BUILDING  
5979      Customer#000005979       396Dv7I                  INDONESIA3INDONESIA      ASIA        19-432-986-7505AUTOMOBILE
5987      Customer#000005987       l2Smh7U2fa               BRAZIL   9BRAZIL         AMERICA     12-106-689-7106MACHINERY 
5995      Customer#000005995       LG3GIF                   IRAQ     6IRAQ           MIDDLE EAST 21-564-534-2009MACHINERY 
6003      Customer#000006003       TD5JS9ULaDBUH            MOZAMBIQU8MOZAMBIQUE     AFRICA      26-767-860-7395MACHINERY 
6011      Customer#000006011       wP2fviXCIC9E6kZ2StshJ    ETHIOPIA 4ETHIOPIA       AFRICA      15-184-772-4670HOUSEHOLD 
6019      Customer#000006019       5,lbJvlC                 CHINA    3CHINA          ASIA        28-333-232-8362MACHINERY 
6027      Customer#000006027       hST46enQLI8T             GERMANY  6GERMANY        EUROPE      17-909-501-7042HOUSEHOLD 
6035      Customer#000006035       pzz5CQ3wWzqma            BRAZIL   9BRAZIL         AMERICA     12-424-459-1415FURNITURE 
6043      Customer#000006043       04Ln0a                   INDONESIA3INDONESIA      ASIA        19-336-381-7134AUTOMOBILE
6051      Customer#000006051       k7txud                   EGYPT    4EGYPT          MIDDLE EAST 14-222-384-7912MACHINERY 
6059      Customer#000006059       hbYI6RCnsefLu,WWFcArg    MOROCCO  6MOROCCO        AFRICA      25-158-403-6919BUILDING  
6067      Customer#000006067       wktXPx5LSL5ZSP0shdmYDa   EGYPT    5EGYPT          MIDDLE EAST 14-322-148-1972AUTOMOBILE
6075      Customer#000006075       DOsAAUjRKdmOtvgEMi       ARGENTINA9ARGENTINA      AMERICA     11-516-513-9508FURNITURE 
6083      Customer#000006083       Zk4jDSMrlCCH,MIpgre      IRAQ     0IRAQ           MIDDLE EAST 21-753-184-1481AUTOMOBILE
6091      Customer#000006091       xqRatn5FncOIxHo9oZ9lB    ARGENTINA0ARGENTINA      AMERICA     11-635-302-5996MACHINERY 
6099      Customer#000006099       Zw,1lluCeZSlb            UNITED KI4UNITED KINGDOM EUROPE      33-788-673-8320HOUSEHOLD 
6107      Customer#000006107       ,4I3WYJQN9ZAWX           ROMANIA  1ROMANIA        EUROPE      29-495-709-8505FURNITURE 
6115      Customer#000006115       r3MSiTaTNNKpIXe          VIETNAM  2VIETNAM        ASIA        31-581-975-7741MACHINERY 
6123      Customer#000006123       rriyD1ssl4dg             ROMANIA  4ROMANIA        EUROPE      29-743-455-8560BUILDING  
6131      Customer#000006131       EwoT1zK                  JORDAN   2JORDAN         MIDDLE EAST 23-741-237-8624BUILDING  
6139      Customer#000006139       3r3Uc,7NMqKxby7          PERU     6PERU           AMERICA     27-607-543-5449AUTOMOBILE
6147      Customer#000006147       fr6iYAVpls5              VIETNAM  5VIETNAM        ASIA        31-327-403-4894FURNITURE 
6155      Customer#000006155       03gJRZx3TGwScCd8d1       SAUDI ARA9SAUDI ARABIA   MIDDLE EAST 30-393-458-1602HOUSEHOLD 
6163      Customer#000006163       tmxBpVae0jKAe9vXikmL     VIETNAM  4VIETNAM        ASIA        31-171-192-8593AUTOMOBILE
6171      Customer#000006171       SNyHcZsmA5Eyd            ROMANIA  9ROMANIA        EUROPE      29-718-962-2230MACHINERY 
6179      Customer#000006179       0MU9 AVKw SeY            FRANCE   0FRANCE         EUROPE      16-649-160-9643AUTOMOBILE
6187      Customer#000006187       LJJpyf,OZivsv6IQBJG3gEis MOROCCO  2MOROCCO        AFRICA      25-313-288-9012AUTOMOBILE
6195      Customer#000006195       eVLaPYm6NRhq             ALGERIA  1ALGERIA        AFRICA      10-237-461-3994FURNITURE 
6203      Customer#000006203       xVMuglbV53zSLL4wb7Mxb,pk ROMANIA  2ROMANIA        EUROPE      29-199-406-6834BUILDING  
6211      Customer#000006211       ,bXG5MlIamK              BRAZIL   4BRAZIL         AMERICA     12-874-767-2784BUILDING  
6219      Customer#000006219       lM 6tdVkyERY,wQ          INDIA    3INDIA          ASIA        18-248-895-1484FURNITURE 
6227      Customer#000006227       hQpDSUJLnjcvDZ4WbiV      IRAQ     5IRAQ           MIDDLE EAST 21-983-447-2050FURNITURE 
6235      Customer#000006235       YpIuvasSAU               IRAQ     1IRAQ           MIDDLE EAST 21-530-388-7861AUTOMOBILE
6243      Customer#000006243       JotibBD2                 ROMANIA  3ROMANIA        EUROPE      29-167-148-7798AUTOMOBILE
6251      Customer#000006251       GWig6svLrx4Lcr0I tMBGMgd INDIA    8INDIA          ASIA        18-707-724-4676AUTOMOBILE
6259      Customer#000006259       fpEAMihvplhOKyor ZRcf2b  MOZAMBIQU2MOZAMBIQUE     AFRICA      26-426-746-9799AUTOMOBILE
6267      Customer#000006267       Hxi,BwRbqRQUkum7Ts3R     SAUDI ARA3SAUDI ARABIA   MIDDLE EAST 30-957-839-6996HOUSEHOLD 
6275      Customer#000006275       vFGTLUjxiQu4HEiY16P1     ALGERIA  9ALGERIA        AFRICA      10-406-903-1751AUTOMOBILE
6283      Customer#000006283       tmVqD0Br                 KENYA    9KENYA          AFRICA      24-563-967-9487HOUSEHOLD 
6291      Customer#000006291       JwSPtW9LtBAL             MOROCCO  0MOROCCO        AFRICA      25-914-196-3556HOUSEHOLD 
6299      Customer#000006299       ,4uQAq3HIX7q             EGYPT    7EGYPT          MIDDLE EAST 14-918-370-3330HOUSEHOLD 
6307      Customer#000006307       FJlRZXhd4LA,uWwwa78A     ROMANIA  5ROMANIA        EUROPE      29-838-803-3090AUTOMOBILE
6315      Customer#000006315       H3lTGf                   FRANCE   0FRANCE         EUROPE      16-149-554-5767BUILDING  
6323      Customer#000006323       CSFI2KxIkCJ7O,KVsI9r     UNITED KI0UNITED KINGDOM EUROPE      33-757-207-5058MACHINERY 
6331      Customer#000006331       7,qAyD7LhheRuO           INDONESIA0INDONESIA      ASIA        19-714-482-5239MACHINERY 
6339      Customer#000006339       tk70NFG92XanAXo,NyS      JAPAN    0JAPAN          ASIA        22-428-673-4711BUILDING  
6347      Customer#000006347       70IEncoPD8K5Vin9BRk      UNITED KI8UNITED KINGDOM EUROPE      33-693-142-6187MACHINERY 
6355      Customer#000006355       0gR84cQxuKr0m6V3z6YnGms2 CANADA   1CANADA         AMERICA     13-299-573-2173HOUSEHOLD 
6363      Customer#000006363       M,pjP 1RfkcWiPc0wMlUmia  MOROCCO  1MOROCCO        AFRICA      25-379-832-8700AUTOMOBILE
6371      Customer#000006371       sqDry7KOh6ztkEJrG        MOZAMBIQU2MOZAMBIQUE     AFRICA      26-929-917-6833MACHINERY 
6379      Customer#000006379       fJOnWmoLfEKa8FDt9T6foVT  ARGENTINA0ARGENTINA      AMERICA     11-461-963-8160MACHINERY 
6387      Customer#000006387       YU5Ai0A                  IRAN     0IRAN           MIDDLE EAST 20-254-331-1539MACHINERY 
6395      Customer#000006395       g qNyxByuAIIKgSdK8ye9    PERU     0PERU           AMERICA     27-212-944-1842MACHINERY 
6403      Customer#000006403       9eX1E4GyIXptoHrL5db      UNITED ST5UNITED STATES  AMERICA     34-613-958-8839FURNITURE 
6411      Customer#000006411       z3ej9PD1gmKm1uaQySQhjF   ALGERIA  0ALGERIA        AFRICA      10-776-524-1472FURNITURE 
6419      Customer#000006419       JisGDcZRiDHg4yLNKSc      JAPAN    7JAPAN          ASIA        22-922-911-8023FURNITURE 
6427      Customer#000006427       Xa17u3du45DiLnp          ETHIOPIA 1ETHIOPIA       AFRICA      15-690-854-2936HOUSEHOLD 
6435      Customer#000006435       Bg7iFjWjLVQKT0AEclRbHP   VIETNAM  9VIETNAM        ASIA        31-737-695-1803AUTOMOBILE
6443      Customer#000006443       pHv34YqZSMUDlEyx         FRANCE   3FRANCE         EUROPE      16-313-332-1528BUILDING  
6451      Customer#000006451       E,ekihaEI,uN4kGRUwQ c    JAPAN    9JAPAN          ASIA        22-899-235-8526AUTOMOBILE
6459      Customer#000006459       zd0TdwWz,IhDrPeawC       MOZAMBIQU0MOZAMBIQUE     AFRICA      26-921-676-5493AUTOMOBILE
6467      Customer#000006467       VKsGXyxDaRzjYny fn 1zO   IRAQ     0IRAQ           MIDDLE EAST 21-811-622-3358BUILDING  
6475      Customer#000006475       itSIjP3CZMWKp3Mj         INDIA    8INDIA          ASIA        18-370-737-3255FURNITURE 
6483      Customer#000006483       ZT8TwDu                  IRAQ     1IRAQ           MIDDLE EAST 21-382-728-7083FURNITURE 
6491      Customer#000006491       J3,jSVfCkxq91fHjycRrqx1  FRANCE   1FRANCE         EUROPE      16-775-931-2541AUTOMOBILE
6499      Customer#000006499       zXN1H4vSEbL VEv          RUSSIA   1RUSSIA         EUROPE      32-792-552-2053FURNITURE 
