5         Customer#000000005       KvpyuHCplrB84WgAi        CANADA   8CANADA         AMERICA     13-935-603-9031HOUSEHOLD 
13        Customer#000000013       nsXQu0oVjD7PM6           CANADA   2CANADA         AMERICA     13-876-629-3086BUILDING  
21        Customer#000000021       XYmVpr9y                 INDIA    7INDIA          ASIA        18-381-182-6789MACHINERY 
29        Customer#000000029       sJ5adtfyAkCK63df2,vF     ALGERIA  9ALGERIA        AFRICA      10-887-852-6063FURNITURE 
37        Customer#000000037       7EV4Pwh,3S               INDIA    6INDIA          ASIA        18-417-933-9771FURNITURE 
45        Customer#000000045       4v3OcpFgoOmMG,           INDONESIA4INDONESIA      ASIA        19-616-151-2581AUTOMOBILE
53        Customer#000000053       HnaxHzTfFTZs8MuCpJyT     MOROCCO  8MOROCCO        AFRICA      25-900-981-7775HOUSEHOLD 
61        Customer#000000061       9kndve4EAJxhg3veF BfXr7A PERU     6PERU           AMERICA     27-322-698-8673FURNITURE 
69        Customer#000000069       Ltx17nO9Wwhtdbe9QZVxNgP9 INDONESIA6INDONESIA      ASIA        19-874-899-3776HOUSEHOLD 
77        Customer#000000077       4tAE5KdMFGD4b            PERU     0PERU           AMERICA     27-672-306-4977BUILDING  
85        Customer#000000085       siRerlDwiolhYR 8         ETHIOPIA 8ETHIOPIA       AFRICA      15-145-666-5509FURNITURE 
93        Customer#000000093       EHXBr2                   GERMANY  9GERMANY        EUROPE      17-436-368-1920MACHINERY 
101       Customer#000000101       sMmL2rNeHDl              BRAZIL   0BRAZIL         AMERICA     12-781-472-5108MACHINERY 
109       Customer#000000109       OOOkYBgCMzgMQXUmkocoL    MOZAMBIQU0MOZAMBIQUE     AFRICA      26-972-298-9706BUILDING  
117       Customer#000000117       uNhM,PzsRA3S,5Y          UNITED ST5UNITED STATES  AMERICA     34-324-176-8705FURNITURE 
125       Customer#000000125       ,wSZXdVR xxIIfm9s8ITyL   ROMANIA  8ROMANIA        EUROPE      29-419-539-6898FURNITURE 
133       Customer#000000133       IMCuXdpIvdkYO92kgD       PERU     6PERU           AMERICA     27-298-788-5204AUTOMOBILE
141       Customer#000000141       5IW,WROVnikc3l7DwiUDG    ARGENTINA9ARGENTINA      AMERICA     11-155-866-3623FURNITURE 
149       Customer#000000149       3byTHCp2mNL              ROMANIA  2ROMANIA        EUROPE      29-750-871-1437AUTOMOBILE
157       Customer#000000157       HGEouzCcFrNd nBAdsCRjsMx MOROCCO  0MOROCCO        AFRICA      25-899-130-1535BUILDING  
165       Customer#000000165       8pc6kwBmwBdEnfVP53       ALGERIA  2ALGERIA        AFRICA      10-430-663-7468HOUSEHOLD 
173       Customer#000000173       Aue7KVz,FinSHpov Vk5e    INDONESIA9INDONESIA      ASIA        19-632-151-4925BUILDING  
181       Customer#000000181       YNviWd WrRkZvS           INDONESIA0INDONESIA      ASIA        19-980-164-8218FURNITURE 
189       Customer#000000189       r51HSq Rg8wQgF1C         RUSSIA   2RUSSIA         EUROPE      32-649-860-3442MACHINERY 
197       Customer#000000197       UeVqssepNu               ARGENTINA1ARGENTINA      AMERICA     11-374-461-6394AUTOMOBILE
205       Customer#000000205       jOTQBGb nhfBMu3,LI       JAPAN    5JAPAN          ASIA        22-621-273-8992BUILDING  
213       Customer#000000213       NpqMYBhBcW               UNITED ST8UNITED STATES  AMERICA     34-413-543-8450HOUSEHOLD 
221       Customer#000000221       ripNyyPOewg8             MOZAMBIQU7MOZAMBIQUE     AFRICA      26-137-882-5286BUILDING  
229       Customer#000000229       Sbvjxgmwy4u6Ks1FH7l      ARGENTINA5ARGENTINA      AMERICA     11-652-882-5962BUILDING  
237       Customer#000000237       R dtznB5                 ROMANIA  2ROMANIA        EUROPE      29-125-478-2938HOUSEHOLD 
245       Customer#000000245       IseFIO7jTGPTzAdZP        JAPAN    1JAPAN          ASIA        22-995-660-6374MACHINERY 
253       Customer#000000253       naGyIRP                  MOROCCO  5MOROCCO        AFRICA      25-849-845-8153AUTOMOBILE
261       Customer#000000261       dXkVi8                   JAPAN    8JAPAN          ASIA        22-919-704-8810AUTOMOBILE
269       Customer#000000269       J7kLF9iPOQA 7CVwAmQRpwfZ KENYA    6KENYA          AFRICA      24-521-275-5669MACHINERY 
277       Customer#000000277       BWGsQevHk0BfRJ           UNITED KI3UNITED KINGDOM EUROPE      33-872-182-6616BUILDING  
285       Customer#000000285       ApUL7bgFMUXGXewpoQyQO    SAUDI ARA7SAUDI ARABIA   MIDDLE EAST 30-670-218-7386FURNITURE 
293       Customer#000000293       7ynwX7lZ3o2cmAWSk        BRAZIL   8BRAZIL         AMERICA     12-818-425-2983MACHINERY 
301       Customer#000000301       FtFq9Cgg                 GERMANY  0GERMANY        EUROPE      17-874-345-6913HOUSEHOLD 
309       Customer#000000309       6Jg4ECVS                 VIETNAM  0VIETNAM        ASIA        31-969-445-3767FURNITURE 
317       Customer#000000317       uOeuL8                   ROMANIA  3ROMANIA        EUROPE      29-853-441-2858HOUSEHOLD 
325       Customer#000000325       Z I43vl3ta3iYmjXNaSM d   MOROCCO  6MOROCCO        AFRICA      25-823-265-9155HOUSEHOLD 
333       Customer#000000333       heiloGYs Yey7NKhEFoiN    IRAQ     3IRAQ           MIDDLE EAST 21-273-775-2650AUTOMOBILE
341       Customer#000000341       4,zQfld2YV9TSeNgCS       INDONESIA3INDONESIA      ASIA        19-229-546-3180FURNITURE 
349       Customer#000000349       vjJBjxjW9uoRZP02nS p6XY  UNITED KI5UNITED KINGDOM EUROPE      33-313-356-4141BUILDING  
357       Customer#000000357       l2C0Xkdib4t4 qKFU        CHINA    1CHINA          ASIA        28-304-159-4087AUTOMOBILE
365       Customer#000000365       QiZRz                    UNITED ST7UNITED STATES  AMERICA     34-838-816-8974HOUSEHOLD 
373       Customer#000000373       2hrQ wHkbaNlJCzY,mVkugMI SAUDI ARA0SAUDI ARABIA   MIDDLE EAST 30-470-737-5764MACHINERY 
381       Customer#000000381       w3zVseYDbj               ETHIOPIA 6ETHIOPIA       AFRICA      15-306-378-5962BUILDING  
389       Customer#000000389       ij8KNM0,HRvIvnvY w8j     INDONESIA2INDONESIA      ASIA        19-155-352-2237AUTOMOBILE
397       Customer#000000397       EzR2BKJ8                 GERMANY  7GERMANY        EUROPE      17-771-292-7108FURNITURE 
405       Customer#000000405       mCQNH1rJtqjjQ9Piauc2bZr  IRAN     9IRAN           MIDDLE EAST 20-481-612-1085MACHINERY 
413       Customer#000000413       ,4Jm5N0ruhJC             FRANCE   8FRANCE         EUROPE      16-223-179-6998FURNITURE 
421       Customer#000000421       it3mUlkZA                JORDAN   0JORDAN         MIDDLE EAST 23-526-778-6612FURNITURE 
429       Customer#000000429       kZBtY,LQAFu4iaSag        MOROCCO  8MOROCCO        AFRICA      25-887-310-3346FURNITURE 
437       Customer#000000437       0PM1xuHd0q2ElcJp 77F2My  EGYPT    9EGYPT          MIDDLE EAST 14-925-375-8587AUTOMOBILE
445       Customer#000000445       MX1UA0KUJzIGyWM p2hbLg5  SAUDI ARA2SAUDI ARABIA   MIDDLE EAST 30-138-124-3815FURNITURE 
453       Customer#000000453       PZ4mmWL7R,El0MtLWMfL     INDIA    0INDIA          ASIA        18-905-150-9827HOUSEHOLD 
461       Customer#000000461       5vxNLzSASzkb             VIETNAM  2VIETNAM        ASIA        31-917-748-1384AUTOMOBILE
469       Customer#000000469       JWOULM                   JAPAN    4JAPAN          ASIA        22-222-255-5912BUILDING  
477       Customer#000000477       5aW5WHphNgFdIS1Qd        UNITED KI2UNITED KINGDOM EUROPE      33-168-765-8924AUTOMOBILE
485       Customer#000000485       XeFbvX                   ROMANIA  7ROMANIA        EUROPE      29-918-368-8007MACHINERY 
493       Customer#000000493       G dRBjxmBBug1 xRSa       MOZAMBIQU9MOZAMBIQUE     AFRICA      26-472-961-8329MACHINERY 
501       Customer#000000501       lzkYA5C                  JORDAN   7JORDAN         MIDDLE EAST 23-422-914-8495FURNITURE 
509       Customer#000000509       LHLR0IKQJHVF1            EGYPT    6EGYPT          MIDDLE EAST 14-380-562-7439FURNITURE 
517       Customer#000000517       mSo5eI8F4E6Kgl63nWt      IRAN     0IRAN           MIDDLE EAST 20-594-884-1454FURNITURE 
525       Customer#000000525       w0pOG5FhH45aYg7m         ROMANIA  5ROMANIA        EUROPE      29-461-684-3288AUTOMOBILE
533       Customer#000000533       mSt8Gj4JqXXeDScn2CB PIr  MOROCCO  1MOROCCO        AFRICA      25-244-420-1373HOUSEHOLD 
541       Customer#000000541       ,Cris88wkHw4Q0XlC        ALGERIA  4ALGERIA        AFRICA      10-809-576-3957FURNITURE 
549       Customer#000000549       v5uqfeHLiL1IELejUDnagWqP UNITED ST9UNITED STATES  AMERICA     34-244-750-9619BUILDING  
557       Customer#000000557       Nt6FUu                   MOROCCO  5MOROCCO        AFRICA      25-302-987-3269BUILDING  
565       Customer#000000565       HCBXAou,1eP6Z3IynHF      EGYPT    8EGYPT          MIDDLE EAST 14-106-670-1902FURNITURE 
573       Customer#000000573       BEluH7it7jUcWqb tNL      EGYPT    8EGYPT          MIDDLE EAST 14-324-111-3097HOUSEHOLD 
581       Customer#000000581       s9SoN9Xe                 UNITED ST2UNITED STATES  AMERICA     34-879-268-2515MACHINERY 
589       Customer#000000589       TvdYNogIzDfr 1UyJE4b     ROMANIA  5ROMANIA        EUROPE      29-579-414-2916FURNITURE 
597       Customer#000000597       Dbv,XVG                  MOROCCO  4MOROCCO        AFRICA      25-134-395-3010AUTOMOBILE
605       Customer#000000605       QAxZ0IXgCzUfNjse         UNITED KI3UNITED KINGDOM EUROPE      33-564-853-2774HOUSEHOLD 
613       Customer#000000613       AJT,26RbanTd             EGYPT    7EGYPT          MIDDLE EAST 14-501-560-1989AUTOMOBILE
621       Customer#000000621       IpFo6e22CRink74PUEPth    PERU     5PERU           AMERICA     27-750-225-6435HOUSEHOLD 
629       Customer#000000629       LeXGhXX1mFQ0Cq,7taW r    JAPAN    9JAPAN          ASIA        22-942-922-7231AUTOMOBILE
637       Customer#000000637       Ey7g4q2o                 GERMANY  6GERMANY        EUROPE      17-329-613-2170HOUSEHOLD 
645       Customer#000000645       I,Kso,IZ,AL2rK4HhIB1w    IRAQ     9IRAQ           MIDDLE EAST 21-572-486-6500BUILDING  
653       Customer#000000653       la,ROBPJ4I2YNzQw,RpbB0s  IRAQ     8IRAQ           MIDDLE EAST 21-987-278-4765BUILDING  
661       Customer#000000661       1MqWuuRVM5y5N            EGYPT    3EGYPT          MIDDLE EAST 14-210-801-1445HOUSEHOLD 
669       Customer#000000669       axdO3iaVyYXSxnqnwC0p     IRAN     4IRAN           MIDDLE EAST 20-359-742-8779MACHINERY 
677       Customer#000000677       ,wTtWOOr  wqX2sL,h7      CANADA   7CANADA         AMERICA     13-939-681-1334AUTOMOBILE
685       Customer#000000685       eRvmYO                   PERU     5PERU           AMERICA     27-413-624-5239MACHINERY 
693       Customer#000000693       r5gn5SUW0tsf             ARGENTINA4ARGENTINA      AMERICA     11-297-485-8018AUTOMOBILE
701       Customer#000000701       yQU8LcjocNHkk1hse30      BRAZIL   7BRAZIL         AMERICA     12-321-984-7519FURNITURE 
709       Customer#000000709       drDnC6YXTJgcdfJkpbhrQ7z  CHINA    3CHINA          ASIA        28-291-220-4804BUILDING  
717       Customer#000000717       TqWi1c aNhdExP           JAPAN    3JAPAN          ASIA        22-102-421-6313MACHINERY 
725       Customer#000000725       fm8t3X05Wm,PQxPSPHZy,    MOZAMBIQU7MOZAMBIQUE     AFRICA      26-701-821-2271FURNITURE 
733       Customer#000000733       Ks7Ed2g7zDP905tLGdGcFt   JORDAN   4JORDAN         MIDDLE EAST 23-161-373-3413HOUSEHOLD 
741       Customer#000000741       jiPAOQuJ5gIauMfv         JAPAN    8JAPAN          ASIA        22-359-147-2559HOUSEHOLD 
749       Customer#000000749       U1Dvu0                   UNITED ST9UNITED STATES  AMERICA     34-260-683-5171MACHINERY 
757       Customer#000000757       VFnouow3L                CANADA   8CANADA         AMERICA     13-817-496-3576AUTOMOBILE
765       Customer#000000765       b7w2edOUZNe0QX 3         SAUDI ARA6SAUDI ARABIA   MIDDLE EAST 30-899-509-8289AUTOMOBILE
773       Customer#000000773       NyRSeog kIkD7YOb0EuSfS   INDIA    2INDIA          ASIA        18-534-580-8644FURNITURE 
781       Customer#000000781       FQCAkyfV0 kL3,FN         CHINA    3CHINA          ASIA        28-764-102-7542MACHINERY 
789       Customer#000000789       DW0NMV Ci5V2bnsX0Al98p   INDONESIA8INDONESIA      ASIA        19-639-175-5460BUILDING  
797       Customer#000000797       bdGkzA5duas6LZ1ywB96     ALGERIA  7ALGERIA        AFRICA      10-913-441-5397HOUSEHOLD 
805       Customer#000000805       wCKx5zcHvwpSffyc9qfi     IRAN     2IRAN           MIDDLE EAST 20-175-847-6919BUILDING  
813       Customer#000000813       VBNrCY                   INDONESIA2INDONESIA      ASIA        19-834-165-9767HOUSEHOLD 
821       Customer#000000821       PVdTfF7cfPueJS0MBncE     ETHIOPIA 3ETHIOPIA       AFRICA      15-373-133-9719FURNITURE 
829       Customer#000000829       4oht3f64ZWA1,ACbBP9D     INDIA    5INDIA          ASIA        18-151-855-9826MACHINERY 
837       Customer#000000837       mMNC8wjT5a               INDONESIA5INDONESIA      ASIA        19-433-781-4993BUILDING  
845       Customer#000000845       fIq5p0GpDtw6FIsPMdb      JORDAN   1JORDAN         MIDDLE EAST 23-335-741-9441AUTOMOBILE
853       Customer#000000853       U0 9PrwAgWK8AE0GHmnCG    BRAZIL   7BRAZIL         AMERICA     12-986-243-4970MACHINERY 
861       Customer#000000861       GvlCZ4fJYbHTOTYczE1iH2k  KENYA    1KENYA          AFRICA      24-916-512-5870BUILDING  
869       Customer#000000869       PDGU7BXDNXAo0vmo7        BRAZIL   6BRAZIL         AMERICA     12-581-623-3487HOUSEHOLD 
877       Customer#000000877       uYO2BKogrHcOcHEgzjl      MOZAMBIQU4MOZAMBIQUE     AFRICA      26-899-215-4632MACHINERY 
885       Customer#000000885       nNUbC73nP                ETHIOPIA 8ETHIOPIA       AFRICA      15-402-944-6677HOUSEHOLD 
893       Customer#000000893       W6m7LofOZo               JORDAN   7JORDAN         MIDDLE EAST 23-233-131-6052BUILDING  
901       Customer#000000901       QUyXt94YM6               JAPAN    1JAPAN          ASIA        22-176-453-5772HOUSEHOLD 
909       Customer#000000909       b 2X284A5AGpt8skuYwMvT   UNITED ST1UNITED STATES  AMERICA     34-644-756-7883MACHINERY 
917       Customer#000000917       KZ TS0omSFmUQkIOmzlX     ARGENTINA6ARGENTINA      AMERICA     11-895-537-2039HOUSEHOLD 
925       Customer#000000925       jn Razhw70hWtHN4iRBWsf1  IRAN     3IRAN           MIDDLE EAST 20-147-899-1932AUTOMOBILE
933       Customer#000000933       V0SPv2Vb                 KENYA    4KENYA          AFRICA      24-985-551-2604MACHINERY 
941       Customer#000000941       297w97UgOfpV3pv2QniJUW   ROMANIA  3ROMANIA        EUROPE      29-437-885-8068FURNITURE 
949       Customer#000000949       tOBbBIfhWM lNI3Y         BRAZIL   5BRAZIL         AMERICA     12-626-988-1168AUTOMOBILE
957       Customer#000000957       9F8p,XsLLxy              ROMANIA  1ROMANIA        EUROPE      29-850-816-1641FURNITURE 
965       Customer#000000965       UigBc,9d1iLtQAVatnWA     BRAZIL   8BRAZIL         AMERICA     12-991-494-6008MACHINERY 
973       Customer#000000973       FT4jTOdV                 ALGERIA  3ALGERIA        AFRICA      10-933-818-4248FURNITURE 
981       Customer#000000981       pM4DXkl6Y,7S6a6jlJ       CHINA    3CHINA          ASIA        28-621-894-3220MACHINERY 
989       Customer#000000989       pKuixWbH6XZFJY0uZ        IRAN     3IRAN           MIDDLE EAST 20-325-470-1008AUTOMOBILE
997       Customer#000000997       85KMCT2D2RIGayG99ozp     PERU     2PERU           AMERICA     27-731-499-6553FURNITURE 
1005      Customer#000001005       cTWPLcTvotj              JORDAN   7JORDAN         MIDDLE EAST 23-820-992-3119AUTOMOBILE
1013      Customer#000001013       k5rfeOtc                 MOROCCO  1MOROCCO        AFRICA      25-549-116-5163BUILDING  
1021      Customer#000001021       m h2wQbujQnQOrc          FRANCE   9FRANCE         EUROPE      16-520-288-5082MACHINERY 
1029      Customer#000001029       D3TLK5                   MOROCCO  7MOROCCO        AFRICA      25-886-733-4598BUILDING  
1037      Customer#000001037       dwgDZPKR5ZuU3HO2sDO      UNITED KI5UNITED KINGDOM EUROPE      33-144-711-9293BUILDING  
1045      Customer#000001045       clvGUnQPLbzX 23hemP      SAUDI ARA3SAUDI ARABIA   MIDDLE EAST 30-225-696-5615HOUSEHOLD 
1053      Customer#000001053       wDJTteyausmZ             MOZAMBIQU0MOZAMBIQUE     AFRICA      26-865-903-8811MACHINERY 
1061      Customer#000001061       CqLhg io1CpQKhrVHHDhWg   EGYPT    2EGYPT          MIDDLE EAST 14-797-375-9481BUILDING  
1069      Customer#000001069       PdWrPGSArhnq             VIETNAM  5VIETNAM        ASIA        31-141-613-6690BUILDING  
1077      Customer#000001077       sjk1DTHWVMX53kG8AbTtTh1E VIETNAM  5VIETNAM        ASIA        31-690-853-4576AUTOMOBILE
1085      Customer#000001085       pZgtHRGIkUVwiEJLWZXs3    VIETNAM  9VIETNAM        ASIA        31-899-393-9834BUILDING  
1093      Customer#000001093       LO,9qCPIjSXriBqQsAOX     UNITED ST7UNITED STATES  AMERICA     34-350-224-9744HOUSEHOLD 
1101      Customer#000001101       h,UOEyo                  CANADA   0CANADA         AMERICA     13-903-248-5120MACHINERY 
1109      Customer#000001109       BJCfTYEV9eC              RUSSIA   9RUSSIA         EUROPE      32-968-841-7779FURNITURE 
1117      Customer#000001117       80NfzBRWj5tUUa           UNITED KI0UNITED KINGDOM EUROPE      33-937-661-9068FURNITURE 
1125      Customer#000001125       DrHkeaX6wshtu            CANADA   5CANADA         AMERICA     13-451-590-8499MACHINERY 
1133      Customer#000001133       FfA0o cMP02Ylz           KENYA    3KENYA          AFRICA      24-965-254-8773MACHINERY 
1141      Customer#000001141       A6uzuXpgRPp19            RUSSIA   0RUSSIA         EUROPE      32-416-141-2375MACHINERY 
1149      Customer#000001149       5JOAwCy8MD70TUZ          CANADA   8CANADA         AMERICA     13-254-745-2042MACHINERY 
1157      Customer#000001157       3rchTZwilGpffMz1MfpnkFfW SAUDI ARA5SAUDI ARABIA   MIDDLE EAST 30-224-803-8828HOUSEHOLD 
1165      Customer#000001165       h7KTXG                   INDONESIA8INDONESIA      ASIA        19-492-365-1024MACHINERY 
1173      Customer#000001173       6Abj72jR5Z0GYQ           CHINA    8CHINA          ASIA        28-138-261-9815FURNITURE 
1181      Customer#000001181       ZFFYipzTg0vSjOhP         IRAN     1IRAN           MIDDLE EAST 20-949-679-6253AUTOMOBILE
1189      Customer#000001189       rbnZCbJST                IRAN     7IRAN           MIDDLE EAST 20-825-722-1654HOUSEHOLD 
1197      Customer#000001197       9A1LTDf                  ALGERIA  8ALGERIA        AFRICA      10-629-338-7514FURNITURE 
1205      Customer#000001205       1ALD7GN4Iw0              INDIA    8INDIA          ASIA        18-689-198-1939HOUSEHOLD 
1213      Customer#000001213       4ATLYSTcqLf              GERMANY  8GERMANY        EUROPE      17-532-315-2958HOUSEHOLD 
1221      Customer#000001221       4mmeiym                  RUSSIA   6RUSSIA         EUROPE      32-528-236-4762FURNITURE 
1229      Customer#000001229       csvrfG                   INDONESIA9INDONESIA      ASIA        19-541-747-5000FURNITURE 
1237      Customer#000001237        CQEeqR ,c               SAUDI ARA2SAUDI ARABIA   MIDDLE EAST 30-785-572-4773BUILDING  
1245      Customer#000001245        xLnSgzY70q              EGYPT    3EGYPT          MIDDLE EAST 14-563-537-7019FURNITURE 
1253      Customer#000001253       2rEfA2LR6LkUXjoMxIsv58Y  ARGENTINA8ARGENTINA      AMERICA     11-735-910-1927BUILDING  
1261      Customer#000001261       mWs6m9Q                  SAUDI ARA5SAUDI ARABIA   MIDDLE EAST 30-754-967-9614BUILDING  
1269      Customer#000001269       j2hwJHCMprK8HQdK7Dpe     IRAN     2IRAN           MIDDLE EAST 20-926-384-5610BUILDING  
1277      Customer#000001277       2ETOoQW                  KENYA    7KENYA          AFRICA      24-528-856-5167BUILDING  
1285      Customer#000001285       5Hy,ajDzJPtZFeJedRSeL    ROMANIA  4ROMANIA        EUROPE      29-383-834-5543HOUSEHOLD 
1293      Customer#000001293       E79dBMCNl5xXBwtnSsju     JAPAN    8JAPAN          ASIA        22-619-856-5977HOUSEHOLD 
1301      Customer#000001301       oR0kHfL6GWhF VPD,mM1     IRAN     9IRAN           MIDDLE EAST 20-975-774-7581MACHINERY 
1309      Customer#000001309       xaOhk73bjekYrVc5zZ36c,Gu IRAN     4IRAN           MIDDLE EAST 20-357-580-6545AUTOMOBILE
1317      Customer#000001317       a6M1wd                   KENYA    0KENYA          AFRICA      24-941-295-8665AUTOMOBILE
1325      Customer#000001325       Agu uZvi6Xv7             GERMANY  9GERMANY        EUROPE      17-104-812-8322HOUSEHOLD 
1333      Customer#000001333       o9o6lky2KYgFZ2cSx5       BRAZIL   2BRAZIL         AMERICA     12-899-460-2107AUTOMOBILE
1341      Customer#000001341       n5dnBrBUHnNEnaglCr       CHINA    6CHINA          ASIA        28-344-636-7145MACHINERY 
1349      Customer#000001349       HvlnFsKOdm39Ge           CHINA    1CHINA          ASIA        28-292-537-4382AUTOMOBILE
1357      Customer#000001357       S1bDHNFkDE               MOROCCO  1MOROCCO        AFRICA      25-561-190-1917BUILDING  
1365      Customer#000001365       DOifjgJKjlSgnpPJ3cHL     PERU     8PERU           AMERICA     27-332-629-1008MACHINERY 
1373      Customer#000001373       fAfmAac                  JORDAN   3JORDAN         MIDDLE EAST 23-222-747-1476FURNITURE 
1381      Customer#000001381       HqKfFUD6Ib9yoFM5cIgMxjX  RUSSIA   4RUSSIA         EUROPE      32-413-477-3511BUILDING  
1389      Customer#000001389       ORf,IQyXsXJ              ROMANIA  3ROMANIA        EUROPE      29-603-101-5475FURNITURE 
1397      Customer#000001397       1bk KBemIEsKhD3VyX       INDIA    2INDIA          ASIA        18-145-726-4552AUTOMOBILE
1405      Customer#000001405       i9khsGcg17kWI4q5LKTc     MOZAMBIQU3MOZAMBIQUE     AFRICA      26-153-583-6381BUILDING  
1413      Customer#000001413       9Yh cGpbCbrXZyt          MOROCCO  4MOROCCO        AFRICA      25-639-559-5414AUTOMOBILE
1421      Customer#000001421       Qx9tZ9                   JAPAN    3JAPAN          ASIA        22-420-829-9594MACHINERY 
1429      Customer#000001429       K5sID 6zGPrYdfoAD        CANADA   9CANADA         AMERICA     13-319-117-8757AUTOMOBILE
1437      Customer#000001437       DjHgTwtl                 PERU     0PERU           AMERICA     27-984-436-6234BUILDING  
1445      Customer#000001445       5y7gtM75FOfTSBKx         VIETNAM  0VIETNAM        ASIA        31-183-761-9885HOUSEHOLD 
1453      Customer#000001453       FTfWkW1 8jVgOIIR9sMm     ALGERIA  9ALGERIA        AFRICA      10-899-975-4962BUILDING  
1461      Customer#000001461       MMmT5l0zAilFCb2Z         CANADA   1CANADA         AMERICA     13-530-180-9241AUTOMOBILE
1469      Customer#000001469       yLW8qLv25wuMsi           GERMANY  0GERMANY        EUROPE      17-321-955-9666FURNITURE 
1477      Customer#000001477       nUT6kGEr7tmgp            FRANCE   4FRANCE         EUROPE      16-682-265-2595MACHINERY 
1485      Customer#000001485       oR6sZslMa7bPL            UNITED ST8UNITED STATES  AMERICA     34-238-929-1410BUILDING  
1493      Customer#000001493       FbV 8Ug9Gk               UNITED ST0UNITED STATES  AMERICA     34-576-333-8685MACHINERY 
1501      Customer#000001501       tLJmtj5                  IRAN     9IRAN           MIDDLE EAST 20-449-697-8463BUILDING  
1509      Customer#000001509       LQY2i,MHY8c              INDONESIA7INDONESIA      ASIA        19-265-268-9183BUILDING  
1517      Customer#000001517       hJBcIv8Yc9ukY9Erz96RRKNR UNITED KI6UNITED KINGDOM EUROPE      33-766-663-3879FURNITURE 
1525      Customer#000001525       NtS KugGxV4GMBxNAwZdR    ALGERIA  0ALGERIA        AFRICA      10-772-951-3330AUTOMOBILE
1533      Customer#000001533       jVCPod                   GERMANY  0GERMANY        EUROPE      17-308-512-9077HOUSEHOLD 
1541      Customer#000001541       3HbD4JaolktsAY           MOROCCO  6MOROCCO        AFRICA      25-357-670-8832AUTOMOBILE
1549      Customer#000001549       Bm8PVyaAYfS0I            UNITED ST3UNITED STATES  AMERICA     34-721-374-8177FURNITURE 
1557      Customer#000001557       cbF7Kpmtk4w1vCoq         ROMANIA  9ROMANIA        EUROPE      29-574-453-1511BUILDING  
1565      Customer#000001565       EWQO5Ck,nMuHVQimqL8dLrix BRAZIL   2BRAZIL         AMERICA     12-266-272-9554AUTOMOBILE
1573      Customer#000001573       pcC2rrIA2bwtSXkcBy8X     IRAN     5IRAN           MIDDLE EAST 20-974-301-9607AUTOMOBILE
1581      Customer#000001581       fCDyGbFmnkc              KENYA    3KENYA          AFRICA      24-742-529-7414AUTOMOBILE
1589      Customer#000001589       As9UC67Kvgdn             JORDAN   3JORDAN         MIDDLE EAST 23-644-222-4587HOUSEHOLD 
1597      Customer#000001597       6pS2oH twoOdcRPVMT       RUSSIA   2RUSSIA         EUROPE      32-767-132-6660HOUSEHOLD 
1605      Customer#000001605       PLOEPrgn                 MOROCCO  2MOROCCO        AFRICA      25-176-850-7946MACHINERY 
1613      Customer#000001613       grC4vU,xdQC              ROMANIA  3ROMANIA        EUROPE      29-468-333-2277HOUSEHOLD 
1621      Customer#000001621       5I2xwuWad5n7             MOZAMBIQU9MOZAMBIQUE     AFRICA      26-112-256-1933AUTOMOBILE
1629      Customer#000001629       eGVew4ADiILjq            CHINA    5CHINA          ASIA        28-173-717-6917HOUSEHOLD 
1637      Customer#000001637       dqGWqAXF4JuL7FcYH7r9dn   MOROCCO  8MOROCCO        AFRICA      25-806-753-9320HOUSEHOLD 
1645      Customer#000001645       2gNNcbkeFHKEgl4WSW7G8X   MOZAMBIQU6MOZAMBIQUE     AFRICA      26-620-282-5106MACHINERY 
1653      Customer#000001653       PQFMr5tmEgBCF7rww29      INDIA    0INDIA          ASIA        18-529-303-2512BUILDING  
1661      Customer#000001661       IRXXgB,YgRc078y2         ALGERIA  3ALGERIA        AFRICA      10-372-790-1835HOUSEHOLD 
1669      Customer#000001669       i38,,EDjrqVpk1UKXsl9c    FRANCE   5FRANCE         EUROPE      16-846-103-1720HOUSEHOLD 
1677      Customer#000001677       7PgxZfn 6hX              ETHIOPIA 2ETHIOPIA       AFRICA      15-544-156-8692MACHINERY 
1685      Customer#000001685       3Mg0g4A                  INDIA    9INDIA          ASIA        18-879-490-3469MACHINERY 
1693      Customer#000001693       k9j7wuuK                 JAPAN    3JAPAN          ASIA        22-849-414-2517MACHINERY 
1701      Customer#000001701       IbyUBDvH,eRszYTbnEDHGu1  CANADA   9CANADA         AMERICA     13-255-769-4653FURNITURE 
1709      Customer#000001709       x0 eZbj1iyKL             IRAQ     3IRAQ           MIDDLE EAST 21-498-358-3921AUTOMOBILE
1717      Customer#000001717       HufIAAW0Xbs3qoYp         CANADA   9CANADA         AMERICA     13-183-416-8818MACHINERY 
1725      Customer#000001725       deDnuDKB3fZcz            FRANCE   2FRANCE         EUROPE      16-737-146-4331FURNITURE 
1733      Customer#000001733       RO7fzBGXbovRqHEQln,f     VIETNAM  9VIETNAM        ASIA        31-521-964-2114BUILDING  
1741      Customer#000001741       W9G SogT0038gQBdo        SAUDI ARA2SAUDI ARABIA   MIDDLE EAST 30-304-569-8781FURNITURE 
1749      Customer#000001749       lgY9SnA8QnkA7x2          EGYPT    4EGYPT          MIDDLE EAST 14-606-483-8832AUTOMOBILE
1757      Customer#000001757       jY0jJh ww3hLh8eLmmJvK    FRANCE   3FRANCE         EUROPE      16-714-512-1708HOUSEHOLD 
1765      Customer#000001765       YYXRIFQJ4V9p             INDONESIA1INDONESIA      ASIA        19-377-907-5774AUTOMOBILE
1773      Customer#000001773       StUAItIdmW               ROMANIA  9ROMANIA        EUROPE      29-628-626-7460HOUSEHOLD 
1781      Customer#000001781       JYtJY4OTZQUaEQlf         INDIA    3INDIA          ASIA        18-577-768-7817AUTOMOBILE
1789      Customer#000001789       lfHQVe9I                 ALGERIA  7ALGERIA        AFRICA      10-167-175-8958FURNITURE 
1797      Customer#000001797       5v4QJxOVHNQ3J6NORJE2     ROMANIA  0ROMANIA        EUROPE      29-376-631-9618FURNITURE 
1805      Customer#000001805       ZERs4Cu5                 INDONESIA1INDONESIA      ASIA        19-645-604-4767AUTOMOBILE
1813      Customer#000001813       xEoR4tsV2Bse527U         CANADA   5CANADA         AMERICA     13-542-746-5213FURNITURE 
1821      Customer#000001821       QlxYI,DDZRUAyyVfdaF4q    IRAQ     7IRAQ           MIDDLE EAST 21-562-477-8348FURNITURE 
1829      Customer#000001829       9TWqvF0jyqs5eJ O0OPA     ALGERIA  1ALGERIA        AFRICA      10-380-925-2002BUILDING  
1837      Customer#000001837       sWO0VNEY4GzuB            KENYA    0KENYA          AFRICA      24-860-982-8946AUTOMOBILE
1845      Customer#000001845       xHga Ih                  IRAN     0IRAN           MIDDLE EAST 20-940-502-9010MACHINERY 
1853      Customer#000001853        z1i M6                  ETHIOPIA 7ETHIOPIA       AFRICA      15-598-925-5856FURNITURE 
1861      Customer#000001861       E XEUZYUxRnh0Z1M         MOROCCO  7MOROCCO        AFRICA      25-798-203-7521HOUSEHOLD 
1869      Customer#000001869       hOzuX9JGbYqPv677zUdWtU   FRANCE   4FRANCE         EUROPE      16-474-880-8383BUILDING  
1877      Customer#000001877       a1Rycy,Cni7s             UNITED KI2UNITED KINGDOM EUROPE      33-587-827-4877MACHINERY 
1885      Customer#000001885       WceTHrKwpwDq4AbQ         INDIA    6INDIA          ASIA        18-571-260-4803MACHINERY 
1893      Customer#000001893       iFCRrPi                  ARGENTINA1ARGENTINA      AMERICA     11-160-870-3890HOUSEHOLD 
1901      Customer#000001901       TJVv IWFTUUp ihC 7m      UNITED ST0UNITED STATES  AMERICA     34-235-143-4916FURNITURE 
1909      Customer#000001909       wrQOWC                   ROMANIA  2ROMANIA        EUROPE      29-804-706-2599HOUSEHOLD 
1917      Customer#000001917       gZW6epQmK,ISulI          GERMANY  2GERMANY        EUROPE      17-766-709-3184AUTOMOBILE
1925      Customer#000001925       qZ8m0grVeR               ALGERIA  3ALGERIA        AFRICA      10-299-497-7881HOUSEHOLD 
1933      Customer#000001933       JGeZTkGT1uwb             ALGERIA  6ALGERIA        AFRICA      10-176-521-9014HOUSEHOLD 
1941      Customer#000001941       ,51rsq                   ALGERIA  0ALGERIA        AFRICA      10-603-546-5571FURNITURE 
1949      Customer#000001949       fwIfk5BDREkV uap         ROMANIA  7ROMANIA        EUROPE      29-650-336-9051FURNITURE 
1957      Customer#000001957       Hl2JPoWaD                VIETNAM  5VIETNAM        ASIA        31-443-882-4022HOUSEHOLD 
1965      Customer#000001965       Zf89ewXnl,RNe36J86yVxp   MOROCCO  4MOROCCO        AFRICA      25-605-526-3629BUILDING  
1973      Customer#000001973       J8,WbeY81R4j4nAv5CEczBfn EGYPT    7EGYPT          MIDDLE EAST 14-587-605-6334HOUSEHOLD 
1981      Customer#000001981       wctyYavWw                JORDAN   1JORDAN         MIDDLE EAST 23-318-167-7838FURNITURE 
1989      Customer#000001989       ,WMIpzbXk5YrV7ZlH2       IRAN     9IRAN           MIDDLE EAST 20-770-219-6758MACHINERY 
1997      Customer#000001997       D7SUlJ,                  UNITED ST2UNITED STATES  AMERICA     34-523-445-3332FURNITURE 
2005      Customer#000002005       RzXLgIlAKAgzzRNNz        IRAN     1IRAN           MIDDLE EAST 20-487-768-9285HOUSEHOLD 
2013      Customer#000002013       U,izg6I4iAz8rhI          VIETNAM  4VIETNAM        ASIA        31-525-466-3787FURNITURE 
2021      Customer#000002021       1ZLuji                   UNITED KI5UNITED KINGDOM EUROPE      33-458-805-4688AUTOMOBILE
2029      Customer#000002029       JfurrIFJzbRzePjY         FRANCE   5FRANCE         EUROPE      16-330-203-4295MACHINERY 
2037      Customer#000002037       LtDKSknsGYs0JAr4GMkey1y0 CANADA   7CANADA         AMERICA     13-247-426-5082BUILDING  
2045      Customer#000002045       yurNProHdCj Z1YwO        VIETNAM  0VIETNAM        ASIA        31-324-125-4648HOUSEHOLD 
2053      Customer#000002053       0hqMRM0 DE,l49ru4        IRAQ     4IRAQ           MIDDLE EAST 21-670-800-2229BUILDING  
2061      Customer#000002061       f JsGHMF85Lt             ALGERIA  1ALGERIA        AFRICA      10-934-980-2235AUTOMOBILE
2069      Customer#000002069       uWyQnULICJNx,y,          RUSSIA   9RUSSIA         EUROPE      32-488-610-4966HOUSEHOLD 
2077      Customer#000002077       PN,,LCj                  BRAZIL   6BRAZIL         AMERICA     12-457-365-9290AUTOMOBILE
2085      Customer#000002085       QJx0r7h                  CHINA    3CHINA          ASIA        28-256-208-7442AUTOMOBILE
2093      Customer#000002093       uLWb04g                  MOROCCO  7MOROCCO        AFRICA      25-197-209-5758AUTOMOBILE
2101      Customer#000002101       P gcq86Nk9IJ K           EGYPT    4EGYPT          MIDDLE EAST 14-749-136-3650HOUSEHOLD 
2109      Customer#000002109       GppiAqPzc23pliLB2 Ku     BRAZIL   0BRAZIL         AMERICA     12-823-541-5039BUILDING  
2117      Customer#000002117       iN3KYlg9bhKqtG50Ql       IRAN     4IRAN           MIDDLE EAST 20-653-197-2118FURNITURE 
2125      Customer#000002125       NE2mQkLCiKCJ             ETHIOPIA 6ETHIOPIA       AFRICA      15-811-191-8792MACHINERY 
2133      Customer#000002133       03eoZHMQgahD7qcx         KENYA    5KENYA          AFRICA      24-535-410-3476BUILDING  
2141      Customer#000002141       XhAAGHU8xqW4 DPm76q83    JAPAN    2JAPAN          ASIA        22-247-259-1144AUTOMOBILE
2149      Customer#000002149       0y6k8MW8,mrE3            CHINA    7CHINA          ASIA        28-212-840-8401FURNITURE 
2157      Customer#000002157       cTseOPU 1ooM62           CHINA    2CHINA          ASIA        28-235-947-5020HOUSEHOLD 
2165      Customer#000002165       6J1XqDtJC9P3 qvR9        IRAQ     6IRAQ           MIDDLE EAST 21-159-385-1014FURNITURE 
2173      Customer#000002173       j7dEf5DONdLeujp          IRAN     9IRAN           MIDDLE EAST 20-397-650-2357AUTOMOBILE
2181      Customer#000002181       wU0 f8                   INDONESIA5INDONESIA      ASIA        19-829-537-7596MACHINERY 
2189      Customer#000002189       giuxWAuaojICwC           CANADA   3CANADA         AMERICA     13-613-702-9574AUTOMOBILE
2197      Customer#000002197       L0HH7L9SpDzDuyvsUBqnw    ALGERIA  8ALGERIA        AFRICA      10-808-467-8774AUTOMOBILE
2205      Customer#000002205       zU5c4Dr9x3jE             VIETNAM  4VIETNAM        ASIA        31-401-360-7697MACHINERY 
2213      Customer#000002213       5CqorD                   RUSSIA   7RUSSIA         EUROPE      32-291-728-7511AUTOMOBILE
2221      Customer#000002221       mlpYxN6                  ALGERIA  4ALGERIA        AFRICA      10-112-482-2789MACHINERY 
2229      Customer#000002229       sl1bVPsyb                JAPAN    9JAPAN          ASIA        22-863-818-2935AUTOMOBILE
2237      Customer#000002237       NalapvYZXC B3V,tP18CmQN  EGYPT    0EGYPT          MIDDLE EAST 14-406-993-1257FURNITURE 
2245      Customer#000002245       dJEcTD4yw2WyDjIj         MOROCCO  2MOROCCO        AFRICA      25-387-772-7377BUILDING  
2253      Customer#000002253       m3vuMCDBHX               EGYPT    1EGYPT          MIDDLE EAST 14-590-732-8258MACHINERY 
2261      Customer#000002261       98RRSNyj0 3,hcc          UNITED ST9UNITED STATES  AMERICA     34-365-127-7074BUILDING  
2269      Customer#000002269       040aCKAnmOpXOcSUOQs5k2aS ROMANIA  4ROMANIA        EUROPE      29-301-908-3059HOUSEHOLD 
2277      Customer#000002277       fufeTUxa1 237PI          INDIA    3INDIA          ASIA        18-766-838-3173MACHINERY 
2285      Customer#000002285       38YCCQpbAId4ElZx         VIETNAM  7VIETNAM        ASIA        31-996-781-1137BUILDING  
2293      Customer#000002293       Y7C386JlnHo1W8           SAUDI ARA0SAUDI ARABIA   MIDDLE EAST 30-309-240-9014MACHINERY 
2301      Customer#000002301       ow,U7zbdkeqJhhsfxJ5Yb pW ARGENTINA7ARGENTINA      AMERICA     11-854-723-9116MACHINERY 
2309      Customer#000002309       KEzw gYzN                MOZAMBIQU6MOZAMBIQUE     AFRICA      26-556-366-5426MACHINERY 
2317      Customer#000002317       kcaGLtQ 1mgUdLSR7Qgn2vrJ PERU     0PERU           AMERICA     27-503-135-2859AUTOMOBILE
2325      Customer#000002325       BGPGHywznDggOI1G         GERMANY  3GERMANY        EUROPE      17-839-672-6021AUTOMOBILE
2333      Customer#000002333       aQcslvVnIwpvXyGi         MOZAMBIQU0MOZAMBIQUE     AFRICA      26-178-890-8128HOUSEHOLD 
2341      Customer#000002341       UonGegT5bu3EOPN          MOROCCO  3MOROCCO        AFRICA      25-842-263-6159AUTOMOBILE
2349      Customer#000002349       qUYaVUeJ4mJ479NCK        VIETNAM  9VIETNAM        ASIA        31-932-442-9636BUILDING  
2357      Customer#000002357       UZV3OUcnRaIvT6a L        UNITED ST5UNITED STATES  AMERICA     34-978-426-1530HOUSEHOLD 
2365      Customer#000002365       lEc5vh6TWdFOO8Ci ,sVBCg  VIETNAM  2VIETNAM        ASIA        31-251-902-5423MACHINERY 
2373      Customer#000002373       QfeQ8PNqLgMkkcrm4oI,     UNITED ST1UNITED STATES  AMERICA     34-164-114-6595AUTOMOBILE
2381      Customer#000002381       tTpWXo1T9kGGKmIY2Q3Lu0qv ETHIOPIA 4ETHIOPIA       AFRICA      15-280-895-4222FURNITURE 
2389      Customer#000002389       bvsOMA YYXlFgPOPn        BRAZIL   3BRAZIL         AMERICA     12-893-314-9616MACHINERY 
2397      Customer#000002397       6kFT,8L0LTINrl8eluQPE    EGYPT    0EGYPT          MIDDLE EAST 14-640-248-8690FURNITURE 
2405      Customer#000002405       qiKAahX8AXmdafYL6        VIETNAM  6VIETNAM        ASIA        31-852-934-6114AUTOMOBILE
2413      Customer#000002413       WcqWPX,P                 IRAQ     7IRAQ           MIDDLE EAST 21-971-900-5264MACHINERY 
2421      Customer#000002421       8Bt6b3f36etRyWm7         ETHIOPIA 9ETHIOPIA       AFRICA      15-307-256-1013BUILDING  
2429      Customer#000002429       vArhS0ugz2DgNUTQEGY      GERMANY  8GERMANY        EUROPE      17-230-633-6306HOUSEHOLD 
2437      Customer#000002437       GA5ZY3WCIW               JAPAN    0JAPAN          ASIA        22-226-894-1801BUILDING  
2445      Customer#000002445       g K,oKln                 FRANCE   2FRANCE         EUROPE      16-995-934-9262MACHINERY 
2453      Customer#000002453       r,NRtq5H8xyKZLLbCMHeh    KENYA    9KENYA          AFRICA      24-627-333-2663FURNITURE 
2461      Customer#000002461       Mb2R26LrSW               ARGENTINA1ARGENTINA      AMERICA     11-854-256-6037FURNITURE 
2469      Customer#000002469       Fney6I                   MOZAMBIQU9MOZAMBIQUE     AFRICA      26-590-304-3609HOUSEHOLD 
2477      Customer#000002477       jOwVPRGZWMLhEaZwgPttnU   MOZAMBIQU5MOZAMBIQUE     AFRICA      26-241-705-5513FURNITURE 
2485      Customer#000002485       BVXOHvBX1,VkuhoR         IRAN     0IRAN           MIDDLE EAST 20-196-679-4804BUILDING  
2493      Customer#000002493       oNhSAI3                  UNITED ST9UNITED STATES  AMERICA     34-948-618-5699BUILDING  
2501      Customer#000002501       Q9aUuoUp                 PERU     3PERU           AMERICA     27-383-274-6893AUTOMOBILE
2509      Customer#000002509       Izdu401nVp l             ETHIOPIA 1ETHIOPIA       AFRICA      15-780-867-5186BUILDING  
2517      Customer#000002517       p,Skg8p WpNQ0iFCI        UNITED KI8UNITED KINGDOM EUROPE      33-638-265-2900HOUSEHOLD 
2525      Customer#000002525       iC3FYSvZqKx              MOZAMBIQU7MOZAMBIQUE     AFRICA      26-840-105-8376AUTOMOBILE
2533      Customer#000002533       yKn1,r4121Z9HBTkBGlTbW   INDONESIA0INDONESIA      ASIA        19-189-224-2500HOUSEHOLD 
2541      Customer#000002541       uUH4OMqCF                ALGERIA  2ALGERIA        AFRICA      10-115-478-8744BUILDING  
2549      Customer#000002549       HiayUggKXU2aitY1e        UNITED KI0UNITED KINGDOM EUROPE      33-825-928-1513FURNITURE 
2557      Customer#000002557       XMLkm4J8mBPCSb,J3RW5     ALGERIA  7ALGERIA        AFRICA      10-723-936-6770AUTOMOBILE
2565      Customer#000002565       q8wb7ZGWyt7wmD0Y86I bjoC MOROCCO  1MOROCCO        AFRICA      25-272-283-1523HOUSEHOLD 
2573      Customer#000002573       fvhjxSpulcygnzrE2OLz4zU  ETHIOPIA 7ETHIOPIA       AFRICA      15-472-440-8778MACHINERY 
2581      Customer#000002581       Z8IQJAJdxpCC1sxML5I6k    ALGERIA  3ALGERIA        AFRICA      10-201-485-4703MACHINERY 
2589      Customer#000002589       dip4WP9Wb,JMbrkEd        BRAZIL   2BRAZIL         AMERICA     12-480-438-6840MACHINERY 
2597      Customer#000002597       8MXEVWw8lu               PERU     8PERU           AMERICA     27-478-372-8837AUTOMOBILE
2605      Customer#000002605       zWeRo1kRaaTwZXBsrD4      UNITED ST4UNITED STATES  AMERICA     34-267-262-5594HOUSEHOLD 
2613      Customer#000002613       2KKstmK                  BRAZIL   0BRAZIL         AMERICA     12-243-539-8917MACHINERY 
2621      Customer#000002621       Fw5MmIt,tPuUe5L          ALGERIA  4ALGERIA        AFRICA      10-789-703-3718MACHINERY 
2629      Customer#000002629       mY,c4Kx                  PERU     5PERU           AMERICA     27-904-392-3179HOUSEHOLD 
2637      Customer#000002637       YGaCTJdqCQsi             INDIA    7INDIA          ASIA        18-418-411-8564AUTOMOBILE
2645      Customer#000002645       9Te4GzoTu AjO            JORDAN   9JORDAN         MIDDLE EAST 23-345-712-8479MACHINERY 
2653      Customer#000002653       186s9obvcMYExf6Href      UNITED KI6UNITED KINGDOM EUROPE      33-556-896-8193AUTOMOBILE
2661      Customer#000002661       8ouFi XdfgYKpn           UNITED ST9UNITED STATES  AMERICA     34-231-972-5628MACHINERY 
2669      Customer#000002669       GZhCJzFwydwy1Lxt3a aL3d  MOZAMBIQU0MOZAMBIQUE     AFRICA      26-367-260-2242AUTOMOBILE
2677      Customer#000002677       eD6ySbzGVsriu2R2sSv3O    INDONESIA9INDONESIA      ASIA        19-824-993-7934AUTOMOBILE
2685      Customer#000002685       ddycH0ARFfz              EGYPT    9EGYPT          MIDDLE EAST 14-576-166-9038MACHINERY 
2693      Customer#000002693       SJtAUnwXytmMk,3,9BCFyj7l BRAZIL   8BRAZIL         AMERICA     12-321-972-9208BUILDING  
2701      Customer#000002701       o3BMgsKX,fB,bDyBk        PERU     2PERU           AMERICA     27-372-732-4290MACHINERY 
2709      Customer#000002709       ETgSffP8OU8              FRANCE   7FRANCE         EUROPE      16-493-422-8536AUTOMOBILE
2717      Customer#000002717       Z12advohr5rULMXznQvL     RUSSIA   5RUSSIA         EUROPE      32-325-287-9908AUTOMOBILE
2725      Customer#000002725       JNCWZz8RerBgWEnpo19      JAPAN    6JAPAN          ASIA        22-292-402-5714BUILDING  
2733      Customer#000002733       lIOb6UG0T6fd2XukqwCCb8   UNITED ST1UNITED STATES  AMERICA     34-706-747-1798BUILDING  
2741      Customer#000002741       5nIlmAc6WuH4goMQwZ n     UNITED ST5UNITED STATES  AMERICA     34-925-785-1056MACHINERY 
2749      Customer#000002749       ZRYQS33J7YW2ydRT,HCrw0Up CHINA    1CHINA          ASIA        28-183-532-7072AUTOMOBILE
2757      Customer#000002757       iktuihyQ XmnUB           ALGERIA  7ALGERIA        AFRICA      10-412-155-2888HOUSEHOLD 
2765      Customer#000002765       3ryCqRwE05A              ROMANIA  2ROMANIA        EUROPE      29-186-579-6473AUTOMOBILE
2773      Customer#000002773       pv2fi3YY                 KENYA    5KENYA          AFRICA      24-626-582-5534BUILDING  
2781      Customer#000002781       SxzFNbngo59eML kyQd3cN1  MOZAMBIQU6MOZAMBIQUE     AFRICA      26-184-924-1454FURNITURE 
2789      Customer#000002789       d o7Vz294Ei6WxZFq        JAPAN    5JAPAN          ASIA        22-219-117-3408FURNITURE 
2797      Customer#000002797       tECouqROjjaajlSk         MOROCCO  7MOROCCO        AFRICA      25-668-209-2162FURNITURE 
2805      Customer#000002805       rGpxF6g                  JORDAN   6JORDAN         MIDDLE EAST 23-949-178-3665FURNITURE 
2813      Customer#000002813        R9b3RCj8BR              CHINA    3CHINA          ASIA        28-644-879-2207AUTOMOBILE
2821      Customer#000002821       3WSNaGzMWQ sej PQGRP     GERMANY  6GERMANY        EUROPE      17-628-813-3809MACHINERY 
2829      Customer#000002829       J6q9PrZnBi146yrwk5Bmg77  ARGENTINA2ARGENTINA      AMERICA     11-673-710-4744FURNITURE 
2837      Customer#000002837       ViXkfwp7B4lAQ            UNITED ST3UNITED STATES  AMERICA     34-630-809-9567AUTOMOBILE
2845      Customer#000002845       rhYUV1,E9                UNITED KI8UNITED KINGDOM EUROPE      33-450-984-6236MACHINERY 
2853      Customer#000002853       5f8,kPhJbec54BD0vGUz4Xma PERU     7PERU           AMERICA     27-808-518-7283HOUSEHOLD 
2861      Customer#000002861       TEn5j,kP6C1RKnKw         BRAZIL   2BRAZIL         AMERICA     12-115-514-7272MACHINERY 
2869      Customer#000002869       ,gSuQPVc3XBAD            MOROCCO  0MOROCCO        AFRICA      25-714-942-1452MACHINERY 
2877      Customer#000002877       oAlPlNC6gzw0TVp          UNITED ST5UNITED STATES  AMERICA     34-913-309-8871FURNITURE 
2885      Customer#000002885       UcsS8DrWenLhiph          CANADA   3CANADA         AMERICA     13-713-490-7870MACHINERY 
2893      Customer#000002893       xI0mDA4LkHcD1sYMu        JAPAN    8JAPAN          ASIA        22-239-131-8467BUILDING  
2901      Customer#000002901       ZmcqB,WwzD0FAu6          INDIA    2INDIA          ASIA        18-209-273-4715MACHINERY 
2909      Customer#000002909       ZRheBBrSOK               MOZAMBIQU1MOZAMBIQUE     AFRICA      26-170-554-7092MACHINERY 
2917      Customer#000002917       Qson50FTl,F thcuC        PERU     3PERU           AMERICA     27-821-526-3577MACHINERY 
2925      Customer#000002925       2,XCaJTa02               VIETNAM  0VIETNAM        ASIA        31-889-909-2093MACHINERY 
2933      Customer#000002933       HOGIT lgbAVEdKJXqSF      VIETNAM  2VIETNAM        ASIA        31-187-245-5498FURNITURE 
2941      Customer#000002941       iJAJ8i4pP2aiKycej5KRy    UNITED ST1UNITED STATES  AMERICA     34-301-672-2381AUTOMOBILE
2949      Customer#000002949       hAAh2rhp o THDYOISybaYnl MOROCCO  7MOROCCO        AFRICA      25-305-144-2292BUILDING  
2957      Customer#000002957       WzZPNDX8pRGoDX309AhCiH   ARGENTINA8ARGENTINA      AMERICA     11-977-538-7927BUILDING  
2965      Customer#000002965       NSm2eG1f4dqnX5jJgAKY7o7y ROMANIA  9ROMANIA        EUROPE      29-132-164-6674AUTOMOBILE
2973      Customer#000002973       nO3A3Ltw9Udq             BRAZIL   2BRAZIL         AMERICA     12-678-974-2481MACHINERY 
2981      Customer#000002981       pypop14lqm,9e            EGYPT    5EGYPT          MIDDLE EAST 14-517-747-3479HOUSEHOLD 
2989      Customer#000002989       d4mBnKr                  CHINA    9CHINA          ASIA        28-682-296-5698HOUSEHOLD 
2997      Customer#000002997       gI5gueXFajgxDin          ALGERIA  8ALGERIA        AFRICA      10-315-289-8697FURNITURE 
3005      Customer#000003005       VJlb4k3dTYyMuGNpXwuT     MOZAMBIQU0MOZAMBIQUE     AFRICA      26-871-510-3709AUTOMOBILE
3013      Customer#000003013       qV9d0ZZ6BZ               SAUDI ARA7SAUDI ARABIA   MIDDLE EAST 30-300-233-6326BUILDING  
3021      Customer#000003021       LtTg2BEasvnSKLtNNMEHvY   SAUDI ARA0SAUDI ARABIA   MIDDLE EAST 30-688-359-6887FURNITURE 
3029      Customer#000003029       rQRduRX3W8WntaeqtMCs     EGYPT    3EGYPT          MIDDLE EAST 14-267-168-8226AUTOMOBILE
3037      Customer#000003037       KM fgn                   SAUDI ARA3SAUDI ARABIA   MIDDLE EAST 30-452-359-7638BUILDING  
3045      Customer#000003045       qP0KWOb00SkDnLx9uqdA     EGYPT    5EGYPT          MIDDLE EAST 14-845-793-2787MACHINERY 
3053      Customer#000003053        a3N5dU6tqBP             UNITED KI5UNITED KINGDOM EUROPE      33-607-613-9563HOUSEHOLD 
3061      Customer#000003061       aDjn7VAkzUPhHPFg3UnOz1   CANADA   1CANADA         AMERICA     13-194-175-1288FURNITURE 
3069      Customer#000003069       JSfcTJYJro Bear4         ARGENTINA1ARGENTINA      AMERICA     11-283-630-2134BUILDING  
3077      Customer#000003077       TeP2t79GyeOCzKOXD        CANADA   6CANADA         AMERICA     13-830-982-6592MACHINERY 
3085      Customer#000003085       3NRkeWbf                 FRANCE   6FRANCE         EUROPE      16-623-892-4173BUILDING  
3093      Customer#000003093       yH 0bI B 3tEJd1SY5l      IRAQ     4IRAQ           MIDDLE EAST 21-973-400-9277FURNITURE 
3101      Customer#000003101       qm8opkOLTfcz             ETHIOPIA 2ETHIOPIA       AFRICA      15-744-439-7263AUTOMOBILE
3109      Customer#000003109       s5styaXkVwkB0hQbT        IRAQ     1IRAQ           MIDDLE EAST 21-431-673-6317FURNITURE 
3117      Customer#000003117       215oTA hdWJBs1rbJVZoFVM  MOZAMBIQU2MOZAMBIQUE     AFRICA      26-214-168-5861BUILDING  
3125      Customer#000003125       JdnMlqki7mCuEr           GERMANY  1GERMANY        EUROPE      17-347-405-6465AUTOMOBILE
3133      Customer#000003133       9nHgMguLMmcCmL 85        KENYA    2KENYA          AFRICA      24-241-779-3082FURNITURE 
3141      Customer#000003141       B4QRemN7GwRGN9s          EGYPT    9EGYPT          MIDDLE EAST 14-807-178-4852BUILDING  
3149      Customer#000003149       UuQEnFP,rGrnsl5OS6c2hO   UNITED ST2UNITED STATES  AMERICA     34-215-293-3951AUTOMOBILE
3157      Customer#000003157       qMHnJHZxJhANht           KENYA    2KENYA          AFRICA      24-662-360-5757FURNITURE 
3165      Customer#000003165       Y11UNivCYq,z6dG          INDONESIA8INDONESIA      ASIA        19-345-702-5434BUILDING  
3173      Customer#000003173       ejRjweYI                 UNITED ST3UNITED STATES  AMERICA     34-802-370-4408FURNITURE 
3181      Customer#000003181       TMqYmDhs3rAjnR Sxly0     FRANCE   2FRANCE         EUROPE      16-372-471-2581HOUSEHOLD 
3189      Customer#000003189       HDogTXF                  INDONESIA0INDONESIA      ASIA        19-850-195-6414AUTOMOBILE
3197      Customer#000003197       NAvjgDbUcKCfpXya         ALGERIA  5ALGERIA        AFRICA      10-951-382-8782HOUSEHOLD 
3205      Customer#000003205       d9lSA0XwhAbIGwqOm        ARGENTINA8ARGENTINA      AMERICA     11-149-829-6515HOUSEHOLD 
3213      Customer#000003213       0sPUChfyU0VSke5MCzbQnr   GERMANY  5GERMANY        EUROPE      17-209-828-9167BUILDING  
3221      Customer#000003221       RYwgXfDg1lZyPQY409V0Il   ALGERIA  1ALGERIA        AFRICA      10-189-393-4115FURNITURE 
3229      Customer#000003229       CUVe,UG                  UNITED KI8UNITED KINGDOM EUROPE      33-381-713-1597MACHINERY 
3237      Customer#000003237       xoNA7pe2i                SAUDI ARA6SAUDI ARABIA   MIDDLE EAST 30-768-998-3882AUTOMOBILE
3245      Customer#000003245       pmnG9OfS0rUaiH,7ZEn62FO  MOROCCO  5MOROCCO        AFRICA      25-183-518-4867MACHINERY 
3253      Customer#000003253       YgHBsgSkNPLOT4cKnsynlx   ROMANIA  9ROMANIA        EUROPE      29-617-754-3941MACHINERY 
3261      Customer#000003261        58FXNBFMq78IGD8OEnIF    ALGERIA  2ALGERIA        AFRICA      10-866-188-7685FURNITURE 
3269      Customer#000003269       mvKXU0                   IRAQ     8IRAQ           MIDDLE EAST 21-349-615-1146AUTOMOBILE
3277      Customer#000003277       8LIl9KkSxAmcA            RUSSIA   4RUSSIA         EUROPE      32-391-368-9201HOUSEHOLD 
3285      Customer#000003285       410GQYDkhKz5c3           IRAQ     6IRAQ           MIDDLE EAST 21-527-640-5245MACHINERY 
3293      Customer#000003293       ZKkTx050heGptGiWa        EGYPT    7EGYPT          MIDDLE EAST 14-306-935-7249HOUSEHOLD 
3301      Customer#000003301       EqYF0M,qBh               FRANCE   8FRANCE         EUROPE      16-277-725-2310BUILDING  
3309      Customer#000003309       OWyM Wi2dfRvQlDoIXjZSNIG JAPAN    4JAPAN          ASIA        22-129-697-4256FURNITURE 
3317      Customer#000003317       MbnEDY0i7                UNITED ST6UNITED STATES  AMERICA     34-616-475-2408HOUSEHOLD 
3325      Customer#000003325       cmbCTSmIkTuNbj6V         INDONESIA5INDONESIA      ASIA        19-919-576-2930BUILDING  
3333      Customer#000003333       3cB6mAeymueevRK7qc1erVox EGYPT    4EGYPT          MIDDLE EAST 14-891-500-5142AUTOMOBILE
3341      Customer#000003341       0bAw3VLE1xwcCZ           MOROCCO  0MOROCCO        AFRICA      25-630-327-8859HOUSEHOLD 
3349      Customer#000003349       39xt3DRcFXyWslJcRiw3V    MOZAMBIQU2MOZAMBIQUE     AFRICA      26-359-549-6619BUILDING  
3357      Customer#000003357       n2uY5EG                  KENYA    1KENYA          AFRICA      24-177-220-7819AUTOMOBILE
3365      Customer#000003365       deLDa97ufkJNzHF2v        FRANCE   1FRANCE         EUROPE      16-296-969-8343HOUSEHOLD 
3373      Customer#000003373       WUCr1BP                  UNITED ST0UNITED STATES  AMERICA     34-620-958-6047BUILDING  
3381      Customer#000003381       0YH6fHB57ESY             JORDAN   8JORDAN         MIDDLE EAST 23-833-438-8818AUTOMOBILE
3389      Customer#000003389       tb lKwaWf8QzZUde9K       ARGENTINA6ARGENTINA      AMERICA     11-477-588-3826AUTOMOBILE
3397      Customer#000003397       6plLQExL1DP hJAv         UNITED KI6UNITED KINGDOM EUROPE      33-351-158-8584BUILDING  
3405      Customer#000003405       GzADSLsTu3O12Vy6Uy       BRAZIL   6BRAZIL         AMERICA     12-117-554-9992AUTOMOBILE
3413      Customer#000003413       gANg73lgjaG              ALGERIA  1ALGERIA        AFRICA      10-804-918-1022AUTOMOBILE
3421      Customer#000003421       j5eyruNdwSzfZ4Ix9        CANADA   3CANADA         AMERICA     13-314-554-8170BUILDING  
3429      Customer#000003429       VnHqZOUSVjFAEJ9Y5sG      ETHIOPIA 5ETHIOPIA       AFRICA      15-347-398-9527AUTOMOBILE
3437      Customer#000003437       aZzshBkmFzJ9Sb6          PERU     3PERU           AMERICA     27-891-535-9502HOUSEHOLD 
3445      Customer#000003445       ngZulvIRJT,oyxoq         IRAN     2IRAN           MIDDLE EAST 20-442-245-5119FURNITURE 
3453      Customer#000003453       qHzYM33y                 INDONESIA4INDONESIA      ASIA        19-358-549-5908HOUSEHOLD 
3461      Customer#000003461       qexIaxwcLSdEJ hoN2l4d2   UNITED KI6UNITED KINGDOM EUROPE      33-961-913-1565BUILDING  
3469      Customer#000003469       MaQnB,hrbXgHdEseluab9zkz UNITED KI1UNITED KINGDOM EUROPE      33-372-707-6497MACHINERY 
3477      Customer#000003477       qj3qO1SspZ2xMEdDE        GERMANY  1GERMANY        EUROPE      17-102-403-8767AUTOMOBILE
3485      Customer#000003485       AKAWnmbL                 PERU     4PERU           AMERICA     27-826-701-1595HOUSEHOLD 
3493      Customer#000003493       JhTlv24PIF               IRAQ     7IRAQ           MIDDLE EAST 21-391-397-6311AUTOMOBILE
3501      Customer#000003501       6tyerW33                 CHINA    6CHINA          ASIA        28-918-941-8521AUTOMOBILE
3509      Customer#000003509       kQWjz2pF58xEh,           ROMANIA  8ROMANIA        EUROPE      29-656-277-7491BUILDING  
3517      Customer#000003517       2Cu4ZhVr2aFnwK5          ETHIOPIA 7ETHIOPIA       AFRICA      15-535-811-4369AUTOMOBILE
3525      Customer#000003525       o,ihgIl                  ROMANIA  8ROMANIA        EUROPE      29-873-189-4052BUILDING  
3533      Customer#000003533       w5RWcKIsTS01JX8MN4o15    FRANCE   1FRANCE         EUROPE      16-561-716-8716MACHINERY 
3541      Customer#000003541       uMWNf6nTJ8ZO             MOZAMBIQU9MOZAMBIQUE     AFRICA      26-146-259-2386FURNITURE 
3549      Customer#000003549       ,F8DYy1g                 VIETNAM  1VIETNAM        ASIA        31-202-568-7242BUILDING  
3557      Customer#000003557       O8vnGtrXM                ROMANIA  8ROMANIA        EUROPE      29-172-462-9950AUTOMOBILE
3565      Customer#000003565       K9GhiRS7rvN,mLb,P3C8Mqdu CHINA    2CHINA          ASIA        28-344-881-6844AUTOMOBILE
3573      Customer#000003573       XLKoaAJqC                CANADA   9CANADA         AMERICA     13-293-832-4173MACHINERY 
3581      Customer#000003581       w9kUwHN9qGAmt1           UNITED ST5UNITED STATES  AMERICA     34-526-750-7362HOUSEHOLD 
3589      Customer#000003589       qOuR13J9jan ntGABao      CANADA   7CANADA         AMERICA     13-458-886-8040FURNITURE 
3597      Customer#000003597       qkdgEc9Epv9DD37nr1y      KENYA    5KENYA          AFRICA      24-537-938-1360FURNITURE 
3605      Customer#000003605       MRRksoM hEIzvf6X         IRAQ     5IRAQ           MIDDLE EAST 21-200-378-1294AUTOMOBILE
3613      Customer#000003613       ZaRc,RqTA69Af36j         IRAQ     8IRAQ           MIDDLE EAST 21-206-513-1150FURNITURE 
3621      Customer#000003621       FXDVZoSg                 CHINA    9CHINA          ASIA        28-740-397-9008AUTOMOBILE
3629      Customer#000003629       Lr4zTZajx1CvzMfykZ       MOZAMBIQU3MOZAMBIQUE     AFRICA      26-954-437-8860BUILDING  
3637      Customer#000003637       VU87xGGrO                ALGERIA  8ALGERIA        AFRICA      10-760-576-9661MACHINERY 
3645      Customer#000003645       tXiiKp11IIqzhC8          ALGERIA  3ALGERIA        AFRICA      10-525-663-4593BUILDING  
3653      Customer#000003653       3muBLgeKF7Tk3nDD         CHINA    8CHINA          ASIA        28-517-210-2207BUILDING  
3661      Customer#000003661       MP2LZjIJQV               VIETNAM  9VIETNAM        ASIA        31-943-324-3048FURNITURE 
3669      Customer#000003669       59lgOCy0w                JORDAN   5JORDAN         MIDDLE EAST 23-211-355-8678MACHINERY 
3677      Customer#000003677       LVT82mkarHYMxNg1B155K    GERMANY  6GERMANY        EUROPE      17-618-807-6330HOUSEHOLD 
3685      Customer#000003685       ,5ertus4intO             BRAZIL   2BRAZIL         AMERICA     12-195-507-4742BUILDING  
3693      Customer#000003693       pXTawX7VKboNT8ifrMTr4    ETHIOPIA 1ETHIOPIA       AFRICA      15-790-285-6405MACHINERY 
3701      Customer#000003701       ,5g,T1ljrF3aMLC7D        EGYPT    0EGYPT          MIDDLE EAST 14-229-664-6315HOUSEHOLD 
3709      Customer#000003709       KPGOkK6yUgIXiGPdR2Yln    JORDAN   5JORDAN         MIDDLE EAST 23-138-368-3699BUILDING  
3717      Customer#000003717       Y6DOit                   IRAN     1IRAN           MIDDLE EAST 20-745-741-3451MACHINERY 
3725      Customer#000003725       oqcBL2Qx5Z0pGRtF5KX      IRAN     1IRAN           MIDDLE EAST 20-663-185-8372AUTOMOBILE
3733      Customer#000003733       3KKLJbmE73wyUVcIoh       MOZAMBIQU4MOZAMBIQUE     AFRICA      26-143-295-5495BUILDING  
3741      Customer#000003741       Tma 26eWrBVhKsKpP6       MOROCCO  2MOROCCO        AFRICA      25-640-556-6966AUTOMOBILE
3749      Customer#000003749       qJZzK8c                  INDIA    2INDIA          ASIA        18-903-915-1535MACHINERY 
3757      Customer#000003757       gFnKm7W                  GERMANY  8GERMANY        EUROPE      17-449-729-2081HOUSEHOLD 
3765      Customer#000003765       s1bg0,pyZmXniY0W88 unUtl CHINA    2CHINA          ASIA        28-962-922-9671HOUSEHOLD 
3773      Customer#000003773       KnN8DH6Rzr42llyiDd6fm    MOROCCO  4MOROCCO        AFRICA      25-891-975-6928HOUSEHOLD 
3781      Customer#000003781       IbVU yrkuzd397KZ Ap      ALGERIA  5ALGERIA        AFRICA      10-217-772-1899BUILDING  
3789      Customer#000003789       slqje76NDbRHwW2Dru8qpkAK VIETNAM  5VIETNAM        ASIA        31-492-562-5826AUTOMOBILE
3797      Customer#000003797       aoIulSixuOQfvUjQcPXt9EhL BRAZIL   7BRAZIL         AMERICA     12-675-935-7537FURNITURE 
3805      Customer#000003805       KRqtnutqSJ9              RUSSIA   1RUSSIA         EUROPE      32-295-402-4184AUTOMOBILE
3813      Customer#000003813       rMGt,nD,hcW5Zs9Ll        FRANCE   2FRANCE         EUROPE      16-907-243-2942HOUSEHOLD 
3821      Customer#000003821       9S Zjb2b2mC0             FRANCE   1FRANCE         EUROPE      16-307-719-8024AUTOMOBILE
3829      Customer#000003829       Yd4Pt38                  INDONESIA7INDONESIA      ASIA        19-523-760-5420BUILDING  
3837      Customer#000003837       CaPon9MaGQktJ            RUSSIA   4RUSSIA         EUROPE      32-429-831-6047MACHINERY 
3845      Customer#000003845       3D9qAZMLlRZXh            GERMANY  5GERMANY        EUROPE      17-671-706-6099FURNITURE 
3853      Customer#000003853       7Nqw4VepptnqoMSRUK1      BRAZIL   5BRAZIL         AMERICA     12-752-178-4402BUILDING  
3861      Customer#000003861       tq6YsuF9vMxeKyGR         IRAN     5IRAN           MIDDLE EAST 20-604-154-9432MACHINERY 
3869      Customer#000003869       K,o4To,8                 JORDAN   2JORDAN         MIDDLE EAST 23-918-675-5140FURNITURE 
3877      Customer#000003877       1nil3abo8bl,             UNITED KI8UNITED KINGDOM EUROPE      33-814-157-3459AUTOMOBILE
3885      Customer#000003885       eywFBgjS5AznvYBZPvTt     IRAQ     7IRAQ           MIDDLE EAST 21-708-149-5599FURNITURE 
3893      Customer#000003893       oeHuwZ                   JORDAN   3JORDAN         MIDDLE EAST 23-678-620-6556BUILDING  
3901      Customer#000003901       EcA1YApofFVm gIVNVW      ALGERIA  5ALGERIA        AFRICA      10-694-987-9028MACHINERY 
3909      Customer#000003909       cMOVyFaUL1WrrPeLVYgFGBe  CHINA    4CHINA          ASIA        28-151-504-4346AUTOMOBILE
3917      Customer#000003917       Nb2brWGyFJ6HUVASy        CANADA   1CANADA         AMERICA     13-223-750-4800AUTOMOBILE
3925      Customer#000003925       Q2GMLM9Mu4LDUYGaHWFc     JAPAN    9JAPAN          ASIA        22-538-622-6544FURNITURE 
3933      Customer#000003933       1XFNwBFQEqfh1cxXVjx      UNITED KI1UNITED KINGDOM EUROPE      33-301-844-4641BUILDING  
3941      Customer#000003941       Dh1CHBSV,VVhtXCHx6I      FRANCE   5FRANCE         EUROPE      16-123-593-8485BUILDING  
3949      Customer#000003949       IX ct260WhplHltQdyIGoH   ROMANIA  8ROMANIA        EUROPE      29-895-919-5086HOUSEHOLD 
3957      Customer#000003957       cCr2UK                   ETHIOPIA 2ETHIOPIA       AFRICA      15-369-959-9188MACHINERY 
3965      Customer#000003965       ,3lXI3I6                 FRANCE   2FRANCE         EUROPE      16-355-659-6217MACHINERY 
3973      Customer#000003973       Cml3idVwsEmVh6, AL       MOROCCO  9MOROCCO        AFRICA      25-473-885-7419BUILDING  
3981      Customer#000003981       mdugzsh1IVd5aE4av        ETHIOPIA 4ETHIOPIA       AFRICA      15-964-581-5165AUTOMOBILE
3989      Customer#000003989       l9T6Rdin                 UNITED KI9UNITED KINGDOM EUROPE      33-765-986-1753AUTOMOBILE
3997      Customer#000003997       OKxk8z4bF6Hdl1ITRXET4    MOROCCO  9MOROCCO        AFRICA      25-739-450-3527HOUSEHOLD 
4005      Customer#000004005       ZkQ7VKpl5vPZl            ETHIOPIA 5ETHIOPIA       AFRICA      15-838-595-8037FURNITURE 
4013      Customer#000004013       HOQtFmTlt2RnWsC          JAPAN    0JAPAN          ASIA        22-610-114-1352BUILDING  
4021      Customer#000004021       aY5c,98YK0rJwtMljXXX     BRAZIL   3BRAZIL         AMERICA     12-998-638-1948BUILDING  
4029      Customer#000004029       dLEMZrzMbxX4a2rrpj j     MOZAMBIQU2MOZAMBIQUE     AFRICA      26-566-604-8430MACHINERY 
4037      Customer#000004037       N6ULoGw                  UNITED KI8UNITED KINGDOM EUROPE      33-740-631-4165FURNITURE 
4045      Customer#000004045       80eIfOh1TGOZCn4L8q4o2    UNITED ST0UNITED STATES  AMERICA     34-823-160-6528FURNITURE 
4053      Customer#000004053       zNWumaLlCl               ARGENTINA3ARGENTINA      AMERICA     11-489-993-8897BUILDING  
4061      Customer#000004061       5Q Y4XVHi6TDAipqSdqw3cgK UNITED ST8UNITED STATES  AMERICA     34-319-590-7874HOUSEHOLD 
4069      Customer#000004069       1j60bUZEQ6aNZzPE8AXk     JORDAN   4JORDAN         MIDDLE EAST 23-542-693-2195FURNITURE 
4077      Customer#000004077       MSDupyi9,XflvwF3F        IRAQ     3IRAQ           MIDDLE EAST 21-556-644-2169AUTOMOBILE
4085      Customer#000004085       YTS768x9BYYRpdIlzG1r     ROMANIA  5ROMANIA        EUROPE      29-532-690-9081BUILDING  
4093      Customer#000004093       fJw63V 9                 FRANCE   1FRANCE         EUROPE      16-962-652-6459BUILDING  
4101      Customer#000004101       XFHTBKWXqORpFSFg5Bw,L    MOZAMBIQU1MOZAMBIQUE     AFRICA      26-798-988-9380FURNITURE 
4109      Customer#000004109       B953A vnYbbXv wfHM,gq    KENYA    9KENYA          AFRICA      24-907-689-3098MACHINERY 
4117      Customer#000004117       2QOTo,fFNJN29Q           KENYA    0KENYA          AFRICA      24-145-678-2023MACHINERY 
4125      Customer#000004125       0IY1mB1MNt,roDZiSqEuzjFd CHINA    5CHINA          ASIA        28-117-389-1290BUILDING  
4133      Customer#000004133       a0lgj0zoW aqcGB94        INDONESIA6INDONESIA      ASIA        19-772-204-4235MACHINERY 
4141      Customer#000004141       kZzFEo80dDwy             CANADA   8CANADA         AMERICA     13-427-976-5922HOUSEHOLD 
4149      Customer#000004149       SlkAHHRS0XmhTb9F         PERU     8PERU           AMERICA     27-888-831-3694HOUSEHOLD 
4157      Customer#000004157       fcMpoCy05nxoYg V5JCx24   CANADA   4CANADA         AMERICA     13-735-921-4944AUTOMOBILE
4165      Customer#000004165       3QbJwnzk 0UFfh2N         UNITED ST8UNITED STATES  AMERICA     34-859-477-8738MACHINERY 
4173      Customer#000004173       pCT6xSmKYmlMqvK          IRAN     4IRAN           MIDDLE EAST 20-423-906-8189HOUSEHOLD 
4181      Customer#000004181       IWOirPn04EEEHYqIZCo0Wo1  INDIA    1INDIA          ASIA        18-418-804-4787AUTOMOBILE
4189      Customer#000004189       mRL4h9GdTUDTUepR043p0l   CANADA   5CANADA         AMERICA     13-823-720-8373BUILDING  
4197      Customer#000004197       cY6VXGgHT,G8cK0riSrDPX3  JAPAN    8JAPAN          ASIA        22-370-657-1159HOUSEHOLD 
4205      Customer#000004205       PXWX6F6tzHqkXKi          MOZAMBIQU7MOZAMBIQUE     AFRICA      26-806-803-1281BUILDING  
4213      Customer#000004213       j66a3tCr7gsekAf          CHINA    9CHINA          ASIA        28-373-619-8988AUTOMOBILE
4221      Customer#000004221       v8T790hTAOzYSqw          ETHIOPIA 3ETHIOPIA       AFRICA      15-678-581-1765BUILDING  
4229      Customer#000004229       yRoruzilr                IRAQ     4IRAQ           MIDDLE EAST 21-240-229-3471HOUSEHOLD 
4237      Customer#000004237       URNXGC9HfFQL             IRAN     9IRAN           MIDDLE EAST 20-221-668-9938BUILDING  
4245      Customer#000004245       lffOsBb1CjN              KENYA    2KENYA          AFRICA      24-547-945-3547HOUSEHOLD 
4253      Customer#000004253       sNOH5tv0kV1I3dsTkv7ETbw  INDONESIA5INDONESIA      ASIA        19-782-561-4313HOUSEHOLD 
4261      Customer#000004261       3y5uir JZqxytSe1wfJ6OIsD ETHIOPIA 3ETHIOPIA       AFRICA      15-323-425-3161BUILDING  
4269      Customer#000004269       qafjfXdPN46eRJ           UNITED KI9UNITED KINGDOM EUROPE      33-283-537-9287BUILDING  
4277      Customer#000004277       UWMpHfa 8B               MOROCCO  3MOROCCO        AFRICA      25-195-135-5009AUTOMOBILE
4285      Customer#000004285       PbXvtVY0RJaC0TFt4DDq     JORDAN   9JORDAN         MIDDLE EAST 23-212-196-4530HOUSEHOLD 
4293      Customer#000004293       Z9csBm4dXPJmK            UNITED ST3UNITED STATES  AMERICA     34-592-981-3108MACHINERY 
4301      Customer#000004301       F,Xn04HJiiGLOyPqhL6xa    JORDAN   6JORDAN         MIDDLE EAST 23-337-406-2043HOUSEHOLD 
4309      Customer#000004309       kJolTuREfT5              BRAZIL   5BRAZIL         AMERICA     12-572-887-1488MACHINERY 
4317      Customer#000004317       jbIvrHvLgzSwgK5          RUSSIA   5RUSSIA         EUROPE      32-996-255-6832FURNITURE 
4325      Customer#000004325       OAOhHDba3TMxLB5          ROMANIA  7ROMANIA        EUROPE      29-196-655-5842FURNITURE 
4333      Customer#000004333       ghx,kxDSUPnrL09V0        FRANCE   1FRANCE         EUROPE      16-505-301-3757FURNITURE 
4341      Customer#000004341       IJ1Ipzpcx,mQ8,A3         GERMANY  9GERMANY        EUROPE      17-341-327-1813BUILDING  
4349      Customer#000004349       2YdztgejAbVs,qLpz,c      ALGERIA  4ALGERIA        AFRICA      10-239-874-2724MACHINERY 
4357      Customer#000004357       ua8KQWO                  MOROCCO  5MOROCCO        AFRICA      25-895-450-9010BUILDING  
4365      Customer#000004365       5wOCE9jH5kq6lPyG         GERMANY  1GERMANY        EUROPE      17-785-754-4713AUTOMOBILE
4373      Customer#000004373       Br p,XmaJ                IRAN     0IRAN           MIDDLE EAST 20-111-657-8046BUILDING  
4381      Customer#000004381       fia3jW4U1zyBVO53         BRAZIL   6BRAZIL         AMERICA     12-134-301-2374HOUSEHOLD 
4389      Customer#000004389       IObhABSQO3ot             MOROCCO  6MOROCCO        AFRICA      25-819-788-2735FURNITURE 
4397      Customer#000004397       Pfn2kc3RBTaQZ            PERU     3PERU           AMERICA     27-762-144-1355FURNITURE 
4405      Customer#000004405       6KcEbgAxfL8EVWXjF3Aqw    GERMANY  5GERMANY        EUROPE      17-297-266-1747AUTOMOBILE
4413      Customer#000004413       g7GZdQgUG5GmLaau4e       IRAQ     0IRAQ           MIDDLE EAST 21-992-918-3236FURNITURE 
4421      Customer#000004421        tL62Fmvw                RUSSIA   3RUSSIA         EUROPE      32-373-235-4711AUTOMOBILE
4429      Customer#000004429       uWbOyo7I1LSeGJfvF9rFE    MOZAMBIQU1MOZAMBIQUE     AFRICA      26-982-333-2827AUTOMOBILE
4437      Customer#000004437       CHelrzFz6 OgS,Q          RUSSIA   9RUSSIA         EUROPE      32-206-727-4694MACHINERY 
4445      Customer#000004445        uCCPjA8LfjVR            FRANCE   7FRANCE         EUROPE      16-243-200-1321MACHINERY 
4453      Customer#000004453       iGZ6OeBlQIh1CVhPTWsR7    CANADA   7CANADA         AMERICA     13-649-207-3100FURNITURE 
4461      Customer#000004461       XdDId6tws9KyRetkt        ETHIOPIA 9ETHIOPIA       AFRICA      15-352-480-4513AUTOMOBILE
4469      Customer#000004469       e5tFa7N3WiOKqujsrV1      PERU     0PERU           AMERICA     27-692-493-4636BUILDING  
4477      Customer#000004477       Cc 4WFb                  CANADA   5CANADA         AMERICA     13-793-996-1491BUILDING  
4485      Customer#000004485       t S1Hqf3Du5I,FCR6        ARGENTINA2ARGENTINA      AMERICA     11-292-997-6400MACHINERY 
4493      Customer#000004493       rHwUyLF                  BRAZIL   1BRAZIL         AMERICA     12-916-609-5596MACHINERY 
4501      Customer#000004501       4amr14wFnPAy9qNG6n,      CANADA   6CANADA         AMERICA     13-285-669-4798HOUSEHOLD 
4509      Customer#000004509       Ts7NOMpI2J               BRAZIL   8BRAZIL         AMERICA     12-924-679-1911BUILDING  
4517      Customer#000004517       P yZZBhMEpv32bD1hw8      FRANCE   3FRANCE         EUROPE      16-857-308-4343HOUSEHOLD 
4525      Customer#000004525       FDbtBUQuqUWVnppMcM       GERMANY  8GERMANY        EUROPE      17-431-969-3543BUILDING  
4533      Customer#000004533       Yn8xL7M7uc               KENYA    5KENYA          AFRICA      24-412-661-9817BUILDING  
4541      Customer#000004541       9mIp6lvfj9igD8s6q83uIkU  SAUDI ARA3SAUDI ARABIA   MIDDLE EAST 30-216-569-8820FURNITURE 
4549      Customer#000004549       MXAPUUnRpyJUTlNJ,VhiXCK  JORDAN   0JORDAN         MIDDLE EAST 23-346-661-2665HOUSEHOLD 
4557      Customer#000004557       QOTn kCK7YiKXDX5p        JORDAN   4JORDAN         MIDDLE EAST 23-592-165-4052MACHINERY 
4565      Customer#000004565       9,3hnDYRI1               VIETNAM  6VIETNAM        ASIA        31-243-338-4811BUILDING  
4573      Customer#000004573       57mI,tMs9tbKYy           PERU     5PERU           AMERICA     27-424-853-3429HOUSEHOLD 
4581      Customer#000004581       11RBqBt1Oee              IRAN     2IRAN           MIDDLE EAST 20-485-346-2847FURNITURE 
4589      Customer#000004589       vauu3Jmh3SGS 2X6Qnw      GERMANY  0GERMANY        EUROPE      17-120-499-1378BUILDING  
4597      Customer#000004597       NndRdA uMmZr             BRAZIL   8BRAZIL         AMERICA     12-758-530-9732AUTOMOBILE
4605      Customer#000004605       fcRxyoS3uBgb29wplnq EvMA FRANCE   2FRANCE         EUROPE      16-788-445-1998AUTOMOBILE
4613      Customer#000004613       8U1QLL404RT4             ETHIOPIA 8ETHIOPIA       AFRICA      15-310-768-9595FURNITURE 
4621      Customer#000004621       SvuaGNU,ecZbrKRvLxc      ARGENTINA0ARGENTINA      AMERICA     11-514-866-4765BUILDING  
4629      Customer#000004629       kDQmemRGtfQ              ALGERIA  0ALGERIA        AFRICA      10-745-953-8647BUILDING  
4637      Customer#000004637       WEK1TjMC9ixm1GsEGZKAQ    JAPAN    1JAPAN          ASIA        22-294-192-6877BUILDING  
4645      Customer#000004645       Vse8k2                   ETHIOPIA 1ETHIOPIA       AFRICA      15-641-977-3065HOUSEHOLD 
4653      Customer#000004653       069IGo06                 MOZAMBIQU4MOZAMBIQUE     AFRICA      26-135-326-1478AUTOMOBILE
4661      Customer#000004661       WVYD72AT                 ALGERIA  8ALGERIA        AFRICA      10-324-740-5390MACHINERY 
4669      Customer#000004669       DIJVHWTc1OlOSv0xd6       KENYA    4KENYA          AFRICA      24-300-647-2822BUILDING  
4677      Customer#000004677       v922gc65266,n8cXiR       RUSSIA   7RUSSIA         EUROPE      32-576-356-5348HOUSEHOLD 
4685      Customer#000004685       0U8HXV JiGTgt53SxR7e     CANADA   6CANADA         AMERICA     13-398-388-2173AUTOMOBILE
4693      Customer#000004693       cMyplWJxUBahB9dNLxwjUWd2 MOZAMBIQU7MOZAMBIQUE     AFRICA      26-194-310-5704BUILDING  
4701      Customer#000004701       RyPTKzJCJN7eL2MiJ65an    FRANCE   0FRANCE         EUROPE      16-186-810-8831HOUSEHOLD 
4709      Customer#000004709       KRIi0EFX7Oh              SAUDI ARA6SAUDI ARABIA   MIDDLE EAST 30-687-714-8249HOUSEHOLD 
4717      Customer#000004717       ,OESPhbg535tVqoSVDH      RUSSIA   5RUSSIA         EUROPE      32-630-851-7128AUTOMOBILE
4725      Customer#000004725       rhT1ORJBwNfbnrgzJ5z1d    UNITED ST7UNITED STATES  AMERICA     34-278-729-7146BUILDING  
4733      Customer#000004733       grB,8VlX3R               UNITED KI3UNITED KINGDOM EUROPE      33-398-289-5427MACHINERY 
4741      Customer#000004741       L87Cz1W93POCByDFe        INDONESIA7INDONESIA      ASIA        19-954-238-8650HOUSEHOLD 
4749      Customer#000004749       qWTManTPsOZ2V2nMjw       IRAQ     8IRAQ           MIDDLE EAST 21-997-406-5495HOUSEHOLD 
4757      Customer#000004757       w4H0TPrf                 IRAN     8IRAN           MIDDLE EAST 20-134-885-6546AUTOMOBILE
4765      Customer#000004765       JUB uanXzvg              IRAN     5IRAN           MIDDLE EAST 20-738-123-3243BUILDING  
4773      Customer#000004773       hGvAZaSoxDXNW            CHINA    2CHINA          ASIA        28-705-927-7944AUTOMOBILE
4781      Customer#000004781       cfZcTl86HmLFMYlJ9eZhj    UNITED KI3UNITED KINGDOM EUROPE      33-485-806-9629AUTOMOBILE
4789      Customer#000004789       XsDIReV                  ALGERIA  5ALGERIA        AFRICA      10-572-528-5617MACHINERY 
4797      Customer#000004797       V8eOFSb46MER3QKx ,       GERMANY  4GERMANY        EUROPE      17-900-602-9894BUILDING  
4805      Customer#000004805       CXB0CdKOOgPqIn           MOZAMBIQU1MOZAMBIQUE     AFRICA      26-722-596-1513BUILDING  
4813      Customer#000004813       jz2w6D                   ROMANIA  1ROMANIA        EUROPE      29-851-640-6880MACHINERY 
4821      Customer#000004821        jD7gJLCE3W0             EGYPT    1EGYPT          MIDDLE EAST 14-584-801-3279BUILDING  
4829      Customer#000004829       1qmuoyG8ea6Xr96GhZ       MOROCCO  5MOROCCO        AFRICA      25-420-214-6299AUTOMOBILE
4837      Customer#000004837       utX81lL                  JAPAN    1JAPAN          ASIA        22-597-316-8756BUILDING  
4845      Customer#000004845       77u Gnlsv                SAUDI ARA1SAUDI ARABIA   MIDDLE EAST 30-375-456-9584FURNITURE 
4853      Customer#000004853       F89Ylm                   MOZAMBIQU7MOZAMBIQUE     AFRICA      26-160-357-6185AUTOMOBILE
4861      Customer#000004861       3CYtM1C                  SAUDI ARA1SAUDI ARABIA   MIDDLE EAST 30-669-835-6576BUILDING  
4869      Customer#000004869       ,QiJ3KSsmNmTISAww Mak    JAPAN    7JAPAN          ASIA        22-776-644-2625MACHINERY 
4877      Customer#000004877       720BjbxDiwmb             RUSSIA   9RUSSIA         EUROPE      32-468-305-7535FURNITURE 
4885      Customer#000004885       F9LTWSDQHP2EV            GERMANY  4GERMANY        EUROPE      17-177-464-9302FURNITURE 
4893      Customer#000004893       vEJ4ZE                   INDONESIA6INDONESIA      ASIA        19-767-429-9477MACHINERY 
4901      Customer#000004901       FbkjM9xZo7me             ARGENTINA1ARGENTINA      AMERICA     11-842-607-6228HOUSEHOLD 
4909      Customer#000004909       MXy563M1t                IRAN     8IRAN           MIDDLE EAST 20-793-853-3288MACHINERY 
4917      Customer#000004917       nYGzVSnZHM               SAUDI ARA8SAUDI ARABIA   MIDDLE EAST 30-214-946-4464FURNITURE 
4925      Customer#000004925       jGOA4Ig                  VIETNAM  5VIETNAM        ASIA        31-641-825-5611HOUSEHOLD 
4933      Customer#000004933       rQXdMQzJy6rY0            ETHIOPIA 8ETHIOPIA       AFRICA      15-853-558-5778HOUSEHOLD 
4941      Customer#000004941       SzcgI4q                  FRANCE   6FRANCE         EUROPE      16-779-181-7419MACHINERY 
4949      Customer#000004949       7th4JvPN3 hXMmwsj8lZEqD  ARGENTINA9ARGENTINA      AMERICA     11-825-182-5257MACHINERY 
4957      Customer#000004957       VBCwsfYm1VAuDOVBTOadTqh, IRAQ     5IRAQ           MIDDLE EAST 21-740-730-7657BUILDING  
4965      Customer#000004965       F9QGdodUiMaT IowUlKDvfHv VIETNAM  2VIETNAM        ASIA        31-325-947-8130BUILDING  
4973      Customer#000004973       G,b,peCXBw9duSjEo9tc     MOZAMBIQU1MOZAMBIQUE     AFRICA      26-983-277-8963BUILDING  
4981      Customer#000004981       4AEFgls2dL               GERMANY  6GERMANY        EUROPE      17-645-451-3591MACHINERY 
4989      Customer#000004989       s,XEU35SfTX6             IRAQ     7IRAQ           MIDDLE EAST 21-909-122-5153FURNITURE 
4997      Customer#000004997       32anz5Cu                 INDONESIA1INDONESIA      ASIA        19-497-543-7659FURNITURE 
5005      Customer#000005005       rTCMmUAgw1eoaAZl         ROMANIA  2ROMANIA        EUROPE      29-808-908-1194FURNITURE 
5013      Customer#000005013       vPLGm8 AxZSIMfBoe,8U     SAUDI ARA9SAUDI ARABIA   MIDDLE EAST 30-537-196-1912AUTOMOBILE
5021      Customer#000005021       TUOm4M                   BRAZIL   4BRAZIL         AMERICA     12-965-733-3359AUTOMOBILE
5029      Customer#000005029       JCSfOA3tnckXifzcIr       INDONESIA7INDONESIA      ASIA        19-424-433-9997FURNITURE 
5037      Customer#000005037       GMwlS8ZhiNLahIuFWqS1Q    JAPAN    4JAPAN          ASIA        22-148-801-3445BUILDING  
5045      Customer#000005045       eJe4NEZ8RP7FUKQXWueReNbu FRANCE   5FRANCE         EUROPE      16-921-502-7498MACHINERY 
5053      Customer#000005053       ds1u,RolcACi             CANADA   7CANADA         AMERICA     13-546-679-1266BUILDING  
5061      Customer#000005061       MostCxUF9A2iAweHA        ALGERIA  1ALGERIA        AFRICA      10-624-302-1191MACHINERY 
5069      Customer#000005069       cpsqzGzpmQ4o hd5nCC0Js   INDIA    4INDIA          ASIA        18-540-732-1696BUILDING  
5077      Customer#000005077       p33JB5zHz6VXG78qI3Cq     PERU     8PERU           AMERICA     27-435-130-7675AUTOMOBILE
5085      Customer#000005085       JCrAhwZnTX7,tw           GERMANY  7GERMANY        EUROPE      17-372-881-5007BUILDING  
5093      Customer#000005093       6JIOCJPwGYinPTIxfb,z     RUSSIA   2RUSSIA         EUROPE      32-707-370-9878HOUSEHOLD 
5101      Customer#000005101       w,B0F6XF,5nh7Aj          VIETNAM  4VIETNAM        ASIA        31-924-504-2929BUILDING  
5109      Customer#000005109       2PU8,tSe                 SAUDI ARA7SAUDI ARABIA   MIDDLE EAST 30-750-800-3583MACHINERY 
5117      Customer#000005117       xKJNC9eYgWNjcYxyJrGc     CANADA   9CANADA         AMERICA     13-110-819-5180MACHINERY 
5125      Customer#000005125       O 12mGOyGIDWJ            UNITED KI0UNITED KINGDOM EUROPE      33-622-222-1082HOUSEHOLD 
5133      Customer#000005133       Qk7oxbDGG3Z 0e4QnDUVRk9  MOZAMBIQU4MOZAMBIQUE     AFRICA      26-874-736-1979HOUSEHOLD 
5141      Customer#000005141       ljpeJ28wm6Yere           JAPAN    6JAPAN          ASIA        22-953-106-9800MACHINERY 
5149      Customer#000005149       BN,asncXQbJYdi27U6hZJp,  KENYA    5KENYA          AFRICA      24-322-623-6952MACHINERY 
5157      Customer#000005157       P8ZZHoAUKcvo4WRZuSWhid   VIETNAM  2VIETNAM        ASIA        31-436-128-8099AUTOMOBILE
5165      Customer#000005165       rsfiWvEJlODJddfZ         CANADA   7CANADA         AMERICA     13-710-532-9387BUILDING  
5173      Customer#000005173       L3JnJ6eq0ngNCAHXvXNbanz  VIETNAM  0VIETNAM        ASIA        31-349-638-5597MACHINERY 
5181      Customer#000005181       kynPEo1MgSIOvUjYj1gw     KENYA    5KENYA          AFRICA      24-754-983-2508MACHINERY 
5189      Customer#000005189       MFor1cB2GZ               EGYPT    3EGYPT          MIDDLE EAST 14-199-458-6371HOUSEHOLD 
5197      Customer#000005197       QGNEe46iY073Pqt1ppq      KENYA    4KENYA          AFRICA      24-655-714-7768BUILDING  
5205      Customer#000005205       5i64kC                   BRAZIL   6BRAZIL         AMERICA     12-898-293-3332HOUSEHOLD 
5213      Customer#000005213       KzsuEstGtVqlY,7YGZ3      EGYPT    6EGYPT          MIDDLE EAST 14-557-518-1495FURNITURE 
5221      Customer#000005221       P3xfbtwJNncdbja9sNzMSx   EGYPT    2EGYPT          MIDDLE EAST 14-122-434-8703MACHINERY 
5229      Customer#000005229       UINQJyLLp                INDIA    1INDIA          ASIA        18-301-238-7755BUILDING  
5237      Customer#000005237       refQQB,jMKSNwUZh7cjMVv5i PERU     2PERU           AMERICA     27-441-322-9083AUTOMOBILE
5245      Customer#000005245       sfsBnTGm2                ROMANIA  6ROMANIA        EUROPE      29-395-767-5565HOUSEHOLD 
5253      Customer#000005253       Ldile3fl                 MOZAMBIQU6MOZAMBIQUE     AFRICA      26-969-663-6584HOUSEHOLD 
5261      Customer#000005261       cCgo3Y                   INDONESIA3INDONESIA      ASIA        19-214-343-5527BUILDING  
5269      Customer#000005269       YadlmH3RQq               INDIA    8INDIA          ASIA        18-428-559-7668HOUSEHOLD 
5277      Customer#000005277       ZBIZ7SLiWA               IRAQ     2IRAQ           MIDDLE EAST 21-693-552-8043MACHINERY 
5285      Customer#000005285       XFA7kzoIQk               ROMANIA  5ROMANIA        EUROPE      29-809-886-2376MACHINERY 
5293      Customer#000005293       nk5hpghyblVDuk87A6VUN4Wl CHINA    9CHINA          ASIA        28-752-460-4613AUTOMOBILE
5301      Customer#000005301       2k5JoE8eQIquX            PERU     2PERU           AMERICA     27-662-416-1859AUTOMOBILE
5309      Customer#000005309       XUlivtTwR9B              ETHIOPIA 1ETHIOPIA       AFRICA      15-543-540-5651HOUSEHOLD 
5317      Customer#000005317       PhbqpxvM7Eb amT1QwL4     UNITED ST6UNITED STATES  AMERICA     34-386-274-2439HOUSEHOLD 
5325      Customer#000005325       981yY8GZ                 UNITED ST4UNITED STATES  AMERICA     34-627-179-2385BUILDING  
5333      Customer#000005333       D7rV37uICzL2Wl           MOZAMBIQU0MOZAMBIQUE     AFRICA      26-889-392-7695BUILDING  
5341      Customer#000005341       DVTHgmYEmXDhF xY         UNITED KI2UNITED KINGDOM EUROPE      33-706-860-5942MACHINERY 
5349      Customer#000005349       dt6uL4xuML               CHINA    7CHINA          ASIA        28-547-696-2945FURNITURE 
5357      Customer#000005357       HcIbvvOtaWZ              PERU     5PERU           AMERICA     27-697-607-1828BUILDING  
5365      Customer#000005365       7eUh2me 9Ef1L7f ygjX3    ALGERIA  3ALGERIA        AFRICA      10-948-382-2654AUTOMOBILE
5373      Customer#000005373       YC0Z2F3TlFbu7PmV21mgAGwH MOZAMBIQU2MOZAMBIQUE     AFRICA      26-164-917-8296MACHINERY 
5381      Customer#000005381       Q3a0gyIKhp,Dq83eTX       ETHIOPIA 9ETHIOPIA       AFRICA      15-960-642-7367MACHINERY 
5389      Customer#000005389       lUYRJEmpT 3J5am,         UNITED ST9UNITED STATES  AMERICA     34-189-253-7569BUILDING  
5397      Customer#000005397       UMljaA1vXs               VIETNAM  3VIETNAM        ASIA        31-965-826-9600FURNITURE 
5405      Customer#000005405       HtEhA,mNvYhQMxBOboALtu1N CANADA   8CANADA         AMERICA     13-515-727-2514HOUSEHOLD 
5413      Customer#000005413       lOoN GkcfHnX5I9DcHOwpsBr ROMANIA  2ROMANIA        EUROPE      29-289-191-6683AUTOMOBILE
5421      Customer#000005421       MHbOqzGn5                MOZAMBIQU9MOZAMBIQUE     AFRICA      26-546-949-2966BUILDING  
5429      Customer#000005429       uCJ6OQsZWG9U             UNITED KI5UNITED KINGDOM EUROPE      33-370-889-4530AUTOMOBILE
5437      Customer#000005437       QIYSRABdLyz2d4zZUmX ih   UNITED ST8UNITED STATES  AMERICA     34-354-867-9615FURNITURE 
5445      Customer#000005445       UIyHvuh0hFpIDun7IBkJ     PERU     4PERU           AMERICA     27-703-955-9821MACHINERY 
5453      Customer#000005453       F7FVJz30bJMSyWaHPu2r     RUSSIA   8RUSSIA         EUROPE      32-947-113-5392AUTOMOBILE
5461      Customer#000005461       D6Bljtji9c,RJAqE         MOROCCO  2MOROCCO        AFRICA      25-745-376-2439FURNITURE 
5469      Customer#000005469       lvU3vW                   MOROCCO  5MOROCCO        AFRICA      25-487-293-2579FURNITURE 
5477      Customer#000005477       DY6vZZcvtrQy5IsB0Va47Y   GERMANY  9GERMANY        EUROPE      17-478-898-9703MACHINERY 
5485      Customer#000005485       fnJIAeJ                  INDONESIA5INDONESIA      ASIA        19-134-836-9309HOUSEHOLD 
5493      Customer#000005493       waus3htlQ                KENYA    2KENYA          AFRICA      24-148-896-5351AUTOMOBILE
5501      Customer#000005501       uklRKaMMoAd,wQdI         PERU     6PERU           AMERICA     27-654-477-2042BUILDING  
5509      Customer#000005509       6kdtFa4lj                EGYPT    7EGYPT          MIDDLE EAST 14-276-589-1645MACHINERY 
5517      Customer#000005517       EZ8kP1                   ETHIOPIA 1ETHIOPIA       AFRICA      15-544-700-5420MACHINERY 
5525      Customer#000005525       Gvhlz6nhACh              VIETNAM  2VIETNAM        ASIA        31-489-635-8990BUILDING  
5533      Customer#000005533       mxDyE2C9,5d7CPaQUibZh6   ROMANIA  1ROMANIA        EUROPE      29-131-847-7909BUILDING  
5541      Customer#000005541       tk4orz0mmd7XAIB          JAPAN    4JAPAN          ASIA        22-310-934-3107HOUSEHOLD 
5549      Customer#000005549       ,ba4vQ9gfYlP2            ARGENTINA5ARGENTINA      AMERICA     11-359-520-8325MACHINERY 
5557      Customer#000005557       emBop1 hZa               ROMANIA  9ROMANIA        EUROPE      29-951-910-4871MACHINERY 
5565      Customer#000005565       ,bgZ53jScvfNCdGwmTa      INDIA    8INDIA          ASIA        18-708-508-5980HOUSEHOLD 
5573      Customer#000005573       irJp3mkVJoSc             RUSSIA   6RUSSIA         EUROPE      32-894-619-7788AUTOMOBILE
5581      Customer#000005581       4rBcrED9Z9RPbkwCcvIk     ALGERIA  1ALGERIA        AFRICA      10-809-942-4611AUTOMOBILE
5589      Customer#000005589       QNuv0IRMfbdSiIseGr       INDIA    7INDIA          ASIA        18-419-161-2826FURNITURE 
5597      Customer#000005597       Z1M8VMPW3kriqjl lo       INDIA    3INDIA          ASIA        18-597-319-7118FURNITURE 
5605      Customer#000005605       vLDCZ4qk0rz47KLJw        GERMANY  4GERMANY        EUROPE      17-216-507-8262AUTOMOBILE
5613      Customer#000005613       g0yS8mQG2KkZ25Fe         PERU     3PERU           AMERICA     27-276-649-8576HOUSEHOLD 
5621      Customer#000005621       HA3N3Z6qceCtqss          PERU     8PERU           AMERICA     27-930-662-9649MACHINERY 
5629      Customer#000005629       5tu3H9zAN4JjGy0zf3rix    ETHIOPIA 7ETHIOPIA       AFRICA      15-187-168-3932MACHINERY 
5637      Customer#000005637       NTSmelEsJoWQA dwMMd4Rf   GERMANY  3GERMANY        EUROPE      17-630-221-8329AUTOMOBILE
5645      Customer#000005645       ZL843MHMpO1uyaRs         BRAZIL   3BRAZIL         AMERICA     12-760-348-1116HOUSEHOLD 
5653      Customer#000005653       1AyfN6a 1                ARGENTINA6ARGENTINA      AMERICA     11-689-674-5209HOUSEHOLD 
5661      Customer#000005661       MLg1DGyQozdc             ALGERIA  7ALGERIA        AFRICA      10-211-187-6336FURNITURE 
5669      Customer#000005669       tS6scURafE34kHeo         FRANCE   9FRANCE         EUROPE      16-525-135-6964HOUSEHOLD 
5677      Customer#000005677       03f7XKEq0gTf2nt4Plfc     VIETNAM  8VIETNAM        ASIA        31-658-414-1093AUTOMOBILE
5685      Customer#000005685       2h1r0NxtESm0i9E          VIETNAM  6VIETNAM        ASIA        31-489-394-9663BUILDING  
5693      Customer#000005693       zNjP88kYTwLYHId6xaWspz   INDONESIA5INDONESIA      ASIA        19-543-792-7625MACHINERY 
5701      Customer#000005701       F5uHOn                   JORDAN   2JORDAN         MIDDLE EAST 23-225-164-5159AUTOMOBILE
5709      Customer#000005709       onUSwMv                  MOZAMBIQU6MOZAMBIQUE     AFRICA      26-812-709-8495MACHINERY 
5717      Customer#000005717       S4Rc3NaPcymjVnjznF       IRAQ     5IRAQ           MIDDLE EAST 21-185-236-9573BUILDING  
5725      Customer#000005725       wp1VV4of5rpOP8Yo         EGYPT    0EGYPT          MIDDLE EAST 14-668-933-4250FURNITURE 
5733      Customer#000005733       r2Ts667009x43tv          JORDAN   1JORDAN         MIDDLE EAST 23-555-554-2606MACHINERY 
5741      Customer#000005741       APqw7FHz                 INDIA    0INDIA          ASIA        18-103-100-3020HOUSEHOLD 
5749      Customer#000005749       d2kAZ1xeLTLZ,O0DIQBnddtz INDIA    1INDIA          ASIA        18-896-819-4602AUTOMOBILE
5757      Customer#000005757       u9 dpqiKfUH              VIETNAM  9VIETNAM        ASIA        31-978-262-7504BUILDING  
5765      Customer#000005765       giBr5BK                  ALGERIA  9ALGERIA        AFRICA      10-158-513-9563AUTOMOBILE
5773      Customer#000005773        utp0aV0cu               ETHIOPIA 5ETHIOPIA       AFRICA      15-577-677-3874BUILDING  
5781      Customer#000005781       6slMQGm4                 INDIA    3INDIA          ASIA        18-337-187-1135AUTOMOBILE
5789      Customer#000005789       hUkUvwt9                 GERMANY  9GERMANY        EUROPE      17-363-128-8446AUTOMOBILE
5797      Customer#000005797       xCcL5Cjr                 EGYPT    5EGYPT          MIDDLE EAST 14-402-677-4893HOUSEHOLD 
5805      Customer#000005805       I30eWDkcMpE2Uq5          JAPAN    5JAPAN          ASIA        22-498-865-7910HOUSEHOLD 
5813      Customer#000005813       U2ZAPmKD8vHOA2locAm      ETHIOPIA 6ETHIOPIA       AFRICA      15-265-154-9730FURNITURE 
5821      Customer#000005821       92xQQEPTQT0E5t           GERMANY  0GERMANY        EUROPE      17-748-265-3100FURNITURE 
5829      Customer#000005829       R0uYz5DHkzeZfjgGH        PERU     8PERU           AMERICA     27-550-641-8023AUTOMOBILE
5837      Customer#000005837       k7KEaLCCjmqlP9VSixe      ARGENTINA0ARGENTINA      AMERICA     11-460-334-5427HOUSEHOLD 
5845      Customer#000005845       ZpirP3hxZ                INDONESIA4INDONESIA      ASIA        19-725-250-8343MACHINERY 
5853      Customer#000005853       Ijaa9CqTobQbi7OSLvTYbSn  KENYA    3KENYA          AFRICA      24-158-273-7171AUTOMOBILE
5861      Customer#000005861       n1uWpCIO8gAVc4U1UDrZq    ETHIOPIA 7ETHIOPIA       AFRICA      15-968-947-1721HOUSEHOLD 
5869      Customer#000005869       7p gsELV430yUy0QGdN      ALGERIA  1ALGERIA        AFRICA      10-554-769-8206HOUSEHOLD 
5877      Customer#000005877       ,,SHf0j0BhO5Xnjy         CHINA    6CHINA          ASIA        28-671-759-6620FURNITURE 
5885      Customer#000005885       DIBLq,mm6iWoFp1yIPa      JAPAN    4JAPAN          ASIA        22-371-842-1344HOUSEHOLD 
5893      Customer#000005893       4LrVNjcDdfcFMQ3UUW       INDONESIA4INDONESIA      ASIA        19-776-882-5972BUILDING  
5901      Customer#000005901       R0GDEJOC                 EGYPT    3EGYPT          MIDDLE EAST 14-176-448-8265BUILDING  
5909      Customer#000005909       VvMeNOoK                 PERU     6PERU           AMERICA     27-849-446-3681HOUSEHOLD 
5917      Customer#000005917       6cOzFocFnvoHk9ZQehp2V1bX MOROCCO  3MOROCCO        AFRICA      25-427-268-3873BUILDING  
5925      Customer#000005925       vqHb5fatX                INDIA    8INDIA          ASIA        18-608-528-7490BUILDING  
5933      Customer#000005933       MS9tmlcgb2Zvj9pM,Hvq     RUSSIA   5RUSSIA         EUROPE      32-343-911-9320FURNITURE 
5941      Customer#000005941       H3DIzvqt                 IRAN     2IRAN           MIDDLE EAST 20-448-164-2787MACHINERY 
5949      Customer#000005949       maSt1PjU09Ub0            IRAQ     8IRAQ           MIDDLE EAST 21-905-141-1078HOUSEHOLD 
5957      Customer#000005957       OSMlXhCMr                BRAZIL   2BRAZIL         AMERICA     12-562-270-4952BUILDING  
5965      Customer#000005965       XWWI2Rb                  IRAQ     1IRAQ           MIDDLE EAST 21-763-211-1229FURNITURE 
5973      Customer#000005973       EU0lVnNwv i              JORDAN   5JORDAN         MIDDLE EAST 23-455-101-8352BUILDING  
5981      Customer#000005981       TLUObLje6GoSznKdqwbk2    ARGENTINA8ARGENTINA      AMERICA     11-522-782-7733AUTOMOBILE
5989      Customer#000005989       Qc6ZLujie3BJPDsCPRJ QQL  JORDAN   8JORDAN         MIDDLE EAST 23-611-660-5481AUTOMOBILE
5997      Customer#000005997       PJGw7wyeXn1H2e9          SAUDI ARA5SAUDI ARABIA   MIDDLE EAST 30-848-395-6200BUILDING  
6005      Customer#000006005       Qhudh0ioaEafuJ Rfr6      ALGERIA  9ALGERIA        AFRICA      10-199-921-8548MACHINERY 
6013      Customer#000006013       NOTH5 kyVe               SAUDI ARA4SAUDI ARABIA   MIDDLE EAST 30-161-932-8510MACHINERY 
6021      Customer#000006021       r5k7syDoG41,Uhtpoii      VIETNAM  6VIETNAM        ASIA        31-510-987-5083AUTOMOBILE
6029      Customer#000006029       Bhz6SV                   BRAZIL   8BRAZIL         AMERICA     12-945-645-1928FURNITURE 
6037      Customer#000006037       SnqQMacIw1Ulh            FRANCE   6FRANCE         EUROPE      16-176-338-1299AUTOMOBILE
6045      Customer#000006045       FH8AwQ54fTohmWW          ALGERIA  3ALGERIA        AFRICA      10-521-217-9808HOUSEHOLD 
6053      Customer#000006053       Yzq6dtXjEfbY             MOROCCO  4MOROCCO        AFRICA      25-709-871-9554MACHINERY 
6061      Customer#000006061       FRN1 emJhjvn9yjnKN9Hj    MOROCCO  5MOROCCO        AFRICA      25-689-948-2833MACHINERY 
6069      Customer#000006069       lP56RbvJxUsPWR7AJ3       INDIA    6INDIA          ASIA        18-512-736-6147FURNITURE 
6077      Customer#000006077       uhQEW4hX BiYzeK          INDONESIA1INDONESIA      ASIA        19-756-297-5435MACHINERY 
6085      Customer#000006085       N280OwVf0BbPajbB8        JAPAN    9JAPAN          ASIA        22-964-585-8035MACHINERY 
6093      Customer#000006093       BOuFVe                   INDIA    7INDIA          ASIA        18-492-162-8186AUTOMOBILE
6101      Customer#000006101       KI6M7iui                 ARGENTINA1ARGENTINA      AMERICA     11-612-523-8679AUTOMOBILE
6109      Customer#000006109       gpgBDs5                  GERMANY  6GERMANY        EUROPE      17-874-191-1798HOUSEHOLD 
6117      Customer#000006117       4CHkWz                   UNITED ST2UNITED STATES  AMERICA     34-591-857-5434FURNITURE 
6125      Customer#000006125       q4dT2taZKQ               IRAQ     0IRAQ           MIDDLE EAST 21-720-107-3228MACHINERY 
6133      Customer#000006133       FwwrG6                   JORDAN   0JORDAN         MIDDLE EAST 23-301-214-8009HOUSEHOLD 
6141      Customer#000006141       4QBCP6m                  IRAN     7IRAN           MIDDLE EAST 20-958-929-2607BUILDING  
6149      Customer#000006149       Dv0FCsfLC8tg I           INDONESIA5INDONESIA      ASIA        19-702-360-5828BUILDING  
6157      Customer#000006157       3hTpojm17PUW3O           IRAQ     6IRAQ           MIDDLE EAST 21-793-459-1630HOUSEHOLD 
6165      Customer#000006165       31aZoMF                  JAPAN    5JAPAN          ASIA        22-124-635-2879AUTOMOBILE
6173      Customer#000006173       jd3so7 leJO5Y            SAUDI ARA3SAUDI ARABIA   MIDDLE EAST 30-705-390-8568MACHINERY 
6181      Customer#000006181       cZ9B3p5D4poouVdTvh       BRAZIL   4BRAZIL         AMERICA     12-512-258-1606MACHINERY 
6189      Customer#000006189       X6edGVb,Osa e            KENYA    8KENYA          AFRICA      24-766-654-2005AUTOMOBILE
6197      Customer#000006197       Ce9LTBhp7                IRAQ     0IRAQ           MIDDLE EAST 21-174-473-8428FURNITURE 
6205      Customer#000006205       Bd2A0KLWCYN1             CHINA    0CHINA          ASIA        28-246-556-4404FURNITURE 
6213      Customer#000006213       jpXKO9LktOMMIPpfE xy     ETHIOPIA 2ETHIOPIA       AFRICA      15-846-434-6729AUTOMOBILE
6221      Customer#000006221       J2Zx,5YWGMpbyd9yupa1PMu  FRANCE   2FRANCE         EUROPE      16-261-361-4232HOUSEHOLD 
6229      Customer#000006229       6jBRlUNs3Q,XQZs          PERU     0PERU           AMERICA     27-220-815-6590HOUSEHOLD 
6237      Customer#000006237       jgXVEi0rAQCxB            ALGERIA  8ALGERIA        AFRICA      10-347-612-7322AUTOMOBILE
6245      Customer#000006245       okJFjGfCET8m41TwZdswM4nq ROMANIA  2ROMANIA        EUROPE      29-838-846-5388BUILDING  
6253      Customer#000006253       dHtDAyg0dAsmN            INDONESIA4INDONESIA      ASIA        19-920-787-1436BUILDING  
6261      Customer#000006261       rbTkXWn,HeQxxR8S         JAPAN    8JAPAN          ASIA        22-660-877-4492AUTOMOBILE
6269      Customer#000006269       t3tcDR3QxuXh1Q5eHbzBls8  MOZAMBIQU8MOZAMBIQUE     AFRICA      26-303-314-3441FURNITURE 
6277      Customer#000006277       0EKQ4D5RMYQ6,NHCtnq14Es7 ALGERIA  0ALGERIA        AFRICA      10-213-519-2557BUILDING  
6285      Customer#000006285       nf 4a5KU8QuLSMPZWmEky    CANADA   1CANADA         AMERICA     13-370-459-8410MACHINERY 
6293      Customer#000006293       40Q UY9xqRxuXTIF3Kh5     CANADA   2CANADA         AMERICA     13-236-658-7256BUILDING  
6301      Customer#000006301       JdPIarVVF5vd             CHINA    0CHINA          ASIA        28-942-619-1757AUTOMOBILE
6309      Customer#000006309       pHdznY21xw               GERMANY  9GERMANY        EUROPE      17-118-591-2171AUTOMOBILE
6317      Customer#000006317       1i8b72gMGW4MBizzmt2G2    SAUDI ARA1SAUDI ARABIA   MIDDLE EAST 30-604-336-7933MACHINERY 
6325      Customer#000006325       eI IZBMs2N               KENYA    3KENYA          AFRICA      24-928-956-3539MACHINERY 
6333      Customer#000006333       IExKkHfdJck,eoVnei8Nhq   EGYPT    2EGYPT          MIDDLE EAST 14-209-218-4393HOUSEHOLD 
6341      Customer#000006341       JPBISK7sJEEmLqyjH8g      MOZAMBIQU8MOZAMBIQUE     AFRICA      26-271-900-8844AUTOMOBILE
6349      Customer#000006349       mb,ZNqwU0Wk              INDIA    2INDIA          ASIA        18-529-176-5133MACHINERY 
6357      Customer#000006357       ,HVhNgT                  RUSSIA   1RUSSIA         EUROPE      32-867-441-6019HOUSEHOLD 
6365      Customer#000006365       q9FqvI49NhkzJH6          UNITED KI5UNITED KINGDOM EUROPE      33-756-230-6800HOUSEHOLD 
6373      Customer#000006373       Ap2nqlR9SntNoWk          RUSSIA   7RUSSIA         EUROPE      32-824-681-3724MACHINERY 
6381      Customer#000006381       qgLG,UnydWWKK            GERMANY  1GERMANY        EUROPE      17-689-893-5305HOUSEHOLD 
6389      Customer#000006389       h1DyF2D                  IRAN     6IRAN           MIDDLE EAST 20-453-920-3092BUILDING  
6397      Customer#000006397       OupmJTZAYWzow            CANADA   4CANADA         AMERICA     13-611-737-2640AUTOMOBILE
6405      Customer#000006405       I0BmHPY,nx               UNITED ST3UNITED STATES  AMERICA     34-569-431-2829AUTOMOBILE
6413      Customer#000006413       okFK1CC8ibk3             IRAN     9IRAN           MIDDLE EAST 20-336-969-9941AUTOMOBILE
6421      Customer#000006421       fv4AI3OzYxdrM3I4cuDUoxM  CANADA   1CANADA         AMERICA     13-400-578-8021FURNITURE 
6429      Customer#000006429       723rhJstUlnqt  siNCyOV67 KENYA    6KENYA          AFRICA      24-805-535-5332AUTOMOBILE
6437      Customer#000006437       pZ639dzBsf14zfwauL0jO    UNITED KI8UNITED KINGDOM EUROPE      33-593-726-7635AUTOMOBILE
6445      Customer#000006445       J8HlYAyAUaCQpMoj4cTlS,TD ETHIOPIA 4ETHIOPIA       AFRICA      15-802-997-7598BUILDING  
6453      Customer#000006453       pZ0jI IY sh07aKPdmQ7uv   RUSSIA   8RUSSIA         EUROPE      32-647-454-2976BUILDING  
6461      Customer#000006461       vgpOxXZRI,,Y92 1NO       ETHIOPIA 4ETHIOPIA       AFRICA      15-551-176-3233AUTOMOBILE
6469      Customer#000006469       kDCpN,X8RAKe6EH          GERMANY  0GERMANY        EUROPE      17-629-713-6777MACHINERY 
6477      Customer#000006477       qylnoy8Yoou7au1Ij        ARGENTINA0ARGENTINA      AMERICA     11-843-523-5826MACHINERY 
6485      Customer#000006485       sCWkSZkKOpsnFhyNU        ARGENTINA9ARGENTINA      AMERICA     11-178-114-9271HOUSEHOLD 
6493      Customer#000006493       ZT2dynxW                 ROMANIA  3ROMANIA        EUROPE      29-833-354-4068MACHINERY 
6501      Customer#000006501       9v8gAkVB KcQoBRKbQ       UNITED ST8UNITED STATES  AMERICA     34-374-355-9715FURNITURE 
