1         Customer#000000001       MayagÅezR               MAABBCCD 0MOROCCO        AFRICA      25-705-443-4055BUILDING  
9         Customer#000000009       xKüôíf 99 92000         INDIA    7INDIA          ASIA        18-928-807-2622FURNITURE 
17        Customer#000000017       izrh 6jdqtp2eqdtbkswDD8  BRAZIL   0BRAZIL         AMERICA     12-881-917-1567AUTOMOBILE
25        Customer#000000025       Hp8GyFQgGHFYS            JAPAN    7JAPAN          ASIA        22-863-389-5147FURNITURE 
33        Customer#000000033       qFSlMuLucBmx9xnn5        PERU     9PERU           AMERICA     27-768-464-9286AUTOMOBILE
41        Customer#000000041       IM9mzmyoxeBmvNw8lA7      IRAN     8IRAN           MIDDLE EAST 20-803-297-1603HOUSEHOLD 
49        Customer#000000049       8 8feX7Fqrdf7HQN9EwjUa   IRAN     9IRAN           MIDDLE EAST 20-832-349-3495FURNITURE 
57        Customer#000000057       97XYbsuO                 VIETNAM  3VIETNAM        ASIA        31-440-209-9875AUTOMOBILE
65        Customer#000000065       RGT yzQ0y4l0H90P783LG4U9 UNITED KI8UNITED KINGDOM EUROPE      33-537-556-6128AUTOMOBILE
73        Customer#000000073       8IhIxreu4Ug              ALGERIA  8ALGERIA        AFRICA      10-650-964-2215BUILDING  
81        Customer#000000081       SH6lPA7JiiN              SAUDI ARA6SAUDI ARABIA   MIDDLE EAST 30-364-427-9636BUILDING  
89        Customer#000000089       dtR, y9JQWUO6Fo          KENYA    3KENYA          AFRICA      24-557-877-1174FURNITURE 
97        Customer#000000097       OApyejbhJG,0             PERU     3PERU           AMERICA     27-156-363-1373AUTOMOBILE
105       Customer#000000105       4iSJe4L SPjg7k           IRAN     8IRAN           MIDDLE EAST 20-130-865-9919MACHINERY 
113       Customer#000000113       eaOl5UBXIvdY57rgla       JAPAN    8JAPAN          ASIA        22-129-848-5459BUILDING  
121       Customer#000000121       tv nCR2YKupG             PERU     4PERU           AMERICA     27-504-172-4339BUILDING  
129       Customer#000000129       q7m7rbMM0BpaCdmxloCgB    GERMANY  1GERMANY        EUROPE      17-617-573-9507HOUSEHOLD 
137       Customer#000000137       cdW91p92rlAEHg           MOZAMBIQU9MOZAMBIQUE     AFRICA      26-922-624-2232HOUSEHOLD 
145       Customer#000000145       kQjHmt2kcec cy           JORDAN   1JORDAN         MIDDLE EAST 23-329-238-3706HOUSEHOLD 
153       Customer#000000153       kDzx11sI                 FRANCE   7FRANCE         EUROPE      16-124-438-6948HOUSEHOLD 
161       Customer#000000161       2oRkx,N                  GERMANY  0GERMANY        EUROPE      17-354-317-6023MACHINERY 
169       Customer#000000169       NjhmHa7                  CHINA    8CHINA          ASIA        28-626-591-4342FURNITURE 
177       Customer#000000177       6wzEKPyZE9dmBCJZ         ARGENTINA0ARGENTINA      AMERICA     11-757-178-5779BUILDING  
185       Customer#000000185       iHXzQg                   ETHIOPIA 7ETHIOPIA       AFRICA      15-431-342-2494BUILDING  
193       Customer#000000193       dUT4dtsPTZ6ZpkWLc,KG     UNITED KI4UNITED KINGDOM EUROPE      33-669-146-2602MACHINERY 
201       Customer#000000201       yWLtmd5usyjsCv           BRAZIL   0BRAZIL         AMERICA     12-886-442-4766MACHINERY 
209       Customer#000000209       iBvmxOZV3qXMYQW          MOZAMBIQU8MOZAMBIQUE     AFRICA      26-127-156-8417FURNITURE 
217       Customer#000000217       YIy05RMdthrX             UNITED KI9UNITED KINGDOM EUROPE      33-132-195-3701AUTOMOBILE
225       Customer#000000225       2HFk1E                   JORDAN   4JORDAN         MIDDLE EAST 23-209-517-4714AUTOMOBILE
233       Customer#000000233       mFm45wZ7rV4V             CANADA   7CANADA         AMERICA     13-843-730-9678FURNITURE 
241       Customer#000000241       FBuwHkPR450PvnZnAezc     INDONESIA4INDONESIA      ASIA        19-108-206-4343AUTOMOBILE
249       Customer#000000249       0XE2fhX7j2uivaHBrFu      CANADA   0CANADA         AMERICA     13-397-584-9115MACHINERY 
257       Customer#000000257       LyIa26E                  GERMANY  1GERMANY        EUROPE      17-274-912-5596AUTOMOBILE
265       Customer#000000265       sthiqpj6CPAKbD7BBSz9u    PERU     5PERU           AMERICA     27-884-683-8361MACHINERY 
273       Customer#000000273       sOA,alhAw1j              BRAZIL   5BRAZIL         AMERICA     12-404-787-7049FURNITURE 
281       Customer#000000281       x5gJ8IGm2F               FRANCE   1FRANCE         EUROPE      16-526-311-4845BUILDING  
289       Customer#000000289       NUilehg0nVOkK3K1SW0,BAH  IRAN     7IRAN           MIDDLE EAST 20-354-294-3254AUTOMOBILE
297       Customer#000000297       hzg,40                   MOROCCO  4MOROCCO        AFRICA      25-450-599-9448HOUSEHOLD 
305       Customer#000000305       x8kcl,                   IRAQ     2IRAQ           MIDDLE EAST 21-270-775-6277FURNITURE 
313       Customer#000000313       Ay52vCrTXsSmp7TmQ1       ALGERIA  7ALGERIA        AFRICA      10-998-221-3226HOUSEHOLD 
321       Customer#000000321       g3,8g XHACSvjZtJuiN      SAUDI ARA3SAUDI ARABIA   MIDDLE EAST 30-613-508-6228FURNITURE 
329       Customer#000000329       67r6XnIxUVgAc3           IRAQ     2IRAQ           MIDDLE EAST 21-396-789-8889BUILDING  
337       Customer#000000337       EluRTlO4pE7u0XSKKyvKvV   ALGERIA  4ALGERIA        AFRICA      10-809-908-7240MACHINERY 
345       Customer#000000345       dGFK ICPKxnsAzlX4UYOU    INDONESIA7INDONESIA      ASIA        19-705-381-6908AUTOMOBILE
353       Customer#000000353       eftGCmL4b5rAKdv          IRAN     8IRAN           MIDDLE EAST 20-103-888-6837BUILDING  
361       Customer#000000361       l0F8jMJV                 SAUDI ARA7SAUDI ARABIA   MIDDLE EAST 30-341-609-8142BUILDING  
369       Customer#000000369       ge1XhgI3ADIkvLr5GP       INDIA    7INDIA          ASIA        18-373-882-9727FURNITURE 
377       Customer#000000377       PA4levhyD,Rvr0JHQ4       UNITED KI5UNITED KINGDOM EUROPE      33-951-188-4368MACHINERY 
385       Customer#000000385       zJvPI24TSPpiFzY          CANADA   6CANADA         AMERICA     13-750-136-4619AUTOMOBILE
393       Customer#000000393       RSELskV44I3LF            SAUDI ARA6SAUDI ARABIA   MIDDLE EAST 30-253-981-1808FURNITURE 
401       Customer#000000401       aKALIG526OK4veQfU        ROMANIA  4ROMANIA        EUROPE      29-262-894-8182BUILDING  
409       Customer#000000409       mtrMiDvQxNsy1Cj0cU4ITEW5 IRAQ     3IRAQ           MIDDLE EAST 21-150-136-5132FURNITURE 
417       Customer#000000417       X3LMSpIn4FgjgJxl         IRAQ     3IRAQ           MIDDLE EAST 21-427-457-7971BUILDING  
425       Customer#000000425       lp3aCRBK                 MOZAMBIQU9MOZAMBIQUE     AFRICA      26-401-819-5121HOUSEHOLD 
433       Customer#000000433       7XFuE4 e                 SAUDI ARA5SAUDI ARABIA   MIDDLE EAST 30-564-293-8145FURNITURE 
441       Customer#000000441       gjYpcBx6M                UNITED KI2UNITED KINGDOM EUROPE      33-146-182-1674HOUSEHOLD 
449       Customer#000000449       DiUXazp8EYcJFsX2a7nciEpo EGYPT    2EGYPT          MIDDLE EAST 14-754-739-7686MACHINERY 
457       Customer#000000457       eaAWe Vqr0x17Uwj1uzQRb   SAUDI ARA2SAUDI ARABIA   MIDDLE EAST 30-111-997-4333FURNITURE 
465       Customer#000000465       gngnTNn7azjgQl           BRAZIL   9BRAZIL         AMERICA     12-427-821-7226FURNITURE 
473       Customer#000000473       zO3W9pYj P               INDONESIA9INDONESIA      ASIA        19-972-226-6362HOUSEHOLD 
481       Customer#000000481       o4xa7J20NqHM8E0ykH,      VIETNAM  3VIETNAM        ASIA        31-831-932-4116FURNITURE 
489       Customer#000000489       GIdW4IVgeqWMBXnN         EGYPT    9EGYPT          MIDDLE EAST 14-576-579-7915AUTOMOBILE
497       Customer#000000497       0 qRRXAxUbo1J KDwD       UNITED KI7UNITED KINGDOM EUROPE      33-865-506-4014BUILDING  
505       Customer#000000505       MAUkwAyEvg61RlCMom       BRAZIL   1BRAZIL         AMERICA     12-396-245-2647HOUSEHOLD 
513       Customer#000000513       sbWV6FIPas6C             ARGENTINA6ARGENTINA      AMERICA     11-367-392-1550HOUSEHOLD 
521       Customer#000000521       MUEAEA1ZuvRofNY453C      BRAZIL   2BRAZIL         AMERICA     12-738-820-7466MACHINERY 
529       Customer#000000529       oGKgweC odpyORKPJ9oxTqz  MOROCCO  6MOROCCO        AFRICA      25-651-149-4213FURNITURE 
537       Customer#000000537       wyXvxD                   IRAN     6IRAN           MIDDLE EAST 20-449-894-2866FURNITURE 
545       Customer#000000545       AsYw6k,nDUQ              IRAN     2IRAN           MIDDLE EAST 20-356-759-3190AUTOMOBILE
553       Customer#000000553       8tTlav                   EGYPT    0EGYPT          MIDDLE EAST 14-828-593-9019BUILDING  
561       Customer#000000561       Z1kPCTbeTqGfdly2A        CHINA    5CHINA          ASIA        28-401-818-2511FURNITURE 
569       Customer#000000569       Kk20Q5HiysjcPpMl         BRAZIL   3BRAZIL         AMERICA     12-155-199-7936MACHINERY 
577       Customer#000000577       a73SSq2cip7C8nSzdm       KENYA    3KENYA          AFRICA      24-112-728-2348FURNITURE 
585       Customer#000000585       OAnZOqr6A,,77WC001ck8B   MOZAMBIQU3MOZAMBIQUE     AFRICA      26-704-374-3652MACHINERY 
593       Customer#000000593       SYyEL2nytJXBbFemMseCii   INDONESIA6INDONESIA      ASIA        19-372-252-1117AUTOMOBILE
601       Customer#000000601       P3 Dv,6yllTNmL9yt6NU     ARGENTINA5ARGENTINA      AMERICA     11-162-776-9912BUILDING  
609       Customer#000000609       dSpUFl8                  VIETNAM  9VIETNAM        ASIA        31-119-590-3524FURNITURE 
617       Customer#000000617       Ifjxbt3                  KENYA    1KENYA          AFRICA      24-669-265-6250HOUSEHOLD 
625       Customer#000000625       uvgDE6eQ2bJp4B           JORDAN   1JORDAN         MIDDLE EAST 23-934-317-9574FURNITURE 
633       Customer#000000633       0pgCxndi1coDLkAV,UJJDMV  BRAZIL   2BRAZIL         AMERICA     12-928-497-3804HOUSEHOLD 
641       Customer#000000641       gbIvFlCygH               UNITED ST2UNITED STATES  AMERICA     34-956-308-7526AUTOMOBILE
649       Customer#000000649       EntXL7                   IRAQ     9IRAQ           MIDDLE EAST 21-510-639-1232BUILDING  
657       Customer#000000657       BpXQ3sbx                 ROMANIA  0ROMANIA        EUROPE      29-122-896-9324FURNITURE 
665       Customer#000000665       Fo9QgQsDO                RUSSIA   0RUSSIA         EUROPE      32-622-777-4278BUILDING  
673       Customer#000000673       Q2S9DoW6mQN5iQ0A8D       EGYPT    0EGYPT          MIDDLE EAST 14-931-992-8909MACHINERY 
681       Customer#000000681       x85ncT W41KEcUQCtxE,L    SAUDI ARA1SAUDI ARABIA   MIDDLE EAST 30-231-720-9275MACHINERY 
689       Customer#000000689       Gcie9Q,Wc6J0QvKcefqfla   UNITED ST3UNITED STATES  AMERICA     34-761-810-1278MACHINERY 
697       Customer#000000697       LFwdGCTUYD               EGYPT    5EGYPT          MIDDLE EAST 14-549-407-4196AUTOMOBILE
705       Customer#000000705       YKdZRFEGcclF6            CHINA    9CHINA          ASIA        28-423-911-2773BUILDING  
713       Customer#000000713       ov fZJgE                 IRAN     0IRAN           MIDDLE EAST 20-498-257-2722MACHINERY 
721       Customer#000000721       N6hr4gV9EkPB             VIETNAM  6VIETNAM        ASIA        31-758-455-5471AUTOMOBILE
729       Customer#000000729       YZxBLBAqBmW53g2ia6       SAUDI ARA9SAUDI ARABIA   MIDDLE EAST 30-228-874-2783MACHINERY 
737       Customer#000000737       NdjG1k243iCLSoy1lY       CHINA    2CHINA          ASIA        28-300-695-8189AUTOMOBILE
745       Customer#000000745       vjuHvDKdao               CHINA    7CHINA          ASIA        28-769-805-1093FURNITURE 
753       Customer#000000753       9k2PLlDRbMq4oSvW         PERU     6PERU           AMERICA     27-135-889-3382HOUSEHOLD 
761       Customer#000000761       oObRVLlulGS5             ROMANIA  9ROMANIA        EUROPE      29-526-293-5162BUILDING  
769       Customer#000000769       0eGzsjp                  ETHIOPIA 7ETHIOPIA       AFRICA      15-908-794-3625HOUSEHOLD 
777       Customer#000000777       27adTXaV                 SAUDI ARA4SAUDI ARABIA   MIDDLE EAST 30-609-761-9349AUTOMOBILE
785       Customer#000000785       gEkI8kSq8RYgO6tiTA0AB7u  CHINA    6CHINA          ASIA        28-125-562-6606BUILDING  
793       Customer#000000793        SltK1IMp2Xvwb,A         ALGERIA  6ALGERIA        AFRICA      10-632-916-7684BUILDING  
801       Customer#000000801       UQ67hfDJlxgX68hiF        MOZAMBIQU0MOZAMBIQUE     AFRICA      26-698-955-3566FURNITURE 
809       Customer#000000809       eApaa5hW3Mq              MOZAMBIQU6MOZAMBIQUE     AFRICA      26-480-224-7889HOUSEHOLD 
817       Customer#000000817       jDJt0Wfk0,Wcx5HOI5i      ALGERIA  8ALGERIA        AFRICA      10-940-363-7800MACHINERY 
825       Customer#000000825       L8P98o,xq9E78km          IRAN     1IRAN           MIDDLE EAST 20-498-325-4012HOUSEHOLD 
833       Customer#000000833       t3qDCo,Yh MZcJFV6        FRANCE   1FRANCE         EUROPE      16-144-984-4291FURNITURE 
841       Customer#000000841       pSISKRxFIgVasW71fLyaEuO  INDONESIA1INDONESIA      ASIA        19-437-389-5426FURNITURE 
849       Customer#000000849       kqRGW2JQtTM,a6           UNITED ST3UNITED STATES  AMERICA     34-718-138-4209MACHINERY 
857       Customer#000000857       TFCCMlSEyrItYvEZ         ETHIOPIA 7ETHIOPIA       AFRICA      15-692-657-9914AUTOMOBILE
865       Customer#000000865       UIv4t5cbA7j1ftO          INDONESIA5INDONESIA      ASIA        19-536-229-1794BUILDING  
873       Customer#000000873       XFnr9C2                  FRANCE   4FRANCE         EUROPE      16-455-950-3225AUTOMOBILE
881       Customer#000000881       XJ94RTR2oX               EGYPT    3EGYPT          MIDDLE EAST 14-362-212-8434FURNITURE 
889       Customer#000000889       pLvfd7drswfAcH           JORDAN   7JORDAN         MIDDLE EAST 23-323-609-5143FURNITURE 
897       Customer#000000897       nW1X1Hl9uWy              FRANCE   7FRANCE         EUROPE      16-200-590-1041MACHINERY 
905       Customer#000000905       f iyVEgCU2lZZP           CANADA   4CANADA         AMERICA     13-840-498-9963BUILDING  
913       Customer#000000913       aohNRUjsM                KENYA    2KENYA          AFRICA      24-602-647-2334FURNITURE 
921       Customer#000000921       XYBVDdDifSYrW gUeDP      INDIA    2INDIA          ASIA        18-388-226-1304HOUSEHOLD 
929       Customer#000000929       c dPfaAmm                UNITED KI4UNITED KINGDOM EUROPE      33-363-724-5152MACHINERY 
937       Customer#000000937       usrG6ohdPR               UNITED KI1UNITED KINGDOM EUROPE      33-426-286-9906AUTOMOBILE
945       Customer#000000945       300zKN                   MOROCCO  5MOROCCO        AFRICA      25-147-373-6857BUILDING  
953       Customer#000000953       5HJQ8UzSSl1PJv2          RUSSIA   1RUSSIA         EUROPE      32-814-804-8758BUILDING  
961       Customer#000000961       5,81YDLFuRR47KKzv8GX     JAPAN    9JAPAN          ASIA        22-536-603-4607MACHINERY 
969       Customer#000000969       N9NSGc0Bj6FlSw3d9        INDIA    3INDIA          ASIA        18-216-259-9560BUILDING  
977       Customer#000000977       JcKxPwHPM7akg5IiC        BRAZIL   0BRAZIL         AMERICA     12-687-535-5116FURNITURE 
985       Customer#000000985       0uAMe1ICB,wts            UNITED KI4UNITED KINGDOM EUROPE      33-522-738-8430HOUSEHOLD 
993       Customer#000000993       56K JjC bMcgbXlJA4KI Ic  GERMANY  6GERMANY        EUROPE      17-478-356-3720FURNITURE 
1001      Customer#000001001       KbWTzGB3ZUymu nNC        VIETNAM  5VIETNAM        ASIA        31-808-302-9843MACHINERY 
1009      Customer#000001009       cWONXs2Vx30bkgY          JAPAN    5JAPAN          ASIA        22-920-155-2735BUILDING  
1017      Customer#000001017       OoVPZGR5h                MOZAMBIQU7MOZAMBIQUE     AFRICA      26-288-769-7145MACHINERY 
1025      Customer#000001025       3T2A1uo8mCqTeO LTW8at    INDIA    5INDIA          ASIA        18-627-873-6235AUTOMOBILE
1033      Customer#000001033       WOozPuOF8U               INDIA    3INDIA          ASIA        18-885-902-2848BUILDING  
1041      Customer#000001041       189f n                   IRAQ     8IRAQ           MIDDLE EAST 21-149-114-1381MACHINERY 
1049      Customer#000001049       bZ1OcFhHa                INDONESIA3INDONESIA      ASIA        19-737-259-6377MACHINERY 
1057      Customer#000001057       xyV8 FbW4xS,JhkxC0       UNITED ST0UNITED STATES  AMERICA     34-448-990-1195AUTOMOBILE
1065      Customer#000001065       qGBa7X0dOMsKLuYBp        RUSSIA   2RUSSIA         EUROPE      32-575-711-4013HOUSEHOLD 
1073      Customer#000001073       KEyFI2gYMZr              IRAN     9IRAN           MIDDLE EAST 20-970-356-3274BUILDING  
1081      Customer#000001081       eGGRjZex7YANvD1j         JAPAN    5JAPAN          ASIA        22-960-247-5181MACHINERY 
1089      Customer#000001089       OO77  pLjaOe7bam1Wn      CHINA    5CHINA          ASIA        28-894-265-4874BUILDING  
1097      Customer#000001097       a wMc0lQutcHs6cRomoMCGj  FRANCE   0FRANCE         EUROPE      16-569-930-1979MACHINERY 
1105      Customer#000001105       cZhhOUzv6,V              RUSSIA   9RUSSIA         EUROPE      32-635-163-6414FURNITURE 
1113      Customer#000001113       jLtKZ0bR                 JAPAN    3JAPAN          ASIA        22-999-326-1114HOUSEHOLD 
1121      Customer#000001121       o2uc3AHYz,m 3vYg         SAUDI ARA1SAUDI ARABIA   MIDDLE EAST 30-906-869-3624MACHINERY 
1129      Customer#000001129       OMEqYv,hhyBAObDjIkoPL03  INDIA    5INDIA          ASIA        18-169-307-3770HOUSEHOLD 
1137      Customer#000001137       LJ3J3i0BlPLrhKi6V        MOZAMBIQU2MOZAMBIQUE     AFRICA      26-839-413-4657AUTOMOBILE
1145      Customer#000001145       6R rPD6SDQPpFuYxxwh,Dv   BRAZIL   3BRAZIL         AMERICA     12-339-967-3602HOUSEHOLD 
1153      Customer#000001153       SYG3KMj1fMh7GwvIZ,pY     CANADA   5CANADA         AMERICA     13-242-370-5976HOUSEHOLD 
1161      Customer#000001161        QD7s2P6QpCC6g9          ROMANIA  2ROMANIA        EUROPE      29-713-513-5419MACHINERY 
1169      Customer#000001169       04YQNIYyRRFxU            EGYPT    8EGYPT          MIDDLE EAST 14-588-123-9662MACHINERY 
1177      Customer#000001177       hZPNQ8a9QRM ,S           KENYA    5KENYA          AFRICA      24-699-657-7337FURNITURE 
1185      Customer#000001185       z,dN83fET                KENYA    9KENYA          AFRICA      24-492-859-4193BUILDING  
1193      Customer#000001193       gdKqrIp,yaMaQSFe         INDIA    8INDIA          ASIA        18-872-807-7864AUTOMOBILE
1201      Customer#000001201       LfCSVKWozyWOGDW02g9UX,X  IRAN     6IRAN           MIDDLE EAST 20-831-891-8224BUILDING  
1209      Customer#000001209       PW00geNpQOiug6dftXfBkpwd EGYPT    2EGYPT          MIDDLE EAST 14-271-903-3326HOUSEHOLD 
1217      Customer#000001217       ddk4YC7lmT               JAPAN    4JAPAN          ASIA        22-351-157-5187FURNITURE 
1225      Customer#000001225       CgaNok                   IRAQ     0IRAQ           MIDDLE EAST 21-551-322-2479MACHINERY 
1233      Customer#000001233       KdmXav                   MOROCCO  2MOROCCO        AFRICA      25-225-496-3793MACHINERY 
1241      Customer#000001241       74mW8ipfv                CANADA   8CANADA         AMERICA     13-210-315-5185HOUSEHOLD 
1249      Customer#000001249       x9ukZnNiUM5pBPXyE3epage  GERMANY  3GERMANY        EUROPE      17-237-348-1547BUILDING  
1257      Customer#000001257       kX6yufw5dfKrg            BRAZIL   6BRAZIL         AMERICA     12-358-287-9847HOUSEHOLD 
1265      Customer#000001265       CTbTIB ZTYyKUSY42K       UNITED ST7UNITED STATES  AMERICA     34-124-360-5839MACHINERY 
1273      Customer#000001273       6RglRQdIV9mF8T           JAPAN    1JAPAN          ASIA        22-532-417-7878AUTOMOBILE
1281      Customer#000001281       pekyJqzeIQKGO8           IRAQ     3IRAQ           MIDDLE EAST 21-881-290-6921AUTOMOBILE
1289      Customer#000001289       OGb4YMko                 UNITED ST2UNITED STATES  AMERICA     34-768-475-2604MACHINERY 
1297      Customer#000001297       4QnYEe0KXOP3yridKld      VIETNAM  9VIETNAM        ASIA        31-440-893-2793HOUSEHOLD 
1305      Customer#000001305       xHgwqc1p0eLf5F8JkE7zvY   UNITED KI7UNITED KINGDOM EUROPE      33-522-195-3288MACHINERY 
1313      Customer#000001313       Ax4TI4jbHvaYUaaFuEU      UNITED KI0UNITED KINGDOM EUROPE      33-215-696-6799MACHINERY 
1321      Customer#000001321       dWd3Mh                   IRAN     0IRAN           MIDDLE EAST 20-472-755-4092FURNITURE 
1329      Customer#000001329       Q3 pefFAcrEY             PERU     7PERU           AMERICA     27-959-386-7946BUILDING  
1337      Customer#000001337       ACAMJe2Xdw2BC            RUSSIA   8RUSSIA         EUROPE      32-177-796-4228MACHINERY 
1345      Customer#000001345       31zcobEB,6Li             INDONESIA8INDONESIA      ASIA        19-191-889-5526BUILDING  
1353      Customer#000001353       CzscM6                   ARGENTINA5ARGENTINA      AMERICA     11-959-987-6425MACHINERY 
1361      Customer#000001361       OAHRbO5RS8,yFt16e7glYM4  JORDAN   0JORDAN         MIDDLE EAST 23-771-183-5092HOUSEHOLD 
1369      Customer#000001369       rXTwOzU0a2ak4Nj          IRAN     3IRAN           MIDDLE EAST 20-382-432-4394AUTOMOBILE
1377      Customer#000001377       P7aUKm47hbe1             PERU     6PERU           AMERICA     27-303-508-5173MACHINERY 
1385      Customer#000001385       4jAtwsWIITPzhTIx7jbl     CANADA   6CANADA         AMERICA     13-601-311-2514BUILDING  
1393      Customer#000001393       zVp5Hbhro,9rT            UNITED ST5UNITED STATES  AMERICA     34-465-474-3293FURNITURE 
1401      Customer#000001401       C4vlB8ENikVmaMiz         INDONESIA3INDONESIA      ASIA        19-758-535-2090BUILDING  
1409      Customer#000001409       jzfaCks                  IRAQ     3IRAQ           MIDDLE EAST 21-257-662-5232MACHINERY 
1417      Customer#000001417       1BDU8Avl                 ARGENTINA1ARGENTINA      AMERICA     11-605-597-6031FURNITURE 
1425      Customer#000001425       I2UBZAPPdnA9oFKKJTGxaSQZ ARGENTINA1ARGENTINA      AMERICA     11-296-677-3105FURNITURE 
1433      Customer#000001433       gK7D76v78U iRA2YI2kx     PERU     3PERU           AMERICA     27-760-125-8618BUILDING  
1441      Customer#000001441       u0YYZb46w,pwKo5H9vz d    UNITED KI1UNITED KINGDOM EUROPE      33-226-833-8149BUILDING  
1449      Customer#000001449       lNFczqF3TjlSO9           RUSSIA   9RUSSIA         EUROPE      32-365-255-1542BUILDING  
1457      Customer#000001457       qmpteVs7H9WjRow7FDut9a   UNITED KI4UNITED KINGDOM EUROPE      33-204-268-6031BUILDING  
1465      Customer#000001465       tDRaTC7UgFbBX7           INDIA    0INDIA          ASIA        18-852-702-7393FURNITURE 
1473      Customer#000001473       UPkONG9dy4VY             ALGERIA  7ALGERIA        AFRICA      10-887-813-2599MACHINERY 
1481      Customer#000001481       Vp7Um1Vy7MNVJvP 5cqUrz8  JAPAN    9JAPAN          ASIA        22-383-637-4579AUTOMOBILE
1489      Customer#000001489       yM8biIU5IFKHOD           INDONESIA2INDONESIA      ASIA        19-484-781-6347MACHINERY 
1497      Customer#000001497        D8e2U3gYd57H            KENYA    6KENYA          AFRICA      24-782-279-9393AUTOMOBILE
1505      Customer#000001505       SFczFxAak1x              VIETNAM  3VIETNAM        ASIA        31-377-809-3395AUTOMOBILE
1513      Customer#000001513       CkEgq3Yvj9kGkHvVeUELT1UP IRAN     6IRAN           MIDDLE EAST 20-489-461-6558FURNITURE 
1521      Customer#000001521        UAwhhVG066ce            JORDAN   8JORDAN         MIDDLE EAST 23-470-327-8803AUTOMOBILE
1529      Customer#000001529       NYQrlaZMT2rOQadTbfSpA    BRAZIL   2BRAZIL         AMERICA     12-550-801-2600HOUSEHOLD 
1537      Customer#000001537       Fx1vbSLG90yTE3K          MOROCCO  3MOROCCO        AFRICA      25-820-184-6549HOUSEHOLD 
1545      Customer#000001545       08TtvYMUYuq6Hgi1T4Is     ARGENTINA5ARGENTINA      AMERICA     11-333-223-7756BUILDING  
1553      Customer#000001553       zS2t71h5ssFkRFiB4EvNtWP  ARGENTINA4ARGENTINA      AMERICA     11-910-439-1564AUTOMOBILE
1561      Customer#000001561       11hKNqixtqQsCgZKu3       JORDAN   4JORDAN         MIDDLE EAST 23-677-264-3513AUTOMOBILE
1569      Customer#000001569       4vO9w7ixKJ 5o            FRANCE   4FRANCE         EUROPE      16-491-415-4312HOUSEHOLD 
1577      Customer#000001577       eaMmfsWJ7                RUSSIA   0RUSSIA         EUROPE      32-963-159-2349MACHINERY 
1585      Customer#000001585       kMDzNCvICH1j7sLp8g0CFB8c RUSSIA   5RUSSIA         EUROPE      32-746-744-8614AUTOMOBILE
1593      Customer#000001593       IAhXngV2KlKAbA           GERMANY  4GERMANY        EUROPE      17-236-514-5230AUTOMOBILE
1601      Customer#000001601       jiy,cXiM41u              INDONESIA5INDONESIA      ASIA        19-171-448-4279MACHINERY 
1609      Customer#000001609       YuJ96cGZd lzZ5jo0HI6     SAUDI ARA8SAUDI ARABIA   MIDDLE EAST 30-208-258-9271HOUSEHOLD 
1617      Customer#000001617       SfX,PYtDB3h2gdmDD1       BRAZIL   6BRAZIL         AMERICA     12-227-388-3472AUTOMOBILE
1625      Customer#000001625       qQ53P2z9Mno              INDONESIA1INDONESIA      ASIA        19-530-785-5099HOUSEHOLD 
1633      Customer#000001633       kO5Tq2Y W,               IRAQ     0IRAQ           MIDDLE EAST 21-922-325-5960MACHINERY 
1641      Customer#000001641       XT5DXFdG                 JAPAN    5JAPAN          ASIA        22-719-754-1770HOUSEHOLD 
1649      Customer#000001649       7n8CvxEE4tthklLyRNZIMQ   EGYPT    4EGYPT          MIDDLE EAST 14-423-415-8218BUILDING  
1657      Customer#000001657       MSSbpflkY                JAPAN    5JAPAN          ASIA        22-632-331-2627FURNITURE 
1665      Customer#000001665       26NoCK4dbtU7jmEhrXSuq9r  INDONESIA4INDONESIA      ASIA        19-497-579-7342HOUSEHOLD 
1673      Customer#000001673       uQi2r9akwS4              CANADA   8CANADA         AMERICA     13-869-508-7446HOUSEHOLD 
1681      Customer#000001681       QxfVn4                   MOZAMBIQU6MOZAMBIQUE     AFRICA      26-270-228-4226HOUSEHOLD 
1689      Customer#000001689       oYgoEWSydzBD81VB3q20DEx8 UNITED KI7UNITED KINGDOM EUROPE      33-806-508-7266MACHINERY 
1697      Customer#000001697       TQj18iiC1gzi             UNITED ST8UNITED STATES  AMERICA     34-597-359-6932FURNITURE 
1705      Customer#000001705       lvZ9qSNhUMiE0LTOzmU7     IRAQ     6IRAQ           MIDDLE EAST 21-797-850-9685AUTOMOBILE
1713      Customer#000001713       saqFezmCXyr2f2sGR3       MOROCCO  2MOROCCO        AFRICA      25-200-965-2630AUTOMOBILE
1721      Customer#000001721       qRNwOW8G9E5fOv           INDONESIA6INDONESIA      ASIA        19-350-176-4803FURNITURE 
1729      Customer#000001729       qc3FBSbJHHDIEkk          ETHIOPIA 1ETHIOPIA       AFRICA      15-560-653-1313AUTOMOBILE
1737      Customer#000001737       Mdj2vXS04lbiu1hlBPS      ETHIOPIA 1ETHIOPIA       AFRICA      15-694-131-9117MACHINERY 
1745      Customer#000001745       pAo6p8Q                  RUSSIA   7RUSSIA         EUROPE      32-921-832-5573BUILDING  
1753      Customer#000001753       XlL3uXUfcHDfQ 4un        IRAQ     2IRAQ           MIDDLE EAST 21-157-375-3007MACHINERY 
1761      Customer#000001761       ypll07IxByF9atO nGk      VIETNAM  8VIETNAM        ASIA        31-373-702-2826BUILDING  
1769      Customer#000001769       mrche55tm5KGuJb6lGW      IRAN     3IRAN           MIDDLE EAST 20-839-534-2601AUTOMOBILE
1777      Customer#000001777       54GpDEcWWI               UNITED ST8UNITED STATES  AMERICA     34-569-730-3992MACHINERY 
1785      Customer#000001785       nnCUQ01AgIgYBDsdHte      UNITED KI2UNITED KINGDOM EUROPE      33-551-659-5481FURNITURE 
1793      Customer#000001793       B13zlM7                  ROMANIA  2ROMANIA        EUROPE      29-921-365-8043HOUSEHOLD 
1801      Customer#000001801       8ZC3HFVDQGf23            CANADA   7CANADA         AMERICA     13-342-958-9054MACHINERY 
1809      Customer#000001809       GqhON8                   SAUDI ARA9SAUDI ARABIA   MIDDLE EAST 30-844-473-8756MACHINERY 
1817      Customer#000001817       ,pNXvEI4pkygH 4wjAy,h    GERMANY  5GERMANY        EUROPE      17-381-633-8415FURNITURE 
1825      Customer#000001825       ,E8l78G7k,u0eGXu         INDIA    2INDIA          ASIA        18-907-704-2779FURNITURE 
1833      Customer#000001833       KluDIF0rSvGj8mjB         CANADA   9CANADA         AMERICA     13-601-842-9003BUILDING  
1841      Customer#000001841       xJLMIr                   IRAN     5IRAN           MIDDLE EAST 20-543-366-1423BUILDING  
1849      Customer#000001849       vRc6mWLRoRf2ElU          RUSSIA   5RUSSIA         EUROPE      32-806-400-1029BUILDING  
1857      Customer#000001857       4BOgUDmgtH,RyMRb         JAPAN    3JAPAN          ASIA        22-100-316-8281HOUSEHOLD 
1865      Customer#000001865       0wViSaeE08WI0            KENYA    4KENYA          AFRICA      24-826-760-9253BUILDING  
1873      Customer#000001873       fvkv57 kYzsIjzXH9,cso    CANADA   4CANADA         AMERICA     13-486-634-5285BUILDING  
1881      Customer#000001881       eo82SRJdBgn25wzgDGaYE    CHINA    3CHINA          ASIA        28-218-889-1496HOUSEHOLD 
1889      Customer#000001889       am4T 9                   UNITED ST9UNITED STATES  AMERICA     34-676-296-1098FURNITURE 
1897      Customer#000001897       bizbUJTTu896QHClLsGI     INDIA    9INDIA          ASIA        18-302-214-2645BUILDING  
1905      Customer#000001905       P xPYefatHsYxGtFYbzin3G  ROMANIA  8ROMANIA        EUROPE      29-124-514-2666BUILDING  
1913      Customer#000001913       3Ya7Xzjzd,               INDIA    7INDIA          ASIA        18-242-372-6235BUILDING  
1921      Customer#000001921       9AE6JuRlhkABh1m8ABQD4    CHINA    7CHINA          ASIA        28-930-494-2643BUILDING  
1929      Customer#000001929       imHqCzuePilpP5h UA       SAUDI ARA7SAUDI ARABIA   MIDDLE EAST 30-426-743-6488AUTOMOBILE
1937      Customer#000001937       mXJvkSoAwp               CANADA   9CANADA         AMERICA     13-685-788-6065FURNITURE 
1945      Customer#000001945       ghlnLGw i,LV,MAuts8      IRAN     9IRAN           MIDDLE EAST 20-734-857-5058BUILDING  
1953      Customer#000001953       vd2GjYHxhaYoy            INDIA    2INDIA          ASIA        18-330-231-2830MACHINERY 
1961      Customer#000001961       j7 XCftSKhg              UNITED KI0UNITED KINGDOM EUROPE      33-614-865-4965MACHINERY 
1969      Customer#000001969       F7fcrNnwmFLr             IRAQ     4IRAQ           MIDDLE EAST 21-326-532-3902FURNITURE 
1977      Customer#000001977       TMAohw9bE                BRAZIL   1BRAZIL         AMERICA     12-588-995-6147BUILDING  
1985      Customer#000001985       Cy7CMgihIn6lemMjU2d3     ALGERIA  8ALGERIA        AFRICA      10-919-680-4001HOUSEHOLD 
1993      Customer#000001993       Yi8QRnZDlVqZfW8SHbw,d    ALGERIA  4ALGERIA        AFRICA      10-589-604-3676FURNITURE 
2001      Customer#000002001       jnLwwGVNX                PERU     8PERU           AMERICA     27-517-259-2241HOUSEHOLD 
2009      Customer#000002009       D0Rg4xaqnzoAZno2I5P0     UNITED ST0UNITED STATES  AMERICA     34-477-937-2842HOUSEHOLD 
2017      Customer#000002017       MwQVopgHV2Dk0X2Oj Tr,G97 RUSSIA   5RUSSIA         EUROPE      32-563-879-2835BUILDING  
2025      Customer#000002025       FoV6xWVt                 IRAQ     7IRAQ           MIDDLE EAST 21-717-279-4851BUILDING  
2033      Customer#000002033       gpWslauwMv,he62p         ETHIOPIA 2ETHIOPIA       AFRICA      15-754-845-8986MACHINERY 
2041      Customer#000002041       9ORh1wXGdTyCsfiROf       ROMANIA  7ROMANIA        EUROPE      29-754-252-2811AUTOMOBILE
2049      Customer#000002049       1TQACfp                  JAPAN    8JAPAN          ASIA        22-132-646-6498FURNITURE 
2057      Customer#000002057       R7DR,CQzyyloi            INDIA    6INDIA          ASIA        18-810-231-2931BUILDING  
2065      Customer#000002065       c0zlc1y2rJzgN            ETHIOPIA 9ETHIOPIA       AFRICA      15-483-130-6750AUTOMOBILE
2073      Customer#000002073       0pmUbPwWB1pPxmmv         ROMANIA  0ROMANIA        EUROPE      29-680-647-8083AUTOMOBILE
2081      Customer#000002081       vcghj85YO                GERMANY  1GERMANY        EUROPE      17-359-433-3500MACHINERY 
2089      Customer#000002089       wHDxS8RY                 KENYA    8KENYA          AFRICA      24-123-260-5771FURNITURE 
2097      Customer#000002097       I9zhrNU5BtAK5oZeqhcDHxWK CHINA    1CHINA          ASIA        28-270-848-5500HOUSEHOLD 
2105      Customer#000002105       lV6ZmDcZ8gcVz5 3H4pLPC   MOROCCO  1MOROCCO        AFRICA      25-347-226-6026BUILDING  
2113      Customer#000002113       gdn8b,Pk61mb 7 d         PERU     5PERU           AMERICA     27-503-619-5636AUTOMOBILE
2121      Customer#000002121       XNSMDXVwO0Cthao          JORDAN   1JORDAN         MIDDLE EAST 23-164-417-3796BUILDING  
2129      Customer#000002129       UpoLuf0PoOZ5C0U9beq      GERMANY  4GERMANY        EUROPE      17-608-847-6815BUILDING  
2137      Customer#000002137        WXfVRrW9Og anPT         VIETNAM  6VIETNAM        ASIA        31-130-219-2437MACHINERY 
2145      Customer#000002145       nkZL8pKgYPBScS3vtnkl2t   EGYPT    0EGYPT          MIDDLE EAST 14-442-948-8820MACHINERY 
2153      Customer#000002153       JLl30yUD7I,Dr5MO         KENYA    7KENYA          AFRICA      24-791-128-4355AUTOMOBILE
2161      Customer#000002161       nchKQGj2cgPrT            CHINA    6CHINA          ASIA        28-277-657-1991HOUSEHOLD 
2169      Customer#000002169       2j3iEk0Tv348oHCAwHORpZs  MOZAMBIQU3MOZAMBIQUE     AFRICA      26-117-536-2663HOUSEHOLD 
2177      Customer#000002177       CcOKLbO                  UNITED KI4UNITED KINGDOM EUROPE      33-324-242-1350BUILDING  
2185      Customer#000002185       u1h7nqpn7QexehxcxNWNd    UNITED ST8UNITED STATES  AMERICA     34-876-234-4906HOUSEHOLD 
2193      Customer#000002193       4uxmhs9qKMxSxWoF         IRAN     8IRAN           MIDDLE EAST 20-308-307-5910HOUSEHOLD 
2201      Customer#000002201       W0V pQO4,F               INDIA    0INDIA          ASIA        18-986-859-4073HOUSEHOLD 
2209      Customer#000002209       Tn6ocW5 Mc sbYGx5S8fTT7  ROMANIA  4ROMANIA        EUROPE      29-792-315-6281HOUSEHOLD 
2217      Customer#000002217       VEzeotEeQmVB             RUSSIA   5RUSSIA         EUROPE      32-754-347-3604HOUSEHOLD 
2225      Customer#000002225       d3BQGhugr7               ETHIOPIA 0ETHIOPIA       AFRICA      15-126-714-1961BUILDING  
2233      Customer#000002233       7ZMH2dvE                 IRAQ     4IRAQ           MIDDLE EAST 21-712-246-1725MACHINERY 
2241      Customer#000002241       LopDh86My7               CHINA    9CHINA          ASIA        28-334-439-5794BUILDING  
2249      Customer#000002249       tK9SzYJbvDExk2lzVaskFwh  UNITED ST1UNITED STATES  AMERICA     34-463-502-3414AUTOMOBILE
2257      Customer#000002257       BASWTncK2NpfmSHG3xMVv    ROMANIA  2ROMANIA        EUROPE      29-423-763-6221MACHINERY 
2265      Customer#000002265       FDYOwCIZZIPSV6R6xk       INDONESIA0INDONESIA      ASIA        19-457-219-9259FURNITURE 
2273      Customer#000002273       tlJ Spx34dK3PTzZM,J      BRAZIL   9BRAZIL         AMERICA     12-314-796-7041HOUSEHOLD 
2281      Customer#000002281       YqOHVkZ                  UNITED ST6UNITED STATES  AMERICA     34-610-615-6522BUILDING  
2289      Customer#000002289       L4I1xqmSz                MOZAMBIQU9MOZAMBIQUE     AFRICA      26-835-758-3163HOUSEHOLD 
2297      Customer#000002297       fwpam1FsK4KKpe8eI4bZvL   PERU     3PERU           AMERICA     27-330-292-7580AUTOMOBILE
2305      Customer#000002305       TCBczK JN25QJ nPtM5      INDONESIA6INDONESIA      ASIA        19-938-529-6493MACHINERY 
2313      Customer#000002313       iy,7GRR0Z,zr0j           CANADA   6CANADA         AMERICA     13-992-531-9057FURNITURE 
2321      Customer#000002321       2nRj1CdoD3W0sJ           KENYA    9KENYA          AFRICA      24-763-904-1114HOUSEHOLD 
2329      Customer#000002329       Sqva6 C21IHPwmHxBG5ckR   EGYPT    2EGYPT          MIDDLE EAST 14-353-773-3361BUILDING  
2337      Customer#000002337       w1KdhenKSI3QSR8qN7,1k72  CHINA    6CHINA          ASIA        28-264-473-7344HOUSEHOLD 
2345      Customer#000002345       kwbSpEifJE               SAUDI ARA7SAUDI ARABIA   MIDDLE EAST 30-292-982-3294BUILDING  
2353      Customer#000002353       nwWPZkNHRYv              ROMANIA  8ROMANIA        EUROPE      29-431-791-6743MACHINERY 
2361      Customer#000002361       z39vohb13qwfPEehSgm79    UNITED ST7UNITED STATES  AMERICA     34-484-711-5528HOUSEHOLD 
2369      Customer#000002369       lEmsKQCZZZedd            ETHIOPIA 3ETHIOPIA       AFRICA      15-719-461-3491MACHINERY 
2377      Customer#000002377       UGgB8MgNC                ALGERIA  3ALGERIA        AFRICA      10-400-250-4841HOUSEHOLD 
2385      Customer#000002385       2IH4OqazSma              ARGENTINA1ARGENTINA      AMERICA     11-489-865-9864AUTOMOBILE
2393      Customer#000002393       WpjuYNfXUwogh            GERMANY  5GERMANY        EUROPE      17-305-354-3066BUILDING  
2401      Customer#000002401       V6vZlQfbrcvYCBPx038      VIETNAM  5VIETNAM        ASIA        31-802-287-9199FURNITURE 
2409      Customer#000002409       aPN068SswVCa             IRAN     5IRAN           MIDDLE EAST 20-141-218-9381BUILDING  
2417      Customer#000002417       ETmLh7TN9NSpHfFUd        INDONESIA0INDONESIA      ASIA        19-115-656-5843MACHINERY 
2425      Customer#000002425       u81zU3MmZqTZDcIgVkui     JAPAN    1JAPAN          ASIA        22-412-348-3537AUTOMOBILE
2433      Customer#000002433       UYE7nTKVtrTcKJd0vs       GERMANY  6GERMANY        EUROPE      17-602-740-5779FURNITURE 
2441      Customer#000002441       WWKlEbhuveQRG5GqIa0y0    ARGENTINA7ARGENTINA      AMERICA     11-347-289-2547HOUSEHOLD 
2449      Customer#000002449       mZg7,B1 Vc               JORDAN   3JORDAN         MIDDLE EAST 23-682-493-1769HOUSEHOLD 
2457      Customer#000002457       BCrGZtEVx,qVp            UNITED ST3UNITED STATES  AMERICA     34-624-247-5246MACHINERY 
2465      Customer#000002465       3WEPR0ZgIYjI93Vocm       IRAN     1IRAN           MIDDLE EAST 20-999-550-4752MACHINERY 
2473      Customer#000002473       2yKzgBme                 VIETNAM  7VIETNAM        ASIA        31-682-965-4025AUTOMOBILE
2481      Customer#000002481       JEbG,4GR0A5LAl3BPNHqEqg  FRANCE   8FRANCE         EUROPE      16-636-456-5275BUILDING  
2489      Customer#000002489       VMPSgni                  FRANCE   0FRANCE         EUROPE      16-222-447-9854FURNITURE 
2497      Customer#000002497       3GySpjfjN8klkqh          JAPAN    2JAPAN          ASIA        22-675-624-6093HOUSEHOLD 
2505      Customer#000002505       7Lvuk, h k,,342lVlR      INDIA    0INDIA          ASIA        18-975-136-7364FURNITURE 
2513      Customer#000002513       tHPk4gU3qTT5             CANADA   9CANADA         AMERICA     13-266-254-1540HOUSEHOLD 
2521      Customer#000002521       E230wmrEuH439h gj        MOROCCO  2MOROCCO        AFRICA      25-806-525-7862AUTOMOBILE
2529      Customer#000002529       AURPPDcaY U              GERMANY  9GERMANY        EUROPE      17-696-133-6918MACHINERY 
2537      Customer#000002537       CvhlupN0A ,aLMO1aix      IRAN     1IRAN           MIDDLE EAST 20-830-192-3773BUILDING  
2545      Customer#000002545       dP8XEGk4KKy              ARGENTINA4ARGENTINA      AMERICA     11-805-544-8732AUTOMOBILE
2553      Customer#000002553       bQ1NEQFKZg               PERU     9PERU           AMERICA     27-228-924-5527AUTOMOBILE
2561      Customer#000002561       25,4uDa1hK3              MOZAMBIQU5MOZAMBIQUE     AFRICA      26-786-871-6734MACHINERY 
2569      Customer#000002569       KxPyeTk3gqHLtpIm9q       PERU     0PERU           AMERICA     27-775-899-2975HOUSEHOLD 
2577      Customer#000002577       ,QAG 3T0vOSZWu           VIETNAM  8VIETNAM        ASIA        31-845-267-2492MACHINERY 
2585      Customer#000002585       zKObO3Ra1y1dP6xf25S4PSb  CANADA   0CANADA         AMERICA     13-813-568-6798AUTOMOBILE
2593      Customer#000002593       ,Pdo7fojnDmnZx,th 0O     RUSSIA   3RUSSIA         EUROPE      32-206-186-4361HOUSEHOLD 
2601      Customer#000002601       esRNpaiGRT9JFw           EGYPT    6EGYPT          MIDDLE EAST 14-105-821-2051FURNITURE 
2609      Customer#000002609       2CK,RLGNKt,3ZBM          CANADA   1CANADA         AMERICA     13-703-500-6737BUILDING  
2617      Customer#000002617       budGKeUIu                UNITED ST9UNITED STATES  AMERICA     34-799-416-4130FURNITURE 
2625      Customer#000002625       gpyMkMsh,s20o            IRAQ     5IRAQ           MIDDLE EAST 21-655-913-4127BUILDING  
2633      Customer#000002633       k2KcCkv7k1BXIV9V         ETHIOPIA 3ETHIOPIA       AFRICA      15-698-163-3385AUTOMOBILE
2641      Customer#000002641       ltxaupLrotVFYwW          SAUDI ARA0SAUDI ARABIA   MIDDLE EAST 30-545-104-8298HOUSEHOLD 
2649      Customer#000002649       bNp9Rcf4ivdlKm165ACV     MOROCCO  5MOROCCO        AFRICA      25-756-911-3511HOUSEHOLD 
2657      Customer#000002657       Vmwi7IxrKcY3HAW8,1       IRAN     7IRAN           MIDDLE EAST 20-568-893-9256HOUSEHOLD 
2665      Customer#000002665       rzblkTI1d6gjNY6Lpr       MOZAMBIQU7MOZAMBIQUE     AFRICA      26-527-492-5983FURNITURE 
2673      Customer#000002673       rx,vjau                  KENYA    4KENYA          AFRICA      24-823-941-9954BUILDING  
2681      Customer#000002681       ,JolZG                   IRAQ     0IRAQ           MIDDLE EAST 21-502-864-3183MACHINERY 
2689      Customer#000002689       ,o9yAOeYfFa3Ro4OXPp      CHINA    9CHINA          ASIA        28-999-363-7145HOUSEHOLD 
2697      Customer#000002697       Ae97pu3g8zLXWKb          MOZAMBIQU1MOZAMBIQUE     AFRICA      26-825-492-4075AUTOMOBILE
2705      Customer#000002705       N9nowCD8DtYftOmn456      ROMANIA  1ROMANIA        EUROPE      29-549-278-7929HOUSEHOLD 
2713      Customer#000002713       XMC,CkiFCPRFJhrA,ORclxU  ARGENTINA3ARGENTINA      AMERICA     11-686-189-8798AUTOMOBILE
2721      Customer#000002721       QqIL6Tuu                 IRAN     5IRAN           MIDDLE EAST 20-310-182-3467FURNITURE 
2729      Customer#000002729       hYak757t92SKE            UNITED ST4UNITED STATES  AMERICA     34-802-559-4911AUTOMOBILE
2737      Customer#000002737       hL js9SYoo               INDONESIA8INDONESIA      ASIA        19-211-993-1835HOUSEHOLD 
2745      Customer#000002745       NW7hADgz                 FRANCE   2FRANCE         EUROPE      16-444-509-5801MACHINERY 
2753      Customer#000002753       tZrzXCF                  IRAN     6IRAN           MIDDLE EAST 20-983-344-8881FURNITURE 
2761      Customer#000002761       XI6oKu59c                ALGERIA  4ALGERIA        AFRICA      10-772-239-1036HOUSEHOLD 
2769      Customer#000002769       4aF 14tPV15              UNITED ST1UNITED STATES  AMERICA     34-795-894-7580BUILDING  
2777      Customer#000002777       OQOPl dOpvMy             PERU     1PERU           AMERICA     27-883-669-5743BUILDING  
2785      Customer#000002785       aQpTLNNj                 ETHIOPIA 9ETHIOPIA       AFRICA      15-642-347-3023HOUSEHOLD 
2793      Customer#000002793       5PwXVH2cdELZil6Y         GERMANY  1GERMANY        EUROPE      17-943-730-9065BUILDING  
2801      Customer#000002801       3HRNREMBS l              JORDAN   2JORDAN         MIDDLE EAST 23-101-594-8402FURNITURE 
2809      Customer#000002809       c2mYGULl                 KENYA    2KENYA          AFRICA      24-678-948-4261HOUSEHOLD 
2817      Customer#000002817       mOvqMcQx                 UNITED ST3UNITED STATES  AMERICA     34-391-287-7831BUILDING  
2825      Customer#000002825       1hzMbbK5 1kJyuHRqIL8iBwC IRAN     5IRAN           MIDDLE EAST 20-658-343-5478BUILDING  
2833      Customer#000002833       2YIant4QE,G              FRANCE   6FRANCE         EUROPE      16-253-853-1121HOUSEHOLD 
2841      Customer#000002841       uI9dks72M9OqIyG7tn       INDIA    4INDIA          ASIA        18-319-658-4542AUTOMOBILE
2849      Customer#000002849       ihC1AljDKaz2F0ywP,vqA    RUSSIA   7RUSSIA         EUROPE      32-112-461-9008MACHINERY 
2857      Customer#000002857       r10vvLmPZ5ew0            MOROCCO  3MOROCCO        AFRICA      25-721-320-9880AUTOMOBILE
2865      Customer#000002865       zcPVjBt7xVCnFJeHtsT,haRV INDIA    3INDIA          ASIA        18-953-570-6642FURNITURE 
2873      Customer#000002873       qryQy1da pMN             ETHIOPIA 6ETHIOPIA       AFRICA      15-156-797-5043BUILDING  
2881      Customer#000002881       ly4,FHdi0pPd7Kpc4W       GERMANY  9GERMANY        EUROPE      17-428-365-1358AUTOMOBILE
2889      Customer#000002889       vWrK6rkwfjEyhL           PERU     2PERU           AMERICA     27-425-482-6450BUILDING  
2897      Customer#000002897       78zjEJSAIcx 7            UNITED KI2UNITED KINGDOM EUROPE      33-799-952-5803FURNITURE 
2905      Customer#000002905       hOuKNSmB1jgEW,8WSb8di    JAPAN    9JAPAN          ASIA        22-420-491-9743HOUSEHOLD 
2913      Customer#000002913       s1atx6uXNKro2BGjIoWh     MOZAMBIQU0MOZAMBIQUE     AFRICA      26-220-686-6756HOUSEHOLD 
2921      Customer#000002921       qkwizYXdAgB              ALGERIA  8ALGERIA        AFRICA      10-304-236-1630MACHINERY 
2929      Customer#000002929       rEds8bXP3Em              JAPAN    5JAPAN          ASIA        22-383-782-7162FURNITURE 
2937      Customer#000002937       xZ5,yBgzVBpPn1ql3Zl      BRAZIL   3BRAZIL         AMERICA     12-922-953-7296FURNITURE 
2945      Customer#000002945       nxnPjo4TctfO3owhC2eefWj  FRANCE   4FRANCE         EUROPE      16-850-532-5779FURNITURE 
2953      Customer#000002953       CbxbH76KR4X              ALGERIA  6ALGERIA        AFRICA      10-359-805-7425HOUSEHOLD 
2961      Customer#000002961       3fV6Vsd                  ALGERIA  3ALGERIA        AFRICA      10-838-740-3317MACHINERY 
2969      Customer#000002969       ,FGoslYzPlh,X            INDONESIA8INDONESIA      ASIA        19-918-518-7213HOUSEHOLD 
2977      Customer#000002977       GvuvKmOe1Ov              UNITED KI1UNITED KINGDOM EUROPE      33-747-264-5312FURNITURE 
2985      Customer#000002985       Vhy7Q20cWdczo            BRAZIL   9BRAZIL         AMERICA     12-292-523-6853AUTOMOBILE
2993      Customer#000002993       i3UWce3                  KENYA    8KENYA          AFRICA      24-981-835-9369BUILDING  
3001      Customer#000003001       h6YZPM3Tu0zRyjHXTxA0     INDONESIA7INDONESIA      ASIA        19-636-962-8894HOUSEHOLD 
3009      Customer#000003009       USj5S94TA                FRANCE   3FRANCE         EUROPE      16-971-575-8988FURNITURE 
3017      Customer#000003017       YxHV3Vu6                 VIETNAM  7VIETNAM        ASIA        31-795-544-8305HOUSEHOLD 
3025      Customer#000003025       Q7Ev,ZF4DecnHyYZ7        SAUDI ARA3SAUDI ARABIA   MIDDLE EAST 30-339-455-9207MACHINERY 
3033      Customer#000003033       8gYgdOXj5wjL,Ui4         ARGENTINA5ARGENTINA      AMERICA     11-364-577-9698FURNITURE 
3041      Customer#000003041       9lZCqw                   MOZAMBIQU2MOZAMBIQUE     AFRICA      26-852-849-5584HOUSEHOLD 
3049      Customer#000003049       Zs2eSu83B7               RUSSIA   7RUSSIA         EUROPE      32-654-275-2484FURNITURE 
3057      Customer#000003057       A5vVcsbJUiz9XdPSFHJTj    IRAN     3IRAN           MIDDLE EAST 20-223-944-2924HOUSEHOLD 
3065      Customer#000003065       Ho8L3ef                  ROMANIA  5ROMANIA        EUROPE      29-190-831-3263MACHINERY 
3073      Customer#000003073       Wayt5 guTeTQb            ARGENTINA9ARGENTINA      AMERICA     11-567-290-3531BUILDING  
3081      Customer#000003081       nZSGYZ1nT                PERU     8PERU           AMERICA     27-637-894-8032AUTOMOBILE
3089      Customer#000003089       alk9hZkZUAgLO            MOROCCO  2MOROCCO        AFRICA      25-535-900-2106MACHINERY 
3097      Customer#000003097       mr31Jx91Gml DVV4UpO      ALGERIA  2ALGERIA        AFRICA      10-948-821-8208FURNITURE 
3105      Customer#000003105       n5sSM2Z2L                CHINA    2CHINA          ASIA        28-236-265-9150FURNITURE 
3113      Customer#000003113       VTP3hLz8R3yjw1YD         GERMANY  9GERMANY        EUROPE      17-869-494-8178AUTOMOBILE
3121      Customer#000003121       6NZ71n1hTmFFVYhatmUq,w   SAUDI ARA7SAUDI ARABIA   MIDDLE EAST 30-682-205-2325HOUSEHOLD 
3129      Customer#000003129       6aTi6iS                  RUSSIA   1RUSSIA         EUROPE      32-643-621-4125MACHINERY 
3137      Customer#000003137       JIePySb542tpGIYH6        IRAQ     9IRAQ           MIDDLE EAST 21-538-796-9603BUILDING  
3145      Customer#000003145       ,AyVKpy iRl,             CANADA   0CANADA         AMERICA     13-203-605-2260MACHINERY 
3153      Customer#000003153       ivO7,bJryqSYTt8i1Uqx     GERMANY  7GERMANY        EUROPE      17-448-248-6354HOUSEHOLD 
3161      Customer#000003161       QuDuSQuSoda5Yh           ARGENTINA2ARGENTINA      AMERICA     11-577-166-7296HOUSEHOLD 
3169      Customer#000003169       gIuBP4FV9                ALGERIA  1ALGERIA        AFRICA      10-890-442-3306BUILDING  
3177      Customer#000003177       E1hsQlw5WhhcGyOPF        VIETNAM  0VIETNAM        ASIA        31-902-691-4603BUILDING  
3185      Customer#000003185       DsY0KyEC8ACDa VkbH Kwfed GERMANY  5GERMANY        EUROPE      17-823-631-4546AUTOMOBILE
3193      Customer#000003193       kXHv0VAgj5WEgF           ETHIOPIA 7ETHIOPIA       AFRICA      15-187-508-3927HOUSEHOLD 
3201      Customer#000003201       yU7H8XqheWMTT0xjc2rLlJD  RUSSIA   1RUSSIA         EUROPE      32-811-995-2521FURNITURE 
3209      Customer#000003209       pdT5csN                  FRANCE   1FRANCE         EUROPE      16-181-897-6960FURNITURE 
3217      Customer#000003217       KeCRexLaTClQ7            PERU     4PERU           AMERICA     27-912-254-5197MACHINERY 
3225      Customer#000003225       0trS6OQqa68Fxeq5aVDs     PERU     0PERU           AMERICA     27-232-765-8648HOUSEHOLD 
3233      Customer#000003233       3CpWFCps2llQ5            CHINA    4CHINA          ASIA        28-860-747-3162FURNITURE 
3241      Customer#000003241       psHipQpilXuyVjVDDMM3yx   BRAZIL   4BRAZIL         AMERICA     12-673-734-5402FURNITURE 
3249      Customer#000003249       lmr,AsK3COF8u7m          UNITED ST3UNITED STATES  AMERICA     34-940-710-9711HOUSEHOLD 
3257      Customer#000003257       yxxQFkXGRd1ZCdkvrbW5     CANADA   4CANADA         AMERICA     13-920-119-7688BUILDING  
3265      Customer#000003265       db1FCHdyqbDJPeAuj        UNITED KI6UNITED KINGDOM EUROPE      33-827-593-4471BUILDING  
3273      Customer#000003273       odzvKMScn6               PERU     5PERU           AMERICA     27-292-565-6014BUILDING  
3281      Customer#000003281       QrnqDC7a0                IRAQ     6IRAQ           MIDDLE EAST 21-746-950-2567AUTOMOBILE
3289      Customer#000003289       cQrexTvEJlqkLj           ETHIOPIA 0ETHIOPIA       AFRICA      15-613-258-3645BUILDING  
3297      Customer#000003297       jzzew6e7                 JAPAN    6JAPAN          ASIA        22-291-511-7945FURNITURE 
3305      Customer#000003305       BvLVnDuQk77B             PERU     8PERU           AMERICA     27-384-630-3702AUTOMOBILE
3313      Customer#000003313       n8unRYTyEd               EGYPT    1EGYPT          MIDDLE EAST 14-158-100-6664HOUSEHOLD 
3321      Customer#000003321       YmyCjP                   MOROCCO  5MOROCCO        AFRICA      25-520-914-5832BUILDING  
3329      Customer#000003329       rk7YU4N3dwVOcs5dchDLpa   JORDAN   0JORDAN         MIDDLE EAST 23-797-646-2767AUTOMOBILE
3337      Customer#000003337       S8UdyrB4oJ0l3wO4mY9B8X   ROMANIA  2ROMANIA        EUROPE      29-308-119-2940BUILDING  
3345      Customer#000003345       AjMkw obwJ3Nud4bSBeL     SAUDI ARA9SAUDI ARABIA   MIDDLE EAST 30-933-198-1862BUILDING  
3353      Customer#000003353       DJRs4Vca                 INDONESIA3INDONESIA      ASIA        19-643-321-1448MACHINERY 
3361      Customer#000003361       NpUZDgFwktC8RcQk         ALGERIA  1ALGERIA        AFRICA      10-348-343-2526HOUSEHOLD 
3369      Customer#000003369       q,E S O9fWTA             SAUDI ARA6SAUDI ARABIA   MIDDLE EAST 30-373-838-1281AUTOMOBILE
3377      Customer#000003377       rGb5j0wP                 KENYA    7KENYA          AFRICA      24-827-530-8134HOUSEHOLD 
3385      Customer#000003385       0QLkO0UIyhHfi1PfjluYZ    BRAZIL   1BRAZIL         AMERICA     12-241-482-8795HOUSEHOLD 
3393      Customer#000003393       7jpGD8wB0sK7WZ           PERU     9PERU           AMERICA     27-642-629-4632AUTOMOBILE
3401      Customer#000003401       0r8rCiCC060MVycsdoRArZK  UNITED KI6UNITED KINGDOM EUROPE      33-719-509-7518BUILDING  
3409      Customer#000003409       lWaDXU0yd                CANADA   8CANADA         AMERICA     13-493-376-9430BUILDING  
3417      Customer#000003417       qqBfwpttLw9gg8mBlYzh     CHINA    6CHINA          ASIA        28-985-326-9151BUILDING  
3425      Customer#000003425       rO411gRpk1               SAUDI ARA3SAUDI ARABIA   MIDDLE EAST 30-716-811-6179FURNITURE 
3433      Customer#000003433       W,,YjD4FMZ uy            UNITED ST4UNITED STATES  AMERICA     34-947-692-6837FURNITURE 
3441      Customer#000003441       BB15esrVC9xBUwgp,IRKP    IRAN     7IRAN           MIDDLE EAST 20-431-695-1127AUTOMOBILE
3449      Customer#000003449       S8eDzkESonTK0Y3XvqfblpS  VIETNAM  0VIETNAM        ASIA        31-540-620-7096MACHINERY 
3457      Customer#000003457       22CoVqc4NkTziGC          ALGERIA  6ALGERIA        AFRICA      10-918-520-3235FURNITURE 
3465      Customer#000003465       lc4TD4                   IRAN     1IRAN           MIDDLE EAST 20-564-660-4236MACHINERY 
3473      Customer#000003473       0yxFZZCAbhrCv            ETHIOPIA 2ETHIOPIA       AFRICA      15-735-331-3664FURNITURE 
3481      Customer#000003481       dFPrFHfR                 RUSSIA   3RUSSIA         EUROPE      32-154-277-4226FURNITURE 
3489      Customer#000003489       V1tbU3                   KENYA    3KENYA          AFRICA      24-338-836-3540AUTOMOBILE
3497      Customer#000003497       smwmsX9z9qCq3K12TZEG     IRAN     7IRAN           MIDDLE EAST 20-680-657-1959MACHINERY 
3505      Customer#000003505       ehGdpZzQtmhm             EGYPT    5EGYPT          MIDDLE EAST 14-999-404-9770AUTOMOBILE
3513      Customer#000003513       SjOgNmPzi                GERMANY  0GERMANY        EUROPE      17-610-169-8350FURNITURE 
3521      Customer#000003521       Ak5lJjsuDyl              SAUDI ARA0SAUDI ARABIA   MIDDLE EAST 30-467-706-6931HOUSEHOLD 
3529      Customer#000003529       yfR5hv9CCm0nFpXkRW2SQGON MOROCCO  4MOROCCO        AFRICA      25-862-623-6481AUTOMOBILE
3537      Customer#000003537       bv5s0k,V fzR4,DPJdjcDKZV INDONESIA5INDONESIA      ASIA        19-478-806-5930FURNITURE 
3545      Customer#000003545       Z9JU7I5V77sPGCI4Xk g     ALGERIA  8ALGERIA        AFRICA      10-754-777-9610AUTOMOBILE
3553      Customer#000003553       acPrGCDxBlv,Ga           KENYA    9KENYA          AFRICA      24-147-229-3946HOUSEHOLD 
3561      Customer#000003561       p2nHGA9                  IRAQ     2IRAQ           MIDDLE EAST 21-547-981-1503HOUSEHOLD 
3569      Customer#000003569       KlBp1VAhzEjPTwJq2G       CANADA   9CANADA         AMERICA     13-219-112-7213AUTOMOBILE
3577      Customer#000003577       UoW3oOe4xKhh9uk4JjkTo9   ALGERIA  2ALGERIA        AFRICA      10-103-894-3616HOUSEHOLD 
3585      Customer#000003585       1mWvxKufp7xkeLQOdG0      UNITED KI0UNITED KINGDOM EUROPE      33-512-434-1900BUILDING  
3593      Customer#000003593       hoiqm33xgh               PERU     4PERU           AMERICA     27-104-256-8420FURNITURE 
3601      Customer#000003601       OqXvLiCwOknf             MOZAMBIQU9MOZAMBIQUE     AFRICA      26-526-248-3190MACHINERY 
3609      Customer#000003609       NhcYuoqeznE1KtztWm       MOROCCO  6MOROCCO        AFRICA      25-834-742-4794MACHINERY 
3617      Customer#000003617       crK50UA8Ez xlf7          EGYPT    9EGYPT          MIDDLE EAST 14-728-242-6235FURNITURE 
3625      Customer#000003625       y3ptAivIu9PX             PERU     8PERU           AMERICA     27-706-769-2428AUTOMOBILE
3633      Customer#000003633       vjE,BBZVS                GERMANY  2GERMANY        EUROPE      17-308-636-9449BUILDING  
3641      Customer#000003641       ZMRUVl6XwK,              KENYA    9KENYA          AFRICA      24-698-253-5916FURNITURE 
3649      Customer#000003649       Jo4GqtbRc E              IRAN     8IRAN           MIDDLE EAST 20-279-668-6374FURNITURE 
3657      Customer#000003657       odxfUu8YpqSIS4mdID3p2xQ  CANADA   0CANADA         AMERICA     13-316-951-2225MACHINERY 
3665      Customer#000003665       kdt5qqMhUe               IRAN     9IRAN           MIDDLE EAST 20-591-230-3771MACHINERY 
3673      Customer#000003673       D41MRshAg2qh4HgvuOl      BRAZIL   6BRAZIL         AMERICA     12-878-838-4683FURNITURE 
3681      Customer#000003681       MFJhh1                   JORDAN   4JORDAN         MIDDLE EAST 23-107-995-2040HOUSEHOLD 
3689      Customer#000003689       ,ZB9qs1                  INDIA    8INDIA          ASIA        18-141-814-5460BUILDING  
3697      Customer#000003697       Q1zDmsLO6NhEN1qauKq      INDIA    7INDIA          ASIA        18-479-911-4504FURNITURE 
3705      Customer#000003705       cZEilIE                  SAUDI ARA8SAUDI ARABIA   MIDDLE EAST 30-645-698-9068FURNITURE 
3713      Customer#000003713       PJLeoO4ivcq3D3G          MOZAMBIQU1MOZAMBIQUE     AFRICA      26-610-118-4892BUILDING  
3721      Customer#000003721       egrPxDe,wez1             JORDAN   5JORDAN         MIDDLE EAST 23-528-253-7883HOUSEHOLD 
3729      Customer#000003729       0Z,kD9ZKFy1J r8kjH71U    IRAQ     5IRAQ           MIDDLE EAST 21-794-867-3653MACHINERY 
3737      Customer#000003737       pRlGKLYYRuh4yaQQNbT      ALGERIA  4ALGERIA        AFRICA      10-847-807-7957FURNITURE 
3745      Customer#000003745       l9zxjgb                  BRAZIL   7BRAZIL         AMERICA     12-954-454-5148MACHINERY 
3753      Customer#000003753       ,R9a9AB2z9Rev0hdzK9n     RUSSIA   6RUSSIA         EUROPE      32-176-119-3385MACHINERY 
3761      Customer#000003761       Kd67jgi                  INDIA    1INDIA          ASIA        18-429-222-6763MACHINERY 
3769      Customer#000003769       8WUxQqslNqdwjtowxFHSb61  JAPAN    5JAPAN          ASIA        22-474-407-3832AUTOMOBILE
3777      Customer#000003777       hIFPywfkWP               IRAQ     4IRAQ           MIDDLE EAST 21-927-569-3783MACHINERY 
3785      Customer#000003785       eutTQNpF3ZcimPO          JAPAN    7JAPAN          ASIA        22-797-127-6270HOUSEHOLD 
3793      Customer#000003793       xb45YPYEcYYs             MOZAMBIQU4MOZAMBIQUE     AFRICA      26-347-361-5635AUTOMOBILE
3801      Customer#000003801       CUO5gve                  MOZAMBIQU5MOZAMBIQUE     AFRICA      26-776-612-4542BUILDING  
3809      Customer#000003809       V0c2Kzs1xCOQ             UNITED KI8UNITED KINGDOM EUROPE      33-117-252-1452BUILDING  
3817      Customer#000003817       j4BW LuK9ux6MjgZuy3S9m   MOZAMBIQU8MOZAMBIQUE     AFRICA      26-252-208-9315AUTOMOBILE
3825      Customer#000003825       LEtrsiOY7L6ozRW          KENYA    1KENYA          AFRICA      24-899-320-9569HOUSEHOLD 
3833      Customer#000003833       GwX8VcLCa3xy             ETHIOPIA 9ETHIOPIA       AFRICA      15-645-957-6824AUTOMOBILE
3841      Customer#000003841       KQMmuD4lVK40KOZ0oUW3NH   CHINA    3CHINA          ASIA        28-120-113-5031HOUSEHOLD 
3849      Customer#000003849       j3qUBN                   ROMANIA  9ROMANIA        EUROPE      29-967-716-8294HOUSEHOLD 
3857      Customer#000003857       AbKIv1s61 Vd 1tjKXd6KH   JAPAN    9JAPAN          ASIA        22-327-152-9299HOUSEHOLD 
3865      Customer#000003865       bVjIVSjh7h2INicRV        INDONESIA0INDONESIA      ASIA        19-383-570-3290FURNITURE 
3873      Customer#000003873        8 S6rI                  INDIA    6INDIA          ASIA        18-896-300-2456FURNITURE 
3881      Customer#000003881       vwRNpxub8UJqTYi          INDONESIA7INDONESIA      ASIA        19-816-736-4943MACHINERY 
3889      Customer#000003889       wYotB7FY5LlLV2JZQDj07    MOROCCO  9MOROCCO        AFRICA      25-881-469-4350AUTOMOBILE
3897      Customer#000003897       A0KGDq1Z5QuXy            SAUDI ARA5SAUDI ARABIA   MIDDLE EAST 30-885-242-3574HOUSEHOLD 
3905      Customer#000003905       6lwb4Xv                  MOZAMBIQU8MOZAMBIQUE     AFRICA      26-964-191-2611BUILDING  
3913      Customer#000003913       FWEW,afK0bpu             SAUDI ARA5SAUDI ARABIA   MIDDLE EAST 30-113-314-2869AUTOMOBILE
3921      Customer#000003921       bI3aWum9jelVEX5pB        INDONESIA1INDONESIA      ASIA        19-928-792-6676BUILDING  
3929      Customer#000003929       mOnJFMFGHSylE,RYYi04N    ARGENTINA2ARGENTINA      AMERICA     11-249-868-4959HOUSEHOLD 
3937      Customer#000003937       8lVpIK11AKF              MOROCCO  2MOROCCO        AFRICA      25-489-149-8066HOUSEHOLD 
3945      Customer#000003945       eE,hmE2uwfwU5MnZK        ARGENTINA4ARGENTINA      AMERICA     11-950-407-6519AUTOMOBILE
3953      Customer#000003953       7tFE3aqZbN               GERMANY  8GERMANY        EUROPE      17-544-569-2033FURNITURE 
3961      Customer#000003961       d7QZDq                   ARGENTINA9ARGENTINA      AMERICA     11-542-485-9352HOUSEHOLD 
3969      Customer#000003969       L,I9rFa,dlQ367cR         ETHIOPIA 2ETHIOPIA       AFRICA      15-815-159-5126HOUSEHOLD 
3977      Customer#000003977       VxpMd0sjCCGerx25         IRAQ     4IRAQ           MIDDLE EAST 21-986-337-5392AUTOMOBILE
3985      Customer#000003985       L6PJ7xLkQmnidud3GcOS1    KENYA    7KENYA          AFRICA      24-589-530-8546HOUSEHOLD 
3993      Customer#000003993       E5O45Ola4K2uvS           RUSSIA   7RUSSIA         EUROPE      32-675-736-5558MACHINERY 
4001      Customer#000004001       JPy vdm,P                ARGENTINA4ARGENTINA      AMERICA     11-261-992-2375AUTOMOBILE
4009      Customer#000004009        F929bz6                 GERMANY  8GERMANY        EUROPE      17-110-713-2768HOUSEHOLD 
4017      Customer#000004017        TXIXeKEf7OdGpvV5MzfF    ETHIOPIA 4ETHIOPIA       AFRICA      15-531-554-8603FURNITURE 
4025      Customer#000004025       w LYJgEZtsSv1J4VFjbi     FRANCE   1FRANCE         EUROPE      16-117-748-3096BUILDING  
4033      Customer#000004033       ZmkpTc                   JAPAN    7JAPAN          ASIA        22-847-181-8305BUILDING  
4041      Customer#000004041       4Xy5xJW7qS7ohpIOHf       ROMANIA  2ROMANIA        EUROPE      29-203-587-6270MACHINERY 
4049      Customer#000004049       p7TGJrfqt40Z3m7MYcHN     ROMANIA  1ROMANIA        EUROPE      29-397-933-7575AUTOMOBILE
4057      Customer#000004057       p8pL mAEn                UNITED ST9UNITED STATES  AMERICA     34-327-386-4227MACHINERY 
4065      Customer#000004065       5QVDdr95MPrVHZ44cu4      JORDAN   4JORDAN         MIDDLE EAST 23-995-730-4955BUILDING  
4073      Customer#000004073       MVHdckHT                 ARGENTINA8ARGENTINA      AMERICA     11-969-499-3162MACHINERY 
4081      Customer#000004081       Arrm QoBYY               EGYPT    5EGYPT          MIDDLE EAST 14-736-324-2089BUILDING  
4089      Customer#000004089       YU3HnbH QOtw9            MOROCCO  7MOROCCO        AFRICA      25-175-889-4309AUTOMOBILE
4097      Customer#000004097       d qZ7,unNnUv8QGn8JaeNEj  CANADA   9CANADA         AMERICA     13-502-374-7634BUILDING  
4105      Customer#000004105       spxKnbNrG0O ideXBW84to   MOZAMBIQU6MOZAMBIQUE     AFRICA      26-526-701-1068HOUSEHOLD 
4113      Customer#000004113       yfR6tQuAeM0i2lIpk2aKHeT  ETHIOPIA 8ETHIOPIA       AFRICA      15-656-320-3127FURNITURE 
4121      Customer#000004121       yS23L0x4BK3yOGRrGKEEke   UNITED KI7UNITED KINGDOM EUROPE      33-427-951-2082BUILDING  
4129      Customer#000004129        yPIhHUs0ouXIAusyv434Fa  CANADA   0CANADA         AMERICA     13-297-259-7461FURNITURE 
4137      Customer#000004137       yUShmQRxJKCO2YzfdZG      MOROCCO  0MOROCCO        AFRICA      25-972-192-6467MACHINERY 
4145      Customer#000004145       g6Ko0ghgTvzWuTIb,B       IRAQ     2IRAQ           MIDDLE EAST 21-181-967-3300BUILDING  
4153      Customer#000004153       5Xd5J,spf                FRANCE   7FRANCE         EUROPE      16-944-763-1784BUILDING  
4161      Customer#000004161       YY6nmL8                  GERMANY  5GERMANY        EUROPE      17-723-834-8324FURNITURE 
4169      Customer#000004169       nTrQNI1GHJXHbn           ROMANIA  6ROMANIA        EUROPE      29-953-529-8068MACHINERY 
4177      Customer#000004177       N0F51q                   UNITED KI5UNITED KINGDOM EUROPE      33-638-267-2444BUILDING  
4185      Customer#000004185       NSddHT2OQ2m,OKYOA,Y      ARGENTINA0ARGENTINA      AMERICA     11-297-156-6248FURNITURE 
4193      Customer#000004193        J13fxbEVzcackYPf751     JORDAN   8JORDAN         MIDDLE EAST 23-299-942-2159FURNITURE 
4201      Customer#000004201       fqEe7ox sn8fQVffrlNye4y  IRAQ     2IRAQ           MIDDLE EAST 21-959-154-2892FURNITURE 
4209      Customer#000004209       lV,jxzuGPaX8v5           ROMANIA  2ROMANIA        EUROPE      29-934-456-7632MACHINERY 
4217      Customer#000004217       Mi8q,mYQSBSD             SAUDI ARA9SAUDI ARABIA   MIDDLE EAST 30-109-797-6849AUTOMOBILE
4225      Customer#000004225       uBv YjbKBVxv,J           ARGENTINA5ARGENTINA      AMERICA     11-455-163-4831AUTOMOBILE
4233      Customer#000004233       Fot HsiOwqSBGXrgDBvs     MOROCCO  4MOROCCO        AFRICA      25-879-584-9554BUILDING  
4241      Customer#000004241       PIXLrnDxojchFCdFW3dFA    PERU     8PERU           AMERICA     27-781-894-6330BUILDING  
4249      Customer#000004249       w4AXeTa,F6e,XN2GPUIi0D   JAPAN    6JAPAN          ASIA        22-306-449-2504BUILDING  
4257      Customer#000004257       I8sfcXO                  INDIA    0INDIA          ASIA        18-813-469-1937HOUSEHOLD 
4265      Customer#000004265        MmkXptM                 UNITED KI3UNITED KINGDOM EUROPE      33-549-207-8093MACHINERY 
4273      Customer#000004273       rg8CFiOd                 IRAQ     0IRAQ           MIDDLE EAST 21-341-278-3376FURNITURE 
4281      Customer#000004281       V3l ,uOPmtV0Q4li         BRAZIL   6BRAZIL         AMERICA     12-610-262-3751MACHINERY 
4289      Customer#000004289       QjDGv01                  ROMANIA  8ROMANIA        EUROPE      29-701-262-6773MACHINERY 
4297      Customer#000004297       qb8au7gDEQ39u97UVla8csq2 MOZAMBIQU2MOZAMBIQUE     AFRICA      26-107-364-4881AUTOMOBILE
4305      Customer#000004305       LHGoWOCPWe7qWS,1 5iT     ALGERIA  9ALGERIA        AFRICA      10-292-685-6310FURNITURE 
4313      Customer#000004313       1JtDFNsuk                KENYA    2KENYA          AFRICA      24-474-528-8722HOUSEHOLD 
4321      Customer#000004321       NIM nffFWVtu4h95ulJxX    KENYA    1KENYA          AFRICA      24-128-493-9064MACHINERY 
4329      Customer#000004329       xfZaKiYpvFRlGptXgP       FRANCE   9FRANCE         EUROPE      16-806-435-9568AUTOMOBILE
4337      Customer#000004337       vcU477HW7mn              IRAN     9IRAN           MIDDLE EAST 20-575-466-3201AUTOMOBILE
4345      Customer#000004345       ,u bVaz                  SAUDI ARA3SAUDI ARABIA   MIDDLE EAST 30-504-387-6713BUILDING  
4353      Customer#000004353       a15j3 HLa7mI4Vqkw        PERU     8PERU           AMERICA     27-850-817-5878FURNITURE 
4361      Customer#000004361       xA RWCPS1T7qmFOYa        GERMANY  3GERMANY        EUROPE      17-983-426-5458AUTOMOBILE
4369      Customer#000004369       SIGxg8AmvYrfIy           EGYPT    3EGYPT          MIDDLE EAST 14-662-490-8043FURNITURE 
4377      Customer#000004377       ud8ta8g5nClNc ud OpP9VC  IRAN     5IRAN           MIDDLE EAST 20-314-849-1373HOUSEHOLD 
4385      Customer#000004385       ay5hV2xa4tzcCA           ARGENTINA4ARGENTINA      AMERICA     11-245-173-6306AUTOMOBILE
4393      Customer#000004393       iGsG3W4BS6sEiLMRq        PERU     0PERU           AMERICA     27-183-995-4486BUILDING  
4401      Customer#000004401       IoURd F4obG 1Mu2k4k      CANADA   3CANADA         AMERICA     13-520-811-7000AUTOMOBILE
4409      Customer#000004409       s5dN8N                   ROMANIA  6ROMANIA        EUROPE      29-752-313-1045MACHINERY 
4417      Customer#000004417       UvCtbF2 KefWMxHdTU       MOROCCO  0MOROCCO        AFRICA      25-905-493-3861AUTOMOBILE
4425      Customer#000004425       yB0,YBB6SI               EGYPT    0EGYPT          MIDDLE EAST 14-460-420-3433AUTOMOBILE
4433      Customer#000004433       VKimjs9vl3CrAB,FqOKI     UNITED KI9UNITED KINGDOM EUROPE      33-194-232-6235FURNITURE 
4441      Customer#000004441       luxWzezyj rQbm7WdRY      EGYPT    6EGYPT          MIDDLE EAST 14-122-703-8577AUTOMOBILE
4449      Customer#000004449       ehhAKzeZp Jgt w vg       ARGENTINA9ARGENTINA      AMERICA     11-565-248-6430AUTOMOBILE
4457      Customer#000004457       TCg4UChlEda              CANADA   5CANADA         AMERICA     13-690-268-3498MACHINERY 
4465      Customer#000004465       9eXiXBiz4i               BRAZIL   5BRAZIL         AMERICA     12-972-711-3405HOUSEHOLD 
4473      Customer#000004473       LuSxgSIFL                ARGENTINA9ARGENTINA      AMERICA     11-368-587-5264MACHINERY 
4481      Customer#000004481       De7jXNyhf,WR             MOZAMBIQU0MOZAMBIQUE     AFRICA      26-249-685-3591AUTOMOBILE
4489      Customer#000004489       6XpHhnELf NqVKBn         MOZAMBIQU9MOZAMBIQUE     AFRICA      26-150-583-3733BUILDING  
4497      Customer#000004497       L 1BwxQm                 INDONESIA4INDONESIA      ASIA        19-764-373-5620FURNITURE 
4505      Customer#000004505       Kv7KkAjrpxMqMhsAL        ALGERIA  1ALGERIA        AFRICA      10-377-972-4620BUILDING  
4513      Customer#000004513       3G t7yEw9CKHUsNSeiP      INDONESIA7INDONESIA      ASIA        19-224-573-9796FURNITURE 
4521      Customer#000004521       Ch9CwooJP7oj10Cmg6mR     VIETNAM  5VIETNAM        ASIA        31-294-605-8020FURNITURE 
4529      Customer#000004529       6zlnPvxLr                BRAZIL   8BRAZIL         AMERICA     12-688-350-4414BUILDING  
4537      Customer#000004537       0M8,DO7WmsFlU,7I         ROMANIA  9ROMANIA        EUROPE      29-762-153-5411MACHINERY 
4545      Customer#000004545       dRDgWV2Lmec 7zT2XKneqb   GERMANY  6GERMANY        EUROPE      17-347-535-4431BUILDING  
4553      Customer#000004553       j19,tOu                  IRAQ     4IRAQ           MIDDLE EAST 21-663-141-8669HOUSEHOLD 
4561      Customer#000004561       jy3zPNgxQxBXXMI          JORDAN   1JORDAN         MIDDLE EAST 23-911-105-3526FURNITURE 
4569      Customer#000004569       2QIbP,71LLPelShKnxDpXD   JAPAN    0JAPAN          ASIA        22-356-678-1337FURNITURE 
4577      Customer#000004577       4 zN0Mkhpsx              JAPAN    6JAPAN          ASIA        22-913-110-7991HOUSEHOLD 
4585      Customer#000004585       bE2AZv18pM               UNITED ST0UNITED STATES  AMERICA     34-162-988-1901AUTOMOBILE
4593      Customer#000004593       YdsY2YgiYk Cu7F3NBUhgjv  KENYA    2KENYA          AFRICA      24-629-643-3789BUILDING  
4601      Customer#000004601        Bv759,5XNpR583nycT1h3   CANADA   5CANADA         AMERICA     13-801-174-7153MACHINERY 
4609      Customer#000004609       V8V8az5QrEKT0ibviMBC     MOROCCO  5MOROCCO        AFRICA      25-125-651-1290MACHINERY 
4617      Customer#000004617       uRCeINpg3rnav            EGYPT    1EGYPT          MIDDLE EAST 14-825-810-1444AUTOMOBILE
4625      Customer#000004625       JNdOB2n                  CHINA    9CHINA          ASIA        28-224-302-2860BUILDING  
4633      Customer#000004633       7lwdWt                   RUSSIA   2RUSSIA         EUROPE      32-340-360-9554AUTOMOBILE
4641      Customer#000004641       ULvp8Gmu voLgvzQL        GERMANY  4GERMANY        EUROPE      17-136-467-5068AUTOMOBILE
4649      Customer#000004649       JlwjTYf                  UNITED KI6UNITED KINGDOM EUROPE      33-733-144-1981BUILDING  
4657      Customer#000004657       T,pOFEvkLxX90            CANADA   0CANADA         AMERICA     13-123-517-2327MACHINERY 
4665      Customer#000004665       04M3gFUf                 IRAQ     1IRAQ           MIDDLE EAST 21-653-817-4547HOUSEHOLD 
4673      Customer#000004673       IvaHJWZaTfWhecD7H3Vx     SAUDI ARA2SAUDI ARABIA   MIDDLE EAST 30-726-347-9934AUTOMOBILE
4681      Customer#000004681       D,2juXofSr8CqF7jNmN      CHINA    1CHINA          ASIA        28-641-458-4199FURNITURE 
4689      Customer#000004689       rHiJf70cK5KRJTF          JORDAN   0JORDAN         MIDDLE EAST 23-792-292-4838BUILDING  
4697      Customer#000004697       zjotK6                   UNITED KI9UNITED KINGDOM EUROPE      33-707-423-3995MACHINERY 
4705      Customer#000004705       sigAFQ7notZ              CHINA    4CHINA          ASIA        28-661-246-7660AUTOMOBILE
4713      Customer#000004713       4gnj0t4SZsQjMK,N         EGYPT    0EGYPT          MIDDLE EAST 14-136-856-5069MACHINERY 
4721      Customer#000004721       REjCOd7fqnm              SAUDI ARA8SAUDI ARABIA   MIDDLE EAST 30-392-862-1457MACHINERY 
4729      Customer#000004729       M65f4YKK5kNu             MOZAMBIQU7MOZAMBIQUE     AFRICA      26-768-472-5640BUILDING  
4737      Customer#000004737       dG qu2uclkl2vY9          EGYPT    2EGYPT          MIDDLE EAST 14-228-817-1131HOUSEHOLD 
4745      Customer#000004745       MxPZEHtekLEIlyf 63P      ALGERIA  2ALGERIA        AFRICA      10-354-116-1247AUTOMOBILE
4753      Customer#000004753       y4olA16d gjfAFjDGipjTU   VIETNAM  7VIETNAM        ASIA        31-866-856-3401BUILDING  
4761      Customer#000004761       JP66XJgXEC6J9gSqkADNrsh  KENYA    0KENYA          AFRICA      24-551-182-2596HOUSEHOLD 
4769      Customer#000004769       1jflysG7 SMPvsJz8n       INDONESIA3INDONESIA      ASIA        19-282-584-8993MACHINERY 
4777      Customer#000004777       ukZ3Z1bKy5oT             IRAN     5IRAN           MIDDLE EAST 20-653-835-1237BUILDING  
4785      Customer#000004785       WmUHAIBKaMHhqrXwNqh2     CANADA   9CANADA         AMERICA     13-551-978-9425AUTOMOBILE
4793      Customer#000004793       1Tdb0GbKD1h9wZLfIuGI oTc FRANCE   2FRANCE         EUROPE      16-610-226-4468AUTOMOBILE
4801      Customer#000004801       QHUxPuSDSN39XcMbh        IRAQ     3IRAQ           MIDDLE EAST 21-146-202-8578MACHINERY 
4809      Customer#000004809       sh18B,q964wrbkFJ0w5      UNITED ST3UNITED STATES  AMERICA     34-285-356-8059AUTOMOBILE
4817      Customer#000004817       xIsK3cRLsxm7zv8f         ARGENTINA2ARGENTINA      AMERICA     11-483-782-4851BUILDING  
4825      Customer#000004825       1G3yzepkN4LJB9VYKX       CANADA   7CANADA         AMERICA     13-437-602-2523BUILDING  
4833      Customer#000004833       PlQCRtSNDmPb,5OeFRjEHg6S JAPAN    9JAPAN          ASIA        22-225-354-4920BUILDING  
4841      Customer#000004841       h9,OBHrpbus              CANADA   0CANADA         AMERICA     13-535-426-6526BUILDING  
4849      Customer#000004849       uIqcGCRpV9w9             IRAN     6IRAN           MIDDLE EAST 20-418-585-5905AUTOMOBILE
4857      Customer#000004857       EuCi4v                   BRAZIL   2BRAZIL         AMERICA     12-199-333-3488FURNITURE 
4865      Customer#000004865       N7KQvcmxEoAo8P,bs        UNITED KI4UNITED KINGDOM EUROPE      33-769-367-5566FURNITURE 
4873      Customer#000004873       PNw1bI5XaVbt             EGYPT    7EGYPT          MIDDLE EAST 14-828-483-2867HOUSEHOLD 
4881      Customer#000004881       l2YUNEVGbh               UNITED KI1UNITED KINGDOM EUROPE      33-186-496-1452AUTOMOBILE
4889      Customer#000004889       zDSV6faSCdvZs6vq         MOROCCO  4MOROCCO        AFRICA      25-110-189-8208FURNITURE 
4897      Customer#000004897       sHsMMTfpBL               FRANCE   0FRANCE         EUROPE      16-993-973-7566HOUSEHOLD 
4905      Customer#000004905       8LBd286BW2iueh           ROMANIA  4ROMANIA        EUROPE      29-397-650-2485AUTOMOBILE
4913      Customer#000004913       vxKuz5m,h                INDONESIA3INDONESIA      ASIA        19-122-769-8509HOUSEHOLD 
4921      Customer#000004921       G396CPqwPYW5vICQj9       MOROCCO  2MOROCCO        AFRICA      25-747-982-2046MACHINERY 
4929      Customer#000004929       t6eojQaYuYRr             GERMANY  0GERMANY        EUROPE      17-360-865-1205AUTOMOBILE
4937      Customer#000004937       cJd6ZrdsYhIb5Wted1e6HtN  JAPAN    7JAPAN          ASIA        22-180-865-1789BUILDING  
4945      Customer#000004945       SUTncjIuwl               INDONESIA9INDONESIA      ASIA        19-325-499-1370BUILDING  
4953      Customer#000004953       c1xKUbBX7I,GbV11J9jmLKf  IRAN     5IRAN           MIDDLE EAST 20-698-777-4869HOUSEHOLD 
4961      Customer#000004961       ZvC1XEaXGc               JAPAN    3JAPAN          ASIA        22-378-296-1124BUILDING  
4969      Customer#000004969       afQTve9u 5F35DHS         ALGERIA  1ALGERIA        AFRICA      10-578-855-9844AUTOMOBILE
4977      Customer#000004977       amSpUhbplSi8             UNITED KI7UNITED KINGDOM EUROPE      33-804-506-4558HOUSEHOLD 
4985      Customer#000004985       X6Jb0mLrU5VBLCI          GERMANY  7GERMANY        EUROPE      17-691-676-4709AUTOMOBILE
4993      Customer#000004993       BBthILu1Q4 iJn06B8Ylqras IRAQ     4IRAQ           MIDDLE EAST 21-308-792-8288MACHINERY 
5001      Customer#000005001       KjMstthNoJzN4VJZuO,      INDIA    1INDIA          ASIA        18-604-212-6720AUTOMOBILE
5009      Customer#000005009        HE5 oAN881fOrXj8HG      INDONESIA5INDONESIA      ASIA        19-653-219-6669AUTOMOBILE
5017      Customer#000005017       IAoQALmkcB0vvQHHh5vjwuBy FRANCE   6FRANCE         EUROPE      16-933-434-3410HOUSEHOLD 
5025      Customer#000005025       6887Oe55Ckx6s            ARGENTINA1ARGENTINA      AMERICA     11-719-854-7246FURNITURE 
5033      Customer#000005033       8L3dmQ                   GERMANY  4GERMANY        EUROPE      17-674-142-3676FURNITURE 
5041      Customer#000005041       pszrCQRO                 INDONESIA5INDONESIA      ASIA        19-846-810-8604MACHINERY 
5049      Customer#000005049       VpPzOQPZm                PERU     8PERU           AMERICA     27-332-435-7177BUILDING  
5057      Customer#000005057       h8XNMW7scTE3yIaFmD       ARGENTINA1ARGENTINA      AMERICA     11-468-307-8449BUILDING  
5065      Customer#000005065       gK90LDJkYSUUve94PnsZY    ARGENTINA7ARGENTINA      AMERICA     11-922-928-7378MACHINERY 
5073      Customer#000005073       X6j0BXY,po23             RUSSIA   1RUSSIA         EUROPE      32-131-721-5239FURNITURE 
5081      Customer#000005081       9LHfwm                   KENYA    4KENYA          AFRICA      24-492-886-9561FURNITURE 
5089      Customer#000005089       gwt3sIX                  SAUDI ARA2SAUDI ARABIA   MIDDLE EAST 30-680-829-4816FURNITURE 
5097      Customer#000005097       2SE3 BMKAWPA6AQ1yM       RUSSIA   7RUSSIA         EUROPE      32-506-229-3106AUTOMOBILE
5105      Customer#000005105       cP H6t21Tz               IRAQ     9IRAQ           MIDDLE EAST 21-579-809-9797BUILDING  
5113      Customer#000005113       uWqz9igOPPLcR,l          ALGERIA  0ALGERIA        AFRICA      10-956-454-5004FURNITURE 
5121      Customer#000005121       uoM WdAg                 MOROCCO  5MOROCCO        AFRICA      25-651-491-7304MACHINERY 
5129      Customer#000005129       He9sd6tJWph1n            RUSSIA   2RUSSIA         EUROPE      32-218-517-7996BUILDING  
5137      Customer#000005137       lu6PKjT3grUR             JAPAN    9JAPAN          ASIA        22-225-599-7530HOUSEHOLD 
5145      Customer#000005145       eBoks2qp7Ibp0xM0Vh       EGYPT    4EGYPT          MIDDLE EAST 14-629-256-9310HOUSEHOLD 
5153      Customer#000005153       Q9cqBw5BICoxGHRgf7pf     INDONESIA3INDONESIA      ASIA        19-720-914-5831MACHINERY 
5161      Customer#000005161       JcI5uaWzwH7              ROMANIA  4ROMANIA        EUROPE      29-833-199-8310FURNITURE 
5169      Customer#000005169       fXl9U6UXw4kp             JAPAN    8JAPAN          ASIA        22-579-235-7128MACHINERY 
5177      Customer#000005177       d28attsU3eW              IRAN     9IRAN           MIDDLE EAST 20-182-975-7781BUILDING  
5185      Customer#000005185       X0TldE XDGWtSVd          IRAN     6IRAN           MIDDLE EAST 20-230-730-3778FURNITURE 
5193      Customer#000005193       G9vxMdqyWgnGd            ARGENTINA7ARGENTINA      AMERICA     11-279-295-7669AUTOMOBILE
5201      Customer#000005201       hk0Y,ZT7uIuTZE1oet0TfL   UNITED KI6UNITED KINGDOM EUROPE      33-443-882-3437HOUSEHOLD 
5209      Customer#000005209       voXpJOg10voYwbZVAlX1Kvh  INDONESIA6INDONESIA      ASIA        19-679-803-9577AUTOMOBILE
5217      Customer#000005217       ylDvU53                  RUSSIA   1RUSSIA         EUROPE      32-644-439-4353MACHINERY 
5225      Customer#000005225       u7 6BSuyR5W2ipQVVVh2r    FRANCE   0FRANCE         EUROPE      16-887-171-3321AUTOMOBILE
5233      Customer#000005233       DPhzwSOhtg,e8LTeL        ARGENTINA7ARGENTINA      AMERICA     11-184-398-8034FURNITURE 
5241      Customer#000005241       1RwodMo7pw1GS            CANADA   8CANADA         AMERICA     13-183-971-2173AUTOMOBILE
5249      Customer#000005249       fgkd\f0 9f 98 8fhY6M0Ii  RUSSIA   1RUSSIA         EUROPE      32-976-309-5244BUILDING  
5257      Customer#000005257       E5T61FddOPkRViO8 csIPay  JAPAN    0JAPAN          ASIA        22-973-797-2051HOUSEHOLD 
5265      Customer#000005265       j8UNRpvKTJ8              JORDAN   5JORDAN         MIDDLE EAST 23-452-870-7680AUTOMOBILE
5273      Customer#000005273       t37VxXR                  INDONESIA4INDONESIA      ASIA        19-312-998-2693BUILDING  
5281      Customer#000005281       KZtqOQe5SGHjRZdUtDC      EGYPT    4EGYPT          MIDDLE EAST 14-910-283-8658HOUSEHOLD 
5289      Customer#000005289       AlCY1iDhArY0             EGYPT    0EGYPT          MIDDLE EAST 14-630-719-9361FURNITURE 
5297      Customer#000005297       wdS5fSBRAc3clCDSSdIL     ALGERIA  4ALGERIA        AFRICA      10-274-625-4183BUILDING  
5305      Customer#000005305       V025uLUVjWEyjhHd         IRAQ     6IRAQ           MIDDLE EAST 21-417-713-3043FURNITURE 
5313      Customer#000005313       ipYY4 9R                 MOZAMBIQU1MOZAMBIQUE     AFRICA      26-971-960-6289AUTOMOBILE
5321      Customer#000005321       HxyBkNgWPkVx             PERU     3PERU           AMERICA     27-769-562-1622AUTOMOBILE
5329      Customer#000005329       D9Ug vJdggEEB4itHY1Six   CHINA    7CHINA          ASIA        28-555-832-1916AUTOMOBILE
5337      Customer#000005337       FLPbGU                   EGYPT    7EGYPT          MIDDLE EAST 14-718-678-6140AUTOMOBILE
5345      Customer#000005345        3vwTAjwWqdaNw0omhkxoR7o ETHIOPIA 5ETHIOPIA       AFRICA      15-763-657-3765HOUSEHOLD 
5353      Customer#000005353       85d6YWMXk                UNITED KI6UNITED KINGDOM EUROPE      33-715-176-2157MACHINERY 
5361      Customer#000005361       d2TIzVE9m                MOZAMBIQU0MOZAMBIQUE     AFRICA      26-925-487-1519MACHINERY 
5369      Customer#000005369       0CSMHh6w2sBg             ROMANIA  7ROMANIA        EUROPE      29-248-726-5703HOUSEHOLD 
5377      Customer#000005377       46rGtJVho                ETHIOPIA 2ETHIOPIA       AFRICA      15-728-557-5528FURNITURE 
5385      Customer#000005385       hlEktese                 VIETNAM  2VIETNAM        ASIA        31-314-649-2846AUTOMOBILE
5393      Customer#000005393       m7PJ95ONS 6G0Y           CHINA    2CHINA          ASIA        28-874-326-3333HOUSEHOLD 
5401      Customer#000005401       K2lUPSI05WrXa,wQm0jIXhF2 ROMANIA  9ROMANIA        EUROPE      29-687-944-2476AUTOMOBILE
5409      Customer#000005409       fOkYWSvqxAUFxQEhM5tC1Qbm CHINA    1CHINA          ASIA        28-100-220-2979BUILDING  
5417      Customer#000005417       vIC9n6korvyI1efEnq       EGYPT    7EGYPT          MIDDLE EAST 14-220-900-8346BUILDING  
5425      Customer#000005425       kVf p28neZA1ZqIsQ        MOZAMBIQU7MOZAMBIQUE     AFRICA      26-510-962-2456HOUSEHOLD 
5433      Customer#000005433       d73qJQ2oCVgxe            ALGERIA  8ALGERIA        AFRICA      10-873-419-6566HOUSEHOLD 
5441      Customer#000005441       AYD5rQO18BWFej6iN        JAPAN    9JAPAN          ASIA        22-897-821-2904BUILDING  
5449      Customer#000005449       0OTbvoZ                  ALGERIA  7ALGERIA        AFRICA      10-676-405-7693AUTOMOBILE
5457      Customer#000005457       2tekjgpBv 1YIrB          RUSSIA   4RUSSIA         EUROPE      32-889-279-4891FURNITURE 
5465      Customer#000005465       uCjHFAbxjpSe JkLPTHgV4   ALGERIA  9ALGERIA        AFRICA      10-283-372-4208FURNITURE 
5473      Customer#000005473       Zzxq02ED                 PERU     4PERU           AMERICA     27-175-760-1110BUILDING  
5481      Customer#000005481       0 RIm0  jz91EBDcKCtWIGm  JAPAN    6JAPAN          ASIA        22-982-805-7408FURNITURE 
5489      Customer#000005489       fO46Ka2Dm ondG           PERU     7PERU           AMERICA     27-648-522-6988MACHINERY 
5497      Customer#000005497       5uGWab6                  FRANCE   1FRANCE         EUROPE      16-362-428-6816AUTOMOBILE
5505      Customer#000005505       K3dsMNdfEA6cEqLHrBR      ALGERIA  0ALGERIA        AFRICA      10-926-160-8478MACHINERY 
5513      Customer#000005513       l0TOMpFrTIMymDZLG1TmU    CANADA   1CANADA         AMERICA     13-191-459-2218HOUSEHOLD 
5521      Customer#000005521       DAPE07B0MBw4n            RUSSIA   4RUSSIA         EUROPE      32-556-154-8930AUTOMOBILE
5529      Customer#000005529       JckMx16nKtlFG            SAUDI ARA6SAUDI ARABIA   MIDDLE EAST 30-314-658-6618MACHINERY 
5537      Customer#000005537       JZQCWLlCgsXB,            BRAZIL   6BRAZIL         AMERICA     12-859-294-5771HOUSEHOLD 
5545      Customer#000005545       x3ZIwXec38               BRAZIL   3BRAZIL         AMERICA     12-554-624-1417MACHINERY 
5553      Customer#000005553       UxADQuFBn                ARGENTINA2ARGENTINA      AMERICA     11-413-585-3501FURNITURE 
5561      Customer#000005561       lKkGK1fmjqZ              MOROCCO  3MOROCCO        AFRICA      25-596-744-1098FURNITURE 
5569      Customer#000005569       WD7ULFW85DyxEHt3         PERU     7PERU           AMERICA     27-466-546-2171AUTOMOBILE
5577      Customer#000005577       DH 8qIJ1t1OCb            VIETNAM  1VIETNAM        ASIA        31-884-124-8456HOUSEHOLD 
5585      Customer#000005585       F,Mq6uT1,ytfh7mLNK0ftOP  VIETNAM  1VIETNAM        ASIA        31-723-225-7643BUILDING  
5593      Customer#000005593       AWC5Wb cU1j5Iij x        JAPAN    7JAPAN          ASIA        22-953-921-6474AUTOMOBILE
5601      Customer#000005601       LYl,zvb8xfsmZF43mNr      JAPAN    7JAPAN          ASIA        22-282-320-2748FURNITURE 
5609      Customer#000005609       TK7b9mCEv7v              INDIA    5INDIA          ASIA        18-197-534-8609MACHINERY 
5617      Customer#000005617       f7f14NQLCw6t             IRAQ     2IRAQ           MIDDLE EAST 21-564-978-2932BUILDING  
5625      Customer#000005625       lTOxNbSc,cLYDaE7         BRAZIL   9BRAZIL         AMERICA     12-539-423-2880BUILDING  
5633      Customer#000005633       xREvVQ8GCeHInMk          IRAQ     5IRAQ           MIDDLE EAST 21-831-283-1182FURNITURE 
5641      Customer#000005641       wFcujRqEfvJn766XR        INDONESIA7INDONESIA      ASIA        19-821-951-7753FURNITURE 
5649      Customer#000005649       iRi0lMoGl0gENP           SAUDI ARA4SAUDI ARABIA   MIDDLE EAST 30-723-302-9066AUTOMOBILE
5657      Customer#000005657       LpPSYB4kydlHZ4JKmDGtX6C  INDONESIA8INDONESIA      ASIA        19-807-451-8365AUTOMOBILE
5665      Customer#000005665       9z62Wj6R5AoLJ1y9MwtPxn   VIETNAM  2VIETNAM        ASIA        31-841-679-3184MACHINERY 
5673      Customer#000005673       kLxJy9olyD               FRANCE   2FRANCE         EUROPE      16-434-419-5765MACHINERY 
5681      Customer#000005681       cCWvVKMI                 MOROCCO  8MOROCCO        AFRICA      25-490-531-3881BUILDING  
5689      Customer#000005689       dMK3jJLwQXzUpJ8X ljixCj  EGYPT    5EGYPT          MIDDLE EAST 14-918-791-9799BUILDING  
5697      Customer#000005697       6UGZlt0tT0cZv9E8f1GY     FRANCE   6FRANCE         EUROPE      16-661-580-8307HOUSEHOLD 
5705      Customer#000005705       cCTGV7                   UNITED KI2UNITED KINGDOM EUROPE      33-836-168-6986BUILDING  
5713      Customer#000005713       PDBI2FJzYl3              GERMANY  1GERMANY        EUROPE      17-678-532-1417MACHINERY 
5721      Customer#000005721       BeVWp5fdT                KENYA    3KENYA          AFRICA      24-759-678-2231FURNITURE 
5729      Customer#000005729       25jkzolduCk              JAPAN    7JAPAN          ASIA        22-619-507-2326BUILDING  
5737      Customer#000005737       WdcBM7wpi 7iXBrCxRwfjAN  JAPAN    4JAPAN          ASIA        22-658-724-8611MACHINERY 
5745      Customer#000005745       hbAVBBBJTxo7omTXvTmXOV   ARGENTINA3ARGENTINA      AMERICA     11-845-174-5979MACHINERY 
5753      Customer#000005753       nrIpgojFDf6              IRAQ     3IRAQ           MIDDLE EAST 21-433-551-9026BUILDING  
5761      Customer#000005761       t,xwmz3tZTWde0pYLDl92O   BRAZIL   1BRAZIL         AMERICA     12-565-311-8156AUTOMOBILE
5769      Customer#000005769       gUlDIMKFdYRzzkg6oo66TotG PERU     7PERU           AMERICA     27-902-120-8770AUTOMOBILE
5777      Customer#000005777       ZC6 ,B6D7y  oP01AAwXavpH ALGERIA  2ALGERIA        AFRICA      10-195-278-3741MACHINERY 
5785      Customer#000005785       rvg8WuxGy                KENYA    8KENYA          AFRICA      24-889-920-6436BUILDING  
5793      Customer#000005793       QUgVkBMZHg               IRAQ     9IRAQ           MIDDLE EAST 21-914-170-1057HOUSEHOLD 
5801      Customer#000005801       Itvbv6hLO281n8A          FRANCE   3FRANCE         EUROPE      16-253-789-4941BUILDING  
5809      Customer#000005809       2UCYcegJ                 RUSSIA   0RUSSIA         EUROPE      32-632-989-7807BUILDING  
5817      Customer#000005817       fsTUwnCYk063C018ope7qDcF IRAQ     2IRAQ           MIDDLE EAST 21-909-962-1873HOUSEHOLD 
5825      Customer#000005825       QIAbltx                  JORDAN   1JORDAN         MIDDLE EAST 23-381-743-4898MACHINERY 
5833      Customer#000005833       M1kuA9MotWTAejyUkUsCo    VIETNAM  8VIETNAM        ASIA        31-653-909-9874BUILDING  
5841      Customer#000005841       e1Pa4v5D                 INDIA    0INDIA          ASIA        18-276-777-7154AUTOMOBILE
5849      Customer#000005849       7KhE5zvDLqXjOpp5vQM6F N  EGYPT    1EGYPT          MIDDLE EAST 14-429-668-6089AUTOMOBILE
5857      Customer#000005857       puZrXXKuO                CANADA   2CANADA         AMERICA     13-110-296-8666HOUSEHOLD 
5865      Customer#000005865       ek7Cw9Dd                 KENYA    5KENYA          AFRICA      24-684-713-3489HOUSEHOLD 
5873      Customer#000005873       u dzldGy0ih1X            EGYPT    8EGYPT          MIDDLE EAST 14-392-478-4725FURNITURE 
5881      Customer#000005881       ySVHOwDcnpXosRq3A        UNITED ST1UNITED STATES  AMERICA     34-632-662-7735HOUSEHOLD 
5889      Customer#000005889       jo2tSLgTrFIYOj,1OgO      INDONESIA2INDONESIA      ASIA        19-845-693-1435BUILDING  
5897      Customer#000005897       CrpNgVYv                 IRAQ     7IRAQ           MIDDLE EAST 21-648-654-1131AUTOMOBILE
5905      Customer#000005905       gQJtLUsxQfDmBzLp,XHk     CHINA    9CHINA          ASIA        28-153-140-2821BUILDING  
5913      Customer#000005913       DmdhtQnI9i               ALGERIA  6ALGERIA        AFRICA      10-493-421-3929FURNITURE 
5921      Customer#000005921       FmwTgDbqTBR              JAPAN    8JAPAN          ASIA        22-681-633-9841BUILDING  
5929      Customer#000005929       4VLgNhkvrgu              CHINA    4CHINA          ASIA        28-923-896-9309BUILDING  
5937      Customer#000005937       1Vr6wbrvaVsmm2pQ,qW      VIETNAM  4VIETNAM        ASIA        31-851-875-9097AUTOMOBILE
5945      Customer#000005945       tB7mLhB0                 CANADA   3CANADA         AMERICA     13-343-963-8101HOUSEHOLD 
5953      Customer#000005953       Jv7OSVko                 ALGERIA  2ALGERIA        AFRICA      10-954-411-1667AUTOMOBILE
5961      Customer#000005961       PwH4hrnr5D6,wlESem9hpI   MOROCCO  4MOROCCO        AFRICA      25-456-465-2984BUILDING  
5969      Customer#000005969       W7XUGrF1sXahGTz          IRAQ     8IRAQ           MIDDLE EAST 21-547-811-3568HOUSEHOLD 
5977      Customer#000005977       bzH2bLI41MxU9YgBDtNG     ARGENTINA6ARGENTINA      AMERICA     11-364-499-3640FURNITURE 
5985      Customer#000005985       5CZy Kp7DtQW             VIETNAM  0VIETNAM        ASIA        31-398-996-9115AUTOMOBILE
5993      Customer#000005993       IAZ6vE5su                GERMANY  2GERMANY        EUROPE      17-697-192-8955HOUSEHOLD 
6001      Customer#000006001       e,jhgk                   CANADA   0CANADA         AMERICA     13-284-336-2142FURNITURE 
6009      Customer#000006009       tJ3M102q9                MOROCCO  3MOROCCO        AFRICA      25-528-308-3115AUTOMOBILE
6017      Customer#000006017       013MNSbWe                UNITED KI9UNITED KINGDOM EUROPE      33-886-521-6804FURNITURE 
6025      Customer#000006025       cawvuhdgRy KaqlhXcWa     KENYA    4KENYA          AFRICA      24-692-494-3268BUILDING  
6033      Customer#000006033       CY9eVCYfqrI1WlamyV,      SAUDI ARA2SAUDI ARABIA   MIDDLE EAST 30-234-998-5685HOUSEHOLD 
6041      Customer#000006041       BFIr9VI8QcoM             RUSSIA   0RUSSIA         EUROPE      32-607-583-4178BUILDING  
6049      Customer#000006049       b1Wlcr2IYgYvlZWW3V,J     UNITED KI8UNITED KINGDOM EUROPE      33-293-240-1278AUTOMOBILE
6057      Customer#000006057       R4Bt0gWYUrIshQj          SAUDI ARA6SAUDI ARABIA   MIDDLE EAST 30-291-110-4072FURNITURE 
6065      Customer#000006065       Gb72LtD9HVv9slwDCWiu     MOZAMBIQU5MOZAMBIQUE     AFRICA      26-309-238-1596HOUSEHOLD 
6073      Customer#000006073       pfb,24MPwsE              INDONESIA1INDONESIA      ASIA        19-613-489-5045HOUSEHOLD 
6081      Customer#000006081       g9sWPKJZrAa              KENYA    6KENYA          AFRICA      24-860-989-9293MACHINERY 
6089      Customer#000006089       1xUlqn0cOHlIKl           CHINA    0CHINA          ASIA        28-112-976-4345HOUSEHOLD 
6097      Customer#000006097       KCW2zgHZRm36j9           BRAZIL   9BRAZIL         AMERICA     12-182-233-8905MACHINERY 
6105      Customer#000006105       EfQPHmIraBqSvNY          EGYPT    7EGYPT          MIDDLE EAST 14-458-208-2874BUILDING  
6113      Customer#000006113       YV9LsSwnYEjuQE           CHINA    7CHINA          ASIA        28-989-317-8996MACHINERY 
6121      Customer#000006121       uAXqrguis17T1            JORDAN   2JORDAN         MIDDLE EAST 23-239-522-5374FURNITURE 
6129      Customer#000006129       MVydnT2Oc                RUSSIA   1RUSSIA         EUROPE      32-489-694-2741HOUSEHOLD 
6137      Customer#000006137       Uv1p49Ppo7l              ETHIOPIA 8ETHIOPIA       AFRICA      15-431-714-7930BUILDING  
6145      Customer#000006145       CybtvIEF1DXO             VIETNAM  9VIETNAM        ASIA        31-426-120-2217HOUSEHOLD 
6153      Customer#000006153       ,oEYlRJs0L76hU5M         FRANCE   5FRANCE         EUROPE      16-617-904-2748MACHINERY 
6161      Customer#000006161       pbRxOFTDqY0lP            CHINA    9CHINA          ASIA        28-649-160-3310FURNITURE 
6169      Customer#000006169       UDeLABnhksFK7tfInLsD     GERMANY  5GERMANY        EUROPE      17-542-679-4453HOUSEHOLD 
6177      Customer#000006177       pZZ8D,yKhf               UNITED ST2UNITED STATES  AMERICA     34-501-436-2116MACHINERY 
6185      Customer#000006185       4qtODzt Kxhkag           UNITED ST5UNITED STATES  AMERICA     34-776-663-5791HOUSEHOLD 
6193      Customer#000006193       RnHj1jACEqFgLpCQfz       MOZAMBIQU4MOZAMBIQUE     AFRICA      26-665-406-9977MACHINERY 
6201      Customer#000006201       oK3Q7pkcEZaGXxOeNB4ok    ALGERIA  3ALGERIA        AFRICA      10-675-988-8942HOUSEHOLD 
6209      Customer#000006209       C1Ls6INP7D9jHTugpjU      BRAZIL   5BRAZIL         AMERICA     12-975-397-5363BUILDING  
6217      Customer#000006217       k9NiqQl                  INDONESIA4INDONESIA      ASIA        19-602-113-6483MACHINERY 
6225      Customer#000006225       cqOhtNVujJSTr            VIETNAM  1VIETNAM        ASIA        31-263-583-1717BUILDING  
6233      Customer#000006233       4ZbcmGR                  RUSSIA   7RUSSIA         EUROPE      32-289-355-9408FURNITURE 
6241      Customer#000006241       ucocla,JAAW am           GERMANY  7GERMANY        EUROPE      17-980-968-1091FURNITURE 
6249      Customer#000006249       I3e rogGC4Pkn            MOROCCO  9MOROCCO        AFRICA      25-475-630-4570MACHINERY 
6257      Customer#000006257       etreRcL                  PERU     7PERU           AMERICA     27-168-181-9502AUTOMOBILE
6265      Customer#000006265       ,8NdehNjF5ojMME          UNITED KI3UNITED KINGDOM EUROPE      33-226-388-3189BUILDING  
6273      Customer#000006273       ZD7bJedn3FdCd3p1SLG      ALGERIA  6ALGERIA        AFRICA      10-700-805-1392AUTOMOBILE
6281      Customer#000006281       yORAuTtjrCJF9            EGYPT    2EGYPT          MIDDLE EAST 14-202-899-5961BUILDING  
6289      Customer#000006289       MuOF83xgQwBnj42OUkVScHj7 PERU     6PERU           AMERICA     27-433-575-5392MACHINERY 
6297      Customer#000006297       DX,A9MX                  RUSSIA   7RUSSIA         EUROPE      32-572-537-3469BUILDING  
6305      Customer#000006305       26EjrYGIc38wIM,rkf nwGVN ALGERIA  3ALGERIA        AFRICA      10-181-202-3851FURNITURE 
6313      Customer#000006313       g66sNXSi5                FRANCE   2FRANCE         EUROPE      16-216-341-4568FURNITURE 
6321      Customer#000006321       QQ3MOdoHCo9I6            ROMANIA  7ROMANIA        EUROPE      29-816-996-5823AUTOMOBILE
6329      Customer#000006329       GgzjDBrJgBnzfhNzdcbe     RUSSIA   9RUSSIA         EUROPE      32-730-279-7158AUTOMOBILE
6337      Customer#000006337       PiZCe6IVnzD4lUt          RUSSIA   0RUSSIA         EUROPE      32-990-902-4754BUILDING  
6345      Customer#000006345       es2go,e,Lr4TRItOoUAQKz   ROMANIA  8ROMANIA        EUROPE      29-579-575-7793BUILDING  
6353      Customer#000006353       TiJAQNquw5b57k           ROMANIA  9ROMANIA        EUROPE      29-861-687-7697AUTOMOBILE
6361      Customer#000006361       VzLr6guzIzrZpZf          UNITED KI8UNITED KINGDOM EUROPE      33-994-357-5280AUTOMOBILE
6369      Customer#000006369       2GoiGrH9dEHSK            CANADA   8CANADA         AMERICA     13-329-617-5996HOUSEHOLD 
6377      Customer#000006377       fb5rLU                   CHINA    0CHINA          ASIA        28-574-955-2531HOUSEHOLD 
6385      Customer#000006385       feb0lDE33xT7             MOROCCO  5MOROCCO        AFRICA      25-686-323-2701AUTOMOBILE
6393      Customer#000006393       LrSfeTLkBD8iJmD4,mkC     IRAN     4IRAN           MIDDLE EAST 20-763-314-9246BUILDING  
6401      Customer#000006401       yveLKpTUIx7K6            UNITED KI8UNITED KINGDOM EUROPE      33-109-159-5078HOUSEHOLD 
6409      Customer#000006409       T0HCEe4p                 PERU     0PERU           AMERICA     27-775-252-3467BUILDING  
6417      Customer#000006417       06dHuGAxyFTf             UNITED KI3UNITED KINGDOM EUROPE      33-308-735-3213MACHINERY 
6425      Customer#000006425       y4kyZJUM4AOCGcaIjuj8as6X INDONESIA4INDONESIA      ASIA        19-865-948-2154AUTOMOBILE
6433      Customer#000006433       a3pPw8Sauu6hhR4k5uL7     ROMANIA  2ROMANIA        EUROPE      29-612-589-8940FURNITURE 
6441      Customer#000006441       XG8rZ2j868y,             ROMANIA  2ROMANIA        EUROPE      29-480-671-2580BUILDING  
6449      Customer#000006449       pE4YcxWffV,7kwV          ARGENTINA9ARGENTINA      AMERICA     11-996-737-9536MACHINERY 
6457      Customer#000006457       RWwZBhG0WF8              BRAZIL   7BRAZIL         AMERICA     12-102-536-6478MACHINERY 
6465      Customer#000006465       hh2iSvQ3ixAtfId4Qs       UNITED ST8UNITED STATES  AMERICA     34-721-115-4246FURNITURE 
6473      Customer#000006473       Ee0nC9W1Y                INDONESIA7INDONESIA      ASIA        19-468-620-7926AUTOMOBILE
6481      Customer#000006481       QM0JCcwqe 2OSh5LpTjoQV   INDONESIA7INDONESIA      ASIA        19-571-158-6700BUILDING  
6489      Customer#000006489       z6IrxkffxNyMYDRx4qR,PQnT INDIA    3INDIA          ASIA        18-235-216-2471HOUSEHOLD 
6497      Customer#000006497       0m1WM8YSt2E1jhOAohr3Zs9  VIETNAM  3VIETNAM        ASIA        31-255-457-1697MACHINERY 
