7         Customer#000000007       TcGe5gaZNgVePxU5kR       CHINA    4CHINA          ASIA        28-244-129-5307AUTOMOBILE
15        Customer#000000015       YtWggXoOLdwdo7b0y,BZaGU  UNITED KI7UNITED KINGDOM EUROPE      33-502-321-3361HOUSEHOLD 
23        Customer#000000023       OdY W13N7Be3OC5Mpg       CANADA   5CANADA         AMERICA     13-702-265-1325HOUSEHOLD 
31        Customer#000000031       LUACbO0viaAv6eXOA        UNITED KI0UNITED KINGDOM EUROPE      33-592-924-8988HOUSEHOLD 
39        Customer#000000039       nnbRg,Pvy33dfko          BRAZIL   4BRAZIL         AMERICA     12-304-773-5813AUTOMOBILE
47        Customer#000000047       b0UgocSqEW5              BRAZIL   0BRAZIL         AMERICA     12-304-730-3815BUILDING  
55        Customer#000000055       zIRBR4KNEl HzaiV3a i9n6  IRAN     4IRAN           MIDDLE EAST 20-382-360-1962MACHINERY 
63        Customer#000000063       IXRSpVWW                 VIETNAM  3VIETNAM        ASIA        31-535-918-7182AUTOMOBILE
71        Customer#000000071       TlGalgdXWBmMV,6agLyWYDyI GERMANY  6GERMANY        EUROPE      17-877-851-3439HOUSEHOLD 
79        Customer#000000079       n5hH2ftkVRwW8            MOROCCO  3MOROCCO        AFRICA      25-897-969-9310MACHINERY 
87        Customer#000000087       hgGhHVSWQl               UNITED KI1UNITED KINGDOM EUROPE      33-504-790-3044FURNITURE 
95        Customer#000000095       EU0xvmWvOmUUn5J,2z8      MOROCCO  0MOROCCO        AFRICA      25-178-126-8580MACHINERY 
103       Customer#000000103       8KIsQX4LJ7QMsj6DrtF      INDONESIA3INDONESIA      ASIA        19-355-212-7631BUILDING  
111       Customer#000000111       CBSbPyOWRorloj2TB        RUSSIA   6RUSSIA         EUROPE      32-513-878-4490MACHINERY 
119       Customer#000000119       M1ETOIecuvH8DtM          GERMANY  4GERMANY        EUROPE      17-674-973-7607FURNITURE 
127       Customer#000000127       Xyge4DX2rXKxXyye1Z47L    VIETNAM  8VIETNAM        ASIA        31-590-234-8552MACHINERY 
135       Customer#000000135       oZK,oC0 f                ROMANIA  8ROMANIA        EUROPE      29-777-867-3221FURNITURE 
143       Customer#000000143       681r22uL452zqk 8B        MOZAMBIQU6MOZAMBIQUE     AFRICA      26-939-676-8620MACHINERY 
151       Customer#000000151       LlyEtNEXT6kk             ROMANIA  8ROMANIA        EUROPE      29-685-800-2807HOUSEHOLD 
159       Customer#000000159       KotsdDO6EHnysVu92        IRAN     0IRAN           MIDDLE EAST 20-283-947-4353HOUSEHOLD 
167       Customer#000000167       QNc2eOlRIzL6jpthwgD      ETHIOPIA 4ETHIOPIA       AFRICA      15-302-449-7515AUTOMOBILE
175       Customer#000000175       8YK1ZyTqoY3wMWnExl4it    IRAN     0IRAN           MIDDLE EAST 20-141-812-7058FURNITURE 
183       Customer#000000183       aMAB2QSb8                RUSSIA   4RUSSIA         EUROPE      32-122-239-3004HOUSEHOLD 
191       Customer#000000191       P1eCXsPWkv               MOZAMBIQU0MOZAMBIQUE     AFRICA      26-302-306-2095BUILDING  
199       Customer#000000199       lBU3xll,a7e9TYm3 UyjDP   EGYPT    3EGYPT          MIDDLE EAST 14-824-320-2545FURNITURE 
207       Customer#000000207       ewz5JNnx                 VIETNAM  0VIETNAM        ASIA        31-678-175-8728AUTOMOBILE
215       Customer#000000215       8H76xbBhde HY70BrYqGEF   INDONESIA8INDONESIA      ASIA        19-507-523-8772FURNITURE 
223       Customer#000000223       ftau6Pk,brbo             SAUDI ARA8SAUDI ARABIA   MIDDLE EAST 30-699-999-4723BUILDING  
231       Customer#000000231       WFOhG9Z9ohRds            IRAN     2IRAN           MIDDLE EAST 20-847-274-6046BUILDING  
239       Customer#000000239       w8eRmMOmUTjVOkucbfc      INDONESIA8INDONESIA      ASIA        19-663-651-1935FURNITURE 
247       Customer#000000247       N8q4W4QQG2m              SAUDI ARA9SAUDI ARABIA   MIDDLE EAST 30-872-286-4363HOUSEHOLD 
255       Customer#000000255       I8Wz9sJBZTnEFG0          CANADA   1CANADA         AMERICA     13-306-646-6847BUILDING  
263       Customer#000000263       Y2pxeGWkTyaq             ARGENTINA8ARGENTINA      AMERICA     11-105-498-4892FURNITURE 
271       Customer#000000271       O,HceV3 X                FRANCE   7FRANCE         EUROPE      16-508-492-5882MACHINERY 
279       Customer#000000279       9t2Wo1jK1TYnDGg6ODSMGf1W INDONESIA0INDONESIA      ASIA        19-980-532-2170AUTOMOBILE
287       Customer#000000287       KTsaTAJRC0eMYkyFm7       EGYPT    0EGYPT          MIDDLE EAST 14-620-849-9951MACHINERY 
295       Customer#000000295       mk649IH6njR14woTVZ1cxt   ALGERIA  2ALGERIA        AFRICA      10-539-626-2609HOUSEHOLD 
303       Customer#000000303       5pSw0OIoNRcpyTEEI1gZ     CANADA   8CANADA         AMERICA     13-930-852-6886AUTOMOBILE
311       Customer#000000311       dvpNARle3mR19GD4s2gp     UNITED KI4UNITED KINGDOM EUROPE      33-774-601-6064AUTOMOBILE
319       Customer#000000319        UQ5mF3s                 FRANCE   1FRANCE         EUROPE      16-825-184-7812FURNITURE 
327       Customer#000000327       UyKulwfNnX4l4ba1vQtw     INDIA    6INDIA          ASIA        18-924-873-4785MACHINERY 
335       Customer#000000335       d2JCYLr2F9tC1AZ          VIETNAM  9VIETNAM        ASIA        31-463-539-3440HOUSEHOLD 
343       Customer#000000343       ejvvSNHIkJVm8I1zp        CANADA   7CANADA         AMERICA     13-286-918-3358HOUSEHOLD 
351       Customer#000000351       De35Hx1Q                 GERMANY  3GERMANY        EUROPE      17-612-979-1909AUTOMOBILE
359       Customer#000000359       z4lUH9ssc3K2w0U          KENYA    5KENYA          AFRICA      24-714-374-6263FURNITURE 
367       Customer#000000367       yZaDoEZCqt2VMTVK         JORDAN   4JORDAN         MIDDLE EAST 23-532-469-9627HOUSEHOLD 
375       Customer#000000375       e53JADEeGvM              MOROCCO  7MOROCCO        AFRICA      25-580-100-1755HOUSEHOLD 
383       Customer#000000383       iBIHYgXvVDpu6qq7Flq      BRAZIL   3BRAZIL         AMERICA     12-876-681-8727MACHINERY 
391       Customer#000000391       q10SV05KB10              IRAQ     1IRAQ           MIDDLE EAST 21-473-223-6258HOUSEHOLD 
399       Customer#000000399       ZBvzMa6N1wdCGaPmG13xVu   INDIA    8INDIA          ASIA        18-960-930-9452BUILDING  
407       Customer#000000407       cfCP9bE                  ARGENTINA8ARGENTINA      AMERICA     11-462-411-1099MACHINERY 
415       Customer#000000415       334jCRiU                 UNITED KI4UNITED KINGDOM EUROPE      33-906-128-2037FURNITURE 
423       Customer#000000423       Y2B EbOg39               JORDAN   1JORDAN         MIDDLE EAST 23-608-895-6435BUILDING  
431       Customer#000000431       RNfSXbUJkg               FRANCE   8FRANCE         EUROPE      16-596-692-6152HOUSEHOLD 
439       Customer#000000439       3deBblz2syRv8yMf0yAVKkE4 KENYA    0KENYA          AFRICA      24-531-482-5985BUILDING  
447       Customer#000000447       hVZBzP                   CANADA   2CANADA         AMERICA     13-915-767-3412HOUSEHOLD 
455       Customer#000000455       sssuscPJ,Z               FRANCE   7FRANCE         EUROPE      16-857-100-2301BUILDING  
463       Customer#000000463       LV7MN7Tkm2NSo4Q3lwvj     INDIA    4INDIA          ASIA        18-794-391-7786HOUSEHOLD 
471       Customer#000000471       tGr0DtrK 91Igzfe         EGYPT    8EGYPT          MIDDLE EAST 14-249-522-7699FURNITURE 
479       Customer#000000479       RdIiG8NbwYt              CHINA    2CHINA          ASIA        28-959-795-9387AUTOMOBILE
487       Customer#000000487       oTc,l9dAf8O0qOO          BRAZIL   8BRAZIL         AMERICA     12-485-647-2814AUTOMOBILE
495       Customer#000000495       QhFbEv6KbQIwfZs 1krt     GERMANY  1GERMANY        EUROPE      17-318-311-6954BUILDING  
503       Customer#000000503       7xCLYGLCpFU,toJBIPIrJbLI SAUDI ARA3SAUDI ARABIA   MIDDLE EAST 30-779-527-9072MACHINERY 
511       Customer#000000511       lQC9KfW W77IYtJjAgSZguNz JORDAN   8JORDAN         MIDDLE EAST 23-827-942-6639FURNITURE 
519       Customer#000000519       Z6ke6Y9J2pY              ETHIOPIA 3ETHIOPIA       AFRICA      15-928-592-9204BUILDING  
527       Customer#000000527       giJAUjnTtxX,HXIy0ad      JORDAN   3JORDAN         MIDDLE EAST 23-215-996-6965HOUSEHOLD 
535       Customer#000000535       ,2Y kklprPasEp           BRAZIL   3BRAZIL         AMERICA     12-188-724-3292BUILDING  
543       Customer#000000543       JvbSKX7RG3xu             PERU     5PERU           AMERICA     27-203-733-3576AUTOMOBILE
551       Customer#000000551       holp1DkjYzz              MOROCCO  5MOROCCO        AFRICA      25-374-600-3895MACHINERY 
559       Customer#000000559       A3ACFoVbP,gPe xknVJMWC,w GERMANY  7GERMANY        EUROPE      17-833-619-3497AUTOMOBILE
567       Customer#000000567       KNE6mpW69                VIETNAM  6VIETNAM        ASIA        31-898-451-9462BUILDING  
575       Customer#000000575       4K6h0pYH,bg2FS5cYL,qqejh ARGENTINA1ARGENTINA      AMERICA     11-921-782-2016BUILDING  
583       Customer#000000583       V3i6Gu9,LZtvdnNppXnI2e   JORDAN   8JORDAN         MIDDLE EAST 23-778-406-1486HOUSEHOLD 
591       Customer#000000591       wGE7AnEtiX               SAUDI ARA2SAUDI ARABIA   MIDDLE EAST 30-442-856-2407MACHINERY 
599       Customer#000000599       fIvpza0tlXAVjOAPkWN5,DiU EGYPT    7EGYPT          MIDDLE EAST 14-626-990-2097HOUSEHOLD 
607       Customer#000000607       m61hvYPASIG              UNITED ST5UNITED STATES  AMERICA     34-463-682-8518FURNITURE 
615       Customer#000000615       6aITapYMqM1fJQKuJD       BRAZIL   2BRAZIL         AMERICA     12-616-164-5684BUILDING  
623       Customer#000000623       HXiFb9oWlgqZXrJPUCE      INDONESIA8INDONESIA      ASIA        19-769-795-7290BUILDING  
631       Customer#000000631       By LIK3TbJ67sJLl         ROMANIA  2ROMANIA        EUROPE      29-392-920-6703MACHINERY 
639       Customer#000000639       8OiPHefIPoalR            MOROCCO  9MOROCCO        AFRICA      25-350-706-3119MACHINERY 
647       Customer#000000647       2Bx7,7i87h5cagC,ZBz      ARGENTINA8ARGENTINA      AMERICA     11-110-199-2209BUILDING  
655       Customer#000000655       SceikyyffYL5OUI          KENYA    6KENYA          AFRICA      24-109-320-1340FURNITURE 
663       Customer#000000663        fqLQWxHWWC40GUOgVvb     INDONESIA9INDONESIA      ASIA        19-630-175-3490AUTOMOBILE
671       Customer#000000671       ic6qGrt0giB,HDEiB        VIETNAM  2VIETNAM        ASIA        31-965-619-9270FURNITURE 
679       Customer#000000679       IJf1FlZL9I9m,rvofc       IRAN     6IRAN           MIDDLE EAST 20-341-450-9158AUTOMOBILE
687       Customer#000000687       UJTC3 WtzvoD3            VIETNAM  9VIETNAM        ASIA        31-385-479-7731FURNITURE 
695       Customer#000000695       fbT9dQCc,su7J            INDIA    4INDIA          ASIA        18-936-289-2834FURNITURE 
703       Customer#000000703       ge1GEYt4ewGUiSeqBA4r     FRANCE   3FRANCE         EUROPE      16-611-152-6168AUTOMOBILE
711       Customer#000000711       EmACeG3r2Y9bxf7KLLgX,    MOROCCO  3MOROCCO        AFRICA      25-981-702-2688MACHINERY 
719       Customer#000000719       wry Gj3xd8QX             MOROCCO  4MOROCCO        AFRICA      25-713-626-7453HOUSEHOLD 
727       Customer#000000727       wLIX8hKnk0q              CHINA    9CHINA          ASIA        28-258-150-5501FURNITURE 
735       Customer#000000735       8Gn WOTY4cgGaoHwez       ETHIOPIA 3ETHIOPIA       AFRICA      15-529-946-5483BUILDING  
743       Customer#000000743       WJ  lVLsFSgZJCHHLqwRmv   SAUDI ARA6SAUDI ARABIA   MIDDLE EAST 30-255-708-4310HOUSEHOLD 
751       Customer#000000751       e OSrreG6sx7l1t3wA       ALGERIA  7ALGERIA        AFRICA      10-414-603-4896FURNITURE 
759       Customer#000000759       IX1uj4NFhOmu0V xDtiYzH   ARGENTINA3ARGENTINA      AMERICA     11-402-797-5419FURNITURE 
767       Customer#000000767       9f3 XsYXdvP0E39ZBi7      PERU     9PERU           AMERICA     27-413-625-3829BUILDING  
775       Customer#000000775       Cg3M4gTXeIY7ll           PERU     6PERU           AMERICA     27-411-511-7760BUILDING  
783       Customer#000000783       01bR7OOM6zP              ARGENTINA5ARGENTINA      AMERICA     11-832-917-1081FURNITURE 
791       Customer#000000791       3ZWQ5xexnnL              JORDAN   7JORDAN         MIDDLE EAST 23-579-209-1803HOUSEHOLD 
799       Customer#000000799       LVk8ljWeIYTQQFMK         JAPAN    5JAPAN          ASIA        22-808-631-9060MACHINERY 
807       Customer#000000807       zKjtrn5                  PERU     0PERU           AMERICA     27-269-356-7526MACHINERY 
815       Customer#000000815       TmpTFwt3b0 WQUmljE1LKbg  JAPAN    9JAPAN          ASIA        22-203-767-2573HOUSEHOLD 
823       Customer#000000823       HuoOuJLxx7S8Y            ALGERIA  0ALGERIA        AFRICA      10-978-771-6904AUTOMOBILE
831       Customer#000000831       1DyQwHuUncB7BSn          SAUDI ARA5SAUDI ARABIA   MIDDLE EAST 30-689-508-4466AUTOMOBILE
839       Customer#000000839       Ch8 wZk5UKK45BSq1uZ      RUSSIA   8RUSSIA         EUROPE      32-636-672-9419HOUSEHOLD 
847       Customer#000000847       oR9VbMI LkR2GU           UNITED KI5UNITED KINGDOM EUROPE      33-725-829-3868HOUSEHOLD 
855       Customer#000000855       i8mS 0Plk2tI8HG1Mnzj8v5  ARGENTINA4ARGENTINA      AMERICA     11-242-176-2448BUILDING  
863       Customer#000000863        oaBBxuQLKPawG1yq        CANADA   2CANADA         AMERICA     13-405-467-3158AUTOMOBILE
871       Customer#000000871       KcLmBKitbx7NvU7bp        SAUDI ARA1SAUDI ARABIA   MIDDLE EAST 30-624-378-3184HOUSEHOLD 
879       Customer#000000879       EJcG18hFrS0S             BRAZIL   6BRAZIL         AMERICA     12-552-583-6838HOUSEHOLD 
887       Customer#000000887       CoInl1fmf5M              ARGENTINA7ARGENTINA      AMERICA     11-676-377-6177MACHINERY 
895       Customer#000000895       MDaJr8ekGTS79bS7         ALGERIA  2ALGERIA        AFRICA      10-754-165-6972AUTOMOBILE
903       Customer#000000903       URTiQupkhObWG            GERMANY  0GERMANY        EUROPE      17-435-594-7597FURNITURE 
911       Customer#000000911       VS0fia,lJ RvUf6          JORDAN   9JORDAN         MIDDLE EAST 23-111-293-7537BUILDING  
919       Customer#000000919       cHGtsqV                  INDONESIA5INDONESIA      ASIA        19-650-940-5279MACHINERY 
927       Customer#000000927       Uy7xvOwo4Ndha1tSxDKrQ gX PERU     4PERU           AMERICA     27-490-273-7153MACHINERY 
935       Customer#000000935       XkVT4jvetY4JV76IAkd      ALGERIA  8ALGERIA        AFRICA      10-372-637-1000MACHINERY 
943       Customer#000000943       74dBRGOKLFEQEqCgH2x8W    ETHIOPIA 6ETHIOPIA       AFRICA      15-692-172-4997FURNITURE 
951       Customer#000000951       PnC4Xl                   ALGERIA  9ALGERIA        AFRICA      10-998-229-9679FURNITURE 
959       Customer#000000959       O FdrkZ                  EGYPT    7EGYPT          MIDDLE EAST 14-303-776-7827FURNITURE 
967       Customer#000000967       xKdAl6HSWvAmptzHgQHX     UNITED KI7UNITED KINGDOM EUROPE      33-212-989-7892BUILDING  
975       Customer#000000975       qPFceGMB0xDjY6BhTGdIxe   MOZAMBIQU9MOZAMBIQUE     AFRICA      26-284-158-6168FURNITURE 
983       Customer#000000983       9jgCxRufEbwbGwW0PmG1     GERMANY  0GERMANY        EUROPE      17-157-704-3892BUILDING  
991       Customer#000000991       dK1Gzw                   VIETNAM  5VIETNAM        ASIA        31-521-257-2320AUTOMOBILE
999       Customer#000000999       r2SFEmfqrRu3M7ouE        MOZAMBIQU8MOZAMBIQUE     AFRICA      26-171-106-6878BUILDING  
1007      Customer#000001007       PfH0lw8                  INDONESIA1INDONESIA      ASIA        19-376-934-3698MACHINERY 
1015      Customer#000001015       RDJWEmcAk4GC8            IRAN     7IRAN           MIDDLE EAST 20-751-899-7460HOUSEHOLD 
1023      Customer#000001023       w8 oxHcOTUiF8dOr,ktZ     PERU     1PERU           AMERICA     27-105-962-9510AUTOMOBILE
1031      Customer#000001031       dwCYOftUgV               VIETNAM  2VIETNAM        ASIA        31-700-642-5399AUTOMOBILE
1039      Customer#000001039       F602TgKj                 IRAN     6IRAN           MIDDLE EAST 20-931-720-4753FURNITURE 
1047      Customer#000001047       h5iBRMsym,y6LLSQU2       INDONESIA7INDONESIA      ASIA        19-641-405-2280BUILDING  
1055      Customer#000001055       Z3AggyEMPME2hqq          GERMANY  4GERMANY        EUROPE      17-672-272-4640HOUSEHOLD 
1063      Customer#000001063       yHVWD7y                  VIETNAM  3VIETNAM        ASIA        31-661-285-1184MACHINERY 
1071      Customer#000001071       PgCAYL2LEwE7v7Pk4dYpRe   MOZAMBIQU6MOZAMBIQUE     AFRICA      26-187-876-4083MACHINERY 
1079      Customer#000001079       cOyd7wsHI                ROMANIA  6ROMANIA        EUROPE      29-619-385-8288AUTOMOBILE
1087      Customer#000001087       ETOH68urIxK839           VIETNAM  1VIETNAM        ASIA        31-295-451-9866MACHINERY 
1095      Customer#000001095       JtyQvLlCI ZP             INDONESIA8INDONESIA      ASIA        19-933-117-4073MACHINERY 
1103      Customer#000001103       kbYrf                    MOZAMBIQU0MOZAMBIQUE     AFRICA      26-355-533-3048AUTOMOBILE
1111      Customer#000001111       gavpg6e                  FRANCE   7FRANCE         EUROPE      16-490-769-4503MACHINERY 
1119      Customer#000001119       ER5vABifV766q5f0FN       SAUDI ARA7SAUDI ARABIA   MIDDLE EAST 30-863-240-2519AUTOMOBILE
1127      Customer#000001127       nq1w3VhKie4I3ZquE        IRAN     6IRAN           MIDDLE EAST 20-208-330-4528AUTOMOBILE
1135      Customer#000001135       cONv9cxslXOefPzhUQbGnM   IRAQ     6IRAQ           MIDDLE EAST 21-463-348-8428FURNITURE 
1143      Customer#000001143       9tfTGdYHyZXtXb           EGYPT    6EGYPT          MIDDLE EAST 14-484-853-7238AUTOMOBILE
1151      Customer#000001151       ratQBQ4rYv               GERMANY  4GERMANY        EUROPE      17-640-145-1815BUILDING  
1159      Customer#000001159       IAnWq4Y                  BRAZIL   4BRAZIL         AMERICA     12-908-762-9680HOUSEHOLD 
1167      Customer#000001167       gNYGOcGkJu3              ROMANIA  8ROMANIA        EUROPE      29-811-224-9243FURNITURE 
1175      Customer#000001175       olj7nLYgBZ526MNBg9CV7w   EGYPT    9EGYPT          MIDDLE EAST 14-967-788-3822FURNITURE 
1183      Customer#000001183       qdIqRUfpmvtWo0NGsyi4qy   ARGENTINA5ARGENTINA      AMERICA     11-774-319-3399BUILDING  
1191      Customer#000001191       K9J7dhIXDB2kgubtIVdR     ROMANIA  1ROMANIA        EUROPE      29-115-384-9449AUTOMOBILE
1199      Customer#000001199       sQJZJRAgYrZY0gP          MOZAMBIQU9MOZAMBIQUE     AFRICA      26-194-494-8328AUTOMOBILE
1207      Customer#000001207       tDZe2FlIxGjrf9x,n6N      CANADA   3CANADA         AMERICA     13-460-239-9497AUTOMOBILE
1215      Customer#000001215       oAvLu8VcRg9FN            MOZAMBIQU8MOZAMBIQUE     AFRICA      26-181-416-4612MACHINERY 
1223      Customer#000001223       ,I0bRfCGE5               IRAQ     3IRAQ           MIDDLE EAST 21-542-860-3780BUILDING  
1231      Customer#000001231       qJWtxdKmKWc              INDONESIA1INDONESIA      ASIA        19-472-968-6722AUTOMOBILE
1239      Customer#000001239       ,K7wNII                  SAUDI ARA2SAUDI ARABIA   MIDDLE EAST 30-617-625-2182FURNITURE 
1247      Customer#000001247       q5,Og3ezW3jSUtbwK        ALGERIA  8ALGERIA        AFRICA      10-508-273-2706MACHINERY 
1255      Customer#000001255       UC6I32JjBU62t4WgDe e2    KENYA    4KENYA          AFRICA      24-134-513-6046FURNITURE 
1263      Customer#000001263       MXA4v0x                  INDONESIA8INDONESIA      ASIA        19-340-842-4940MACHINERY 
1271      Customer#000001271       S7fmHdk                  KENYA    4KENYA          AFRICA      24-755-785-5735HOUSEHOLD 
1279      Customer#000001279       fkrzLacsqCnwU            KENYA    9KENYA          AFRICA      24-693-221-3561BUILDING  
1287      Customer#000001287       8CaksGsCJOK3             MOROCCO  2MOROCCO        AFRICA      25-906-866-2866MACHINERY 
1295      Customer#000001295       kded3b                   UNITED ST0UNITED STATES  AMERICA     34-396-764-1097BUILDING  
1303      Customer#000001303       MarfB1lCCs2MZ            ETHIOPIA 5ETHIOPIA       AFRICA      15-901-312-6722MACHINERY 
1311      Customer#000001311       rcff2L75vK5EOUaP         JORDAN   9JORDAN         MIDDLE EAST 23-440-690-9155FURNITURE 
1319      Customer#000001319       c5M1KcH60                INDONESIA8INDONESIA      ASIA        19-155-758-1279MACHINERY 
1327      Customer#000001327       LBVMBxjl                 JAPAN    4JAPAN          ASIA        22-242-253-6280MACHINERY 
1335      Customer#000001335       VeQAJlVqZgl0adTxSpZ      IRAN     3IRAN           MIDDLE EAST 20-479-757-3755BUILDING  
1343      Customer#000001343       WtCLJBdyc                CHINA    6CHINA          ASIA        28-773-487-9937AUTOMOBILE
1351      Customer#000001351       NYMFfkNlCGoT             ARGENTINA4ARGENTINA      AMERICA     11-989-271-6583FURNITURE 
1359      Customer#000001359       F5XtTR5Ke                IRAQ     3IRAQ           MIDDLE EAST 21-548-215-5804FURNITURE 
1367      Customer#000001367       gN803k703pZ1Y            RUSSIA   0RUSSIA         EUROPE      32-883-106-2168HOUSEHOLD 
1375      Customer#000001375       lpKhW7g QK7Y13sxKlRvR    KENYA    2KENYA          AFRICA      24-510-170-8080BUILDING  
1383      Customer#000001383       bSLtrtrAaAky9GZ          MOROCCO  2MOROCCO        AFRICA      25-691-921-3725AUTOMOBILE
1391      Customer#000001391       7MqN5yFijW6Yua7LVU6i7    UNITED KI2UNITED KINGDOM EUROPE      33-653-554-6475FURNITURE 
1399      Customer#000001399       FOuY,e                   ALGERIA  1ALGERIA        AFRICA      10-189-785-1621AUTOMOBILE
1407      Customer#000001407       zZsTZ3nI                 KENYA    1KENYA          AFRICA      24-963-765-6394BUILDING  
1415      Customer#000001415       x,hzUUAZ9w7ndksL         VIETNAM  9VIETNAM        ASIA        31-657-969-8641BUILDING  
1423      Customer#000001423       9BcCj8CLsqyl             VIETNAM  7VIETNAM        ASIA        31-504-536-7474FURNITURE 
1431      Customer#000001431       l3LM2d2T1n c7yI4sOfpEbb  JORDAN   5JORDAN         MIDDLE EAST 23-218-509-9360AUTOMOBILE
1439      Customer#000001439       IGGK4SXvT5ioAeT2fbVY     VIETNAM  9VIETNAM        ASIA        31-803-170-3968AUTOMOBILE
1447      Customer#000001447       pHkyNkViDja,dZVNg4bEEbic PERU     8PERU           AMERICA     27-827-923-9793BUILDING  
1455      Customer#000001455       MrDN0cvhoLZ ioRLZCR      CANADA   7CANADA         AMERICA     13-243-352-1370MACHINERY 
1463      Customer#000001463       WD3OuRpJ0NVj2qslr        GERMANY  9GERMANY        EUROPE      17-659-460-1509MACHINERY 
1471      Customer#000001471       lbRP,tSo,eQT             ETHIOPIA 2ETHIOPIA       AFRICA      15-336-635-5456AUTOMOBILE
1479      Customer#000001479       KDZMMuMVSWQPkGpoTUE0G 1  MOZAMBIQU9MOZAMBIQUE     AFRICA      26-490-160-4093BUILDING  
1487      Customer#000001487       AJXUi2qFVKfypmmpTE       PERU     3PERU           AMERICA     27-142-471-7601FURNITURE 
1495      Customer#000001495       78w5H7VJSo0Ps,jqeoCWS    IRAN     7IRAN           MIDDLE EAST 20-302-941-4164FURNITURE 
1503      Customer#000001503       9fFMPuIIatxmXEDe         BRAZIL   7BRAZIL         AMERICA     12-883-870-3915FURNITURE 
1511      Customer#000001511       Lh9VKgOjqeJ5P5v          EGYPT    9EGYPT          MIDDLE EAST 14-740-128-6809MACHINERY 
1519      Customer#000001519       ersLKVkITqd,b7yCM        KENYA    7KENYA          AFRICA      24-638-776-4011BUILDING  
1527      Customer#000001527       486JIE                   UNITED ST0UNITED STATES  AMERICA     34-109-635-7992FURNITURE 
1535      Customer#000001535       2l8xLuwaicTTg5R          UNITED KI8UNITED KINGDOM EUROPE      33-190-769-9937FURNITURE 
1543      Customer#000001543       IKgaPQRsONf              CHINA    4CHINA          ASIA        28-432-741-5579MACHINERY 
1551      Customer#000001551       GSs9E1btXLKkSgkCA        KENYA    8KENYA          AFRICA      24-479-951-5915BUILDING  
1559      Customer#000001559       0rOzDCEPki4zpeqXx5nW     ALGERIA  2ALGERIA        AFRICA      10-724-488-3461FURNITURE 
1567      Customer#000001567       D XMRaJOpRqLttO8yi       UNITED ST0UNITED STATES  AMERICA     34-125-530-3646BUILDING  
1575      Customer#000001575       Ntyf,WOVz9hrnESfXT6gBxej ALGERIA  5ALGERIA        AFRICA      10-949-816-5009AUTOMOBILE
1583      Customer#000001583       og6OTS,QKN2BidNDSZd0yB   JORDAN   1JORDAN         MIDDLE EAST 23-387-395-2622BUILDING  
1591      Customer#000001591       ZLJNTInW                 INDONESIA3INDONESIA      ASIA        19-917-266-7437FURNITURE 
1599      Customer#000001599       DbZoJYdsMvL8hE           IRAQ     9IRAQ           MIDDLE EAST 21-449-329-6722MACHINERY 
1607      Customer#000001607       JrtvTEYpFdqK68WSabydH6dz UNITED KI5UNITED KINGDOM EUROPE      33-779-256-3077FURNITURE 
1615      Customer#000001615       AWqpPsmhK,               CHINA    9CHINA          ASIA        28-859-723-3060MACHINERY 
1623      Customer#000001623       azlsfbL,uqLb2T1wCn5      UNITED KI0UNITED KINGDOM EUROPE      33-434-739-9868HOUSEHOLD 
1631      Customer#000001631       TEZnHT8B6dqZw9,OoyNr     JORDAN   8JORDAN         MIDDLE EAST 23-141-650-6359BUILDING  
1639      Customer#000001639       QWbeop69wQqRFQbySM7WqP   ARGENTINA7ARGENTINA      AMERICA     11-463-985-7117AUTOMOBILE
1647      Customer#000001647       aLfdvxbHzfKz2            MOZAMBIQU3MOZAMBIQUE     AFRICA      26-865-484-1374HOUSEHOLD 
1655      Customer#000001655       DjCE7uReh1B,,ikdSh       ETHIOPIA 0ETHIOPIA       AFRICA      15-530-646-2435BUILDING  
1663      Customer#000001663       7PGRXPj1HXV              MOZAMBIQU5MOZAMBIQUE     AFRICA      26-906-877-6767HOUSEHOLD 
1671      Customer#000001671       6yWHFFBO5YDpHN           BRAZIL   9BRAZIL         AMERICA     12-376-761-6087HOUSEHOLD 
1679      Customer#000001679       EBr12ymXS5u3,9Bh6Cd8     CHINA    0CHINA          ASIA        28-398-427-6935HOUSEHOLD 
1687      Customer#000001687       lNxhAZMB,t1bbxFz         UNITED KI4UNITED KINGDOM EUROPE      33-592-399-7751AUTOMOBILE
1695      Customer#000001695       ihGFlPO39VGgr7xRcR7      MOZAMBIQU2MOZAMBIQUE     AFRICA      26-987-428-6552AUTOMOBILE
1703      Customer#000001703       7qJL pH9GSS              ROMANIA  0ROMANIA        EUROPE      29-516-567-7578BUILDING  
1711      Customer#000001711       Mhg8c9I                  MOROCCO  7MOROCCO        AFRICA      25-332-665-3115MACHINERY 
1719      Customer#000001719       eOix0jv6gCP34oQBO2i2z1Uu INDONESIA7INDONESIA      ASIA        19-181-968-6223BUILDING  
1727      Customer#000001727       g7iJ1HSEmxE1sd4lWLV XcE  UNITED KI7UNITED KINGDOM EUROPE      33-978-833-6890AUTOMOBILE
1735      Customer#000001735       59,bPx BNSZ1             IRAN     6IRAN           MIDDLE EAST 20-105-104-5444HOUSEHOLD 
1743      Customer#000001743       F 5AwQdqqG4K q Ra2AZ0D   MOZAMBIQU1MOZAMBIQUE     AFRICA      26-131-342-9368HOUSEHOLD 
1751      Customer#000001751       8KIBa2IJPXquM            GERMANY  8GERMANY        EUROPE      17-592-693-5989HOUSEHOLD 
1759      Customer#000001759       2hzwTzhbdHJlHbT          SAUDI ARA4SAUDI ARABIA   MIDDLE EAST 30-496-872-7106MACHINERY 
1767      Customer#000001767       ddqHp2,Ylt               JAPAN    4JAPAN          ASIA        22-432-833-4759AUTOMOBILE
1775      Customer#000001775       RUY1tS8uC                BRAZIL   1BRAZIL         AMERICA     12-100-919-8118MACHINERY 
1783      Customer#000001783       ey2RVFXAj5c1qi           CANADA   7CANADA         AMERICA     13-709-634-6622BUILDING  
1791      Customer#000001791       nEuCQJ1,wiJUq7k05FED7j6  INDIA    0INDIA          ASIA        18-982-415-7649HOUSEHOLD 
1799      Customer#000001799       07tCCGrmdFwcXYno         SAUDI ARA9SAUDI ARABIA   MIDDLE EAST 30-330-933-4447BUILDING  
1807      Customer#000001807       jlGhIS6zaYIfu9tWFHAyDKV  FRANCE   2FRANCE         EUROPE      16-131-420-9394MACHINERY 
1815      Customer#000001815       wXx75IZkzX3hsqx5H,       JORDAN   6JORDAN         MIDDLE EAST 23-643-915-8553BUILDING  
1823      Customer#000001823       ci7lCq                   ROMANIA  0ROMANIA        EUROPE      29-524-893-8465FURNITURE 
1831      Customer#000001831       DcW02etJU0N2SmSs3        JORDAN   2JORDAN         MIDDLE EAST 23-375-223-7438FURNITURE 
1839      Customer#000001839       QKjHd6wOQJaxJCOqH2       ETHIOPIA 7ETHIOPIA       AFRICA      15-862-823-9345AUTOMOBILE
1847      Customer#000001847       g12l6sqk5YNADO,NE        MOZAMBIQU2MOZAMBIQUE     AFRICA      26-705-816-3445MACHINERY 
1855      Customer#000001855       REHQRPduxffK             JORDAN   1JORDAN         MIDDLE EAST 23-401-436-3472MACHINERY 
1863      Customer#000001863       kfPxNgJute862Kvop        MOZAMBIQU1MOZAMBIQUE     AFRICA      26-582-716-1825FURNITURE 
1871      Customer#000001871       ,B2hG X84                MOROCCO  2MOROCCO        AFRICA      25-149-555-5439AUTOMOBILE
1879      Customer#000001879       DsH91sbfSoNl3Ohor9NQ     PERU     5PERU           AMERICA     27-928-556-7752HOUSEHOLD 
1887      Customer#000001887       F9k42yQM7                IRAN     0IRAN           MIDDLE EAST 20-465-244-4231AUTOMOBILE
1895      Customer#000001895       PAv4VeG04NX              JAPAN    8JAPAN          ASIA        22-299-404-2797HOUSEHOLD 
1903      Customer#000001903       oNu,vFSWInYzj5wIB5khm    MOROCCO  9MOROCCO        AFRICA      25-867-320-8730FURNITURE 
1911      Customer#000001911       F9kOxmO                  ARGENTINA4ARGENTINA      AMERICA     11-328-282-9573HOUSEHOLD 
1919      Customer#000001919       lnfRcS                   CHINA    5CHINA          ASIA        28-624-188-1882HOUSEHOLD 
1927      Customer#000001927       V4zstahq,OaYcbh2IeSkJ    ARGENTINA2ARGENTINA      AMERICA     11-427-796-2088AUTOMOBILE
1935      Customer#000001935       2SwVYEBhbhWTTW           INDONESIA6INDONESIA      ASIA        19-918-762-4274HOUSEHOLD 
1943      Customer#000001943       sH4nc83Lh,6A2            CANADA   4CANADA         AMERICA     13-398-855-4152AUTOMOBILE
1951      Customer#000001951       NOXYVa52HyF5l            ALGERIA  9ALGERIA        AFRICA      10-186-119-1531MACHINERY 
1959      Customer#000001959       NMDtn0GA,CLrZ            GERMANY  6GERMANY        EUROPE      17-729-438-6899AUTOMOBILE
1967      Customer#000001967       F1wAzk                   KENYA    2KENYA          AFRICA      24-282-474-4323BUILDING  
1975      Customer#000001975       Xzyjsmoapfp              ETHIOPIA 9ETHIOPIA       AFRICA      15-119-536-4956MACHINERY 
1983      Customer#000001983       KFNKCU                   ALGERIA  0ALGERIA        AFRICA      10-549-429-5865FURNITURE 
1991      Customer#000001991       REzgRDc,2RF4ayaV3b3gZh   INDONESIA3INDONESIA      ASIA        19-624-649-9678FURNITURE 
1999      Customer#000001999       y8mRnn                   BRAZIL   0BRAZIL         AMERICA     12-366-757-2947AUTOMOBILE
2007      Customer#000002007       ,sUk kDCWG1Oa QdRqfI     MOZAMBIQU7MOZAMBIQUE     AFRICA      26-943-344-8596BUILDING  
2015      Customer#000002015       pnHOFtSK7IYUaG           BRAZIL   2BRAZIL         AMERICA     12-542-826-3556BUILDING  
2023      Customer#000002023       SL0Lc5frokhdhoqTqK       MOZAMBIQU5MOZAMBIQUE     AFRICA      26-603-958-3519HOUSEHOLD 
2031      Customer#000002031       8TlGmO 2ZfzFbmI          CHINA    0CHINA          ASIA        28-160-839-2070HOUSEHOLD 
2039      Customer#000002039       pAyeB4g6sPrKxIZxlFSAd    RUSSIA   7RUSSIA         EUROPE      32-435-161-4842FURNITURE 
2047      Customer#000002047       DFhVW0BgQ4kdCoZATm       IRAN     9IRAN           MIDDLE EAST 20-268-864-9094BUILDING  
2055      Customer#000002055       zwYg0h1F8Bjy             INDIA    3INDIA          ASIA        18-943-966-7076FURNITURE 
2063      Customer#000002063       ,wVVUWO                  INDIA    9INDIA          ASIA        18-944-503-8763FURNITURE 
2071      Customer#000002071       0g5mpIwGXQwMm6imHv       JAPAN    2JAPAN          ASIA        22-757-584-6375BUILDING  
2079      Customer#000002079       6KsK0Ab                  ETHIOPIA 1ETHIOPIA       AFRICA      15-189-835-1955AUTOMOBILE
2087      Customer#000002087       mjs ph o4Mra             UNITED ST6UNITED STATES  AMERICA     34-446-342-9004FURNITURE 
2095      Customer#000002095       0 OueqmMRWmYNpH          ARGENTINA9ARGENTINA      AMERICA     11-167-921-7452MACHINERY 
2103      Customer#000002103       6Skv,C7gvWx9Z1cweOCpuzx  EGYPT    1EGYPT          MIDDLE EAST 14-533-673-9453MACHINERY 
2111      Customer#000002111       CdTcVTLYYbonHBY          UNITED KI4UNITED KINGDOM EUROPE      33-583-811-8323FURNITURE 
2119      Customer#000002119       z4aA4r9JSUU4HSn7,Pnx85   IRAQ     3IRAQ           MIDDLE EAST 21-950-275-5330AUTOMOBILE
2127      Customer#000002127       OcFhQNb4xLqkKhWSFlxKqHC  GERMANY  7GERMANY        EUROPE      17-341-326-2595HOUSEHOLD 
2135      Customer#000002135       DF7vVMv8m2o              VIETNAM  7VIETNAM        ASIA        31-755-988-1710MACHINERY 
2143      Customer#000002143       iSIlVncg,sc              INDONESIA9INDONESIA      ASIA        19-644-190-6006BUILDING  
2151      Customer#000002151       0arslpG                  PERU     4PERU           AMERICA     27-658-564-8058AUTOMOBILE
2159      Customer#000002159       jR6oC4                   CANADA   2CANADA         AMERICA     13-395-184-5043BUILDING  
2167      Customer#000002167       6,szosH                  CHINA    4CHINA          ASIA        28-710-982-3626HOUSEHOLD 
2175      Customer#000002175       zlM3JyQghwlKmslcpzn9fJEf BRAZIL   8BRAZIL         AMERICA     12-389-626-4533BUILDING  
2183      Customer#000002183       uYYl2v                   MOROCCO  6MOROCCO        AFRICA      25-281-145-5707AUTOMOBILE
2191      Customer#000002191        GZDL8ov p2              GERMANY  6GERMANY        EUROPE      17-725-402-2315MACHINERY 
2199      Customer#000002199       XU,ukjy6wognlkmXh        ETHIOPIA 2ETHIOPIA       AFRICA      15-897-895-7906MACHINERY 
2207      Customer#000002207       BxTaTOJW1N8OWHp0DGb      INDIA    6INDIA          ASIA        18-424-160-5372FURNITURE 
2215      Customer#000002215       R0gKVPmbmeQbi0yta        CANADA   5CANADA         AMERICA     13-186-413-6271FURNITURE 
2223      Customer#000002223       KODEs8ODrVaG7            UNITED ST9UNITED STATES  AMERICA     34-834-605-9518MACHINERY 
2231      Customer#000002231       DE2okAFYvQI1RVs          MOZAMBIQU9MOZAMBIQUE     AFRICA      26-287-752-3683AUTOMOBILE
2239      Customer#000002239       CjLagl1FjT1y20NU         EGYPT    2EGYPT          MIDDLE EAST 14-605-567-8164HOUSEHOLD 
2247      Customer#000002247       02q6OfL0u                ETHIOPIA 0ETHIOPIA       AFRICA      15-628-927-5015MACHINERY 
2255      Customer#000002255       CjGNhG4CajWoTq7TUme      CANADA   1CANADA         AMERICA     13-959-624-6828MACHINERY 
2263      Customer#000002263       vYrgF,CH                 BRAZIL   6BRAZIL         AMERICA     12-113-477-5594AUTOMOBILE
2271      Customer#000002271       pFveYg2OsEc6hu9t9JrGb    GERMANY  1GERMANY        EUROPE      17-172-418-8721AUTOMOBILE
2279      Customer#000002279       FH RyOdavE               UNITED KI4UNITED KINGDOM EUROPE      33-679-877-3026MACHINERY 
2287      Customer#000002287       QIVHLCmmKzOxanCfyJd      CANADA   5CANADA         AMERICA     13-502-193-7694AUTOMOBILE
2295      Customer#000002295       5UB1DSum                 KENYA    5KENYA          AFRICA      24-775-629-3971FURNITURE 
2303      Customer#000002303       5nLAzMCWZfni6r           ALGERIA  4ALGERIA        AFRICA      10-600-902-9874FURNITURE 
2311      Customer#000002311       9buy2pFYxFcv68           ETHIOPIA 9ETHIOPIA       AFRICA      15-384-234-5937HOUSEHOLD 
2319      Customer#000002319       zfEXnSqJNRlbdX2yVnDgzla  RUSSIA   3RUSSIA         EUROPE      32-780-133-8552HOUSEHOLD 
2327      Customer#000002327       gV VOZ                   UNITED KI4UNITED KINGDOM EUROPE      33-298-887-2107AUTOMOBILE
2335      Customer#000002335       kKRD LM,Z                ETHIOPIA 4ETHIOPIA       AFRICA      15-865-154-3940BUILDING  
2343      Customer#000002343       KVvMzKiTPrsFZFrfh        SAUDI ARA4SAUDI ARABIA   MIDDLE EAST 30-752-511-7987AUTOMOBILE
2351      Customer#000002351       y5NVwFw7SH2belZwOLXR     MOROCCO  8MOROCCO        AFRICA      25-347-869-6075MACHINERY 
2359      Customer#000002359       fggbpw3mpq3TIJQM6ph,4E   CHINA    7CHINA          ASIA        28-759-121-1856HOUSEHOLD 
2367      Customer#000002367       oj2b3R6H97,mQt1ORy       UNITED ST3UNITED STATES  AMERICA     34-917-987-6072BUILDING  
2375      Customer#000002375       jWnh8Y4hyacZ             UNITED KI4UNITED KINGDOM EUROPE      33-609-607-7958FURNITURE 
2383      Customer#000002383       IXHs5jlSvP,oUWrqZesebT   RUSSIA   4RUSSIA         EUROPE      32-332-350-9172AUTOMOBILE
2391      Customer#000002391       Ald7Vur                  UNITED ST3UNITED STATES  AMERICA     34-102-974-8266BUILDING  
2399      Customer#000002399       44inWDEB8vY3XtctuL7a9    ARGENTINA6ARGENTINA      AMERICA     11-212-682-7579BUILDING  
2407      Customer#000002407       6p1kfu                   PERU     0PERU           AMERICA     27-799-361-9198FURNITURE 
2415      Customer#000002415       sZtJ7k                   ROMANIA  3ROMANIA        EUROPE      29-714-175-8862AUTOMOBILE
2423      Customer#000002423       0B9WIW pk8JfI8A          UNITED ST8UNITED STATES  AMERICA     34-667-831-5535MACHINERY 
2431      Customer#000002431       AHj9pylsjrs8pRe          ROMANIA  3ROMANIA        EUROPE      29-273-222-5244MACHINERY 
2439      Customer#000002439       3HxwM7FQJkdT1do,8b       IRAN     5IRAN           MIDDLE EAST 20-711-778-9601FURNITURE 
2447      Customer#000002447       SLGChosFlcmQYXcoT        EGYPT    7EGYPT          MIDDLE EAST 14-891-909-9477FURNITURE 
2455      Customer#000002455       RVn1ZSRtLqPlJLIZ         GERMANY  8GERMANY        EUROPE      17-829-938-9030AUTOMOBILE
2463      Customer#000002463       COIvQeMbRrn9EcNI         ARGENTINA5ARGENTINA      AMERICA     11-820-218-8313AUTOMOBILE
2471      Customer#000002471       pWBn3RAPKHrwYr2R         INDIA    2INDIA          ASIA        18-403-349-3607BUILDING  
2479      Customer#000002479       FgEqg,zj95mUaL           INDIA    1INDIA          ASIA        18-235-364-5440FURNITURE 
2487      Customer#000002487       sSe2DBA                  UNITED ST2UNITED STATES  AMERICA     34-697-289-1933FURNITURE 
2495      Customer#000002495       nJYSc8MnNXjAA,           UNITED KI6UNITED KINGDOM EUROPE      33-712-359-1206MACHINERY 
2503      Customer#000002503       h0km52Tfv                KENYA    9KENYA          AFRICA      24-813-512-2224AUTOMOBILE
2511      Customer#000002511       ufNs3LfTdXwZKI           KENYA    0KENYA          AFRICA      24-228-186-8023AUTOMOBILE
2519      Customer#000002519       98oLx9NZfCqzuLlcFy       GERMANY  8GERMANY        EUROPE      17-974-886-8845MACHINERY 
2527      Customer#000002527       GER3UG9                  RUSSIA   9RUSSIA         EUROPE      32-406-719-4318MACHINERY 
2535      Customer#000002535       7SoN5ykHuO3j391 PV0LaU0n JAPAN    9JAPAN          ASIA        22-961-868-8009FURNITURE 
2543      Customer#000002543       Oy15fqnloLPcQi60         UNITED ST6UNITED STATES  AMERICA     34-489-193-7384FURNITURE 
2551      Customer#000002551       vNWEs5v3k8PCkva          SAUDI ARA9SAUDI ARABIA   MIDDLE EAST 30-270-226-6921BUILDING  
2559      Customer#000002559       eVirrd O2tV6AObhZRlm     VIETNAM  0VIETNAM        ASIA        31-594-575-7357BUILDING  
2567      Customer#000002567        bagUO9wx2YMF2HfxzLL     ETHIOPIA 6ETHIOPIA       AFRICA      15-404-608-5356FURNITURE 
2575      Customer#000002575       zdTcT2fGYYLeR fC         RUSSIA   3RUSSIA         EUROPE      32-276-151-7615HOUSEHOLD 
2583      Customer#000002583       j9ZysRjVIzU              CANADA   2CANADA         AMERICA     13-306-685-4393MACHINERY 
2591      Customer#000002591       T9fEtEaEa                CHINA    6CHINA          ASIA        28-860-240-3222FURNITURE 
2599      Customer#000002599       G15RmNJTx                ETHIOPIA 4ETHIOPIA       AFRICA      15-826-674-5698MACHINERY 
2607      Customer#000002607       3tAdyrZGBtBqiBq8x2JXRM6  BRAZIL   1BRAZIL         AMERICA     12-490-721-1148HOUSEHOLD 
2615      Customer#000002615       NaJgUm                   INDIA    7INDIA          ASIA        18-980-207-5282BUILDING  
2623      Customer#000002623       q7iYA84kw0kb             UNITED ST6UNITED STATES  AMERICA     34-634-399-9531FURNITURE 
2631      Customer#000002631       LaKujC HPHsm1A2LhC58zx d JORDAN   8JORDAN         MIDDLE EAST 23-343-303-3062MACHINERY 
2639      Customer#000002639       Pvekqo33GQsZFJW          SAUDI ARA4SAUDI ARABIA   MIDDLE EAST 30-210-421-5059HOUSEHOLD 
2647      Customer#000002647       apIgUZ,B0jvmC15VI,4G8HI  FRANCE   8FRANCE         EUROPE      16-612-871-7339HOUSEHOLD 
2655      Customer#000002655       eLMqxvFF,ZRLVs1iM        JORDAN   0JORDAN         MIDDLE EAST 23-735-216-8133AUTOMOBILE
2663      Customer#000002663       MldJfPjdMKpr             EGYPT    1EGYPT          MIDDLE EAST 14-500-986-9290HOUSEHOLD 
2671      Customer#000002671       r7PFEEl8sFM              GERMANY  6GERMANY        EUROPE      17-345-196-3626MACHINERY 
2679      Customer#000002679       M ZHTULD GQ              SAUDI ARA6SAUDI ARABIA   MIDDLE EAST 30-231-244-8529FURNITURE 
2687      Customer#000002687       UPrsEuR                  INDIA    1INDIA          ASIA        18-714-318-1658BUILDING  
2695      Customer#000002695       IC6QCRDztFrdTUSzpao      INDONESIA5INDONESIA      ASIA        19-175-837-4230BUILDING  
2703      Customer#000002703       th1yffOcXJ               BRAZIL   3BRAZIL         AMERICA     12-617-126-5201HOUSEHOLD 
2711      Customer#000002711       QMSgu6gYCw,ja6tN         MOZAMBIQU6MOZAMBIQUE     AFRICA      26-970-549-5235HOUSEHOLD 
2719      Customer#000002719       6evzb4uHrk4j9WPrAF6oj06p JAPAN    2JAPAN          ASIA        22-518-962-1132MACHINERY 
2727      Customer#000002727       0DzhR34tyXK              IRAQ     8IRAQ           MIDDLE EAST 21-728-794-7120AUTOMOBILE
2735      Customer#000002735       RiSWddXOQzSX3r8          FRANCE   2FRANCE         EUROPE      16-241-973-5714FURNITURE 
2743      Customer#000002743       tOhEQ8Hs2GTY6Xfyqx9N     RUSSIA   4RUSSIA         EUROPE      32-664-525-8165AUTOMOBILE
2751      Customer#000002751       RhJBb7dc3B2              ALGERIA  6ALGERIA        AFRICA      10-888-955-1655MACHINERY 
2759      Customer#000002759       x1e4BVbKZt Bup6uZsOcYb   EGYPT    5EGYPT          MIDDLE EAST 14-449-990-4473HOUSEHOLD 
2767      Customer#000002767       7C4xjI0S1i7bolBC         ETHIOPIA 8ETHIOPIA       AFRICA      15-260-780-4397BUILDING  
2775      Customer#000002775       cP6TPcxL5                KENYA    3KENYA          AFRICA      24-646-867-9598FURNITURE 
2783      Customer#000002783       ,XqGFFo4OL7              PERU     7PERU           AMERICA     27-176-955-8405BUILDING  
2791      Customer#000002791       YQa148Gs6fgqYjB4GSz      FRANCE   0FRANCE         EUROPE      16-680-138-2109AUTOMOBILE
2799      Customer#000002799       KQQpT4VM9aZ15heLq6       BRAZIL   0BRAZIL         AMERICA     12-513-647-2032AUTOMOBILE
2807      Customer#000002807       xX67J7mWL                IRAQ     0IRAQ           MIDDLE EAST 21-157-265-8650HOUSEHOLD 
2815      Customer#000002815       7MMtRqelT5CmTdcyM        GERMANY  7GERMANY        EUROPE      17-289-610-2041FURNITURE 
2823      Customer#000002823       9exfFSL7thJoHxRC4ffabH,Z IRAQ     4IRAQ           MIDDLE EAST 21-617-147-9494HOUSEHOLD 
2831      Customer#000002831       mTRfGyG3lhZdrULOQL       IRAQ     0IRAQ           MIDDLE EAST 21-878-560-9339FURNITURE 
2839      Customer#000002839       8VQeLfCLJ9wxbwmo5        INDIA    6INDIA          ASIA        18-116-969-9683MACHINERY 
2847      Customer#000002847       vGyRfPO5dXChC            CHINA    5CHINA          ASIA        28-534-387-1593MACHINERY 
2855      Customer#000002855       r1gPSG8ArVv56QwEc7hnrf   ETHIOPIA 6ETHIOPIA       AFRICA      15-991-634-8645FURNITURE 
2863      Customer#000002863       Ilhj6Ly                  INDIA    8INDIA          ASIA        18-691-544-3860HOUSEHOLD 
2871      Customer#000002871        OvEjEkqvRv7yU           MOROCCO  4MOROCCO        AFRICA      25-279-640-9408MACHINERY 
2879      Customer#000002879       7kgpc6                   ARGENTINA4ARGENTINA      AMERICA     11-525-510-6341AUTOMOBILE
2887      Customer#000002887       rxHZg0pWt0n9unOOpEIo     JAPAN    8JAPAN          ASIA        22-136-717-1022BUILDING  
2895      Customer#000002895       1fs2Xv7G                 CANADA   0CANADA         AMERICA     13-251-168-2727HOUSEHOLD 
2903      Customer#000002903       p1twdF mA5tm             CANADA   6CANADA         AMERICA     13-236-715-5627AUTOMOBILE
2911      Customer#000002911       JEPGgZd                  ROMANIA  4ROMANIA        EUROPE      29-272-759-7846FURNITURE 
2919      Customer#000002919       p7JgN4qmZ43kiJhBYabiR M  UNITED KI8UNITED KINGDOM EUROPE      33-118-841-6853BUILDING  
2927      Customer#000002927       yQYVay3M43r              GERMANY  4GERMANY        EUROPE      17-112-106-6605HOUSEHOLD 
2935      Customer#000002935       PHvSx aJAPysnZtWu4       PERU     9PERU           AMERICA     27-119-536-4627FURNITURE 
2943      Customer#000002943       Rzhr8B4o                 INDONESIA8INDONESIA      ASIA        19-225-683-9700AUTOMOBILE
2951      Customer#000002951       TCr7JsZ3Cx               IRAQ     6IRAQ           MIDDLE EAST 21-789-467-3282BUILDING  
2959      Customer#000002959        RxI40GWkgdGn2ExLfnIA0bG VIETNAM  3VIETNAM        ASIA        31-192-481-7082MACHINERY 
2967      Customer#000002967       QuyTc84aCjPQ,3gm8bN9cqV  FRANCE   5FRANCE         EUROPE      16-480-355-8465AUTOMOBILE
2975      Customer#000002975       wSmZ2kS6C56FzWwWd2hTOIjt INDIA    9INDIA          ASIA        18-581-326-8515MACHINERY 
2983      Customer#000002983       HZtyIXJTJR WIPi          UNITED ST9UNITED STATES  AMERICA     34-962-873-9038MACHINERY 
2991      Customer#000002991       3,vParXxWwJm1f           INDIA    8INDIA          ASIA        18-533-664-5453FURNITURE 
2999      Customer#000002999       kQbtW areIrdN,BaVxqT     VIETNAM  2VIETNAM        ASIA        31-730-773-5961MACHINERY 
3007      Customer#000003007       RJksljcm81BgQWR oovq,8p  JORDAN   5JORDAN         MIDDLE EAST 23-202-110-9832FURNITURE 
3015      Customer#000003015       AAuSZWhs1r6hAEnTGF       ARGENTINA7ARGENTINA      AMERICA     11-856-691-5197MACHINERY 
3023      Customer#000003023       1gsEt9LLUI4zKMr          ETHIOPIA 6ETHIOPIA       AFRICA      15-247-291-4846AUTOMOBILE
3031      Customer#000003031       RAqhUPR5ucG UjNQTaP7     INDONESIA0INDONESIA      ASIA        19-390-778-8390AUTOMOBILE
3039      Customer#000003039       SgLXx qoBpalBlJSgY       KENYA    7KENYA          AFRICA      24-402-907-2158BUILDING  
3047      Customer#000003047       11vTrew0petj9j9tPhL22J   IRAN     0IRAN           MIDDLE EAST 20-748-348-8819AUTOMOBILE
3055      Customer#000003055       DjyEfT6cL f wWFCL8AM     UNITED KI8UNITED KINGDOM EUROPE      33-111-134-1663AUTOMOBILE
3063      Customer#000003063       GtslaPlL                 BRAZIL   6BRAZIL         AMERICA     12-699-213-2633BUILDING  
3071      Customer#000003071       2rctxgDbE                MOZAMBIQU5MOZAMBIQUE     AFRICA      26-923-581-9788AUTOMOBILE
3079      Customer#000003079       oczjNym6,GGh             VIETNAM  5VIETNAM        ASIA        31-564-466-8765FURNITURE 
3087      Customer#000003087       MapFNdGnSqsj             UNITED ST0UNITED STATES  AMERICA     34-614-492-8826HOUSEHOLD 
3095      Customer#000003095       e11O45aAgMw5SdUB85YBuX   IRAQ     6IRAQ           MIDDLE EAST 21-716-625-5464BUILDING  
3103      Customer#000003103       nHG8PoLbakHkblZ6         EGYPT    3EGYPT          MIDDLE EAST 14-519-705-4018AUTOMOBILE
3111      Customer#000003111       AItL5LkDaVi              ARGENTINA3ARGENTINA      AMERICA     11-939-597-6924BUILDING  
3119      Customer#000003119       w0MGOfVUiF               JORDAN   9JORDAN         MIDDLE EAST 23-208-761-6213AUTOMOBILE
3127      Customer#000003127       iZ5oP8hB8zFgqUB6i        RUSSIA   5RUSSIA         EUROPE      32-125-419-2070MACHINERY 
3135      Customer#000003135       hYxpGO                   JORDAN   4JORDAN         MIDDLE EAST 23-899-517-3958HOUSEHOLD 
3143      Customer#000003143       j1zcdnXC                 ARGENTINA0ARGENTINA      AMERICA     11-679-753-4950FURNITURE 
3151      Customer#000003151       OyiHDhfKU6e4g  g03SGs0R  VIETNAM  9VIETNAM        ASIA        31-245-933-4283BUILDING  
3159      Customer#000003159       CRVDedjnSrvIL7DVRS8e3j   UNITED ST8UNITED STATES  AMERICA     34-609-715-7506MACHINERY 
3167      Customer#000003167        ZKh4rAkehcNG,7rV63ASdlc UNITED KI1UNITED KINGDOM EUROPE      33-592-577-1286FURNITURE 
3175      Customer#000003175       pImV7S9BxID BFh1yoSaC    ARGENTINA0ARGENTINA      AMERICA     11-708-217-5178FURNITURE 
3183      Customer#000003183       ,DZqHWcVSw6qmlV2iuK      MOROCCO  4MOROCCO        AFRICA      25-923-710-8524BUILDING  
3191      Customer#000003191       5o1HzFbntYpYQNEo,        ROMANIA  9ROMANIA        EUROPE      29-547-795-6166MACHINERY 
3199      Customer#000003199       nfonIvSBumI              EGYPT    6EGYPT          MIDDLE EAST 14-684-334-9215AUTOMOBILE
3207      Customer#000003207       68BHTodlg7eAEMhqtEu5v    ROMANIA  5ROMANIA        EUROPE      29-107-793-5894MACHINERY 
3215      Customer#000003215       cBhI2 r1D,baIfCWr        MOZAMBIQU4MOZAMBIQUE     AFRICA      26-931-408-8972FURNITURE 
3223      Customer#000003223       ZO9sZioHkjk3riv5R1Zuin   IRAQ     8IRAQ           MIDDLE EAST 21-389-208-1518FURNITURE 
3231      Customer#000003231       GxM87gGY5hejA7QVCnkq3zK  MOROCCO  9MOROCCO        AFRICA      25-312-119-6044AUTOMOBILE
3239      Customer#000003239       oTbMEJQ                  PERU     8PERU           AMERICA     27-512-155-1034FURNITURE 
3247      Customer#000003247       cDp Mq6                  CANADA   5CANADA         AMERICA     13-421-159-3850MACHINERY 
3255      Customer#000003255       UcFotJ5uNR9              JAPAN    1JAPAN          ASIA        22-629-895-5349AUTOMOBILE
3263      Customer#000003263       Dk YI5Hxd32lV9l          ALGERIA  5ALGERIA        AFRICA      10-963-317-9876MACHINERY 
3271      Customer#000003271       WUYF02OOBj9SsHPj5        FRANCE   8FRANCE         EUROPE      16-623-822-3381FURNITURE 
3279      Customer#000003279       1KJ54pMTOXI              MOROCCO  2MOROCCO        AFRICA      25-849-191-4117MACHINERY 
3287      Customer#000003287       sQHRZJ95TegFUgE          VIETNAM  4VIETNAM        ASIA        31-804-490-2149MACHINERY 
3295      Customer#000003295       tTy32i5jYL7rfuMuIn XX    IRAN     3IRAN           MIDDLE EAST 20-759-465-6090AUTOMOBILE
3303      Customer#000003303       eKOiVQUPgxgeYP9kpAU      ALGERIA  3ALGERIA        AFRICA      10-980-130-1363MACHINERY 
3311      Customer#000003311       LzgAU65s                 EGYPT    6EGYPT          MIDDLE EAST 14-973-687-8564AUTOMOBILE
3319      Customer#000003319       tOseqTO8J8J              SAUDI ARA7SAUDI ARABIA   MIDDLE EAST 30-359-802-1191HOUSEHOLD 
3327      Customer#000003327       8FZL1drBmAYTJ            VIETNAM  9VIETNAM        ASIA        31-736-320-9059FURNITURE 
3335      Customer#000003335       ihV1x8bdIX8r             BRAZIL   0BRAZIL         AMERICA     12-875-514-7814FURNITURE 
3343      Customer#000003343       kyLc7nVZtCpTcPNUeF       RUSSIA   0RUSSIA         EUROPE      32-679-451-9047AUTOMOBILE
3351      Customer#000003351       xHJYJb                   UNITED ST9UNITED STATES  AMERICA     34-978-821-2475FURNITURE 
3359      Customer#000003359       gXr3CAqFuSMlCklkv3C      ETHIOPIA 3ETHIOPIA       AFRICA      15-484-130-5365HOUSEHOLD 
3367      Customer#000003367        VGCmL                   VIETNAM  8VIETNAM        ASIA        31-524-831-8078BUILDING  
3375      Customer#000003375       Bb53CZPB5q0Tun           GERMANY  9GERMANY        EUROPE      17-844-581-3483AUTOMOBILE
3383      Customer#000003383       JsF1iqioNNLe98cyMXKJ2ML0 PERU     4PERU           AMERICA     27-231-859-5877MACHINERY 
3391      Customer#000003391       9sW7tEPnadpfYQuVBhA      CANADA   5CANADA         AMERICA     13-608-349-8136BUILDING  
3399      Customer#000003399       j0A lyBKMTVrKbfdT7mk41Q  BRAZIL   1BRAZIL         AMERICA     12-609-751-3993FURNITURE 
3407      Customer#000003407       Mlf8MnosPFhhZ8NDCAoiOr   BRAZIL   7BRAZIL         AMERICA     12-406-799-4288FURNITURE 
3415      Customer#000003415       FPhMNazo,FHDQ            IRAN     8IRAN           MIDDLE EAST 20-382-334-6351FURNITURE 
3423      Customer#000003423       IKLeynlZ                 MOZAMBIQU9MOZAMBIQUE     AFRICA      26-206-297-1113BUILDING  
3431      Customer#000003431       V1BXysCWBmalLM9z20b      IRAQ     7IRAQ           MIDDLE EAST 21-410-799-2912HOUSEHOLD 
3439      Customer#000003439       Id8dRlg6DMktE2phvfl63Op  ETHIOPIA 8ETHIOPIA       AFRICA      15-422-428-6360MACHINERY 
3447      Customer#000003447       b9xYCpRJacVPblm iKkl5    MOROCCO  4MOROCCO        AFRICA      25-831-305-8416FURNITURE 
3455      Customer#000003455       sMYQ3FP,Lgptp8Oy         MOROCCO  2MOROCCO        AFRICA      25-563-803-8231HOUSEHOLD 
3463      Customer#000003463       qa6gXaFm2CUPncrWl,4ezikm RUSSIA   9RUSSIA         EUROPE      32-192-846-5339FURNITURE 
3471      Customer#000003471       tOHSAMbUm6CVZ2Beveo      EGYPT    4EGYPT          MIDDLE EAST 14-838-685-2737AUTOMOBILE
3479      Customer#000003479       XHwQAB7Ru7Vk             UNITED KI8UNITED KINGDOM EUROPE      33-893-173-9461MACHINERY 
3487      Customer#000003487       sw hhdU0atsYHLLP U       CHINA    8CHINA          ASIA        28-688-982-2816BUILDING  
3495      Customer#000003495       1PQtEp4Jur1O,jwj7GmzPj8k EGYPT    3EGYPT          MIDDLE EAST 14-374-837-8953MACHINERY 
3503      Customer#000003503       FzHYVZs                  INDIA    2INDIA          ASIA        18-783-253-6150AUTOMOBILE
3511      Customer#000003511       OMOlQeNpgN2rgzMAcFI      IRAQ     7IRAQ           MIDDLE EAST 21-783-167-2154FURNITURE 
3519      Customer#000003519       HDKv6y1ymV9X,0Oz18nbmy   BRAZIL   9BRAZIL         AMERICA     12-444-231-8588HOUSEHOLD 
3527      Customer#000003527       bl,,YCSggK7YTYn9CRSYQ    KENYA    2KENYA          AFRICA      24-265-503-4640BUILDING  
3535      Customer#000003535       OizJY87rRbBnD91WS        PERU     5PERU           AMERICA     27-904-363-3203AUTOMOBILE
3543      Customer#000003543       g1 1OQN1q                INDIA    1INDIA          ASIA        18-307-431-3274FURNITURE 
3551      Customer#000003551       cyLTJVmvhWmcR1Jz0z       EGYPT    6EGYPT          MIDDLE EAST 14-429-765-6299HOUSEHOLD 
3559      Customer#000003559       jUjiAuNDBGsVsxKhIQKUfW,0 UNITED KI7UNITED KINGDOM EUROPE      33-792-895-2707FURNITURE 
3567      Customer#000003567       hMuVen,nBvgGXAmwuZw7DM   VIETNAM  8VIETNAM        ASIA        31-222-114-8937HOUSEHOLD 
3575      Customer#000003575       se5htPjhOLdqC6DVqhnxc    EGYPT    6EGYPT          MIDDLE EAST 14-376-461-7660BUILDING  
3583      Customer#000003583       GKClWEWnTFFwJkVYE        IRAQ     1IRAQ           MIDDLE EAST 21-489-273-3018FURNITURE 
3591      Customer#000003591       AASeqM6FCR               BRAZIL   5BRAZIL         AMERICA     12-259-244-3341BUILDING  
3599      Customer#000003599       eOeQTyfF1z,FhX89iG4dI    JAPAN    2JAPAN          ASIA        22-720-918-8701HOUSEHOLD 
3607      Customer#000003607       nIXR9E0D0Yz5ZaKP7yREYSJ  VIETNAM  8VIETNAM        ASIA        31-269-781-9663AUTOMOBILE
3615      Customer#000003615       oz11MUkLZ3C9X4lq5Xf4hPIG JORDAN   8JORDAN         MIDDLE EAST 23-777-576-1307FURNITURE 
3623      Customer#000003623       7 LgEDWp1LjxR            INDONESIA0INDONESIA      ASIA        19-417-401-1284BUILDING  
3631      Customer#000003631       ipfxOoHShu9azTBZdWocBCdC CHINA    6CHINA          ASIA        28-514-463-2944HOUSEHOLD 
3639      Customer#000003639       n0SrNUTX9N2xYkjA         JORDAN   0JORDAN         MIDDLE EAST 23-303-304-2791HOUSEHOLD 
3647      Customer#000003647       3RofpkZn5oj GqGnf8CGUO   INDONESIA7INDONESIA      ASIA        19-563-619-5079HOUSEHOLD 
3655      Customer#000003655       rv2lVQv91GYD             CHINA    7CHINA          ASIA        28-916-792-8633BUILDING  
3663      Customer#000003663       TGvtN3wTG                UNITED ST1UNITED STATES  AMERICA     34-640-650-6603HOUSEHOLD 
3671      Customer#000003671       HPGzTz,o9                VIETNAM  8VIETNAM        ASIA        31-520-796-5906BUILDING  
3679      Customer#000003679       ,0knwwvd                 BRAZIL   4BRAZIL         AMERICA     12-898-773-6249MACHINERY 
3687      Customer#000003687       Tk1fifwfAB0fpaZX1LDrFA   CANADA   9CANADA         AMERICA     13-270-925-8464HOUSEHOLD 
3695      Customer#000003695       YXMAePhXwzYLBQv          INDIA    0INDIA          ASIA        18-229-540-7255FURNITURE 
3703      Customer#000003703       Vr89,inm6SJAWq an        ETHIOPIA 5ETHIOPIA       AFRICA      15-248-992-2110MACHINERY 
3711      Customer#000003711       CZ3dpTwGfQMT3HDKoI       ALGERIA  8ALGERIA        AFRICA      10-966-608-6708HOUSEHOLD 
3719      Customer#000003719        DDm W9M8Pk9y FfSV2w     ROMANIA  2ROMANIA        EUROPE      29-314-896-7795AUTOMOBILE
3727      Customer#000003727       bPR42GQXm9OWJ2F2xoOOdW9  FRANCE   1FRANCE         EUROPE      16-964-990-3112FURNITURE 
3735      Customer#000003735       76NcLSSxSHZxh            PERU     0PERU           AMERICA     27-590-953-4903MACHINERY 
3743      Customer#000003743       4rql691Sdx2w9            ETHIOPIA 6ETHIOPIA       AFRICA      15-326-981-7794BUILDING  
3751      Customer#000003751       SD5Ruw,G2e16KJzkOh       MOZAMBIQU7MOZAMBIQUE     AFRICA      26-633-751-4316MACHINERY 
3759      Customer#000003759       xeB84,YEJIV5kfS          KENYA    2KENYA          AFRICA      24-312-566-6670FURNITURE 
3767      Customer#000003767       82QEa8i                  MOZAMBIQU8MOZAMBIQUE     AFRICA      26-140-300-2052BUILDING  
3775      Customer#000003775       MO23JKwAmxu              IRAQ     8IRAQ           MIDDLE EAST 21-660-584-6115FURNITURE 
3783      Customer#000003783       Tx7m 6                   RUSSIA   4RUSSIA         EUROPE      32-840-633-6592FURNITURE 
3791      Customer#000003791       SqBkL3ZkQMMDMlGvM7uz4    CANADA   7CANADA         AMERICA     13-207-965-3204FURNITURE 
3799      Customer#000003799       zjf1fz iqejVS2qq         ROMANIA  8ROMANIA        EUROPE      29-495-690-1603FURNITURE 
3807      Customer#000003807       NaxSCFr                  CANADA   6CANADA         AMERICA     13-762-713-8997FURNITURE 
3815      Customer#000003815       9V8i6Nnox5dg9            ROMANIA  0ROMANIA        EUROPE      29-849-222-7676FURNITURE 
3823      Customer#000003823       277UN205VO               IRAN     2IRAN           MIDDLE EAST 20-294-127-3736BUILDING  
3831      Customer#000003831       NzYKaWJWeU               MOZAMBIQU8MOZAMBIQUE     AFRICA      26-214-892-5568AUTOMOBILE
3839      Customer#000003839       lEq6td2q,,CwRd           MOZAMBIQU0MOZAMBIQUE     AFRICA      26-314-504-2830MACHINERY 
3847      Customer#000003847       mkCjAm                   MOZAMBIQU3MOZAMBIQUE     AFRICA      26-699-315-2733FURNITURE 
3855      Customer#000003855       YMQmdZud5EMXZnnxk6kr     CHINA    8CHINA          ASIA        28-462-728-7155AUTOMOBILE
3863      Customer#000003863       ZLn4XJxXXv               JAPAN    6JAPAN          ASIA        22-372-540-2201FURNITURE 
3871      Customer#000003871       GMEVt,9                  UNITED KI4UNITED KINGDOM EUROPE      33-510-702-3843AUTOMOBILE
3879      Customer#000003879       tevL0WvaoYAU4IkKaGx      IRAQ     6IRAQ           MIDDLE EAST 21-527-447-1302FURNITURE 
3887      Customer#000003887       63EzDh                   FRANCE   9FRANCE         EUROPE      16-495-474-7301BUILDING  
3895      Customer#000003895       4rCctKHL4sXwNgBMSB1      ROMANIA  5ROMANIA        EUROPE      29-310-746-8539AUTOMOBILE
3903      Customer#000003903       y4fo46,FtTdMu3TlU        CANADA   1CANADA         AMERICA     13-992-668-8353HOUSEHOLD 
3911      Customer#000003911       zQfxBL2P5A3kYAp2hq8,sy   ETHIOPIA 8ETHIOPIA       AFRICA      15-192-809-5284MACHINERY 
3919      Customer#000003919       ,0jKDoI                  EGYPT    9EGYPT          MIDDLE EAST 14-310-255-7169MACHINERY 
3927      Customer#000003927       H,TCxcVpDNU9,GgGRXl      RUSSIA   9RUSSIA         EUROPE      32-385-726-4096MACHINERY 
3935      Customer#000003935       YXQDDX3nLYZXaTBX6e       FRANCE   8FRANCE         EUROPE      16-243-723-1929AUTOMOBILE
3943      Customer#000003943       lMoMIq                   CHINA    4CHINA          ASIA        28-996-848-4521AUTOMOBILE
3951      Customer#000003951       oxhuBhMiboni4JY3eK       BRAZIL   5BRAZIL         AMERICA     12-662-190-2315HOUSEHOLD 
3959      Customer#000003959       wB 5B3ASe1LNtACb         UNITED KI2UNITED KINGDOM EUROPE      33-593-140-1208FURNITURE 
3967      Customer#000003967       hAmZcoCgsaLxif3B         GERMANY  4GERMANY        EUROPE      17-241-828-4928MACHINERY 
3975      Customer#000003975       PAmbAG3zp8               MOZAMBIQU3MOZAMBIQUE     AFRICA      26-956-167-9510FURNITURE 
3983      Customer#000003983       iC4yqOn EEf  ezPw  7W    KENYA    5KENYA          AFRICA      24-770-728-7698HOUSEHOLD 
3991      Customer#000003991       ZPp1v82 AEVkEp7WjIOv     JORDAN   9JORDAN         MIDDLE EAST 23-266-117-8875HOUSEHOLD 
3999      Customer#000003999       PbbQDalac 3XTHQq         MOZAMBIQU3MOZAMBIQUE     AFRICA      26-397-297-9428FURNITURE 
4007      Customer#000004007       h7tIUuPuTfhcxA           INDIA    7INDIA          ASIA        18-137-848-9841HOUSEHOLD 
4015      Customer#000004015       Ms8boSNRnjFFyRt          INDIA    6INDIA          ASIA        18-675-503-5880HOUSEHOLD 
4023      Customer#000004023       Pg6L6giCX06zALIXj        ALGERIA  1ALGERIA        AFRICA      10-193-905-6192HOUSEHOLD 
4031      Customer#000004031       11kBQiomiwC              PERU     7PERU           AMERICA     27-935-854-6524HOUSEHOLD 
4039      Customer#000004039       vIRpSYiwJBltgzZyK3S      FRANCE   3FRANCE         EUROPE      16-970-955-3863MACHINERY 
4047      Customer#000004047       lLrp,h                   INDIA    4INDIA          ASIA        18-603-670-5387BUILDING  
4055      Customer#000004055       kxMfpHWxlY3n,1           CHINA    8CHINA          ASIA        28-714-312-7745AUTOMOBILE
4063      Customer#000004063       WQksIAKpAE K             CHINA    5CHINA          ASIA        28-420-989-9707BUILDING  
4071      Customer#000004071       CZOb2YPXZGPiOnwwhevaJX   ARGENTINA5ARGENTINA      AMERICA     11-543-245-5033MACHINERY 
4079      Customer#000004079       HcUC7R,                  INDIA    9INDIA          ASIA        18-658-567-7148HOUSEHOLD 
4087      Customer#000004087       qXagFWvVE                FRANCE   9FRANCE         EUROPE      16-560-766-9095AUTOMOBILE
4095      Customer#000004095       9YZtMoAC,TYK5Pa4f        UNITED ST2UNITED STATES  AMERICA     34-906-342-3684HOUSEHOLD 
4103      Customer#000004103       KepVVVaFS                INDIA    7INDIA          ASIA        18-635-768-9202BUILDING  
4111      Customer#000004111       d3ysNPGPMy               KENYA    0KENYA          AFRICA      24-569-134-5959HOUSEHOLD 
4119      Customer#000004119       xWWjBqy9v                JORDAN   4JORDAN         MIDDLE EAST 23-398-982-5183AUTOMOBILE
4127      Customer#000004127       qz,n7GcEN                INDONESIA1INDONESIA      ASIA        19-250-123-3896AUTOMOBILE
4135      Customer#000004135       UKDFAqDQNvN              IRAN     7IRAN           MIDDLE EAST 20-937-477-7413MACHINERY 
4143      Customer#000004143       CyHYjrlOWJt2ZAqDYN6Eq    INDONESIA3INDONESIA      ASIA        19-943-974-6211MACHINERY 
4151      Customer#000004151       E,DyYYywW                PERU     7PERU           AMERICA     27-821-493-8774AUTOMOBILE
4159      Customer#000004159       4AJEcOg37yt0IEEQhhF6     JAPAN    0JAPAN          ASIA        22-659-300-7003FURNITURE 
4167      Customer#000004167       UZHyxgHRiwIstoSLrstTv    ROMANIA  7ROMANIA        EUROPE      29-579-644-2135BUILDING  
4175      Customer#000004175       IWQcy,AeCqHRnEO          CANADA   8CANADA         AMERICA     13-465-594-1637HOUSEHOLD 
4183      Customer#000004183       LeJvrnkyACXMfnNi 0       IRAQ     3IRAQ           MIDDLE EAST 21-523-458-4297HOUSEHOLD 
4191      Customer#000004191       vaD0ozYlOcj9kc,DnjZVMWug UNITED KI0UNITED KINGDOM EUROPE      33-551-881-4309FURNITURE 
4199      Customer#000004199       dun,tRuUHGhdiGrRwoV      MOROCCO  2MOROCCO        AFRICA      25-540-711-1325MACHINERY 
4207      Customer#000004207       lASugkcFmqYa6yPF1B2B24V  CANADA   4CANADA         AMERICA     13-193-279-5485FURNITURE 
4215      Customer#000004215       enHc2sr1mjtVahXJaV       IRAQ     8IRAQ           MIDDLE EAST 21-759-572-2656HOUSEHOLD 
4223      Customer#000004223       FNOJLZgUykELlHn          UNITED ST1UNITED STATES  AMERICA     34-278-540-1651HOUSEHOLD 
4231      Customer#000004231       o,3Y0iRQyzBR0Gibo,Ht3CxS ETHIOPIA 5ETHIOPIA       AFRICA      15-104-642-4538AUTOMOBILE
4239      Customer#000004239       qWCIGf,wgqqGV6CN5sr      IRAQ     9IRAQ           MIDDLE EAST 21-857-547-3554FURNITURE 
4247      Customer#000004247       1vZVTOI0K7mQR aPRLWk2R   UNITED ST0UNITED STATES  AMERICA     34-982-790-6155HOUSEHOLD 
4255      Customer#000004255       pRWpcpQ6PJGhHJQ          ALGERIA  5ALGERIA        AFRICA      10-803-104-3380AUTOMOBILE
4263      Customer#000004263       YAm4EQ369RNWk            CANADA   3CANADA         AMERICA     13-811-905-1544MACHINERY 
4271      Customer#000004271       SOjWshAkfrE43BkXhRLj     MOROCCO  4MOROCCO        AFRICA      25-237-770-1313MACHINERY 
4279      Customer#000004279       gwobu4                   RUSSIA   5RUSSIA         EUROPE      32-644-321-4828FURNITURE 
4287      Customer#000004287       OwZUd07                  UNITED KI6UNITED KINGDOM EUROPE      33-696-690-1930MACHINERY 
4295      Customer#000004295       vA8IyOOFEVP7             ETHIOPIA 5ETHIOPIA       AFRICA      15-714-358-2856FURNITURE 
4303      Customer#000004303       kjt047JTekvmjhhJ3NLmsg   MOROCCO  1MOROCCO        AFRICA      25-388-281-4039HOUSEHOLD 
4311      Customer#000004311       qQWKrbM                  KENYA    4KENYA          AFRICA      24-397-446-8804BUILDING  
4319      Customer#000004319        8Vne8                   ETHIOPIA 6ETHIOPIA       AFRICA      15-542-867-7108AUTOMOBILE
4327      Customer#000004327       mnynjRRu1abLie           INDONESIA9INDONESIA      ASIA        19-809-312-7952MACHINERY 
4335      Customer#000004335       HuJsB6YUM11OoFoCSUlzG    SAUDI ARA2SAUDI ARABIA   MIDDLE EAST 30-532-148-7976BUILDING  
4343      Customer#000004343       kDNvIWNQDSPif76Drh       GERMANY  6GERMANY        EUROPE      17-359-558-8665BUILDING  
4351      Customer#000004351       J29g,wXDRCZ5CVYdleLFmtx3 IRAN     2IRAN           MIDDLE EAST 20-732-282-9695AUTOMOBILE
4359      Customer#000004359       w,6E1hE9                 ETHIOPIA 5ETHIOPIA       AFRICA      15-938-101-9004AUTOMOBILE
4367      Customer#000004367       HdZylr3U,iQ7J            BRAZIL   6BRAZIL         AMERICA     12-488-557-4202BUILDING  
4375      Customer#000004375       kMucTTCA l5c             ETHIOPIA 3ETHIOPIA       AFRICA      15-101-277-7554BUILDING  
4383      Customer#000004383       aqF2RnwTeQXxUo           CANADA   0CANADA         AMERICA     13-984-489-8624FURNITURE 
4391      Customer#000004391       WE0DBBdZ3l5uy66          KENYA    1KENYA          AFRICA      24-703-573-3023AUTOMOBILE
4399      Customer#000004399       KberuMuFEZOfOiKw         ROMANIA  2ROMANIA        EUROPE      29-116-377-3195AUTOMOBILE
4407      Customer#000004407       V,UbP70YGy9NBw           MOROCCO  9MOROCCO        AFRICA      25-170-645-6614BUILDING  
4415      Customer#000004415       EEJFsd                   INDONESIA7INDONESIA      ASIA        19-530-793-4036HOUSEHOLD 
4423      Customer#000004423       srX86nv7Qm XV1           JORDAN   6JORDAN         MIDDLE EAST 23-818-431-4956AUTOMOBILE
4431      Customer#000004431       ZWnnJCN4fXLk4OqDUxPo0C   INDONESIA8INDONESIA      ASIA        19-239-263-5408BUILDING  
4439      Customer#000004439       z44tq0O2o6Net6kqijBG00   EGYPT    0EGYPT          MIDDLE EAST 14-571-239-9311AUTOMOBILE
4447      Customer#000004447       euwL,3JvvrD7N2HsL        INDONESIA0INDONESIA      ASIA        19-355-767-1072HOUSEHOLD 
4455      Customer#000004455       j7BBxWc3zu2iOt6Th06      ARGENTINA4ARGENTINA      AMERICA     11-920-349-6935FURNITURE 
4463      Customer#000004463       SM,GIEUWU                ARGENTINA5ARGENTINA      AMERICA     11-314-562-6607AUTOMOBILE
4471      Customer#000004471       BtENrAo                  BRAZIL   9BRAZIL         AMERICA     12-280-388-4224MACHINERY 
4479      Customer#000004479       aoqCEbXX,                UNITED ST3UNITED STATES  AMERICA     34-644-322-6811FURNITURE 
4487      Customer#000004487       QKu9axluE,69yt           MOZAMBIQU8MOZAMBIQUE     AFRICA      26-456-990-4777AUTOMOBILE
4495      Customer#000004495       BSOsDRGbUAnXAGbodaU 1y   SAUDI ARA2SAUDI ARABIA   MIDDLE EAST 30-516-949-8601HOUSEHOLD 
4503      Customer#000004503       gUWJnR2PNBUWj1FE8k       CANADA   8CANADA         AMERICA     13-973-102-1923MACHINERY 
4511      Customer#000004511       AVJ7MJDmMAfiuK3e         KENYA    0KENYA          AFRICA      24-513-173-5097HOUSEHOLD 
4519      Customer#000004519       MMeg2TTFoPjyYBVy         ETHIOPIA 5ETHIOPIA       AFRICA      15-660-305-6391FURNITURE 
4527      Customer#000004527       kX8GMOamUSt              CANADA   4CANADA         AMERICA     13-749-261-8544BUILDING  
4535      Customer#000004535       eYng3WFb31wCLIFRokVmk    CANADA   8CANADA         AMERICA     13-409-797-1828HOUSEHOLD 
4543      Customer#000004543       6hCtWnQUNtzxDMy5KZ8oZP   FRANCE   6FRANCE         EUROPE      16-562-309-1769MACHINERY 
4551      Customer#000004551       0nnQP6Fo9F               IRAN     1IRAN           MIDDLE EAST 20-295-321-3186HOUSEHOLD 
4559      Customer#000004559       fWvBIqVW9p               MOZAMBIQU9MOZAMBIQUE     AFRICA      26-694-317-1502FURNITURE 
4567      Customer#000004567       VUYMDqWJSpDqM4WZL4dyFH   EGYPT    7EGYPT          MIDDLE EAST 14-947-656-5114FURNITURE 
4575      Customer#000004575       80vN6w,nGO               JAPAN    5JAPAN          ASIA        22-993-451-1867AUTOMOBILE
4583      Customer#000004583       HexYRiNnxlxVhIJEctWPZ8w  IRAQ     5IRAQ           MIDDLE EAST 21-533-403-2048HOUSEHOLD 
4591      Customer#000004591       2jNG15KvAhyC0MdnC        IRAN     5IRAN           MIDDLE EAST 20-842-129-9546BUILDING  
4599      Customer#000004599       U1tzj 4qs3               PERU     3PERU           AMERICA     27-806-681-1195BUILDING  
4607      Customer#000004607       7T2cIocq7R3rAKj          CHINA    2CHINA          ASIA        28-710-692-4778FURNITURE 
4615      Customer#000004615       Ji6yDBVqyiBLdadzvg       JAPAN    5JAPAN          ASIA        22-502-281-9695FURNITURE 
4623      Customer#000004623       hUgFonbGV2p4LwZcZgK      GERMANY  6GERMANY        EUROPE      17-286-706-9458BUILDING  
4631      Customer#000004631       NCzfhgowjcp XrmZbSZ4IdBe JAPAN    0JAPAN          ASIA        22-455-789-2157AUTOMOBILE
4639      Customer#000004639       jpwAeVzfur76r8zK         GERMANY  2GERMANY        EUROPE      17-183-704-3399AUTOMOBILE
4647      Customer#000004647       cW7ad1 6CtMToH73lv       ETHIOPIA 9ETHIOPIA       AFRICA      15-573-141-7499MACHINERY 
4655      Customer#000004655       JFNMUZ5JL2avvo8H5        ETHIOPIA 7ETHIOPIA       AFRICA      15-604-328-5274BUILDING  
4663      Customer#000004663       rbxAsPmYG0wHI            JORDAN   9JORDAN         MIDDLE EAST 23-770-436-9193FURNITURE 
4671      Customer#000004671       HTP6r8                   IRAQ     8IRAQ           MIDDLE EAST 21-988-137-7203BUILDING  
4679      Customer#000004679       DUWVQIyp88P BGl U9v      JORDAN   6JORDAN         MIDDLE EAST 23-751-798-1741BUILDING  
4687      Customer#000004687       xJLkyfv68VOcNvA          EGYPT    9EGYPT          MIDDLE EAST 14-336-124-8097FURNITURE 
4695      Customer#000004695       cy4xSCDGIdCNOtnk9        ETHIOPIA 4ETHIOPIA       AFRICA      15-236-808-2197FURNITURE 
4703      Customer#000004703       kz26RT478H4yeV5YdfZY1ape JORDAN   6JORDAN         MIDDLE EAST 23-357-661-4790AUTOMOBILE
4711      Customer#000004711       pDCyZXRtlQH              IRAQ     0IRAQ           MIDDLE EAST 21-149-914-9213MACHINERY 
4719      Customer#000004719       4Lh5j,axTeD1afs1BKhgqG   UNITED KI4UNITED KINGDOM EUROPE      33-589-876-7019FURNITURE 
4727      Customer#000004727       0llAl,rX3,bTmP ElRz      ROMANIA  7ROMANIA        EUROPE      29-113-829-1190MACHINERY 
4735      Customer#000004735       QNOkAh2BIWAQs            GERMANY  5GERMANY        EUROPE      17-886-796-8137AUTOMOBILE
4743      Customer#000004743       3btqYeTYyJK0RCwZNSo,     INDIA    1INDIA          ASIA        18-970-838-1428AUTOMOBILE
4751      Customer#000004751       6fId0wFi                 IRAN     8IRAN           MIDDLE EAST 20-551-175-6540BUILDING  
4759      Customer#000004759       Qfxa6mI,wPzhqV475P97E    IRAN     7IRAN           MIDDLE EAST 20-891-618-5580HOUSEHOLD 
4767      Customer#000004767       h8PiENUASbxeC2PAz        KENYA    3KENYA          AFRICA      24-954-916-6697MACHINERY 
4775      Customer#000004775       CWXSxFY6yHFTDiMr,QJlLPw  BRAZIL   5BRAZIL         AMERICA     12-515-429-7925BUILDING  
4783      Customer#000004783       ZVo2AuT um6UCCSu52t6ejDe BRAZIL   4BRAZIL         AMERICA     12-958-619-9878MACHINERY 
4791      Customer#000004791       m cYo0VoKJB              ROMANIA  7ROMANIA        EUROPE      29-101-329-7633HOUSEHOLD 
4799      Customer#000004799       MxvZdf q                 UNITED KI4UNITED KINGDOM EUROPE      33-753-576-8288MACHINERY 
4807      Customer#000004807       BwJ5vm                   IRAN     2IRAN           MIDDLE EAST 20-266-217-4609HOUSEHOLD 
4815      Customer#000004815       pwK8DikyOf6wVT           IRAN     4IRAN           MIDDLE EAST 20-734-972-8733FURNITURE 
4823      Customer#000004823       zGAQxtRdV,cRkbhgEwfQHiL5 UNITED KI1UNITED KINGDOM EUROPE      33-746-491-5570BUILDING  
4831      Customer#000004831       XEaMpQU7AZ67xZ6o0aEbV    INDONESIA5INDONESIA      ASIA        19-886-694-7880HOUSEHOLD 
4839      Customer#000004839       WBO2E tKZvYjUxlKtzhTOhl  JAPAN    9JAPAN          ASIA        22-863-575-9799HOUSEHOLD 
4847      Customer#000004847       98PKJ6g5yebN3h           ROMANIA  2ROMANIA        EUROPE      29-831-866-9890MACHINERY 
4855      Customer#000004855       GbTnKO                   PERU     9PERU           AMERICA     27-300-399-7726AUTOMOBILE
4863      Customer#000004863       5mQ5jWuS                 GERMANY  4GERMANY        EUROPE      17-706-565-2356FURNITURE 
4871      Customer#000004871       tECpcPkQVrGpG9SLlw eRa   UNITED ST3UNITED STATES  AMERICA     34-727-526-2699MACHINERY 
4879      Customer#000004879       BNHMEhDnEV5VcX5X,Ax4zGS  MOROCCO  0MOROCCO        AFRICA      25-973-412-4322BUILDING  
4887      Customer#000004887       nttwYVY8on1SSq45Fc3I     RUSSIA   7RUSSIA         EUROPE      32-916-643-2795FURNITURE 
4895      Customer#000004895       acsMxNkUxZagZkS0t2D RN   JORDAN   8JORDAN         MIDDLE EAST 23-155-378-7804AUTOMOBILE
4903      Customer#000004903       AeXR14nm23ou0Zt          ALGERIA  4ALGERIA        AFRICA      10-677-358-7844BUILDING  
4911      Customer#000004911       Z5CfYQjezeStS24eoZOc     ARGENTINA8ARGENTINA      AMERICA     11-530-665-5202AUTOMOBILE
4919      Customer#000004919       c8hFW7WVSo0rSi5  hotWy   FRANCE   9FRANCE         EUROPE      16-293-633-9012AUTOMOBILE
4927      Customer#000004927       cqmerTUQulB6JtmYf4Rms4R  UNITED KI7UNITED KINGDOM EUROPE      33-549-303-5622AUTOMOBILE
4935      Customer#000004935       sKnPkb6                  SAUDI ARA6SAUDI ARABIA   MIDDLE EAST 30-619-531-3326BUILDING  
4943      Customer#000004943       HQMk7fZ5HxZm             UNITED ST5UNITED STATES  AMERICA     34-854-971-1943AUTOMOBILE
4951      Customer#000004951       0I3OfPPqhEMh             SAUDI ARA1SAUDI ARABIA   MIDDLE EAST 30-601-457-5326AUTOMOBILE
4959      Customer#000004959       CRzUnwEo                 UNITED ST2UNITED STATES  AMERICA     34-569-763-8095MACHINERY 
4967      Customer#000004967       xFzxcxmLs0rJ t           VIETNAM  7VIETNAM        ASIA        31-149-346-2227HOUSEHOLD 
4975      Customer#000004975       z,7zhKtY7vUq8uzd         ARGENTINA7ARGENTINA      AMERICA     11-335-830-3113HOUSEHOLD 
4983      Customer#000004983       jAiPabLXWE9DbfZAcoR4U    VIETNAM  4VIETNAM        ASIA        31-505-461-3739HOUSEHOLD 
4991      Customer#000004991       4zNrcF5kSlRZlXL1T        MOROCCO  6MOROCCO        AFRICA      25-136-802-9638MACHINERY 
4999      Customer#000004999       1JSDuS0i                 UNITED ST9UNITED STATES  AMERICA     34-694-610-4672FURNITURE 
5007      Customer#000005007       vNvtb7,07KkxVjrW,0I      SAUDI ARA0SAUDI ARABIA   MIDDLE EAST 30-881-730-4874AUTOMOBILE
5015      Customer#000005015       M6Q9u8A0pC6y             BRAZIL   8BRAZIL         AMERICA     12-966-792-8334MACHINERY 
5023      Customer#000005023       adxANiu3OqmU1ll          FRANCE   8FRANCE         EUROPE      16-783-902-9342BUILDING  
5031      Customer#000005031       3jkSax8iO4FoTuS8HiEeD3   RUSSIA   9RUSSIA         EUROPE      32-171-141-9670MACHINERY 
5039      Customer#000005039       kFHDZ6 pDMT2jhDt         VIETNAM  4VIETNAM        ASIA        31-919-507-3808AUTOMOBILE
5047      Customer#000005047       wLh7ZEvn8EMlOhkbtn       PERU     9PERU           AMERICA     27-871-247-6463FURNITURE 
5055      Customer#000005055       6 HCAfFSC                KENYA    7KENYA          AFRICA      24-918-164-7009AUTOMOBILE
5063      Customer#000005063       BR3cuOKP7Mgo             JAPAN    5JAPAN          ASIA        22-385-483-8120MACHINERY 
5071      Customer#000005071       33NYCekWxhd              INDONESIA8INDONESIA      ASIA        19-479-871-1439HOUSEHOLD 
5079      Customer#000005079       CiBzGQlwshOM2Mk5HvgrG9   RUSSIA   5RUSSIA         EUROPE      32-811-240-9153MACHINERY 
5087      Customer#000005087       PQiAPZfKRIhV7N1r3iW      ETHIOPIA 6ETHIOPIA       AFRICA      15-479-562-1736AUTOMOBILE
5095      Customer#000005095       iMXH1bJKa3Ba             RUSSIA   6RUSSIA         EUROPE      32-199-485-9256HOUSEHOLD 
5103      Customer#000005103       SrYp8ajrkpL              KENYA    0KENYA          AFRICA      24-944-922-9354FURNITURE 
5111      Customer#000005111       gOjca4YOzBYIA            IRAN     9IRAN           MIDDLE EAST 20-916-430-7553HOUSEHOLD 
5119      Customer#000005119       rm,arV                   UNITED ST5UNITED STATES  AMERICA     34-389-462-2337HOUSEHOLD 
5127      Customer#000005127       SAHkiPL8aUnm83           JAPAN    6JAPAN          ASIA        22-185-124-5231AUTOMOBILE
5135      Customer#000005135       jdXBkgs4dZ5Fm9q6R0teITU  IRAN     2IRAN           MIDDLE EAST 20-165-238-1345AUTOMOBILE
5143      Customer#000005143       MWXEM9wL00V              PERU     0PERU           AMERICA     27-560-272-1861MACHINERY 
5151      Customer#000005151       x3jIX45ZBrvfwTmfZZq      IRAQ     5IRAQ           MIDDLE EAST 21-225-788-4168FURNITURE 
5159      Customer#000005159       CXpIr1oTTLkcDsEDBR       CHINA    2CHINA          ASIA        28-623-664-8591BUILDING  
5167      Customer#000005167       4yIDPQI9dKzjv            IRAQ     0IRAQ           MIDDLE EAST 21-711-435-8420HOUSEHOLD 
5175      Customer#000005175       57Nxn1vvJDTf9e9s7 uxtbs  VIETNAM  0VIETNAM        ASIA        31-479-130-7754MACHINERY 
5183      Customer#000005183       GUbzCLlja9sXLsLbYeUhP    PERU     4PERU           AMERICA     27-783-228-4678HOUSEHOLD 
5191      Customer#000005191       joWKI90Ei533ydyr8bD      IRAN     9IRAN           MIDDLE EAST 20-185-379-9174FURNITURE 
5199      Customer#000005199       cYcOOj1o                 UNITED ST4UNITED STATES  AMERICA     34-464-501-3212MACHINERY 
5207      Customer#000005207       YHWHLOCp                 KENYA    7KENYA          AFRICA      24-697-255-3108AUTOMOBILE
5215      Customer#000005215       LcFcTY                   CANADA   5CANADA         AMERICA     13-270-373-7950FURNITURE 
5223      Customer#000005223       kJhdMRCoEl1,             EGYPT    4EGYPT          MIDDLE EAST 14-547-911-9656HOUSEHOLD 
5231      Customer#000005231       JGsj9Qcrh                KENYA    8KENYA          AFRICA      24-189-965-6811BUILDING  
5239      Customer#000005239       wUCvMsxFBC1eNDqZr        INDONESIA0INDONESIA      ASIA        19-916-720-8540BUILDING  
5247      Customer#000005247       4YMHCBOpNwQXTmkuAF57     BRAZIL   0BRAZIL         AMERICA     12-489-161-9516FURNITURE 
5255      Customer#000005255       6xH1O3kBh2dxo r          KENYA    2KENYA          AFRICA      24-802-680-7192HOUSEHOLD 
5263      Customer#000005263       7GKh1BVvZqV1hKic68xV     CHINA    4CHINA          ASIA        28-397-918-5767BUILDING  
5271      Customer#000005271       uQtSRg32XvGpwZ           IRAN     8IRAN           MIDDLE EAST 20-903-408-6158MACHINERY 
5279      Customer#000005279       1PPyfdf6r2Bw03qjdJVbK    FRANCE   9FRANCE         EUROPE      16-306-991-5364MACHINERY 
5287      Customer#000005287       MvPMrgKZgTA              FRANCE   7FRANCE         EUROPE      16-498-335-2664FURNITURE 
5295      Customer#000005295       mvw,8 p                  MOROCCO  4MOROCCO        AFRICA      25-354-723-8132HOUSEHOLD 
5303      Customer#000005303       iTrvviXniTR7ldxKRYAO     GERMANY  0GERMANY        EUROPE      17-646-692-4712FURNITURE 
5311      Customer#000005311       dD4GROqpcE,k9CR9pA2y     IRAN     0IRAN           MIDDLE EAST 20-266-802-4503BUILDING  
5319      Customer#000005319       V8mFC72Vrx YZ            GERMANY  0GERMANY        EUROPE      17-231-446-9269MACHINERY 
5327      Customer#000005327       ORCYyx                   GERMANY  2GERMANY        EUROPE      17-499-123-2342AUTOMOBILE
5335      Customer#000005335       OS BTVyTsqkwl5ng         JORDAN   4JORDAN         MIDDLE EAST 23-515-740-6901BUILDING  
5343      Customer#000005343       uFZ9wYF1CsALQCcRn        EGYPT    7EGYPT          MIDDLE EAST 14-641-884-7192HOUSEHOLD 
5351      Customer#000005351       4UHUUDUVWvBQMDLEJLS lp   JAPAN    2JAPAN          ASIA        22-285-818-5928HOUSEHOLD 
5359      Customer#000005359       JloNk57HlV               RUSSIA   7RUSSIA         EUROPE      32-118-327-8321FURNITURE 
5367      Customer#000005367       V, 8bAD6HUC,             UNITED ST5UNITED STATES  AMERICA     34-901-910-3189BUILDING  
5375      Customer#000005375       jZS51eG4JIK0Kdu2         GERMANY  4GERMANY        EUROPE      17-141-926-3642AUTOMOBILE
5383      Customer#000005383       kR2eEa                   ALGERIA  3ALGERIA        AFRICA      10-679-983-6381FURNITURE 
5391      Customer#000005391       d3UAb7sPDbz3ZycuKhmO2    RUSSIA   8RUSSIA         EUROPE      32-406-554-1750MACHINERY 
5399      Customer#000005399       cD0kqHmRLXcR,h0          FRANCE   9FRANCE         EUROPE      16-107-524-4137AUTOMOBILE
5407      Customer#000005407       hZsfPX6x16D,             KENYA    7KENYA          AFRICA      24-378-883-1391FURNITURE 
5415      Customer#000005415       lRa7,G,ZMO9s2            ETHIOPIA 6ETHIOPIA       AFRICA      15-428-748-3636BUILDING  
5423      Customer#000005423       EYD47dAhxjoqYf7Usl8Lcs   JORDAN   3JORDAN         MIDDLE EAST 23-593-128-2741HOUSEHOLD 
5431      Customer#000005431       ILnBLym                  ALGERIA  7ALGERIA        AFRICA      10-770-485-3921BUILDING  
5439      Customer#000005439       qK4H24nWg4UwzkUK         CANADA   0CANADA         AMERICA     13-527-542-2767FURNITURE 
5447      Customer#000005447       z9KJyiaOvvjVfPn          JAPAN    6JAPAN          ASIA        22-119-748-8955MACHINERY 
5455      Customer#000005455       a,SUiAZDtsEt8PGAgvq7t    ETHIOPIA 3ETHIOPIA       AFRICA      15-883-827-7678MACHINERY 
5463      Customer#000005463       XWv4oFS                  UNITED KI3UNITED KINGDOM EUROPE      33-631-149-4626MACHINERY 
5471      Customer#000005471       hZMwV7nmzRAo             FRANCE   8FRANCE         EUROPE      16-450-414-4242AUTOMOBILE
5479      Customer#000005479       m6WqD2bZlRrB2V3SYO0      FRANCE   6FRANCE         EUROPE      16-340-169-3842FURNITURE 
5487      Customer#000005487       ShL3EtjxWoxkVB           INDIA    9INDIA          ASIA        18-841-356-2417HOUSEHOLD 
5495      Customer#000005495       eoQ8VxTFUAhEsHb          JAPAN    4JAPAN          ASIA        22-521-988-4442MACHINERY 
5503      Customer#000005503       D2SsAV                   ALGERIA  5ALGERIA        AFRICA      10-835-586-9176BUILDING  
5511      Customer#000005511       Jn16IY6Uh8 7dHiHuUD      INDIA    4INDIA          ASIA        18-395-813-7793MACHINERY 
5519      Customer#000005519        K66oM1MkGt06nqaKt       ETHIOPIA 0ETHIOPIA       AFRICA      15-850-393-6081FURNITURE 
5527      Customer#000005527       78FlZSySEEGGyUMicV2ZF    KENYA    6KENYA          AFRICA      24-113-158-7639BUILDING  
5535      Customer#000005535       02DOyPe                  MOROCCO  0MOROCCO        AFRICA      25-248-809-5190AUTOMOBILE
5543      Customer#000005543       orcdb1cAVQD2P            ALGERIA  3ALGERIA        AFRICA      10-280-719-2630BUILDING  
5551      Customer#000005551       NCagXNOklUO1FbfWjX9ZbCj  UNITED ST6UNITED STATES  AMERICA     34-582-412-2427HOUSEHOLD 
5559      Customer#000005559       Y7UjyZzkZlhlJ9xNwfB06    BRAZIL   1BRAZIL         AMERICA     12-194-857-5414FURNITURE 
5567      Customer#000005567       BoSnhd0ohiPPpRgFvTSZ,8,  BRAZIL   4BRAZIL         AMERICA     12-354-868-5037MACHINERY 
5575      Customer#000005575       O McgJCNJatLo            UNITED KI7UNITED KINGDOM EUROPE      33-130-378-1964FURNITURE 
5583      Customer#000005583       1XuB2FHw68CjGPA4MEoH     CHINA    0CHINA          ASIA        28-942-406-7115FURNITURE 
5591      Customer#000005591       vgRE2KWuCWm              ETHIOPIA 3ETHIOPIA       AFRICA      15-279-121-5095HOUSEHOLD 
5599      Customer#000005599       Hx8w,wA4vfGfgID8N054EkC  BRAZIL   4BRAZIL         AMERICA     12-299-661-8708AUTOMOBILE
5607      Customer#000005607       0i7CoUE                  FRANCE   6FRANCE         EUROPE      16-118-449-5824FURNITURE 
5615      Customer#000005615       hCmJbPNtPUJA8            FRANCE   3FRANCE         EUROPE      16-993-352-7931MACHINERY 
5623      Customer#000005623       UXRes4                   GERMANY  6GERMANY        EUROPE      17-320-583-7826FURNITURE 
5631      Customer#000005631       h7pqsnT1Umo8Psq          MOZAMBIQU1MOZAMBIQUE     AFRICA      26-911-428-1826MACHINERY 
5639      Customer#000005639       JRxtCHSCAWMV             ARGENTINA2ARGENTINA      AMERICA     11-462-524-7553FURNITURE 
5647      Customer#000005647       UufhPoKRTrfVfKKN         JORDAN   3JORDAN         MIDDLE EAST 23-581-616-2470BUILDING  
5655      Customer#000005655       H4g,UcKXlhjl81rqxdO5     INDIA    8INDIA          ASIA        18-531-757-8644BUILDING  
5663      Customer#000005663       1TKuLuGsJqP6qIrf         IRAQ     5IRAQ           MIDDLE EAST 21-131-786-9777AUTOMOBILE
5671      Customer#000005671       gKHw4IoF4CiuXmUmW        VIETNAM  4VIETNAM        ASIA        31-722-279-6384BUILDING  
5679      Customer#000005679       TcKxjUFsN04t1704,NeP0    ARGENTINA9ARGENTINA      AMERICA     11-133-988-2541MACHINERY 
5687      Customer#000005687       pWcODmK                  KENYA    7KENYA          AFRICA      24-425-248-9240FURNITURE 
5695      Customer#000005695       RBqkBWRbnW9O1G5Q8rABSu   MOZAMBIQU2MOZAMBIQUE     AFRICA      26-481-378-5185MACHINERY 
5703      Customer#000005703       Y7ViYlrX                 INDIA    0INDIA          ASIA        18-642-457-9246MACHINERY 
5711      Customer#000005711       QeShPY k,                VIETNAM  7VIETNAM        ASIA        31-949-453-7935AUTOMOBILE
5719      Customer#000005719       CC9MOomZkLblz1kvxb       CANADA   7CANADA         AMERICA     13-547-714-5253MACHINERY 
5727      Customer#000005727       RatztXw71aP              JAPAN    6JAPAN          ASIA        22-752-129-5366AUTOMOBILE
5735      Customer#000005735       CGQYoH                   MOZAMBIQU2MOZAMBIQUE     AFRICA      26-672-810-3687FURNITURE 
5743      Customer#000005743       bXTzsIwZYkR              ROMANIA  4ROMANIA        EUROPE      29-196-676-7982MACHINERY 
5751      Customer#000005751       XI 5oHlqI                MOZAMBIQU7MOZAMBIQUE     AFRICA      26-319-243-8660AUTOMOBILE
5759      Customer#000005759       hjrc7Qwu                 KENYA    3KENYA          AFRICA      24-117-416-8099HOUSEHOLD 
5767      Customer#000005767       x4taxzO9o0PEYR6auGTb     VIETNAM  2VIETNAM        ASIA        31-643-780-5434AUTOMOBILE
5775      Customer#000005775       8R7ZBfTjZ3HHgmw          JAPAN    5JAPAN          ASIA        22-665-392-8783MACHINERY 
5783      Customer#000005783       SiN1naiOZlU              UNITED ST2UNITED STATES  AMERICA     34-538-203-2215FURNITURE 
5791      Customer#000005791       2ZnBJeo                  ARGENTINA4ARGENTINA      AMERICA     11-169-356-7854BUILDING  
5799      Customer#000005799       zWb6eYY0CVPfbKrjm        INDIA    3INDIA          ASIA        18-552-633-6118HOUSEHOLD 
5807      Customer#000005807       h2IdglsHIZS81NhI4X8B4d   UNITED KI4UNITED KINGDOM EUROPE      33-561-205-1485BUILDING  
5815      Customer#000005815       0FBa4XCrIXP              INDONESIA5INDONESIA      ASIA        19-568-563-9655HOUSEHOLD 
5823      Customer#000005823       vEtcPGOTYPAa9hD 6        ARGENTINA9ARGENTINA      AMERICA     11-685-934-7464BUILDING  
5831      Customer#000005831       vr3I5,JyvV6              ROMANIA  6ROMANIA        EUROPE      29-424-708-1275FURNITURE 
5839      Customer#000005839       y2XL RRWBKiYZL           UNITED KI5UNITED KINGDOM EUROPE      33-420-842-4455FURNITURE 
5847      Customer#000005847       wQGYlhg                  VIETNAM  3VIETNAM        ASIA        31-975-786-7005FURNITURE 
5855      Customer#000005855       pMeY5aAaNil8yTOY         JAPAN    8JAPAN          ASIA        22-830-184-3839BUILDING  
5863      Customer#000005863       RkdCOwnssYYbttTI         ETHIOPIA 0ETHIOPIA       AFRICA      15-612-669-9466MACHINERY 
5871      Customer#000005871       Z5ynxXtcVFjc9            ETHIOPIA 1ETHIOPIA       AFRICA      15-989-203-8303HOUSEHOLD 
5879      Customer#000005879       ZXu sOMpXLUAxl6          MOROCCO  2MOROCCO        AFRICA      25-376-424-4611HOUSEHOLD 
5887      Customer#000005887       ZmihuiGaHdMsFC90         IRAN     4IRAN           MIDDLE EAST 20-224-813-4544BUILDING  
5895      Customer#000005895       ,kEBd054KvP0Xn0alSg      GERMANY  5GERMANY        EUROPE      17-786-221-3899BUILDING  
5903      Customer#000005903       Wnj27NeGIIY              ETHIOPIA 4ETHIOPIA       AFRICA      15-865-692-6425AUTOMOBILE
5911      Customer#000005911       EUswLdu 5q9qRHHU9        IRAN     9IRAN           MIDDLE EAST 20-980-209-8748HOUSEHOLD 
5919      Customer#000005919        vDIDbSS CjPR94O         JAPAN    8JAPAN          ASIA        22-862-310-3097BUILDING  
5927      Customer#000005927       0nqBX2Vdkb9S0g           MOROCCO  7MOROCCO        AFRICA      25-350-932-3334HOUSEHOLD 
5935      Customer#000005935       NSahimaWYqs              JAPAN    6JAPAN          ASIA        22-675-597-6145AUTOMOBILE
5943      Customer#000005943       hL9ttcRuHioHB            UNITED KI3UNITED KINGDOM EUROPE      33-689-253-6755BUILDING  
5951      Customer#000005951       ejlISeICPxDUiC1pSokR5KS  ROMANIA  7ROMANIA        EUROPE      29-549-592-9161AUTOMOBILE
5959      Customer#000005959       2AA4rax                  IRAN     6IRAN           MIDDLE EAST 20-316-990-2053HOUSEHOLD 
5967      Customer#000005967       mleilu                   UNITED ST8UNITED STATES  AMERICA     34-152-387-1053FURNITURE 
5975      Customer#000005975       k2CzBHqdwhrUpzx0zQAo     UNITED KI1UNITED KINGDOM EUROPE      33-902-856-4290MACHINERY 
5983      Customer#000005983        QEG5j9KSaAKLYNP2ub      PERU     0PERU           AMERICA     27-768-929-2693BUILDING  
5991      Customer#000005991       AOmKUqE0e                JORDAN   6JORDAN         MIDDLE EAST 23-963-172-6208BUILDING  
5999      Customer#000005999       msrBQ50LLZdr             CHINA    7CHINA          ASIA        28-587-305-9162AUTOMOBILE
6007      Customer#000006007       eFTUQxFkePYCDkt2YiT      MOZAMBIQU2MOZAMBIQUE     AFRICA      26-747-682-1394MACHINERY 
6015      Customer#000006015       AAc,PFYt20otDa8          VIETNAM  3VIETNAM        ASIA        31-158-689-1426FURNITURE 
6023      Customer#000006023       uz9mw3nZBoJ0j2zk         VIETNAM  6VIETNAM        ASIA        31-856-440-1770AUTOMOBILE
6031      Customer#000006031       ovto GrnDjT              UNITED ST3UNITED STATES  AMERICA     34-378-243-8717BUILDING  
6039      Customer#000006039       a5rSHRtBDeEFAd8          ETHIOPIA 2ETHIOPIA       AFRICA      15-677-950-8186HOUSEHOLD 
6047      Customer#000006047       WJIOtP1XJSsFY            EGYPT    7EGYPT          MIDDLE EAST 14-964-844-5164FURNITURE 
6055      Customer#000006055       FnwMVA8yGuU SgV          INDONESIA1INDONESIA      ASIA        19-951-409-5892FURNITURE 
6063      Customer#000006063       P8McFZy0XZk2             JORDAN   8JORDAN         MIDDLE EAST 23-161-296-4701BUILDING  
6071      Customer#000006071       bSImC9SNA                CANADA   2CANADA         AMERICA     13-964-735-7270AUTOMOBILE
6079      Customer#000006079       JrsyZ3aOo7pyfy1Nfcu7     UNITED ST2UNITED STATES  AMERICA     34-822-135-8680AUTOMOBILE
6087      Customer#000006087       HZvlNvQ41HBORsew         PERU     9PERU           AMERICA     27-511-350-3725FURNITURE 
6095      Customer#000006095       qP9OXihxn                PERU     9PERU           AMERICA     27-422-415-5652BUILDING  
6103      Customer#000006103       YYS9 3AI8tkKqUq          EGYPT    1EGYPT          MIDDLE EAST 14-687-283-1117HOUSEHOLD 
6111      Customer#000006111       CLSQ2jkX5hmEPy           CHINA    6CHINA          ASIA        28-404-178-2331HOUSEHOLD 
6119      Customer#000006119       p8I8iRWN3HIQZPoMD5y1qogR ARGENTINA2ARGENTINA      AMERICA     11-111-751-3676FURNITURE 
6127      Customer#000006127       4xg9rQlpgsZ7NJl4k9IL47O  UNITED KI2UNITED KINGDOM EUROPE      33-236-826-2139BUILDING  
6135      Customer#000006135       IED4rGsufuEnT4NrO7KvhQfF ARGENTINA1ARGENTINA      AMERICA     11-945-114-6692MACHINERY 
6143      Customer#000006143       zuh77l1EZ6xU             ARGENTINA7ARGENTINA      AMERICA     11-648-191-7612FURNITURE 
6151      Customer#000006151       ojCmk5FfGZm              ARGENTINA8ARGENTINA      AMERICA     11-150-869-4973BUILDING  
6159      Customer#000006159       naaCoV9ztjZ2YVP4hmQAtT   FRANCE   7FRANCE         EUROPE      16-370-111-6256FURNITURE 
6167      Customer#000006167       oPGRaBt5IuSxtQhw         GERMANY  3GERMANY        EUROPE      17-877-540-7785FURNITURE 
6175      Customer#000006175       4fRoxm                   UNITED KI4UNITED KINGDOM EUROPE      33-259-219-8300MACHINERY 
6183      Customer#000006183       iDx,aey                  SAUDI ARA0SAUDI ARABIA   MIDDLE EAST 30-928-553-1974MACHINERY 
6191      Customer#000006191       7XGJ0ugPk d              RUSSIA   4RUSSIA         EUROPE      32-878-954-9342BUILDING  
6199      Customer#000006199       3LH72AxUTOqvuazpB6dk5i8  RUSSIA   6RUSSIA         EUROPE      32-972-679-9658MACHINERY 
6207      Customer#000006207       Ba2gZAYGD 74QLT8T7,      GERMANY  3GERMANY        EUROPE      17-261-441-1093FURNITURE 
6215      Customer#000006215       fAfdqCTU                 ETHIOPIA 1ETHIOPIA       AFRICA      15-898-486-4823BUILDING  
6223      Customer#000006223       kOimz7buzOsZP8DPRQfB     GERMANY  9GERMANY        EUROPE      17-733-700-7276BUILDING  
6231      Customer#000006231       DssbpsUtrc               IRAQ     8IRAQ           MIDDLE EAST 21-777-407-9775HOUSEHOLD 
6239      Customer#000006239       PklZCqN                  RUSSIA   9RUSSIA         EUROPE      32-327-649-5152AUTOMOBILE
6247      Customer#000006247       22fOQj6uLxyE6L,ev4yMzPv  CANADA   2CANADA         AMERICA     13-702-729-9251HOUSEHOLD 
6255      Customer#000006255       l6XtT3yvhZ,VzKzrXl2vQiIg ETHIOPIA 2ETHIOPIA       AFRICA      15-845-127-2238BUILDING  
6263      Customer#000006263       nTwk5ECJ6elmDX8zLW7Fta   KENYA    4KENYA          AFRICA      24-609-427-7461FURNITURE 
6271      Customer#000006271       C61IFNXGXjOgzUAf8drHHKF  MOROCCO  1MOROCCO        AFRICA      25-684-604-9775AUTOMOBILE
6279      Customer#000006279       Ft4nZfY7                 ETHIOPIA 1ETHIOPIA       AFRICA      15-959-804-6641FURNITURE 
6287      Customer#000006287       b1WalykIgCZUEIk,KPnxg7y  SAUDI ARA0SAUDI ARABIA   MIDDLE EAST 30-888-430-9618BUILDING  
6295      Customer#000006295       YEDvY2dxIZA5AFzrYqM2     IRAQ     5IRAQ           MIDDLE EAST 21-742-992-5555BUILDING  
6303      Customer#000006303       YlPFtsXInnJ9pylCP3WVn    VIETNAM  8VIETNAM        ASIA        31-668-855-6222HOUSEHOLD 
6311      Customer#000006311       wSwN,5PelFjtbAIv,SzZXy   PERU     2PERU           AMERICA     27-844-493-2679HOUSEHOLD 
6319      Customer#000006319       j1p9Rogz9sN1u9g0cyHBNs   KENYA    9KENYA          AFRICA      24-220-344-2153BUILDING  
6327      Customer#000006327       zfiwjLhIm3ykcc0PE        MOZAMBIQU7MOZAMBIQUE     AFRICA      26-100-773-2281BUILDING  
6335      Customer#000006335       4V2jDP,                  CHINA    1CHINA          ASIA        28-199-391-2773AUTOMOBILE
6343      Customer#000006343       RxSzYVBobmzOfG7NTC3      SAUDI ARA6SAUDI ARABIA   MIDDLE EAST 30-319-257-8113HOUSEHOLD 
6351      Customer#000006351       mXVsAYZWVd8rduL2Ndnd2    RUSSIA   4RUSSIA         EUROPE      32-532-276-3844BUILDING  
6359      Customer#000006359       fhA9rzJfqM686            RUSSIA   1RUSSIA         EUROPE      32-505-148-1283MACHINERY 
6367      Customer#000006367       hGP9UlKdD2BN             BRAZIL   6BRAZIL         AMERICA     12-344-811-4898MACHINERY 
6375      Customer#000006375       ,f00Mk7z1TQ              PERU     9PERU           AMERICA     27-404-691-9550HOUSEHOLD 
6383      Customer#000006383       pZMLOQVPjf               INDIA    4INDIA          ASIA        18-711-382-7256MACHINERY 
6391      Customer#000006391       tJFRcLobeDbMdgzr1EfS     IRAN     4IRAN           MIDDLE EAST 20-706-943-6970HOUSEHOLD 
6399      Customer#000006399       dQbyCKR,g2,MXLYP         SAUDI ARA8SAUDI ARABIA   MIDDLE EAST 30-618-188-9535MACHINERY 
6407      Customer#000006407       BtK4gy                   FRANCE   4FRANCE         EUROPE      16-483-145-1227MACHINERY 
6415      Customer#000006415       0SOe8iGHkEt              IRAN     1IRAN           MIDDLE EAST 20-612-486-4774HOUSEHOLD 
6423      Customer#000006423       7nudsRA5wmNNjs4,F        ROMANIA  5ROMANIA        EUROPE      29-790-914-9967FURNITURE 
6431      Customer#000006431       alr2AvVdnwHuR6MYiNcZv    EGYPT    0EGYPT          MIDDLE EAST 14-247-559-5046MACHINERY 
6439      Customer#000006439       JoIRrAaO8XlKsPF35        JORDAN   0JORDAN         MIDDLE EAST 23-451-971-3902MACHINERY 
6447      Customer#000006447       2iQk,R9iPSQK             UNITED KI1UNITED KINGDOM EUROPE      33-674-104-1894MACHINERY 
6455      Customer#000006455       unZZGWq2HBJ4EKR3         BRAZIL   7BRAZIL         AMERICA     12-594-331-9684MACHINERY 
6463      Customer#000006463       M9Oy,Xx9CbN GSl3L6khL0LT UNITED KI1UNITED KINGDOM EUROPE      33-771-525-8953HOUSEHOLD 
6471      Customer#000006471       z64U8Zsf                 ARGENTINA5ARGENTINA      AMERICA     11-410-170-5269AUTOMOBILE
6479      Customer#000006479       r,YZ8Bqo9gHbHFfnEITjeU4  IRAQ     7IRAQ           MIDDLE EAST 21-381-234-9421FURNITURE 
6487      Customer#000006487       1JfLyCcXK                JAPAN    1JAPAN          ASIA        22-575-661-2825HOUSEHOLD 
6495      Customer#000006495       Hs,w9KO2                 CHINA    6CHINA          ASIA        28-364-157-6168AUTOMOBILE
6503      Customer#000006503       4p3W4XHBSKbswk           IRAQ     2IRAQ           MIDDLE EAST 21-165-865-1811FURNITURE 
