4         Customer#000000004       XxVSJsL                  EGYPT    9EGYPT          MIDDLE EAST 14-316-370-8752MACHINERY 
12        Customer#000000012       9PWKuhzT                 JORDAN   6JORDAN         MIDDLE EAST 23-140-971-4744HOUSEHOLD 
20        Customer#000000020       JrPk8Pq                  RUSSIA   6RUSSIA         EUROPE      32-355-456-3066FURNITURE 
28        Customer#000000028       iVyg0daQ,Tha8x2          INDIA    8INDIA          ASIA        18-873-225-9170FURNITURE 
36        Customer#000000036       3TvCzjuPzpJ0,            VIETNAM  6VIETNAM        ASIA        31-550-983-8789BUILDING  
44        Customer#000000044       Oi,dOSPwDu4jo4x,,P85     MOZAMBIQU6MOZAMBIQUE     AFRICA      26-497-418-3223AUTOMOBILE
52        Customer#000000052       7 QOqGqqSy9jfV51         IRAQ     2IRAQ           MIDDLE EAST 21-840-631-1483HOUSEHOLD 
60        Customer#000000060       FyodhjwMChsZ             JAPAN    5JAPAN          ASIA        22-597-546-1129MACHINERY 
68        Customer#000000068       o8AibcCRkXvQ             JAPAN    5JAPAN          ASIA        22-306-378-6261HOUSEHOLD 
76        Customer#000000076       m3sbCvjMOHyaOofH         ALGERIA  2ALGERIA        AFRICA      10-508-120-6193FURNITURE 
84        Customer#000000084       lpXz6Fwr9945rnbtMc8Pl    IRAQ     8IRAQ           MIDDLE EAST 21-342-675-6375FURNITURE 
92        Customer#000000092       obP PULk2LH LqNF,K9hcbNq BRAZIL   3BRAZIL         AMERICA     12-366-371-1592MACHINERY 
100       Customer#000000100       fptUABXc                 SAUDI ARA8SAUDI ARABIA   MIDDLE EAST 30-290-876-8044FURNITURE 
108       Customer#000000108       GPoeEv                   ETHIOPIA 6ETHIOPIA       AFRICA      15-718-707-9127BUILDING  
116       Customer#000000116       yCuVxIgsZ3,qyK           MOZAMBIQU0MOZAMBIQUE     AFRICA      26-613-289-8301BUILDING  
124       Customer#000000124       aTbyVAW5t                CHINA    7CHINA          ASIA        28-741-194-8823AUTOMOBILE
132       Customer#000000132       QM5YabA                  EGYPT    1EGYPT          MIDDLE EAST 14-223-378-1017HOUSEHOLD 
140       Customer#000000140       XRqEPiKgcETII,           EGYPT    8EGYPT          MIDDLE EAST 14-999-141-1841MACHINERY 
148       Customer#000000148       BhSPlEWGvIJyT            IRAQ     6IRAQ           MIDDLE EAST 21-544-283-2761HOUSEHOLD 
156       Customer#000000156       5OS0edX2Y6B1cf9wJN       INDONESIA4INDONESIA      ASIA        19-493-471-1154AUTOMOBILE
164       Customer#000000164       YDW51PBWLX               EGYPT    1EGYPT          MIDDLE EAST 14-114-761-4492HOUSEHOLD 
172       Customer#000000172       KwgdKUL1G2Wac            RUSSIA   5RUSSIA         EUROPE      32-534-592-9124MACHINERY 
180       Customer#000000180       DSGW3RFoYJE opVw,Y       JORDAN   7JORDAN         MIDDLE EAST 23-459-168-4756FURNITURE 
188       Customer#000000188       58Srs6gEEoD3ZfwgXDM1Oay  ETHIOPIA 9ETHIOPIA       AFRICA      15-566-850-1857BUILDING  
196       Customer#000000196       68RstNo                  CHINA    2CHINA          ASIA        28-418-926-9665FURNITURE 
204       Customer#000000204       7U7u2K                   FRANCE   6FRANCE         EUROPE      16-348-532-2573BUILDING  
212       Customer#000000212       19U0iZ3Gt                GERMANY  5GERMANY        EUROPE      17-189-576-2316BUILDING  
220       Customer#000000220       TbUHVh                   MOZAMBIQU9MOZAMBIQUE     AFRICA      26-937-325-5040BUILDING  
228       Customer#000000228       A1Zvuxjdpt8TZP6i41H3fn9c SAUDI ARA4SAUDI ARABIA   MIDDLE EAST 30-592-676-5549FURNITURE 
236       Customer#000000236       kcW,mM0rhIstAcVaol1      KENYA    5KENYA          AFRICA      24-760-612-7604AUTOMOBILE
244       Customer#000000244       FBVbCpEVaFaP8Kog         MOROCCO  8MOROCCO        AFRICA      25-401-513-1471HOUSEHOLD 
252       Customer#000000252       db1bPFF xUkJYzvE3        MOZAMBIQU4MOZAMBIQUE     AFRICA      26-846-613-2161FURNITURE 
260       Customer#000000260       CrHY2zx4                 ARGENTINA2ARGENTINA      AMERICA     11-328-361-7644MACHINERY 
268       Customer#000000268       tkSLQoOpfOa601itad05EcN  CANADA   0CANADA         AMERICA     13-275-480-7889MACHINERY 
276       Customer#000000276       iSWxETEM                 MOZAMBIQU9MOZAMBIQUE     AFRICA      26-593-657-6804AUTOMOBILE
284       Customer#000000284       2ZgAkaBgb6aigORfI        FRANCE   9FRANCE         EUROPE      16-365-120-4685AUTOMOBILE
292       Customer#000000292       hCXh3vxC                 IRAQ     6IRAQ           MIDDLE EAST 21-238-434-4088HOUSEHOLD 
300       Customer#000000300       I0fJfo6                  GERMANY  5GERMANY        EUROPE      17-431-894-6756AUTOMOBILE
308       Customer#000000308       c9WuNBiEYmGxeB           INDONESIA8INDONESIA      ASIA        19-637-489-7594HOUSEHOLD 
316       Customer#000000316       zE dN3                   INDIA    8INDIA          ASIA        18-448-271-3617MACHINERY 
324       Customer#000000324       fiW1n6dLSVRkXj7kU1768    BRAZIL   6BRAZIL         AMERICA     12-336-944-6627FURNITURE 
332       Customer#000000332       Jfosq,G6ziag7M04IvCx7    RUSSIA   6RUSSIA         EUROPE      32-116-536-8968HOUSEHOLD 
340       Customer#000000340       WRnPrKQmAmoMQgHQERoVO    BRAZIL   0BRAZIL         AMERICA     12-359-195-1238BUILDING  
348       Customer#000000348       ciP7BWkhOe1IbbVGlq       JORDAN   4JORDAN         MIDDLE EAST 23-332-577-6149HOUSEHOLD 
356       Customer#000000356       9RfNXUJivKTonL           IRAN     3IRAN           MIDDLE EAST 20-281-659-4511FURNITURE 
364       Customer#000000364       SQ3b5Q5OtrmmZjJ87tq,o1T  UNITED KI2UNITED KINGDOM EUROPE      33-847-752-7805HOUSEHOLD 
372       Customer#000000372       aKPMNZfbgV               ROMANIA  6ROMANIA        EUROPE      29-895-223-2104MACHINERY 
380       Customer#000000380       n2w3Jd1bipwICbOVgrE      VIETNAM  9VIETNAM        ASIA        31-472-237-6682BUILDING  
388       Customer#000000388       dV4lqEuf                 GERMANY  5GERMANY        EUROPE      17-344-354-1284HOUSEHOLD 
396       Customer#000000396       miE7JrCdGpQkF4zYJ27tB    RUSSIA   4RUSSIA         EUROPE      32-728-806-3919BUILDING  
404       Customer#000000404       2orgvLJ05jOvM292m        RUSSIA   6RUSSIA         EUROPE      32-104-555-8099BUILDING  
412       Customer#000000412       5IN2Y,QrhDJ2YBVGKiDbMpz  RUSSIA   4RUSSIA         EUROPE      32-451-309-8032BUILDING  
420       Customer#000000420       HV0YB82MW                SAUDI ARA7SAUDI ARABIA   MIDDLE EAST 30-987-801-1621BUILDING  
428       Customer#000000428       TCVjlzbX7x,kWcHN33L      VIETNAM  6VIETNAM        ASIA        31-934-657-1225BUILDING  
436       Customer#000000436       4DCNzAT842cVYTcaUS94kR   ROMANIA  1ROMANIA        EUROPE      29-127-348-3929FURNITURE 
444       Customer#000000444       D8l4G8i9aZ7KRbqp6        ARGENTINA2ARGENTINA      AMERICA     11-477-261-5280HOUSEHOLD 
452       Customer#000000452       ,TI7FdTc gCX             FRANCE   5FRANCE         EUROPE      16-198-537-6084BUILDING  
460       Customer#000000460       Gbx5Hnw,                 IRAQ     5IRAQ           MIDDLE EAST 21-386-662-8215FURNITURE 
468       Customer#000000468       IcbihAtOVW               IRAN     0IRAN           MIDDLE EAST 20-590-709-1310FURNITURE 
476       Customer#000000476       68r87HCBbQkVYa           BRAZIL   0BRAZIL         AMERICA     12-716-297-9600BUILDING  
484       Customer#000000484       ismzlUzrqRMRGWm          SAUDI ARA4SAUDI ARABIA   MIDDLE EAST 30-710-711-7359BUILDING  
492       Customer#000000492       JexAgMLuUHoElYFaKx,hJcA  INDIA    5INDIA          ASIA        18-656-498-6317AUTOMOBILE
500       Customer#000000500       fy7qx5fHLhcb             EGYPT    5EGYPT          MIDDLE EAST 14-849-556-3871AUTOMOBILE
508       Customer#000000508       q9Vq9 n                  CHINA    0CHINA          ASIA        28-813-198-6070BUILDING  
516       Customer#000000516       EJwOQMTQnFwvd8r Y7f9i5PO FRANCE   2FRANCE         EUROPE      16-233-978-8924MACHINERY 
524       Customer#000000524       bpsO77xiAmjwOx           INDONESIA0INDONESIA      ASIA        19-903-111-6865HOUSEHOLD 
532       Customer#000000532       xwWO3lWjgVJTZwhnltyH6    MOROCCO  3MOROCCO        AFRICA      25-905-657-3719MACHINERY 
540       Customer#000000540       YkaXu3                   MOZAMBIQU5MOZAMBIQUE     AFRICA      26-157-600-5774MACHINERY 
548       Customer#000000548       98nP31ToAGK tCCkYm7HqBZt EGYPT    2EGYPT          MIDDLE EAST 14-740-660-1091BUILDING  
556       Customer#000000556       UMHllVkuyQUQ3aLXCVRx     ARGENTINA2ARGENTINA      AMERICA     11-911-439-8579MACHINERY 
564       Customer#000000564       qPQOo9                   EGYPT    8EGYPT          MIDDLE EAST 14-799-703-6897MACHINERY 
572       Customer#000000572       Nf4Yqb49BqG              IRAQ     6IRAQ           MIDDLE EAST 21-698-215-4321AUTOMOBILE
580       Customer#000000580       wpvPbaP                  IRAQ     2IRAQ           MIDDLE EAST 21-858-676-8007BUILDING  
588       Customer#000000588       ex9SkK7K uM,ki1dsO7PgZL  PERU     2PERU           AMERICA     27-607-706-7316FURNITURE 
596       Customer#000000596       hoByQV2JchlIWf           ETHIOPIA 1ETHIOPIA       AFRICA      15-419-791-8044MACHINERY 
604       Customer#000000604       qCQsFELZ3W hlmi,zOHBcZGo VIETNAM  8VIETNAM        ASIA        31-867-976-1229HOUSEHOLD 
612       Customer#000000612       oNFqorGhq3a3wo           KENYA    7KENYA          AFRICA      24-730-199-9255HOUSEHOLD 
620       Customer#000000620       3ztw9KQqKGNsiMM,I1 6g2f, INDIA    1INDIA          ASIA        18-159-123-2472AUTOMOBILE
628       Customer#000000628       Vzraru5K                 PERU     0PERU           AMERICA     27-856-490-8965FURNITURE 
636       Customer#000000636       7urmO1zY77WBPOWn7pXA O   GERMANY  2GERMANY        EUROPE      17-666-625-1756FURNITURE 
644       Customer#000000644       bfZrdZE0QHtM             CHINA    3CHINA          ASIA        28-457-292-4532HOUSEHOLD 
652       Customer#000000652       0WlNKsoRqdjU9,5 Qz,      SAUDI ARA8SAUDI ARABIA   MIDDLE EAST 30-550-478-8337AUTOMOBILE
660       Customer#000000660       ZD4fphyx                 ALGERIA  0ALGERIA        AFRICA      10-809-178-1069MACHINERY 
668       Customer#000000668       PCmw0r6KkLjX             MOROCCO  3MOROCCO        AFRICA      25-677-502-9642FURNITURE 
676       Customer#000000676       JzJnD kA3                UNITED ST4UNITED STATES  AMERICA     34-449-974-9455HOUSEHOLD 
684       Customer#000000684       5kSJ3qMS,7YKdfmwBFzQN    MOROCCO  9MOROCCO        AFRICA      25-457-962-6796HOUSEHOLD 
692       Customer#000000692       d6XE9sg,  wINvIz8aZ      ROMANIA  8ROMANIA        EUROPE      29-394-649-6639AUTOMOBILE
700       Customer#000000700       zyWvi,SGc                ALGERIA  9ALGERIA        AFRICA      10-326-694-8494MACHINERY 
708       Customer#000000708       9iJJ868sXAdFgZyo0V       PERU     7PERU           AMERICA     27-439-527-1598BUILDING  
716       Customer#000000716       jbXpMEcV9j,6ci           JAPAN    7JAPAN          ASIA        22-564-345-9181AUTOMOBILE
724       Customer#000000724       dF80enl1y5Mfcc           ETHIOPIA 7ETHIOPIA       AFRICA      15-917-430-6625AUTOMOBILE
732       Customer#000000732       tQ,r4voHok7oeKw          MOZAMBIQU0MOZAMBIQUE     AFRICA      26-460-231-3330BUILDING  
740       Customer#000000740       FCerGpsfsWAsBrQTyqdzM    IRAN     8IRAN           MIDDLE EAST 20-963-102-2109BUILDING  
748       Customer#000000748       1 nkl3GMSnweulTNAM       UNITED KI8UNITED KINGDOM EUROPE      33-197-442-7489AUTOMOBILE
756       Customer#000000756       Lv7cG by4Wyd8Hzm         KENYA    1KENYA          AFRICA      24-543-155-2802AUTOMOBILE
764       Customer#000000764       F8WBznjtO2bX2knXl4g      MOZAMBIQU0MOZAMBIQUE     AFRICA      26-784-325-2877MACHINERY 
772       Customer#000000772       TBxlR0AAHeSYl            SAUDI ARA9SAUDI ARABIA   MIDDLE EAST 30-238-449-5867MACHINERY 
780       Customer#000000780       CMxcdzgEU                INDIA    2INDIA          ASIA        18-990-596-6394FURNITURE 
788       Customer#000000788       LbFHoDpNUSu3AyDS         MOZAMBIQU4MOZAMBIQUE     AFRICA      26-972-641-3470FURNITURE 
796       Customer#000000796       79bj5Rk3jJ               CANADA   3CANADA         AMERICA     13-874-655-2450HOUSEHOLD 
804       Customer#000000804       u6xYwCLD,V               UNITED ST3UNITED STATES  AMERICA     34-362-408-8257AUTOMOBILE
812       Customer#000000812       u9uI3BE68quHja6k0,UX     PERU     0PERU           AMERICA     27-168-912-3322BUILDING  
820       Customer#000000820       xsYy3Nu7RhNYyB           EGYPT    9EGYPT          MIDDLE EAST 14-951-129-4570AUTOMOBILE
828       Customer#000000828       0PkG ELwBIgU4AsN         UNITED KI6UNITED KINGDOM EUROPE      33-860-221-3053BUILDING  
836       Customer#000000836       rayz3tXswDbL4hyIr5SM     JAPAN    5JAPAN          ASIA        22-197-919-1561FURNITURE 
844       Customer#000000844       1nUzjsH9HS1sPAGLwDIom9I  IRAQ     8IRAQ           MIDDLE EAST 21-326-835-7466BUILDING  
852       Customer#000000852       fR1Cq8d6m,zJwS           ETHIOPIA 9ETHIOPIA       AFRICA      15-164-438-6649AUTOMOBILE
860       Customer#000000860       t0GtEsh39KvInV           JAPAN    1JAPAN          ASIA        22-570-465-9441BUILDING  
868       Customer#000000868       cFG8Fa5h1e u             RUSSIA   9RUSSIA         EUROPE      32-957-657-6256FURNITURE 
876       Customer#000000876       NMzgtdV zCuRIMK0vV,      SAUDI ARA3SAUDI ARABIA   MIDDLE EAST 30-424-738-7700MACHINERY 
884       Customer#000000884       5KyisO0Tv9ZtlJh          VIETNAM  4VIETNAM        ASIA        31-934-963-9197FURNITURE 
892       Customer#000000892       N KwiRAwIk6K             INDONESIA4INDONESIA      ASIA        19-410-974-3034FURNITURE 
900       Customer#000000900       kEhE1Y,OoZTDv,Auh d      ARGENTINA4ARGENTINA      AMERICA     11-526-466-5782BUILDING  
908       Customer#000000908       Fa5bchMKUMsaNKO          JAPAN    4JAPAN          ASIA        22-766-597-6857AUTOMOBILE
916       Customer#000000916       9Zo7nkmzJla4             UNITED KI1UNITED KINGDOM EUROPE      33-247-379-9099MACHINERY 
924       Customer#000000924       yKEtokQYXiu              MOROCCO  9MOROCCO        AFRICA      25-334-440-6550BUILDING  
932       Customer#000000932       HN9Ap0NsJ                JORDAN   2JORDAN         MIDDLE EAST 23-842-803-3298BUILDING  
940       Customer#000000940       T7ROXBXdajS,vkw          ROMANIA  1ROMANIA        EUROPE      29-532-949-9576AUTOMOBILE
948       Customer#000000948       yxBr7nLGx                PERU     6PERU           AMERICA     27-289-486-3780AUTOMOBILE
956       Customer#000000956       aI12bsLSd1Y4dIx2M        SAUDI ARA5SAUDI ARABIA   MIDDLE EAST 30-345-608-3230HOUSEHOLD 
964       Customer#000000964       ZnBNwMqvW7y3FSn6025      JAPAN    9JAPAN          ASIA        22-195-561-1999FURNITURE 
972       Customer#000000972       ImKvHrrNc3rfWe           EGYPT    1EGYPT          MIDDLE EAST 14-665-514-5075MACHINERY 
980       Customer#000000980       UsrigSqZBnmbXhXNR6ibl    ARGENTINA5ARGENTINA      AMERICA     11-669-382-8172AUTOMOBILE
988       Customer#000000988       3BNYKEUyMbzfb4           CANADA   4CANADA         AMERICA     13-649-537-7111FURNITURE 
996       Customer#000000996       yjrSjcG z0Rm5PYrV        RUSSIA   3RUSSIA         EUROPE      32-552-107-8305AUTOMOBILE
1004      Customer#000001004       mBaNGEJoY2tgXD60V2DE     INDIA    1INDIA          ASIA        18-168-714-9317MACHINERY 
1012      Customer#000001012       5Zsp rqM6o               EGYPT    6EGYPT          MIDDLE EAST 14-245-168-9141AUTOMOBILE
1020      Customer#000001020       DHom,LSHKfYSwLSZv39Aoo   CANADA   0CANADA         AMERICA     13-564-525-7551MACHINERY 
1028      Customer#000001028       NxmOhIN,w45aogQ1hZSvqo   IRAN     4IRAN           MIDDLE EAST 20-815-521-8703AUTOMOBILE
1036      Customer#000001036       fxujgj8DOF               INDIA    7INDIA          ASIA        18-232-249-8744BUILDING  
1044      Customer#000001044       Eh2e8gLyS                ALGERIA  5ALGERIA        AFRICA      10-268-948-1822BUILDING  
1052      Customer#000001052       OcXtKS,1Hvf2D0 rPvh      JORDAN   1JORDAN         MIDDLE EAST 23-469-761-6540BUILDING  
1060      Customer#000001060       aWJkU6JJJOvg             INDIA    5INDIA          ASIA        18-699-393-9306HOUSEHOLD 
1068      Customer#000001068       ElWdGnnKpmo0sA1Au t      CHINA    2CHINA          ASIA        28-384-326-5401AUTOMOBILE
1076      Customer#000001076       C1gf0FyiU H88P0cpv       IRAN     6IRAN           MIDDLE EAST 20-756-795-7081AUTOMOBILE
1084      Customer#000001084       E091r836A                BRAZIL   3BRAZIL         AMERICA     12-663-307-4734FURNITURE 
1092      Customer#000001092       ,oAq2L6                  MOROCCO  0MOROCCO        AFRICA      25-848-613-6494HOUSEHOLD 
1100      Customer#000001100       PGXj,,vjA                JAPAN    5JAPAN          ASIA        22-629-339-9098BUILDING  
1108      Customer#000001108       9sPt6a66R0eCRVYh9Qr      GERMANY  2GERMANY        EUROPE      17-540-153-4588BUILDING  
1116      Customer#000001116       aWuLgbu,8                KENYA    5KENYA          AFRICA      24-907-826-8598AUTOMOBILE
1124      Customer#000001124       EQNw9dN                  ARGENTINA6ARGENTINA      AMERICA     11-226-191-3150BUILDING  
1132      Customer#000001132       6dcMOh60XV               RUSSIA   6RUSSIA         EUROPE      32-259-640-4230AUTOMOBILE
1140      Customer#000001140       leG5nToZpjm              SAUDI ARA1SAUDI ARABIA   MIDDLE EAST 30-146-308-4402AUTOMOBILE
1148      Customer#000001148       7PslyqtS1K2Pabjht 4qga   ROMANIA  6ROMANIA        EUROPE      29-482-373-3184AUTOMOBILE
1156      Customer#000001156       3ShFbt9dTbLOG4lUBvc1AZp  KENYA    2KENYA          AFRICA      24-991-197-8411HOUSEHOLD 
1164      Customer#000001164       XWfNRnO2S5KAW0VodNwaBDix ALGERIA  6ALGERIA        AFRICA      10-588-508-9816HOUSEHOLD 
1172      Customer#000001172       r dreL8m8cRaiIz IqZ83o   KENYA    4KENYA          AFRICA      24-626-952-2868FURNITURE 
1180      Customer#000001180       jI4QtviiCs0,LOgU         JORDAN   7JORDAN         MIDDLE EAST 23-913-663-3926BUILDING  
1188      Customer#000001188       PtwoF3jNQ9r6 GbPI        MOROCCO  6MOROCCO        AFRICA      25-546-225-8025MACHINERY 
1196      Customer#000001196       S3sw3q SDWVuU            SAUDI ARA2SAUDI ARABIA   MIDDLE EAST 30-123-214-1345BUILDING  
1204      Customer#000001204       QxpCVhq2x0PwW,zgZ A      SAUDI ARA7SAUDI ARABIA   MIDDLE EAST 30-645-311-5803HOUSEHOLD 
1212      Customer#000001212       kjiVLfadsq6sU3A6MYwySu X RUSSIA   5RUSSIA         EUROPE      32-919-120-8773HOUSEHOLD 
1220      Customer#000001220       tbyect2HMX47T            CHINA    4CHINA          ASIA        28-630-641-9520FURNITURE 
1228      Customer#000001228       fV,ZM6pj1nivvbnfseV      JAPAN    9JAPAN          ASIA        22-236-933-6764AUTOMOBILE
1236      Customer#000001236       pTEEPYlnQBzi558          IRAQ     5IRAQ           MIDDLE EAST 21-752-593-1953MACHINERY 
1244      Customer#000001244       I3DrbiKwP3dxs            ETHIOPIA 0ETHIOPIA       AFRICA      15-207-960-8963BUILDING  
1252      Customer#000001252       u2OUDBxaayX4             JAPAN    6JAPAN          ASIA        22-737-957-7463MACHINERY 
1260      Customer#000001260       npdrgr5Yqp0znvQt,Cw07    BRAZIL   0BRAZIL         AMERICA     12-755-470-9095MACHINERY 
1268      Customer#000001268       SHn6HpO2VXBw3RJFPxjQFGa  UNITED ST5UNITED STATES  AMERICA     34-125-365-3873BUILDING  
1276      Customer#000001276       c5UAVe71MPvmerPaf        MOZAMBIQU1MOZAMBIQUE     AFRICA      26-836-309-5330AUTOMOBILE
1284      Customer#000001284       sdj PCsILD6mOJfEuIIbr    CHINA    0CHINA          ASIA        28-423-976-1277BUILDING  
1292      Customer#000001292       QVr2XTDOMzWc             VIETNAM  3VIETNAM        ASIA        31-701-203-4023BUILDING  
1300      Customer#000001300       VmW1dNLVaQY0ud6          UNITED KI8UNITED KINGDOM EUROPE      33-622-704-2559BUILDING  
1308      Customer#000001308       Ndovi7D9gJ u1gjQwYOkIAR  CHINA    2CHINA          ASIA        28-411-179-8641MACHINERY 
1316      Customer#000001316       nmbpR1rqOdlUDv           ETHIOPIA 1ETHIOPIA       AFRICA      15-658-710-7732BUILDING  
1324      Customer#000001324       6qS1ZDpAYr9aED9Yh        GERMANY  7GERMANY        EUROPE      17-772-288-3467AUTOMOBILE
1332      Customer#000001332       1JMz4nbClfcx             CHINA    8CHINA          ASIA        28-667-654-1218FURNITURE 
1340      Customer#000001340       dYRQ2t                   VIETNAM  8VIETNAM        ASIA        31-724-342-9663HOUSEHOLD 
1348      Customer#000001348       CgtcDDYMnvs              UNITED KI7UNITED KINGDOM EUROPE      33-600-102-7633MACHINERY 
1356      Customer#000001356       3SLzAiW4PihnFUE243       ETHIOPIA 0ETHIOPIA       AFRICA      15-100-679-8620HOUSEHOLD 
1364      Customer#000001364       INrMv02tUJWFSRMEbBl0o    ROMANIA  4ROMANIA        EUROPE      29-672-651-7215BUILDING  
1372      Customer#000001372       WiWQk7DyBtI              UNITED KI6UNITED KINGDOM EUROPE      33-884-709-9933HOUSEHOLD 
1380      Customer#000001380       a,q fKSYFADxRtR          PERU     1PERU           AMERICA     27-648-692-5280HOUSEHOLD 
1388      Customer#000001388       WaKdgWEru70hsL8nyLeEkn   JORDAN   0JORDAN         MIDDLE EAST 23-279-343-2226FURNITURE 
1396      Customer#000001396       M4dHuyrt                 CANADA   0CANADA         AMERICA     13-747-822-1008BUILDING  
1404      Customer#000001404       pIO5i3yjeODChGMH         JAPAN    5JAPAN          ASIA        22-530-369-2470MACHINERY 
1412      Customer#000001412       gfsI6WU i7kYypv09gG      IRAN     1IRAN           MIDDLE EAST 20-287-531-4413BUILDING  
1420      Customer#000001420       mjkRUOEzdCWpNdpp5PKOObMm INDONESIA1INDONESIA      ASIA        19-643-198-7454AUTOMOBILE
1428      Customer#000001428       3SdWi3lKPXk              MOROCCO  9MOROCCO        AFRICA      25-737-761-9851FURNITURE 
1436      Customer#000001436       kV5m0jk                  IRAN     2IRAN           MIDDLE EAST 20-825-281-3057MACHINERY 
1444      Customer#000001444       8WcsyfQU5svH9m           GERMANY  4GERMANY        EUROPE      17-479-550-3012HOUSEHOLD 
1452      Customer#000001452       51mhHAvPHZACedHYXVU5HXo  GERMANY  5GERMANY        EUROPE      17-110-905-7593FURNITURE 
1460      Customer#000001460       AEgBZGLmuM               SAUDI ARA8SAUDI ARABIA   MIDDLE EAST 30-416-805-3778BUILDING  
1468      Customer#000001468       APEd1ssFxDC9fhwosxxe     JAPAN    6JAPAN          ASIA        22-588-166-3701BUILDING  
1476      Customer#000001476       nsPnedR                  MOZAMBIQU5MOZAMBIQUE     AFRICA      26-859-128-6541BUILDING  
1484      Customer#000001484       WcOint654aJSt            CHINA    2CHINA          ASIA        28-341-717-5408FURNITURE 
1492      Customer#000001492       2QNz4Zy                  ARGENTINA4ARGENTINA      AMERICA     11-345-808-1728HOUSEHOLD 
1500      Customer#000001500       4zaoUzuWUTNF             ETHIOPIA 9ETHIOPIA       AFRICA      15-700-132-6542MACHINERY 
1508      Customer#000001508       E7fRkt7uXJHIR8akf        EGYPT    6EGYPT          MIDDLE EAST 14-707-977-3370AUTOMOBILE
1516      Customer#000001516       VFbEMU7LSQZPCZ3m73dNP2   KENYA    1KENYA          AFRICA      24-144-292-1527FURNITURE 
1524      Customer#000001524       nW8RCuzryVNcYMCvE        RUSSIA   7RUSSIA         EUROPE      32-824-714-7483BUILDING  
1532      Customer#000001532       VHjtEO1Owf               ARGENTINA6ARGENTINA      AMERICA     11-571-716-4466BUILDING  
1540      Customer#000001540       c1kVCV43v2RpUwCoZ        PERU     7PERU           AMERICA     27-111-177-6386HOUSEHOLD 
1548      Customer#000001548       0uaAwzhb                 UNITED KI2UNITED KINGDOM EUROPE      33-674-769-8577AUTOMOBILE
1556      Customer#000001556       0KThJm1X9rQH3Me,EI2QW8Hz IRAQ     5IRAQ           MIDDLE EAST 21-669-887-4701BUILDING  
1564      Customer#000001564        kQ06G,BN4K              ETHIOPIA 1ETHIOPIA       AFRICA      15-957-362-5722BUILDING  
1572      Customer#000001572       wS4p6kZ8dz8WyKfA         ETHIOPIA 3ETHIOPIA       AFRICA      15-251-985-3311FURNITURE 
1580      Customer#000001580       Uc5lBMkU8F1zW56P B       JORDAN   1JORDAN         MIDDLE EAST 23-476-853-6337BUILDING  
1588      Customer#000001588       TOCHdXfBa1               ARGENTINA0ARGENTINA      AMERICA     11-405-207-5389HOUSEHOLD 
1596      Customer#000001596       fpSMWv                   SAUDI ARA8SAUDI ARABIA   MIDDLE EAST 30-854-636-2094AUTOMOBILE
1604      Customer#000001604       DXn5Lr8KjjMebZznHhSsX    FRANCE   2FRANCE         EUROPE      16-420-983-7734HOUSEHOLD 
1612      Customer#000001612       oRmhlGYt71UyF            MOZAMBIQU5MOZAMBIQUE     AFRICA      26-278-328-6538AUTOMOBILE
1620      Customer#000001620       p2BIMDiWvXUWlb           ETHIOPIA 0ETHIOPIA       AFRICA      15-155-773-1604FURNITURE 
1628      Customer#000001628       xOOuECIqRpweZwxZR        CHINA    6CHINA          ASIA        28-158-441-1881MACHINERY 
1636      Customer#000001636       t1VhiA5gssjGA4,o5b2e     SAUDI ARA4SAUDI ARABIA   MIDDLE EAST 30-808-258-5904FURNITURE 
1644      Customer#000001644       la3oZuddBtIV             INDIA    2INDIA          ASIA        18-594-981-5245MACHINERY 
1652      Customer#000001652       uDJ6cxL10W sEd4,O7,rdo   GERMANY  2GERMANY        EUROPE      17-518-292-4915MACHINERY 
1660      Customer#000001660       ClPcSJym47f              VIETNAM  3VIETNAM        ASIA        31-967-116-2512AUTOMOBILE
1668      Customer#000001668       CS067JF7eX,a             UNITED KI3UNITED KINGDOM EUROPE      33-997-192-3206MACHINERY 
1676      Customer#000001676       WgQKmlxIcGQz86n5sQMb     ETHIOPIA 1ETHIOPIA       AFRICA      15-360-343-7787AUTOMOBILE
1684      Customer#000001684       7t,Vo69PIG3t,ncWkzo      FRANCE   6FRANCE         EUROPE      16-440-710-1053AUTOMOBILE
1692      Customer#000001692       C3n33KU                  GERMANY  3GERMANY        EUROPE      17-615-698-9639BUILDING  
1700      Customer#000001700       DK3nJU9doE2BtBjQTF       VIETNAM  3VIETNAM        ASIA        31-154-347-2849MACHINERY 
1708      Customer#000001708       BdT2freRSXKa31JLn        BRAZIL   3BRAZIL         AMERICA     12-601-674-9699AUTOMOBILE
1716      Customer#000001716       FmPtChYDv7s7KX5Zi8Ug     SAUDI ARA4SAUDI ARABIA   MIDDLE EAST 30-536-410-9893BUILDING  
1724      Customer#000001724       oCZhgKIkixlfOYiqSXqzeiUA IRAQ     1IRAQ           MIDDLE EAST 21-183-327-9525AUTOMOBILE
1732      Customer#000001732       2ZHJonGizgo0QY           BRAZIL   8BRAZIL         AMERICA     12-782-437-7735BUILDING  
1740      Customer#000001740       7SEO3ug3RMgpphEQ6Oz      ROMANIA  5ROMANIA        EUROPE      29-734-703-3169FURNITURE 
1748      Customer#000001748       4MaVm9Yo                 JORDAN   8JORDAN         MIDDLE EAST 23-170-897-8957AUTOMOBILE
1756      Customer#000001756       q8WlGuUrrao7             ROMANIA  1ROMANIA        EUROPE      29-804-245-4604MACHINERY 
1764      Customer#000001764       rlpLd5W4dwxpO7aAVKa7Yl   JORDAN   7JORDAN         MIDDLE EAST 23-650-287-9430HOUSEHOLD 
1772      Customer#000001772       AQla93nCHV               JORDAN   7JORDAN         MIDDLE EAST 23-179-361-5376MACHINERY 
1780      Customer#000001780       ZIeOfVh8u                PERU     0PERU           AMERICA     27-272-121-8270FURNITURE 
1788      Customer#000001788       4,Lldd8YNe,DOiCq2dSW4JL0 UNITED ST5UNITED STATES  AMERICA     34-441-862-1302BUILDING  
1796      Customer#000001796       HGRGXJA8AwhfBNSyDNn8j3JM IRAN     5IRAN           MIDDLE EAST 20-319-191-1692BUILDING  
1804      Customer#000001804       ,TDgHBX9y5eC5ycEwVK      MOROCCO  5MOROCCO        AFRICA      25-997-260-9415HOUSEHOLD 
1812      Customer#000001812       UqextI Ph                ALGERIA  3ALGERIA        AFRICA      10-205-895-7651BUILDING  
1820      Customer#000001820       RsTONzasImDok,RBqc2J09pa FRANCE   9FRANCE         EUROPE      16-842-179-8868BUILDING  
1828      Customer#000001828       djbEIhlvmo1i8ZU          JORDAN   2JORDAN         MIDDLE EAST 23-717-533-4885AUTOMOBILE
1836      Customer#000001836       0oV7OBdPNyXRqIes         GERMANY  4GERMANY        EUROPE      17-571-714-9870FURNITURE 
1844      Customer#000001844       1BOo5no2lQ8Fa            CHINA    6CHINA          ASIA        28-762-266-5219HOUSEHOLD 
1852      Customer#000001852       LCTu83UaCB               KENYA    0KENYA          AFRICA      24-217-885-5558AUTOMOBILE
1860      Customer#000001860       4,u2Yo                   MOROCCO  4MOROCCO        AFRICA      25-935-819-5986HOUSEHOLD 
1868      Customer#000001868       kD u32wkAhHa FvvBM,y     BRAZIL   8BRAZIL         AMERICA     12-775-274-3125MACHINERY 
1876      Customer#000001876       pUsteCJ                  GERMANY  5GERMANY        EUROPE      17-402-910-7680FURNITURE 
1884      Customer#000001884       TFjb8jysqh0cMW           ALGERIA  2ALGERIA        AFRICA      10-327-907-6973HOUSEHOLD 
1892      Customer#000001892       Mm4BlT6Q10AlsxwZBAoJE,r  KENYA    7KENYA          AFRICA      24-563-536-2996AUTOMOBILE
1900      Customer#000001900       lf78mUY8AHVrPld7M8Y      VIETNAM  9VIETNAM        ASIA        31-928-539-4902MACHINERY 
1908      Customer#000001908       eT6lmLb                  PERU     3PERU           AMERICA     27-509-123-6023HOUSEHOLD 
1916      Customer#000001916       jFGCdeXJV                ETHIOPIA 1ETHIOPIA       AFRICA      15-679-334-2191HOUSEHOLD 
1924      Customer#000001924       inc0YxJOJ                EGYPT    6EGYPT          MIDDLE EAST 14-515-211-9185AUTOMOBILE
1932      Customer#000001932       VhBhkEXBrpSzYgxu1jm      MOROCCO  2MOROCCO        AFRICA      25-901-624-2918FURNITURE 
1940      Customer#000001940       DIL GvUsP25WSgssh        UNITED ST0UNITED STATES  AMERICA     34-167-680-4846BUILDING  
1948      Customer#000001948       4aCCe9W1s4,VdYswJW       ETHIOPIA 4ETHIOPIA       AFRICA      15-445-341-2087HOUSEHOLD 
1956      Customer#000001956       sOgO,FYO1KNY3Q45s        VIETNAM  3VIETNAM        ASIA        31-587-850-2611HOUSEHOLD 
1964      Customer#000001964       xEoAWL                   IRAQ     1IRAQ           MIDDLE EAST 21-846-990-8843HOUSEHOLD 
1972      Customer#000001972       0XaaQuagZ1K9E6           GERMANY  3GERMANY        EUROPE      17-347-735-8220AUTOMOBILE
1980      Customer#000001980       rhVLwo9PmcGj8oWJSAIYmc   FRANCE   4FRANCE         EUROPE      16-177-405-9803AUTOMOBILE
1988      Customer#000001988       MdIopE                   INDONESIA9INDONESIA      ASIA        19-128-330-6797AUTOMOBILE
1996      Customer#000001996       SkYj5PW                  PERU     9PERU           AMERICA     27-599-901-3441BUILDING  
2004      Customer#000002004       dSqiw Nj                 JORDAN   2JORDAN         MIDDLE EAST 23-765-556-9055HOUSEHOLD 
2012      Customer#000002012       im31CJt                  JORDAN   1JORDAN         MIDDLE EAST 23-614-678-3864HOUSEHOLD 
2020      Customer#000002020       c b2MCHbGOvsKchTLv,DWirJ UNITED ST0UNITED STATES  AMERICA     34-972-866-1816AUTOMOBILE
2028      Customer#000002028       N9pTD3                   INDONESIA6INDONESIA      ASIA        19-627-546-1200AUTOMOBILE
2036      Customer#000002036       SQL,S7JfO9MYhALfKNge7Bg  IRAN     2IRAN           MIDDLE EAST 20-917-472-3146BUILDING  
2044      Customer#000002044       FLlHkLc                  IRAQ     4IRAQ           MIDDLE EAST 21-428-810-2980HOUSEHOLD 
2052      Customer#000002052       jcBhHPA 41BU3AnXj6z      UNITED KI4UNITED KINGDOM EUROPE      33-145-694-4958HOUSEHOLD 
2060      Customer#000002060        kY6weQvh3EKcZCH6N       MOROCCO  9MOROCCO        AFRICA      25-847-576-7240MACHINERY 
2068      Customer#000002068       q3hQ8nHh                 UNITED ST4UNITED STATES  AMERICA     34-651-115-9324HOUSEHOLD 
2076      Customer#000002076       QPDZQLQ8jkjO             INDONESIA9INDONESIA      ASIA        19-253-928-2314MACHINERY 
2084      Customer#000002084       SodacbEU1dQrC8JFmXGoE    IRAN     5IRAN           MIDDLE EAST 20-419-530-2570FURNITURE 
2092      Customer#000002092       mbXbLGq4DfFGP            ALGERIA  7ALGERIA        AFRICA      10-529-658-5526FURNITURE 
2100      Customer#000002100       nPpnU7O2YL6              JAPAN    1JAPAN          ASIA        22-140-758-6950HOUSEHOLD 
2108      Customer#000002108       CuAs5mo5Rl               UNITED KI2UNITED KINGDOM EUROPE      33-412-794-4890FURNITURE 
2116      Customer#000002116       GRLUzhpycmjBlsRGLUGbT0r  INDONESIA7INDONESIA      ASIA        19-548-767-5460FURNITURE 
2124      Customer#000002124       oWiMvxp                  ETHIOPIA 4ETHIOPIA       AFRICA      15-513-496-9872AUTOMOBILE
2132      Customer#000002132       EasP4hoFgC               ETHIOPIA 5ETHIOPIA       AFRICA      15-614-706-4939FURNITURE 
2140      Customer#000002140       2zzYVUn42WgH             EGYPT    8EGYPT          MIDDLE EAST 14-388-773-2926AUTOMOBILE
2148      Customer#000002148       Z8j3tN6lndBcBCEX         SAUDI ARA8SAUDI ARABIA   MIDDLE EAST 30-993-227-7544HOUSEHOLD 
2156      Customer#000002156       pUBFuzcBc7O6C2YIM        MOROCCO  2MOROCCO        AFRICA      25-502-192-7022BUILDING  
2164      Customer#000002164       GH3xzMl7iZmO 57FxA39     CANADA   5CANADA         AMERICA     13-767-489-1689MACHINERY 
2172      Customer#000002172       jk35bIp3FrT              PERU     2PERU           AMERICA     27-335-499-7390AUTOMOBILE
2180      Customer#000002180       mOyqWI9nES,ONZeQ0Lh      ETHIOPIA 5ETHIOPIA       AFRICA      15-970-717-2214FURNITURE 
2188      Customer#000002188       nT9ZHGQHkRnr2bR          ROMANIA  2ROMANIA        EUROPE      29-591-527-7257MACHINERY 
2196      Customer#000002196       VG5Vw ccGRxGP            ETHIOPIA 0ETHIOPIA       AFRICA      15-940-479-3617BUILDING  
2204      Customer#000002204       k lrxu1NXh               JAPAN    9JAPAN          ASIA        22-220-565-5902HOUSEHOLD 
2212      Customer#000002212       xrCTkFuEVvNA             BRAZIL   0BRAZIL         AMERICA     12-994-449-3305MACHINERY 
2220      Customer#000002220       SNc9HvtYZz7W6ZF80cc      CHINA    7CHINA          ASIA        28-476-147-5816MACHINERY 
2228      Customer#000002228       q7lpuCP                  JORDAN   8JORDAN         MIDDLE EAST 23-360-414-3672BUILDING  
2236      Customer#000002236       x8 7D8xSxqIGoVOlqVCEBf   ROMANIA  0ROMANIA        EUROPE      29-365-643-6121HOUSEHOLD 
2244      Customer#000002244       8O4UEe9brbG              IRAN     6IRAN           MIDDLE EAST 20-957-729-8274FURNITURE 
2252      Customer#000002252       pOwelvim8m0QelFgzY       ARGENTINA3ARGENTINA      AMERICA     11-107-927-6843AUTOMOBILE
2260      Customer#000002260       83he,, 9vWQfdcMW8SFXQO5R IRAQ     4IRAQ           MIDDLE EAST 21-404-725-8033MACHINERY 
2268      Customer#000002268       GqMgx9jixWjnwcys15726xV  RUSSIA   8RUSSIA         EUROPE      32-484-183-1095MACHINERY 
2276      Customer#000002276       AD5MZ2az                 SAUDI ARA1SAUDI ARABIA   MIDDLE EAST 30-777-805-4889MACHINERY 
2284      Customer#000002284       Fslslj2n44ldoYkdFg       ETHIOPIA 6ETHIOPIA       AFRICA      15-959-735-5323AUTOMOBILE
2292      Customer#000002292       2BFtZMgCsw8              SAUDI ARA6SAUDI ARABIA   MIDDLE EAST 30-256-639-2207MACHINERY 
2300      Customer#000002300       o5mPncfsjOhZnsRMe        INDIA    5INDIA          ASIA        18-828-627-4251BUILDING  
2308      Customer#000002308       6mRM8ogyRq7,RtCXkR       INDONESIA5INDONESIA      ASIA        19-601-391-8018MACHINERY 
2316      Customer#000002316       7,zaE8lfLkSbM98          FRANCE   9FRANCE         EUROPE      16-270-284-9699BUILDING  
2324      Customer#000002324       A66,HzSDrIXug9Q05F7iA    KENYA    8KENYA          AFRICA      24-947-463-4180MACHINERY 
2332      Customer#000002332       n8KuACpWFF1A1lK74thV     UNITED KI6UNITED KINGDOM EUROPE      33-396-729-8546MACHINERY 
2340      Customer#000002340       jYEMLnEv10ugy            BRAZIL   0BRAZIL         AMERICA     12-116-645-4295FURNITURE 
2348      Customer#000002348       taB02c3,AFqotgth9        SAUDI ARA6SAUDI ARABIA   MIDDLE EAST 30-599-493-5482HOUSEHOLD 
2356      Customer#000002356        EyYifddmva              ALGERIA  8ALGERIA        AFRICA      10-480-637-6594MACHINERY 
2364      Customer#000002364       oTV7YKwFSF,CSX,jhA       CHINA    8CHINA          ASIA        28-829-266-9703BUILDING  
2372      Customer#000002372       WASSONc5D                UNITED ST8UNITED STATES  AMERICA     34-599-690-8187MACHINERY 
2380      Customer#000002380       mzf8gd49H BRG046VbXfMn1r IRAN     0IRAN           MIDDLE EAST 20-539-688-4277FURNITURE 
2388      Customer#000002388       P4y,9B                   BRAZIL   2BRAZIL         AMERICA     12-824-563-2357AUTOMOBILE
2396      Customer#000002396       okkyWbuL5MPT             ARGENTINA1ARGENTINA      AMERICA     11-928-419-9611AUTOMOBILE
2404      Customer#000002404       0kaFq6X6VQFOcPJ3         IRAN     8IRAN           MIDDLE EAST 20-509-777-2443MACHINERY 
2412      Customer#000002412       fAFoJ1ynmfwd             ALGERIA  1ALGERIA        AFRICA      10-542-709-1008HOUSEHOLD 
2420      Customer#000002420       dy,EDKgHGGFUrPuy01bsWjKQ MOZAMBIQU3MOZAMBIQUE     AFRICA      26-125-532-3561MACHINERY 
2428      Customer#000002428       CkHat03lYyrU5ynseEVUibc  JAPAN    9JAPAN          ASIA        22-465-243-2347HOUSEHOLD 
2436      Customer#000002436       kTNw,U7whYR0Ra,Vvl       FRANCE   0FRANCE         EUROPE      16-704-287-9111HOUSEHOLD 
2444      Customer#000002444       p0Y1mQbJWqg,yt           BRAZIL   1BRAZIL         AMERICA     12-345-594-1850BUILDING  
2452      Customer#000002452       uGjmRcXU                 MOZAMBIQU9MOZAMBIQUE     AFRICA      26-942-399-1418MACHINERY 
2460      Customer#000002460       BP7aIw04                 ARGENTINA9ARGENTINA      AMERICA     11-241-387-5691AUTOMOBILE
2468      Customer#000002468       7XTfoJ0LMPI              GERMANY  9GERMANY        EUROPE      17-275-771-2786MACHINERY 
2476      Customer#000002476       fkrMZlEsXA3hB6           UNITED KI8UNITED KINGDOM EUROPE      33-758-172-5217FURNITURE 
2484      Customer#000002484       d3KShjHL                 CANADA   0CANADA         AMERICA     13-346-541-7046HOUSEHOLD 
2492      Customer#000002492       xz2ywgGUcb               FRANCE   2FRANCE         EUROPE      16-384-334-7076HOUSEHOLD 
2500      Customer#000002500       pbF43XhhwX6pWpZ6LTW      ALGERIA  7ALGERIA        AFRICA      10-263-139-9480MACHINERY 
2508      Customer#000002508       j5zn1NX,                 JAPAN    8JAPAN          ASIA        22-279-561-7398AUTOMOBILE
2516      Customer#000002516       Lpxveo                   INDIA    7INDIA          ASIA        18-508-287-7151BUILDING  
2524      Customer#000002524       2fiIFzFDfq XU,           KENYA    8KENYA          AFRICA      24-396-792-8505AUTOMOBILE
2532      Customer#000002532       grvHDEjFLW,C9RCRvypY     CANADA   4CANADA         AMERICA     13-380-220-8472BUILDING  
2540      Customer#000002540       i30pnFossBb9             FRANCE   1FRANCE         EUROPE      16-218-129-1350BUILDING  
2548      Customer#000002548       Vd2Bm6yeg                MOROCCO  4MOROCCO        AFRICA      25-765-391-6458AUTOMOBILE
2556      Customer#000002556       Ka3c9U8PjWPz8xgi         IRAN     8IRAN           MIDDLE EAST 20-488-404-2712MACHINERY 
2564      Customer#000002564       SuS pHJ7Bwp PSVrjZdp     JAPAN    0JAPAN          ASIA        22-840-829-4888AUTOMOBILE
2572      Customer#000002572       6QMHWy                   UNITED KI2UNITED KINGDOM EUROPE      33-519-553-8534BUILDING  
2580      Customer#000002580       BsNkh6sKbFVZUm           VIETNAM  5VIETNAM        ASIA        31-838-367-5281AUTOMOBILE
2588      Customer#000002588       4fbr7oKuzMHBDtsVz6iF     CHINA    1CHINA          ASIA        28-121-221-1239MACHINERY 
2596      Customer#000002596       JPNfm53KGdxGd            SAUDI ARA8SAUDI ARABIA   MIDDLE EAST 30-873-251-8916BUILDING  
2604      Customer#000002604       xwadGtf                  GERMANY  5GERMANY        EUROPE      17-411-310-2357MACHINERY 
2612      Customer#000002612       vGNT,nm                  BRAZIL   6BRAZIL         AMERICA     12-684-261-5099BUILDING  
2620      Customer#000002620       yLskrby9cnGvErSD3XIYIT   CHINA    9CHINA          ASIA        28-642-278-3931FURNITURE 
2628      Customer#000002628       8tZPEpNhYm2K6aR2yDJn     IRAQ     5IRAQ           MIDDLE EAST 21-401-109-1446HOUSEHOLD 
2636      Customer#000002636       sSj89wE1pA               UNITED KI6UNITED KINGDOM EUROPE      33-320-470-9900HOUSEHOLD 
2644      Customer#000002644       rTvEEj9                  JORDAN   8JORDAN         MIDDLE EAST 23-312-333-6835AUTOMOBILE
2652      Customer#000002652       4,GMZXLYlFQHWeJ          UNITED ST9UNITED STATES  AMERICA     34-810-651-1455BUILDING  
2660      Customer#000002660       t OROtv                  ROMANIA  1ROMANIA        EUROPE      29-340-830-2877MACHINERY 
2668      Customer#000002668       FiD4miVSLpeWBFM8X8kHwL S JAPAN    0JAPAN          ASIA        22-804-858-4731HOUSEHOLD 
2676      Customer#000002676       nUv AOgfPjsB2kWa         INDIA    6INDIA          ASIA        18-876-779-6912BUILDING  
2684      Customer#000002684       sXq7yMvPPauc             BRAZIL   7BRAZIL         AMERICA     12-847-432-3160HOUSEHOLD 
2692      Customer#000002692       Z3rYebFId IQshdnkpHxzyJ  ROMANIA  5ROMANIA        EUROPE      29-242-452-8886BUILDING  
2700      Customer#000002700       sRDRg2fHxX6fvCOhnPW      VIETNAM  7VIETNAM        ASIA        31-375-373-7986HOUSEHOLD 
2708      Customer#000002708       ZQYdobrBGWzpC            IRAN     9IRAN           MIDDLE EAST 20-743-103-5333HOUSEHOLD 
2716      Customer#000002716       IvQjhE2n5L2UOAf          ARGENTINA3ARGENTINA      AMERICA     11-384-804-8945BUILDING  
2724      Customer#000002724       qXAEXG5oGe1VS2x7         KENYA    6KENYA          AFRICA      24-243-968-7462MACHINERY 
2732      Customer#000002732       a,Tbmk5gycCtxIRqm JHkuS  UNITED KI1UNITED KINGDOM EUROPE      33-923-795-7342HOUSEHOLD 
2740      Customer#000002740       fcLR948rE9Xywi           PERU     1PERU           AMERICA     27-589-661-6555MACHINERY 
2748      Customer#000002748       OhqnGLYRQgwCgQKmzPubnSEV SAUDI ARA9SAUDI ARABIA   MIDDLE EAST 30-427-723-4305BUILDING  
2756      Customer#000002756       43hjKTETxHc9X RHneJuf    ALGERIA  8ALGERIA        AFRICA      10-324-755-6871MACHINERY 
2764      Customer#000002764       DJLmHNuxmdhMm            EGYPT    7EGYPT          MIDDLE EAST 14-505-581-7504HOUSEHOLD 
2772      Customer#000002772       Zrv8XzGCSp7BrltRIM1CH    ALGERIA  8ALGERIA        AFRICA      10-440-124-1957HOUSEHOLD 
2780      Customer#000002780       inWS7x1r6LwwFyBZWU       ALGERIA  3ALGERIA        AFRICA      10-938-114-9498AUTOMOBILE
2788      Customer#000002788       LqAefcfi                 MOZAMBIQU4MOZAMBIQUE     AFRICA      26-153-877-6287HOUSEHOLD 
2796      Customer#000002796       yqf7ny,XwJSlfMfhT        MOROCCO  7MOROCCO        AFRICA      25-946-358-9671FURNITURE 
2804      Customer#000002804       2esxrp CUFFN26           INDONESIA5INDONESIA      ASIA        19-653-668-6625FURNITURE 
2812      Customer#000002812       ZYPddBXWgFAN             JORDAN   3JORDAN         MIDDLE EAST 23-441-676-3795MACHINERY 
2820      Customer#000002820       nO5abCL                  PERU     7PERU           AMERICA     27-108-736-6994AUTOMOBILE
2828      Customer#000002828       NDkw2k vbRLDRe           CANADA   6CANADA         AMERICA     13-683-382-4073BUILDING  
2836      Customer#000002836       U14tEcJ9dfVEXO619vYO     BRAZIL   0BRAZIL         AMERICA     12-594-918-2818BUILDING  
2844      Customer#000002844       k1 A9 WimC4Qk5g          ARGENTINA7ARGENTINA      AMERICA     11-823-418-4012BUILDING  
2852      Customer#000002852       UT13WiO0AoOCnQvNXgeTxu   SAUDI ARA7SAUDI ARABIA   MIDDLE EAST 30-801-292-6951MACHINERY 
2860      Customer#000002860       aPS2huauf9EobVYpK        GERMANY  1GERMANY        EUROPE      17-819-732-5905FURNITURE 
2868      Customer#000002868       Qk2a14BCDN29XQ8MSz4      INDIA    8INDIA          ASIA        18-648-328-3614AUTOMOBILE
2876      Customer#000002876       gVnaVNO1dVi03mOI         SAUDI ARA2SAUDI ARABIA   MIDDLE EAST 30-301-635-2270BUILDING  
2884      Customer#000002884       dNVKn3uiRD2OdH8Lwi       MOROCCO  8MOROCCO        AFRICA      25-973-729-7553AUTOMOBILE
2892      Customer#000002892       0G1QvI70auHMzAkL0cmjExn  KENYA    4KENYA          AFRICA      24-978-894-5407AUTOMOBILE
2900      Customer#000002900       xeicQE                   INDONESIA5INDONESIA      ASIA        19-214-736-7655HOUSEHOLD 
2908      Customer#000002908       Czmsqr6uCbHI hFX         BRAZIL   6BRAZIL         AMERICA     12-915-913-4483MACHINERY 
2916      Customer#000002916        oTEiCQRlPzUQO           JORDAN   2JORDAN         MIDDLE EAST 23-545-967-7901BUILDING  
2924      Customer#000002924       OH4TkCHeqhcmz9,h lxA3RA  IRAN     4IRAN           MIDDLE EAST 20-951-641-9676MACHINERY 
2932      Customer#000002932       rqQebdXGH C              BRAZIL   9BRAZIL         AMERICA     12-198-566-4023MACHINERY 
2940      Customer#000002940       piwUa0O                  INDONESIA6INDONESIA      ASIA        19-163-825-2955HOUSEHOLD 
2948      Customer#000002948       Ht,4FRwc                 BRAZIL   0BRAZIL         AMERICA     12-541-857-5277BUILDING  
2956      Customer#000002956       cTaJAqxDF,SJqSk2         MOROCCO  0MOROCCO        AFRICA      25-382-638-8960AUTOMOBILE
2964      Customer#000002964       PQ3ImGiA                 GERMANY  6GERMANY        EUROPE      17-583-228-3038AUTOMOBILE
2972      Customer#000002972       jjI44EC kLxs             RUSSIA   4RUSSIA         EUROPE      32-973-920-6901BUILDING  
2980      Customer#000002980       ZcWOqcu70VIh6FPaEimr     KENYA    8KENYA          AFRICA      24-821-912-7369BUILDING  
2988      Customer#000002988       4m8SNvppLGnNNtN          JORDAN   0JORDAN         MIDDLE EAST 23-102-699-7162HOUSEHOLD 
2996      Customer#000002996       clN0j1Bo                 PERU     3PERU           AMERICA     27-294-754-1492FURNITURE 
3004      Customer#000003004       bP4r8H2vdZRETi7AKNrLkVE  JORDAN   9JORDAN         MIDDLE EAST 23-795-529-8679BUILDING  
3012      Customer#000003012       v1W0nws,bOeYk            INDIA    7INDIA          ASIA        18-282-475-7619AUTOMOBILE
3020      Customer#000003020       j4PPjYZil                IRAQ     3IRAQ           MIDDLE EAST 21-418-585-3308BUILDING  
3028      Customer#000003028       7Vs3 E7ts6CBYyqDWy       RUSSIA   4RUSSIA         EUROPE      32-949-886-4230AUTOMOBILE
3036      Customer#000003036       EaOGRT1K9D               ALGERIA  2ALGERIA        AFRICA      10-428-951-4933BUILDING  
3044      Customer#000003044       f,eeZdQY1c0WqkoBG        ROMANIA  7ROMANIA        EUROPE      29-743-882-1825FURNITURE 
3052      Customer#000003052       wHNgReL1MOsjt3           ARGENTINA9ARGENTINA      AMERICA     11-610-279-8271MACHINERY 
3060      Customer#000003060       C2QznPXZY18Ufu           CANADA   4CANADA         AMERICA     13-180-452-1302MACHINERY 
3068      Customer#000003068       gltpOV2SAyJdpq4vI        IRAN     6IRAN           MIDDLE EAST 20-604-756-4803AUTOMOBILE
3076      Customer#000003076       i8Iw7NS                  RUSSIA   2RUSSIA         EUROPE      32-739-595-7065AUTOMOBILE
3084      Customer#000003084       yPNKtt60bN0as7CYi5       MOZAMBIQU7MOZAMBIQUE     AFRICA      26-942-653-3664AUTOMOBILE
3092      Customer#000003092       wvi8Jz bL2oyBJVxZaa      MOROCCO  6MOROCCO        AFRICA      25-178-972-1495AUTOMOBILE
3100      Customer#000003100       RUQqZGgE1WI              ARGENTINA6ARGENTINA      AMERICA     11-399-722-2276FURNITURE 
3108      Customer#000003108       XnJLp8,eyaUsvd r0p       INDIA    6INDIA          ASIA        18-381-567-2322AUTOMOBILE
3116      Customer#000003116       qULfZgnOMtz tC1m         MOROCCO  5MOROCCO        AFRICA      25-999-385-9586FURNITURE 
3124      Customer#000003124       LHAZ7lZ8                 UNITED ST6UNITED STATES  AMERICA     34-794-899-5573HOUSEHOLD 
3132      Customer#000003132       ps89sosk                 BRAZIL   1BRAZIL         AMERICA     12-292-906-4282HOUSEHOLD 
3140      Customer#000003140       92g2Mv                   IRAQ     0IRAQ           MIDDLE EAST 21-363-597-8658BUILDING  
3148      Customer#000003148       7ja2DOutufy,0g8m7FPAI    GERMANY  0GERMANY        EUROPE      17-825-143-4716MACHINERY 
3156      Customer#000003156       WFCHnipSA                GERMANY  1GERMANY        EUROPE      17-130-897-3651FURNITURE 
3164      Customer#000003164       8Yk6zB4                  JORDAN   1JORDAN         MIDDLE EAST 23-150-579-1989HOUSEHOLD 
3172      Customer#000003172       iQoy9XmcCA8Ioun          ROMANIA  1ROMANIA        EUROPE      29-745-459-3139BUILDING  
3180      Customer#000003180       z6OmN3NU51uI19QI         IRAQ     1IRAQ           MIDDLE EAST 21-350-199-6773AUTOMOBILE
3188      Customer#000003188       OjzfuyIw16u1hQRvqo9u9VfF ALGERIA  1ALGERIA        AFRICA      10-420-761-5953HOUSEHOLD 
3196      Customer#000003196       uDDUb6LntcWdl8QnCTWuU1   IRAN     7IRAN           MIDDLE EAST 20-943-328-3021FURNITURE 
3204      Customer#000003204       jrkUYhmcznoS             KENYA    7KENYA          AFRICA      24-335-315-2897FURNITURE 
3212      Customer#000003212       XIZQ26                   JORDAN   1JORDAN         MIDDLE EAST 23-579-180-2582BUILDING  
3220      Customer#000003220       BzbS96xJWUVu             PERU     2PERU           AMERICA     27-261-744-5954MACHINERY 
3228      Customer#000003228       TOr0nJvg7                MOZAMBIQU6MOZAMBIQUE     AFRICA      26-227-114-7260FURNITURE 
3236      Customer#000003236       pXmVt00                  EGYPT    3EGYPT          MIDDLE EAST 14-729-466-7175HOUSEHOLD 
3244      Customer#000003244       3eDg6o,ZMT               ARGENTINA0ARGENTINA      AMERICA     11-658-681-4559BUILDING  
3252      Customer#000003252       goVOp7                   MOZAMBIQU8MOZAMBIQUE     AFRICA      26-588-264-6237BUILDING  
3260      Customer#000003260       G4lf19PUBw6CFo8hzXt5Z9d8 CHINA    6CHINA          ASIA        28-376-915-5624AUTOMOBILE
3268      Customer#000003268       DB m3FinBsG7xJu          UNITED KI3UNITED KINGDOM EUROPE      33-684-661-5663AUTOMOBILE
3276      Customer#000003276       XRyPVXW8JXR              PERU     3PERU           AMERICA     27-855-922-1664FURNITURE 
3284      Customer#000003284       zthwiHMy9p7aAbpD 0bL     MOZAMBIQU4MOZAMBIQUE     AFRICA      26-996-998-4199BUILDING  
3292      Customer#000003292       jgyiyDL xMHVs            GERMANY  4GERMANY        EUROPE      17-233-233-5166FURNITURE 
3300      Customer#000003300       qO4yheekrb               CHINA    1CHINA          ASIA        28-776-784-2181FURNITURE 
3308      Customer#000003308       eMHDqT6L4RM7tQp 6xN 8w1  ROMANIA  4ROMANIA        EUROPE      29-930-399-6628AUTOMOBILE
3316      Customer#000003316       mD86Vj                   CANADA   2CANADA         AMERICA     13-207-146-2375MACHINERY 
3324      Customer#000003324       fTQA3VGZC6Em             IRAQ     4IRAQ           MIDDLE EAST 21-415-479-7389MACHINERY 
3332      Customer#000003332       UI3qJEK76Y2N             CHINA    7CHINA          ASIA        28-476-291-7570HOUSEHOLD 
3340      Customer#000003340       TnqvH7bO6IdMCDkYODzSS    EGYPT    0EGYPT          MIDDLE EAST 14-511-724-4157BUILDING  
3348      Customer#000003348       rh6 8rk                  INDIA    0INDIA          ASIA        18-831-992-7782BUILDING  
3356      Customer#000003356       NXeqaeYSb                GERMANY  2GERMANY        EUROPE      17-633-470-6003AUTOMOBILE
3364      Customer#000003364       4VR hd                   BRAZIL   3BRAZIL         AMERICA     12-427-281-7719BUILDING  
3372      Customer#000003372       0ckPXbapxedEXlzQmADozC   GERMANY  2GERMANY        EUROPE      17-480-734-3168AUTOMOBILE
3380      Customer#000003380       wMillGK1QaPk             INDIA    9INDIA          ASIA        18-835-774-8764BUILDING  
3388      Customer#000003388       ASluZriR0i7iuLsZz wYo    ROMANIA  5ROMANIA        EUROPE      29-271-711-6201FURNITURE 
3396      Customer#000003396       jfaDV WRo8RTh1T          JORDAN   0JORDAN         MIDDLE EAST 23-188-806-6458BUILDING  
3404      Customer#000003404       eArSjHx7H1,EtHDiHUvP5gp  MOZAMBIQU4MOZAMBIQUE     AFRICA      26-976-177-7948BUILDING  
3412      Customer#000003412       Nb0S,UOjh5               RUSSIA   6RUSSIA         EUROPE      32-961-831-2178MACHINERY 
3420      Customer#000003420       Dx1vQPU 9Bne7VsJJ8,wqNzd MOZAMBIQU3MOZAMBIQUE     AFRICA      26-873-316-4497AUTOMOBILE
3428      Customer#000003428       kDFgv2p,FhT              ALGERIA  1ALGERIA        AFRICA      10-175-282-6411HOUSEHOLD 
3436      Customer#000003436       kwYKhk5K0a8loc           MOROCCO  4MOROCCO        AFRICA      25-752-284-1452AUTOMOBILE
3444      Customer#000003444       n1QAn8HR6fh1V3h4SwUo     IRAN     4IRAN           MIDDLE EAST 20-792-676-2440HOUSEHOLD 
3452      Customer#000003452       r1QX Fu58ykFPmUhphvo0GZg UNITED ST0UNITED STATES  AMERICA     34-543-764-9117HOUSEHOLD 
3460      Customer#000003460       wcpuANIuFgn47D3aT7oqV    UNITED KI1UNITED KINGDOM EUROPE      33-116-347-4857HOUSEHOLD 
3468      Customer#000003468       smSGlYTxkNPWLfIWFD       ARGENTINA3ARGENTINA      AMERICA     11-596-549-7736FURNITURE 
3476      Customer#000003476       mIDWWMwp,EqOD487ZhSUogbg RUSSIA   8RUSSIA         EUROPE      32-992-889-1604BUILDING  
3484      Customer#000003484       i,CBX19rf3FAow7          FRANCE   1FRANCE         EUROPE      16-418-947-2890FURNITURE 
3492      Customer#000003492       hn  xEKm9ad6QOuyTHXXa    BRAZIL   4BRAZIL         AMERICA     12-533-636-5077FURNITURE 
3500      Customer#000003500       MXaeTVnrthTwx,6TpXUjnzGA ALGERIA  1ALGERIA        AFRICA      10-709-448-9473BUILDING  
3508      Customer#000003508       jkobMbGUuzdrS            MOZAMBIQU8MOZAMBIQUE     AFRICA      26-860-981-7547BUILDING  
3516      Customer#000003516       mUNAYuWLogCx             INDIA    8INDIA          ASIA        18-204-825-9215BUILDING  
3524      Customer#000003524       Rq30S95X1KGrE8B          JAPAN    6JAPAN          ASIA        22-740-500-2091MACHINERY 
3532      Customer#000003532       uakIXf2                  CHINA    6CHINA          ASIA        28-543-378-5154HOUSEHOLD 
3540      Customer#000003540       849 dqEo8ey4w0XyP5BCFqA2 IRAN     0IRAN           MIDDLE EAST 20-945-974-1815AUTOMOBILE
3548      Customer#000003548       23SrlBCUk7USaC1LppolxMQ  KENYA    4KENYA          AFRICA      24-809-864-6753BUILDING  
3556      Customer#000003556       Ja2dQAsaPMtrmzU9c        RUSSIA   0RUSSIA         EUROPE      32-141-769-8253MACHINERY 
3564      Customer#000003564       LcxMz3ko5                INDIA    7INDIA          ASIA        18-734-790-2772MACHINERY 
3572      Customer#000003572       PyXGRBNpDeALMckpC8vCE    BRAZIL   1BRAZIL         AMERICA     12-937-327-8820AUTOMOBILE
3580      Customer#000003580       9M9Ay9R6DaH4LtFlfsWFADXP GERMANY  9GERMANY        EUROPE      17-360-771-1710FURNITURE 
3588      Customer#000003588       6qLq9oFguhbA             JAPAN    7JAPAN          ASIA        22-348-637-7111MACHINERY 
3596      Customer#000003596       EsQosD6MW                FRANCE   0FRANCE         EUROPE      16-434-704-2255BUILDING  
3604      Customer#000003604       w, R,dHvHl               IRAN     7IRAN           MIDDLE EAST 20-580-522-3747FURNITURE 
3612      Customer#000003612       w d6gfIFlf1n92           EGYPT    4EGYPT          MIDDLE EAST 14-671-899-2339MACHINERY 
3620      Customer#000003620       ZUDb,P3dz9GpwV           INDIA    9INDIA          ASIA        18-928-431-1204MACHINERY 
3628      Customer#000003628       5sECndibOHyHooORVlY8H6   FRANCE   3FRANCE         EUROPE      16-340-381-4690HOUSEHOLD 
3636      Customer#000003636       9eJJSyc3HegccWhfvzZe     ROMANIA  3ROMANIA        EUROPE      29-666-756-1989HOUSEHOLD 
3644      Customer#000003644       3PYTy74JLt24TgA4KCNN     BRAZIL   7BRAZIL         AMERICA     12-994-648-9292AUTOMOBILE
3652      Customer#000003652       EyrlIpjzOmJQSWWIVW4D     UNITED ST8UNITED STATES  AMERICA     34-836-271-3221BUILDING  
3660      Customer#000003660       MlUUoFB11cYPccxGXyXa4gCY BRAZIL   7BRAZIL         AMERICA     12-662-958-3891BUILDING  
3668      Customer#000003668       7u0Mu6Xx                 VIETNAM  0VIETNAM        ASIA        31-639-591-9844BUILDING  
3676      Customer#000003676       uRJxrtQwmS               IRAN     2IRAN           MIDDLE EAST 20-832-858-5947MACHINERY 
3684      Customer#000003684       e 4PAPy2rdWt2U           PERU     0PERU           AMERICA     27-648-340-3395BUILDING  
3692      Customer#000003692       tBh,Q9Q8CW               KENYA    3KENYA          AFRICA      24-835-540-9401HOUSEHOLD 
3700      Customer#000003700       t75sY88B3pGpsh,JEpU      UNITED ST4UNITED STATES  AMERICA     34-759-968-6383FURNITURE 
3708      Customer#000003708       BWbp7J0                  RUSSIA   2RUSSIA         EUROPE      32-588-852-3695BUILDING  
3716      Customer#000003716       OP8zlHytyZxa             SAUDI ARA1SAUDI ARABIA   MIDDLE EAST 30-503-257-8363AUTOMOBILE
3724      Customer#000003724       fecoP0F                  UNITED KI7UNITED KINGDOM EUROPE      33-226-691-2643FURNITURE 
3732      Customer#000003732       oHOi49o85C4ITqPpq,       EGYPT    6EGYPT          MIDDLE EAST 14-969-895-4508AUTOMOBILE
3740      Customer#000003740       gUeSxDnpDKw 8upaYAs      CANADA   4CANADA         AMERICA     13-591-152-3858AUTOMOBILE
3748      Customer#000003748       SmLTwp20zo0vLufaipemp    RUSSIA   0RUSSIA         EUROPE      32-439-340-5532HOUSEHOLD 
3756      Customer#000003756       ZJ4xpQc9                 INDONESIA4INDONESIA      ASIA        19-618-496-5800MACHINERY 
3764      Customer#000003764       aFZnaNRH7vJYykvHP        FRANCE   4FRANCE         EUROPE      16-922-658-2069FURNITURE 
3772      Customer#000003772       ylVDYAbFK2Tz4JMQEDKUug0  ETHIOPIA 5ETHIOPIA       AFRICA      15-170-616-2572MACHINERY 
3780      Customer#000003780       g5T14JMD                 MOROCCO  2MOROCCO        AFRICA      25-355-745-3509MACHINERY 
3788      Customer#000003788       X8Smckn8                 ETHIOPIA 9ETHIOPIA       AFRICA      15-779-983-9889HOUSEHOLD 
3796      Customer#000003796       g1dap512x6PeAocOfjpbaJ   FRANCE   7FRANCE         EUROPE      16-543-181-7598FURNITURE 
3804      Customer#000003804       0W01u,O2ps2puMPc5,zHsF   SAUDI ARA3SAUDI ARABIA   MIDDLE EAST 30-342-737-7859BUILDING  
3812      Customer#000003812       kk2BVO                   KENYA    4KENYA          AFRICA      24-160-911-9909FURNITURE 
3820      Customer#000003820       nP1Oa jpyuje             ETHIOPIA 3ETHIOPIA       AFRICA      15-163-189-2155FURNITURE 
3828      Customer#000003828       MFPUx8H9RndjvFd          SAUDI ARA4SAUDI ARABIA   MIDDLE EAST 30-499-836-1171BUILDING  
3836      Customer#000003836       iQQnReRVUJuOOcHnveTnIZb  JORDAN   8JORDAN         MIDDLE EAST 23-384-982-4703AUTOMOBILE
3844      Customer#000003844        sif2fO8QXmu4qBCG        ARGENTINA0ARGENTINA      AMERICA     11-514-804-6562BUILDING  
3852      Customer#000003852       mEsc3FjGRU               IRAQ     9IRAQ           MIDDLE EAST 21-668-851-1182MACHINERY 
3860      Customer#000003860       f7MeFc4w3csYCpGPpRc      MOZAMBIQU4MOZAMBIQUE     AFRICA      26-324-578-5776HOUSEHOLD 
3868      Customer#000003868       iwUKSL2aB3               JAPAN    5JAPAN          ASIA        22-936-886-4135HOUSEHOLD 
3876      Customer#000003876       kEvN4J9okD9rti,          PERU     0PERU           AMERICA     27-515-662-9157BUILDING  
3884      Customer#000003884       lIVPT6nlAg               ETHIOPIA 9ETHIOPIA       AFRICA      15-790-523-4732AUTOMOBILE
3892      Customer#000003892       fVfV2xT1DexU             CANADA   4CANADA         AMERICA     13-295-391-8141AUTOMOBILE
3900      Customer#000003900       g8A 3uyliWDFemc71oAx     FRANCE   1FRANCE         EUROPE      16-204-849-1601FURNITURE 
3908      Customer#000003908       f4ygW7N3yNELrfeVT03      GERMANY  8GERMANY        EUROPE      17-880-586-6459HOUSEHOLD 
3916      Customer#000003916       LKv,8qQNEqWJz lVLQz      INDONESIA9INDONESIA      ASIA        19-760-621-9492BUILDING  
3924      Customer#000003924       2WX4j4JLqUEbeLyHXfsA2d7  INDIA    6INDIA          ASIA        18-270-298-6315AUTOMOBILE
3932      Customer#000003932        02ak0kwlmeOwoE9OEd b    BRAZIL   1BRAZIL         AMERICA     12-684-903-5361FURNITURE 
3940      Customer#000003940       4gpjWwY6c                RUSSIA   2RUSSIA         EUROPE      32-881-287-6505BUILDING  
3948      Customer#000003948       1L,w3enm5e8SEOuNha       INDIA    3INDIA          ASIA        18-882-378-2118MACHINERY 
3956      Customer#000003956       hjy9XaaKeHzvj2iK         INDIA    1INDIA          ASIA        18-688-138-2754BUILDING  
3964      Customer#000003964       76Y0,gmfHjSDqN6          GERMANY  8GERMANY        EUROPE      17-740-955-1724AUTOMOBILE
3972      Customer#000003972       yk0pg3bezmOGQuWxhZ       GERMANY  5GERMANY        EUROPE      17-435-167-6430FURNITURE 
3980      Customer#000003980       SVeOskU1ji8iJm3uRnk4z2t3 IRAN     8IRAN           MIDDLE EAST 20-302-298-7182MACHINERY 
3988      Customer#000003988       fzFKD858fYeNUifkjK4I4,   EGYPT    1EGYPT          MIDDLE EAST 14-562-353-7263AUTOMOBILE
3996      Customer#000003996       zADq8joqoaASwSgS         EGYPT    9EGYPT          MIDDLE EAST 14-820-486-9954FURNITURE 
4004      Customer#000004004       nmdpg3dC0                IRAN     1IRAN           MIDDLE EAST 20-324-242-7296FURNITURE 
4012      Customer#000004012       1eOFzv                   MOROCCO  9MOROCCO        AFRICA      25-414-509-2349FURNITURE 
4020      Customer#000004020       lxw6I2Gf68yCG            KENYA    3KENYA          AFRICA      24-808-641-9823MACHINERY 
4028      Customer#000004028       J5y1WQDbvfNidE5tdWx      GERMANY  1GERMANY        EUROPE      17-519-420-8427FURNITURE 
4036      Customer#000004036       mNYZJd9Ijpgy             BRAZIL   5BRAZIL         AMERICA     12-113-561-7635FURNITURE 
4044      Customer#000004044        W1kjhf,6Mxn,            MOZAMBIQU2MOZAMBIQUE     AFRICA      26-222-188-4081BUILDING  
4052      Customer#000004052       3K3jG4fQUp,h3byVR a4iW   RUSSIA   3RUSSIA         EUROPE      32-681-584-1364MACHINERY 
4060      Customer#000004060       x9 gAYZW4xs2e nPLuyDg    EGYPT    9EGYPT          MIDDLE EAST 14-156-283-3986AUTOMOBILE
4068      Customer#000004068       3LsjLE3dz3G4OUh          CANADA   6CANADA         AMERICA     13-656-270-9425MACHINERY 
4076      Customer#000004076       78FCnrjRCKSQAA9UexP      MOZAMBIQU2MOZAMBIQUE     AFRICA      26-750-639-9148BUILDING  
4084      Customer#000004084       eaJlU hWcSUN0yzlsOZT     ARGENTINA1ARGENTINA      AMERICA     11-346-180-4741FURNITURE 
4092      Customer#000004092       CM4LxqSXQnuVT2p4         JAPAN    5JAPAN          ASIA        22-754-796-6556MACHINERY 
4100      Customer#000004100       guOo4aZ8                 MOROCCO  8MOROCCO        AFRICA      25-389-146-8022BUILDING  
4108      Customer#000004108       5JiWkHa1MulxqE           SAUDI ARA6SAUDI ARABIA   MIDDLE EAST 30-858-313-7798MACHINERY 
4116      Customer#000004116       SgmB1coxwYdNmtCA1        CANADA   4CANADA         AMERICA     13-172-309-4037BUILDING  
4124      Customer#000004124       5T7FW9wnVNE0UMY87lN      ARGENTINA8ARGENTINA      AMERICA     11-147-604-8116AUTOMOBILE
4132      Customer#000004132       vlphG4imkAIxwC2wNLeltmqJ ARGENTINA3ARGENTINA      AMERICA     11-408-335-4333HOUSEHOLD 
4140      Customer#000004140       Szzg4Y5sFnr3uS9qTiQ5dUmM MOZAMBIQU2MOZAMBIQUE     AFRICA      26-930-968-7224MACHINERY 
4148      Customer#000004148       E,I2jLbyXJh7WPq7QK       IRAQ     2IRAQ           MIDDLE EAST 21-347-472-4871BUILDING  
4156      Customer#000004156       e2NqlTfx9H               ETHIOPIA 6ETHIOPIA       AFRICA      15-398-452-4700BUILDING  
4164      Customer#000004164       ZvkbjQRlP1KoKno          INDIA    7INDIA          ASIA        18-637-254-7929MACHINERY 
4172      Customer#000004172       AvAJMZc5T0iH             ARGENTINA4ARGENTINA      AMERICA     11-782-964-7204MACHINERY 
4180      Customer#000004180       ynLS1YuKZo8lDC44J1g3w    SAUDI ARA7SAUDI ARABIA   MIDDLE EAST 30-768-450-4797FURNITURE 
4188      Customer#000004188       kqWldYeS U0DS ,          VIETNAM  0VIETNAM        ASIA        31-370-113-3233BUILDING  
4196      Customer#000004196       gcbHLmuYJwhzFhcgrhYNH    JAPAN    9JAPAN          ASIA        22-679-935-9227HOUSEHOLD 
4204      Customer#000004204       6KFi1I                   MOZAMBIQU0MOZAMBIQUE     AFRICA      26-852-267-4921BUILDING  
4212      Customer#000004212       aa4G2Z63                 MOZAMBIQU0MOZAMBIQUE     AFRICA      26-816-642-1612MACHINERY 
4220      Customer#000004220       LvfPs5JphrpkgUR uqHQ     ETHIOPIA 3ETHIOPIA       AFRICA      15-650-290-9290BUILDING  
4228      Customer#000004228       OVbaGlXX,,wG             MOROCCO  0MOROCCO        AFRICA      25-196-505-6322MACHINERY 
4236      Customer#000004236       fDnxNcs                  JORDAN   3JORDAN         MIDDLE EAST 23-110-928-3017FURNITURE 
4244      Customer#000004244       IuBid6g5SfBM14aw         EGYPT    7EGYPT          MIDDLE EAST 14-638-958-9274MACHINERY 
4252      Customer#000004252       MFyhzXJbCjdLfVmleTZpwrSu JAPAN    7JAPAN          ASIA        22-466-245-9578AUTOMOBILE
4260      Customer#000004260       2q8EdCoDuHrZ             INDONESIA1INDONESIA      ASIA        19-901-523-7569FURNITURE 
4268      Customer#000004268       Qa0hNQ4p3fA              UNITED ST2UNITED STATES  AMERICA     34-351-882-2028AUTOMOBILE
4276      Customer#000004276       MgoVSizqU3n              MOROCCO  9MOROCCO        AFRICA      25-394-838-4689FURNITURE 
4284      Customer#000004284       GiFTpI                   EGYPT    0EGYPT          MIDDLE EAST 14-702-271-6892BUILDING  
4292      Customer#000004292       0ziw3UozBkI              UNITED ST4UNITED STATES  AMERICA     34-404-957-7011BUILDING  
4300      Customer#000004300       aSgDbmP0 VhNMi7Jm3gk     KENYA    0KENYA          AFRICA      24-866-295-5576BUILDING  
4308      Customer#000004308       LEH6Jzn7TwbA             VIETNAM  4VIETNAM        ASIA        31-152-379-4101MACHINERY 
4316      Customer#000004316       a1b kHcp9Cy0gTjV2TOoEU,2 JORDAN   7JORDAN         MIDDLE EAST 23-884-310-1910BUILDING  
4324      Customer#000004324       lS6sRcoGefhjrxn1,s8baOBO UNITED KI1UNITED KINGDOM EUROPE      33-142-719-8046HOUSEHOLD 
4332      Customer#000004332       PQFTkfioVI2X             INDIA    1INDIA          ASIA        18-920-732-8456HOUSEHOLD 
4340      Customer#000004340       Io,Wo,YH2Ntb             JAPAN    1JAPAN          ASIA        22-102-807-3015HOUSEHOLD 
4348      Customer#000004348       zFC38gniA                PERU     6PERU           AMERICA     27-142-635-7987HOUSEHOLD 
4356      Customer#000004356       ESWI6bSc59KQD            INDIA    2INDIA          ASIA        18-918-106-5314BUILDING  
4364      Customer#000004364       tyuuAhSDABWp6eB5w0P07X   KENYA    5KENYA          AFRICA      24-324-339-1788AUTOMOBILE
4372      Customer#000004372       Rka,CE,BLWjvig           IRAN     5IRAN           MIDDLE EAST 20-610-695-1171FURNITURE 
4380      Customer#000004380       eDZqG17MPUE7Cc           UNITED KI6UNITED KINGDOM EUROPE      33-492-613-6475AUTOMOBILE
4388      Customer#000004388       U7IYktMMk                JORDAN   2JORDAN         MIDDLE EAST 23-601-444-1452HOUSEHOLD 
4396      Customer#000004396       XbG0Gdb9dZXWq            IRAN     8IRAN           MIDDLE EAST 20-440-834-3836HOUSEHOLD 
4404      Customer#000004404       V7fuH, ylTo9sGw4VuHK0f   IRAQ     4IRAQ           MIDDLE EAST 21-771-236-4288MACHINERY 
4412      Customer#000004412       MNJ9DEIivjn              GERMANY  7GERMANY        EUROPE      17-686-336-3750MACHINERY 
4420      Customer#000004420       zGvSSFz weM1cwbSWvRMc8uX PERU     8PERU           AMERICA     27-587-982-6952MACHINERY 
4428      Customer#000004428       DljG8A6gzzTwHpZSeI       ROMANIA  0ROMANIA        EUROPE      29-544-819-5460BUILDING  
4436      Customer#000004436       EVAPgU07hzOY             ETHIOPIA 7ETHIOPIA       AFRICA      15-729-647-4320HOUSEHOLD 
4444      Customer#000004444       tpxu8Msx                 EGYPT    6EGYPT          MIDDLE EAST 14-277-523-1384MACHINERY 
4452      Customer#000004452       WhTaQK6F1XwoeonS         EGYPT    3EGYPT          MIDDLE EAST 14-821-960-1868MACHINERY 
4460      Customer#000004460       5oNtYz0fop6ondG1ASQ2R    KENYA    4KENYA          AFRICA      24-992-247-1641BUILDING  
4468      Customer#000004468       TTspR8zpMlgOlHvbE2       EGYPT    5EGYPT          MIDDLE EAST 14-330-754-8202HOUSEHOLD 
4476      Customer#000004476       pIh0iAuzF6DdK            EGYPT    2EGYPT          MIDDLE EAST 14-767-722-1866HOUSEHOLD 
4484      Customer#000004484       lHdbN9vMTu               ARGENTINA6ARGENTINA      AMERICA     11-249-542-5103HOUSEHOLD 
4492      Customer#000004492       4P8RY22w4kO              RUSSIA   7RUSSIA         EUROPE      32-819-690-1541FURNITURE 
4500      Customer#000004500       rbprI3R3MP               ROMANIA  2ROMANIA        EUROPE      29-766-442-7975BUILDING  
4508      Customer#000004508       h,OgEqnD4ZUDq4NaPC       ETHIOPIA 2ETHIOPIA       AFRICA      15-897-282-1074BUILDING  
4516      Customer#000004516       uXF5o6lFgUR              BRAZIL   2BRAZIL         AMERICA     12-164-730-7794FURNITURE 
4524      Customer#000004524       egvBAomrpuHO             MOROCCO  0MOROCCO        AFRICA      25-718-214-6973MACHINERY 
4532      Customer#000004532       l6jaTrxwto2AA7Iv9vtzmMNu ROMANIA  1ROMANIA        EUROPE      29-181-784-4570HOUSEHOLD 
4540      Customer#000004540       U0hnfYk,PByGmyA          FRANCE   9FRANCE         EUROPE      16-978-872-3452BUILDING  
4548      Customer#000004548       7TYk4RWn5ulszgl7SybJJFQK GERMANY  2GERMANY        EUROPE      17-529-583-1666HOUSEHOLD 
4556      Customer#000004556       GU52GUsErNBtvyVYqkPSpTMu UNITED KI2UNITED KINGDOM EUROPE      33-594-334-1713AUTOMOBILE
4564      Customer#000004564       jz5jNuRSmNj 0AkwwV       UNITED ST0UNITED STATES  AMERICA     34-638-114-7002HOUSEHOLD 
4572      Customer#000004572       8v8N5sRziLRiH4qOh5c      RUSSIA   4RUSSIA         EUROPE      32-134-409-3976BUILDING  
4580      Customer#000004580       B3bx1GHouJ               CANADA   5CANADA         AMERICA     13-341-322-8427MACHINERY 
4588      Customer#000004588       w74XfBZ9tBLTjCN          UNITED KI5UNITED KINGDOM EUROPE      33-994-357-8161FURNITURE 
4596      Customer#000004596       k6FOsHysP1ghnOOr Lz      VIETNAM  6VIETNAM        ASIA        31-948-270-6640BUILDING  
4604      Customer#000004604       qeb7w89MkX29hQMafqDrv0   BRAZIL   8BRAZIL         AMERICA     12-233-869-4270FURNITURE 
4612      Customer#000004612       sKOrWIoJL3RlnAL,PBk k    EGYPT    9EGYPT          MIDDLE EAST 14-951-322-8084HOUSEHOLD 
4620      Customer#000004620       xWNBjKTC8MRsxyfv5sZNb    ETHIOPIA 0ETHIOPIA       AFRICA      15-500-866-5513FURNITURE 
4628      Customer#000004628       dbuxRcHdWf               UNITED KI6UNITED KINGDOM EUROPE      33-798-387-4126BUILDING  
4636      Customer#000004636       JMOrkFd4Vi6              IRAN     3IRAN           MIDDLE EAST 20-285-311-8256BUILDING  
4644      Customer#000004644       ,PhuH2xJr3ZnykBOy1frFOn  JORDAN   6JORDAN         MIDDLE EAST 23-996-869-2710AUTOMOBILE
4652      Customer#000004652       9sHpVILfAMzoXdHtzfH1zhz  IRAN     4IRAN           MIDDLE EAST 20-956-155-6863BUILDING  
4660      Customer#000004660       NIHs1RxBynBlZO,          GERMANY  1GERMANY        EUROPE      17-112-339-6412HOUSEHOLD 
4668      Customer#000004668       JP6tuVjWFILZCYzsNcecy    IRAN     7IRAN           MIDDLE EAST 20-499-117-4493AUTOMOBILE
4676      Customer#000004676       wnxfKQJv3lU4,19ZzrrD8    GERMANY  1GERMANY        EUROPE      17-426-430-1663HOUSEHOLD 
4684      Customer#000004684       fyWxqi4qp4plmcHjH        INDIA    9INDIA          ASIA        18-320-127-5911MACHINERY 
4692      Customer#000004692       QEk G5LMGfW              ETHIOPIA 5ETHIOPIA       AFRICA      15-409-476-3887BUILDING  
4700      Customer#000004700       Y2XmaQKCNd,sYzDkP5       EGYPT    5EGYPT          MIDDLE EAST 14-347-281-9788HOUSEHOLD 
4708      Customer#000004708       mF8OrRE Cht1             IRAQ     2IRAQ           MIDDLE EAST 21-312-641-9618BUILDING  
4716      Customer#000004716       YZMafHt7co9X3Xld9AJfB    RUSSIA   7RUSSIA         EUROPE      32-831-449-6932BUILDING  
4724      Customer#000004724       pH8YkX00R2ObN            MOROCCO  1MOROCCO        AFRICA      25-241-859-1014MACHINERY 
4732      Customer#000004732       PNTcnHu mUTzP5maMSIiUoa  ARGENTINA7ARGENTINA      AMERICA     11-794-727-1645HOUSEHOLD 
4740      Customer#000004740       ,2eNxqLL6blfRIsrbNZbs    CHINA    9CHINA          ASIA        28-867-596-8467HOUSEHOLD 
4748      Customer#000004748       LrIt3Lqe6KAg             KENYA    9KENYA          AFRICA      24-704-373-4622MACHINERY 
4756      Customer#000004756       NWkx3pbt0                SAUDI ARA8SAUDI ARABIA   MIDDLE EAST 30-936-113-3425AUTOMOBILE
4764      Customer#000004764       caioAIuL8c2hdO           KENYA    1KENYA          AFRICA      24-655-690-4470FURNITURE 
4772      Customer#000004772       0bQK3pMpP5T Sr4WONvNgKwo RUSSIA   6RUSSIA         EUROPE      32-296-761-1779AUTOMOBILE
4780      Customer#000004780       74D77hi                  SAUDI ARA3SAUDI ARABIA   MIDDLE EAST 30-607-935-2755BUILDING  
4788      Customer#000004788       vDZ6VPoUEZDUwtHjfXFVmT   GERMANY  7GERMANY        EUROPE      17-488-549-9359AUTOMOBILE
4796      Customer#000004796       5HqxamCGCdLnAJ           UNITED KI4UNITED KINGDOM EUROPE      33-906-795-8465BUILDING  
4804      Customer#000004804        vXJU6q4gnL6tQXMwnJ      SAUDI ARA4SAUDI ARABIA   MIDDLE EAST 30-968-162-7507FURNITURE 
4812      Customer#000004812       Fdr5RhXuIaKzwoJd 5eB     KENYA    0KENYA          AFRICA      24-837-222-5696MACHINERY 
4820      Customer#000004820       ZpS1lDg3Y                ALGERIA  1ALGERIA        AFRICA      10-961-854-7585MACHINERY 
4828      Customer#000004828       quEsZnSIflkxzlidFYy      RUSSIA   7RUSSIA         EUROPE      32-321-931-9321BUILDING  
4836      Customer#000004836       jiR3szJW                 INDONESIA4INDONESIA      ASIA        19-897-340-7347MACHINERY 
4844      Customer#000004844       2Eh2OlJGBqNXf            EGYPT    8EGYPT          MIDDLE EAST 14-915-711-6752HOUSEHOLD 
4852      Customer#000004852       IxiyX1BeKgFKvxy          JORDAN   5JORDAN         MIDDLE EAST 23-584-606-8764AUTOMOBILE
4860      Customer#000004860       E4SZzxMyL                IRAQ     0IRAQ           MIDDLE EAST 21-486-328-1050HOUSEHOLD 
4868      Customer#000004868       8F29GN                   GERMANY  2GERMANY        EUROPE      17-167-932-2611FURNITURE 
4876      Customer#000004876       uA0HvH                   ETHIOPIA 3ETHIOPIA       AFRICA      15-348-969-8868FURNITURE 
4884      Customer#000004884       8Dj UH,duIwid            ROMANIA  7ROMANIA        EUROPE      29-171-127-1615AUTOMOBILE
4892      Customer#000004892       kzIE5vxiUc3GlKoigq S     SAUDI ARA4SAUDI ARABIA   MIDDLE EAST 30-297-830-5492AUTOMOBILE
4900      Customer#000004900       MLwgTG0                  FRANCE   1FRANCE         EUROPE      16-443-451-7472HOUSEHOLD 
4908      Customer#000004908       Gn8FdDNXWNi8gptG Gqi     JORDAN   5JORDAN         MIDDLE EAST 23-808-847-4933MACHINERY 
4916      Customer#000004916       4SC9UpIH2eLp2GB,         BRAZIL   9BRAZIL         AMERICA     12-893-417-1843AUTOMOBILE
4924      Customer#000004924       pJeYdA0SAaG3QgsU7mt7Kl   INDONESIA9INDONESIA      ASIA        19-992-259-3788FURNITURE 
4932      Customer#000004932       b9y0Zk                   JAPAN    8JAPAN          ASIA        22-416-521-1269MACHINERY 
4940      Customer#000004940       Ta8AMg                   MOZAMBIQU3MOZAMBIQUE     AFRICA      26-443-732-1891AUTOMOBILE
4948      Customer#000004948       AXPF6DvcRo4M3b0          UNITED KI6UNITED KINGDOM EUROPE      33-788-599-2690FURNITURE 
4956      Customer#000004956       CygGL2                   ROMANIA  6ROMANIA        EUROPE      29-768-586-5635MACHINERY 
4964      Customer#000004964       F5Ugp89W,ypoo41Q8E       BRAZIL   8BRAZIL         AMERICA     12-319-247-7892BUILDING  
4972      Customer#000004972       9LHJ60m                  IRAN     5IRAN           MIDDLE EAST 20-154-192-3853HOUSEHOLD 
4980      Customer#000004980       y2abWQ                   UNITED KI7UNITED KINGDOM EUROPE      33-417-993-1712AUTOMOBILE
4988      Customer#000004988       BfJgMWA0wuf              ETHIOPIA 9ETHIOPIA       AFRICA      15-825-457-8358AUTOMOBILE
4996      Customer#000004996       DBWTWY9sHzOPRlGI         IRAN     3IRAN           MIDDLE EAST 20-473-105-5762MACHINERY 
5004      Customer#000005004       H8gw 7vmIh050HsgS        ETHIOPIA 5ETHIOPIA       AFRICA      15-814-295-9673FURNITURE 
5012      Customer#000005012       ZH1TvTb77NE              KENYA    6KENYA          AFRICA      24-824-725-8390AUTOMOBILE
5020      Customer#000005020       gulZnlBSTNVUMgPZi        UNITED KI2UNITED KINGDOM EUROPE      33-232-897-5388FURNITURE 
5028      Customer#000005028       7VuS9el                  CANADA   7CANADA         AMERICA     13-393-252-8575HOUSEHOLD 
5036      Customer#000005036       JSAwqP08U 5wcCl6FV       CHINA    8CHINA          ASIA        28-914-171-5266FURNITURE 
5044      Customer#000005044       U,NOWR5B                 FRANCE   8FRANCE         EUROPE      16-394-652-3660BUILDING  
5052      Customer#000005052       WOL8TQV                  JORDAN   3JORDAN         MIDDLE EAST 23-242-654-9327AUTOMOBILE
5060      Customer#000005060       gl8R7gB06oAuU6iqDbwhaxs  JORDAN   5JORDAN         MIDDLE EAST 23-997-803-9794MACHINERY 
5068      Customer#000005068       yQouJucfcJtN             SAUDI ARA7SAUDI ARABIA   MIDDLE EAST 30-286-254-1711HOUSEHOLD 
5076      Customer#000005076       OacYdrLA604XaA2s0xrKMjST INDONESIA4INDONESIA      ASIA        19-324-174-1687FURNITURE 
5084      Customer#000005084       nrj42YQO9T5mtd           FRANCE   1FRANCE         EUROPE      16-988-650-3026AUTOMOBILE
5092      Customer#000005092       3u5NuouiVNNlB9EjbvOnPk   RUSSIA   7RUSSIA         EUROPE      32-928-591-9175HOUSEHOLD 
5100      Customer#000005100       Jk1sz9Z vjTeSA9w x       MOZAMBIQU6MOZAMBIQUE     AFRICA      26-652-672-4605AUTOMOBILE
5108      Customer#000005108       DpmrD1CynB23O1Lauu4      ROMANIA  3ROMANIA        EUROPE      29-491-266-1384FURNITURE 
5116      Customer#000005116       uTQhOcP,siTt             CANADA   1CANADA         AMERICA     13-136-949-4935FURNITURE 
5124      Customer#000005124       oMijjDRwBKstBYFCQUZmkY   JAPAN    3JAPAN          ASIA        22-600-831-5731BUILDING  
5132      Customer#000005132       VRgbrwF,SFSaKKmUsbc      PERU     1PERU           AMERICA     27-461-693-6033AUTOMOBILE
5140      Customer#000005140       rWDAl9l9vfYadbX          CHINA    2CHINA          ASIA        28-861-642-2332BUILDING  
5148      Customer#000005148       xW3wn241D MI6            EGYPT    1EGYPT          MIDDLE EAST 14-692-145-2184AUTOMOBILE
5156      Customer#000005156       3Yv VIjo37jmq 8 yh3ioV7  PERU     3PERU           AMERICA     27-907-876-4754FURNITURE 
5164      Customer#000005164       3ilm7jqNJUJBnT           IRAQ     5IRAQ           MIDDLE EAST 21-354-990-5950FURNITURE 
5172      Customer#000005172       7PJr2ZrPy0jMoTSDwSLTfm   UNITED KI1UNITED KINGDOM EUROPE      33-657-305-1089FURNITURE 
5180      Customer#000005180       n0o0hCS4wU               RUSSIA   2RUSSIA         EUROPE      32-817-790-5250MACHINERY 
5188      Customer#000005188       dZ2IDQkqCdX2iNDECZwHJ    SAUDI ARA0SAUDI ARABIA   MIDDLE EAST 30-778-399-6259HOUSEHOLD 
5196      Customer#000005196       tAVggL009atb1y1xH zcA    ARGENTINA7ARGENTINA      AMERICA     11-931-199-9610MACHINERY 
5204      Customer#000005204       phdKc5jg61I1ZxhNIICKT3hm FRANCE   7FRANCE         EUROPE      16-861-736-6062MACHINERY 
5212      Customer#000005212       EbzsUfG3rTCwe            RUSSIA   6RUSSIA         EUROPE      32-513-556-7602MACHINERY 
5220      Customer#000005220       trz1tDhWZ2Uu             EGYPT    4EGYPT          MIDDLE EAST 14-373-159-6057BUILDING  
5228      Customer#000005228       T3,JpDohN1KLnOTTSZ       GERMANY  4GERMANY        EUROPE      17-799-459-5558FURNITURE 
5236      Customer#000005236       t6,zrDrPf7EIZhbQY1HuY iT ETHIOPIA 7ETHIOPIA       AFRICA      15-826-617-1579FURNITURE 
5244      Customer#000005244       gzKpGchfmQugF            INDIA    1INDIA          ASIA        18-531-856-5319HOUSEHOLD 
5252      Customer#000005252       W5Luw,4wCG               UNITED KI8UNITED KINGDOM EUROPE      33-279-606-3950MACHINERY 
5260      Customer#000005260       b4EQvJy5O,D              ALGERIA  3ALGERIA        AFRICA      10-653-545-1790HOUSEHOLD 
5268      Customer#000005268       aGiAJ4D0                 INDONESIA1INDONESIA      ASIA        19-652-495-3896BUILDING  
5276      Customer#000005276       zhMkzw3RnzN              SAUDI ARA9SAUDI ARABIA   MIDDLE EAST 30-661-709-6272BUILDING  
5284      Customer#000005284       nFAuXwOkP4Nrs39LR1wCH1e7 SAUDI ARA7SAUDI ARABIA   MIDDLE EAST 30-761-335-4713HOUSEHOLD 
5292      Customer#000005292       AGRbGRmI4                IRAQ     8IRAQ           MIDDLE EAST 21-297-515-3704AUTOMOBILE
5300      Customer#000005300       UjBrZyqME1xjFK02VBe gF   VIETNAM  5VIETNAM        ASIA        31-855-156-5667HOUSEHOLD 
5308      Customer#000005308       MmxaZOmvYXzxpQSiqR1DvTHS KENYA    3KENYA          AFRICA      24-233-991-1888AUTOMOBILE
5316      Customer#000005316       XJQnuA9Tv6AtpitmoAs      ROMANIA  9ROMANIA        EUROPE      29-485-802-2637MACHINERY 
5324      Customer#000005324       ,CUV5fqMNJRQvdnf O p1d   MOROCCO  1MOROCCO        AFRICA      25-786-105-8696HOUSEHOLD 
5332      Customer#000005332       2LUvkG0MR5W A0M          MOZAMBIQU2MOZAMBIQUE     AFRICA      26-837-200-3726MACHINERY 
5340      Customer#000005340       q7vzaUbe0IMZj            ARGENTINA3ARGENTINA      AMERICA     11-580-680-8036BUILDING  
5348      Customer#000005348       FUyt365fT3kK00AOQ72BPJ,  BRAZIL   5BRAZIL         AMERICA     12-566-170-8556AUTOMOBILE
5356      Customer#000005356       nx6ZJ5XxyREMCZACgs,      FRANCE   9FRANCE         EUROPE      16-209-301-7516FURNITURE 
5364      Customer#000005364       fzeouSK3lHbHcbecjwM      CANADA   6CANADA         AMERICA     13-207-761-4845AUTOMOBILE
5372      Customer#000005372       kVAP 8vMfKxb cn6L8M      RUSSIA   2RUSSIA         EUROPE      32-987-488-1174HOUSEHOLD 
5380      Customer#000005380       oQuAGt4g40dlYnsR,9GnTCpe ROMANIA  9ROMANIA        EUROPE      29-721-666-8595HOUSEHOLD 
5388      Customer#000005388       V2IUY39m XvD             PERU     2PERU           AMERICA     27-431-940-3138BUILDING  
5396      Customer#000005396       Llr848ND31               ALGERIA  6ALGERIA        AFRICA      10-537-519-5889BUILDING  
5404      Customer#000005404       9GC94pa                  UNITED KI1UNITED KINGDOM EUROPE      33-602-350-2653BUILDING  
5412      Customer#000005412       h6P9GBKoguXuUhx          UNITED KI5UNITED KINGDOM EUROPE      33-725-839-7783AUTOMOBILE
5420      Customer#000005420       XorBirn                  INDONESIA9INDONESIA      ASIA        19-712-493-7218FURNITURE 
5428      Customer#000005428       jdRmV1ItQ5,Bkbrzr6hV     ETHIOPIA 8ETHIOPIA       AFRICA      15-327-552-6952AUTOMOBILE
5436      Customer#000005436       aNZM6IF                  INDONESIA3INDONESIA      ASIA        19-415-337-7019AUTOMOBILE
5444      Customer#000005444       M,X0tNhaiA               CHINA    8CHINA          ASIA        28-335-816-1562FURNITURE 
5452      Customer#000005452       AukE5ybB0B6lrFBHB,Jfv651 IRAN     5IRAN           MIDDLE EAST 20-396-715-5185FURNITURE 
5460      Customer#000005460       nH29p0UbylAkyw4          KENYA    8KENYA          AFRICA      24-933-599-5266FURNITURE 
5468      Customer#000005468       Wv67RGFDW2W4sPV2keUw7mG  SAUDI ARA1SAUDI ARABIA   MIDDLE EAST 30-844-735-3234BUILDING  
5476      Customer#000005476       r2GFXkR6cFthwqhOO3h7Hxl, IRAQ     6IRAQ           MIDDLE EAST 21-383-539-8190BUILDING  
5484      Customer#000005484       r7OTI0rvSuJ              INDIA    8INDIA          ASIA        18-607-964-6199BUILDING  
5492      Customer#000005492       TBFIBg8                  JAPAN    1JAPAN          ASIA        22-566-667-5893MACHINERY 
5500      Customer#000005500       sH5J7jRkpolBYMy          ALGERIA  2ALGERIA        AFRICA      10-326-644-3025MACHINERY 
5508      Customer#000005508       3S,0fmgf2fFp9PkI8IgaTK   SAUDI ARA3SAUDI ARABIA   MIDDLE EAST 30-191-558-4042AUTOMOBILE
5516      Customer#000005516       mPkfhvtXzfehvqDR         EGYPT    7EGYPT          MIDDLE EAST 14-333-919-9140BUILDING  
5524      Customer#000005524       XtKeWNIu                 INDIA    1INDIA          ASIA        18-174-492-5560BUILDING  
5532      Customer#000005532       94UVIqNIv4uccM 7vrUMma   CHINA    2CHINA          ASIA        28-212-357-6253BUILDING  
5540      Customer#000005540       qLYrfeoMRTANcxSRYOAKge   UNITED KI8UNITED KINGDOM EUROPE      33-198-119-3925FURNITURE 
5548      Customer#000005548       ZuesaVY vVLWV            INDIA    8INDIA          ASIA        18-756-518-5817AUTOMOBILE
5556      Customer#000005556       fyeB04fZNR gA            IRAQ     2IRAQ           MIDDLE EAST 21-754-401-7836FURNITURE 
5564      Customer#000005564       cHKaW7RVM2oCjk3Qf5G9RSYJ VIETNAM  5VIETNAM        ASIA        31-129-827-5102FURNITURE 
5572      Customer#000005572       jfRdyb6Duy9RGOo5Al,H3tW  IRAQ     6IRAQ           MIDDLE EAST 21-639-230-5869BUILDING  
5580      Customer#000005580       HqhwZLlSYc 7Kf           BRAZIL   1BRAZIL         AMERICA     12-690-810-9096AUTOMOBILE
5588      Customer#000005588       PLpD1s t5                KENYA    8KENYA          AFRICA      24-878-321-2454MACHINERY 
5596      Customer#000005596       hyLe,NsRGXG70            EGYPT    1EGYPT          MIDDLE EAST 14-595-317-2356FURNITURE 
5604      Customer#000005604       M32JLxpFu8dSggHregXyylT8 ARGENTINA7ARGENTINA      AMERICA     11-266-778-4231AUTOMOBILE
5612      Customer#000005612       y6 Z2ydIVW               VIETNAM  0VIETNAM        ASIA        31-152-129-9532FURNITURE 
5620      Customer#000005620       fZCOpv356                ROMANIA  0ROMANIA        EUROPE      29-913-495-6249MACHINERY 
5628      Customer#000005628        RQJLk590tp,ghgksQ4B     IRAN     5IRAN           MIDDLE EAST 20-121-106-6736AUTOMOBILE
5636      Customer#000005636       AomKSj                   ALGERIA  6ALGERIA        AFRICA      10-995-360-5309AUTOMOBILE
5644      Customer#000005644       SM3K4XDo9y1 zAeft5u      CHINA    9CHINA          ASIA        28-970-922-8376HOUSEHOLD 
5652      Customer#000005652       81BRNV0MUutWzRj          JAPAN    1JAPAN          ASIA        22-107-821-4772FURNITURE 
5660      Customer#000005660        u0Ws,SoVbfjiqik         ROMANIA  7ROMANIA        EUROPE      29-401-455-4811AUTOMOBILE
5668      Customer#000005668       LfiyJryAAIH              CHINA    9CHINA          ASIA        28-570-471-1914MACHINERY 
5676      Customer#000005676       teFD0osQDQ4aH            VIETNAM  8VIETNAM        ASIA        31-767-113-8301FURNITURE 
5684      Customer#000005684       b2zB7IvbVr5              INDIA    4INDIA          ASIA        18-828-150-3134AUTOMOBILE
5692      Customer#000005692       Z9jxR2ysIy               INDIA    1INDIA          ASIA        18-523-242-2691BUILDING  
5700      Customer#000005700       9cTGOWNUL7ALEpW8WjA      UNITED ST4UNITED STATES  AMERICA     34-663-544-5983BUILDING  
5708      Customer#000005708       MoDq3AKYz6q lGeF         JAPAN    2JAPAN          ASIA        22-454-317-5567FURNITURE 
5716      Customer#000005716       KbfgTLji                 ARGENTINA8ARGENTINA      AMERICA     11-491-147-7734MACHINERY 
5724      Customer#000005724       8zuSAhkpSbqhn            ETHIOPIA 9ETHIOPIA       AFRICA      15-708-704-5945HOUSEHOLD 
5732      Customer#000005732       839VCaQgulzVOlZDRhPhDzu  KENYA    3KENYA          AFRICA      24-321-622-1590AUTOMOBILE
5740      Customer#000005740       doYN 86uk                JORDAN   5JORDAN         MIDDLE EAST 23-562-702-2386BUILDING  
5748      Customer#000005748       bLUj50tlzIS1Lmq,1QucItqT ETHIOPIA 7ETHIOPIA       AFRICA      15-551-537-8562BUILDING  
5756      Customer#000005756       Vt8kUEsAWloU0C           MOROCCO  1MOROCCO        AFRICA      25-141-392-4724FURNITURE 
5764      Customer#000005764       JttHVRcAIMBrf4UX9nL8f    FRANCE   0FRANCE         EUROPE      16-529-115-7216BUILDING  
5772      Customer#000005772       u2oYuwgKO7egk,z5         INDONESIA2INDONESIA      ASIA        19-480-454-9419HOUSEHOLD 
5780      Customer#000005780       zt jbfB9c                INDONESIA6INDONESIA      ASIA        19-250-906-2659HOUSEHOLD 
5788      Customer#000005788       wo,QfqlSnGfMj            CHINA    7CHINA          ASIA        28-183-491-5261BUILDING  
5796      Customer#000005796       fBsTab0WtIpvCMcRM        JORDAN   6JORDAN         MIDDLE EAST 23-711-664-6668MACHINERY 
5804      Customer#000005804       zpaL4vURV3lYIBlQZ2KFoxZ  JAPAN    4JAPAN          ASIA        22-767-534-7981AUTOMOBILE
5812      Customer#000005812       ,lWRkAS6q                ROMANIA  4ROMANIA        EUROPE      29-655-483-9503MACHINERY 
5820      Customer#000005820       6OJwXd                   JAPAN    6JAPAN          ASIA        22-433-184-6745AUTOMOBILE
5828      Customer#000005828       hzMzqzTyEDr,J7R          CHINA    0CHINA          ASIA        28-603-462-3929HOUSEHOLD 
5836      Customer#000005836       rO9NHKcsHBrjhxw          VIETNAM  4VIETNAM        ASIA        31-102-357-6039AUTOMOBILE
5844      Customer#000005844       Zdt7kLVY9NSReznffAiA3N0M IRAQ     3IRAQ           MIDDLE EAST 21-199-116-9569HOUSEHOLD 
5852      Customer#000005852       IyLMRd1C25Z3Gk           PERU     9PERU           AMERICA     27-717-468-1117MACHINERY 
5860      Customer#000005860       WhLTMIXKeKJ              VIETNAM  5VIETNAM        ASIA        31-483-375-6021FURNITURE 
5868      Customer#000005868       US,gzOuIQ4qBJVPPrAzFp5DW ALGERIA  1ALGERIA        AFRICA      10-626-386-4156HOUSEHOLD 
5876      Customer#000005876       ewntlYxa                 ROMANIA  0ROMANIA        EUROPE      29-952-990-2986MACHINERY 
5884      Customer#000005884       2qgwF8nzPX               CANADA   6CANADA         AMERICA     13-590-526-5148HOUSEHOLD 
5892      Customer#000005892       wuDGbbVviK8UyUyT 4VQ     ALGERIA  6ALGERIA        AFRICA      10-117-315-9326BUILDING  
5900      Customer#000005900       bc,IxAukIOmIEs2QF        INDIA    3INDIA          ASIA        18-511-682-3372FURNITURE 
5908      Customer#000005908       E0crXF7XJ7aOXIS7RtU3Z    FRANCE   6FRANCE         EUROPE      16-817-460-2881BUILDING  
5916      Customer#000005916       OuDD4,AGuaB              ARGENTINA1ARGENTINA      AMERICA     11-946-172-4278FURNITURE 
5924      Customer#000005924       f0gWio                   GERMANY  4GERMANY        EUROPE      17-503-982-7557FURNITURE 
5932      Customer#000005932       Xm2FyoFkhdgp090KQ 6YI3   SAUDI ARA1SAUDI ARABIA   MIDDLE EAST 30-757-514-6698FURNITURE 
5940      Customer#000005940       EVU559HkHhcdgIe          ALGERIA  8ALGERIA        AFRICA      10-328-348-6495BUILDING  
5948      Customer#000005948       QeaLnrFTeDICb2tpf UCv    JAPAN    2JAPAN          ASIA        22-894-136-4942MACHINERY 
5956      Customer#000005956       UxOpowJ7G                VIETNAM  8VIETNAM        ASIA        31-303-299-5584MACHINERY 
5964      Customer#000005964       CpMrxMeU94NCgk2          VIETNAM  5VIETNAM        ASIA        31-309-518-4844MACHINERY 
5972      Customer#000005972       ,sb2F2PAdyPT,4v          CHINA    3CHINA          ASIA        28-839-610-9901HOUSEHOLD 
5980      Customer#000005980       OQq9,2vzC2j8DnxsOn       ETHIOPIA 4ETHIOPIA       AFRICA      15-811-210-9903AUTOMOBILE
5988      Customer#000005988       2gqmwjXB7tJmx3UvTiHbAE   CANADA   6CANADA         AMERICA     13-861-697-6421HOUSEHOLD 
5996      Customer#000005996       taBgo9P1mJh3zRqapI       IRAQ     8IRAQ           MIDDLE EAST 21-793-444-1862AUTOMOBILE
6004      Customer#000006004       Oo0mrAFH,KrRuF0          EGYPT    1EGYPT          MIDDLE EAST 14-282-102-9598FURNITURE 
6012      Customer#000006012       mSI9TkywG,fJgIV,mr2      KENYA    6KENYA          AFRICA      24-200-148-6124FURNITURE 
6020      Customer#000006020       SIdmPkG3HQKTwU4p         MOZAMBIQU8MOZAMBIQUE     AFRICA      26-518-546-2582BUILDING  
6028      Customer#000006028       mL,IJFV                  ALGERIA  7ALGERIA        AFRICA      10-909-262-2911MACHINERY 
6036      Customer#000006036       oArQJruOuhJxRvLWjeDX3    ALGERIA  7ALGERIA        AFRICA      10-314-615-6759HOUSEHOLD 
6044      Customer#000006044       DOpmBtl1j5gVB3           IRAN     2IRAN           MIDDLE EAST 20-654-983-8399HOUSEHOLD 
6052      Customer#000006052       5R8 L5TJey,G7Ta7YGF      VIETNAM  6VIETNAM        ASIA        31-843-556-6961FURNITURE 
6060      Customer#000006060       G ziIQMNWzroTj           MOROCCO  2MOROCCO        AFRICA      25-672-678-1071BUILDING  
6068      Customer#000006068       RCTOrn8 qmIVd6qG         EGYPT    2EGYPT          MIDDLE EAST 14-509-640-4088FURNITURE 
6076      Customer#000006076       At1D9HHVnICLHSzLkebTdUF  GERMANY  2GERMANY        EUROPE      17-312-342-5786FURNITURE 
6084      Customer#000006084       E0NXucb5MGwfV5BnC        MOROCCO  3MOROCCO        AFRICA      25-965-505-1403AUTOMOBILE
6092      Customer#000006092       Z,XTnww1rI6aWDjmfk7w0    ETHIOPIA 2ETHIOPIA       AFRICA      15-454-377-5209FURNITURE 
6100      Customer#000006100       BFnRAdDK0EMZAr2          KENYA    4KENYA          AFRICA      24-917-547-8817AUTOMOBILE
6108      Customer#000006108       0SPg7CHlEjunN0           IRAN     2IRAN           MIDDLE EAST 20-762-843-6392BUILDING  
6116      Customer#000006116       Q1HHnkKguo6sSYNWgNEk2    EGYPT    9EGYPT          MIDDLE EAST 14-705-509-2162BUILDING  
6124      Customer#000006124       1FAv28GTpQRD2Nw ULi      GERMANY  1GERMANY        EUROPE      17-150-825-8123MACHINERY 
6132      Customer#000006132       LMFK0bKFaBIX8tW74        ARGENTINA4ARGENTINA      AMERICA     11-889-245-1430HOUSEHOLD 
6140      Customer#000006140       QPlaw,8zEWbcabsVf,       IRAQ     5IRAQ           MIDDLE EAST 21-141-962-7374AUTOMOBILE
6148      Customer#000006148       OiRtO4N,szT              KENYA    2KENYA          AFRICA      24-511-535-6450AUTOMOBILE
6156      Customer#000006156       cVhwUHk5                 JAPAN    8JAPAN          ASIA        22-341-861-2570HOUSEHOLD 
6164      Customer#000006164       PSgfAO1LnbP8             KENYA    0KENYA          AFRICA      24-854-286-7485FURNITURE 
6172      Customer#000006172       uafeB6k3L MWgR6k8Wokrv0  ETHIOPIA 3ETHIOPIA       AFRICA      15-242-468-4206BUILDING  
6180      Customer#000006180       4csqeJ8yw1y r            IRAQ     2IRAQ           MIDDLE EAST 21-652-769-1021AUTOMOBILE
6188      Customer#000006188       Z85HZ6f                  MOROCCO  6MOROCCO        AFRICA      25-712-497-3413AUTOMOBILE
6196      Customer#000006196       KNWdwsj7hGyO0            MOROCCO  9MOROCCO        AFRICA      25-803-327-5489BUILDING  
6204      Customer#000006204       6MBV7BG qK               MOZAMBIQU9MOZAMBIQUE     AFRICA      26-934-377-8618FURNITURE 
6212      Customer#000006212       ArifsT45MN,N2HR          ETHIOPIA 3ETHIOPIA       AFRICA      15-152-366-7115AUTOMOBILE
6220      Customer#000006220       je,Ssek0XNsaWRGsiKF 0,h  GERMANY  8GERMANY        EUROPE      17-481-636-4052BUILDING  
6228      Customer#000006228       Zb2Vj1EhkIivE CSYkb9     ETHIOPIA 7ETHIOPIA       AFRICA      15-178-103-6837FURNITURE 
6236      Customer#000006236       zQjCvBPfacwUT0nrJ2u      PERU     6PERU           AMERICA     27-738-359-1296MACHINERY 
6244      Customer#000006244       5XQ1QzJOWRsj2dkV0WnG2lF  VIETNAM  0VIETNAM        ASIA        31-585-419-7675FURNITURE 
6252      Customer#000006252       iGu23V6R50fBd4,WCMeGm    RUSSIA   3RUSSIA         EUROPE      32-694-362-4985AUTOMOBILE
6260      Customer#000006260       oJLJxevvYZqj,n           EGYPT    2EGYPT          MIDDLE EAST 14-556-548-7164FURNITURE 
6268      Customer#000006268       cG,c4lu                  ETHIOPIA 5ETHIOPIA       AFRICA      15-290-622-5029BUILDING  
6276      Customer#000006276       qrFgLgA0RCdrQi           IRAQ     9IRAQ           MIDDLE EAST 21-755-328-5117AUTOMOBILE
6284      Customer#000006284       zEh7eHXMGoSNP9h7Bk7G8ax  JORDAN   9JORDAN         MIDDLE EAST 23-265-568-6396BUILDING  
6292      Customer#000006292       xR0ShtQF06               SAUDI ARA2SAUDI ARABIA   MIDDLE EAST 30-884-239-4614FURNITURE 
6300      Customer#000006300       iFuTBs                   KENYA    8KENYA          AFRICA      24-937-670-8931AUTOMOBILE
6308      Customer#000006308       FmSPcC6t                 IRAN     5IRAN           MIDDLE EAST 20-360-718-8804BUILDING  
6316      Customer#000006316       jbMHTjobB                KENYA    3KENYA          AFRICA      24-370-204-5094HOUSEHOLD 
6324      Customer#000006324       o7FUm0oO                 UNITED ST8UNITED STATES  AMERICA     34-990-995-3892HOUSEHOLD 
6332      Customer#000006332       s7FTXH37X                FRANCE   8FRANCE         EUROPE      16-552-453-6705MACHINERY 
6340      Customer#000006340       oxxavhy2                 BRAZIL   3BRAZIL         AMERICA     12-393-645-1589HOUSEHOLD 
6348      Customer#000006348       1W8CqV                   RUSSIA   2RUSSIA         EUROPE      32-566-941-2119AUTOMOBILE
6356      Customer#000006356       6xjYndpkg 0HArUyB56      EGYPT    9EGYPT          MIDDLE EAST 14-706-824-9739AUTOMOBILE
6364      Customer#000006364       P7n15pH                  CANADA   7CANADA         AMERICA     13-798-774-9189AUTOMOBILE
6372      Customer#000006372       cN5aX8yXPYruA4rITmdh     GERMANY  6GERMANY        EUROPE      17-827-933-7147MACHINERY 
6380      Customer#000006380       A3CZEoXr2U               KENYA    1KENYA          AFRICA      24-989-299-8356AUTOMOBILE
6388      Customer#000006388       p8xZE4LxJw,BhxqdqhnokSP  KENYA    6KENYA          AFRICA      24-199-515-8308HOUSEHOLD 
6396      Customer#000006396       OkUGWXg                  VIETNAM  0VIETNAM        ASIA        31-173-348-4804HOUSEHOLD 
6404      Customer#000006404       s,kUf5HrSnq,g8un,        ROMANIA  2ROMANIA        EUROPE      29-273-924-3738FURNITURE 
6412      Customer#000006412       wJVfQt,87Ckyca4rS4yh8PP  UNITED ST2UNITED STATES  AMERICA     34-587-563-6290AUTOMOBILE
6420      Customer#000006420       ROdVxbHD0,GVC            RUSSIA   1RUSSIA         EUROPE      32-884-167-2552BUILDING  
6428      Customer#000006428       jiZdycWOv3UcTXmeQ        SAUDI ARA2SAUDI ARABIA   MIDDLE EAST 30-704-642-8788HOUSEHOLD 
6436      Customer#000006436       yfj8DtQg                 JORDAN   9JORDAN         MIDDLE EAST 23-284-584-8092AUTOMOBILE
6444      Customer#000006444       7wOibQuMiSsum0zAf        MOROCCO  6MOROCCO        AFRICA      25-546-953-9202HOUSEHOLD 
6452      Customer#000006452       Qrin8a98Frzmr0           CHINA    4CHINA          ASIA        28-475-158-5497HOUSEHOLD 
6460      Customer#000006460       Pr5bp2A90Jjbr            JAPAN    9JAPAN          ASIA        22-551-155-1621BUILDING  
6468      Customer#000006468       NTWZxBhUwmLUSwo          INDIA    3INDIA          ASIA        18-136-609-5753MACHINERY 
6476      Customer#000006476       NbYct5LvnQfrajINpQm34t3y MOZAMBIQU0MOZAMBIQUE     AFRICA      26-619-403-4364AUTOMOBILE
6484      Customer#000006484       VbH7IC5F ZR1             CANADA   9CANADA         AMERICA     13-631-135-3946MACHINERY 
6492      Customer#000006492       nPlHrfR                  ALGERIA  7ALGERIA        AFRICA      10-362-161-9454FURNITURE 
6500      Customer#000006500       SQLIuXRcQ3Q7G38eUgM      VIETNAM  0VIETNAM        ASIA        31-211-663-3630HOUSEHOLD 
