8         Customer#000000008       I0B10bB0AymmC, 0PrRYBC   PERU     5PERU           AMERICA     27-828-394-8424BUILDING  
16        Customer#000000016       cYiaeMLZSMA              IRAN     7IRAN           MIDDLE EAST 20-698-557-3018FURNITURE 
24        Customer#000000024       HXAFgIAyjxtdqwimt13Y3O   JORDAN   7JORDAN         MIDDLE EAST 23-356-645-6505MACHINERY 
32        Customer#000000032       jD2xZzi UmId,DCtNBLXKj   MOROCCO  6MOROCCO        AFRICA      25-510-471-6621BUILDING  
40        Customer#000000040       gOnGWAyh                 CANADA   3CANADA         AMERICA     13-533-660-7604BUILDING  
48        Customer#000000048       0UU iPhBup               ALGERIA  5ALGERIA        AFRICA      10-527-951-4663BUILDING  
56        Customer#000000056       BJYZYJQk                 IRAN     3IRAN           MIDDLE EAST 20-942-829-6910FURNITURE 
64        Customer#000000064       MbCeGY20kaKK             CANADA   7CANADA         AMERICA     13-826-527-6366BUILDING  
72        Customer#000000072       putjlmskxE,zs,HqeIA9Wqu  BRAZIL   2BRAZIL         AMERICA     12-811-522-4901FURNITURE 
80        Customer#000000080       K,vtXp8                  ALGERIA  3ALGERIA        AFRICA      10-390-178-5418FURNITURE 
88        Customer#000000088       wtkjBN9eyrFuENSMmMF      MOZAMBIQU6MOZAMBIQUE     AFRICA      26-593-645-9049AUTOMOBILE
96        Customer#000000096       vWLOrm                   INDIA    2INDIA          ASIA        18-315-586-3712AUTOMOBILE
104       Customer#000000104       9mcCK L7rt0SwiYtrb       IRAN     4IRAN           MIDDLE EAST 20-543-382-2603FURNITURE 
112       Customer#000000112       RcfgG3bO7QeC             ROMANIA  6ROMANIA        EUROPE      29-540-404-7986FURNITURE 
120       Customer#000000120       zBNna00AE                JAPAN    5JAPAN          ASIA        22-400-992-2376MACHINERY 
128       Customer#000000128       AmKUMlJf2NRH             EGYPT    7EGYPT          MIDDLE EAST 14-162-164-1612HOUSEHOLD 
136       Customer#000000136       QoLsJ0v5C1I              GERMANY  8GERMANY        EUROPE      17-354-193-8818FURNITURE 
144       Customer#000000144       VxYZ3ebhgbltnetaGjNC8qCc ARGENTINA7ARGENTINA      AMERICA     11-186-222-1917MACHINERY 
152       Customer#000000152       PDrllSkScKLh4l           INDIA    2INDIA          ASIA        18-654-749-1061BUILDING  
160       Customer#000000160       5soVQ3dOC                JORDAN   0JORDAN         MIDDLE EAST 23-697-811-1913MACHINERY 
168       Customer#000000168       GDcL5qU86P8,oaTwVBCLE6as JAPAN    6JAPAN          ASIA        22-902-652-6415FURNITURE 
176       Customer#000000176       9hBepY2uz88HlCqToO       JORDAN   3JORDAN         MIDDLE EAST 23-321-220-1224FURNITURE 
184       Customer#000000184       uoOpBuRr42f1WIqnVYAhx    VIETNAM  6VIETNAM        ASIA        31-443-354-1729AUTOMOBILE
192       Customer#000000192       rDmB2c9d1BJQ y6R         IRAN     6IRAN           MIDDLE EAST 20-178-178-4437MACHINERY 
200       Customer#000000200       x1 H5c66DUgH2pgNT        MOZAMBIQU2MOZAMBIQUE     AFRICA      26-625-436-5334BUILDING  
208       Customer#000000208       Abye1MwcNfY0K            ROMANIA  4ROMANIA        EUROPE      29-926-104-7469MACHINERY 
216       Customer#000000216       LXH7wSv4I6GG6TAkL        VIETNAM  7VIETNAM        ASIA        31-604-804-1898FURNITURE 
224       Customer#000000224       4tCJvf30WagGfacqcAqmfCp  MOROCCO  6MOROCCO        AFRICA      25-556-629-4254BUILDING  
232       Customer#000000232       oA9o,3YOXu2rzKONdd,cxp   RUSSIA   2RUSSIA         EUROPE      32-516-249-4346HOUSEHOLD 
240       Customer#000000240       SXfeEOwRZsXArtY3C5UWqXg  INDONESIA7INDONESIA      ASIA        19-472-366-5574MACHINERY 
248       Customer#000000248       mgT15r8a                 IRAN     3IRAN           MIDDLE EAST 20-780-638-8178FURNITURE 
256       Customer#000000256       eJ6AggYh80JMEzZN         IRAN     1IRAN           MIDDLE EAST 20-718-275-4275HOUSEHOLD 
264       Customer#000000264       24Akixb4                 IRAQ     4IRAQ           MIDDLE EAST 21-672-169-5909MACHINERY 
272       Customer#000000272        YDjKpjXEe               BRAZIL   9BRAZIL         AMERICA     12-377-230-7484MACHINERY 
280       Customer#000000280       3fDiGmN6                 IRAQ     2IRAQ           MIDDLE EAST 21-549-260-9255BUILDING  
288       Customer#000000288       eEs5rwc9A                BRAZIL   3BRAZIL         AMERICA     12-490-551-2540HOUSEHOLD 
296       Customer#000000296       4eyqk2zpg4m V J          MOROCCO  0MOROCCO        AFRICA      25-215-454-8427BUILDING  
304       Customer#000000304       Cilvb3k8                 ALGERIA  6ALGERIA        AFRICA      10-664-999-3546MACHINERY 
312       Customer#000000312       cH6Xuc                   FRANCE   3FRANCE         EUROPE      16-214-544-6395AUTOMOBILE
320       Customer#000000320       pO8rWS                   JAPAN    2JAPAN          ASIA        22-202-895-6486MACHINERY 
328       Customer#000000328       9pu j2HoEf1uhiY3jx       ETHIOPIA 7ETHIOPIA       AFRICA      15-356-523-8773BUILDING  
336       Customer#000000336       yC zy1i6AGrnyk           BRAZIL   3BRAZIL         AMERICA     12-142-406-3106AUTOMOBILE
344       Customer#000000344       Zasc8,                   BRAZIL   3BRAZIL         AMERICA     12-707-278-1641FURNITURE 
352       Customer#000000352       HqhIE5GRTK0dFtWpJUQENU4  INDONESIA7INDONESIA      ASIA        19-902-603-6625HOUSEHOLD 
360       Customer#000000360       S,6ajyDFO3               PERU     6PERU           AMERICA     27-131-484-5074FURNITURE 
368       Customer#000000368       9p ReFA4fseK             RUSSIA   5RUSSIA         EUROPE      32-657-861-6069MACHINERY 
376       Customer#000000376       4NwsvFQU T4mSgzvU1R      MOZAMBIQU1MOZAMBIQUE     AFRICA      26-535-402-2243AUTOMOBILE
384       Customer#000000384       kDDMb3ML nUSu2Sn7C       INDONESIA3INDONESIA      ASIA        19-384-891-2243HOUSEHOLD 
392       Customer#000000392       H7M6JO                   PERU     3PERU           AMERICA     27-394-559-6277BUILDING  
400       Customer#000000400       U23zy17EPxq              KENYA    9KENYA          AFRICA      24-772-613-8258BUILDING  
408       Customer#000000408       TBjb3m,3aea4JtP833HD     IRAN     4IRAN           MIDDLE EAST 20-710-319-5116BUILDING  
416       Customer#000000416       fm7H7k6sYh               JAPAN    2JAPAN          ASIA        22-526-952-5620MACHINERY 
424       Customer#000000424       i4cf3kmRE9I              ROMANIA  1ROMANIA        EUROPE      29-232-530-3208HOUSEHOLD 
432       Customer#000000432       FDConiq g20GI9dH Q       UNITED KI7UNITED KINGDOM EUROPE      33-887-979-9590BUILDING  
440       Customer#000000440       w4fKMgiBuGmV,nLn7NgJl1D  CANADA   1CANADA         AMERICA     13-868-106-3373MACHINERY 
448       Customer#000000448       BH4vtnDpabk0NgoGNJ       UNITED ST5UNITED STATES  AMERICA     34-500-597-8476BUILDING  
456       Customer#000000456       IgUSuul                  ALGERIA  7ALGERIA        AFRICA      10-401-239-9025FURNITURE 
464       Customer#000000464       kAALP9gEt3,G9XtxC        INDONESIA2INDONESIA      ASIA        19-231-779-2898AUTOMOBILE
472       Customer#000000472       hWgfnsmTAEOx9Mqp87Ywz    JAPAN    6JAPAN          ASIA        22-956-885-9397MACHINERY 
480       Customer#000000480       XyQSPswCeO WPD37K3       GERMANY  3GERMANY        EUROPE      17-450-817-1999FURNITURE 
488       Customer#000000488       bBcMjFPTysST             CANADA   8CANADA         AMERICA     13-953-170-2000AUTOMOBILE
496       Customer#000000496       Y8oYLlHme6Z              JAPAN    9JAPAN          ASIA        22-433-546-8822MACHINERY 
504       Customer#000000504       2GuRx4pOLEQWU7fJOa, DYi  IRAN     9IRAN           MIDDLE EAST 20-252-419-8464FURNITURE 
512       Customer#000000512       e5 kymvjf6Vja7t          BRAZIL   8BRAZIL         AMERICA     12-157-441-9300BUILDING  
520       Customer#000000520       yaOGc9Ve92Bi4F6e0GcheU2M CANADA   8CANADA         AMERICA     13-295-373-6503HOUSEHOLD 
528       Customer#000000528       SRYjG5Wgp8ZG8GyDFhRIR    MOROCCO  3MOROCCO        AFRICA      25-356-771-7706AUTOMOBILE
536       Customer#000000536       jf8PSOQDvq               JAPAN    8JAPAN          ASIA        22-123-404-8109MACHINERY 
544       Customer#000000544       Jv7vcm,oE,HEyxekX        ETHIOPIA 3ETHIOPIA       AFRICA      15-754-535-7886AUTOMOBILE
552       Customer#000000552       EbjtaRaiok7eq            BRAZIL   2BRAZIL         AMERICA     12-423-981-5887FURNITURE 
560       Customer#000000560       gU5FQf0WM                ROMANIA  7ROMANIA        EUROPE      29-730-189-4598BUILDING  
568       Customer#000000568       ZddVCnzeABTTBgV3GvkvNtw  JORDAN   7JORDAN         MIDDLE EAST 23-792-914-4317BUILDING  
576       Customer#000000576       JI7ZI3BRrkt40uuUmg oyZ   ARGENTINA2ARGENTINA      AMERICA     11-421-976-7171HOUSEHOLD 
584       Customer#000000584       jebKvptmHtS9,YE1qOjl2A   MOROCCO  9MOROCCO        AFRICA      25-771-664-5542MACHINERY 
592       Customer#000000592       srNO5Hu10z1Ru4rRPU,Q     UNITED ST9UNITED STATES  AMERICA     34-869-241-8417BUILDING  
600       Customer#000000600       LOtVjPC,Eu,0I            JAPAN    8JAPAN          ASIA        22-673-637-7445HOUSEHOLD 
608       Customer#000000608       luMI1JpfrrILCE           MOZAMBIQU3MOZAMBIQUE     AFRICA      26-898-296-2124BUILDING  
616       Customer#000000616       yvUE7Qy3Ub6uG            ARGENTINA2ARGENTINA      AMERICA     11-977-938-5510FURNITURE 
624       Customer#000000624       L1hGsNrx4BiN5DIZG        EGYPT    7EGYPT          MIDDLE EAST 14-171-578-7521MACHINERY 
632       Customer#000000632       sUlni97r                 CANADA   0CANADA         AMERICA     13-859-452-2657MACHINERY 
640       Customer#000000640       j3vjr0 n,pJ              BRAZIL   4BRAZIL         AMERICA     12-963-403-3374HOUSEHOLD 
648       Customer#000000648       pYCT1OLD5Y7rBjjAKnf0Lqd  GERMANY  9GERMANY        EUROPE      17-178-159-8760FURNITURE 
656       Customer#000000656       DeZPec2K1U1fCBR2Ul9m     ETHIOPIA 3ETHIOPIA       AFRICA      15-982-936-8683AUTOMOBILE
664       Customer#000000664       viRe1P6HiyL4             MOROCCO  2MOROCCO        AFRICA      25-931-533-7947BUILDING  
672       Customer#000000672       Rsq8zHIbqRRB8Vlgld       CHINA    4CHINA          ASIA        28-317-877-4355BUILDING  
680       Customer#000000680       TuONtFVII8TR2QtJyl1lS5   JAPAN    8JAPAN          ASIA        22-814-708-7137AUTOMOBILE
688       Customer#000000688       2QBxK8WIryWMZTsDM JS7GxW INDIA    1INDIA          ASIA        18-663-328-7530HOUSEHOLD 
696       Customer#000000696       dYyj4azN0EE              RUSSIA   5RUSSIA         EUROPE      32-379-579-3260HOUSEHOLD 
704       Customer#000000704       41s9yU0ossOKgBvj         INDONESIA8INDONESIA      ASIA        19-748-704-5488AUTOMOBILE
712       Customer#000000712        8w2pIiA4wWA             FRANCE   1FRANCE         EUROPE      16-432-381-9137BUILDING  
720       Customer#000000720       8shFEL7J9sq1NJXR8d       RUSSIA   6RUSSIA         EUROPE      32-339-489-1785HOUSEHOLD 
728       Customer#000000728       uACufK5vIMlsq,v          UNITED ST5UNITED STATES  AMERICA     34-507-865-2706BUILDING  
736       Customer#000000736       zQNs5e2aFcVY8Mig         ARGENTINA3ARGENTINA      AMERICA     11-479-393-7751MACHINERY 
744       Customer#000000744        nYSoG                   GERMANY  4GERMANY        EUROPE      17-154-343-2118HOUSEHOLD 
752       Customer#000000752       KtdEacPUecPdPLt99kw      INDIA    4INDIA          ASIA        18-272-645-8908MACHINERY 
760       Customer#000000760       jp8DYJ7G                 BRAZIL   5BRAZIL         AMERICA     12-149-974-9012BUILDING  
768       Customer#000000768        ,cIZ,                   CHINA    8CHINA          ASIA        28-568-331-8595BUILDING  
776       Customer#000000776       rzhIStRHsiWoc6K,         MOROCCO  7MOROCCO        AFRICA      25-988-594-1603AUTOMOBILE
784       Customer#000000784       evcGXqbos                KENYA    5KENYA          AFRICA      24-647-129-6088BUILDING  
792       Customer#000000792       icVt7HjGs,p3YL3nr1MHgaQ  GERMANY  6GERMANY        EUROPE      17-972-280-1663AUTOMOBILE
800       Customer#000000800       mpI6pkdnWLZsBbQi4,uUC5Y  KENYA    1KENYA          AFRICA      24-101-631-3450AUTOMOBILE
808       Customer#000000808       S2WkSKCGtnbhcFOp6MWcu    ROMANIA  1ROMANIA        EUROPE      29-344-825-9715BUILDING  
816       Customer#000000816       k2dnnQ                   UNITED ST5UNITED STATES  AMERICA     34-637-806-2466BUILDING  
824       Customer#000000824       qHxq5m g6Ug              CHINA    2CHINA          ASIA        28-140-131-8451AUTOMOBILE
832       Customer#000000832       eNIy9Pat                 ROMANIA  1ROMANIA        EUROPE      29-729-764-5615HOUSEHOLD 
840       Customer#000000840       9wA4l70okCEW3GnYQv       RUSSIA   6RUSSIA         EUROPE      32-158-256-8257AUTOMOBILE
848       Customer#000000848       a nIm5Bk7                MOROCCO  9MOROCCO        AFRICA      25-446-388-5228BUILDING  
856       Customer#000000856       X4U7LH4YtD               MOROCCO  2MOROCCO        AFRICA      25-281-675-8715FURNITURE 
864       Customer#000000864       lKcUKtfu0myNF5msATC      JAPAN    1JAPAN          ASIA        22-782-109-2029AUTOMOBILE
872       Customer#000000872       vLP7iNZBK4B,HANFTKa      PERU     4PERU           AMERICA     27-757-134-1184BUILDING  
880       Customer#000000880       ogwHmUUFa1QB69pAoYAAoB0r INDIA    1INDIA          ASIA        18-185-292-8071FURNITURE 
888       Customer#000000888       3vlJp0W8                 JAPAN    6JAPAN          ASIA        22-798-264-8462HOUSEHOLD 
896       Customer#000000896       Tu1ZBNgi                 ALGERIA  7ALGERIA        AFRICA      10-861-267-5180AUTOMOBILE
904       Customer#000000904       YdJEbNygDU6DrgW          ETHIOPIA 1ETHIOPIA       AFRICA      15-897-258-3197BUILDING  
912       Customer#000000912       dQA12NEPQ                KENYA    0KENYA          AFRICA      24-711-204-9272FURNITURE 
920       Customer#000000920       oDBFWKIP6M6OlYRPmq       BRAZIL   2BRAZIL         AMERICA     12-142-184-3009HOUSEHOLD 
928       Customer#000000928       A9 UduEb48ffO            VIETNAM  9VIETNAM        ASIA        31-982-762-2086HOUSEHOLD 
936       Customer#000000936       hwJIFpxofea6CLEbWZ       IRAQ     7IRAQ           MIDDLE EAST 21-168-381-7202MACHINERY 
944       Customer#000000944       8lO9F4WK6PKWXiocyE       EGYPT    7EGYPT          MIDDLE EAST 14-330-282-6176BUILDING  
952       Customer#000000952       jg0YsHARdoULvVtP2vGHLV   UNITED ST1UNITED STATES  AMERICA     34-739-743-4530AUTOMOBILE
960       Customer#000000960       meekxaMlz5c1uE3wV7a      EGYPT    0EGYPT          MIDDLE EAST 14-999-738-8805HOUSEHOLD 
968       Customer#000000968       eu 5FA1WHs9jq            ALGERIA  4ALGERIA        AFRICA      10-417-863-1807BUILDING  
976       Customer#000000976       I78UJ2ks3sbcd            ROMANIA  8ROMANIA        EUROPE      29-584-127-6005BUILDING  
984       Customer#000000984       fgAELFO9                 IRAQ     8IRAQ           MIDDLE EAST 21-849-590-5193AUTOMOBILE
992       Customer#000000992       Vbi1NGfP                 ETHIOPIA 1ETHIOPIA       AFRICA      15-540-301-3493MACHINERY 
1000      Customer#000001000       hzM1shTw                 RUSSIA   3RUSSIA         EUROPE      32-418-958-5066BUILDING  
1008      Customer#000001008       AfP6tFNz1Eu4buoUd,HrZ    BRAZIL   1BRAZIL         AMERICA     12-704-792-4414HOUSEHOLD 
1016      Customer#000001016       8tzkhPXM                 IRAQ     8IRAQ           MIDDLE EAST 21-488-581-9267AUTOMOBILE
1024      Customer#000001024       9wLrRS78u                IRAQ     2IRAQ           MIDDLE EAST 21-941-479-6282FURNITURE 
1032      Customer#000001032       6yoIzDrw                 CHINA    8CHINA          ASIA        28-214-635-4804FURNITURE 
1040      Customer#000001040       vbJmdHe                  IRAQ     5IRAQ           MIDDLE EAST 21-374-308-3934BUILDING  
1048      Customer#000001048       Mk0ebiw9Sa               ROMANIA  3ROMANIA        EUROPE      29-215-178-2858BUILDING  
1056      Customer#000001056       8u1rnDOc                 ETHIOPIA 6ETHIOPIA       AFRICA      15-103-330-9856HOUSEHOLD 
1064      Customer#000001064       VmFhpV9 aIqP             MOROCCO  1MOROCCO        AFRICA      25-492-164-8771MACHINERY 
1072      Customer#000001072       HpCr1tM88WoEL            EGYPT    7EGYPT          MIDDLE EAST 14-424-734-6670HOUSEHOLD 
1080      Customer#000001080       Yux,gs14Npn              JAPAN    0JAPAN          ASIA        22-978-933-2138MACHINERY 
1088      Customer#000001088       YjXQtOJoM0nhClEy0,WFdNxv RUSSIA   6RUSSIA         EUROPE      32-769-131-4160BUILDING  
1096      Customer#000001096       ldbo6AfnCRjFW8rZnvG6U    EGYPT    0EGYPT          MIDDLE EAST 14-742-205-9542FURNITURE 
1104      Customer#000001104       ,t,d8Fln                 INDIA    5INDIA          ASIA        18-330-258-8768AUTOMOBILE
1112      Customer#000001112       wFf 0nSvdJyk2GqRsqJrc    SAUDI ARA1SAUDI ARABIA   MIDDLE EAST 30-870-702-1248MACHINERY 
1120      Customer#000001120       UAG90slCmJS7JOP AhlV12t  BRAZIL   8BRAZIL         AMERICA     12-258-391-7823AUTOMOBILE
1128      Customer#000001128       72XUL0qb4,NLmfy          ALGERIA  2ALGERIA        AFRICA      10-843-470-8684BUILDING  
1136      Customer#000001136       GHCEiSK0TKsOncuJT3       UNITED ST8UNITED STATES  AMERICA     34-123-858-5503FURNITURE 
1144      Customer#000001144       DGLUWG9evYLNbYhOXVzq     ARGENTINA3ARGENTINA      AMERICA     11-994-554-3349BUILDING  
1152      Customer#000001152       QRmFl9Zk                 JAPAN    7JAPAN          ASIA        22-196-898-7951HOUSEHOLD 
1160      Customer#000001160       v65g1aRCGA76ZHySoOBffL3  UNITED ST1UNITED STATES  AMERICA     34-839-867-7313AUTOMOBILE
1168      Customer#000001168       gmAnpwPP                 PERU     9PERU           AMERICA     27-634-962-6215FURNITURE 
1176      Customer#000001176       V0xc0tXNMmObuUJ0rGA      IRAN     4IRAN           MIDDLE EAST 20-717-757-9135BUILDING  
1184      Customer#000001184       M0dd3R30k0Y              IRAQ     3IRAQ           MIDDLE EAST 21-821-649-8983BUILDING  
1192      Customer#000001192       8DbtM3KloBZ4O            SAUDI ARA0SAUDI ARABIA   MIDDLE EAST 30-634-560-9173BUILDING  
1200      Customer#000001200       2PFysvL                  RUSSIA   1RUSSIA         EUROPE      32-458-133-2479HOUSEHOLD 
1208      Customer#000001208       M uLSFG6IrQkKQxrH5v      ETHIOPIA 1ETHIOPIA       AFRICA      15-390-121-3524BUILDING  
1216      Customer#000001216       CSf1BbFhJhucmvftO        CANADA   8CANADA         AMERICA     13-724-850-4012AUTOMOBILE
1224      Customer#000001224       PWOwgZKsBoFJQ7py         INDIA    6INDIA          ASIA        18-648-326-5182HOUSEHOLD 
1232      Customer#000001232       yYXdTto04o               CHINA    8CHINA          ASIA        28-264-379-4640MACHINERY 
1240      Customer#000001240       XbvhyAXRkuujtESRmx       EGYPT    3EGYPT          MIDDLE EAST 14-941-270-4425FURNITURE 
1248      Customer#000001248       f0X68b                   INDIA    2INDIA          ASIA        18-706-748-7961AUTOMOBILE
1256      Customer#000001256       sNx4HcJ35paZi            MOROCCO  2MOROCCO        AFRICA      25-566-578-5331MACHINERY 
1264      Customer#000001264       vC1Yg5q O9               MOZAMBIQU1MOZAMBIQUE     AFRICA      26-556-358-5235MACHINERY 
1272      Customer#000001272       hzMO9c                   VIETNAM  2VIETNAM        ASIA        31-996-927-4078FURNITURE 
1280      Customer#000001280       3AmBFWaq                 MOZAMBIQU3MOZAMBIQUE     AFRICA      26-114-415-4579HOUSEHOLD 
1288      Customer#000001288       wQDTTCkSG                CANADA   4CANADA         AMERICA     13-947-153-6945HOUSEHOLD 
1296      Customer#000001296       cLAyTJcfD3T4hK           ETHIOPIA 5ETHIOPIA       AFRICA      15-406-767-1455MACHINERY 
1304      Customer#000001304       1sXtodRtFvB              IRAQ     3IRAQ           MIDDLE EAST 21-804-926-4579AUTOMOBILE
1312      Customer#000001312       f5zgMB4MHLMSHaX0         CANADA   1CANADA         AMERICA     13-111-313-1475BUILDING  
1320      Customer#000001320       8gman6hzpuKUsX7mK        MOROCCO  5MOROCCO        AFRICA      25-575-166-6657MACHINERY 
1328      Customer#000001328       fjKlKFyxTQR              IRAN     6IRAN           MIDDLE EAST 20-594-255-6622AUTOMOBILE
1336      Customer#000001336       E4MeTLnSTIOlWkLD         MOZAMBIQU0MOZAMBIQUE     AFRICA      26-553-444-2961AUTOMOBILE
1344      Customer#000001344       95XSwEZD22               ETHIOPIA 2ETHIOPIA       AFRICA      15-957-792-3811AUTOMOBILE
1352      Customer#000001352       XW4X8ComPo5              SAUDI ARA9SAUDI ARABIA   MIDDLE EAST 30-161-339-3646FURNITURE 
1360      Customer#000001360       xeaT6W6D569UKCKU86       ROMANIA  5ROMANIA        EUROPE      29-920-576-5425MACHINERY 
1368      Customer#000001368       4PxJqZUIML Ehe           MOROCCO  3MOROCCO        AFRICA      25-754-755-3760BUILDING  
1376      Customer#000001376       VushDntQeYmYLT22v        JAPAN    8JAPAN          ASIA        22-647-885-5774HOUSEHOLD 
1384      Customer#000001384       bQI5haTy6PHM8MyRt        INDIA    7INDIA          ASIA        18-359-709-3807HOUSEHOLD 
1392      Customer#000001392       iXmNoe7                  RUSSIA   4RUSSIA         EUROPE      32-539-511-1301HOUSEHOLD 
1400      Customer#000001400       BuouRkR                  ALGERIA  7ALGERIA        AFRICA      10-271-154-1862BUILDING  
1408      Customer#000001408       NMIb3p1DyU,Z             IRAQ     2IRAQ           MIDDLE EAST 21-302-756-7758HOUSEHOLD 
1416      Customer#000001416       ovOZcFGL31uxmA2ifIY      GERMANY  6GERMANY        EUROPE      17-561-977-3906MACHINERY 
1424      Customer#000001424        3QsPg                   RUSSIA   1RUSSIA         EUROPE      32-381-533-2185FURNITURE 
1432      Customer#000001432       ,pbQM2fi64               VIETNAM  5VIETNAM        ASIA        31-717-698-6755MACHINERY 
1440      Customer#000001440       k3LXBO5QJrG94TBG77adB    GERMANY  8GERMANY        EUROPE      17-173-504-9578BUILDING  
1448      Customer#000001448       a45QD J55bo3             UNITED ST7UNITED STATES  AMERICA     34-158-308-2674AUTOMOBILE
1456      Customer#000001456       zKDB5elql                JORDAN   3JORDAN         MIDDLE EAST 23-363-566-2604AUTOMOBILE
1464      Customer#000001464       5kOAfK9s6goOZabgSzNLgD   KENYA    6KENYA          AFRICA      24-455-991-1742AUTOMOBILE
1472      Customer#000001472        Eayx9GAqjJEwrGy         ETHIOPIA 9ETHIOPIA       AFRICA      15-668-304-4012MACHINERY 
1480      Customer#000001480       Hzjh65ZXBFSzflrjQgE      GERMANY  8GERMANY        EUROPE      17-396-381-6877HOUSEHOLD 
1488      Customer#000001488       DtF2uJI8td               EGYPT    2EGYPT          MIDDLE EAST 14-633-228-1483HOUSEHOLD 
1496      Customer#000001496       ZOyMxut                  CANADA   3CANADA         AMERICA     13-572-802-9387AUTOMOBILE
1504      Customer#000001504       suueZs7bAbe              ALGERIA  1ALGERIA        AFRICA      10-840-321-8641MACHINERY 
1512      Customer#000001512        FhwT 40,zugIGQPtYUDkj   MOZAMBIQU1MOZAMBIQUE     AFRICA      26-180-191-5740HOUSEHOLD 
1520      Customer#000001520       WuEf6uxQmSgTA1efbl24QhQ6 UNITED ST5UNITED STATES  AMERICA     34-717-760-4387HOUSEHOLD 
1528      Customer#000001528       fa,9WdvoEW06FtLQ6bp      VIETNAM  0VIETNAM        ASIA        31-584-631-5942AUTOMOBILE
1536      Customer#000001536       HRUhB3D7LC6V ydQiga      JORDAN   2JORDAN         MIDDLE EAST 23-778-693-9488HOUSEHOLD 
1544      Customer#000001544       R,hoHFlkusJ,1K           UNITED KI2UNITED KINGDOM EUROPE      33-602-526-9010AUTOMOBILE
1552      Customer#000001552       eR6My q7YdhYeBH jVxHHC   VIETNAM  4VIETNAM        ASIA        31-551-463-5372AUTOMOBILE
1560      Customer#000001560       yNFoAP4UcMlluwL1uNYvUmCg MOROCCO  4MOROCCO        AFRICA      25-197-453-2919MACHINERY 
1568      Customer#000001568       uOMsOfJ0raeSGqW9PMPs1s   RUSSIA   6RUSSIA         EUROPE      32-453-497-6592HOUSEHOLD 
1576      Customer#000001576       ec9dOjmCD0iicQEc4iIff88z RUSSIA   9RUSSIA         EUROPE      32-158-678-5941MACHINERY 
1584      Customer#000001584       BWzLMEnPG7tsF54M8kdG     VIETNAM  7VIETNAM        ASIA        31-546-815-1588HOUSEHOLD 
1592      Customer#000001592       Bf Y0y,                  INDONESIA6INDONESIA      ASIA        19-524-805-2911HOUSEHOLD 
1600      Customer#000001600       GFgAlTCNWGZU4Gyk         SAUDI ARA6SAUDI ARABIA   MIDDLE EAST 30-238-353-8025BUILDING  
1608      Customer#000001608       jGjdmzMbF05pXU5STr       FRANCE   6FRANCE         EUROPE      16-183-619-3839BUILDING  
1616      Customer#000001616       hZ7KvTsImg5hRUW          SAUDI ARA4SAUDI ARABIA   MIDDLE EAST 30-327-831-5877FURNITURE 
1624      Customer#000001624       A8VfM,awG8VPy            PERU     7PERU           AMERICA     27-682-270-6963AUTOMOBILE
1632      Customer#000001632       9SoJbgMR2                UNITED ST2UNITED STATES  AMERICA     34-228-638-1120AUTOMOBILE
1640      Customer#000001640       lGeZbMEg03               INDIA    5INDIA          ASIA        18-989-625-6359BUILDING  
1648      Customer#000001648       e3oTXQ7OOT               UNITED KI9UNITED KINGDOM EUROPE      33-246-735-4358AUTOMOBILE
1656      Customer#000001656       m3BvBNeQ1O eV1Bnn3y      ROMANIA  3ROMANIA        EUROPE      29-999-386-3596AUTOMOBILE
1664      Customer#000001664       LWrtr,G ifu9pwmSc2HknzWQ JAPAN    9JAPAN          ASIA        22-823-945-9899MACHINERY 
1672      Customer#000001672       ZqEat15B3nCQI4MaRoxdfhN  UNITED KI1UNITED KINGDOM EUROPE      33-978-709-1741FURNITURE 
1680      Customer#000001680       jYhr0a6R8XTw8RR3         CHINA    1CHINA          ASIA        28-599-657-2930HOUSEHOLD 
1688      Customer#000001688       KE2TYj                   CANADA   4CANADA         AMERICA     13-365-611-9079BUILDING  
1696      Customer#000001696       HIJoLNtvjJbh5H0PturTaO   MOZAMBIQU1MOZAMBIQUE     AFRICA      26-554-283-3461BUILDING  
1704      Customer#000001704       G4lZ0VRWfLKl             MOZAMBIQU9MOZAMBIQUE     AFRICA      26-509-455-2317HOUSEHOLD 
1712      Customer#000001712       Qdv0r7aA5tmE             CHINA    2CHINA          ASIA        28-549-380-6987FURNITURE 
1720      Customer#000001720       CIRvBtD2pSJ2b            GERMANY  8GERMANY        EUROPE      17-479-682-9965BUILDING  
1728      Customer#000001728       ZbokjPCGrcUuysUjYtzQRK9g MOZAMBIQU8MOZAMBIQUE     AFRICA      26-448-500-3249AUTOMOBILE
1736      Customer#000001736       t3 1Dv36zNjBXauc2H       GERMANY  3GERMANY        EUROPE      17-663-103-4091HOUSEHOLD 
1744      Customer#000001744       cUBf1 YMJEgbt2XDeQW      PERU     4PERU           AMERICA     27-411-135-1563FURNITURE 
1752      Customer#000001752       CZzZOOnc                 ETHIOPIA 2ETHIOPIA       AFRICA      15-980-637-2245MACHINERY 
1760      Customer#000001760       HcnL7r33sI               INDONESIA5INDONESIA      ASIA        19-109-725-8226BUILDING  
1768      Customer#000001768       kId4M 0RG                PERU     0PERU           AMERICA     27-624-850-2571AUTOMOBILE
1776      Customer#000001776       ,iyGlh4                  RUSSIA   9RUSSIA         EUROPE      32-610-792-8314BUILDING  
1784      Customer#000001784       Zs8QpbcHZfcVJ6           MOROCCO  0MOROCCO        AFRICA      25-348-453-2846BUILDING  
1792      Customer#000001792       IPqTE3D5cvxDmpveKD6WwW   ARGENTINA5ARGENTINA      AMERICA     11-403-582-3698BUILDING  
1800      Customer#000001800       Cc 1QYWD8JeDlRu          MOZAMBIQU8MOZAMBIQUE     AFRICA      26-562-984-2782FURNITURE 
1808      Customer#000001808       Z Losr9UXEWwm3           RUSSIA   9RUSSIA         EUROPE      32-710-870-6143HOUSEHOLD 
1816      Customer#000001816       WemZ1IDB0sBS9yyqszdSxq   EGYPT    8EGYPT          MIDDLE EAST 14-949-761-5670BUILDING  
1824      Customer#000001824       aN7aUMe22hd2LnIqVf7TnJL  IRAN     7IRAN           MIDDLE EAST 20-904-697-8783AUTOMOBILE
1832      Customer#000001832       VffJ90poBdj 9fq7Hp       IRAN     0IRAN           MIDDLE EAST 20-245-527-6025BUILDING  
1840      Customer#000001840       cMNMPjKib0Ez0Bl,cesL     CANADA   4CANADA         AMERICA     13-350-962-6179BUILDING  
1848      Customer#000001848       g xIZPvP9Ak              EGYPT    1EGYPT          MIDDLE EAST 14-829-117-9998HOUSEHOLD 
1856      Customer#000001856       FuvHERUFZy4lUPSGX9WzC6rM VIETNAM  0VIETNAM        ASIA        31-974-626-8534AUTOMOBILE
1864      Customer#000001864       ZTAtP8aj97X246rzbsglEX   RUSSIA   2RUSSIA         EUROPE      32-481-909-8223FURNITURE 
1872      Customer#000001872       CTHfC,m5kcnglbJawTVx     RUSSIA   5RUSSIA         EUROPE      32-553-881-7401FURNITURE 
1880      Customer#000001880       LRh,W2K0                 MOZAMBIQU8MOZAMBIQUE     AFRICA      26-181-782-5096HOUSEHOLD 
1888      Customer#000001888       3psgNE6QfX,Iw2xTWauq9yL9 ETHIOPIA 8ETHIOPIA       AFRICA      15-178-801-6853AUTOMOBILE
1896      Customer#000001896       4QX6hX9fgTooTWKoy6       MOZAMBIQU8MOZAMBIQUE     AFRICA      26-836-760-1636MACHINERY 
1904      Customer#000001904       qtgYwanpIR3LfvbOPexV     UNITED ST0UNITED STATES  AMERICA     34-768-758-2972BUILDING  
1912      Customer#000001912       1AHyJO5HDpo5AiczS 8zP9P9 SAUDI ARA1SAUDI ARABIA   MIDDLE EAST 30-457-764-3563FURNITURE 
1920      Customer#000001920       FvwmRwSmKgzj7u4di        INDIA    7INDIA          ASIA        18-635-826-8986MACHINERY 
1928      Customer#000001928       Ce02vQ                   JAPAN    0JAPAN          ASIA        22-284-993-8875MACHINERY 
1936      Customer#000001936       PGu2Wen                  ALGERIA  6ALGERIA        AFRICA      10-526-526-5296HOUSEHOLD 
1944      Customer#000001944       LbrsZ4C                  KENYA    9KENYA          AFRICA      24-680-651-8187HOUSEHOLD 
1952      Customer#000001952       sZvM,CF54wYy             CHINA    8CHINA          ASIA        28-419-602-3020MACHINERY 
1960      Customer#000001960       DFG0YX 4bZQ40vdnfLc8z    ARGENTINA0ARGENTINA      AMERICA     11-770-269-6209BUILDING  
1968      Customer#000001968       dUAE71                   UNITED ST7UNITED STATES  AMERICA     34-946-643-6774HOUSEHOLD 
1976      Customer#000001976       M2WWTo3je0NgpIFOe55Svt   MOROCCO  1MOROCCO        AFRICA      25-232-706-2902MACHINERY 
1984      Customer#000001984       MAqwYLxOBbMoyAWwvjEZK9   JORDAN   5JORDAN         MIDDLE EAST 23-734-509-9224HOUSEHOLD 
1992      Customer#000001992       FNQZbT88w                ARGENTINA2ARGENTINA      AMERICA     11-773-366-3049BUILDING  
2000      Customer#000002000       NabVtyaWa                JORDAN   0JORDAN         MIDDLE EAST 23-548-186-7665AUTOMOBILE
2008      Customer#000002008       Oj2bnlyrbjzpgHuHJ        ARGENTINA8ARGENTINA      AMERICA     11-394-542-2014MACHINERY 
2016      Customer#000002016       g3bzz5x,F                KENYA    4KENYA          AFRICA      24-607-656-4244MACHINERY 
2024      Customer#000002024       zR5rsm                   FRANCE   2FRANCE         EUROPE      16-799-362-9413HOUSEHOLD 
2032      Customer#000002032       2mSGIF1ViqXG54rOdkMe     FRANCE   2FRANCE         EUROPE      16-700-431-3925MACHINERY 
2040      Customer#000002040       oUVjnRRIfLBZsjKC7Sut     GERMANY  0GERMANY        EUROPE      17-548-715-5538AUTOMOBILE
2048      Customer#000002048       CGVAPoShl                IRAQ     7IRAQ           MIDDLE EAST 21-906-870-5622MACHINERY 
2056      Customer#000002056       3kZTqpg,O                VIETNAM  1VIETNAM        ASIA        31-395-956-1347FURNITURE 
2064      Customer#000002064       G66f6pcZb                BRAZIL   4BRAZIL         AMERICA     12-244-354-3509HOUSEHOLD 
2072      Customer#000002072       qfZhWSCYKH2QI            IRAQ     0IRAQ           MIDDLE EAST 21-233-489-7170FURNITURE 
2080      Customer#000002080       fPmA BjHaeW              IRAN     7IRAN           MIDDLE EAST 20-560-680-1061HOUSEHOLD 
2088      Customer#000002088       GcNQEL2thGrtVxPW5        BRAZIL   9BRAZIL         AMERICA     12-559-107-9393AUTOMOBILE
2096      Customer#000002096       N3V4zQ0PFtTn41mHpmzNfm   EGYPT    6EGYPT          MIDDLE EAST 14-363-859-9056FURNITURE 
2104      Customer#000002104       5OZFQ                    UNITED ST1UNITED STATES  AMERICA     34-224-763-5122FURNITURE 
2112      Customer#000002112       BjZr1Pv97pCYYe wg        GERMANY  1GERMANY        EUROPE      17-535-853-6736FURNITURE 
2120      Customer#000002120       B6Ula5SL6WIPd9ILJadfRnSX INDIA    7INDIA          ASIA        18-242-581-3743AUTOMOBILE
2128      Customer#000002128       26p62fTXCshvg            EGYPT    3EGYPT          MIDDLE EAST 14-137-680-1693BUILDING  
2136      Customer#000002136       7c8mnSJy0P               ARGENTINA6ARGENTINA      AMERICA     11-624-407-6984BUILDING  
2144      Customer#000002144       ivOXd,5oQq               EGYPT    7EGYPT          MIDDLE EAST 14-805-515-9269HOUSEHOLD 
2152      Customer#000002152       KCiEzbFYoLobbDGRxn       INDONESIA3INDONESIA      ASIA        19-950-415-9406AUTOMOBILE
2160      Customer#000002160       hLqamfCQS9Oxe            VIETNAM  7VIETNAM        ASIA        31-655-951-7604HOUSEHOLD 
2168      Customer#000002168       MASWHL,                  JORDAN   4JORDAN         MIDDLE EAST 23-408-571-1658HOUSEHOLD 
2176      Customer#000002176       b9dFlydwxZIo1igeHVEHRD   BRAZIL   2BRAZIL         AMERICA     12-866-763-6673BUILDING  
2184      Customer#000002184       qo0T3cl                  UNITED KI5UNITED KINGDOM EUROPE      33-970-397-4700FURNITURE 
2192      Customer#000002192       w5ryGeEZRssjUXEQLuHRerD2 ETHIOPIA 5ETHIOPIA       AFRICA      15-923-500-2145BUILDING  
2200      Customer#000002200       33gkVbYf2s               INDIA    5INDIA          ASIA        18-663-562-1788FURNITURE 
2208      Customer#000002208       RhztYqOwrrx              FRANCE   8FRANCE         EUROPE      16-695-855-4271MACHINERY 
2216      Customer#000002216       2RAIV5UdIqf05roYh,ZJZ3   INDIA    3INDIA          ASIA        18-134-954-3343AUTOMOBILE
2224      Customer#000002224       w58kcuHqnUoEhzPR26KrdAh  JORDAN   6JORDAN         MIDDLE EAST 23-502-123-1968MACHINERY 
2232      Customer#000002232       9i5  d1uC,RTbXlkjU       PERU     5PERU           AMERICA     27-105-882-8127FURNITURE 
2240      Customer#000002240       x4ytmBtcuAsHHqs          RUSSIA   9RUSSIA         EUROPE      32-458-185-8621MACHINERY 
2248      Customer#000002248       oZUrUS,                  ARGENTINA7ARGENTINA      AMERICA     11-445-277-7292HOUSEHOLD 
2256      Customer#000002256       y4UFAI6kM                UNITED ST9UNITED STATES  AMERICA     34-563-651-4730FURNITURE 
2264      Customer#000002264       pNshTpOPuJ03xXw,MnaP     JAPAN    3JAPAN          ASIA        22-826-684-6945BUILDING  
2272      Customer#000002272       kjs33aHhYXzHwL,Rqi       VIETNAM  2VIETNAM        ASIA        31-119-392-8848HOUSEHOLD 
2280      Customer#000002280       BLV,jULIvRXM,F2L5hjEpeVH JAPAN    9JAPAN          ASIA        22-160-765-2319HOUSEHOLD 
2288      Customer#000002288       yBmHjxctz PQ08rKrLkl     MOZAMBIQU1MOZAMBIQUE     AFRICA      26-284-431-6002FURNITURE 
2296      Customer#000002296       1NP8MQ2Ts4QJF1WOi        PERU     1PERU           AMERICA     27-575-420-9915MACHINERY 
2304      Customer#000002304       CJ2ivE0taW               FRANCE   5FRANCE         EUROPE      16-713-171-5266HOUSEHOLD 
2312      Customer#000002312       d42MrBCslEnVue,8EInP1    INDONESIA2INDONESIA      ASIA        19-650-592-3197HOUSEHOLD 
2320      Customer#000002320       vOqrEiw3svbkhs0ki6708,   INDIA    7INDIA          ASIA        18-547-270-7113FURNITURE 
2328      Customer#000002328       krne5CD3F,M              VIETNAM  6VIETNAM        ASIA        31-650-196-4133AUTOMOBILE
2336      Customer#000002336       MQlKGjIpgtjh5fZZg1MFWqc  RUSSIA   4RUSSIA         EUROPE      32-398-856-4297BUILDING  
2344      Customer#000002344       wY2xIB                   MOROCCO  0MOROCCO        AFRICA      25-991-581-2702FURNITURE 
2352      Customer#000002352       q1x6 km                  VIETNAM  6VIETNAM        ASIA        31-533-480-7806HOUSEHOLD 
2360      Customer#000002360       7O4p DV8WPF7rymyhR,E     EGYPT    5EGYPT          MIDDLE EAST 14-157-626-7119FURNITURE 
2368      Customer#000002368       yiR1fYRTnJJA k3gjEkfAC   CANADA   3CANADA         AMERICA     13-131-704-6097MACHINERY 
2376      Customer#000002376       Dsirvz9q9SbP0N7o13       ROMANIA  3ROMANIA        EUROPE      29-917-465-1843AUTOMOBILE
2384      Customer#000002384       g5B1v7EGSrRvQAW          ARGENTINA6ARGENTINA      AMERICA     11-661-730-1208BUILDING  
2392      Customer#000002392       wh9BU4                   JORDAN   0JORDAN         MIDDLE EAST 23-987-878-4071FURNITURE 
2400      Customer#000002400       LJTByF,UWh               ALGERIA  7ALGERIA        AFRICA      10-273-993-7365FURNITURE 
2408      Customer#000002408       TmBXhmFYX04RT 9N Wb      CANADA   8CANADA         AMERICA     13-663-425-8325AUTOMOBILE
2416      Customer#000002416       6FT4YG7RVda3l            PERU     3PERU           AMERICA     27-784-949-4282AUTOMOBILE
2424      Customer#000002424       xLPkt,yKF7xn8HEmIm9      ARGENTINA6ARGENTINA      AMERICA     11-472-243-2109AUTOMOBILE
2432      Customer#000002432       w0JRRsY2HrAU             ARGENTINA7ARGENTINA      AMERICA     11-769-364-4565MACHINERY 
2440      Customer#000002440       l2T0PVXDWhR4             MOZAMBIQU0MOZAMBIQUE     AFRICA      26-201-455-1630MACHINERY 
2448      Customer#000002448       kgeO3pQp 0ONfX           ETHIOPIA 5ETHIOPIA       AFRICA      15-257-895-6992FURNITURE 
2456      Customer#000002456       T9o7C5u8o2DPgofD         UNITED KI2UNITED KINGDOM EUROPE      33-455-386-8694MACHINERY 
2464      Customer#000002464       n38Ucb DMI1sLj5d         JORDAN   3JORDAN         MIDDLE EAST 23-285-680-6631BUILDING  
2472      Customer#000002472       DH1SH7lIuBWH1iat8TX3bU   IRAQ     8IRAQ           MIDDLE EAST 21-192-328-5292AUTOMOBILE
2480      Customer#000002480       e5WDXmllOu0YkCVFXsKIRg   CANADA   6CANADA         AMERICA     13-458-585-2995FURNITURE 
2488      Customer#000002488       tj85ib                   IRAQ     0IRAQ           MIDDLE EAST 21-876-667-3938MACHINERY 
2496      Customer#000002496       Esnw,GewIc,kGF1xHh       ARGENTINA2ARGENTINA      AMERICA     11-991-176-5073HOUSEHOLD 
2504      Customer#000002504       6MBqCeHAVWa8,            FRANCE   6FRANCE         EUROPE      16-749-289-1531BUILDING  
2512      Customer#000002512       c,IQlQhG,dqbj            RUSSIA   9RUSSIA         EUROPE      32-943-704-1687MACHINERY 
2520      Customer#000002520       alF2hthmVh               PERU     5PERU           AMERICA     27-480-251-2802AUTOMOBILE
2528      Customer#000002528       keMX8YMxyeqx1ldB7D2c     PERU     2PERU           AMERICA     27-425-983-8554AUTOMOBILE
2536      Customer#000002536       qWYEvczT56xIu5Okn0       BRAZIL   6BRAZIL         AMERICA     12-816-449-1219FURNITURE 
2544      Customer#000002544       BGP,E1rzzSjibGpFEJwpl    PERU     2PERU           AMERICA     27-243-660-6720FURNITURE 
2552      Customer#000002552       pc8ZX2OIpv3cM9qTm        SAUDI ARA2SAUDI ARABIA   MIDDLE EAST 30-250-121-1114BUILDING  
2560      Customer#000002560       lyTAp0FYxG1Xv6 5J6I      BRAZIL   2BRAZIL         AMERICA     12-889-913-8071AUTOMOBILE
2568      Customer#000002568       O6TbwPU,Ve0yAzCSW        ETHIOPIA 6ETHIOPIA       AFRICA      15-977-181-6950HOUSEHOLD 
2576      Customer#000002576       TdsON4i,Rynpt mJeG       ALGERIA  6ALGERIA        AFRICA      10-812-424-8169BUILDING  
2584      Customer#000002584       2AhS5E                   UNITED ST3UNITED STATES  AMERICA     34-917-408-8164BUILDING  
2592      Customer#000002592       6GggGO6yaWSI             KENYA    5KENYA          AFRICA      24-765-518-9627MACHINERY 
2600      Customer#000002600       0qd,sTFzprK9dBkBXQ7YhpW  ALGERIA  3ALGERIA        AFRICA      10-849-454-1718BUILDING  
2608      Customer#000002608       Oqn850bVYnTqtS2IFV       VIETNAM  6VIETNAM        ASIA        31-535-606-9674FURNITURE 
2616      Customer#000002616       2S82ft6D VzuRuDN5dPYH5   UNITED ST8UNITED STATES  AMERICA     34-700-654-3253BUILDING  
2624      Customer#000002624       HbD8hnHhLLLHnRlunA9UfU   KENYA    5KENYA          AFRICA      24-828-324-7049BUILDING  
2632      Customer#000002632       Q945vMUK5GF4DBN7muAYk    ALGERIA  1ALGERIA        AFRICA      10-765-785-6576BUILDING  
2640      Customer#000002640       zhkM8J983fCFJ            SAUDI ARA3SAUDI ARABIA   MIDDLE EAST 30-466-138-2658MACHINERY 
2648      Customer#000002648       sTy1mYFhKKxk 9DTM4xDYT4J CANADA   2CANADA         AMERICA     13-925-830-7334FURNITURE 
2656      Customer#000002656       JWieZpE                  ALGERIA  5ALGERIA        AFRICA      10-736-213-9385BUILDING  
2664      Customer#000002664       d8M1Xu2vcP4              VIETNAM  6VIETNAM        ASIA        31-513-244-3506AUTOMOBILE
2672      Customer#000002672       MhMCu5jIYte0H2           ALGERIA  7ALGERIA        AFRICA      10-911-816-3436AUTOMOBILE
2680      Customer#000002680       rE0tEd3Yk1maiHAsxplg     EGYPT    3EGYPT          MIDDLE EAST 14-805-409-6001MACHINERY 
2688      Customer#000002688       CRDiJ9k                  JORDAN   2JORDAN         MIDDLE EAST 23-431-423-1651FURNITURE 
2696      Customer#000002696       7uwA5r81NXSza            PERU     5PERU           AMERICA     27-502-420-9749BUILDING  
2704      Customer#000002704       SYbIYxJvxAvyIi,tUVPaiZ1n IRAN     6IRAN           MIDDLE EAST 20-590-107-3371HOUSEHOLD 
2712      Customer#000002712       COPEEWos                 MOROCCO  1MOROCCO        AFRICA      25-106-400-5707BUILDING  
2720      Customer#000002720       f7xruiKMkcFNOh rST       VIETNAM  0VIETNAM        ASIA        31-180-330-6622BUILDING  
2728      Customer#000002728       OaZqwjm4XaJFUp rt0       IRAN     2IRAN           MIDDLE EAST 20-291-762-4996BUILDING  
2736      Customer#000002736       DDbRBuEmEuS0zVYXzP0      CHINA    4CHINA          ASIA        28-745-539-9970BUILDING  
2744      Customer#000002744       XLXMbsMlcF               UNITED KI3UNITED KINGDOM EUROPE      33-664-911-4555FURNITURE 
2752      Customer#000002752       Qd6rFKEmYMylC7CHw6G      JORDAN   2JORDAN         MIDDLE EAST 23-326-859-6384BUILDING  
2760      Customer#000002760       rBp4g8qSuOUdGDJ7gcIWu    MOZAMBIQU4MOZAMBIQUE     AFRICA      26-465-570-6441AUTOMOBILE
2768      Customer#000002768       XVEnYbtP1fffnRBzTwgei9   ETHIOPIA 2ETHIOPIA       AFRICA      15-572-279-8866FURNITURE 
2776      Customer#000002776       VRs7y3XlGizn8ePS         CHINA    5CHINA          ASIA        28-168-442-7602BUILDING  
2784      Customer#000002784       nTEX2Mydq6JW             EGYPT    3EGYPT          MIDDLE EAST 14-525-477-3223MACHINERY 
2792      Customer#000002792       3DTZGu,p8fJSBxDTwM       SAUDI ARA8SAUDI ARABIA   MIDDLE EAST 30-578-800-1305MACHINERY 
2800      Customer#000002800       1AdqNKdO                 UNITED KI2UNITED KINGDOM EUROPE      33-117-162-4156BUILDING  
2808      Customer#000002808       cHFy H7STbC50j1Q0YW uzx  PERU     9PERU           AMERICA     27-634-911-8647HOUSEHOLD 
2816      Customer#000002816       e6HOu9,h1oa,oqTybM       INDIA    9INDIA          ASIA        18-204-140-9509HOUSEHOLD 
2824      Customer#000002824       cba6RI YpbeRITeNMSfgdsJ  MOROCCO  3MOROCCO        AFRICA      25-295-789-7692MACHINERY 
2832      Customer#000002832       pbS7wyddGLiXrq           GERMANY  2GERMANY        EUROPE      17-842-219-2705AUTOMOBILE
2840      Customer#000002840       tMgOVI                   FRANCE   2FRANCE         EUROPE      16-772-462-4886HOUSEHOLD 
2848      Customer#000002848       LOFt3L2Tk v              INDONESIA0INDONESIA      ASIA        19-639-390-7635BUILDING  
2856      Customer#000002856       gOqAtR 5xdmUc,G3k jyW    ARGENTINA4ARGENTINA      AMERICA     11-843-938-4204HOUSEHOLD 
2864      Customer#000002864       j9OUJxUd                 GERMANY  9GERMANY        EUROPE      17-851-622-6497HOUSEHOLD 
2872      Customer#000002872       MqbHTTFxFpb              INDONESIA0INDONESIA      ASIA        19-262-932-6868AUTOMOBILE
2880      Customer#000002880       epturjt6Ur               VIETNAM  7VIETNAM        ASIA        31-204-360-7194MACHINERY 
2888      Customer#000002888       FTPRswl9V187             ROMANIA  4ROMANIA        EUROPE      29-116-809-9673AUTOMOBILE
2896      Customer#000002896       scb0AHlJWgY              JAPAN    2JAPAN          ASIA        22-682-143-8257AUTOMOBILE
2904      Customer#000002904       kw2qBpHL70Til4RLrfPGR    BRAZIL   9BRAZIL         AMERICA     12-506-679-1009FURNITURE 
2912      Customer#000002912       rT8P695n8B764AtFhvmL     CHINA    1CHINA          ASIA        28-858-313-6072HOUSEHOLD 
2920      Customer#000002920       KxsCHTluPFGU1cVi,f7I     CHINA    6CHINA          ASIA        28-945-354-8544FURNITURE 
2928      Customer#000002928       KvvSEf26LGC7P0           EGYPT    7EGYPT          MIDDLE EAST 14-680-984-2643MACHINERY 
2936      Customer#000002936       cwpD8JYh1EUb             JAPAN    9JAPAN          ASIA        22-840-465-4990HOUSEHOLD 
2944      Customer#000002944       u8Iq0RW82Ai              IRAQ     7IRAQ           MIDDLE EAST 21-404-430-7372MACHINERY 
2952      Customer#000002952       LazbhUvo0                JORDAN   7JORDAN         MIDDLE EAST 23-903-685-8734AUTOMOBILE
2960      Customer#000002960       dTK1ikXc49c              IRAN     5IRAN           MIDDLE EAST 20-346-991-7917HOUSEHOLD 
2968      Customer#000002968       zOI5l0hT,feMPgg          ARGENTINA4ARGENTINA      AMERICA     11-348-646-9456HOUSEHOLD 
2976      Customer#000002976       MpTCPeTOclKcKbnCOQnbw    ETHIOPIA 9ETHIOPIA       AFRICA      15-241-581-3017BUILDING  
2984      Customer#000002984       VPVS6RNnU6M              INDIA    8INDIA          ASIA        18-136-910-1869BUILDING  
2992      Customer#000002992       7hzqreVwzpnwlnYkKygWa    INDIA    0INDIA          ASIA        18-447-260-6978MACHINERY 
3000      Customer#000003000       1V2vZd                   EGYPT    7EGYPT          MIDDLE EAST 14-581-600-6823FURNITURE 
3008      Customer#000003008       ZseWyQumgKYd             ETHIOPIA 1ETHIOPIA       AFRICA      15-135-315-4223HOUSEHOLD 
3016      Customer#000003016       WEvzZ02Vdrf,v2xD         IRAN     6IRAN           MIDDLE EAST 20-237-421-8716MACHINERY 
3024      Customer#000003024       SrUZX2,0tEGP             INDONESIA8INDONESIA      ASIA        19-371-317-7667MACHINERY 
3032      Customer#000003032       w7CjmFbv5TnNI            UNITED ST5UNITED STATES  AMERICA     34-819-746-8012AUTOMOBILE
3040      Customer#000003040       qGsHVFF8vJGnUsN7         SAUDI ARA1SAUDI ARABIA   MIDDLE EAST 30-627-927-1708HOUSEHOLD 
3048      Customer#000003048       AtBWB8HwMIc0x, CkQOzE    UNITED ST5UNITED STATES  AMERICA     34-318-785-2934BUILDING  
3056      Customer#000003056       NQ6a5L jax,Umqpf0kQovf6o JORDAN   9JORDAN         MIDDLE EAST 23-407-648-2583BUILDING  
3064      Customer#000003064       zIJHw82Vu2o10q           PERU     1PERU           AMERICA     27-209-659-3573MACHINERY 
3072      Customer#000003072       p CZ7kJ39dzqOL5SAZdjmK4L JAPAN    3JAPAN          ASIA        22-840-757-8547AUTOMOBILE
3080      Customer#000003080       3PPkcPleUL               ARGENTINA4ARGENTINA      AMERICA     11-484-295-5238HOUSEHOLD 
3088      Customer#000003088       0duNz81CprOgnlyW0        ARGENTINA7ARGENTINA      AMERICA     11-194-114-3999AUTOMOBILE
3096      Customer#000003096       ErjeZmD,gud VQ0ngSBeov   FRANCE   1FRANCE         EUROPE      16-662-598-5666FURNITURE 
3104      Customer#000003104       Ae6KydnrcZej             JORDAN   4JORDAN         MIDDLE EAST 23-549-129-8281AUTOMOBILE
3112      Customer#000003112       VqfRPuuybg               JAPAN    1JAPAN          ASIA        22-766-910-8316BUILDING  
3120      Customer#000003120       24lNL1alULlFRyvVFy0V4p   MOZAMBIQU2MOZAMBIQUE     AFRICA      26-642-601-4569BUILDING  
3128      Customer#000003128       nLntyrGr9fW              VIETNAM  5VIETNAM        ASIA        31-904-946-8087HOUSEHOLD 
3136      Customer#000003136       wbfUhWxj1e7zIKTpPuy      JAPAN    2JAPAN          ASIA        22-750-528-8886HOUSEHOLD 
3144      Customer#000003144       Sm1i9Yhmyrov             CHINA    5CHINA          ASIA        28-864-249-1953BUILDING  
3152      Customer#000003152       Fb Vwx,IOO7q2Oif4jYoL    ALGERIA  2ALGERIA        AFRICA      10-818-923-4585BUILDING  
3160      Customer#000003160       2lWe4j2cZ                SAUDI ARA6SAUDI ARABIA   MIDDLE EAST 30-429-783-1462BUILDING  
3168      Customer#000003168       F1 C,PWJAJZ              ETHIOPIA 7ETHIOPIA       AFRICA      15-386-764-5419HOUSEHOLD 
3176      Customer#000003176       QL1IBqVXEVAObWuIQk       PERU     1PERU           AMERICA     27-440-949-2162MACHINERY 
3184      Customer#000003184       yrEhWKLVmnZ              UNITED KI7UNITED KINGDOM EUROPE      33-847-151-4577AUTOMOBILE
3192      Customer#000003192       fIEa1XUxektuNEOm         VIETNAM  9VIETNAM        ASIA        31-177-329-3259BUILDING  
3200      Customer#000003200       v,cDM75MGPLmNAh          PERU     0PERU           AMERICA     27-264-251-9770BUILDING  
3208      Customer#000003208       0fiXQoPwoF,qnibYBG44WuZ  CHINA    2CHINA          ASIA        28-398-149-5856AUTOMOBILE
3216      Customer#000003216       WSUljmbbhtSOce           EGYPT    1EGYPT          MIDDLE EAST 14-724-743-9756HOUSEHOLD 
3224      Customer#000003224       aedSLK                   CHINA    5CHINA          ASIA        28-705-447-8508MACHINERY 
3232      Customer#000003232       EQv8tanXwyj3yb           KENYA    9KENYA          AFRICA      24-300-237-8925FURNITURE 
3240      Customer#000003240       Fe8Bjws,V19ojGF          PERU     3PERU           AMERICA     27-320-388-8945BUILDING  
3248      Customer#000003248       po5w0Za6                 CANADA   3CANADA         AMERICA     13-355-104-3605MACHINERY 
3256      Customer#000003256       g4Wnasklog4wB6Bk5        JORDAN   8JORDAN         MIDDLE EAST 23-427-144-5841HOUSEHOLD 
3264      Customer#000003264       HH0prq8k650              INDONESIA7INDONESIA      ASIA        19-494-552-6230HOUSEHOLD 
3272      Customer#000003272       iu,zgFCCMr               JORDAN   1JORDAN         MIDDLE EAST 23-216-229-9511MACHINERY 
3280      Customer#000003280       HVMjhJlCpxh SEd          EGYPT    7EGYPT          MIDDLE EAST 14-870-947-4315MACHINERY 
3288      Customer#000003288       4w7xPAvNT WQ1kYtjS       FRANCE   1FRANCE         EUROPE      16-871-200-7686MACHINERY 
3296      Customer#000003296       YfF9i7Z1RBFHs,R8S        JAPAN    7JAPAN          ASIA        22-216-362-7478FURNITURE 
3304      Customer#000003304       hSil64rIc2mQpHnJh6       MOROCCO  2MOROCCO        AFRICA      25-483-499-7620FURNITURE 
3312      Customer#000003312       ytl66X                   ALGERIA  1ALGERIA        AFRICA      10-147-915-8133HOUSEHOLD 
3320      Customer#000003320       yFqoDhmm2 0hLV           CANADA   9CANADA         AMERICA     13-446-761-1766BUILDING  
3328      Customer#000003328       wTG9jw,                  CANADA   6CANADA         AMERICA     13-208-581-6201BUILDING  
3336      Customer#000003336       edsvh8ThDnLB             MOROCCO  6MOROCCO        AFRICA      25-845-720-9483FURNITURE 
3344      Customer#000003344       7bOmbhKDogGSiNQgDpUFumoU RUSSIA   6RUSSIA         EUROPE      32-944-815-3475AUTOMOBILE
3352      Customer#000003352       m4Nyqhtfa XubxYvpEe      CHINA    6CHINA          ASIA        28-686-390-3518AUTOMOBILE
3360      Customer#000003360       NxHVESw                  BRAZIL   8BRAZIL         AMERICA     12-444-449-3348BUILDING  
3368      Customer#000003368       SdCDmFhCi3               FRANCE   8FRANCE         EUROPE      16-338-198-8886HOUSEHOLD 
3376      Customer#000003376       kLcPuPcw1uHy1Ksb5UY057U  BRAZIL   5BRAZIL         AMERICA     12-884-564-3000HOUSEHOLD 
3384      Customer#000003384       zIbpank irql             JAPAN    9JAPAN          ASIA        22-400-265-7689AUTOMOBILE
3392      Customer#000003392       8c0iNKHKKlYjbnIXh rxS xk ETHIOPIA 7ETHIOPIA       AFRICA      15-934-683-2513FURNITURE 
3400      Customer#000003400       wfid9NDw                 MOZAMBIQU0MOZAMBIQUE     AFRICA      26-104-900-5844MACHINERY 
3408      Customer#000003408       gZdReCOif0               GERMANY  9GERMANY        EUROPE      17-669-723-3361HOUSEHOLD 
3416      Customer#000003416       8QgmgPyGt6Ff1            FRANCE   0FRANCE         EUROPE      16-389-665-2522FURNITURE 
3424      Customer#000003424       AXGoD7DLXFNnN5V          ETHIOPIA 0ETHIOPIA       AFRICA      15-887-464-1315MACHINERY 
3432      Customer#000003432       7irKQenLAUpgx,EN         ALGERIA  4ALGERIA        AFRICA      10-752-770-6084MACHINERY 
3440      Customer#000003440       DjMGGI3oxOy1NP           INDONESIA2INDONESIA      ASIA        19-846-262-4470FURNITURE 
3448      Customer#000003448       NsOCxagaTrH l            GERMANY  8GERMANY        EUROPE      17-242-859-1968AUTOMOBILE
3456      Customer#000003456       TR qdm455ZuESQ           UNITED ST6UNITED STATES  AMERICA     34-545-405-7624HOUSEHOLD 
3464      Customer#000003464       CtzADsU                  CHINA    3CHINA          ASIA        28-133-720-1784MACHINERY 
3472      Customer#000003472       Ioqu7utbz3ZMzmbuxj       ETHIOPIA 1ETHIOPIA       AFRICA      15-580-794-7488AUTOMOBILE
3480      Customer#000003480       ftnN7PqXIWV4AluimFWPhV0  FRANCE   3FRANCE         EUROPE      16-960-753-7717HOUSEHOLD 
3488      Customer#000003488       On7uCMvUx                ALGERIA  0ALGERIA        AFRICA      10-771-762-3357BUILDING  
3496      Customer#000003496       9 eYiNnMWcqvo            BRAZIL   2BRAZIL         AMERICA     12-315-543-6322BUILDING  
3504      Customer#000003504       ,4zHwbXLKiSf             JORDAN   1JORDAN         MIDDLE EAST 23-875-173-4737BUILDING  
3512      Customer#000003512        IkRQPL6UcRZVuDnza       UNITED KI7UNITED KINGDOM EUROPE      33-387-736-7637BUILDING  
3520      Customer#000003520       bn0pLHE4JRubt7YoIJ,      ETHIOPIA 0ETHIOPIA       AFRICA      15-795-627-9075FURNITURE 
3528      Customer#000003528       ueNRZXAQ, bTXiTBY0MT     IRAQ     9IRAQ           MIDDLE EAST 21-167-894-4523FURNITURE 
3536      Customer#000003536       9EdjiKsIzO               JORDAN   7JORDAN         MIDDLE EAST 23-391-675-1798AUTOMOBILE
3544      Customer#000003544       oBS5T7lXbdJQ7gW0REV6B1w  INDONESIA9INDONESIA      ASIA        19-201-274-9420MACHINERY 
3552      Customer#000003552       MYQMxSg                  RUSSIA   5RUSSIA         EUROPE      32-489-294-3631HOUSEHOLD 
3560      Customer#000003560       CDBM1Pm                  SAUDI ARA2SAUDI ARABIA   MIDDLE EAST 30-335-671-3616AUTOMOBILE
3568      Customer#000003568       fAgGjVCuf5OS             EGYPT    8EGYPT          MIDDLE EAST 14-178-933-2723HOUSEHOLD 
3576      Customer#000003576       A3SIx8D9liTG4jLWutOwFkw  MOZAMBIQU4MOZAMBIQUE     AFRICA      26-669-635-8833AUTOMOBILE
3584      Customer#000003584       VcdiSbZQ8e7hmlP2F        BRAZIL   0BRAZIL         AMERICA     12-937-219-5336AUTOMOBILE
3592      Customer#000003592       kQZAH5HvnF               ARGENTINA0ARGENTINA      AMERICA     11-957-475-3961BUILDING  
3600      Customer#000003600       Sjqp29ijcvTNYrnV         MOROCCO  7MOROCCO        AFRICA      25-971-250-2058BUILDING  
3608      Customer#000003608       8 RbsqC7BHKM             JORDAN   8JORDAN         MIDDLE EAST 23-861-487-6616MACHINERY 
3616      Customer#000003616       T57vKgjn,iqNZ,YL5C1I2mk0 PERU     0PERU           AMERICA     27-717-348-5199BUILDING  
3624      Customer#000003624       4OCpSwagyE7DN2yP82       MOROCCO  6MOROCCO        AFRICA      25-532-382-9009FURNITURE 
3632      Customer#000003632       5jioTrRfIMQbqtxEcn7      ARGENTINA2ARGENTINA      AMERICA     11-499-971-7584MACHINERY 
3640      Customer#000003640       05MTjdAkww1QNX7          INDIA    6INDIA          ASIA        18-220-770-6188BUILDING  
3648      Customer#000003648       DSX6z7JNqRkpDYQjW        CHINA    4CHINA          ASIA        28-848-560-3490BUILDING  
3656      Customer#000003656       4vBnqf6BWGZzJhKvcCqoocX  EGYPT    7EGYPT          MIDDLE EAST 14-503-320-7780HOUSEHOLD 
3664      Customer#000003664       wG2HNU1GObFP             INDONESIA8INDONESIA      ASIA        19-792-519-8220MACHINERY 
3672      Customer#000003672       qC5OlZ2H7rPoX,,H,nbM     SAUDI ARA5SAUDI ARABIA   MIDDLE EAST 30-449-917-2611AUTOMOBILE
3680      Customer#000003680       1TJwCosS                 IRAN     7IRAN           MIDDLE EAST 20-534-451-6887BUILDING  
3688      Customer#000003688       k44Hy4 7wx               INDIA    6INDIA          ASIA        18-611-788-5342BUILDING  
3696      Customer#000003696       rB0DjrxDQK0lu IU9qo5v    VIETNAM  7VIETNAM        ASIA        31-334-285-4773MACHINERY 
3704      Customer#000003704       4JDAFe                   JORDAN   3JORDAN         MIDDLE EAST 23-205-751-3828BUILDING  
3712      Customer#000003712       QZh3LAK9CIQSHK4K5SLa     MOROCCO  2MOROCCO        AFRICA      25-442-148-5166MACHINERY 
3720      Customer#000003720       8EnZsJDINZg2uJSNBw       MOROCCO  9MOROCCO        AFRICA      25-614-201-2362BUILDING  
3728      Customer#000003728       DoKuAZUFIGbv             FRANCE   4FRANCE         EUROPE      16-372-740-9002FURNITURE 
3736      Customer#000003736       okJXy2KC                 UNITED KI4UNITED KINGDOM EUROPE      33-461-667-8153BUILDING  
3744      Customer#000003744       DV9Vucn,1VM0wBwt3D       ALGERIA  7ALGERIA        AFRICA      10-997-714-7251BUILDING  
3752      Customer#000003752       0iMSg1qFJAr3j            ROMANIA  6ROMANIA        EUROPE      29-295-591-9393BUILDING  
3760      Customer#000003760       wymZTNKWgZWK0Vg2b        VIETNAM  7VIETNAM        ASIA        31-322-281-5886FURNITURE 
3768      Customer#000003768       2g8YiPwD1OM              PERU     8PERU           AMERICA     27-365-388-5187BUILDING  
3776      Customer#000003776       wPSxLusU9fMyvcLshyKwXf   MOROCCO  5MOROCCO        AFRICA      25-772-305-4034BUILDING  
3784      Customer#000003784       RUIVHtEJHKft7ebSxc8Dz1fi IRAQ     1IRAQ           MIDDLE EAST 21-420-266-1614FURNITURE 
3792      Customer#000003792       Hrn0aK                   ETHIOPIA 4ETHIOPIA       AFRICA      15-153-634-5090BUILDING  
3800      Customer#000003800       zaSZ,0FL8lMayxKM RjfG    ETHIOPIA 6ETHIOPIA       AFRICA      15-657-459-2552HOUSEHOLD 
3808      Customer#000003808       OolE3YUuKrOS3timhJz      ARGENTINA2ARGENTINA      AMERICA     11-228-170-7184BUILDING  
3816      Customer#000003816       HlfxRo                   FRANCE   7FRANCE         EUROPE      16-226-328-4074AUTOMOBILE
3824      Customer#000003824       H5msQScIHBk89iB          EGYPT    9EGYPT          MIDDLE EAST 14-292-291-8119BUILDING  
3832      Customer#000003832       3wA6Oop                  ARGENTINA9ARGENTINA      AMERICA     11-843-701-8532HOUSEHOLD 
3840      Customer#000003840       7ZMYTyeGdDWhPivSpdv6y    UNITED KI6UNITED KINGDOM EUROPE      33-929-619-8180HOUSEHOLD 
3848      Customer#000003848       yrxjQNC4Lp0IEdvKnC       INDONESIA5INDONESIA      ASIA        19-603-696-8728HOUSEHOLD 
3856      Customer#000003856       TGGF,9WcRx               SAUDI ARA4SAUDI ARABIA   MIDDLE EAST 30-328-356-3619FURNITURE 
3864      Customer#000003864       NQi JIUDfYNi9ZlXJv       KENYA    8KENYA          AFRICA      24-578-772-9215AUTOMOBILE
3872      Customer#000003872       7QI3gCriT,ereLmW csicxL  VIETNAM  0VIETNAM        ASIA        31-933-853-3245MACHINERY 
3880      Customer#000003880       vRrzvl40CiH9K20jWkHerl   CHINA    9CHINA          ASIA        28-906-952-7389MACHINERY 
3888      Customer#000003888       PlZrZv7ig Z F5L9QhLvlcp  IRAN     3IRAN           MIDDLE EAST 20-432-723-5923AUTOMOBILE
3896      Customer#000003896       F9kXTPyMfCViHrvyVndxzS   UNITED ST5UNITED STATES  AMERICA     34-973-160-7027HOUSEHOLD 
3904      Customer#000003904       dU9XHQtcaE9nFfP4xwYXdra  FRANCE   6FRANCE         EUROPE      16-920-361-5803BUILDING  
3912      Customer#000003912       nuYw9XRGKJSvABHKXg19zB   VIETNAM  5VIETNAM        ASIA        31-308-605-9442HOUSEHOLD 
3920      Customer#000003920       pjoUv559tlu9hWnMfa       CANADA   2CANADA         AMERICA     13-612-546-1706FURNITURE 
3928      Customer#000003928       9mJ5YecRdFz00iq          ROMANIA  2ROMANIA        EUROPE      29-846-738-4459HOUSEHOLD 
3936      Customer#000003936       pCeOa6E83jsauisOQ5KR5hNB PERU     7PERU           AMERICA     27-899-591-1715BUILDING  
3944      Customer#000003944       mS6MQ7qI1                PERU     1PERU           AMERICA     27-728-393-4401FURNITURE 
3952      Customer#000003952       rfBmCB5pkvPS88 dX        CHINA    0CHINA          ASIA        28-830-513-2071BUILDING  
3960      Customer#000003960       PIs9Qss2                 ROMANIA  7ROMANIA        EUROPE      29-994-433-1540HOUSEHOLD 
3968      Customer#000003968       Wz7nfTOB20CLXtH          MOROCCO  3MOROCCO        AFRICA      25-408-765-5959MACHINERY 
3976      Customer#000003976       5aC8gS46z5jcyg3Z         ARGENTINA3ARGENTINA      AMERICA     11-449-232-2377HOUSEHOLD 
3984      Customer#000003984       kGqDg1Ly                 ETHIOPIA 4ETHIOPIA       AFRICA      15-477-510-3528AUTOMOBILE
3992      Customer#000003992       rtqNAHCz2q               JORDAN   3JORDAN         MIDDLE EAST 23-782-928-5096MACHINERY 
4000      Customer#000004000       ml8p21                   GERMANY  0GERMANY        EUROPE      17-401-575-1200FURNITURE 
4008      Customer#000004008       6V7enHBAZYGDi5,2KPw6,XB  UNITED ST6UNITED STATES  AMERICA     34-137-417-3635BUILDING  
4016      Customer#000004016       rCgt3XzsRTVix6yIXD       INDONESIA7INDONESIA      ASIA        19-956-199-3542HOUSEHOLD 
4024      Customer#000004024       ak4e5wl7f                UNITED ST0UNITED STATES  AMERICA     34-245-228-8185MACHINERY 
4032      Customer#000004032       8hvyRbQ71ry              CHINA    6CHINA          ASIA        28-979-787-6942FURNITURE 
4040      Customer#000004040       9F1EwRtuNQ               ROMANIA  0ROMANIA        EUROPE      29-916-581-7202BUILDING  
4048      Customer#000004048       B8bdKqdWBHMWV6yf0yu7     KENYA    4KENYA          AFRICA      24-602-782-5608MACHINERY 
4056      Customer#000004056       eSToBH5FXhm7VggbYqd      UNITED KI7UNITED KINGDOM EUROPE      33-581-522-7710HOUSEHOLD 
4064      Customer#000004064       tbiznH                   UNITED ST9UNITED STATES  AMERICA     34-129-762-7096FURNITURE 
4072      Customer#000004072       pY9AquznqjP,xvMDf        RUSSIA   5RUSSIA         EUROPE      32-977-537-3319MACHINERY 
4080      Customer#000004080        KMMOTY0ZkzxQK           MOROCCO  8MOROCCO        AFRICA      25-690-462-2678MACHINERY 
4088      Customer#000004088       nqywBrmQHFtt             INDONESIA7INDONESIA      ASIA        19-166-596-7883MACHINERY 
4096      Customer#000004096       hy6hFNMfbMMvns0bSi       GERMANY  5GERMANY        EUROPE      17-640-871-4803HOUSEHOLD 
4104      Customer#000004104       Ojnrnzvc6j               RUSSIA   0RUSSIA         EUROPE      32-680-840-6906BUILDING  
4112      Customer#000004112       TV8OO6KsGVL5j7DYb8BkQz   PERU     4PERU           AMERICA     27-190-964-2071AUTOMOBILE
4120      Customer#000004120       bDw2vNpi6c0KJa77MPRim    IRAN     0IRAN           MIDDLE EAST 20-522-650-5473AUTOMOBILE
4128      Customer#000004128       bRghpYKZu4               MOZAMBIQU0MOZAMBIQUE     AFRICA      26-199-439-7484AUTOMOBILE
4136      Customer#000004136       xZPkM1                   UNITED KI1UNITED KINGDOM EUROPE      33-795-683-2996MACHINERY 
4144      Customer#000004144       4752WYt                  PERU     9PERU           AMERICA     27-825-501-5949HOUSEHOLD 
4152      Customer#000004152       hSIbFjx9                 IRAN     3IRAN           MIDDLE EAST 20-448-709-7901HOUSEHOLD 
4160      Customer#000004160       dvTHEcx9B9qzBd1KXn7r     ARGENTINA3ARGENTINA      AMERICA     11-505-173-6278HOUSEHOLD 
4168      Customer#000004168       3Ero1niR2SF3fZcCu5 GzBB  ROMANIA  1ROMANIA        EUROPE      29-699-415-8594MACHINERY 
4176      Customer#000004176       NBF7rP8I5Vh0zgLMcoo9PCZV KENYA    7KENYA          AFRICA      24-943-939-3020AUTOMOBILE
4184      Customer#000004184       PQHhATOB                 IRAQ     4IRAQ           MIDDLE EAST 21-569-527-4536HOUSEHOLD 
4192      Customer#000004192       ZV7WuWGdtT               UNITED ST6UNITED STATES  AMERICA     34-870-899-9701AUTOMOBILE
4200      Customer#000004200       Vg4zT4wOP0QTB0Gf         RUSSIA   4RUSSIA         EUROPE      32-656-673-8164FURNITURE 
4208      Customer#000004208       xFL,kUCG4PZdRrU14c       VIETNAM  2VIETNAM        ASIA        31-964-387-5016BUILDING  
4216      Customer#000004216       17WG6JuGKTaOf3           ETHIOPIA 0ETHIOPIA       AFRICA      15-223-501-6737HOUSEHOLD 
4224      Customer#000004224       MAkFs4r65JofFpY0vEzt2    ARGENTINA8ARGENTINA      AMERICA     11-866-761-3677MACHINERY 
4232      Customer#000004232       n3rRmBTdVI3u8kjaa9Xbjt8  ETHIOPIA 9ETHIOPIA       AFRICA      15-649-832-2923AUTOMOBILE
4240      Customer#000004240       0IPc9AFj                 RUSSIA   2RUSSIA         EUROPE      32-654-276-2514BUILDING  
4248      Customer#000004248       kK8dnwp,MVwk,,tt         INDONESIA7INDONESIA      ASIA        19-485-415-9214MACHINERY 
4256      Customer#000004256       jd696T1cYZ,m             CHINA    9CHINA          ASIA        28-130-361-3364HOUSEHOLD 
4264      Customer#000004264       cyxxme                   EGYPT    7EGYPT          MIDDLE EAST 14-657-978-8148HOUSEHOLD 
4272      Customer#000004272       Dx7sQqRcXFEVy            SAUDI ARA0SAUDI ARABIA   MIDDLE EAST 30-731-296-3032MACHINERY 
4280      Customer#000004280       IC D6sxND8               KENYA    0KENYA          AFRICA      24-902-931-9791MACHINERY 
4288      Customer#000004288       YUNeP2                   UNITED ST7UNITED STATES  AMERICA     34-478-800-4671HOUSEHOLD 
4296      Customer#000004296       l LKQuJhWgq ZGZSx8Xe aLz IRAN     5IRAN           MIDDLE EAST 20-927-928-4918FURNITURE 
4304      Customer#000004304       e,d2SR                   ETHIOPIA 8ETHIOPIA       AFRICA      15-371-517-6908HOUSEHOLD 
4312      Customer#000004312       43ChGDxiAtu5UzG3s8 u     GERMANY  7GERMANY        EUROPE      17-425-710-8719BUILDING  
4320      Customer#000004320       newgLJpqZYUVn7hgGBqC     ETHIOPIA 4ETHIOPIA       AFRICA      15-192-132-1417MACHINERY 
4328      Customer#000004328       KqFpaHZgip62WDbX6vB      VIETNAM  2VIETNAM        ASIA        31-141-534-9359BUILDING  
4336      Customer#000004336       ,q 2sk9                  RUSSIA   7RUSSIA         EUROPE      32-428-698-2103MACHINERY 
4344      Customer#000004344       Q1BXMbACBvXAf m          INDIA    1INDIA          ASIA        18-678-621-6899AUTOMOBILE
4352      Customer#000004352       bks7MbRPs                KENYA    1KENYA          AFRICA      24-786-135-4994BUILDING  
4360      Customer#000004360       f9tnViOxB                JAPAN    9JAPAN          ASIA        22-248-964-5656AUTOMOBILE
4368      Customer#000004368       kph MiNbkHiEZyDS         BRAZIL   9BRAZIL         AMERICA     12-583-724-9374MACHINERY 
4376      Customer#000004376       8kmqV7NX                 ROMANIA  1ROMANIA        EUROPE      29-884-661-8630AUTOMOBILE
4384      Customer#000004384       H3p7o,5m5YrtYH6C Q,8     ETHIOPIA 0ETHIOPIA       AFRICA      15-894-497-3152AUTOMOBILE
4392      Customer#000004392       gPwR5arQz                IRAN     1IRAN           MIDDLE EAST 20-104-393-3437HOUSEHOLD 
4400      Customer#000004400       nhVdg,cz1QTtB3F7         ROMANIA  1ROMANIA        EUROPE      29-607-524-9700AUTOMOBILE
4408      Customer#000004408       S7l7QcB2Xn87UdohPXgDnDZi ARGENTINA1ARGENTINA      AMERICA     11-283-996-6512MACHINERY 
4416      Customer#000004416       5SrYADcsvDaHRAoXx2Y      VIETNAM  8VIETNAM        ASIA        31-572-508-6929BUILDING  
4424      Customer#000004424       ZJopLN                   FRANCE   5FRANCE         EUROPE      16-529-109-4986AUTOMOBILE
4432      Customer#000004432       9W2VvFRSl4VhJZblDs       FRANCE   6FRANCE         EUROPE      16-699-351-6339BUILDING  
4440      Customer#000004440       ywaDlvBxvB y0MwSrO4Bl    RUSSIA   9RUSSIA         EUROPE      32-306-649-9090BUILDING  
4448      Customer#000004448       1eKNJk59ee4xgOzBCpRErWE  CANADA   0CANADA         AMERICA     13-983-779-4962HOUSEHOLD 
4456      Customer#000004456       J GxwaDPU                VIETNAM  9VIETNAM        ASIA        31-148-803-8452BUILDING  
4464      Customer#000004464       VtXsGUXebZHlm3Tx5pvS     UNITED ST3UNITED STATES  AMERICA     34-652-483-7782FURNITURE 
4472      Customer#000004472       6kh IzaMZfx75xHR,Q6z     SAUDI ARA4SAUDI ARABIA   MIDDLE EAST 30-978-574-7109BUILDING  
4480      Customer#000004480       NXV1ZsFKvFEKJtRr w       VIETNAM  9VIETNAM        ASIA        31-114-387-5858HOUSEHOLD 
4488      Customer#000004488       yXPKlKF                  SAUDI ARA4SAUDI ARABIA   MIDDLE EAST 30-653-776-4218HOUSEHOLD 
4496      Customer#000004496       uOhROnNyYNZnkV,          EGYPT    6EGYPT          MIDDLE EAST 14-706-879-9493FURNITURE 
4504      Customer#000004504       UFTbI9                   EGYPT    8EGYPT          MIDDLE EAST 14-365-774-1875FURNITURE 
4512      Customer#000004512       vLFX7VEw0dsip,0wNP98DWQ5 JORDAN   0JORDAN         MIDDLE EAST 23-854-370-8799BUILDING  
4520      Customer#000004520       2xAfi3O15Wsb2rAfH6p      JAPAN    7JAPAN          ASIA        22-583-862-4821MACHINERY 
4528      Customer#000004528       GqIGHAFRzaWHADdlfP4uVayN MOZAMBIQU9MOZAMBIQUE     AFRICA      26-152-961-1326AUTOMOBILE
4536      Customer#000004536       tOzi2M2                  MOROCCO  7MOROCCO        AFRICA      25-844-843-6517HOUSEHOLD 
4544      Customer#000004544       AZzIJ5363,7kiE5g,q       VIETNAM  1VIETNAM        ASIA        31-467-880-1675HOUSEHOLD 
4552      Customer#000004552       Xl 92oYTBuPxVSRZ         JORDAN   9JORDAN         MIDDLE EAST 23-364-844-6162MACHINERY 
4560      Customer#000004560       KfO4hovCI3Yrut0xFVzXL    ALGERIA  4ALGERIA        AFRICA      10-593-833-9865MACHINERY 
4568      Customer#000004568        izIcJ2ueeWnqOU          JAPAN    0JAPAN          ASIA        22-388-690-2782HOUSEHOLD 
4576      Customer#000004576       rm EVv1X8VA Ca1mHNtbl    IRAQ     7IRAQ           MIDDLE EAST 21-709-781-6811AUTOMOBILE
4584      Customer#000004584       fcZ8Z2LX3BI B6nyhKW6m,w  JAPAN    0JAPAN          ASIA        22-798-544-5091AUTOMOBILE
4592      Customer#000004592       kQuWiKV0u27bX2o0668HXYe  IRAQ     1IRAQ           MIDDLE EAST 21-640-872-1310HOUSEHOLD 
4600      Customer#000004600       dRp3iFMCT                IRAN     8IRAN           MIDDLE EAST 20-984-543-6409MACHINERY 
4608      Customer#000004608       AVQsZo7Fi8mY             UNITED KI5UNITED KINGDOM EUROPE      33-713-849-3271AUTOMOBILE
4616      Customer#000004616       i7sWK0CWjy6PY            CANADA   1CANADA         AMERICA     13-344-545-2316HOUSEHOLD 
4624      Customer#000004624       rVYz4ebQn1L5hdpnIU2      RUSSIA   8RUSSIA         EUROPE      32-180-408-9843MACHINERY 
4632      Customer#000004632       1FvpMFei8u7N5GhfIDW      ALGERIA  9ALGERIA        AFRICA      10-879-754-6890MACHINERY 
4640      Customer#000004640       DvOaN0                   UNITED KI5UNITED KINGDOM EUROPE      33-508-208-5442MACHINERY 
4648      Customer#000004648       L2PZxGdYkR40f            JAPAN    6JAPAN          ASIA        22-966-659-9810MACHINERY 
4656      Customer#000004656        h8rSmOWpQG0DC           ARGENTINA9ARGENTINA      AMERICA     11-195-795-3716HOUSEHOLD 
4664      Customer#000004664       h3WzDZ                   JAPAN    2JAPAN          ASIA        22-170-166-9517MACHINERY 
4672      Customer#000004672       1EXcZDZ                  CANADA   2CANADA         AMERICA     13-862-225-4236BUILDING  
4680      Customer#000004680       UGNxa2oy5LAkk6ZmUA2IxpQI ROMANIA  1ROMANIA        EUROPE      29-573-536-8644FURNITURE 
4688      Customer#000004688       Cigy6A63 d               ROMANIA  6ROMANIA        EUROPE      29-561-316-1619MACHINERY 
4696      Customer#000004696       1KYA4sN                  PERU     0PERU           AMERICA     27-264-816-1379FURNITURE 
4704      Customer#000004704       wkLkapMltgqSp09J         EGYPT    3EGYPT          MIDDLE EAST 14-154-767-4182MACHINERY 
4712      Customer#000004712       cx3WE2E,ojq              BRAZIL   8BRAZIL         AMERICA     12-152-405-3121MACHINERY 
4720      Customer#000004720       W6Au4yNTyVyOt            CHINA    7CHINA          ASIA        28-834-309-4662FURNITURE 
4728      Customer#000004728       uWXFvFYxB8XJ4            UNITED ST0UNITED STATES  AMERICA     34-971-119-1082FURNITURE 
4736      Customer#000004736       Omc9YWxPbUGW             ROMANIA  5ROMANIA        EUROPE      29-322-638-5693HOUSEHOLD 
4744      Customer#000004744       PSog N,COb6QqcydVEpGG1Oc CHINA    3CHINA          ASIA        28-909-914-8900HOUSEHOLD 
4752      Customer#000004752       2oInh l0dETJrjm          ALGERIA  8ALGERIA        AFRICA      10-331-663-2117FURNITURE 
4760      Customer#000004760       I1gu3gkI                 INDIA    5INDIA          ASIA        18-692-110-8234FURNITURE 
4768      Customer#000004768       kptyXN8wlY1              INDONESIA7INDONESIA      ASIA        19-287-633-2531MACHINERY 
4776      Customer#000004776       qF1UOIQ z                FRANCE   1FRANCE         EUROPE      16-654-367-7512AUTOMOBILE
4784      Customer#000004784       i,BKNNPOCPQrCq2YXVErCHr  CANADA   6CANADA         AMERICA     13-728-360-4037FURNITURE 
4792      Customer#000004792       6NASRXN5z05              BRAZIL   6BRAZIL         AMERICA     12-974-897-2105AUTOMOBILE
4800      Customer#000004800       kRakPeBXHs8untvP         UNITED KI9UNITED KINGDOM EUROPE      33-221-369-3568HOUSEHOLD 
4808      Customer#000004808       w6LRQpAThYn,             JORDAN   5JORDAN         MIDDLE EAST 23-268-908-7400AUTOMOBILE
4816      Customer#000004816       gSae2I8K6nyd             IRAN     0IRAN           MIDDLE EAST 20-371-948-9719BUILDING  
4824      Customer#000004824       7QiMDChT7EREnbkI6FLQ7    INDONESIA8INDONESIA      ASIA        19-696-943-6314AUTOMOBILE
4832      Customer#000004832       sFP1gmULHe               UNITED KI3UNITED KINGDOM EUROPE      33-454-895-5442MACHINERY 
4840      Customer#000004840       KrcZLxM4OsB              ETHIOPIA 6ETHIOPIA       AFRICA      15-412-926-2413AUTOMOBILE
4848      Customer#000004848       Nxa02iiGcUJzbWKLweo      ROMANIA  9ROMANIA        EUROPE      29-396-434-4789BUILDING  
4856      Customer#000004856       4o6lKgwoYdNvUINeD        GERMANY  1GERMANY        EUROPE      17-746-546-4925MACHINERY 
4864      Customer#000004864       Xv2z4BbfAdJ0             UNITED ST6UNITED STATES  AMERICA     34-863-461-8208BUILDING  
4872      Customer#000004872       dHJwgdA                  MOROCCO  6MOROCCO        AFRICA      25-313-468-7399FURNITURE 
4880      Customer#000004880       4FsBU1LCKv9hKKimNVARPoT  CHINA    4CHINA          ASIA        28-834-323-6341BUILDING  
4888      Customer#000004888       7kYpfAmF                 UNITED KI7UNITED KINGDOM EUROPE      33-460-789-2850HOUSEHOLD 
4896      Customer#000004896       eIb3 cZeS,31IX1eTEhH5XE  ETHIOPIA 1ETHIOPIA       AFRICA      15-325-640-1097MACHINERY 
4904      Customer#000004904       Br1Re1LMMce              ARGENTINA8ARGENTINA      AMERICA     11-769-621-9336FURNITURE 
4912      Customer#000004912       woKrvHT9TIE55HQyU9H      INDONESIA5INDONESIA      ASIA        19-266-513-9052FURNITURE 
4920      Customer#000004920       1XVxyRFzXUwZ7WdurFG      GERMANY  6GERMANY        EUROPE      17-490-219-5104HOUSEHOLD 
4928      Customer#000004928       KOzLK1n bUDUnUcye        EGYPT    4EGYPT          MIDDLE EAST 14-434-570-7270HOUSEHOLD 
4936      Customer#000004936       FKuApvHM                 RUSSIA   9RUSSIA         EUROPE      32-852-806-1247MACHINERY 
4944      Customer#000004944       4ExHg6Q                  MOROCCO  7MOROCCO        AFRICA      25-333-964-2496BUILDING  
4952      Customer#000004952       qS4SiXHJuY6ToVg4fMqlN8   CHINA    5CHINA          ASIA        28-363-866-2029AUTOMOBILE
4960      Customer#000004960       HQPRaO8                  EGYPT    7EGYPT          MIDDLE EAST 14-984-776-2477FURNITURE 
4968      Customer#000004968       pE4L5KHfkjZeGBERdCzGGNx  UNITED ST8UNITED STATES  AMERICA     34-624-591-8667FURNITURE 
4976      Customer#000004976       8drHZVEhs4S0gwtt         ROMANIA  9ROMANIA        EUROPE      29-688-913-4907BUILDING  
4984      Customer#000004984       ddKw7KpLcBqdOVv2A4ua     VIETNAM  7VIETNAM        ASIA        31-872-930-2146BUILDING  
4992      Customer#000004992       IV5BgbuUr                GERMANY  2GERMANY        EUROPE      17-656-403-4383HOUSEHOLD 
5000      Customer#000005000       CXtMnfjmK,C7l9G,C        INDIA    7INDIA          ASIA        18-741-698-6977FURNITURE 
5008      Customer#000005008       KbHvVnoYbo2G4            KENYA    3KENYA          AFRICA      24-405-434-3949MACHINERY 
5016      Customer#000005016       VmmQq6do2LW1my0tCe7Wmz   IRAN     5IRAN           MIDDLE EAST 20-969-968-3289HOUSEHOLD 
5024      Customer#000005024       Cemu1wzkv8               SAUDI ARA0SAUDI ARABIA   MIDDLE EAST 30-296-182-3160FURNITURE 
5032      Customer#000005032       cHZ3K w54ZZ9F2           UNITED KI3UNITED KINGDOM EUROPE      33-531-478-4400MACHINERY 
5040      Customer#000005040       27mTtWkdRSWYJAXZ97hp     UNITED ST0UNITED STATES  AMERICA     34-189-783-5812AUTOMOBILE
5048      Customer#000005048       nn3Ta2HEW56aD0PMhLMgGR   EGYPT    5EGYPT          MIDDLE EAST 14-402-210-7135HOUSEHOLD 
5056      Customer#000005056       QZVLmqT5h9g0svCuS4OL6823 MOROCCO  6MOROCCO        AFRICA      25-526-985-8953BUILDING  
5064      Customer#000005064       SzXyOGz                  MOZAMBIQU4MOZAMBIQUE     AFRICA      26-180-608-8128BUILDING  
5072      Customer#000005072       Oyi,O9zI                 KENYA    0KENYA          AFRICA      24-416-925-2778MACHINERY 
5080      Customer#000005080       skdoxg6Mhsa7t            PERU     3PERU           AMERICA     27-158-552-6780BUILDING  
5088      Customer#000005088       2d2hg,yDpE2              MOROCCO  2MOROCCO        AFRICA      25-515-328-4888BUILDING  
5096      Customer#000005096       j v58 3M qamteIAQ        UNITED KI4UNITED KINGDOM EUROPE      33-487-427-8776FURNITURE 
5104      Customer#000005104       c 2STGXH                 MOROCCO  1MOROCCO        AFRICA      25-819-775-8274AUTOMOBILE
5112      Customer#000005112       5QAtZVLlUcdzq            UNITED KI7UNITED KINGDOM EUROPE      33-920-468-1014MACHINERY 
5120      Customer#000005120       MQkI9b KWtPZ28PlMX       BRAZIL   8BRAZIL         AMERICA     12-930-783-5854MACHINERY 
5128      Customer#000005128       eGmAlxiJA4fuZuegcN       FRANCE   9FRANCE         EUROPE      16-816-717-2819FURNITURE 
5136      Customer#000005136       2HvtZ4ZzHOdOZpW          ALGERIA  1ALGERIA        AFRICA      10-139-530-2027MACHINERY 
5144      Customer#000005144       2W4tY05FSu2,5bFtUFg7ZRh  ETHIOPIA 4ETHIOPIA       AFRICA      15-380-643-4615FURNITURE 
5152      Customer#000005152       sSvgQ24nw,V x8bU         IRAQ     1IRAQ           MIDDLE EAST 21-989-720-2303BUILDING  
5160      Customer#000005160       DOkE068Ym YBne8LFPpQe    MOZAMBIQU1MOZAMBIQUE     AFRICA      26-266-478-2809FURNITURE 
5168      Customer#000005168       o5iumsc0vFDt,G           IRAQ     7IRAQ           MIDDLE EAST 21-300-344-8928HOUSEHOLD 
5176      Customer#000005176       ovu4oI50z,               IRAN     1IRAN           MIDDLE EAST 20-804-452-4348AUTOMOBILE
5184      Customer#000005184       VYKhBhiCb,HHIU2u         CANADA   8CANADA         AMERICA     13-201-793-4804MACHINERY 
5192      Customer#000005192       5mkfl1wJCEIT             ETHIOPIA 4ETHIOPIA       AFRICA      15-797-836-4155BUILDING  
5200      Customer#000005200       X9VwIm258t kCyP8v64J59n  VIETNAM  3VIETNAM        ASIA        31-429-781-6910AUTOMOBILE
5208      Customer#000005208       kleWHLcXLPdVSgwPFkaK9    MOZAMBIQU6MOZAMBIQUE     AFRICA      26-195-346-4102MACHINERY 
5216      Customer#000005216       j320nuu                  INDIA    8INDIA          ASIA        18-257-777-6239MACHINERY 
5224      Customer#000005224       wuvpXPq0paIv,XHnWt65Tob  UNITED ST5UNITED STATES  AMERICA     34-184-859-9410AUTOMOBILE
5232      Customer#000005232       vw2oBlTvVNFPZ            UNITED KI9UNITED KINGDOM EUROPE      33-879-262-9870AUTOMOBILE
5240      Customer#000005240       L D6Icf89E8B9isjNSl      UNITED KI7UNITED KINGDOM EUROPE      33-521-981-6818HOUSEHOLD 
5248      Customer#000005248       yzdFWQHI                 SAUDI ARA5SAUDI ARABIA   MIDDLE EAST 30-375-275-9614MACHINERY 
5256      Customer#000005256       SOibK0                   INDIA    5INDIA          ASIA        18-817-241-3968FURNITURE 
5264      Customer#000005264       F4WUnmv28HluN5           FRANCE   3FRANCE         EUROPE      16-843-153-8334BUILDING  
5272      Customer#000005272       72lgqyGp3R1mPcShb,5      IRAQ     9IRAQ           MIDDLE EAST 21-970-653-8616HOUSEHOLD 
5280      Customer#000005280       gVdDMZuUs                UNITED KI9UNITED KINGDOM EUROPE      33-269-742-7210HOUSEHOLD 
5288      Customer#000005288       VVT2nl1PMSDt6kVJCdIP     BRAZIL   1BRAZIL         AMERICA     12-925-511-7954AUTOMOBILE
5296      Customer#000005296       U88HH89mdTB0PMT3E5hx     SAUDI ARA0SAUDI ARABIA   MIDDLE EAST 30-259-328-5796BUILDING  
5304      Customer#000005304       wkHOPz8WWNf1,AmUMp8      UNITED KI7UNITED KINGDOM EUROPE      33-363-643-1758HOUSEHOLD 
5312      Customer#000005312       bScHiLcGAl               CANADA   6CANADA         AMERICA     13-193-427-4460HOUSEHOLD 
5320      Customer#000005320       vglqSiGr                 EGYPT    4EGYPT          MIDDLE EAST 14-146-796-8237MACHINERY 
5328      Customer#000005328       8izM6bVDDZC              PERU     0PERU           AMERICA     27-921-771-7598HOUSEHOLD 
5336      Customer#000005336       I8al,4wO                 CHINA    4CHINA          ASIA        28-848-343-4466AUTOMOBILE
5344      Customer#000005344       2HrSLTu58I7qHnBpHU       RUSSIA   7RUSSIA         EUROPE      32-385-673-7283MACHINERY 
5352      Customer#000005352       GN5dVlJYG3MddueY         INDONESIA8INDONESIA      ASIA        19-307-611-9547HOUSEHOLD 
5360      Customer#000005360       I9IP2WadYuS4Hdr3         MOROCCO  2MOROCCO        AFRICA      25-182-118-6785HOUSEHOLD 
5368      Customer#000005368       CDdAdlN                  EGYPT    1EGYPT          MIDDLE EAST 14-414-271-2724FURNITURE 
5376      Customer#000005376       LSwUYEmeCauWpF292c,dUy   CHINA    3CHINA          ASIA        28-261-960-8373FURNITURE 
5384      Customer#000005384       SzKBqOOLjP6ZMRMEXDX      JAPAN    9JAPAN          ASIA        22-691-983-5792MACHINERY 
5392      Customer#000005392       Ni3Mtf2Tn                ETHIOPIA 5ETHIOPIA       AFRICA      15-747-103-7223AUTOMOBILE
5400      Customer#000005400       bER6xl8QSe1usxC6zb       UNITED KI6UNITED KINGDOM EUROPE      33-345-416-7246HOUSEHOLD 
5408      Customer#000005408       8GoteXoxV6t,pmNoU        MOZAMBIQU9MOZAMBIQUE     AFRICA      26-435-494-9781FURNITURE 
5416      Customer#000005416       roHJJ2S09DZUL0           MOROCCO  0MOROCCO        AFRICA      25-371-750-6843BUILDING  
5424      Customer#000005424       d0Nb27nhTziN8neQG84uHA   CHINA    0CHINA          ASIA        28-620-589-4407HOUSEHOLD 
5432      Customer#000005432       6xLKHS30JMW,NhCXDICNP    MOZAMBIQU4MOZAMBIQUE     AFRICA      26-934-722-1713FURNITURE 
5440      Customer#000005440       hsdm EWTz4KeNW           CANADA   1CANADA         AMERICA     13-498-249-6925HOUSEHOLD 
5448      Customer#000005448       tK9xGFZb5ffzMcrEHqDSQM0  MOZAMBIQU3MOZAMBIQUE     AFRICA      26-710-442-4333MACHINERY 
5456      Customer#000005456       gi6aYDuw                 ALGERIA  7ALGERIA        AFRICA      10-288-395-6543FURNITURE 
5464      Customer#000005464       MFzBLiaOwtWNdrg3,O3      UNITED ST6UNITED STATES  AMERICA     34-580-826-4971FURNITURE 
5472      Customer#000005472       gTo1c87qH0I01Ydt,rkiF    BRAZIL   8BRAZIL         AMERICA     12-109-275-7028AUTOMOBILE
5480      Customer#000005480       hdU9,DEae,N5UexnesNdIf   MOROCCO  1MOROCCO        AFRICA      25-167-308-8423MACHINERY 
5488      Customer#000005488       KkT7DFhcoIp6L,GdBt       VIETNAM  5VIETNAM        ASIA        31-367-228-2263HOUSEHOLD 
5496      Customer#000005496       C9Gmjb5CtCopZ1hZ9RDt,    ROMANIA  8ROMANIA        EUROPE      29-299-961-8376MACHINERY 
5504      Customer#000005504       4c7lc81IiXi              VIETNAM  0VIETNAM        ASIA        31-686-510-7424FURNITURE 
5512      Customer#000005512       zHhW5c 7                 VIETNAM  5VIETNAM        ASIA        31-705-557-7671AUTOMOBILE
5520      Customer#000005520       E x25JepZp24Cjg54gSdU    GERMANY  7GERMANY        EUROPE      17-825-975-8491BUILDING  
5528      Customer#000005528       dRWWtK6kxBoHOBR4X7       PERU     4PERU           AMERICA     27-528-968-5885MACHINERY 
5536      Customer#000005536       Q5dQ,F                   INDONESIA7INDONESIA      ASIA        19-585-697-1479MACHINERY 
5544      Customer#000005544       OcP0v7u9cfQoZa,j1D5rS    UNITED ST0UNITED STATES  AMERICA     34-282-319-8622HOUSEHOLD 
5552      Customer#000005552       AKziZ3qzDWA              IRAQ     9IRAQ           MIDDLE EAST 21-638-808-5461FURNITURE 
5560      Customer#000005560       4WM8DvBcJpn8dKNPPd       MOROCCO  5MOROCCO        AFRICA      25-753-989-6308BUILDING  
5568      Customer#000005568       QJdBMt,1wFhEWF1          IRAQ     2IRAQ           MIDDLE EAST 21-673-721-7219FURNITURE 
5576      Customer#000005576       18JtwWYUWsJ5MOS          JAPAN    3JAPAN          ASIA        22-138-573-1090HOUSEHOLD 
5584      Customer#000005584       D98qWFq                  GERMANY  6GERMANY        EUROPE      17-709-992-2051AUTOMOBILE
5592      Customer#000005592       yv3ubFF9C1jTsrg,z2       UNITED ST6UNITED STATES  AMERICA     34-356-110-1069FURNITURE 
5600      Customer#000005600       vDQoik7pHTd6fShix        VIETNAM  8VIETNAM        ASIA        31-169-710-7902AUTOMOBILE
5608      Customer#000005608       uVFBUbfwfqX              JORDAN   2JORDAN         MIDDLE EAST 23-841-393-7906BUILDING  
5616      Customer#000005616       rGGmP CnDLq,liU5S        BRAZIL   6BRAZIL         AMERICA     12-948-566-9072AUTOMOBILE
5624      Customer#000005624        mKj2o                   MOROCCO  7MOROCCO        AFRICA      25-987-255-9984HOUSEHOLD 
5632      Customer#000005632       OCdCoZI                  ETHIOPIA 3ETHIOPIA       AFRICA      15-142-971-8791AUTOMOBILE
5640      Customer#000005640       DeSRiMdwx5U6Yix          CANADA   5CANADA         AMERICA     13-474-874-1504MACHINERY 
5648      Customer#000005648       j7kHJ5G7mS0p             JORDAN   3JORDAN         MIDDLE EAST 23-441-747-5129HOUSEHOLD 
5656      Customer#000005656       4KQDlyHoSnp2lRhghzeiRy   ARGENTINA4ARGENTINA      AMERICA     11-220-184-6834MACHINERY 
5664      Customer#000005664       dwjL,rQIhBHgCr           ROMANIA  1ROMANIA        EUROPE      29-436-577-8925BUILDING  
5672      Customer#000005672       TamGvxNZaLmk1Kjj,13x     EGYPT    3EGYPT          MIDDLE EAST 14-411-750-9139FURNITURE 
5680      Customer#000005680       oOMVNv5DHE               FRANCE   1FRANCE         EUROPE      16-142-256-6625BUILDING  
5688      Customer#000005688       zAJkaes4m9               INDIA    8INDIA          ASIA        18-397-720-8739HOUSEHOLD 
5696      Customer#000005696       k2An4zkZZbD84w677MteE    MOROCCO  3MOROCCO        AFRICA      25-113-355-8232FURNITURE 
5704      Customer#000005704       2TZn1shD01ReUfcsp        IRAQ     0IRAQ           MIDDLE EAST 21-441-767-8124BUILDING  
5712      Customer#000005712       dzakX4                   ROMANIA  5ROMANIA        EUROPE      29-257-749-6234FURNITURE 
5720      Customer#000005720       ObvcxAWfhmX              JAPAN    4JAPAN          ASIA        22-598-996-1770MACHINERY 
5728      Customer#000005728       p0YGEaPJxlZm1ddh8O       JORDAN   9JORDAN         MIDDLE EAST 23-285-460-5949HOUSEHOLD 
5736      Customer#000005736       QJzbWrmukoLSeJ           UNITED ST8UNITED STATES  AMERICA     34-513-469-8926FURNITURE 
5744      Customer#000005744       fOvJazS3xTGQIZ           JAPAN    9JAPAN          ASIA        22-608-292-7512MACHINERY 
5752      Customer#000005752       2KaipOB31N6WZpO          VIETNAM  9VIETNAM        ASIA        31-148-979-1301FURNITURE 
5760      Customer#000005760       jFi0PZax Tzg73Z2g        MOZAMBIQU3MOZAMBIQUE     AFRICA      26-479-570-1556MACHINERY 
5768      Customer#000005768       4mrfOZmXlo8vLt           MOROCCO  6MOROCCO        AFRICA      25-866-429-7410HOUSEHOLD 
5776      Customer#000005776       e7FHI,7dCFx5GCtAmPz      MOROCCO  4MOROCCO        AFRICA      25-310-741-9019MACHINERY 
5784      Customer#000005784       t9E0zdzLQYczFwLz4Z5      EGYPT    2EGYPT          MIDDLE EAST 14-160-175-7954MACHINERY 
5792      Customer#000005792       bwWGtkyXmWoAkO6,8vy      BRAZIL   7BRAZIL         AMERICA     12-145-993-8632FURNITURE 
5800      Customer#000005800       Sc76d6n0d0uyHpn0         FRANCE   1FRANCE         EUROPE      16-842-452-4436BUILDING  
5808      Customer#000005808       0Z3Pt DbZi E7x74UM       ARGENTINA1ARGENTINA      AMERICA     11-768-434-9108MACHINERY 
5816      Customer#000005816       rC92 NBcGLKMpWvzDgJDic   JAPAN    9JAPAN          ASIA        22-356-202-7280BUILDING  
5824      Customer#000005824       uzViVicReY02hU5          CHINA    1CHINA          ASIA        28-405-287-1978HOUSEHOLD 
5832      Customer#000005832       O LQ0wbdCAoa6Rq6lb       JAPAN    1JAPAN          ASIA        22-711-493-7263FURNITURE 
5840      Customer#000005840       AYJS2QZDdVs4b5kFSRtqBEgP ARGENTINA8ARGENTINA      AMERICA     11-704-158-5641BUILDING  
5848      Customer#000005848       3ExVMENvo0bCC4xYRsZ32ixc IRAN     5IRAN           MIDDLE EAST 20-439-585-1168BUILDING  
5856      Customer#000005856       xFSytrUX7LU0b9TkA        GERMANY  0GERMANY        EUROPE      17-703-351-4592HOUSEHOLD 
5864      Customer#000005864       dR82bYvexuv7DBCRG4Mg1h   INDIA    6INDIA          ASIA        18-984-514-4562AUTOMOBILE
5872      Customer#000005872       v7, dtR4WGcdQRBsjne9     CHINA    9CHINA          ASIA        28-743-685-3627FURNITURE 
5880      Customer#000005880       dhirIQ6zqoNOiUzPlrVqCZW  SAUDI ARA6SAUDI ARABIA   MIDDLE EAST 30-840-160-1483FURNITURE 
5888      Customer#000005888       6Io,2c2BLjz27            MOZAMBIQU8MOZAMBIQUE     AFRICA      26-356-891-6021HOUSEHOLD 
5896      Customer#000005896       vRbrzhc                  JAPAN    2JAPAN          ASIA        22-905-789-9117AUTOMOBILE
5904      Customer#000005904       8jUp5Gxbmjj4PHAlwhtry    JAPAN    7JAPAN          ASIA        22-703-659-9001BUILDING  
5912      Customer#000005912       vfM0L6Qo3qPHtIKZBwicIU   BRAZIL   4BRAZIL         AMERICA     12-794-751-3059AUTOMOBILE
5920      Customer#000005920       B7IkL0H k                ROMANIA  1ROMANIA        EUROPE      29-248-244-9646BUILDING  
5928      Customer#000005928       dsmA ou5Dcf7FQ           EGYPT    1EGYPT          MIDDLE EAST 14-715-354-4208AUTOMOBILE
5936      Customer#000005936       jX952gvQQn4duMVr7RN      JAPAN    3JAPAN          ASIA        22-567-622-7416MACHINERY 
5944      Customer#000005944       ctxnQdxQiP               UNITED ST5UNITED STATES  AMERICA     34-242-131-7480HOUSEHOLD 
5952      Customer#000005952       N1otxPNVgE37Q,pTmck9Eo7U CHINA    4CHINA          ASIA        28-515-969-3309BUILDING  
5960      Customer#000005960       gSLhlOKURGMgRRu          BRAZIL   0BRAZIL         AMERICA     12-258-342-8046HOUSEHOLD 
5968      Customer#000005968       kFLk0 CQ                 RUSSIA   3RUSSIA         EUROPE      32-825-942-4475HOUSEHOLD 
5976      Customer#000005976       3v6GlHN                  MOROCCO  1MOROCCO        AFRICA      25-113-798-8371MACHINERY 
5984      Customer#000005984       ybMUxGc8y9u0Rmx74N0RNQkr IRAN     1IRAN           MIDDLE EAST 20-593-468-6913HOUSEHOLD 
5992      Customer#000005992       4fAd,QxmI7PMbSmjV4RQt    UNITED KI7UNITED KINGDOM EUROPE      33-101-336-4143MACHINERY 
6000      Customer#000006000       0CnFBJU,t0IscT5T         MOZAMBIQU3MOZAMBIQUE     AFRICA      26-949-265-7149FURNITURE 
6008      Customer#000006008       S1yv Nmjxkhb2yQU7sEX ,   BRAZIL   8BRAZIL         AMERICA     12-357-146-7382FURNITURE 
6016      Customer#000006016       Of93IVKgMkn              RUSSIA   9RUSSIA         EUROPE      32-933-725-8120BUILDING  
6024      Customer#000006024       LZ80EMXjRz7JUL           CANADA   6CANADA         AMERICA     13-879-114-4704AUTOMOBILE
6032      Customer#000006032       U9Y1LGOI                 UNITED ST2UNITED STATES  AMERICA     34-335-342-6381AUTOMOBILE
6040      Customer#000006040       al9P9X5hZsq4GVzXa        CHINA    3CHINA          ASIA        28-473-872-7010BUILDING  
6048      Customer#000006048       DNtLkGdov3MnFfAGa40      UNITED ST2UNITED STATES  AMERICA     34-564-720-6902AUTOMOBILE
6056      Customer#000006056       nyg076                   BRAZIL   6BRAZIL         AMERICA     12-753-477-6094AUTOMOBILE
6064      Customer#000006064       ,izgs4ldAZy              SAUDI ARA9SAUDI ARABIA   MIDDLE EAST 30-345-284-2631AUTOMOBILE
6072      Customer#000006072       dJTs qvHOtIuFD           MOZAMBIQU7MOZAMBIQUE     AFRICA      26-901-644-4400MACHINERY 
6080      Customer#000006080       TO8wL2kHE7DAZ            BRAZIL   9BRAZIL         AMERICA     12-552-344-7257FURNITURE 
6088      Customer#000006088       yxbYU1ogtMNgiSU          UNITED ST2UNITED STATES  AMERICA     34-300-601-9636MACHINERY 
6096      Customer#000006096       wy UjJzsFOKGCM           ARGENTINA1ARGENTINA      AMERICA     11-140-763-4072HOUSEHOLD 
6104      Customer#000006104       jcKuAbr5WFuVxd2x         MOROCCO  0MOROCCO        AFRICA      25-295-733-7524MACHINERY 
6112      Customer#000006112       wPzFnLHJ E               UNITED ST7UNITED STATES  AMERICA     34-782-265-3322HOUSEHOLD 
6120      Customer#000006120       ZTjNH4Si5g9pTr           FRANCE   5FRANCE         EUROPE      16-823-186-6775HOUSEHOLD 
6128      Customer#000006128       c88JZp1so3               MOZAMBIQU3MOZAMBIQUE     AFRICA      26-430-597-9532FURNITURE 
6136      Customer#000006136       pDoECZ7k3Aw              ROMANIA  3ROMANIA        EUROPE      29-266-663-1327BUILDING  
6144      Customer#000006144       zPKzjSPczgTN9Yb3yb       ARGENTINA7ARGENTINA      AMERICA     11-896-884-2536FURNITURE 
6152      Customer#000006152       Bqxwa70bCy,M             ROMANIA  3ROMANIA        EUROPE      29-849-554-3243MACHINERY 
6160      Customer#000006160       NrxXWav6Lihu             JORDAN   5JORDAN         MIDDLE EAST 23-657-749-9858FURNITURE 
6168      Customer#000006168       TfeEEZ9Ds8x3eQljQUYaNzp  UNITED ST7UNITED STATES  AMERICA     34-332-976-1122MACHINERY 
6176      Customer#000006176       kXM67uO                  UNITED ST5UNITED STATES  AMERICA     34-317-632-3998FURNITURE 
6184      Customer#000006184       dkynJLYBPBCkx 1paCFtwx   ROMANIA  0ROMANIA        EUROPE      29-661-116-4875MACHINERY 
6192      Customer#000006192       oI8CXoK1w9P              ALGERIA  2ALGERIA        AFRICA      10-612-247-3681BUILDING  
6200      Customer#000006200       oGCR8cSGI,r              CANADA   1CANADA         AMERICA     13-850-677-7449FURNITURE 
6208      Customer#000006208       m,PxS2pByk43Rf           CHINA    2CHINA          ASIA        28-144-702-8017FURNITURE 
6216      Customer#000006216       bGTXGAHg72BE             ALGERIA  3ALGERIA        AFRICA      10-713-588-5714MACHINERY 
6224      Customer#000006224       LFoSAlF,JOEn4g           ETHIOPIA 8ETHIOPIA       AFRICA      15-440-249-4812FURNITURE 
6232      Customer#000006232       T0JFOylAp                CHINA    6CHINA          ASIA        28-683-899-5888HOUSEHOLD 
6240      Customer#000006240       kxWW41iCbmQJFT3GxGtmHak  INDIA    8INDIA          ASIA        18-429-949-2505BUILDING  
6248      Customer#000006248       F3NgALjt9q               IRAN     1IRAN           MIDDLE EAST 20-111-995-1222AUTOMOBILE
6256      Customer#000006256       ,fpJxiGODuy,Eq           UNITED KI3UNITED KINGDOM EUROPE      33-954-611-2718FURNITURE 
6264      Customer#000006264       pV82CJ4rNyOc             PERU     9PERU           AMERICA     27-270-150-9706AUTOMOBILE
6272      Customer#000006272       HnzXtYtwH8J              BRAZIL   0BRAZIL         AMERICA     12-648-587-7646FURNITURE 
6280      Customer#000006280       eA0MCPdIfSK06GY JDS,G    ROMANIA  2ROMANIA        EUROPE      29-371-698-8946AUTOMOBILE
6288      Customer#000006288       iN4rgnOJ5RH8M5r6fvF      IRAQ     7IRAQ           MIDDLE EAST 21-189-780-7465HOUSEHOLD 
6296      Customer#000006296       igCv4BEwY9,7             VIETNAM  6VIETNAM        ASIA        31-239-920-8247BUILDING  
6304      Customer#000006304       Zg6sBmlhMs9              JORDAN   1JORDAN         MIDDLE EAST 23-753-366-1309FURNITURE 
6312      Customer#000006312       QMhVQC0PiraO8oEHoMJ14b   EGYPT    8EGYPT          MIDDLE EAST 14-282-305-7529AUTOMOBILE
6320      Customer#000006320       utTqGM30xwZPpmVURyoh7jWE CANADA   9CANADA         AMERICA     13-873-809-1675MACHINERY 
6328      Customer#000006328       wibapP1                  UNITED KI9UNITED KINGDOM EUROPE      33-935-225-2077FURNITURE 
6336      Customer#000006336       IZ8GS3783y5 K6zMxFP,wa9  KENYA    7KENYA          AFRICA      24-266-114-8275MACHINERY 
6344      Customer#000006344       ad,0JVklm5JfxVGyc LkIojM GERMANY  6GERMANY        EUROPE      17-208-177-7716AUTOMOBILE
6352      Customer#000006352       RoiheUBTOtjUEm  L2       UNITED KI4UNITED KINGDOM EUROPE      33-347-461-7560MACHINERY 
6360      Customer#000006360       WYPts48L0tn7iuLS58C      JORDAN   6JORDAN         MIDDLE EAST 23-113-802-7703AUTOMOBILE
6368      Customer#000006368       9wlLx9qDuskAA5Lg3        GERMANY  6GERMANY        EUROPE      17-885-867-2839HOUSEHOLD 
6376      Customer#000006376       9xX7j8zvAb3rY,y2N6r      FRANCE   8FRANCE         EUROPE      16-872-218-8453AUTOMOBILE
6384      Customer#000006384       eRUjfmK9XOnuIxULs,       UNITED KI6UNITED KINGDOM EUROPE      33-332-440-2688FURNITURE 
6392      Customer#000006392        Nn14Ugte47JXBLpdJj4NA   FRANCE   0FRANCE         EUROPE      16-941-616-3783FURNITURE 
6400      Customer#000006400       B7M0M7FZy06iyPxs V       JORDAN   0JORDAN         MIDDLE EAST 23-338-541-8299AUTOMOBILE
6408      Customer#000006408       oa9bZUw3jw               INDONESIA8INDONESIA      ASIA        19-940-511-4780AUTOMOBILE
6416      Customer#000006416       WGVJj9TyQ5ac3qL7RH       BRAZIL   3BRAZIL         AMERICA     12-275-804-2353FURNITURE 
6424      Customer#000006424       ieZS lxnQBTqJO8BO        FRANCE   7FRANCE         EUROPE      16-213-111-3627MACHINERY 
6432      Customer#000006432       4PGhIJsN8,               RUSSIA   4RUSSIA         EUROPE      32-216-978-9861HOUSEHOLD 
6440      Customer#000006440       EhPeQVf4268eEE81yT7L     RUSSIA   8RUSSIA         EUROPE      32-947-120-6124MACHINERY 
6448      Customer#000006448       13Wg2FUg2Ffki TBsY517Ztb ALGERIA  8ALGERIA        AFRICA      10-149-434-7181MACHINERY 
6456      Customer#000006456       XF8NeB                   UNITED KI9UNITED KINGDOM EUROPE      33-953-908-1986FURNITURE 
6464      Customer#000006464       eF9E6ScHCw9,z8nF0py9 ySl ARGENTINA2ARGENTINA      AMERICA     11-663-345-2078FURNITURE 
6472      Customer#000006472       sLyBV0ZtMvAH1QSOnxg6koHG SAUDI ARA4SAUDI ARABIA   MIDDLE EAST 30-279-700-6782HOUSEHOLD 
6480      Customer#000006480       jZCx1qKm                 KENYA    3KENYA          AFRICA      24-517-703-9411BUILDING  
6488      Customer#000006488       fEUg4BCUhNIcaNVKNdkadz2N INDIA    4INDIA          ASIA        18-260-454-9204MACHINERY 
6496      Customer#000006496       tdAcewkJ,9IL7tYdP6x      KENYA    2KENYA          AFRICA      24-527-900-7381BUILDING  
6504      Customer#000006504       ,XoJJFtPqo6Hk7G          INDIA    6INDIA          ASIA        18-408-721-5229HOUSEHOLD 
