6         Customer#000000006       sKZz0CsnMD7mp4Xd0YrBvx   SAUDI ARA0SAUDI ARABIA   MIDDLE EAST 30-964-673-7626AUTOMOBILE
14        Customer#000000014       KXkletMlL                ARGENTINA6ARGENTINA      AMERICA     11-509-147-3657FURNITURE 
22        Customer#000000022       QI6p41,FNs5k7RZoC        CANADA   1CANADA         AMERICA     13-295-535-4919MACHINERY 
30        Customer#000000030       nJDsELGAavU63Jl0c5NKsKfL ARGENTINA9ARGENTINA      AMERICA     11-191-350-1871BUILDING  
38        Customer#000000038       a5Ee5e9568R8             JAPAN    4JAPAN          ASIA        22-763-782-5792HOUSEHOLD 
46        Customer#000000046       eaTXWWm                  FRANCE   8FRANCE         EUROPE      16-378-801-9863AUTOMOBILE
54        Customer#000000054       ,k4vf 5vECGW             EGYPT    1EGYPT          MIDDLE EAST 14-610-866-6425AUTOMOBILE
62        Customer#000000062       upJK2Dn                  GERMANY  0GERMANY        EUROPE      17-249-945-2645MACHINERY 
70        Customer#000000070       mFowIuhnHjp2GjCiYYav     RUSSIA   1RUSSIA         EUROPE      32-140-531-3495FURNITURE 
78        Customer#000000078       HBOta,ZNqpg3U2cSL        INDONESIA4INDONESIA      ASIA        19-963-692-1764FURNITURE 
86        Customer#000000086       US6EGGHXbTTXPL9          ALGERIA  6ALGERIA        AFRICA      10-940-871-7670HOUSEHOLD 
94        Customer#000000094       IfVNIN9KtkScJ9dUjK3P     INDONESIA5INDONESIA      ASIA        19-440-572-9844HOUSEHOLD 
102       Customer#000000102       UAtflJ06 fn9zBfKj        ROMANIA  4ROMANIA        EUROPE      29-355-538-5092BUILDING  
110       Customer#000000110       mymPfgpha                IRAN     0IRAN           MIDDLE EAST 20-168-153-4719AUTOMOBILE
118       Customer#000000118       OVnFuHygK9               CHINA    9CHINA          ASIA        28-372-709-3047AUTOMOBILE
126       Customer#000000126       ha4EHmbx3kg DYCsP6DFeU   RUSSIA   0RUSSIA         EUROPE      32-141-637-2571HOUSEHOLD 
134       Customer#000000134       sUiZ78QCkTQPICKp         IRAQ     9IRAQ           MIDDLE EAST 21-821-478-3230BUILDING  
142       Customer#000000142       AnJ5lxtLjioClr2kh        INDONESIA9INDONESIA      ASIA        19-422-667-7553AUTOMOBILE
150       Customer#000000150       zeoGShTjCwGPplOWFkLURrh  CHINA    5CHINA          ASIA        28-820-564-8326MACHINERY 
158       Customer#000000158       2HaYxi0J1620aoI1         IRAN     9IRAN           MIDDLE EAST 20-853-117-9878AUTOMOBILE
166       Customer#000000166       15HWGtwoP77EJfd95HxtM    IRAN     2IRAN           MIDDLE EAST 20-710-602-5799FURNITURE 
174       Customer#000000174       R5 fCPMSeDX              UNITED KI3UNITED KINGDOM EUROPE      33-781-154-3916FURNITURE 
182       Customer#000000182       tdwvgepG316C             CANADA   8CANADA         AMERICA     13-171-531-6334AUTOMOBILE
190       Customer#000000190       F2X,GhSqLz8k u0gWsirsraF IRAQ     4IRAQ           MIDDLE EAST 21-547-395-8341AUTOMOBILE
198       Customer#000000198       ,7fcZHIUn,fU             ARGENTINA0ARGENTINA      AMERICA     11-897-937-3584AUTOMOBILE
206       Customer#000000206       xsg,ehRHS5OKqyBR         INDONESIA7INDONESIA      ASIA        19-745-229-3606AUTOMOBILE
214       Customer#000000214       MpCwhcLrbcIM7Ae          INDIA    9INDIA          ASIA        18-972-163-6702MACHINERY 
222       Customer#000000222       gAPkFjwxX1Zq 2Yq6 FIfLd  ARGENTINA3ARGENTINA      AMERICA     11-312-619-8975BUILDING  
230       Customer#000000230       CnR8xt3MYqI              VIETNAM  3VIETNAM        ASIA        31-204-159-4287MACHINERY 
238       Customer#000000238       tE0lVKK3tz5AG2 Hal2      MOZAMBIQU5MOZAMBIQUE     AFRICA      26-267-681-4917HOUSEHOLD 
246       Customer#000000246       WrRUR0ds6iypmopww9y9t    MOROCCO  8MOROCCO        AFRICA      25-502-915-6600AUTOMOBILE
254       Customer#000000254       vQ,pEzMQaFgJ             ARGENTINA1ARGENTINA      AMERICA     11-916-541-4522MACHINERY 
262       Customer#000000262       DcUOAFBxMu8oGKv          EGYPT    8EGYPT          MIDDLE EAST 14-999-808-6101AUTOMOBILE
270       Customer#000000270       ,rdHVwNKX                GERMANY  9GERMANY        EUROPE      17-434-473-9911AUTOMOBILE
278       Customer#000000278       4jqLjG 2a                SAUDI ARA7SAUDI ARABIA   MIDDLE EAST 30-325-436-5491BUILDING  
286       Customer#000000286       7 7uVDrpkW               RUSSIA   6RUSSIA         EUROPE      32-758-118-5879HOUSEHOLD 
294       Customer#000000294       hSaNqI1P2IyEFHY          CHINA    9CHINA          ASIA        28-576-197-5836BUILDING  
302       Customer#000000302       cJ3cHoAjAiaxT            EGYPT    8EGYPT          MIDDLE EAST 14-190-147-5297MACHINERY 
310       Customer#000000310       QZnc5mkLIPh6JGrzcHmR     ARGENTINA2ARGENTINA      AMERICA     11-627-442-8345FURNITURE 
318       Customer#000000318       PtJQn0IjYtShb1f2uYTYB    ALGERIA  3ALGERIA        AFRICA      10-989-900-3997HOUSEHOLD 
326       Customer#000000326       nWDOTh6X019pfBtV3ikACYZ  BRAZIL   0BRAZIL         AMERICA     12-314-686-3969HOUSEHOLD 
334       Customer#000000334       OPN1N7t4aQ               EGYPT    3EGYPT          MIDDLE EAST 14-591-825-5982BUILDING  
342       Customer#000000342       SpDDdUfraEAf             CHINA    7CHINA          ASIA        28-416-814-7550AUTOMOBILE
350       Customer#000000350       G vBMGVmIOHl7tc          MOROCCO  3MOROCCO        AFRICA      25-864-527-2219BUILDING  
358       Customer#000000358       F  z jplpUKWz1Hn7        ETHIOPIA 7ETHIOPIA       AFRICA      15-401-440-7454MACHINERY 
366       Customer#000000366       pPQektSfn55AC7s9SRFk     CANADA   0CANADA         AMERICA     13-455-353-6189MACHINERY 
374       Customer#000000374       fg4eklU1,                RUSSIA   2RUSSIA         EUROPE      32-418-763-8395AUTOMOBILE
382       Customer#000000382       UdgAMamK5JnSykA,ZPfR     INDIA    9INDIA          ASIA        18-354-975-3415AUTOMOBILE
390       Customer#000000390       Nsc3VZZnVsw0m            EGYPT    3EGYPT          MIDDLE EAST 14-333-557-3196HOUSEHOLD 
398       Customer#000000398       cq9NmtIT4b6JB8L79        MOROCCO  2MOROCCO        AFRICA      25-851-905-5653HOUSEHOLD 
406       Customer#000000406       j1fOG9WsIr2JI            INDONESIA2INDONESIA      ASIA        19-984-320-3315FURNITURE 
414       Customer#000000414       i49DWI61AFb              ROMANIA  0ROMANIA        EUROPE      29-635-499-1470AUTOMOBILE
422       Customer#000000422       AyNzZBvmIDo42JtjP9xzaK3p INDONESIA2INDONESIA      ASIA        19-915-909-7576HOUSEHOLD 
430       Customer#000000430       s2yfPEGGOqHfgkVSs5       CANADA   7CANADA         AMERICA     13-240-729-1481BUILDING  
438       Customer#000000438       eqo9A9oaE2               UNITED KI6UNITED KINGDOM EUROPE      33-930-787-6598MACHINERY 
446       Customer#000000446       mJOJwYfch izLCu          UNITED ST1UNITED STATES  AMERICA     34-300-792-1782FURNITURE 
454       Customer#000000454       d9oQCm3onNsFlIo          GERMANY  1GERMANY        EUROPE      17-309-690-7188AUTOMOBILE
462       Customer#000000462       MSqsCvNEkowp7Fn          VIETNAM  2VIETNAM        ASIA        31-619-667-5846HOUSEHOLD 
470       Customer#000000470       v9 gWSuP4WrOjNJRg        SAUDI ARA5SAUDI ARABIA   MIDDLE EAST 30-906-136-2713HOUSEHOLD 
478       Customer#000000478       clyq458DIkXXt4qLyHl      ARGENTINA2ARGENTINA      AMERICA     11-395-609-3016BUILDING  
486       Customer#000000486       2cXXa6MS                 VIETNAM  4VIETNAM        ASIA        31-591-814-8571AUTOMOBILE
494       Customer#000000494       GKgTjHFlQrDZWcketSq      IRAN     7IRAN           MIDDLE EAST 20-168-934-6462FURNITURE 
502       Customer#000000502       nouAF6kednGsWEh          IRAQ     6IRAQ           MIDDLE EAST 21-690-303-9071HOUSEHOLD 
510       Customer#000000510       r6f34uxtNID YBuAXpO94BKy ETHIOPIA 7ETHIOPIA       AFRICA      15-168-654-3998HOUSEHOLD 
518       Customer#000000518       EsCrt4chk,3IRIzwM        PERU     7PERU           AMERICA     27-868-784-7142BUILDING  
526       Customer#000000526       0oAVPhh1I4Jdr            ARGENTINA0ARGENTINA      AMERICA     11-128-849-7744HOUSEHOLD 
534       Customer#000000534       3PI4ZATXq8yaHFt,sZOQc    ARGENTINA2ARGENTINA      AMERICA     11-738-150-2620AUTOMOBILE
542       Customer#000000542       XU2ffxnW3TQasrfF0u2K     MOZAMBIQU7MOZAMBIQUE     AFRICA      26-135-441-1372BUILDING  
550       Customer#000000550       q5 gKwc7P                PERU     1PERU           AMERICA     27-278-607-5748FURNITURE 
558       Customer#000000558       PB1ZV4kQ                 PERU     6PERU           AMERICA     27-894-662-9643HOUSEHOLD 
566       Customer#000000566       5NmdMIwTpF8tj7O9236      UNITED ST7UNITED STATES  AMERICA     34-422-945-4152FURNITURE 
574       Customer#000000574       ratVLdm                  INDIA    4INDIA          ASIA        18-947-405-2087FURNITURE 
582       Customer#000000582       KqH6uOztVK55zDxLA9       CANADA   0CANADA         AMERICA     13-426-240-2016MACHINERY 
590       Customer#000000590       4sHhhAZWHYRxJVz0KRg      INDIA    6INDIA          ASIA        18-821-388-3922MACHINERY 
598       Customer#000000598       9ICLFW                   INDONESIA9INDONESIA      ASIA        19-292-101-3307FURNITURE 
606       Customer#000000606       vBIUd7LjRJ5rZXSzITHIvpZw ARGENTINA7ARGENTINA      AMERICA     11-204-686-9247AUTOMOBILE
614       Customer#000000614       YKweqHJ                  CHINA    6CHINA          ASIA        28-313-915-4629FURNITURE 
622       Customer#000000622       qdRHTTnVf9O2iFMG1sD      JORDAN   7JORDAN         MIDDLE EAST 23-403-791-7695FURNITURE 
630       Customer#000000630       XAw3WrAa mt0DnOuycb1     UNITED ST5UNITED STATES  AMERICA     34-687-131-4106HOUSEHOLD 
638       Customer#000000638       yyRRorZ HHzU1yJwNJwF72d  UNITED ST1UNITED STATES  AMERICA     34-654-873-5070HOUSEHOLD 
646       Customer#000000646       gogI8kweD 2H6U,01lbIp0   BRAZIL   0BRAZIL         AMERICA     12-525-741-4606HOUSEHOLD 
654       Customer#000000654       Ip,OhnmOeHu9PezZBvw7AHJ  MOZAMBIQU3MOZAMBIQUE     AFRICA      26-803-778-2679AUTOMOBILE
662       Customer#000000662       ss AgOrB5VFubLk b        ALGERIA  0ALGERIA        AFRICA      10-863-252-2100BUILDING  
670       Customer#000000670       RJtcLv                   BRAZIL   1BRAZIL         AMERICA     12-233-788-2316BUILDING  
678       Customer#000000678       BiQyhSp oiDp,,MFVxyrOw   INDONESIA9INDONESIA      ASIA        19-955-348-9196AUTOMOBILE
686       Customer#000000686       1j C80VWHe               FRANCE   9FRANCE         EUROPE      16-746-590-4599HOUSEHOLD 
694       Customer#000000694       3ToF2HqyF9mEcP1QgW NMN,  IRAN     4IRAN           MIDDLE EAST 20-531-328-7817BUILDING  
702       Customer#000000702       BDKtDAva8rBuCWXT6j       CANADA   1CANADA         AMERICA     13-900-787-2120FURNITURE 
710       Customer#000000710       OCLSZuXw1AEK NLvlofMk    RUSSIA   2RUSSIA         EUROPE      32-756-443-1244FURNITURE 
718       Customer#000000718       w,GXCSSI4N               SAUDI ARA8SAUDI ARABIA   MIDDLE EAST 30-972-761-4866HOUSEHOLD 
726       Customer#000000726       4w7DOLtN9H               CANADA   6CANADA         AMERICA     13-286-993-9514BUILDING  
734       Customer#000000734       xULRxhbfz                CHINA    2CHINA          ASIA        28-822-713-1980AUTOMOBILE
742       Customer#000000742       2qRObRkFktME6SsNV0Pa3L8  JAPAN    3JAPAN          ASIA        22-129-898-9829HOUSEHOLD 
750       Customer#000000750       5OyNRajjgjjbaXtI         INDIA    9INDIA          ASIA        18-285-441-3754BUILDING  
758       Customer#000000758       8fJLXfS5Zup0GQ3          PERU     5PERU           AMERICA     27-795-438-6490HOUSEHOLD 
766       Customer#000000766       zGTH6uW                  MOZAMBIQU0MOZAMBIQUE     AFRICA      26-838-163-3870BUILDING  
774       Customer#000000774       95 O8gd08tdtmJw          IRAQ     1IRAQ           MIDDLE EAST 21-558-848-6102HOUSEHOLD 
782       Customer#000000782       HFuyemzqz                ROMANIA  7ROMANIA        EUROPE      29-999-778-8647AUTOMOBILE
790       Customer#000000790       CR bzm                   ALGERIA  8ALGERIA        AFRICA      10-646-422-7890BUILDING  
798       Customer#000000798       wW2OgnHj6dBz t           EGYPT    2EGYPT          MIDDLE EAST 14-869-421-9526HOUSEHOLD 
806       Customer#000000806       FTM62Dujm2B              JAPAN    2JAPAN          ASIA        22-796-222-5554FURNITURE 
814       Customer#000000814       KmMC1nd5iOXTRl           MOROCCO  2MOROCCO        AFRICA      25-345-611-6197BUILDING  
822       Customer#000000822       ZoRr18ZiDTtkRduo6PO60gN  JORDAN   0JORDAN         MIDDLE EAST 23-258-404-4195BUILDING  
830       Customer#000000830       4fNmWCmf                 UNITED KI0UNITED KINGDOM EUROPE      33-247-492-6211AUTOMOBILE
838       Customer#000000838       BxDlz44b56               ETHIOPIA 9ETHIOPIA       AFRICA      15-123-582-4797AUTOMOBILE
846       Customer#000000846       EWQcGkx0CU5ZGUNcTV9      CHINA    5CHINA          ASIA        28-579-416-7611MACHINERY 
854       Customer#000000854       flSR,SlEXwxrDcm3ued      ALGERIA  1ALGERIA        AFRICA      10-850-907-2318AUTOMOBILE
862       Customer#000000862       zkaZ,iOp8t9MBK9T,JIPGL   BRAZIL   2BRAZIL         AMERICA     12-173-299-8850MACHINERY 
870       Customer#000000870       6wGPZX1SbXLG             BRAZIL   5BRAZIL         AMERICA     12-162-127-9131BUILDING  
878       Customer#000000878       hUCH2juGwk4OtThyY8       MOROCCO  8MOROCCO        AFRICA      25-951-477-3713FURNITURE 
886       Customer#000000886       QOTGbGPJjNPD7I           JAPAN    2JAPAN          ASIA        22-682-640-8347AUTOMOBILE
894       Customer#000000894       5y7m8Ts                  MOZAMBIQU1MOZAMBIQUE     AFRICA      26-527-377-1339AUTOMOBILE
902       Customer#000000902       A1hnMyYPSkXf             EGYPT    8EGYPT          MIDDLE EAST 14-860-980-7675AUTOMOBILE
910       Customer#000000910       Qg8TJTCT                 INDONESIA7INDONESIA      ASIA        19-629-730-8957BUILDING  
918       Customer#000000918       WSptkDd                  ROMANIA  0ROMANIA        EUROPE      29-705-712-8451MACHINERY 
926       Customer#000000926        3b8K2YhfbGDJOpSAUr      MOZAMBIQU8MOZAMBIQUE     AFRICA      26-668-263-8832AUTOMOBILE
934       Customer#000000934       UMAFCPYfCxn LhawyoEY     JAPAN    9JAPAN          ASIA        22-413-613-2323AUTOMOBILE
942       Customer#000000942       y0OKxFyfXeYuklJDY9RwujlN CHINA    0CHINA          ASIA        28-854-352-7916HOUSEHOLD 
950       Customer#000000950       mi3o6cp47mo8Miqh9d R1X   MOROCCO  5MOROCCO        AFRICA      25-589-371-9191FURNITURE 
958       Customer#000000958       OrOUBBV7NlzVFXtuS        ETHIOPIA 8ETHIOPIA       AFRICA      15-745-217-6864FURNITURE 
966       Customer#000000966       V9c8SR8W                 INDIA    6INDIA          ASIA        18-931-627-6257MACHINERY 
974       Customer#000000974       7RcY6fOjTMbbOnVaFV,,6Dk  SAUDI ARA2SAUDI ARABIA   MIDDLE EAST 30-907-641-9511HOUSEHOLD 
982       Customer#000000982       EN9aD5X                  UNITED KI2UNITED KINGDOM EUROPE      33-897-945-7911FURNITURE 
990       Customer#000000990       uF idg4bq8Ij7gh          ALGERIA  2ALGERIA        AFRICA      10-192-497-6735BUILDING  
998       Customer#000000998       fHRMFCGphazw9Kv          PERU     2PERU           AMERICA     27-185-450-5714MACHINERY 
1006      Customer#000001006       Q46palcsa4               JAPAN    0JAPAN          ASIA        22-888-297-6373BUILDING  
1014      Customer#000001014       ZsiaboMOOV,a             IRAQ     9IRAQ           MIDDLE EAST 21-491-955-6600AUTOMOBILE
1022      Customer#000001022       lP,9H6e6mQw              INDIA    3INDIA          ASIA        18-192-712-8326AUTOMOBILE
1030      Customer#000001030       Xpt1BiB                  INDIA    5INDIA          ASIA        18-887-371-5400HOUSEHOLD 
1038      Customer#000001038       yQCza56pNgcF9sxDR        PERU     8PERU           AMERICA     27-964-777-2164AUTOMOBILE
1046      Customer#000001046       umgqzlyUW3AYz2           IRAN     4IRAN           MIDDLE EAST 20-510-830-5159BUILDING  
1054      Customer#000001054       Xgj6QVy2I9FVoSiIbgLf9LI  VIETNAM  9VIETNAM        ASIA        31-656-751-3913HOUSEHOLD 
1062      Customer#000001062       3OYrGEJC1                RUSSIA   7RUSSIA         EUROPE      32-507-955-5308HOUSEHOLD 
1070      Customer#000001070       m0sYmeYs5wLydSS          MOROCCO  0MOROCCO        AFRICA      25-296-751-8719FURNITURE 
1078      Customer#000001078       ZjRzAz8QbEeI             ROMANIA  9ROMANIA        EUROPE      29-692-225-8929MACHINERY 
1086      Customer#000001086       ECMZrONto2n              INDIA    6INDIA          ASIA        18-152-479-1004FURNITURE 
1094      Customer#000001094       OFz0eedTmPmXk2 3XM9      BRAZIL   5BRAZIL         AMERICA     12-173-432-7317MACHINERY 
1102      Customer#000001102       F9fxZhJJhaR0P4Rg         UNITED ST2UNITED STATES  AMERICA     34-638-694-7736HOUSEHOLD 
1110      Customer#000001110       BRnTy8RZ,1oHOg9ly8       IRAN     1IRAN           MIDDLE EAST 20-894-914-1490HOUSEHOLD 
1118      Customer#000001118       QHg,DNvEVXaYoC           IRAQ     9IRAQ           MIDDLE EAST 21-145-119-4071HOUSEHOLD 
1126      Customer#000001126       8J bzLWboPqySAWPg        INDIA    3INDIA          ASIA        18-718-495-4672AUTOMOBILE
1134      Customer#000001134       79TYt94                  INDONESIA9INDONESIA      ASIA        19-169-467-8260HOUSEHOLD 
1142      Customer#000001142       b7ytii                   MOZAMBIQU1MOZAMBIQUE     AFRICA      26-431-472-2227AUTOMOBILE
1150      Customer#000001150       fUJqzd                   VIETNAM  3VIETNAM        ASIA        31-634-779-8143MACHINERY 
1158      Customer#000001158       btAl2dQdvNV9cEzTwVRloTb  IRAN     5IRAN           MIDDLE EAST 20-181-245-4294MACHINERY 
1166      Customer#000001166       W4FAGNPKcJFebzld         PERU     7PERU           AMERICA     27-548-227-1062MACHINERY 
1174      Customer#000001174        b9zecNS,J               EGYPT    6EGYPT          MIDDLE EAST 14-226-358-4065AUTOMOBILE
1182      Customer#000001182       pLrF7F1,                 FRANCE   5FRANCE         EUROPE      16-779-179-8129AUTOMOBILE
1190      Customer#000001190       JwzW9OtxFRXDnVo5hX       MOROCCO  7MOROCCO        AFRICA      25-445-294-3652MACHINERY 
1198      Customer#000001198       r0liwpMwaIBQ9 zQjo       CHINA    4CHINA          ASIA        28-178-148-4116AUTOMOBILE
1206      Customer#000001206       dxzjW0gykcG2kJ gN8hZV    SAUDI ARA6SAUDI ARABIA   MIDDLE EAST 30-798-594-2459HOUSEHOLD 
1214      Customer#000001214       EATpN6m rGunAA           EGYPT    2EGYPT          MIDDLE EAST 14-353-748-4513BUILDING  
1222      Customer#000001222       hn6SzlP4Dq8F89iOXH0t     IRAQ     2IRAQ           MIDDLE EAST 21-740-433-7664AUTOMOBILE
1230      Customer#000001230       Pr7yxcRne6NiloD1oR,d28   UNITED KI5UNITED KINGDOM EUROPE      33-456-798-8552MACHINERY 
1238      Customer#000001238       HGCJI27,RIIQcS20,DcJ     FRANCE   7FRANCE         EUROPE      16-834-766-9288BUILDING  
1246      Customer#000001246       acguUq5BISz              EGYPT    4EGYPT          MIDDLE EAST 14-915-928-2853BUILDING  
1254      Customer#000001254       wdGz5Cm                  CHINA    4CHINA          ASIA        28-668-183-4155HOUSEHOLD 
1262      Customer#000001262       u39WRGD                  CANADA   7CANADA         AMERICA     13-689-965-2602MACHINERY 
1270      Customer#000001270       HPcuKCEtUzP3             JORDAN   5JORDAN         MIDDLE EAST 23-356-117-6137MACHINERY 
1278      Customer#000001278       OB JBXz5fghXsYEaClW      ETHIOPIA 1ETHIOPIA       AFRICA      15-514-722-9486HOUSEHOLD 
1286      Customer#000001286       FP3aFvhRMSK              JAPAN    2JAPAN          ASIA        22-323-137-6726MACHINERY 
1294      Customer#000001294       EZVIKislr4L0P            UNITED KI8UNITED KINGDOM EUROPE      33-707-242-1873AUTOMOBILE
1302      Customer#000001302       vyImQ4A                  INDONESIA0INDONESIA      ASIA        19-761-336-7852MACHINERY 
1310      Customer#000001310       bN, XpseFnbjZRh3         PERU     6PERU           AMERICA     27-229-400-3862HOUSEHOLD 
1318      Customer#000001318       yrASJAqw67PQ             KENYA    4KENYA          AFRICA      24-199-506-2624BUILDING  
1326      Customer#000001326       naLuK8XKUP               VIETNAM  2VIETNAM        ASIA        31-219-380-6331HOUSEHOLD 
1334      Customer#000001334       gZkxQY2Aa3o D6f1O        ETHIOPIA 0ETHIOPIA       AFRICA      15-106-763-5176BUILDING  
1342      Customer#000001342       FD6UNqfsYMKkf3Z          MOZAMBIQU9MOZAMBIQUE     AFRICA      26-645-703-5207MACHINERY 
1350      Customer#000001350       fc,TCo2zqB9T3C5Ib        CANADA   5CANADA         AMERICA     13-367-496-8197AUTOMOBILE
1358      Customer#000001358       t23gsl4TdVXqTZha         CANADA   5CANADA         AMERICA     13-818-671-1686BUILDING  
1366      Customer#000001366       v3YAa1hq4Qc7FdpLg4Jh0b   SAUDI ARA8SAUDI ARABIA   MIDDLE EAST 30-984-525-5283HOUSEHOLD 
1374      Customer#000001374       vRPteZ                   ROMANIA  7ROMANIA        EUROPE      29-882-933-2847AUTOMOBILE
1382      Customer#000001382       uiTMgqzTPqAP             IRAN     3IRAN           MIDDLE EAST 20-938-810-5577AUTOMOBILE
1390      Customer#000001390       fQm,RnwO4T               IRAQ     6IRAQ           MIDDLE EAST 21-931-329-9973HOUSEHOLD 
1398      Customer#000001398       K1rQq6exc3WcVCcgIjA      INDIA    2INDIA          ASIA        18-721-145-5493HOUSEHOLD 
1406      Customer#000001406       g1xS4snd0fzl4R,          ETHIOPIA 1ETHIOPIA       AFRICA      15-107-532-7039HOUSEHOLD 
1414      Customer#000001414       2 HBoqTD0qCyMK           SAUDI ARA9SAUDI ARABIA   MIDDLE EAST 30-373-827-9532BUILDING  
1422      Customer#000001422       mzXw44ExYC8DAde          PERU     4PERU           AMERICA     27-548-720-3104MACHINERY 
1430      Customer#000001430       mv 9MEDwd8               ALGERIA  5ALGERIA        AFRICA      10-349-993-9453BUILDING  
1438      Customer#000001438       Gz Aey8gzHxIIxtp         PERU     4PERU           AMERICA     27-661-907-1189FURNITURE 
1446      Customer#000001446       p94EVXQW,Q3bhXDyh        UNITED KI8UNITED KINGDOM EUROPE      33-292-851-6739BUILDING  
1454      Customer#000001454        wwPhUG35PiIVa           UNITED ST3UNITED STATES  AMERICA     34-711-712-8114FURNITURE 
1462      Customer#000001462       b9Ed,6BCK                PERU     6PERU           AMERICA     27-103-430-5733FURNITURE 
1470      Customer#000001470       8ufZxZ5IgwGrUM2CWfx      PERU     7PERU           AMERICA     27-731-653-2539HOUSEHOLD 
1478      Customer#000001478       x7HDvJDDpR3MqZ5vg        GERMANY  3GERMANY        EUROPE      17-685-235-1700AUTOMOBILE
1486      Customer#000001486       7A2Mhr                   UNITED ST0UNITED STATES  AMERICA     34-798-535-7266BUILDING  
1494      Customer#000001494       4V71P ku3j               IRAQ     3IRAQ           MIDDLE EAST 21-192-280-5315MACHINERY 
1502      Customer#000001502       FIsFVFApqxzRHQrRjAlODHWT JORDAN   7JORDAN         MIDDLE EAST 23-717-297-2382FURNITURE 
1510      Customer#000001510       BVNRoS0TP                ARGENTINA6ARGENTINA      AMERICA     11-833-944-7103MACHINERY 
1518      Customer#000001518       ulllJKhRl Vk             INDIA    4INDIA          ASIA        18-189-946-1919MACHINERY 
1526      Customer#000001526       pAC6Yj2c5lyO             INDIA    1INDIA          ASIA        18-592-665-1605MACHINERY 
1534      Customer#000001534       EJ1gh5MYQ7R xKH6RfqPU96  PERU     8PERU           AMERICA     27-523-918-4403FURNITURE 
1542      Customer#000001542       4whsFeeVSBH7Eq W         KENYA    9KENYA          AFRICA      24-126-841-2963BUILDING  
1550      Customer#000001550       NgbaaI                   SAUDI ARA5SAUDI ARABIA   MIDDLE EAST 30-110-874-5660BUILDING  
1558      Customer#000001558       hHKBdZXfRUbMjn           INDONESIA1INDONESIA      ASIA        19-190-892-2593AUTOMOBILE
1566      Customer#000001566       NfBldfDRJyOWXbZ47UJP2h   UNITED KI9UNITED KINGDOM EUROPE      33-179-321-3637FURNITURE 
1574      Customer#000001574       hgovcHR                  INDIA    8INDIA          ASIA        18-770-584-8711HOUSEHOLD 
1582      Customer#000001582       Tw 9wNgPjMms             IRAQ     5IRAQ           MIDDLE EAST 21-190-268-5153BUILDING  
1590      Customer#000001590       c9ykZTFqi2xpKpNed        ROMANIA  4ROMANIA        EUROPE      29-625-252-8700AUTOMOBILE
1598      Customer#000001598       bz91jr1                  INDONESIA0INDONESIA      ASIA        19-942-742-1316AUTOMOBILE
1606      Customer#000001606       rIhuh0JIX                ROMANIA  7ROMANIA        EUROPE      29-174-936-4130FURNITURE 
1614      Customer#000001614       7BofGHd,3l               ARGENTINA7ARGENTINA      AMERICA     11-805-219-3813HOUSEHOLD 
1622      Customer#000001622       HEfEM41ad6Tar1EH         ETHIOPIA 6ETHIOPIA       AFRICA      15-487-222-8576HOUSEHOLD 
1630      Customer#000001630       mFqtTXCA4QaC             UNITED ST8UNITED STATES  AMERICA     34-435-826-5691FURNITURE 
1638      Customer#000001638       Gxgb1kyTwOAoVu0fqaRQk4KC PERU     7PERU           AMERICA     27-736-979-8921FURNITURE 
1646      Customer#000001646       RQ,TryFh5loGPxszvCgRn    UNITED ST3UNITED STATES  AMERICA     34-917-529-1103MACHINERY 
1654      Customer#000001654       igHSnmh 6                ETHIOPIA 0ETHIOPIA       AFRICA      15-573-650-1221AUTOMOBILE
1662      Customer#000001662       fImm0 WZ JU39aNmh        JORDAN   8JORDAN         MIDDLE EAST 23-790-345-9400MACHINERY 
1670      Customer#000001670       YP A2c                   CHINA    1CHINA          ASIA        28-861-950-9991AUTOMOBILE
1678      Customer#000001678       xq R0 eIkV019MjY8        EGYPT    8EGYPT          MIDDLE EAST 14-740-288-1473MACHINERY 
1686      Customer#000001686       EYR2WxcOKG 4rIlcO9wbk    JAPAN    1JAPAN          ASIA        22-383-995-9435HOUSEHOLD 
1694      Customer#000001694       jCLu0ZDrLd               EGYPT    9EGYPT          MIDDLE EAST 14-696-871-9716AUTOMOBILE
1702      Customer#000001702       ZUf5SwR,j3HdY            ROMANIA  9ROMANIA        EUROPE      29-902-451-6561HOUSEHOLD 
1710      Customer#000001710       6kwF3TSVbf,JAh3PAjc0NS   IRAN     3IRAN           MIDDLE EAST 20-325-209-4105HOUSEHOLD 
1718      Customer#000001718       z2SLViCW5QB              UNITED ST9UNITED STATES  AMERICA     34-338-525-7131FURNITURE 
1726      Customer#000001726       Gi5q77BDziKnHUb          JORDAN   8JORDAN         MIDDLE EAST 23-856-648-3854BUILDING  
1734      Customer#000001734       Hj4hmdNc2sRBgG           INDIA    0INDIA          ASIA        18-244-797-8925AUTOMOBILE
1742      Customer#000001742       t3PI5OUN02V0BSuoWRvpE    SAUDI ARA1SAUDI ARABIA   MIDDLE EAST 30-644-741-5519AUTOMOBILE
1750      Customer#000001750       PBWOGiTcFiFucs8kN        MOZAMBIQU1MOZAMBIQUE     AFRICA      26-209-259-3279HOUSEHOLD 
1758      Customer#000001758       xvGuRiXuKNuXABjdfER      MOZAMBIQU3MOZAMBIQUE     AFRICA      26-111-554-2269FURNITURE 
1766      Customer#000001766       n4uulup7FP1ZLXvSRHve     MOROCCO  2MOROCCO        AFRICA      25-250-175-5230BUILDING  
1774      Customer#000001774       5pstbh4XaxP91            INDIA    8INDIA          ASIA        18-144-333-4551AUTOMOBILE
1782      Customer#000001782       ehV3 VRXV                VIETNAM  7VIETNAM        ASIA        31-229-342-6875AUTOMOBILE
1790      Customer#000001790       z IQ1wwki0OLw7biMFH      ETHIOPIA 3ETHIOPIA       AFRICA      15-240-593-1600MACHINERY 
1798      Customer#000001798       fOQAhX8wjDFg8tpeOa L     GERMANY  3GERMANY        EUROPE      17-473-306-3307HOUSEHOLD 
1806      Customer#000001806       BB6Vr7W,r                INDONESIA2INDONESIA      ASIA        19-643-216-3187MACHINERY 
1814      Customer#000001814       wrzLhEh9DAAHPrh19AGxqCxB JORDAN   3JORDAN         MIDDLE EAST 23-780-445-2894AUTOMOBILE
1822      Customer#000001822       H79GEJ2,C0JTus4zVXNjEyM  KENYA    0KENYA          AFRICA      24-401-737-5322AUTOMOBILE
1830      Customer#000001830       d6ZvjlxbHL               PERU     2PERU           AMERICA     27-896-710-4996AUTOMOBILE
1838      Customer#000001838       4nF9mi2bj3s82            VIETNAM  4VIETNAM        ASIA        31-199-842-9520AUTOMOBILE
1846      Customer#000001846       v0hJC6rlPBHdWAUGg7xm     MOZAMBIQU3MOZAMBIQUE     AFRICA      26-727-592-5055BUILDING  
1854      Customer#000001854       CYDzQ3P8qyP,o0ZCHt       KENYA    0KENYA          AFRICA      24-851-914-2364BUILDING  
1862      Customer#000001862       jDYsot4wXtwiJ            GERMANY  1GERMANY        EUROPE      17-761-636-8760MACHINERY 
1870      Customer#000001870       iAG9OC,ak                ARGENTINA2ARGENTINA      AMERICA     11-847-762-8226BUILDING  
1878      Customer#000001878       EJqsZwacKoF5mzgYO        FRANCE   2FRANCE         EUROPE      16-766-494-8668MACHINERY 
1886      Customer#000001886       rEn7jolYiPkRQ            JORDAN   8JORDAN         MIDDLE EAST 23-764-923-1069FURNITURE 
1894      Customer#000001894       X,KINka,n                JAPAN    1JAPAN          ASIA        22-592-366-2295BUILDING  
1902      Customer#000001902       03 VVAFfgEADO1Ert upreE  CANADA   7CANADA         AMERICA     13-133-420-6409BUILDING  
1910      Customer#000001910       LQ9x01e0v                ETHIOPIA 4ETHIOPIA       AFRICA      15-521-109-4499FURNITURE 
1918      Customer#000001918       CRBet8MbYBwTgtdPOzX,ip   INDONESIA1INDONESIA      ASIA        19-548-713-8760MACHINERY 
1926      Customer#000001926       EMRuUD                   GERMANY  0GERMANY        EUROPE      17-507-221-1743AUTOMOBILE
1934      Customer#000001934       REnXv9yHCBrQTv2i7        IRAN     3IRAN           MIDDLE EAST 20-987-934-8375HOUSEHOLD 
1942      Customer#000001942       5 eTPX2yTp49JPct         CANADA   5CANADA         AMERICA     13-361-649-2107MACHINERY 
1950      Customer#000001950       sRX9I79UagRC             FRANCE   2FRANCE         EUROPE      16-819-436-4172HOUSEHOLD 
1958      Customer#000001958       P8lsQKRVNyrM             EGYPT    5EGYPT          MIDDLE EAST 14-363-757-4833HOUSEHOLD 
1966      Customer#000001966       jPv1 UHra5JLALR5Isci5    ALGERIA  8ALGERIA        AFRICA      10-917-662-4348BUILDING  
1974      Customer#000001974       e4NzvGNJLIOkXfof         UNITED ST9UNITED STATES  AMERICA     34-214-181-5257AUTOMOBILE
1982      Customer#000001982       mpS3z3Av8c89             JAPAN    9JAPAN          ASIA        22-940-220-9269HOUSEHOLD 
1990      Customer#000001990       M9VbFPNnktfGtPgnf3t1pt   KENYA    4KENYA          AFRICA      24-620-342-7529HOUSEHOLD 
1998      Customer#000001998       RpAD0CJxR                KENYA    2KENYA          AFRICA      24-593-865-6378FURNITURE 
2006      Customer#000002006       4wf5KKnHE998b3 9V5vY     INDIA    0INDIA          ASIA        18-571-398-3715FURNITURE 
2014      Customer#000002014       9h6q AmXz1tebZ5DFZQ      BRAZIL   4BRAZIL         AMERICA     12-754-385-6512BUILDING  
2022      Customer#000002022       ttIgw Egi4sNgin          ROMANIA  9ROMANIA        EUROPE      29-695-961-8753BUILDING  
2030      Customer#000002030       FK1dAD7950gmKt6qaTX      IRAN     2IRAN           MIDDLE EAST 20-444-624-5281FURNITURE 
2038      Customer#000002038       TnQrWMEgta1l60           FRANCE   6FRANCE         EUROPE      16-823-190-7633BUILDING  
2046      Customer#000002046       P,6cxvM                  RUSSIA   0RUSSIA         EUROPE      32-138-651-4538BUILDING  
2054      Customer#000002054       7tRTlT2l 4d6 iw Wl5G20c2 VIETNAM  6VIETNAM        ASIA        31-552-798-2240MACHINERY 
2062      Customer#000002062       N5AF1iad                 IRAQ     7IRAQ           MIDDLE EAST 21-522-712-2465MACHINERY 
2070      Customer#000002070       wYE65GAjQmLF8G8LMgMS4w   ROMANIA  1ROMANIA        EUROPE      29-980-957-1625HOUSEHOLD 
2078      Customer#000002078       OmxAODhE                 MOZAMBIQU1MOZAMBIQUE     AFRICA      26-182-704-1674BUILDING  
2086      Customer#000002086       Oq0Ra2qWCHboJxEj,        BRAZIL   5BRAZIL         AMERICA     12-360-395-9706HOUSEHOLD 
2094      Customer#000002094       HJKGt7ra3b               ROMANIA  4ROMANIA        EUROPE      29-472-289-1242BUILDING  
2102      Customer#000002102       I7McR1zrSi1,6            PERU     5PERU           AMERICA     27-743-232-3283AUTOMOBILE
2110      Customer#000002110       DfWiHFA14uGK4YN9C0E4IN v GERMANY  4GERMANY        EUROPE      17-804-443-9192MACHINERY 
2118      Customer#000002118       JdIr0kAEZG8Z4qh,3jfnM    VIETNAM  1VIETNAM        ASIA        31-102-502-4728FURNITURE 
2126      Customer#000002126       G0nn9PDIrlnoSIwR,sFHX    ALGERIA  0ALGERIA        AFRICA      10-940-356-3104AUTOMOBILE
2134      Customer#000002134       ji1MM5rE802W             INDIA    4INDIA          ASIA        18-910-637-5824MACHINERY 
2142      Customer#000002142       j hHd4ffUAUIWfq,2        KENYA    3KENYA          AFRICA      24-212-386-1496FURNITURE 
2150      Customer#000002150       dfMUWejdM                ETHIOPIA 2ETHIOPIA       AFRICA      15-184-468-9865FURNITURE 
2158      Customer#000002158       TGxcJCq8yrFE0gwagTqci8pF INDIA    4INDIA          ASIA        18-747-233-9754AUTOMOBILE
2166      Customer#000002166       QqrVH9IxRzLskd4i3        ETHIOPIA 5ETHIOPIA       AFRICA      15-675-701-9598MACHINERY 
2174      Customer#000002174       tRJCrKGq0vY,hvBRSLKwv    INDONESIA2INDONESIA      ASIA        19-437-935-4424AUTOMOBILE
2182      Customer#000002182       yp2 9K                   ALGERIA  5ALGERIA        AFRICA      10-157-633-1531BUILDING  
2190      Customer#000002190       anGEVQPbVmINqS94lQsTF    FRANCE   8FRANCE         EUROPE      16-632-508-2150FURNITURE 
2198      Customer#000002198       ,TzoX,w9UlIBM            ARGENTINA7ARGENTINA      AMERICA     11-766-460-5093MACHINERY 
2206      Customer#000002206       hTblGZd y8               ROMANIA  3ROMANIA        EUROPE      29-688-128-4273HOUSEHOLD 
2214      Customer#000002214       xS0oDm7LbV               IRAQ     0IRAQ           MIDDLE EAST 21-488-798-4856MACHINERY 
2222      Customer#000002222       VOHV9plMdmx2CmVf         KENYA    0KENYA          AFRICA      24-806-841-3133FURNITURE 
2230      Customer#000002230       mYBmgFVQgxzHYZdrMUWhF    KENYA    6KENYA          AFRICA      24-210-797-2940HOUSEHOLD 
2238      Customer#000002238       wir6MEKkD                PERU     3PERU           AMERICA     27-730-389-2699BUILDING  
2246      Customer#000002246       VWySjPxwSvu              PERU     8PERU           AMERICA     27-111-855-1282FURNITURE 
2254      Customer#000002254       Qvqpb5DoYZCO2eF6qZ       INDIA    9INDIA          ASIA        18-697-307-4827AUTOMOBILE
2262      Customer#000002262       PNjrPEq2GKwz             UNITED ST7UNITED STATES  AMERICA     34-898-205-1575HOUSEHOLD 
2270      Customer#000002270       gzljeOoq0                INDONESIA4INDONESIA      ASIA        19-391-418-8651MACHINERY 
2278      Customer#000002278       CdKl2ZVqxqBvL ZXIRVBP    EGYPT    1EGYPT          MIDDLE EAST 14-834-677-5918MACHINERY 
2286      Customer#000002286       cl9G0q0pv2nFQv1          KENYA    5KENYA          AFRICA      24-959-364-6619FURNITURE 
2294      Customer#000002294       LKxoycB,5np540CYPyL      KENYA    4KENYA          AFRICA      24-967-205-2289FURNITURE 
2302      Customer#000002302       zVUWgNsXAzUg             RUSSIA   5RUSSIA         EUROPE      32-421-848-6611AUTOMOBILE
2310      Customer#000002310        1,vAAuNvNzCU0           ALGERIA  2ALGERIA        AFRICA      10-235-173-7875MACHINERY 
2318      Customer#000002318       19aeYCs39hEAcDw          INDONESIA2INDONESIA      ASIA        19-803-270-6405BUILDING  
2326      Customer#000002326       GwZPK2rQb1nEbVaO         UNITED ST6UNITED STATES  AMERICA     34-673-721-7575HOUSEHOLD 
2334      Customer#000002334       psq43fH                  INDIA    3INDIA          ASIA        18-894-274-8147FURNITURE 
2342      Customer#000002342       grFe1Z5oCMi,6Dr          JAPAN    0JAPAN          ASIA        22-914-645-5667FURNITURE 
2350      Customer#000002350       kTxMedC9TL               RUSSIA   1RUSSIA         EUROPE      32-637-841-5685MACHINERY 
2358      Customer#000002358       q7lIX6Rb4 n              EGYPT    1EGYPT          MIDDLE EAST 14-941-212-8350FURNITURE 
2366      Customer#000002366       1NfVUPkl6K11caDIXtpbxxJ  ALGERIA  4ALGERIA        AFRICA      10-879-144-3385BUILDING  
2374      Customer#000002374       Llkb4xQpaT2tP6PQvOT      ROMANIA  5ROMANIA        EUROPE      29-607-345-7435AUTOMOBILE
2382      Customer#000002382       bj8Fzh                   CANADA   9CANADA         AMERICA     13-279-420-7171AUTOMOBILE
2390      Customer#000002390       9ztAuXbRN,RQRO1lTO6pI,9  RUSSIA   6RUSSIA         EUROPE      32-357-167-4616MACHINERY 
2398      Customer#000002398       b8sLhRx F72Q             INDONESIA6INDONESIA      ASIA        19-749-345-9001FURNITURE 
2406      Customer#000002406       2R3k2n5uYxptgCliU        CHINA    7CHINA          ASIA        28-815-313-6318BUILDING  
2414      Customer#000002414       9qUabO1XEquGViWl6GK UX9v PERU     9PERU           AMERICA     27-999-618-6881MACHINERY 
2422      Customer#000002422       ENNo3lIc2                VIETNAM  0VIETNAM        ASIA        31-494-294-3782HOUSEHOLD 
2430      Customer#000002430       eyOxtP3u oOWUhhfJ45Qsb7r ROMANIA  9ROMANIA        EUROPE      29-896-121-5483HOUSEHOLD 
2438      Customer#000002438       fOwBxNEIK87oQYE4Edc      IRAN     6IRAN           MIDDLE EAST 20-229-506-1042AUTOMOBILE
2446      Customer#000002446       IgA9aYF3oqHD             JAPAN    2JAPAN          ASIA        22-407-129-3234MACHINERY 
2454      Customer#000002454       V3yQQcsI3Yid5ipzyxlr     INDONESIA6INDONESIA      ASIA        19-295-624-4054BUILDING  
2462      Customer#000002462       EetJTMuIYKFMC            FRANCE   2FRANCE         EUROPE      16-477-844-4203AUTOMOBILE
2470      Customer#000002470        YJ7aqaCY                CANADA   6CANADA         AMERICA     13-638-909-1523MACHINERY 
2478      Customer#000002478       k knoAG8qkP DtrK8qa3QM   IRAQ     6IRAQ           MIDDLE EAST 21-716-463-6849FURNITURE 
2486      Customer#000002486       l8Nok1BAkTS0ysB6Se       INDIA    1INDIA          ASIA        18-875-574-2150MACHINERY 
2494      Customer#000002494       VdWaTiF05Y,mvLJ          FRANCE   1FRANCE         EUROPE      16-500-136-1979BUILDING  
2502      Customer#000002502       pqWeXdgdkPYIp B0         ROMANIA  0ROMANIA        EUROPE      29-624-118-8951FURNITURE 
2510      Customer#000002510       mFswe eL6G5A,yV QvBWCPDN MOROCCO  7MOROCCO        AFRICA      25-217-517-7256HOUSEHOLD 
2518      Customer#000002518       VKzsfs1RKk24LjwV KNy8    ETHIOPIA 8ETHIOPIA       AFRICA      15-546-968-7915FURNITURE 
2526      Customer#000002526       JJqV6WXw1nBirPeYgH       ETHIOPIA 7ETHIOPIA       AFRICA      15-109-436-5557AUTOMOBILE
2534      Customer#000002534       dn2 nZ3qDTnX5k           GERMANY  7GERMANY        EUROPE      17-135-575-9910FURNITURE 
2542      Customer#000002542       Lwlg0b                   FRANCE   7FRANCE         EUROPE      16-151-693-2923MACHINERY 
2550      Customer#000002550       cH9pc9mK,wAisF           KENYA    4KENYA          AFRICA      24-122-118-3149FURNITURE 
2558      Customer#000002558       usVqXE,7F,,znp           BRAZIL   1BRAZIL         AMERICA     12-712-150-9589FURNITURE 
2566      Customer#000002566       O3b2XEVfBuuwKtenYOB xCO  IRAQ     3IRAQ           MIDDLE EAST 21-539-717-1445BUILDING  
2574      Customer#000002574       gRhI1YzWEpxp             CHINA    5CHINA          ASIA        28-139-659-5284HOUSEHOLD 
2582      Customer#000002582       Ub21c6WZ z               FRANCE   5FRANCE         EUROPE      16-913-651-2862AUTOMOBILE
2590      Customer#000002590       4ljncwz                  GERMANY  5GERMANY        EUROPE      17-925-436-7759BUILDING  
2598      Customer#000002598       Ii 8YzxGNkHlQ397AgHdLBYQ BRAZIL   7BRAZIL         AMERICA     12-254-272-2968BUILDING  
2606      Customer#000002606       a1EwY0 JO6n3H8V,0BD,     JAPAN    4JAPAN          ASIA        22-809-730-6018BUILDING  
2614      Customer#000002614       QUx,ui6mwYzo9bUl1dduuHm  ROMANIA  4ROMANIA        EUROPE      29-159-614-5395AUTOMOBILE
2622      Customer#000002622       vocY5xVIZ8XWtbe3w        GERMANY  3GERMANY        EUROPE      17-935-755-6812MACHINERY 
2630      Customer#000002630       N6,v,tOdQDRh0XJClbI      ARGENTINA4ARGENTINA      AMERICA     11-160-282-7402HOUSEHOLD 
2638      Customer#000002638       Fkt3LAYo                 JORDAN   8JORDAN         MIDDLE EAST 23-760-203-4495HOUSEHOLD 
2646      Customer#000002646       OR8tb,rF0hHpn853         SAUDI ARA3SAUDI ARABIA   MIDDLE EAST 30-775-294-9343HOUSEHOLD 
2654      Customer#000002654       KqhPBGQ0aEm0ey4qnVbRJooc INDIA    4INDIA          ASIA        18-654-181-4830MACHINERY 
2662      Customer#000002662       hzh1j5E2DOG6MdoiMb       JORDAN   7JORDAN         MIDDLE EAST 23-658-857-6479BUILDING  
2670      Customer#000002670       Cvjs1rVf3LKCR7AwLWoMy5YP KENYA    7KENYA          AFRICA      24-118-210-6812BUILDING  
2678      Customer#000002678       5juIIftx                 BRAZIL   8BRAZIL         AMERICA     12-746-277-2882BUILDING  
2686      Customer#000002686       swYLHCMgDINf             ALGERIA  1ALGERIA        AFRICA      10-213-267-8913BUILDING  
2694      Customer#000002694       AB9VpqLLK                SAUDI ARA2SAUDI ARABIA   MIDDLE EAST 30-320-477-7338FURNITURE 
2702      Customer#000002702         fb1LA6BKjWwc,DQMqKnUTl ROMANIA  0ROMANIA        EUROPE      29-929-598-5855HOUSEHOLD 
2710      Customer#000002710       yP4GirHWZIw1             UNITED KI5UNITED KINGDOM EUROPE      33-454-362-2132FURNITURE 
2718      Customer#000002718       S00yognuM89RCsT0         IRAN     5IRAN           MIDDLE EAST 20-286-546-8405MACHINERY 
2726      Customer#000002726       90jhywZ8lHRpiDzIU,T      CANADA   5CANADA         AMERICA     13-333-175-2003BUILDING  
2734      Customer#000002734       cW6cnBTvJHko4SBDTbv79    ARGENTINA5ARGENTINA      AMERICA     11-369-245-2642AUTOMOBILE
2742      Customer#000002742       DVPF5qzbJMgwXrmvPSI4h,Qt JAPAN    0JAPAN          ASIA        22-965-647-2700AUTOMOBILE
2750      Customer#000002750       2i719rqev3kHV1YOJ8s      IRAN     8IRAN           MIDDLE EAST 20-116-428-2375FURNITURE 
2758      Customer#000002758       TudHQGG                  RUSSIA   3RUSSIA         EUROPE      32-587-338-5691FURNITURE 
2766      Customer#000002766       zr9K8Fftll               ALGERIA  7ALGERIA        AFRICA      10-407-298-6048FURNITURE 
2774      Customer#000002774       Ykyu,Oq                  IRAQ     5IRAQ           MIDDLE EAST 21-790-837-3068AUTOMOBILE
2782      Customer#000002782       gxaPcL7wRmyRfI2Zs        EGYPT    0EGYPT          MIDDLE EAST 14-238-385-4881BUILDING  
2790      Customer#000002790       0fALCi                   RUSSIA   6RUSSIA         EUROPE      32-369-834-9728FURNITURE 
2798      Customer#000002798       SUcdFwFGSLuqAGJtl7JSpug  UNITED KI1UNITED KINGDOM EUROPE      33-551-290-6721BUILDING  
2806      Customer#000002806       LExdZBTq0iwx0kH          RUSSIA   3RUSSIA         EUROPE      32-215-487-8964MACHINERY 
2814      Customer#000002814       N1OvGq                   CHINA    2CHINA          ASIA        28-363-685-5425MACHINERY 
2822      Customer#000002822       yS9vwMYiolrSosvGg16o     UNITED ST6UNITED STATES  AMERICA     34-829-360-7714MACHINERY 
2830      Customer#000002830       qVRa7gdy                 BRAZIL   3BRAZIL         AMERICA     12-545-293-4307FURNITURE 
2838      Customer#000002838       F77yW8                   ALGERIA  9ALGERIA        AFRICA      10-476-809-3810FURNITURE 
2846      Customer#000002846       VR5ArDJkAEpsvB8ASmbP     MOROCCO  0MOROCCO        AFRICA      25-666-803-9796BUILDING  
2854      Customer#000002854       ouE3,pGA0n9u BrP2BO      SAUDI ARA1SAUDI ARABIA   MIDDLE EAST 30-969-381-6103BUILDING  
2862      Customer#000002862       yS2wxR,1                 KENYA    1KENYA          AFRICA      24-759-982-3655BUILDING  
2870      Customer#000002870       kgKj oWzuWniYHm,YsiTArp  GERMANY  6GERMANY        EUROPE      17-360-529-4578FURNITURE 
2878      Customer#000002878       ap7BWM4tvmq7bcucP        CANADA   8CANADA         AMERICA     13-182-628-1479AUTOMOBILE
2886      Customer#000002886       WVcyoH72KYTGJlaK         PERU     7PERU           AMERICA     27-876-405-1788AUTOMOBILE
2894      Customer#000002894       NYK8c5G7Hdy3             PERU     0PERU           AMERICA     27-424-940-3362BUILDING  
2902      Customer#000002902       E5YdkSPgAsSeDA           ALGERIA  4ALGERIA        AFRICA      10-183-975-6725BUILDING  
2910      Customer#000002910       ZCCMfRCKsKYO7uALxrl9     ARGENTINA2ARGENTINA      AMERICA     11-979-547-1099MACHINERY 
2918      Customer#000002918       vVTMg125ptCdjT 85        UNITED ST1UNITED STATES  AMERICA     34-850-989-8994HOUSEHOLD 
2926      Customer#000002926       ck,RrTdbI5fN sqOL0066Fc  JORDAN   2JORDAN         MIDDLE EAST 23-328-298-8927AUTOMOBILE
2934      Customer#000002934       bQx6gsUguyvGqC           ALGERIA  1ALGERIA        AFRICA      10-876-515-4175FURNITURE 
2942      Customer#000002942       X1B9BfW3yxl              IRAN     0IRAN           MIDDLE EAST 20-263-384-9679FURNITURE 
2950      Customer#000002950       npFiGfUBWM,MYysnbeeyD46I KENYA    2KENYA          AFRICA      24-561-185-1327MACHINERY 
2958      Customer#000002958       74d4U3XM2                CHINA    5CHINA          ASIA        28-890-206-5980MACHINERY 
2966      Customer#000002966       7oLX21p94xam7Z7RA7W8W    EGYPT    4EGYPT          MIDDLE EAST 14-151-688-7455AUTOMOBILE
2974      Customer#000002974       wJUxcVGwZqp0EUlTe ,jz    PERU     2PERU           AMERICA     27-865-226-3276FURNITURE 
2982      Customer#000002982       nFzzPzB8F                CANADA   6CANADA         AMERICA     13-120-793-4050MACHINERY 
2990      Customer#000002990       ZPnocAojpk63qM0X         PERU     9PERU           AMERICA     27-442-742-6821BUILDING  
2998      Customer#000002998       wQh96wHPFJYzhPKG3RK8Sv   PERU     4PERU           AMERICA     27-573-616-1769AUTOMOBILE
3006      Customer#000003006       O6R9AI0                  BRAZIL   9BRAZIL         AMERICA     12-890-957-5862MACHINERY 
3014      Customer#000003014       QXZJjc                   CANADA   6CANADA         AMERICA     13-938-419-7814HOUSEHOLD 
3022      Customer#000003022       SqxV2d iumrUttHo         ROMANIA  8ROMANIA        EUROPE      29-138-693-3370BUILDING  
3030      Customer#000003030       EEsyN4KThPqGea5QX k1J1   RUSSIA   1RUSSIA         EUROPE      32-400-822-7122BUILDING  
3038      Customer#000003038       EEeNW32nA3Aym38MKg       UNITED ST4UNITED STATES  AMERICA     34-330-965-5040FURNITURE 
3046      Customer#000003046       DEtWABerCyAtivvzpiE      CANADA   6CANADA         AMERICA     13-347-451-1434FURNITURE 
3054      Customer#000003054       yKVlreWkQoT              INDONESIA4INDONESIA      ASIA        19-829-323-6862MACHINERY 
3062      Customer#000003062       LZL4o3qGqbFq1Yau         FRANCE   4FRANCE         EUROPE      16-516-186-7184MACHINERY 
3070      Customer#000003070        hV ,54q3R               INDONESIA2INDONESIA      ASIA        19-865-837-3289HOUSEHOLD 
3078      Customer#000003078       06hP,DEZPR P             GERMANY  7GERMANY        EUROPE      17-643-473-9399FURNITURE 
3086      Customer#000003086       V02nM1uUhnM1Ratqz8NaG    RUSSIA   0RUSSIA         EUROPE      32-501-503-6713HOUSEHOLD 
3094      Customer#000003094       9RycWlDQirwn             CANADA   8CANADA         AMERICA     13-629-799-6194AUTOMOBILE
3102      Customer#000003102       GUxg ,eIRLlzUwJDTEE1ugj  CHINA    3CHINA          ASIA        28-896-526-7905HOUSEHOLD 
3110      Customer#000003110       1oJ6mFo                  IRAQ     5IRAQ           MIDDLE EAST 21-774-583-6308FURNITURE 
3118      Customer#000003118       W lq5t6fo7xQAA           IRAN     9IRAN           MIDDLE EAST 20-164-569-8752AUTOMOBILE
3126      Customer#000003126       qqdBrSjecfpH,1jGUuY      ALGERIA  8ALGERIA        AFRICA      10-123-177-8095AUTOMOBILE
3134      Customer#000003134       hro wA9taNSOWHnRtJe      IRAQ     8IRAQ           MIDDLE EAST 21-522-503-4272FURNITURE 
3142      Customer#000003142       Ke3,gUPeEtYqwPR3O3       JORDAN   8JORDAN         MIDDLE EAST 23-201-979-7202HOUSEHOLD 
3150      Customer#000003150       5N1Ddqk2Hab7UkNnV        CANADA   3CANADA         AMERICA     13-512-545-5386BUILDING  
3158      Customer#000003158       gh3NOHCBTsNb             PERU     0PERU           AMERICA     27-906-395-2737MACHINERY 
3166      Customer#000003166       HrEtcNiyGYq0LVO4         INDIA    8INDIA          ASIA        18-542-763-6236FURNITURE 
3174      Customer#000003174       9XGPFKL                  UNITED ST2UNITED STATES  AMERICA     34-716-807-3052BUILDING  
3182      Customer#000003182       AGVwrIR8ix7xijy2         KENYA    6KENYA          AFRICA      24-687-270-2050BUILDING  
3190      Customer#000003190       F,D1HD                   INDONESIA8INDONESIA      ASIA        19-223-550-4703FURNITURE 
3198      Customer#000003198       qO,08,YiOYUBjVE8         JORDAN   7JORDAN         MIDDLE EAST 23-386-174-5792HOUSEHOLD 
3206      Customer#000003206       l5iUaSwOW8gnRkhH7ggV2    JORDAN   3JORDAN         MIDDLE EAST 23-448-589-2713FURNITURE 
3214      Customer#000003214       Z 9JgvM7l7DfiHWz85GFiL4h GERMANY  3GERMANY        EUROPE      17-168-641-8810MACHINERY 
3222      Customer#000003222       dM,APyQhdBwWY6EzxjM bO   UNITED ST4UNITED STATES  AMERICA     34-211-231-9277BUILDING  
3230      Customer#000003230       5FpqWEYT7iTW10           CHINA    0CHINA          ASIA        28-348-739-1404HOUSEHOLD 
3238      Customer#000003238       wI6 tz juP               VIETNAM  9VIETNAM        ASIA        31-797-367-6324HOUSEHOLD 
3246      Customer#000003246       dhjk25G6gxGGn8cvW93      EGYPT    4EGYPT          MIDDLE EAST 14-545-692-9663HOUSEHOLD 
3254      Customer#000003254       IfGVBZZCNVOY6y45ycjpF    GERMANY  9GERMANY        EUROPE      17-463-897-9524AUTOMOBILE
3262      Customer#000003262        X72c2 IP1n6dE           MOZAMBIQU5MOZAMBIQUE     AFRICA      26-985-708-3470MACHINERY 
3270      Customer#000003270       dqe7Bxj0pOXx2vGvEth      VIETNAM  0VIETNAM        ASIA        31-335-870-4881FURNITURE 
3278      Customer#000003278       A2UAaGhgB ,VfXUZE        FRANCE   6FRANCE         EUROPE      16-759-966-4029AUTOMOBILE
3286      Customer#000003286       hsJ76kVXPmJ5PCGf99       INDONESIA7INDONESIA      ASIA        19-506-502-8061BUILDING  
3294      Customer#000003294       wHFzsOZaxqTNIaY          INDIA    8INDIA          ASIA        18-893-663-5895BUILDING  
3302      Customer#000003302       F2HjG9UHi,3Ehb80tJ       RUSSIA   3RUSSIA         EUROPE      32-951-438-3459BUILDING  
3310      Customer#000003310       NNrbSomPKrg              INDIA    6INDIA          ASIA        18-779-183-8975BUILDING  
3318      Customer#000003318       6Whj4cFO7zM              GERMANY  0GERMANY        EUROPE      17-708-808-4406HOUSEHOLD 
3326      Customer#000003326       33uK179LW                JORDAN   8JORDAN         MIDDLE EAST 23-105-726-7775HOUSEHOLD 
3334      Customer#000003334       d1L,mODar,VCv6SOqBq      VIETNAM  5VIETNAM        ASIA        31-900-225-1828BUILDING  
3342      Customer#000003342       HGotWwBT                 MOZAMBIQU3MOZAMBIQUE     AFRICA      26-664-567-3701BUILDING  
3350      Customer#000003350       riBJ3wMG82Abiv           GERMANY  2GERMANY        EUROPE      17-525-471-8196AUTOMOBILE
3358      Customer#000003358       zsY0aAXh82D              MOZAMBIQU0MOZAMBIQUE     AFRICA      26-676-490-8851MACHINERY 
3366      Customer#000003366       IQArzxZRIyKco0U0UQiiXd86 EGYPT    3EGYPT          MIDDLE EAST 14-547-146-6184BUILDING  
3374      Customer#000003374       mO0pvdgDxxq7Rh6r6hqTU    BRAZIL   1BRAZIL         AMERICA     12-932-106-8659HOUSEHOLD 
3382      Customer#000003382       nKxBTzJpBdDZaJvaT        MOZAMBIQU2MOZAMBIQUE     AFRICA      26-358-374-4587AUTOMOBILE
3390      Customer#000003390       wYQj pyB,m7,fxoiR4I3ZM6k BRAZIL   5BRAZIL         AMERICA     12-543-206-2680BUILDING  
3398      Customer#000003398       bRdWMyyaMQsRK            ROMANIA  8ROMANIA        EUROPE      29-854-525-2188BUILDING  
3406      Customer#000003406       X6gJ5IW98QPcrDLbc        RUSSIA   0RUSSIA         EUROPE      32-588-151-9224FURNITURE 
3414      Customer#000003414       uNj50RtBfNHOBZu5 e1b3I   VIETNAM  7VIETNAM        ASIA        31-636-796-4770FURNITURE 
3422      Customer#000003422       wSPJlNtpYWcIr            MOZAMBIQU3MOZAMBIQUE     AFRICA      26-234-504-5967HOUSEHOLD 
3430      Customer#000003430       KCY2HqWa4ZAxPhUtFrTRZ    CANADA   4CANADA         AMERICA     13-419-338-2194AUTOMOBILE
3438      Customer#000003438       3uPWmAhYf                ALGERIA  5ALGERIA        AFRICA      10-821-799-3225HOUSEHOLD 
3446      Customer#000003446       zDHMhwwa0i9lr7EfX9q      UNITED ST9UNITED STATES  AMERICA     34-682-740-1343BUILDING  
3454      Customer#000003454       970sk8Ohx5BZ4            JORDAN   2JORDAN         MIDDLE EAST 23-438-706-8543FURNITURE 
3462      Customer#000003462       RUSeJaHPV3RVQyc3eHY      INDIA    2INDIA          ASIA        18-237-298-2939MACHINERY 
3470      Customer#000003470       1rug2X 6AP9MdyW2Bxdm     IRAQ     7IRAQ           MIDDLE EAST 21-886-504-8961BUILDING  
3478      Customer#000003478       ,6vmPcKw3YiN7aACqy2      RUSSIA   5RUSSIA         EUROPE      32-989-420-9254MACHINERY 
3486      Customer#000003486        Q1qjtAnoophGpCN9zN      MOROCCO  0MOROCCO        AFRICA      25-551-486-8783BUILDING  
3494      Customer#000003494       rKEsnY4xlAuTqxQOTyqrJaJ, INDIA    8INDIA          ASIA        18-120-215-2805HOUSEHOLD 
3502      Customer#000003502       BWWqkLut                 JAPAN    9JAPAN          ASIA        22-366-771-8476MACHINERY 
3510      Customer#000003510       pdCphlYE7tgeCr5jgb       ETHIOPIA 4ETHIOPIA       AFRICA      15-714-528-4315FURNITURE 
3518      Customer#000003518       wDismg                   ALGERIA  8ALGERIA        AFRICA      10-698-657-4258HOUSEHOLD 
3526      Customer#000003526       CI,vfZQukrfuG            MOROCCO  6MOROCCO        AFRICA      25-905-834-7594FURNITURE 
3534      Customer#000003534       APJYwAt                  KENYA    8KENYA          AFRICA      24-670-111-1776MACHINERY 
3542      Customer#000003542       3ikVuEac  IsYRrizW2Z     CANADA   8CANADA         AMERICA     13-477-731-9544BUILDING  
3550      Customer#000003550       tLrbReTeBP9ddd uYP68Cu   MOROCCO  3MOROCCO        AFRICA      25-804-258-5283MACHINERY 
3558      Customer#000003558       IghZC9DTBh               VIETNAM  7VIETNAM        ASIA        31-940-493-9288AUTOMOBILE
3566      Customer#000003566       5lb diE8r                ARGENTINA1ARGENTINA      AMERICA     11-966-795-7395AUTOMOBILE
3574      Customer#000003574       cQVKki6y                 KENYA    5KENYA          AFRICA      24-484-261-2033AUTOMOBILE
3582      Customer#000003582       UYJbv7YWq2XVFRK          ARGENTINA3ARGENTINA      AMERICA     11-670-842-7820FURNITURE 
3590      Customer#000003590       kdsLS,FE,hI jo           UNITED ST8UNITED STATES  AMERICA     34-198-865-9837HOUSEHOLD 
3598      Customer#000003598       FeukCZ4qeMbkcyZqe3g51iTZ ETHIOPIA 6ETHIOPIA       AFRICA      15-484-468-8552MACHINERY 
3606      Customer#000003606       reJhc3C922q              JAPAN    1JAPAN          ASIA        22-219-818-3413AUTOMOBILE
3614      Customer#000003614       NeiVrs                   IRAQ     5IRAQ           MIDDLE EAST 21-601-801-5980BUILDING  
3622      Customer#000003622       ksrO7VkBGi4              UNITED ST9UNITED STATES  AMERICA     34-763-552-3649AUTOMOBILE
3630      Customer#000003630       8wbvZuev5Jy3gbzBqeAvm    INDONESIA8INDONESIA      ASIA        19-796-371-3361AUTOMOBILE
3638      Customer#000003638       lzEZxeyWhb5rjEhErDGQQmN  BRAZIL   1BRAZIL         AMERICA     12-377-583-4535FURNITURE 
3646      Customer#000003646       28xZVWV3ISE7             INDONESIA8INDONESIA      ASIA        19-602-247-2568HOUSEHOLD 
3654      Customer#000003654       TbkjcMMRp                MOROCCO  0MOROCCO        AFRICA      25-373-207-9056MACHINERY 
3662      Customer#000003662       g6pgfLKRJ                UNITED KI2UNITED KINGDOM EUROPE      33-915-333-4749BUILDING  
3670      Customer#000003670       1w4 UqpOpKOok8xL         MOROCCO  7MOROCCO        AFRICA      25-114-599-2126BUILDING  
3678      Customer#000003678       oiLyYik                  CANADA   0CANADA         AMERICA     13-193-344-3305MACHINERY 
3686      Customer#000003686       KNsYeKHbkGVXd            UNITED ST1UNITED STATES  AMERICA     34-696-380-7432AUTOMOBILE
3694      Customer#000003694       xmYMfchyB8FPdM           UNITED KI3UNITED KINGDOM EUROPE      33-336-534-8168MACHINERY 
3702      Customer#000003702       U,QhJ5Fq                 MOROCCO  4MOROCCO        AFRICA      25-273-407-3348HOUSEHOLD 
3710      Customer#000003710       fhRDWdMC3 jgC0ODfB4      INDONESIA1INDONESIA      ASIA        19-321-116-4361BUILDING  
3718      Customer#000003718       YCo r8RwZK1              ALGERIA  0ALGERIA        AFRICA      10-681-413-8133HOUSEHOLD 
3726      Customer#000003726       gePgcku62kHTZMO          CANADA   0CANADA         AMERICA     13-890-599-9163AUTOMOBILE
3734      Customer#000003734       rEAaeebv Zj3URv          EGYPT    3EGYPT          MIDDLE EAST 14-353-952-5340MACHINERY 
3742      Customer#000003742       GU9dJIB7z0gM2y6SFh5meTaz FRANCE   7FRANCE         EUROPE      16-406-702-2509HOUSEHOLD 
3750      Customer#000003750       1rRWNP8Lg35joh bd        UNITED KI6UNITED KINGDOM EUROPE      33-460-909-9921AUTOMOBILE
3758      Customer#000003758       4V6Ln qRAqdnTP9v hYt     CANADA   1CANADA         AMERICA     13-863-147-7460MACHINERY 
3766      Customer#000003766       QTXRETTJKtS              EGYPT    2EGYPT          MIDDLE EAST 14-151-614-2954AUTOMOBILE
3774      Customer#000003774       PnhPLzU3ZJ6LVMGT         SAUDI ARA8SAUDI ARABIA   MIDDLE EAST 30-180-587-9896MACHINERY 
3782      Customer#000003782       rqGCRVhAUI               PERU     1PERU           AMERICA     27-589-382-8999MACHINERY 
3790      Customer#000003790       XHZfXTTar878s8nrikiE     JAPAN    4JAPAN          ASIA        22-924-489-2947BUILDING  
3798      Customer#000003798       HCp3nP,3YYcE             IRAQ     1IRAQ           MIDDLE EAST 21-926-660-3949BUILDING  
3806      Customer#000003806       K3Fga6V                  CHINA    1CHINA          ASIA        28-777-877-4340BUILDING  
3814      Customer#000003814       maXF4pqXsDDCOX8s8        SAUDI ARA0SAUDI ARABIA   MIDDLE EAST 30-261-602-1348AUTOMOBILE
3822      Customer#000003822       dKsGH,jI76FepcikmkQP     PERU     5PERU           AMERICA     27-792-755-5732BUILDING  
3830      Customer#000003830       grUk084xPKpH,m8Nzu       UNITED KI2UNITED KINGDOM EUROPE      33-227-757-2602MACHINERY 
3838      Customer#000003838       dI0GKsfu685c KrGFu8      CHINA    2CHINA          ASIA        28-190-338-9865AUTOMOBILE
3846      Customer#000003846        pwYOg o7tTq             ALGERIA  4ALGERIA        AFRICA      10-298-460-4006FURNITURE 
3854      Customer#000003854       k3CS6,3lLQ               JAPAN    7JAPAN          ASIA        22-875-781-9383FURNITURE 
3862      Customer#000003862       MpbzkJUp7yKx3z6u4cOve    SAUDI ARA7SAUDI ARABIA   MIDDLE EAST 30-604-342-3145AUTOMOBILE
3870      Customer#000003870       HuPvaL3zeFi2Go           CHINA    0CHINA          ASIA        28-845-644-7847AUTOMOBILE
3878      Customer#000003878       wc4d4QHH83slJix          CANADA   4CANADA         AMERICA     13-295-319-4239AUTOMOBILE
3886      Customer#000003886       UadbH4m                  JAPAN    7JAPAN          ASIA        22-317-936-4853MACHINERY 
3894      Customer#000003894       u6bVIb                   EGYPT    4EGYPT          MIDDLE EAST 14-563-830-2716BUILDING  
3902      Customer#000003902       yK4mF0qrSaH55Zx          EGYPT    3EGYPT          MIDDLE EAST 14-203-798-3536HOUSEHOLD 
3910      Customer#000003910       ,wo14m5Xc7Uvt            JAPAN    9JAPAN          ASIA        22-233-269-6932FURNITURE 
3918      Customer#000003918       2ckFlna                  ETHIOPIA 4ETHIOPIA       AFRICA      15-937-199-4752AUTOMOBILE
3926      Customer#000003926       ckSriyVirjir74AqpaVrPLk  MOZAMBIQU0MOZAMBIQUE     AFRICA      26-328-212-3277FURNITURE 
3934      Customer#000003934       qXdWE y                  ROMANIA  7ROMANIA        EUROPE      29-317-185-6697AUTOMOBILE
3942      Customer#000003942       ko79mkm0MO               ETHIOPIA 5ETHIOPIA       AFRICA      15-110-755-9629HOUSEHOLD 
3950      Customer#000003950       yBFMeK5GFkLwIpiqXKZtL    RUSSIA   3RUSSIA         EUROPE      32-308-163-3328HOUSEHOLD 
3958      Customer#000003958       XIX5GG                   CHINA    6CHINA          ASIA        28-664-848-5893FURNITURE 
3966      Customer#000003966       X,zlDJM                  EGYPT    1EGYPT          MIDDLE EAST 14-716-570-4142MACHINERY 
3974      Customer#000003974       Un23909e XFkr            VIETNAM  8VIETNAM        ASIA        31-290-914-5032AUTOMOBILE
3982      Customer#000003982       UaK5JHm                  RUSSIA   6RUSSIA         EUROPE      32-700-747-1207BUILDING  
3990      Customer#000003990       1,sC8,IBHL0sQGh, aueN    IRAN     2IRAN           MIDDLE EAST 20-864-340-1218AUTOMOBILE
3998      Customer#000003998       hwWZo1Y                  ARGENTINA1ARGENTINA      AMERICA     11-401-498-5540MACHINERY 
4006      Customer#000004006       gfpILpjOZwj7             FRANCE   5FRANCE         EUROPE      16-591-473-9273MACHINERY 
4014      Customer#000004014       TsAd9K50Be,guxtn6Wi1o11u MOZAMBIQU5MOZAMBIQUE     AFRICA      26-541-666-3504HOUSEHOLD 
4022      Customer#000004022       bhJneARrSSSt             JAPAN    5JAPAN          ASIA        22-842-851-4572BUILDING  
4030      Customer#000004030       pvQ8yGt3nZz0zeos         INDIA    8INDIA          ASIA        18-520-869-4273BUILDING  
4038      Customer#000004038       ya1MPocNDP1od            KENYA    2KENYA          AFRICA      24-110-848-7854MACHINERY 
4046      Customer#000004046       F0ug8fzXT                SAUDI ARA1SAUDI ARABIA   MIDDLE EAST 30-439-225-1873BUILDING  
4054      Customer#000004054       WSoyebZ1ND5bIzFMuQG6Zsu  MOROCCO  9MOROCCO        AFRICA      25-986-698-5630FURNITURE 
4062      Customer#000004062       4nz2zJsVjO0qbqN8         KENYA    2KENYA          AFRICA      24-903-715-6316MACHINERY 
4070      Customer#000004070       z16O8NpXNxdojk9          UNITED KI5UNITED KINGDOM EUROPE      33-239-834-1841FURNITURE 
4078      Customer#000004078       0lfgn7sgEE713sh          FRANCE   1FRANCE         EUROPE      16-920-337-6727BUILDING  
4086      Customer#000004086       hyYxxSvLBtFqW9           JAPAN    1JAPAN          ASIA        22-830-703-7538HOUSEHOLD 
4094      Customer#000004094       5NnQ5J7uT2E3WIWdWTKoq22  KENYA    3KENYA          AFRICA      24-130-358-2847BUILDING  
4102      Customer#000004102       gkFvHsaExJWn             KENYA    8KENYA          AFRICA      24-719-210-3559MACHINERY 
4110      Customer#000004110       unXoN4DP                 EGYPT    3EGYPT          MIDDLE EAST 14-639-800-5768BUILDING  
4118      Customer#000004118        h8ON BU1hikVY9Pgwtx39u  KENYA    2KENYA          AFRICA      24-974-676-6288AUTOMOBILE
4126      Customer#000004126       pjM4bn                   INDIA    2INDIA          ASIA        18-631-970-5612MACHINERY 
4134      Customer#000004134       X0hqjNI9FmFgktnrNwOjNQ   MOROCCO  4MOROCCO        AFRICA      25-203-490-8427FURNITURE 
4142      Customer#000004142       EdHyG1wM8zq              PERU     0PERU           AMERICA     27-692-909-1090HOUSEHOLD 
4150      Customer#000004150       8TBAKVnq4Y2SUEh9fxpj,Dd  SAUDI ARA7SAUDI ARABIA   MIDDLE EAST 30-339-604-8441BUILDING  
4158      Customer#000004158       ELNlFgK051GhR4bl3n9      IRAQ     5IRAQ           MIDDLE EAST 21-780-342-3493HOUSEHOLD 
4166      Customer#000004166       W0fZyqaVo5CU0ig blFFbKew ROMANIA  2ROMANIA        EUROPE      29-516-196-8189FURNITURE 
4174      Customer#000004174       9EGwyHVY                 FRANCE   3FRANCE         EUROPE      16-661-832-3905MACHINERY 
4182      Customer#000004182       UjjO9fG8k,L              ROMANIA  4ROMANIA        EUROPE      29-877-425-5766BUILDING  
4190      Customer#000004190       WTb,wlegbMpeyh2C8KNak9V  INDIA    3INDIA          ASIA        18-179-512-3241BUILDING  
4198      Customer#000004198       EwcQsyzcDlOu5UJHXnehzzZN GERMANY  7GERMANY        EUROPE      17-622-233-7409BUILDING  
4206      Customer#000004206       0zfwx9jIiqQf             EGYPT    5EGYPT          MIDDLE EAST 14-753-455-5464AUTOMOBILE
4214      Customer#000004214       oyCdETtO9S               KENYA    9KENYA          AFRICA      24-382-546-2077AUTOMOBILE
4222      Customer#000004222       R1MO8HqpgiGSG2gxnAe      MOROCCO  3MOROCCO        AFRICA      25-136-559-1610MACHINERY 
4230      Customer#000004230       3FLaJYhKK                ARGENTINA6ARGENTINA      AMERICA     11-181-389-3253BUILDING  
4238      Customer#000004238       AAz1AdwwDWZHDKaywSE      ARGENTINA5ARGENTINA      AMERICA     11-774-908-4053FURNITURE 
4246      Customer#000004246       FZrGjGHx0Pj              INDONESIA3INDONESIA      ASIA        19-780-396-2518AUTOMOBILE
4254      Customer#000004254       bENwJQzp                 SAUDI ARA0SAUDI ARABIA   MIDDLE EAST 30-371-171-8422HOUSEHOLD 
4262      Customer#000004262       F9EalrpzXtjTAO83hvw      IRAQ     0IRAQ           MIDDLE EAST 21-932-570-5916AUTOMOBILE
4270      Customer#000004270       C5KM4hbD4xWtAi6gSgIVV,sC UNITED KI4UNITED KINGDOM EUROPE      33-684-503-9376BUILDING  
4278      Customer#000004278       xv fx1kfT,4ff            MOZAMBIQU0MOZAMBIQUE     AFRICA      26-458-381-1398MACHINERY 
4286      Customer#000004286       CNMprHkwyem9nm7cXko1RN7  ARGENTINA1ARGENTINA      AMERICA     11-284-604-9888BUILDING  
4294      Customer#000004294       8MjtzlM8NAJ              PERU     9PERU           AMERICA     27-762-294-1289HOUSEHOLD 
4302      Customer#000004302       mUd9XdQbwoBkY2HWqD       RUSSIA   8RUSSIA         EUROPE      32-487-447-5254FURNITURE 
4310      Customer#000004310       mPEizx2                  BRAZIL   3BRAZIL         AMERICA     12-374-254-3040HOUSEHOLD 
4318      Customer#000004318       EkHoyXqtv2519CjHERLb     ARGENTINA3ARGENTINA      AMERICA     11-739-989-2520HOUSEHOLD 
4326      Customer#000004326       yyTX6omLz                FRANCE   3FRANCE         EUROPE      16-381-455-8292BUILDING  
4334      Customer#000004334       f4LXJbsCNjIJjjhDb        JORDAN   3JORDAN         MIDDLE EAST 23-829-637-8407AUTOMOBILE
4342      Customer#000004342       6DqXDngm                 SAUDI ARA8SAUDI ARABIA   MIDDLE EAST 30-586-270-3035HOUSEHOLD 
4350      Customer#000004350       stiDIoZK7K               JAPAN    5JAPAN          ASIA        22-289-439-9110BUILDING  
4358      Customer#000004358       h6cR9YCYyQKJ6ALIlo       GERMANY  6GERMANY        EUROPE      17-312-785-8477AUTOMOBILE
4366      Customer#000004366       PC0wGlrk3zqHjEXZoNN3     GERMANY  3GERMANY        EUROPE      17-714-965-9741BUILDING  
4374      Customer#000004374       7KAHJuLOE,hiWmXUB        UNITED ST5UNITED STATES  AMERICA     34-778-624-9269BUILDING  
4382      Customer#000004382       AEmJILa                  KENYA    1KENYA          AFRICA      24-437-434-8739HOUSEHOLD 
4390      Customer#000004390       nFQu0qT2                 ARGENTINA1ARGENTINA      AMERICA     11-689-559-7125FURNITURE 
4398      Customer#000004398       p362VHay3XKw 14jocrT     BRAZIL   7BRAZIL         AMERICA     12-957-388-4142BUILDING  
4406      Customer#000004406       1YZVqz58FSWlBMn8z3cyJcXS CANADA   7CANADA         AMERICA     13-798-451-8292HOUSEHOLD 
4414      Customer#000004414       XyofaZ8WRdWFJ            MOROCCO  2MOROCCO        AFRICA      25-776-441-4453FURNITURE 
4422      Customer#000004422       SjkQ9pxED                BRAZIL   2BRAZIL         AMERICA     12-891-590-7658FURNITURE 
4430      Customer#000004430       2McxviZ                  IRAQ     4IRAQ           MIDDLE EAST 21-888-983-3215BUILDING  
4438      Customer#000004438       wvxwQGO                  VIETNAM  9VIETNAM        ASIA        31-234-943-3393HOUSEHOLD 
4446      Customer#000004446       gQVUifwP8DciXj xk        EGYPT    4EGYPT          MIDDLE EAST 14-715-931-2884FURNITURE 
4454      Customer#000004454       nYqxYEqAJjSBOzJsev5YN    UNITED ST8UNITED STATES  AMERICA     34-461-476-1003AUTOMOBILE
4462      Customer#000004462       mLqZ1a                   INDONESIA5INDONESIA      ASIA        19-770-418-9822HOUSEHOLD 
4470      Customer#000004470       XNtGPmjGt2aT             IRAQ     2IRAQ           MIDDLE EAST 21-646-546-8561MACHINERY 
4478      Customer#000004478       IgVM AxSV                FRANCE   3FRANCE         EUROPE      16-751-214-1576FURNITURE 
4486      Customer#000004486       A8oGwjHOev3GN            EGYPT    4EGYPT          MIDDLE EAST 14-744-604-3185FURNITURE 
4494      Customer#000004494       2aN6CRsAtBxPTlzlbBX      VIETNAM  3VIETNAM        ASIA        31-698-140-4653FURNITURE 
4502      Customer#000004502       b5qwAnl3xxb9rNJp45RWJT   INDIA    9INDIA          ASIA        18-667-804-1209FURNITURE 
4510      Customer#000004510       LT5KxS3SNlX9lpvoAx       MOROCCO  1MOROCCO        AFRICA      25-937-521-2181HOUSEHOLD 
4518      Customer#000004518       lrSHXKtCfFIMJ4GwQYnCH    GERMANY  4GERMANY        EUROPE      17-122-172-9647MACHINERY 
4526      Customer#000004526       sNbMj1UBep5B57bfWe       BRAZIL   1BRAZIL         AMERICA     12-336-262-4043BUILDING  
4534      Customer#000004534       VMosZaOp                 IRAN     2IRAN           MIDDLE EAST 20-161-623-5413FURNITURE 
4542      Customer#000004542       8db2udFycdp              CHINA    0CHINA          ASIA        28-163-517-2071BUILDING  
4550      Customer#000004550       ,LZnzGQLzJ88sJMjc        UNITED ST9UNITED STATES  AMERICA     34-402-643-6196BUILDING  
4558      Customer#000004558        Q,cHloag9v2UlODYTQUs    FRANCE   5FRANCE         EUROPE      16-772-277-1476HOUSEHOLD 
4566      Customer#000004566       rx7eEJappVzFdw           PERU     5PERU           AMERICA     27-540-497-7494FURNITURE 
4574      Customer#000004574       X51eQ9RW0PVs6 xC         UNITED ST3UNITED STATES  AMERICA     34-635-199-5825BUILDING  
4582      Customer#000004582       S8eaHPVS6L6dQ6tMnZYHQti  KENYA    9KENYA          AFRICA      24-558-225-4141MACHINERY 
4590      Customer#000004590       GvmkCAymvhQ,eo0NP        SAUDI ARA5SAUDI ARABIA   MIDDLE EAST 30-286-524-8945HOUSEHOLD 
4598      Customer#000004598       RcYFIkjSI                MOROCCO  8MOROCCO        AFRICA      25-628-438-6401AUTOMOBILE
4606      Customer#000004606       ZWgnRJ,Mw                UNITED KI4UNITED KINGDOM EUROPE      33-957-733-9032BUILDING  
4614      Customer#000004614       8pd7tkX,dgS2Picsfpx      IRAN     1IRAN           MIDDLE EAST 20-578-518-4446MACHINERY 
4622      Customer#000004622       s1VRoMfe,Vi,bRLA         RUSSIA   4RUSSIA         EUROPE      32-584-798-4162HOUSEHOLD 
4630      Customer#000004630       qWkIuz Wihx3Up2Lg8mt     ALGERIA  8ALGERIA        AFRICA      10-405-464-1517AUTOMOBILE
4638      Customer#000004638       DohGlzpoymhxrQulOWdxmdx  JORDAN   3JORDAN         MIDDLE EAST 23-283-950-6423MACHINERY 
4646      Customer#000004646       GgQQYN7IQ33wksc4aF       MOZAMBIQU6MOZAMBIQUE     AFRICA      26-525-200-5683HOUSEHOLD 
4654      Customer#000004654       guQGAM5qCqbVu            VIETNAM  4VIETNAM        ASIA        31-758-176-6446BUILDING  
4662      Customer#000004662       ,Twx1W g48VbctmPj7Gbm    ROMANIA  6ROMANIA        EUROPE      29-316-824-6588MACHINERY 
4670      Customer#000004670       L6WZdmYAj7O clFltgp      ETHIOPIA 8ETHIOPIA       AFRICA      15-635-572-7626MACHINERY 
4678      Customer#000004678       ePyzJL ZbTWAythv9jC qL   JORDAN   4JORDAN         MIDDLE EAST 23-250-614-3697HOUSEHOLD 
4686      Customer#000004686       CyrmAO                   ALGERIA  1ALGERIA        AFRICA      10-476-973-6521MACHINERY 
4694      Customer#000004694       A7P4j5BJils              PERU     7PERU           AMERICA     27-114-407-9281AUTOMOBILE
4702      Customer#000004702        9,aQr                   MOZAMBIQU2MOZAMBIQUE     AFRICA      26-164-209-6176AUTOMOBILE
4710      Customer#000004710       T6YENtYlJC lV8WZmP       IRAQ     1IRAQ           MIDDLE EAST 21-890-938-4351FURNITURE 
4718      Customer#000004718       pLr6NrlZySPgEv1t7        FRANCE   3FRANCE         EUROPE      16-295-133-5822BUILDING  
4726      Customer#000004726       V4sQCuB9w28i             MOROCCO  6MOROCCO        AFRICA      25-498-186-6326AUTOMOBILE
4734      Customer#000004734       HgTxx0hzY72 3TPqNFKH3v   CHINA    6CHINA          ASIA        28-122-961-9712MACHINERY 
4742      Customer#000004742       e,YbWnDy342QiWYZr duuMG  EGYPT    7EGYPT          MIDDLE EAST 14-246-608-5952BUILDING  
4750      Customer#000004750       pysLVv8bm                BRAZIL   9BRAZIL         AMERICA     12-733-844-5150AUTOMOBILE
4758      Customer#000004758       8,CEa8                   MOZAMBIQU9MOZAMBIQUE     AFRICA      26-417-301-1486HOUSEHOLD 
4766      Customer#000004766       046QBoD                  KENYA    9KENYA          AFRICA      24-928-827-6102HOUSEHOLD 
4774      Customer#000004774       b38g828QM2D7eR           UNITED KI2UNITED KINGDOM EUROPE      33-706-742-6615FURNITURE 
4782      Customer#000004782       jXMKUthf N               JORDAN   3JORDAN         MIDDLE EAST 23-862-914-4188FURNITURE 
4790      Customer#000004790       6XcMDIoRXgBIdJrKb,i      BRAZIL   1BRAZIL         AMERICA     12-369-622-2106AUTOMOBILE
4798      Customer#000004798       fMOOWge                  CANADA   7CANADA         AMERICA     13-235-973-5780AUTOMOBILE
4806      Customer#000004806       C2dC7No h890BFYIRJxX0    PERU     5PERU           AMERICA     27-524-705-2970AUTOMOBILE
4814      Customer#000004814       UBPgRMJgCW UBq3Fw        ALGERIA  7ALGERIA        AFRICA      10-460-510-2640HOUSEHOLD 
4822      Customer#000004822       TP2iJvR8                 PERU     6PERU           AMERICA     27-359-567-6390FURNITURE 
4830      Customer#000004830       2JfcUg                   KENYA    0KENYA          AFRICA      24-315-644-1599MACHINERY 
4838      Customer#000004838       4Mwv5qpNlmoAHAObDav      JORDAN   5JORDAN         MIDDLE EAST 23-783-410-6973AUTOMOBILE
4846      Customer#000004846       KctEbXrSNOed7XNLXv88     ARGENTINA5ARGENTINA      AMERICA     11-946-521-4665FURNITURE 
4854      Customer#000004854       VvB9zSU1tJeOZu9HMVYB     MOZAMBIQU7MOZAMBIQUE     AFRICA      26-205-317-2014BUILDING  
4862      Customer#000004862       2mG vI ANoHh6Ec9dbKXOK   PERU     9PERU           AMERICA     27-611-715-6661AUTOMOBILE
4870      Customer#000004870       pX1rEWqpr                GERMANY  6GERMANY        EUROPE      17-885-878-5643FURNITURE 
4878      Customer#000004878       sWVR4r                   JAPAN    0JAPAN          ASIA        22-211-282-3991FURNITURE 
4886      Customer#000004886       Jk3diN                   MOZAMBIQU4MOZAMBIQUE     AFRICA      26-994-871-1117AUTOMOBILE
4894      Customer#000004894       BOOnIYpMA79Gihg BYZ      SAUDI ARA0SAUDI ARABIA   MIDDLE EAST 30-883-319-8150HOUSEHOLD 
4902      Customer#000004902       iSta1LjsDz               UNITED ST2UNITED STATES  AMERICA     34-576-248-9980MACHINERY 
4910      Customer#000004910       4A3E4n0RFUK7             FRANCE   5FRANCE         EUROPE      16-426-208-1337AUTOMOBILE
4918      Customer#000004918       hUUnu5                   VIETNAM  0VIETNAM        ASIA        31-728-542-6431HOUSEHOLD 
4926      Customer#000004926       EWIj7Hn73bTOp4v          CHINA    5CHINA          ASIA        28-594-669-7908MACHINERY 
4934      Customer#000004934       ziPaFzTMEZh              CHINA    8CHINA          ASIA        28-473-810-5014BUILDING  
4942      Customer#000004942       YFI H1eDlt               MOZAMBIQU9MOZAMBIQUE     AFRICA      26-261-571-3965HOUSEHOLD 
4950      Customer#000004950       cDoYnblw                 KENYA    7KENYA          AFRICA      24-998-957-6592HOUSEHOLD 
4958      Customer#000004958       JpVtJM                   VIETNAM  6VIETNAM        ASIA        31-929-881-5568HOUSEHOLD 
4966      Customer#000004966       wI3tUMtv                 IRAN     6IRAN           MIDDLE EAST 20-262-764-9888MACHINERY 
4974      Customer#000004974       ZwfDTGFq2gwsTDFHG        ALGERIA  9ALGERIA        AFRICA      10-623-241-2219FURNITURE 
4982      Customer#000004982       GD byKOM1dM              PERU     2PERU           AMERICA     27-236-884-7956AUTOMOBILE
4990      Customer#000004990       UMnBnSsI                 KENYA    9KENYA          AFRICA      24-483-717-2352HOUSEHOLD 
4998      Customer#000004998       C9JBdoUrxO2              UNITED ST5UNITED STATES  AMERICA     34-455-333-4949MACHINERY 
5006      Customer#000005006       B1wJgb11sz7Q             VIETNAM  6VIETNAM        ASIA        31-973-476-6849AUTOMOBILE
5014      Customer#000005014       0TjAlGIj6U3EZyCGw        VIETNAM  5VIETNAM        ASIA        31-256-634-8950MACHINERY 
5022      Customer#000005022       kVlKnj41zh,RbI2mpg5D2H   ARGENTINA2ARGENTINA      AMERICA     11-994-503-4370FURNITURE 
5030      Customer#000005030       xYBMdMVwJ                EGYPT    8EGYPT          MIDDLE EAST 14-781-999-1368AUTOMOBILE
5038      Customer#000005038       wvq0i9J4IFOhL            CHINA    1CHINA          ASIA        28-588-461-7144HOUSEHOLD 
5046      Customer#000005046       6nwxc3                   FRANCE   8FRANCE         EUROPE      16-689-944-3314FURNITURE 
5054      Customer#000005054       Jy1ECMD1k6dyPUPaI1       UNITED ST7UNITED STATES  AMERICA     34-495-451-3448FURNITURE 
5062      Customer#000005062       3Zl3Ui                   INDONESIA1INDONESIA      ASIA        19-943-961-1224MACHINERY 
5070      Customer#000005070       wIUOu7CoTfzX47wV9        JORDAN   6JORDAN         MIDDLE EAST 23-138-449-7735MACHINERY 
5078      Customer#000005078       i5swVIJJJs4zEMO          EGYPT    3EGYPT          MIDDLE EAST 14-317-716-6039MACHINERY 
5086      Customer#000005086       LRNeYhJ5dToyTpQBO        UNITED KI9UNITED KINGDOM EUROPE      33-421-393-4154BUILDING  
5094      Customer#000005094       QJCJdSQR                 ETHIOPIA 8ETHIOPIA       AFRICA      15-939-222-9045HOUSEHOLD 
5102      Customer#000005102       GJVoDuFOBCX              ROMANIA  4ROMANIA        EUROPE      29-703-598-3481AUTOMOBILE
5110      Customer#000005110       f1st4Hc4Ee hud2T2i9wuWIx RUSSIA   1RUSSIA         EUROPE      32-327-233-8555FURNITURE 
5118      Customer#000005118       8Ls4H0s                  UNITED KI8UNITED KINGDOM EUROPE      33-266-866-7829AUTOMOBILE
5126      Customer#000005126       7a1b6lV1tSZbVwDjjqgqal0  ROMANIA  8ROMANIA        EUROPE      29-787-322-5679AUTOMOBILE
5134      Customer#000005134       d3SN0g9Dm                MOROCCO  1MOROCCO        AFRICA      25-676-354-4505HOUSEHOLD 
5142      Customer#000005142       t7R18RttFsr              KENYA    6KENYA          AFRICA      24-638-218-2368BUILDING  
5150      Customer#000005150       nSSE4h,DdglCX6JOjUny0RVa JORDAN   5JORDAN         MIDDLE EAST 23-333-513-5933BUILDING  
5158      Customer#000005158       vcPqWwnV0,cfKv89zUI6Z    IRAQ     6IRAQ           MIDDLE EAST 21-385-738-1980MACHINERY 
5166      Customer#000005166       YDxqr8w8Ti0Q             CANADA   5CANADA         AMERICA     13-894-144-2665BUILDING  
5174      Customer#000005174       eZNYA8pLk7CfkLr7Ybk      CHINA    9CHINA          ASIA        28-493-519-3698BUILDING  
5182      Customer#000005182       oJGUorgu9kc5CD3um        SAUDI ARA5SAUDI ARABIA   MIDDLE EAST 30-325-911-8233BUILDING  
5190      Customer#000005190       WJua269                  MOZAMBIQU6MOZAMBIQUE     AFRICA      26-330-564-1437BUILDING  
5198      Customer#000005198       v cGUCTZMZh74USKLfCFun4s IRAQ     0IRAQ           MIDDLE EAST 21-859-451-4854MACHINERY 
5206      Customer#000005206       tNVFhlWjPtoZY            ROMANIA  9ROMANIA        EUROPE      29-502-609-9795FURNITURE 
5214      Customer#000005214       LYSkHUvTP                PERU     7PERU           AMERICA     27-697-238-9487HOUSEHOLD 
5222      Customer#000005222       qeb82CbLWL c             GERMANY  7GERMANY        EUROPE      17-792-828-4585MACHINERY 
5230      Customer#000005230       7XDvxHj0TW3XKoLOn1lO6Tf  MOROCCO  7MOROCCO        AFRICA      25-332-694-3635FURNITURE 
5238      Customer#000005238       3zvGRqiFEn4              JAPAN    0JAPAN          ASIA        22-107-855-3883FURNITURE 
5246      Customer#000005246       9R97O3rDFrjBltoaOTi      IRAQ     4IRAQ           MIDDLE EAST 21-125-903-1082AUTOMOBILE
5254      Customer#000005254       8nMTnAzJFYM41Dv          PERU     4PERU           AMERICA     27-631-123-4222MACHINERY 
5262      Customer#000005262       gG0Fu3Kqn                EGYPT    2EGYPT          MIDDLE EAST 14-550-302-4263FURNITURE 
5270      Customer#000005270       PRa,lcTXW,cn7LoO,ot3TIn  SAUDI ARA8SAUDI ARABIA   MIDDLE EAST 30-806-229-5202HOUSEHOLD 
5278      Customer#000005278       gFfW1qgudI0Nz4ITO        INDONESIA8INDONESIA      ASIA        19-890-886-7980HOUSEHOLD 
5286      Customer#000005286       nBPf1ix3Zx4YleKJ         INDIA    8INDIA          ASIA        18-992-437-7949FURNITURE 
5294      Customer#000005294       WzjzxvsYAZ1e3Gy9EiqneCL  JAPAN    6JAPAN          ASIA        22-300-933-9297HOUSEHOLD 
5302      Customer#000005302       kod4iYdFlfmFP11eRpH5     VIETNAM  0VIETNAM        ASIA        31-795-556-2252FURNITURE 
5310      Customer#000005310       AcV1FboVprDAwMMde        BRAZIL   2BRAZIL         AMERICA     12-249-660-9378MACHINERY 
5318      Customer#000005318       xTor73JvzENCPuDebV       UNITED KI7UNITED KINGDOM EUROPE      33-846-933-2541BUILDING  
5326      Customer#000005326       1d8kdlmeRwAx6            UNITED ST9UNITED STATES  AMERICA     34-731-478-1831BUILDING  
5334      Customer#000005334       Taweklu6yH M3iKm,9tKb5nF JAPAN    0JAPAN          ASIA        22-858-426-4297AUTOMOBILE
5342      Customer#000005342       WkvxfwJIEzmrd            INDIA    6INDIA          ASIA        18-677-105-8651AUTOMOBILE
5350      Customer#000005350       C191HN,4EvNt6vsCHQqGzb   KENYA    6KENYA          AFRICA      24-155-705-2954MACHINERY 
5358      Customer#000005358       IkSvBOYqUU fqom xG       JORDAN   8JORDAN         MIDDLE EAST 23-569-349-5610HOUSEHOLD 
5366      Customer#000005366       F7VzaZTJOrfkKu           GERMANY  1GERMANY        EUROPE      17-493-347-4163MACHINERY 
5374      Customer#000005374       AJ2ZPWvlZgvuL,x          ALGERIA  9ALGERIA        AFRICA      10-646-440-8431AUTOMOBILE
5382      Customer#000005382       rXrcov1lZE               SAUDI ARA0SAUDI ARABIA   MIDDLE EAST 30-977-566-2969FURNITURE 
5390      Customer#000005390       PeKpJBlq2ELWpiT8CnoE     RUSSIA   7RUSSIA         EUROPE      32-916-719-2120FURNITURE 
5398      Customer#000005398       m,ABJJ6t2p7aeEjZlY       IRAQ     7IRAQ           MIDDLE EAST 21-141-690-4575BUILDING  
5406      Customer#000005406       BPMDDfSEOHupARLVN0ne     KENYA    0KENYA          AFRICA      24-411-659-1030AUTOMOBILE
5414      Customer#000005414       ip1QvG0j1t               BRAZIL   7BRAZIL         AMERICA     12-313-588-2234HOUSEHOLD 
5422      Customer#000005422       7RdcBlOW7ioJwExnyMgsI    UNITED KI8UNITED KINGDOM EUROPE      33-812-685-2702HOUSEHOLD 
5430      Customer#000005430       hNDXp0Y V                ROMANIA  7ROMANIA        EUROPE      29-213-796-1552FURNITURE 
5438      Customer#000005438       JJfKdWaPb                IRAN     7IRAN           MIDDLE EAST 20-134-551-3376HOUSEHOLD 
5446      Customer#000005446       NPuxl2sOAbpy2CPTWk       INDIA    9INDIA          ASIA        18-701-675-9357BUILDING  
5454      Customer#000005454       DooEsRCE2Sy3u0pK5        ETHIOPIA 2ETHIOPIA       AFRICA      15-625-844-9327FURNITURE 
5462      Customer#000005462       OUfc4o5h HMUp2Dq         ALGERIA  7ALGERIA        AFRICA      10-250-828-5444FURNITURE 
5470      Customer#000005470       hmyiEN                   KENYA    5KENYA          AFRICA      24-960-522-5529MACHINERY 
5478      Customer#000005478       tc6fRmXIzRKu,            INDIA    5INDIA          ASIA        18-841-446-9926FURNITURE 
5486      Customer#000005486       owhHeupbEc               MOROCCO  2MOROCCO        AFRICA      25-132-816-4362MACHINERY 
5494      Customer#000005494       XvN94NavHB s7IH3         KENYA    2KENYA          AFRICA      24-555-330-9852HOUSEHOLD 
5502      Customer#000005502       HVM01iPBPO,9G            GERMANY  3GERMANY        EUROPE      17-939-282-8074MACHINERY 
5510      Customer#000005510       EftheGJNmaRHVzCNBlc9Kw   ROMANIA  8ROMANIA        EUROPE      29-943-904-4223BUILDING  
5518      Customer#000005518       xQ8XmT                   ARGENTINA1ARGENTINA      AMERICA     11-500-675-6920BUILDING  
5526      Customer#000005526       CjTM5lKzUInbvoBugvz      MOROCCO  6MOROCCO        AFRICA      25-229-969-8268AUTOMOBILE
5534      Customer#000005534       J 4cxQH55EZvXrSe1        UNITED KI2UNITED KINGDOM EUROPE      33-596-322-8691HOUSEHOLD 
5542      Customer#000005542       4d8ymo0tosgiaEp4pYb8XRZB PERU     5PERU           AMERICA     27-306-557-6530BUILDING  
5550      Customer#000005550       IihYVNp48LCQbX           ALGERIA  1ALGERIA        AFRICA      10-697-350-4516AUTOMOBILE
5558      Customer#000005558       fQHu9,2cf                BRAZIL   4BRAZIL         AMERICA     12-972-600-7663MACHINERY 
5566      Customer#000005566       I5hTRJpLfNxvKK7Iv        INDONESIA1INDONESIA      ASIA        19-738-287-8393FURNITURE 
5574      Customer#000005574        5m0pEtbDEN8iqROJ        PERU     1PERU           AMERICA     27-836-714-8494BUILDING  
5582      Customer#000005582       eGjDZKBV6bQge85          MOROCCO  9MOROCCO        AFRICA      25-765-843-8927AUTOMOBILE
5590      Customer#000005590       zATBBfmbmITmWYqa0OJX     VIETNAM  9VIETNAM        ASIA        31-969-973-7542FURNITURE 
5598      Customer#000005598       RUIPuR                   JAPAN    9JAPAN          ASIA        22-554-259-7979FURNITURE 
5606      Customer#000005606       ZekIELa                  VIETNAM  9VIETNAM        ASIA        31-260-555-1102MACHINERY 
5614      Customer#000005614       KI3ioSXrdJJ              KENYA    1KENYA          AFRICA      24-378-283-6293MACHINERY 
5622      Customer#000005622       o865QWXZcdL1KCczSLJm     ALGERIA  4ALGERIA        AFRICA      10-301-718-2655BUILDING  
5630      Customer#000005630       UhV2XD7LmwtoxRRVk        GERMANY  5GERMANY        EUROPE      17-889-797-1301FURNITURE 
5638      Customer#000005638       rmcom4SijG,              FRANCE   4FRANCE         EUROPE      16-771-220-6202BUILDING  
5646      Customer#000005646       uYmywKgCWuOyq3U          ALGERIA  6ALGERIA        AFRICA      10-334-378-4952AUTOMOBILE
5654      Customer#000005654       7gcJpKfpjMwxNasHdTplr6   UNITED KI7UNITED KINGDOM EUROPE      33-824-284-7939FURNITURE 
5662      Customer#000005662       ,i0NuXmRGtbw0gBAL        ALGERIA  1ALGERIA        AFRICA      10-544-762-1712AUTOMOBILE
5670      Customer#000005670       fwem9JfKVGyc6de e3       PERU     9PERU           AMERICA     27-220-552-4038BUILDING  
5678      Customer#000005678       xCbVzvhQ04QD             GERMANY  5GERMANY        EUROPE      17-359-728-8855MACHINERY 
5686      Customer#000005686       nVOtK6cyGYV              INDIA    0INDIA          ASIA        18-125-127-3650MACHINERY 
5694      Customer#000005694       0Ao8 yB                  IRAQ     9IRAQ           MIDDLE EAST 21-482-191-4968BUILDING  
5702      Customer#000005702       otEcWN,wrRycbRO          BRAZIL   0BRAZIL         AMERICA     12-553-771-9108HOUSEHOLD 
5710      Customer#000005710       JkvVtO                   ARGENTINA7ARGENTINA      AMERICA     11-664-229-2595FURNITURE 
5718      Customer#000005718       eOTctRmfozU0QDN          ROMANIA  2ROMANIA        EUROPE      29-609-438-3632HOUSEHOLD 
5726      Customer#000005726       yOWw0vznU8z              SAUDI ARA2SAUDI ARABIA   MIDDLE EAST 30-681-231-3029BUILDING  
5734      Customer#000005734       uEHpSmLWrYRoiEN          INDIA    8INDIA          ASIA        18-521-317-9679HOUSEHOLD 
5742      Customer#000005742       nteuCpdYBNM47kkf6O       CANADA   2CANADA         AMERICA     13-203-968-6977BUILDING  
5750      Customer#000005750       pTANFrZT                 EGYPT    2EGYPT          MIDDLE EAST 14-680-230-8379BUILDING  
5758      Customer#000005758       ,LsNsaD2w42wYhVcu I2A    RUSSIA   4RUSSIA         EUROPE      32-688-430-9819BUILDING  
5766      Customer#000005766       Psqgt7h1                 UNITED KI1UNITED KINGDOM EUROPE      33-401-679-2656HOUSEHOLD 
5774      Customer#000005774       8H8f,1 UNvfYtFKDcWwU     UNITED KI7UNITED KINGDOM EUROPE      33-357-497-7657MACHINERY 
5782      Customer#000005782       CvLnAR0V,1qyKrQT0Nw8     EGYPT    7EGYPT          MIDDLE EAST 14-502-271-4254HOUSEHOLD 
5790      Customer#000005790       a17uEASY4y               INDONESIA8INDONESIA      ASIA        19-689-228-1689AUTOMOBILE
5798      Customer#000005798       4cLxQFlIQNjFflRtcF35tnDY UNITED ST4UNITED STATES  AMERICA     34-693-182-3733BUILDING  
5806      Customer#000005806       QLPy3ZJZdJ0PtlpHs18      PERU     4PERU           AMERICA     27-852-363-4432FURNITURE 
5814      Customer#000005814       6qiSj7313sxpm8ses3       IRAN     1IRAN           MIDDLE EAST 20-940-986-6709AUTOMOBILE
5822      Customer#000005822       qVKcl3FhV6q1QNMq         RUSSIA   9RUSSIA         EUROPE      32-461-210-2786HOUSEHOLD 
5830      Customer#000005830       iRZf6wVu1fJ1ht           CANADA   5CANADA         AMERICA     13-240-853-9327MACHINERY 
5838      Customer#000005838       Oow5gNmeXlce             UNITED KI2UNITED KINGDOM EUROPE      33-345-209-9683AUTOMOBILE
5846      Customer#000005846       8STnoA4jlE3ym3oTK5ioE    ARGENTINA4ARGENTINA      AMERICA     11-918-565-5349HOUSEHOLD 
5854      Customer#000005854       ucO9RN2dz7F              KENYA    6KENYA          AFRICA      24-511-805-3771BUILDING  
5862      Customer#000005862       Cp9Hsl8zodYquMEA         PERU     7PERU           AMERICA     27-193-803-2997FURNITURE 
5870      Customer#000005870       anSTr1UwiNcm             ARGENTINA9ARGENTINA      AMERICA     11-388-893-3309FURNITURE 
5878      Customer#000005878       a0EfIDrCoByI4ra          CANADA   4CANADA         AMERICA     13-309-127-5070HOUSEHOLD 
5886      Customer#000005886       Vex1YXnfZpz,l            ARGENTINA6ARGENTINA      AMERICA     11-753-719-7559BUILDING  
5894      Customer#000005894       zqT7oxb2LYw2uchv1x xaN   UNITED ST5UNITED STATES  AMERICA     34-319-826-8566FURNITURE 
5902      Customer#000005902       Y5kxLrRBzX6yrKFLBjCdAs   PERU     8PERU           AMERICA     27-391-855-6786FURNITURE 
5910      Customer#000005910       302m8mumChg4UZPRG8X      CHINA    8CHINA          ASIA        28-343-828-6153FURNITURE 
5918      Customer#000005918       Es5wBorxROqvp4O17        INDIA    3INDIA          ASIA        18-369-119-4636MACHINERY 
5926      Customer#000005926       AHtGXKxA3VtMYO3d         UNITED KI7UNITED KINGDOM EUROPE      33-407-597-8381HOUSEHOLD 
5934      Customer#000005934       sBmAzM87iB7              BRAZIL   3BRAZIL         AMERICA     12-279-736-1260HOUSEHOLD 
5942      Customer#000005942       8GAL3j6uQckW3OIz         ARGENTINA4ARGENTINA      AMERICA     11-546-325-6524BUILDING  
5950      Customer#000005950       a9BJyKxGyVtNCkERG        IRAN     7IRAN           MIDDLE EAST 20-331-749-3633MACHINERY 
5958      Customer#000005958       w0S,F7Ax6Dgwns9xmi       FRANCE   8FRANCE         EUROPE      16-238-946-8053BUILDING  
5966      Customer#000005966       Up JUT                   IRAQ     1IRAQ           MIDDLE EAST 21-467-108-6285FURNITURE 
5974      Customer#000005974       AZrtyY                   IRAQ     2IRAQ           MIDDLE EAST 21-179-942-5495FURNITURE 
5982      Customer#000005982       pzJf,HTfaWUwKh           JORDAN   5JORDAN         MIDDLE EAST 23-527-418-6603BUILDING  
5990      Customer#000005990       7qwkqFjAa,UT             INDONESIA1INDONESIA      ASIA        19-614-427-7810BUILDING  
5998      Customer#000005998       Hv1H9pHBX7fBhlXDAf0SD    IRAQ     6IRAQ           MIDDLE EAST 21-125-886-7587FURNITURE 
6006      Customer#000006006       5VfR3EWqbrt              INDIA    4INDIA          ASIA        18-734-555-9141FURNITURE 
6014      Customer#000006014       ZB9wS3fmWrQi8cZil6mzcKYo UNITED ST8UNITED STATES  AMERICA     34-892-812-9081BUILDING  
6022      Customer#000006022       z9Gbi2AkLS0s6HNID        IRAN     7IRAN           MIDDLE EAST 20-713-847-4297BUILDING  
6030      Customer#000006030       thigRH2AJJ5ay1akT        ALGERIA  7ALGERIA        AFRICA      10-117-196-4936BUILDING  
6038      Customer#000006038        bIKiOVO1JVZiEtTF        INDONESIA0INDONESIA      ASIA        19-578-575-5170AUTOMOBILE
6046      Customer#000006046       3pqu0wwA N               ARGENTINA8ARGENTINA      AMERICA     11-485-986-9326FURNITURE 
6054      Customer#000006054       bXUQWTwB29ox1ga          FRANCE   5FRANCE         EUROPE      16-195-783-1840HOUSEHOLD 
6062      Customer#000006062       UtdDwozzDv               CANADA   4CANADA         AMERICA     13-381-398-7896FURNITURE 
6070      Customer#000006070       0Pycomq4a6KgwcZYyaH      KENYA    9KENYA          AFRICA      24-728-381-6789AUTOMOBILE
6078      Customer#000006078       SBe5gejY                 INDONESIA3INDONESIA      ASIA        19-972-285-9640MACHINERY 
6086      Customer#000006086       kBBqMZHke10d             SAUDI ARA9SAUDI ARABIA   MIDDLE EAST 30-626-870-1329MACHINERY 
6094      Customer#000006094       X7kFGROKaQp              JAPAN    2JAPAN          ASIA        22-828-758-1575FURNITURE 
6102      Customer#000006102       s5ViRaDEjv2              CANADA   1CANADA         AMERICA     13-463-425-8623HOUSEHOLD 
6110      Customer#000006110       FAxMqfH                  INDIA    9INDIA          ASIA        18-868-843-6156BUILDING  
6118      Customer#000006118       GZJ6Dctbr                IRAQ     7IRAQ           MIDDLE EAST 21-688-394-8695HOUSEHOLD 
6126      Customer#000006126       7NRolRPvqN               UNITED KI3UNITED KINGDOM EUROPE      33-568-919-6238BUILDING  
6134      Customer#000006134        DMIOsEg5VDDKmWzjjS      INDIA    4INDIA          ASIA        18-635-120-8336FURNITURE 
6142      Customer#000006142       6rJlz 6aiuuf             GERMANY  6GERMANY        EUROPE      17-219-300-8557BUILDING  
6150      Customer#000006150       aX47rrqgyvzy74tFd        BRAZIL   2BRAZIL         AMERICA     12-485-377-6576BUILDING  
6158      Customer#000006158       GmqBG39Qi                IRAN     1IRAN           MIDDLE EAST 20-148-506-2098FURNITURE 
6166      Customer#000006166       df2AQz9BJgmAj            KENYA    1KENYA          AFRICA      24-143-497-9144HOUSEHOLD 
6174      Customer#000006174       UOkeiQv5WK1OBw5C         IRAQ     3IRAQ           MIDDLE EAST 21-982-522-9035FURNITURE 
6182      Customer#000006182       8U367QGaD8IUUdHyHtwSj3pm FRANCE   1FRANCE         EUROPE      16-938-443-8387AUTOMOBILE
6190      Customer#000006190       mV9CzSEQr,nE3CC          BRAZIL   0BRAZIL         AMERICA     12-166-873-5923MACHINERY 
6198      Customer#000006198       OglD6pbHC9ovv2mfZ rDO    UNITED KI1UNITED KINGDOM EUROPE      33-944-777-7870FURNITURE 
6206      Customer#000006206       EZ6yws0Gmt               EGYPT    3EGYPT          MIDDLE EAST 14-654-465-8664HOUSEHOLD 
6214      Customer#000006214        ,MAKZxDGF3QKwDERi       RUSSIA   0RUSSIA         EUROPE      32-698-938-7035HOUSEHOLD 
6222      Customer#000006222       8p2FbclgqcvoFR2          INDIA    4INDIA          ASIA        18-327-357-9370FURNITURE 
6230      Customer#000006230       MGXvPZQ6UMzc4Pb          CHINA    3CHINA          ASIA        28-138-912-3352MACHINERY 
6238      Customer#000006238       AckKNmINwCbVw kC5bZ0u    MOROCCO  8MOROCCO        AFRICA      25-304-265-2776HOUSEHOLD 
6246      Customer#000006246       5l,sIIFQV                IRAN     0IRAN           MIDDLE EAST 20-462-369-3324FURNITURE 
6254      Customer#000006254       XpXxuBjXYzFBXCvTp8sO4    JAPAN    0JAPAN          ASIA        22-716-841-7683FURNITURE 
6262      Customer#000006262       HlUg CpG1                KENYA    2KENYA          AFRICA      24-796-188-7756FURNITURE 
6270      Customer#000006270       PGn,pJmM gsA1tDtDbb      CHINA    3CHINA          ASIA        28-665-716-6571AUTOMOBILE
6278      Customer#000006278       F kMurdAhFU0C2KEiojmsS   ETHIOPIA 6ETHIOPIA       AFRICA      15-309-674-7121AUTOMOBILE
6286      Customer#000006286       WbndcI8V39JL1oxV         MOZAMBIQU9MOZAMBIQUE     AFRICA      26-538-777-4670AUTOMOBILE
6294      Customer#000006294       TEYcUTvYiWvxYjLqLx1a7dI  IRAN     0IRAN           MIDDLE EAST 20-668-735-2642AUTOMOBILE
6302      Customer#000006302       Pmy5pzuh1YeOHkpciY0bCwM  IRAQ     0IRAQ           MIDDLE EAST 21-670-961-9274AUTOMOBILE
6310      Customer#000006310       n2yStHsm                 FRANCE   0FRANCE         EUROPE      16-331-349-9843AUTOMOBILE
6318      Customer#000006318       iYPP2u47,                VIETNAM  4VIETNAM        ASIA        31-426-578-2678BUILDING  
6326      Customer#000006326       Vvne n,VXT ykC6eBZ202wy4 INDONESIA1INDONESIA      ASIA        19-972-536-4510MACHINERY 
6334      Customer#000006334       RwSGFTlf,                UNITED ST2UNITED STATES  AMERICA     34-344-596-3735HOUSEHOLD 
6342      Customer#000006342       70kmTAuDuG9pOnUUXeUp     IRAQ     4IRAQ           MIDDLE EAST 21-250-771-5732BUILDING  
6350      Customer#000006350       9PHlaqUJG84              INDONESIA2INDONESIA      ASIA        19-341-565-3204FURNITURE 
6358      Customer#000006358       aynGZ5F8MJIzxoEJ         MOZAMBIQU9MOZAMBIQUE     AFRICA      26-124-325-1349AUTOMOBILE
6366      Customer#000006366       EAiyyzQp,q7GUp0wQzTh     JAPAN    6JAPAN          ASIA        22-902-451-9086FURNITURE 
6374      Customer#000006374       6U,tnx3EQ6ymmLLtrRYD8F   SAUDI ARA4SAUDI ARABIA   MIDDLE EAST 30-188-161-6692AUTOMOBILE
6382      Customer#000006382       iT3z1RZJfuFhTVQWn gUQQ   ETHIOPIA 5ETHIOPIA       AFRICA      15-692-787-5254MACHINERY 
6390      Customer#000006390       bn2EoZThG0               PERU     9PERU           AMERICA     27-840-816-4622AUTOMOBILE
6398      Customer#000006398       nE3eEiDx                 ETHIOPIA 0ETHIOPIA       AFRICA      15-108-947-4744AUTOMOBILE
6406      Customer#000006406       lL3dzJv7lVqtqz,DiuUH     VIETNAM  2VIETNAM        ASIA        31-396-319-9088AUTOMOBILE
6414      Customer#000006414       3mdeAURniRP              UNITED ST2UNITED STATES  AMERICA     34-961-540-9706AUTOMOBILE
6422      Customer#000006422       ZltvyX                   BRAZIL   6BRAZIL         AMERICA     12-607-523-4579HOUSEHOLD 
6430      Customer#000006430       xXFJR6GUfqeCyN5P         IRAQ     2IRAQ           MIDDLE EAST 21-126-185-5115BUILDING  
6438      Customer#000006438       RyVaFQyhkoAS             CANADA   9CANADA         AMERICA     13-268-611-3527BUILDING  
6446      Customer#000006446       V0Dd,KY57jzAlKGMwRdstq   BRAZIL   2BRAZIL         AMERICA     12-773-222-7598FURNITURE 
6454      Customer#000006454       ypyPdN8tQvcYERe          ARGENTINA0ARGENTINA      AMERICA     11-690-753-2681FURNITURE 
6462      Customer#000006462       3njV5Ft7NhNxW50neyjlr    CHINA    2CHINA          ASIA        28-633-180-7883AUTOMOBILE
6470      Customer#000006470       BHgwAOTI0WRe             UNITED ST0UNITED STATES  AMERICA     34-745-307-6485HOUSEHOLD 
6478      Customer#000006478       E1ZXZROw4YB              FRANCE   3FRANCE         EUROPE      16-572-755-1339MACHINERY 
6486      Customer#000006486       huOvXcWg648ez            IRAQ     2IRAQ           MIDDLE EAST 21-131-912-4745MACHINERY 
6494      Customer#000006494       Vu5i1odOtPFZVNY5         JAPAN    2JAPAN          ASIA        22-411-674-4635HOUSEHOLD 
6502      Customer#000006502       mbRY4j                   IRAQ     9IRAQ           MIDDLE EAST 21-148-267-3757BUILDING  
