2         Customer#000000002       XSTf4,NCwDVaWNe6tE       JORDAN   6JORDAN         MIDDLE EAST 23-453-414-8560AUTOMOBILE
10        Customer#000000010       6LrEaV6KR6PLVcgl2ArL     ETHIOPIA 5ETHIOPIA       AFRICA      15-147-978-7806HOUSEHOLD 
18        Customer#000000018       3txGO AiuFux3zT          FRANCE   8FRANCE         EUROPE      16-527-774-2928BUILDING  
26        Customer#000000026       8ljrc5ZeM                RUSSIA   5RUSSIA         EUROPE      32-931-167-1329AUTOMOBILE
34        Customer#000000034       Q6G9wZ6dnczmtOx5         MOROCCO  3MOROCCO        AFRICA      25-486-406-5597HOUSEHOLD 
42        Customer#000000042       ziSrvy                   ETHIOPIA 7ETHIOPIA       AFRICA      15-682-140-3720BUILDING  
50        Customer#000000050       9SzDYlkzxByy             FRANCE   6FRANCE         EUROPE      16-476-444-7734MACHINERY 
58        Customer#000000058       g9ap7Dk1Sv9fcXEWjpM      JORDAN   4JORDAN         MIDDLE EAST 23-253-610-6457HOUSEHOLD 
66        Customer#000000066       XbsEqXH1ETb              RUSSIA   8RUSSIA         EUROPE      32-598-460-9697HOUSEHOLD 
74        Customer#000000074       IkJHCA3ZThF7qL7VKcr      EGYPT    1EGYPT          MIDDLE EAST 14-939-674-9873MACHINERY 
82        Customer#000000082       zhG3EZbap4c992G          CHINA    2CHINA          ASIA        28-612-266-3722AUTOMOBILE
90        Customer#000000090       QxCzH7VxxY               MOZAMBIQU2MOZAMBIQUE     AFRICA      26-184-247-5603BUILDING  
98        Customer#000000098       7yiheXNSpuE              JAPAN    8JAPAN          ASIA        22-417-280-7419BUILDING  
106       Customer#000000106       xGCOEA                   ARGENTINA0ARGENTINA      AMERICA     11-199-862-8891MACHINERY 
114       Customer#000000114       xAt 5f5                  KENYA    3KENYA          AFRICA      24-144-212-7647FURNITURE 
122       Customer#000000122       yp5slqoNd26lAENZW3       CANADA   8CANADA         AMERICA     13-931-879-1056HOUSEHOLD 
130       Customer#000000130       RKPx2OfZy0Vn 8wGWZ7F2    INDONESIA1INDONESIA      ASIA        19-923-508-5116HOUSEHOLD 
138       Customer#000000138       5uyLAeY7HIGZq            ETHIOPIA 0ETHIOPIA       AFRICA      15-736-551-6111MACHINERY 
146       Customer#000000146       GdxkdXG9u7iyI1,,         CANADA   8CANADA         AMERICA     13-738-485-1228FURNITURE 
154       Customer#000000154       2LAlU fDHkOqbXj          ROMANIA  7ROMANIA        EUROPE      29-384-675-7970FURNITURE 
162       Customer#000000162       JE398sXZt2QuKXfJd7       INDIA    1INDIA          ASIA        18-607-868-4249MACHINERY 
170       Customer#000000170       5QmxmYubNhn6HAgLwTvp     MOROCCO  0MOROCCO        AFRICA      25-368-645-3650BUILDING  
178       Customer#000000178       p HUSDg8Cgan4Fj8Drvcdz4  VIETNAM  2VIETNAM        ASIA        31-654-782-8330FURNITURE 
186       Customer#000000186       BeVr6MzaobBENXRBC        CANADA   1CANADA         AMERICA     13-978-450-8549HOUSEHOLD 
194       Customer#000000194       mksKhdWuQ1pjbc4yf        MOZAMBIQU6MOZAMBIQUE     AFRICA      26-679-573-9718HOUSEHOLD 
202       Customer#000000202       Q0uJ1frC                 GERMANY  2GERMANY        EUROPE      17-974-125-8585AUTOMOBILE
210       Customer#000000210       13cFL9sG1nrGE            SAUDI ARA0SAUDI ARABIA   MIDDLE EAST 30-270-836-4636HOUSEHOLD 
218       Customer#000000218        V1FCIeSseuyNGYfHS R     EGYPT    5EGYPT          MIDDLE EAST 14-130-183-3324MACHINERY 
226       Customer#000000226       ToEmqB90fM TkLqyE        CANADA   7CANADA         AMERICA     13-917-704-1909AUTOMOBILE
234       Customer#000000234       ILyuJbixVmrNEVxs         CHINA    1CHINA          ASIA        28-333-320-2247AUTOMOBILE
242       Customer#000000242       apgzK3HWAjKHFteJ16T      CANADA   9CANADA         AMERICA     13-206-624-9386MACHINERY 
250       Customer#000000250       9hif3yif6z8w8pW8         MOZAMBIQU1MOZAMBIQUE     AFRICA      26-361-236-9166FURNITURE 
258       Customer#000000258       7VbADek8qYezQY           JAPAN    9JAPAN          ASIA        22-573-439-6337MACHINERY 
266       Customer#000000266       VSIEruiMdDvjDaTQxk       ALGERIA  9ALGERIA        AFRICA      10-390-433-7550HOUSEHOLD 
274       Customer#000000274       adesXwNumnPqsKgsE1       ROMANIA  3ROMANIA        EUROPE      29-394-793-8821FURNITURE 
282       Customer#000000282       wcCc, y1996D             CHINA    3CHINA          ASIA        28-242-266-7616HOUSEHOLD 
290       Customer#000000290       8OlPT9G 8UqVXmV          EGYPT    3EGYPT          MIDDLE EAST 14-602-246-7245MACHINERY 
298       Customer#000000298       jFKF3w 8aegECg7mP,qt     VIETNAM  2VIETNAM        ASIA        31-996-806-5306BUILDING  
306       Customer#000000306       ADoOEIr5aQcLIoGJ         IRAN     3IRAN           MIDDLE EAST 20-207-397-7643AUTOMOBILE
314       Customer#000000314       8,tdTVYGYoYRaAKwG 6aDJn  JORDAN   2JORDAN         MIDDLE EAST 23-461-227-1742MACHINERY 
322       Customer#000000322       bWRyCyjH                 SAUDI ARA3SAUDI ARABIA   MIDDLE EAST 30-989-489-1272HOUSEHOLD 
330       Customer#000000330       UfNb7T9CTC               SAUDI ARA5SAUDI ARABIA   MIDDLE EAST 30-423-855-4389MACHINERY 
338       Customer#000000338        aiYAeWgI0okGSJv7OgvKqM  UNITED KI5UNITED KINGDOM EUROPE      33-795-856-8622FURNITURE 
346       Customer#000000346       K61SvIue3Emcwfel,7f9tO   BRAZIL   7BRAZIL         AMERICA     12-326-744-9456FURNITURE 
354       Customer#000000354       sV3WgvJA0                BRAZIL   4BRAZIL         AMERICA     12-600-518-4329BUILDING  
362       Customer#000000362       UscV00TNrNTD             PERU     5PERU           AMERICA     27-380-863-4654AUTOMOBILE
370       Customer#000000370       oyAPnd                   JAPAN    3JAPAN          ASIA        22-106-602-4978FURNITURE 
378       Customer#000000378       133stqM9 LT,a2BSlbm49    RUSSIA   6RUSSIA         EUROPE      32-456-319-3469BUILDING  
386       Customer#000000386       DeQxsCxixT8RQ7JV6md      UNITED ST1UNITED STATES  AMERICA     34-363-637-1026BUILDING  
394       Customer#000000394       nxW1jt,MQvImdr z72gAt1   UNITED KI2UNITED KINGDOM EUROPE      33-878-810-8728MACHINERY 
402       Customer#000000402       8Cw4p1m1gKYVUgomkAq      FRANCE   8FRANCE         EUROPE      16-498-785-8996AUTOMOBILE
410       Customer#000000410       nYak2u Q9,g              GERMANY  7GERMANY        EUROPE      17-560-598-3458BUILDING  
418       Customer#000000418       ,e0q82drO rgVHXHrJ       ETHIOPIA 6ETHIOPIA       AFRICA      15-719-223-8746FURNITURE 
426       Customer#000000426       GjFjM4zjbyh              ROMANIA  9ROMANIA        EUROPE      29-609-430-1602HOUSEHOLD 
434       Customer#000000434       6LGAf2hv4MB5             CANADA   5CANADA         AMERICA     13-708-679-7653MACHINERY 
442       Customer#000000442       rvgayfJFL                ARGENTINA3ARGENTINA      AMERICA     11-375-142-5372FURNITURE 
450       Customer#000000450       KVpuYa4dDW8lZZVBt        INDONESIA3INDONESIA      ASIA        19-963-733-1963HOUSEHOLD 
458       Customer#000000458       iIKwI3Hr                 EGYPT    1EGYPT          MIDDLE EAST 14-738-386-4439BUILDING  
466       Customer#000000466       ZI1c8,ZanegEu5CEQxNf5,   JAPAN    6JAPAN          ASIA        22-508-972-7615MACHINERY 
474       Customer#000000474       mvEKw,6zT0V8Yb2y         VIETNAM  2VIETNAM        ASIA        31-146-571-9478MACHINERY 
482       Customer#000000482       389RgNCsmVUKiRskmrQQ     JORDAN   8JORDAN         MIDDLE EAST 23-506-441-6549HOUSEHOLD 
490       Customer#000000490        66fG3Fyb946cVQsH9Z3     RUSSIA   7RUSSIA         EUROPE      32-841-401-6998FURNITURE 
498       Customer#000000498       1Wnja9i7KAC3HxS5yATK,I   ROMANIA  5ROMANIA        EUROPE      29-392-878-1853BUILDING  
506       Customer#000000506       dT kFa                   JORDAN   0JORDAN         MIDDLE EAST 23-273-107-2982HOUSEHOLD 
514       Customer#000000514       0qD6Nwp3tG3QqCq9         UNITED KI9UNITED KINGDOM EUROPE      33-301-401-7597BUILDING  
522       Customer#000000522       gPz4FuAGpjvaU4YB9J,fGSnL JAPAN    6JAPAN          ASIA        22-253-939-8854BUILDING  
530       Customer#000000530       wG6AC7G6Y0DRuzJiroWCBy   JORDAN   4JORDAN         MIDDLE EAST 23-688-410-2259BUILDING  
538       Customer#000000538       u9jYEMPoKwrH5wXiv        ROMANIA  6ROMANIA        EUROPE      29-253-138-1420MACHINERY 
546       Customer#000000546       GZtBXX3OaqFLbC9JNi       ROMANIA  6ROMANIA        EUROPE      29-541-436-8035MACHINERY 
554       Customer#000000554       RluaguNRAJhYXmn,         BRAZIL   9BRAZIL         AMERICA     12-104-168-7117HOUSEHOLD 
562       Customer#000000562       04xjB,zuffnhVyEY0 P      MOROCCO  8MOROCCO        AFRICA      25-875-379-9716BUILDING  
570       Customer#000000570       0Zo0P6m,sie 1,VXacPX     MOROCCO  0MOROCCO        AFRICA      25-462-364-8269AUTOMOBILE
578       Customer#000000578       nxUZ BCBO1 HAymUcopl2Nt  KENYA    5KENYA          AFRICA      24-846-302-2728FURNITURE 
586       Customer#000000586       vGaA9XBtn,hlswFhSjLIX    IRAQ     0IRAQ           MIDDLE EAST 21-216-558-4262AUTOMOBILE
594       Customer#000000594       sbcKWltfCAnXrc Z27ZYDzsH INDONESIA1INDONESIA      ASIA        19-940-134-1893HOUSEHOLD 
602       Customer#000000602       NCryKIpG3                JORDAN   7JORDAN         MIDDLE EAST 23-426-404-6709BUILDING  
610       Customer#000000610       Fo8RfPq1                 IRAQ     8IRAQ           MIDDLE EAST 21-405-477-4635BUILDING  
618       Customer#000000618       9O4fhgteQd               ALGERIA  3ALGERIA        AFRICA      10-529-672-9658HOUSEHOLD 
626       Customer#000000626       PDeE61VY2Q9              ETHIOPIA 4ETHIOPIA       AFRICA      15-281-967-5653FURNITURE 
634       Customer#000000634       O09TejHJ6UszNfmq         SAUDI ARA8SAUDI ARABIA   MIDDLE EAST 30-619-411-5240FURNITURE 
642       Customer#000000642       6Y1gEH0gMLh              RUSSIA   0RUSSIA         EUROPE      32-840-656-9859AUTOMOBILE
650       Customer#000000650       1hqwYdlDhaqnkRrovbu      ETHIOPIA 8ETHIOPIA       AFRICA      15-633-818-9768AUTOMOBILE
658       Customer#000000658       9SboxGtXimmJg            ARGENTINA7ARGENTINA      AMERICA     11-271-262-7801HOUSEHOLD 
666       Customer#000000666       dD32Q8                   BRAZIL   1BRAZIL         AMERICA     12-765-243-1292AUTOMOBILE
674       Customer#000000674       GLZCUQrtiNTrPK           ETHIOPIA 8ETHIOPIA       AFRICA      15-709-319-1124BUILDING  
682       Customer#000000682       y5J0HJVI6Mb k4r          MOROCCO  5MOROCCO        AFRICA      25-605-766-7504AUTOMOBILE
690       Customer#000000690       xH61m,Si5                CANADA   7CANADA         AMERICA     13-486-866-8185HOUSEHOLD 
698       Customer#000000698       FLZ2NG5pK                UNITED KI1UNITED KINGDOM EUROPE      33-469-214-3961BUILDING  
706       Customer#000000706       ycxysGDuWHN98FS4lZ2obT9  ROMANIA  9ROMANIA        EUROPE      29-694-496-8316AUTOMOBILE
714       Customer#000000714       2,ARep1aMyhgNZqrkc,to    INDONESIA7INDONESIA      ASIA        19-483-448-6501BUILDING  
722       Customer#000000722       aymiuXFyrALTRIzfb        SAUDI ARA1SAUDI ARABIA   MIDDLE EAST 30-519-761-7209BUILDING  
730       Customer#000000730       ORP6of                   BRAZIL   5BRAZIL         AMERICA     12-474-137-4885AUTOMOBILE
738       Customer#000000738       iecb89zRRNeN3Kyw         IRAN     4IRAN           MIDDLE EAST 20-302-396-8036MACHINERY 
746       Customer#000000746       JOKj8N2QKUm8Gi,          SAUDI ARA3SAUDI ARABIA   MIDDLE EAST 30-994-470-4005MACHINERY 
754       Customer#000000754       8r5wwhhlL9M              ALGERIA  2ALGERIA        AFRICA      10-836-943-1392BUILDING  
762       Customer#000000762       n5QsjD,gTSrdN            IRAQ     5IRAQ           MIDDLE EAST 21-797-694-9005FURNITURE 
770       Customer#000000770       IjwJR6TjBJZb             INDIA    6INDIA          ASIA        18-725-913-7521AUTOMOBILE
778       Customer#000000778       tCuRA2W9y5iiG            UNITED KI6UNITED KINGDOM EUROPE      33-401-523-9037MACHINERY 
786       Customer#000000786       viZtkiJ gbMcPrIN         JORDAN   2JORDAN         MIDDLE EAST 23-569-931-5631MACHINERY 
794       Customer#000000794       RMY8 LyGnJ67NGc          UNITED KI5UNITED KINGDOM EUROPE      33-701-371-2812FURNITURE 
802       Customer#000000802       ZDk4Suvi8gMp2LL          ALGERIA  0ALGERIA        AFRICA      10-786-731-2929BUILDING  
810       Customer#000000810       3J1wwVhwzVT7XM1          INDONESIA3INDONESIA      ASIA        19-267-827-6261FURNITURE 
818       Customer#000000818       CvQvKClYoh9lPjMngrjbCo   SAUDI ARA8SAUDI ARABIA   MIDDLE EAST 30-402-189-1344BUILDING  
826       Customer#000000826       f5Y UZ                   JORDAN   8JORDAN         MIDDLE EAST 23-850-535-1431BUILDING  
834       Customer#000000834       y4mA, TY6                KENYA    9KENYA          AFRICA      24-528-326-3441MACHINERY 
842       Customer#000000842       stRBRwd                  ALGERIA  7ALGERIA        AFRICA      10-894-898-9124FURNITURE 
850       Customer#000000850       GdhPVh9rkPqSt v17Z       RUSSIA   9RUSSIA         EUROPE      32-193-783-7190FURNITURE 
858       Customer#000000858       8qSqHq,Fc378KIPPbT       INDIA    2INDIA          ASIA        18-143-606-6895BUILDING  
866       Customer#000000866       u,b0Gd                   SAUDI ARA7SAUDI ARABIA   MIDDLE EAST 30-512-936-7855FURNITURE 
874       Customer#000000874       rdo knkGhtvpH6dbLkQon8Qs ALGERIA  6ALGERIA        AFRICA      10-694-560-2869AUTOMOBILE
882       Customer#000000882       hsKaXw                   BRAZIL   0BRAZIL         AMERICA     12-177-877-7437HOUSEHOLD 
890       Customer#000000890       rvsLCrRX9z,IPaaF9kqwv    EGYPT    4EGYPT          MIDDLE EAST 14-207-517-3049BUILDING  
898       Customer#000000898       JrvrIEzAre,VJzJCi3SEmib1 CANADA   8CANADA         AMERICA     13-686-451-1364AUTOMOBILE
906       Customer#000000906       1Uavkm                   FRANCE   2FRANCE         EUROPE      16-342-988-7207HOUSEHOLD 
914       Customer#000000914        LErnJFeOuDeM            ETHIOPIA 0ETHIOPIA       AFRICA      15-200-339-8710MACHINERY 
922       Customer#000000922       Az9RFaut7NkPnc5zSD       GERMANY  3GERMANY        EUROPE      17-546-424-7165BUILDING  
930       Customer#000000930       84jHYR8u                 ROMANIA  8ROMANIA        EUROPE      29-985-961-5800FURNITURE 
938       Customer#000000938       wrq9S3rEW8zXU            JAPAN    9JAPAN          ASIA        22-437-114-4507BUILDING  
946       Customer#000000946       ufHQOmRhQ                VIETNAM  2VIETNAM        ASIA        31-816-488-9976FURNITURE 
954       Customer#000000954       rr0Gz2iuYNuLgrIcLCdi5    ROMANIA  8ROMANIA        EUROPE      29-304-910-2271FURNITURE 
962       Customer#000000962       lDp572JGdrL34            EGYPT    5EGYPT          MIDDLE EAST 14-448-660-5572BUILDING  
970       Customer#000000970       DXEgz7JH                 KENYA    8KENYA          AFRICA      24-395-691-2660MACHINERY 
978       Customer#000000978       zpvQ6LYE89Inl            UNITED ST1UNITED STATES  AMERICA     34-622-651-8925BUILDING  
986       Customer#000000986       Cei2QidV0GC3OQ           ARGENTINA8ARGENTINA      AMERICA     11-430-228-9090BUILDING  
994       Customer#000000994       sZjdeW4LT9EKopmlv3M Xb   MOZAMBIQU8MOZAMBIQUE     AFRICA      26-882-670-7755HOUSEHOLD 
1002      Customer#000001002       98bKmyr3jZWRLEY9         IRAN     7IRAN           MIDDLE EAST 20-256-464-4310MACHINERY 
1010      Customer#000001010       uasIK                    ETHIOPIA 0ETHIOPIA       AFRICA      15-117-612-9691AUTOMOBILE
1018      Customer#000001018       yldxLZOgQwzrXh3t4yktyk   CHINA    5CHINA          ASIA        28-556-369-5186FURNITURE 
1026      Customer#000001026       ktKcS9tV2OC8T42KVqMe     PERU     4PERU           AMERICA     27-265-554-3633MACHINERY 
1034      Customer#000001034       Fn5qqb64TSKuJWz4f8GpPkF, ETHIOPIA 0ETHIOPIA       AFRICA      15-578-910-1737HOUSEHOLD 
1042      Customer#000001042       S1sh9gyFn21m4z           ETHIOPIA 0ETHIOPIA       AFRICA      15-251-875-2137FURNITURE 
1050      Customer#000001050       KgVnjN7Y4HCN5f97HEU      IRAQ     5IRAQ           MIDDLE EAST 21-340-647-3193FURNITURE 
1058      Customer#000001058       R0NIEcSVDQ4rN            ROMANIA  2ROMANIA        EUROPE      29-276-829-9429MACHINERY 
1066      Customer#000001066       2Ge 0Nk29FlBs1GuBiY84    ALGERIA  5ALGERIA        AFRICA      10-434-108-7104MACHINERY 
1074      Customer#000001074       nG,eR,                   IRAN     6IRAN           MIDDLE EAST 20-435-891-9174BUILDING  
1082      Customer#000001082       vMX52A1zqDbGNzjfSzgsxS   ETHIOPIA 7ETHIOPIA       AFRICA      15-235-303-1905BUILDING  
1090      Customer#000001090       P2JDHF                   MOROCCO  6MOROCCO        AFRICA      25-689-118-5206AUTOMOBILE
1098      Customer#000001098       XVJb1HxQ                 RUSSIA   0RUSSIA         EUROPE      32-774-645-3328FURNITURE 
1106      Customer#000001106       WZEExIU9g2s              VIETNAM  4VIETNAM        ASIA        31-593-303-7555HOUSEHOLD 
1114      Customer#000001114       f7 he8eByBFy6z7vcO       KENYA    8KENYA          AFRICA      24-771-178-7242BUILDING  
1122      Customer#000001122       9lxNEW0Rei4DFaT4vX,T55   ALGERIA  7ALGERIA        AFRICA      10-583-515-4237BUILDING  
1130      Customer#000001130       60zzrBpFXjvHzyv0WObH3    RUSSIA   1RUSSIA         EUROPE      32-557-383-5865HOUSEHOLD 
1138      Customer#000001138       8 9P,dIGWnr              RUSSIA   3RUSSIA         EUROPE      32-527-140-9732BUILDING  
1146      Customer#000001146       DRBYvF0iBGsDC3iPNFsPHq   JAPAN    1JAPAN          ASIA        22-392-539-9675FURNITURE 
1154      Customer#000001154       7RqtNwcSP                ROMANIA  4ROMANIA        EUROPE      29-767-626-5677BUILDING  
1162      Customer#000001162       b5N12h9D6yJemo           BRAZIL   5BRAZIL         AMERICA     12-562-959-6459AUTOMOBILE
1170      Customer#000001170       BNhssVcV36vshE           INDIA    3INDIA          ASIA        18-148-781-9051HOUSEHOLD 
1178      Customer#000001178       W,03Nl2iWQ94xYyCo        INDONESIA7INDONESIA      ASIA        19-566-839-9051HOUSEHOLD 
1186      Customer#000001186       cj5EeLbJJ6MPdynzpo       UNITED KI2UNITED KINGDOM EUROPE      33-391-839-3095BUILDING  
1194      Customer#000001194       NzWKbiPK1o               VIETNAM  2VIETNAM        ASIA        31-541-894-8169FURNITURE 
1202      Customer#000001202       xThQDiKdG,0sU IduCCPAgH  ALGERIA  4ALGERIA        AFRICA      10-950-263-1412BUILDING  
1210      Customer#000001210       bUTLW1KIHzzQkuOEwUMwE    MOZAMBIQU2MOZAMBIQUE     AFRICA      26-970-213-5186AUTOMOBILE
1218      Customer#000001218       JYNvUpFG0dDy7aJNhl2zL    RUSSIA   5RUSSIA         EUROPE      32-437-747-7116AUTOMOBILE
1226      Customer#000001226       HKR1zo                   ALGERIA  2ALGERIA        AFRICA      10-566-388-5527FURNITURE 
1234      Customer#000001234       B3OhbH0MRJE,F0           ARGENTINA5ARGENTINA      AMERICA     11-198-109-3904FURNITURE 
1242      Customer#000001242       mA8bUqB6WqNEe2nsQ        BRAZIL   4BRAZIL         AMERICA     12-392-686-7310BUILDING  
1250      Customer#000001250       LBPszo9EVA88sbbdYl7E     INDONESIA2INDONESIA      ASIA        19-375-640-9941AUTOMOBILE
1258      Customer#000001258       zK3TKgKVu                CANADA   8CANADA         AMERICA     13-813-686-6538AUTOMOBILE
1266      Customer#000001266       LW7shrnoCLUjJKQI8EF7SI   CANADA   2CANADA         AMERICA     13-468-615-3115MACHINERY 
1274      Customer#000001274       eHJnE7                   UNITED ST2UNITED STATES  AMERICA     34-121-265-5792AUTOMOBILE
1282      Customer#000001282       qeYHABkf21,5             KENYA    9KENYA          AFRICA      24-688-371-2817FURNITURE 
1290      Customer#000001290       0Q9URl0Y3rJ              UNITED ST3UNITED STATES  AMERICA     34-720-512-8475MACHINERY 
1298      Customer#000001298       ujAPYPBrLW,oIxGpuWmxo    MOROCCO  6MOROCCO        AFRICA      25-743-798-2978AUTOMOBILE
1306      Customer#000001306       0YRFIqAc5imIKG           JAPAN    8JAPAN          ASIA        22-891-578-9462MACHINERY 
1314      Customer#000001314       auN4t99ayk               ARGENTINA4ARGENTINA      AMERICA     11-902-180-2663HOUSEHOLD 
1322      Customer#000001322       35jI39rgIHCI4Pw          JORDAN   3JORDAN         MIDDLE EAST 23-166-287-8395FURNITURE 
1330      Customer#000001330       MGY4P7                   ARGENTINA3ARGENTINA      AMERICA     11-826-931-8958BUILDING  
1338      Customer#000001338       8Nx5v3cKF MK3ejHdM       SAUDI ARA9SAUDI ARABIA   MIDDLE EAST 30-208-480-5361BUILDING  
1346      Customer#000001346       cuwz2Yvj VK              IRAN     1IRAN           MIDDLE EAST 20-816-483-3511FURNITURE 
1354      Customer#000001354       rvGErAt5suIqpuxwtL       JORDAN   2JORDAN         MIDDLE EAST 23-534-624-6451MACHINERY 
1362      Customer#000001362       FKywgb                   GERMANY  8GERMANY        EUROPE      17-928-915-9815MACHINERY 
1370      Customer#000001370       WN7onCgcC,,Lt4dC4C f     CHINA    1CHINA          ASIA        28-867-865-3875BUILDING  
1378      Customer#000001378       zDULZOX6KrHF6aL1A        PERU     6PERU           AMERICA     27-498-775-9003HOUSEHOLD 
1386      Customer#000001386       uByG5EoybI5dNN           IRAQ     1IRAQ           MIDDLE EAST 21-251-535-8461BUILDING  
1394      Customer#000001394       eE8wv lY                 CANADA   7CANADA         AMERICA     13-369-680-7539MACHINERY 
1402      Customer#000001402       F7 m0JwiCABmb            FRANCE   4FRANCE         EUROPE      16-240-241-4962AUTOMOBILE
1410      Customer#000001410       yEUlreh6mkGmg8SIwKZooUOJ RUSSIA   6RUSSIA         EUROPE      32-591-411-2142HOUSEHOLD 
1418      Customer#000001418       S5uBtE hDxHcHunowPDX     PERU     9PERU           AMERICA     27-780-678-4470AUTOMOBILE
1426      Customer#000001426       d1Tyzg,0ArKPuBln8CDH     MOROCCO  3MOROCCO        AFRICA      25-933-296-9061HOUSEHOLD 
1434      Customer#000001434       V15TQAhSLp7YC3Kdj        CHINA    6CHINA          ASIA        28-611-600-4841MACHINERY 
1442      Customer#000001442       2fTQpX7N                 MOZAMBIQU7MOZAMBIQUE     AFRICA      26-209-918-7148MACHINERY 
1450      Customer#000001450       z7Pl iXBEs               CANADA   4CANADA         AMERICA     13-189-890-4075MACHINERY 
1458      Customer#000001458       vsGifZH3fNgJjlgF         CANADA   3CANADA         AMERICA     13-874-756-4475AUTOMOBILE
1466      Customer#000001466       Fdm3uYarZ                PERU     9PERU           AMERICA     27-652-369-6519FURNITURE 
1474      Customer#000001474       KB83CaaM8DRjv            MOZAMBIQU4MOZAMBIQUE     AFRICA      26-377-269-1934HOUSEHOLD 
1482      Customer#000001482       kTcr5JgkjFeLKIRcmtnCv    ROMANIA  8ROMANIA        EUROPE      29-817-254-5647FURNITURE 
1490      Customer#000001490       vBUkY7                   SAUDI ARA6SAUDI ARABIA   MIDDLE EAST 30-360-543-3861MACHINERY 
1498      Customer#000001498       x XToT5oFi7oIsRG2mgIL3nc ROMANIA  4ROMANIA        EUROPE      29-147-559-7101AUTOMOBILE
1506      Customer#000001506       RUScjIPO                 ARGENTINA5ARGENTINA      AMERICA     11-725-838-6869MACHINERY 
1514      Customer#000001514       2dVI195Lf,EUjr1CY37      INDIA    9INDIA          ASIA        18-867-930-9141FURNITURE 
1522      Customer#000001522       aMbkFCcpuqN8YFzn8        EGYPT    8EGYPT          MIDDLE EAST 14-963-260-2190AUTOMOBILE
1530      Customer#000001530       KVYYmaQ7fGwFnhg          BRAZIL   9BRAZIL         AMERICA     12-765-957-3686MACHINERY 
1538      Customer#000001538       ohSUJgfMxt2Hq9f0tv,MZa   BRAZIL   6BRAZIL         AMERICA     12-448-841-9034FURNITURE 
1546      Customer#000001546       kFu hXa                  SAUDI ARA6SAUDI ARABIA   MIDDLE EAST 30-103-531-6544AUTOMOBILE
1554      Customer#000001554       axGq6Zi                  GERMANY  4GERMANY        EUROPE      17-995-615-1080AUTOMOBILE
1562      Customer#000001562       Rj0aTQUqnb1u             JORDAN   0JORDAN         MIDDLE EAST 23-741-839-4009FURNITURE 
1570      Customer#000001570       RMBVeVOC                 JORDAN   3JORDAN         MIDDLE EAST 23-511-229-8305FURNITURE 
1578      Customer#000001578       KGMw1t3i                 PERU     7PERU           AMERICA     27-313-629-3460AUTOMOBILE
1586      Customer#000001586       I76G9G7dkk               BRAZIL   5BRAZIL         AMERICA     12-181-798-6021FURNITURE 
1594      Customer#000001594       8No1IY                   JORDAN   4JORDAN         MIDDLE EAST 23-921-435-1844FURNITURE 
1602      Customer#000001602       Lum76wozwPDwP            ROMANIA  3ROMANIA        EUROPE      29-454-821-7173BUILDING  
1610      Customer#000001610       8T,m b4G                 CHINA    6CHINA          ASIA        28-145-271-4421FURNITURE 
1618      Customer#000001618       efEU9gOnX05F             JAPAN    8JAPAN          ASIA        22-503-379-3585AUTOMOBILE
1626      Customer#000001626       Qqvd9BwVQQ133oxNXb8N     RUSSIA   2RUSSIA         EUROPE      32-527-825-6131FURNITURE 
1634      Customer#000001634       mTRMQ9143TTe5kHs         UNITED ST3UNITED STATES  AMERICA     34-777-297-1341FURNITURE 
1642      Customer#000001642       UgLWC4Pw,XZX52b8         INDONESIA0INDONESIA      ASIA        19-114-419-9060FURNITURE 
1650      Customer#000001650       6mpXm8FQzetQ7wA1pzEm     UNITED ST8UNITED STATES  AMERICA     34-376-253-7758FURNITURE 
1658      Customer#000001658       5ZAXRv0hnyOcjObHR1       VIETNAM  9VIETNAM        ASIA        31-774-457-5521BUILDING  
1666      Customer#000001666       AFCMGLIrCORZavTw7YX      RUSSIA   3RUSSIA         EUROPE      32-142-591-4961MACHINERY 
1674      Customer#000001674       VDSnyhnkkFA1CKYDjdMx4Hp  CANADA   2CANADA         AMERICA     13-724-241-4273BUILDING  
1682      Customer#000001682       8TtqhjtXrYl              PERU     1PERU           AMERICA     27-340-602-4686MACHINERY 
1690      Customer#000001690       v2dVbJH3RxbBj5Wk5btJdzv  ARGENTINA0ARGENTINA      AMERICA     11-136-548-1374MACHINERY 
1698      Customer#000001698       Xzkyij4D5OOWY            RUSSIA   1RUSSIA         EUROPE      32-730-301-9683HOUSEHOLD 
1706      Customer#000001706       FBx04exFTAFFRA3G,UR9Q2XS BRAZIL   8BRAZIL         AMERICA     12-514-363-6155HOUSEHOLD 
1714      Customer#000001714       6xIlLyed lGGxdneig8xdr   UNITED KI2UNITED KINGDOM EUROPE      33-832-507-3577BUILDING  
1722      Customer#000001722       XqgWxT4hlg2EjS0HaV6XQwc  ARGENTINA9ARGENTINA      AMERICA     11-516-378-4922BUILDING  
1730      Customer#000001730       p8wSGXOVmXO6rJBW3jg      ARGENTINA6ARGENTINA      AMERICA     11-110-581-8580HOUSEHOLD 
1738      Customer#000001738       dKNfooI8lr6G             INDIA    0INDIA          ASIA        18-190-103-2598AUTOMOBILE
1746      Customer#000001746       f8Ku1TqpFJ 4wU           PERU     8PERU           AMERICA     27-843-115-5769HOUSEHOLD 
1754      Customer#000001754       wXsAA1Zgkeof             ALGERIA  9ALGERIA        AFRICA      10-606-865-2850BUILDING  
1762      Customer#000001762       LD,Y0Xj io6              MOROCCO  5MOROCCO        AFRICA      25-473-248-6604AUTOMOBILE
1770      Customer#000001770       IonoL5JlAeGYQFKq2k1sKH0  CHINA    1CHINA          ASIA        28-950-557-7479BUILDING  
1778      Customer#000001778       XxR5jsS8OA1xjtocU,       EGYPT    0EGYPT          MIDDLE EAST 14-595-842-8170BUILDING  
1786      Customer#000001786       pZAHd2LxDUbgcS1WQBN4vvoR FRANCE   5FRANCE         EUROPE      16-241-592-4650AUTOMOBILE
1794      Customer#000001794       col5dSe1MO8MyVdQ1f09b    GERMANY  3GERMANY        EUROPE      17-610-420-2606HOUSEHOLD 
1802      Customer#000001802       fGUhRVo61nZfOP           UNITED KI8UNITED KINGDOM EUROPE      33-987-778-9007MACHINERY 
1810      Customer#000001810       RI0cwmW3gNVJi            ALGERIA  0ALGERIA        AFRICA      10-320-643-8724MACHINERY 
1818      Customer#000001818       wSYuvOMT8YVZqR           RUSSIA   8RUSSIA         EUROPE      32-658-436-6613BUILDING  
1826      Customer#000001826       tbWBFvYUZjBY,BH5r5C      CANADA   6CANADA         AMERICA     13-247-779-3831BUILDING  
1834      Customer#000001834        oWU4qpGp8v5pj           UNITED ST4UNITED STATES  AMERICA     34-246-345-2873HOUSEHOLD 
1842      Customer#000001842       SYMcJ0iGluYT2pe6N        IRAN     8IRAN           MIDDLE EAST 20-234-729-6723BUILDING  
1850      Customer#000001850       yY0Ihs9rn4Jt9qzowqGCKcG  IRAN     3IRAN           MIDDLE EAST 20-476-781-1950BUILDING  
1858      Customer#000001858       jtVS,lD                  CHINA    4CHINA          ASIA        28-730-134-2991MACHINERY 
1866      Customer#000001866       bdPJelrGfDMOil           FRANCE   1FRANCE         EUROPE      16-700-775-1156HOUSEHOLD 
1874      Customer#000001874       DVHIWii                  PERU     4PERU           AMERICA     27-136-711-5767FURNITURE 
1882      Customer#000001882       U3c UftfresD             CANADA   6CANADA         AMERICA     13-280-735-5279HOUSEHOLD 
1890      Customer#000001890       QvxzOMYHMQUUf            INDONESIA6INDONESIA      ASIA        19-928-186-9292BUILDING  
1898      Customer#000001898       yK530x63pGQpzYZbGjsmt0I  MOZAMBIQU6MOZAMBIQUE     AFRICA      26-520-689-7957MACHINERY 
1906      Customer#000001906       pByvzLPeSKa8Zlh5         ETHIOPIA 7ETHIOPIA       AFRICA      15-459-755-3655MACHINERY 
1914      Customer#000001914       JqCaLg2nQOwrdP1          FRANCE   2FRANCE         EUROPE      16-959-698-4913FURNITURE 
1922      Customer#000001922       qMXL1bzgCtSj1GLMI3AMi    INDONESIA2INDONESIA      ASIA        19-280-161-7432MACHINERY 
1930      Customer#000001930       kJD6LiynLuutDPKOcgIBUI   CHINA    1CHINA          ASIA        28-682-868-9490HOUSEHOLD 
1938      Customer#000001938       IqaZSFbDxA,8a,           IRAN     5IRAN           MIDDLE EAST 20-995-134-8233AUTOMOBILE
1946      Customer#000001946       Z3ceD0uA1BJsDmFl4botusq2 SAUDI ARA6SAUDI ARABIA   MIDDLE EAST 30-741-315-5739FURNITURE 
1954      Customer#000001954       ec2Cv6JlL3MFSnbBVWrE vlj RUSSIA   1RUSSIA         EUROPE      32-185-395-8928BUILDING  
1962      Customer#000001962       VxLrW,XnARN              EGYPT    8EGYPT          MIDDLE EAST 14-424-319-9632FURNITURE 
1970      Customer#000001970       V9aSisZG                 KENYA    6KENYA          AFRICA      24-202-796-8998MACHINERY 
1978      Customer#000001978       e4sYh5qmltXfpKhnO fQ     JORDAN   6JORDAN         MIDDLE EAST 23-824-564-1475MACHINERY 
1986      Customer#000001986       3ugRcAUZuXms2oHR         ALGERIA  6ALGERIA        AFRICA      10-855-629-5383FURNITURE 
1994      Customer#000001994       TRsalXgbwGxicJe1Ogt4t    ARGENTINA9ARGENTINA      AMERICA     11-905-440-4609HOUSEHOLD 
2002      Customer#000002002       u2ZMTb2TqaND0MnXf        KENYA    8KENYA          AFRICA      24-568-792-7675BUILDING  
2010      Customer#000002010       b5Wcuo6aKjxFc55f         KENYA    1KENYA          AFRICA      24-411-969-1547FURNITURE 
2018      Customer#000002018       eKAhxd3gdiGEQMlB4h0jzS   CANADA   3CANADA         AMERICA     13-225-690-3956MACHINERY 
2026      Customer#000002026       mTC9jqYW74IT             ARGENTINA1ARGENTINA      AMERICA     11-838-316-7842BUILDING  
2034      Customer#000002034       3vbk1W82kqELOY2MxDzQsQV  ARGENTINA1ARGENTINA      AMERICA     11-120-850-1365BUILDING  
2042      Customer#000002042       0J9oApbewENweG           KENYA    3KENYA          AFRICA      24-230-307-5151FURNITURE 
2050      Customer#000002050       zk8MWFFb0zPXG            KENYA    7KENYA          AFRICA      24-568-928-5802BUILDING  
2058      Customer#000002058       Ulbtk6fu                 ETHIOPIA 0ETHIOPIA       AFRICA      15-482-873-9765BUILDING  
2066      Customer#000002066       m1Kcyh                   PERU     5PERU           AMERICA     27-629-499-7584FURNITURE 
2074      Customer#000002074       kTgHVj1P4ZEw0UxWITP16uvq JAPAN    0JAPAN          ASIA        22-975-743-7844AUTOMOBILE
2082      Customer#000002082       RieGTAgPRu wHldIynr      IRAN     4IRAN           MIDDLE EAST 20-976-527-1630FURNITURE 
2090      Customer#000002090       AkUn5i89e68Qp,GQudonZspX PERU     9PERU           AMERICA     27-718-769-5548MACHINERY 
2098      Customer#000002098       W50GYT                   SAUDI ARA3SAUDI ARABIA   MIDDLE EAST 30-946-993-3111AUTOMOBILE
2106      Customer#000002106       7b T8cFvzZ               PERU     4PERU           AMERICA     27-771-595-7462HOUSEHOLD 
2114      Customer#000002114       4SkujOs4                 JAPAN    0JAPAN          ASIA        22-711-704-8707HOUSEHOLD 
2122      Customer#000002122       CcxNajANGoWfvLjcPcu      FRANCE   5FRANCE         EUROPE      16-623-739-2496AUTOMOBILE
2130      Customer#000002130       2VF8tp                   EGYPT    7EGYPT          MIDDLE EAST 14-477-561-4919MACHINERY 
2138      Customer#000002138       fLlJ0lMGi9 hA 9ilATA6MPj EGYPT    2EGYPT          MIDDLE EAST 14-913-782-9244FURNITURE 
2146      Customer#000002146       ff awyCp                 MOROCCO  3MOROCCO        AFRICA      25-726-676-4074BUILDING  
2154      Customer#000002154       ooSakqEulMt99z,LthSAE    KENYA    1KENYA          AFRICA      24-326-246-3075BUILDING  
2162      Customer#000002162       vE2oIHArv4Kb46qAiyPJ0c   ETHIOPIA 7ETHIOPIA       AFRICA      15-861-956-1580FURNITURE 
2170      Customer#000002170       8YNPk0 eMPFxdCGNN0h      JAPAN    5JAPAN          ASIA        22-763-598-6662AUTOMOBILE
2178      Customer#000002178       b1nCepaOd2vHGRQN         KENYA    7KENYA          AFRICA      24-705-518-7402HOUSEHOLD 
2186      Customer#000002186       Je64 rl00Ll1Snh9iXMgCo   CHINA    2CHINA          ASIA        28-747-562-1469HOUSEHOLD 
2194      Customer#000002194       6eW1P7M                  CHINA    6CHINA          ASIA        28-780-881-8818FURNITURE 
2202      Customer#000002202       9NQuLFU1                 GERMANY  4GERMANY        EUROPE      17-324-911-5154FURNITURE 
2210      Customer#000002210       W25PW480pE               IRAN     0IRAN           MIDDLE EAST 20-949-240-7617FURNITURE 
2218      Customer#000002218       NIqi,IwFAYv4NZID0Qe2F    ALGERIA  1ALGERIA        AFRICA      10-567-867-2179MACHINERY 
2226      Customer#000002226       pJ1js0uXE8atB6           JAPAN    0JAPAN          ASIA        22-391-286-4807MACHINERY 
2234      Customer#000002234       ehAH9Q09KqzeQChcF        GERMANY  8GERMANY        EUROPE      17-369-549-9201BUILDING  
2242      Customer#000002242       tspWnaJWmKYxltKgT611fIpQ INDIA    8INDIA          ASIA        18-773-114-4969MACHINERY 
2250      Customer#000002250       X3211m0m                 RUSSIA   8RUSSIA         EUROPE      32-117-734-7278MACHINERY 
2258      Customer#000002258       B6BwIWWaRaVlXMnQvrtX3    PERU     9PERU           AMERICA     27-409-365-3610FURNITURE 
2266      Customer#000002266       Ciz8sUNDG90 8ByoXyiczor  RUSSIA   1RUSSIA         EUROPE      32-863-627-1662AUTOMOBILE
2274      Customer#000002274       QDX6Ozo3uAVoyaSWh        CHINA    4CHINA          ASIA        28-131-375-6239BUILDING  
2282      Customer#000002282       3RlLOJ                   CHINA    8CHINA          ASIA        28-748-263-7748FURNITURE 
2290      Customer#000002290       XfbflRY4j48N8YI FwdiIN5Y ALGERIA  6ALGERIA        AFRICA      10-738-637-4671AUTOMOBILE
2298      Customer#000002298       VGm98tmw goTBGyb         UNITED KI2UNITED KINGDOM EUROPE      33-129-744-9493HOUSEHOLD 
2306      Customer#000002306       caY0vmeWXOpnM 4lHOvkgy   BRAZIL   3BRAZIL         AMERICA     12-700-484-8541BUILDING  
2314      Customer#000002314       jqMWHucLH4Dwo 4tJtwJv    IRAN     5IRAN           MIDDLE EAST 20-287-317-1227HOUSEHOLD 
2322      Customer#000002322       VRC14kZ1a6eXecP0AACT     BRAZIL   9BRAZIL         AMERICA     12-329-418-9737HOUSEHOLD 
2330      Customer#000002330       mdeeDlof                 ALGERIA  0ALGERIA        AFRICA      10-331-761-7720MACHINERY 
2338      Customer#000002338       5wfoS4                   MOZAMBIQU4MOZAMBIQUE     AFRICA      26-553-434-5736AUTOMOBILE
2346      Customer#000002346       TwxaT420Cj4aqUBXH74JMrE  UNITED KI5UNITED KINGDOM EUROPE      33-231-845-4427AUTOMOBILE
2354      Customer#000002354       kidMr P0onj3D,yMORJNEIjW MOZAMBIQU4MOZAMBIQUE     AFRICA      26-172-441-8593MACHINERY 
2362      Customer#000002362       BujQQ0Q4                 CANADA   8CANADA         AMERICA     13-352-754-3706MACHINERY 
2370      Customer#000002370       zS2EJJ 8LsJzxr uc        RUSSIA   5RUSSIA         EUROPE      32-177-695-7296BUILDING  
2378      Customer#000002378       ,,8koG n7h1Tt,AgpwZYCP   RUSSIA   9RUSSIA         EUROPE      32-238-491-1689AUTOMOBILE
2386      Customer#000002386       tDcDTg5hd45NS0TGJ,TH     PERU     0PERU           AMERICA     27-111-526-3021HOUSEHOLD 
2394      Customer#000002394       WGSLuubHKORmQ            FRANCE   0FRANCE         EUROPE      16-752-220-1393MACHINERY 
2402      Customer#000002402       NAZkbq1N0NaRegGfeIFOzDN  EGYPT    7EGYPT          MIDDLE EAST 14-883-984-2011MACHINERY 
2410      Customer#000002410       ,pUct0DlSApyVfCatql4HN   UNITED ST0UNITED STATES  AMERICA     34-251-826-3244FURNITURE 
2418      Customer#000002418       znCmw7 lXiyaV2z1DwTg     CANADA   3CANADA         AMERICA     13-806-312-8770HOUSEHOLD 
2426      Customer#000002426       fB159uXtB6yPL1           MOROCCO  7MOROCCO        AFRICA      25-591-631-7958AUTOMOBILE
2434      Customer#000002434       rKdom46v0MHALARdK        INDIA    4INDIA          ASIA        18-494-514-9384BUILDING  
2442      Customer#000002442       FXUYEpcCX,9UBo6          SAUDI ARA9SAUDI ARABIA   MIDDLE EAST 30-135-903-2893FURNITURE 
2450      Customer#000002450       jmSf9gC                  FRANCE   1FRANCE         EUROPE      16-270-754-1698HOUSEHOLD 
2458      Customer#000002458       Gth15de5hh3              SAUDI ARA3SAUDI ARABIA   MIDDLE EAST 30-820-208-5097BUILDING  
2466      Customer#000002466       FPB8OdCdbpiSL            FRANCE   4FRANCE         EUROPE      16-401-746-5770HOUSEHOLD 
2474      Customer#000002474       3QjKoime0LaLXSa7A8OF     BRAZIL   2BRAZIL         AMERICA     12-121-955-4432AUTOMOBILE
2482      Customer#000002482       RgI9veevdJKmc            UNITED ST4UNITED STATES  AMERICA     34-123-691-9794MACHINERY 
2490      Customer#000002490       O05OMELhEstmWRryf        IRAQ     7IRAQ           MIDDLE EAST 21-534-712-2348AUTOMOBILE
2498      Customer#000002498       jzOIywm                  ALGERIA  6ALGERIA        AFRICA      10-534-553-1667BUILDING  
2506      Customer#000002506       HeDhTZPDrtTZHZ           EGYPT    4EGYPT          MIDDLE EAST 14-967-312-8838AUTOMOBILE
2514      Customer#000002514       C89Ae5                   ROMANIA  3ROMANIA        EUROPE      29-947-771-2299FURNITURE 
2522      Customer#000002522       UxxF9Y                   GERMANY  4GERMANY        EUROPE      17-867-135-9714AUTOMOBILE
2530      Customer#000002530       vb Tk9                   FRANCE   3FRANCE         EUROPE      16-500-943-7064AUTOMOBILE
2538      Customer#000002538       0wkAnN9sF90Va            CHINA    5CHINA          ASIA        28-382-423-8538MACHINERY 
2546      Customer#000002546       Oagdm2Z,gN3zVeeK28MJ,t3  RUSSIA   0RUSSIA         EUROPE      32-721-194-9465MACHINERY 
2554      Customer#000002554       xl1oNbMT62rYPAuWTH       UNITED ST8UNITED STATES  AMERICA     34-701-475-6237BUILDING  
2562      Customer#000002562       Pmz7vfJV                 PERU     2PERU           AMERICA     27-389-303-6077BUILDING  
2570      Customer#000002570       ,PQ2vv5F5zih3KyDeH3N     FRANCE   3FRANCE         EUROPE      16-828-945-1777HOUSEHOLD 
2578      Customer#000002578       s5nk8Q9jVqeMTW30l1Uzm    MOROCCO  1MOROCCO        AFRICA      25-147-482-2282BUILDING  
2586      Customer#000002586       mNW7zbPwATdyyc3          IRAQ     9IRAQ           MIDDLE EAST 21-494-618-6475FURNITURE 
2594      Customer#000002594       vDKjYovL1c0IY xBsO7      ARGENTINA4ARGENTINA      AMERICA     11-547-753-2643BUILDING  
2602      Customer#000002602       NSpv4pM53jJXEwgjK4DK05w  BRAZIL   5BRAZIL         AMERICA     12-446-310-8283BUILDING  
2610      Customer#000002610       g1zCIKCqtH ,SUwR3ivZx    INDIA    4INDIA          ASIA        18-746-198-5510AUTOMOBILE
2618      Customer#000002618       dIgFQqoc9IbI             UNITED KI7UNITED KINGDOM EUROPE      33-130-689-9839MACHINERY 
2626      Customer#000002626       35y,5Qvp                 FRANCE   6FRANCE         EUROPE      16-862-393-5408MACHINERY 
2634      Customer#000002634       HSO8wt2 IEEsYiXpbH6nmZx  INDONESIA6INDONESIA      ASIA        19-698-701-8139FURNITURE 
2642      Customer#000002642       mlW,WdXxRgdp7bw          ROMANIA  6ROMANIA        EUROPE      29-220-469-7062FURNITURE 
2650      Customer#000002650       MaSmGesEM0xrIUI,hk9e7h   ETHIOPIA 8ETHIOPIA       AFRICA      15-382-150-1630BUILDING  
2658      Customer#000002658       XILZoekHG9OQI2M628k0     IRAN     2IRAN           MIDDLE EAST 20-443-685-9418HOUSEHOLD 
2666      Customer#000002666       XHTkcgj                  INDIA    3INDIA          ASIA        18-585-474-1439AUTOMOBILE
2674      Customer#000002674       NgifbWa                  FRANCE   7FRANCE         EUROPE      16-581-801-7078BUILDING  
2682      Customer#000002682       aLlKD5vmUCj              BRAZIL   2BRAZIL         AMERICA     12-944-420-8248HOUSEHOLD 
2690      Customer#000002690       lxsGLoNOexd              PERU     5PERU           AMERICA     27-821-516-5025MACHINERY 
2698      Customer#000002698       AyakvcsWrDZyBmZq4E       VIETNAM  1VIETNAM        ASIA        31-845-453-7414MACHINERY 
2706      Customer#000002706       dwPfRWxP PeNQuMtpkZ      SAUDI ARA0SAUDI ARABIA   MIDDLE EAST 30-157-808-5078BUILDING  
2714      Customer#000002714       rxGRM9pjveCxGtZk25h jp   ROMANIA  8ROMANIA        EUROPE      29-153-845-9816BUILDING  
2722      Customer#000002722       ylEl,4fjqdFWmM           GERMANY  6GERMANY        EUROPE      17-499-280-3038HOUSEHOLD 
2730      Customer#000002730       XkPGOj                   UNITED KI6UNITED KINGDOM EUROPE      33-980-957-7359HOUSEHOLD 
2738      Customer#000002738       58dmqO                   CHINA    7CHINA          ASIA        28-754-634-4532BUILDING  
2746      Customer#000002746       bbeNdHemD,L0EAXhR3       CHINA    2CHINA          ASIA        28-224-637-9469MACHINERY 
2754      Customer#000002754       EBFYXtf7,AkjF6xwB        UNITED ST4UNITED STATES  AMERICA     34-957-505-1343AUTOMOBILE
2762      Customer#000002762       kyhoYPH9AM7JmmjGkAD      JAPAN    0JAPAN          ASIA        22-762-299-3489MACHINERY 
2770      Customer#000002770       KthDqGhk26jXFqamLX2yY    IRAN     8IRAN           MIDDLE EAST 20-906-179-2044HOUSEHOLD 
2778      Customer#000002778       nW,4oP,UK8m,yCsxuAllBk   UNITED KI1UNITED KINGDOM EUROPE      33-379-981-5508HOUSEHOLD 
2786      Customer#000002786       Bk0rFBntMpsFrn           MOROCCO  7MOROCCO        AFRICA      25-749-913-7202HOUSEHOLD 
2794      Customer#000002794       RBl3 hN8vD8u7            IRAQ     3IRAQ           MIDDLE EAST 21-850-914-2508FURNITURE 
2802      Customer#000002802       lni0kfJDmnLh4wUW6h3kOl   VIETNAM  3VIETNAM        ASIA        31-577-658-9922BUILDING  
2810      Customer#000002810       gENK1KAFs                CHINA    4CHINA          ASIA        28-733-200-8966MACHINERY 
2818      Customer#000002818       kT5VhlF3uJy9ujnfHniV     CANADA   8CANADA         AMERICA     13-816-473-5229BUILDING  
2826      Customer#000002826       XpKdpH81s                INDIA    1INDIA          ASIA        18-759-447-9457HOUSEHOLD 
2834      Customer#000002834       nqH7GTvWvModK1           RUSSIA   0RUSSIA         EUROPE      32-367-838-8893FURNITURE 
2842      Customer#000002842       MZgMyBRfySww             ROMANIA  8ROMANIA        EUROPE      29-163-456-1671FURNITURE 
2850      Customer#000002850       7Uf5o58rgavC             EGYPT    6EGYPT          MIDDLE EAST 14-699-794-1300FURNITURE 
2858      Customer#000002858       RpQOjYlid                MOROCCO  6MOROCCO        AFRICA      25-365-880-8481BUILDING  
2866      Customer#000002866       ZzWHqZuvddi0V6iQouFj2D   PERU     7PERU           AMERICA     27-301-340-6427HOUSEHOLD 
2874      Customer#000002874       NGajTo4IqMqplMrxL1FT3rGO UNITED ST6UNITED STATES  AMERICA     34-697-630-7064HOUSEHOLD 
2882      Customer#000002882       OSJwRkrX                 ETHIOPIA 4ETHIOPIA       AFRICA      15-640-466-5575MACHINERY 
2890      Customer#000002890       KyUuaRRepTk              UNITED ST2UNITED STATES  AMERICA     34-963-928-6051BUILDING  
2898      Customer#000002898       4NcTMboH tNBX1           IRAN     4IRAN           MIDDLE EAST 20-745-802-1639BUILDING  
2906      Customer#000002906       oON5N67hwfb              SAUDI ARA5SAUDI ARABIA   MIDDLE EAST 30-855-725-4266AUTOMOBILE
2914      Customer#000002914       ixp4a2cK9                ROMANIA  6ROMANIA        EUROPE      29-759-923-8435FURNITURE 
2922      Customer#000002922       DH4vjLtva5zK             BRAZIL   4BRAZIL         AMERICA     12-639-386-9729HOUSEHOLD 
2930      Customer#000002930       vuoNNO3I                 UNITED ST6UNITED STATES  AMERICA     34-616-217-4895HOUSEHOLD 
2938      Customer#000002938       brgJ5RFbrRZOtlskiS7      VIETNAM  0VIETNAM        ASIA        31-551-607-1366AUTOMOBILE
2946      Customer#000002946       Vf4vWNWFkrfXSm           JAPAN    2JAPAN          ASIA        22-362-140-1423FURNITURE 
2954      Customer#000002954       fxql3HIbC                ETHIOPIA 1ETHIOPIA       AFRICA      15-677-741-5516FURNITURE 
2962      Customer#000002962       W6SVcS3S                 INDONESIA7INDONESIA      ASIA        19-561-311-9275MACHINERY 
2970      Customer#000002970       ZNUezuUPGuEIsg7          MOZAMBIQU9MOZAMBIQUE     AFRICA      26-562-900-6945AUTOMOBILE
2978      Customer#000002978       19xomfg5C                MOROCCO  0MOROCCO        AFRICA      25-120-315-2660FURNITURE 
2986      Customer#000002986       AmT,3tjKCXs              INDONESIA0INDONESIA      ASIA        19-556-292-4490FURNITURE 
2994      Customer#000002994       QoRWZ84N7nIUlHXE         CANADA   4CANADA         AMERICA     13-702-287-6647AUTOMOBILE
3002      Customer#000003002       ,FbyPTJ4CXTEKbURvrfWRg   CANADA   5CANADA         AMERICA     13-772-430-3281BUILDING  
3010      Customer#000003010       RLFLo7xYIkbpZ            CHINA    6CHINA          ASIA        28-939-175-7686HOUSEHOLD 
3018      Customer#000003018       Qf0659GTFGNu             MOROCCO  3MOROCCO        AFRICA      25-926-404-3342FURNITURE 
3026      Customer#000003026       DFqF8zUG0WO8j8MhCDp      UNITED KI6UNITED KINGDOM EUROPE      33-913-450-7557HOUSEHOLD 
3034      Customer#000003034       miNOYWaKqFosqp           UNITED KI0UNITED KINGDOM EUROPE      33-256-839-9907FURNITURE 
3042      Customer#000003042       7QOnTkJYG                INDIA    6INDIA          ASIA        18-450-200-7987HOUSEHOLD 
3050      Customer#000003050       jI1kAyurcJUaH32F,t4nDqRw MOROCCO  4MOROCCO        AFRICA      25-506-433-9596AUTOMOBILE
3058      Customer#000003058       11kfnHmjhRzADMU YrppL    ETHIOPIA 4ETHIOPIA       AFRICA      15-214-248-9698HOUSEHOLD 
3066      Customer#000003066       Fj1SevidTi1GIEBCvVo      IRAQ     5IRAQ           MIDDLE EAST 21-342-401-9179FURNITURE 
3074      Customer#000003074       eMKzk7SylScVOQVKqQi      UNITED KI9UNITED KINGDOM EUROPE      33-932-836-5490MACHINERY 
3082      Customer#000003082       KC0E6FJZxWseewoK6JSQ 8   MOZAMBIQU8MOZAMBIQUE     AFRICA      26-415-114-6365AUTOMOBILE
3090      Customer#000003090       xUWTlrKUUq3chFritM7U gZ  ALGERIA  9ALGERIA        AFRICA      10-245-352-3606HOUSEHOLD 
3098      Customer#000003098       RT 5RAobqNnYwzTLj        IRAQ     0IRAQ           MIDDLE EAST 21-162-602-4084MACHINERY 
3106      Customer#000003106       MpWwUg2Ef                CHINA    7CHINA          ASIA        28-602-345-9825HOUSEHOLD 
3114      Customer#000003114       l7V3Te8oia2ziZvxwHTu     RUSSIA   3RUSSIA         EUROPE      32-655-877-6540MACHINERY 
3122      Customer#000003122       ZuuNom                   VIETNAM  1VIETNAM        ASIA        31-590-473-4554FURNITURE 
3130      Customer#000003130       gOdJ4RM9F4SuXIp,JaBLv,Qc JORDAN   6JORDAN         MIDDLE EAST 23-502-549-2793HOUSEHOLD 
3138      Customer#000003138       Kg21B2JQTp21aztzI        ARGENTINA3ARGENTINA      AMERICA     11-927-531-6296BUILDING  
3146      Customer#000003146       U6Kxa2QTpxtxIqlkKFDpvuIK CANADA   7CANADA         AMERICA     13-360-525-8741MACHINERY 
3154      Customer#000003154       Ex7a88wfZox1Vo1nY        IRAQ     1IRAQ           MIDDLE EAST 21-897-828-2609BUILDING  
3162      Customer#000003162       58e0tghFY i9nCX2f6K4Esj  EGYPT    0EGYPT          MIDDLE EAST 14-304-162-3106MACHINERY 
3170      Customer#000003170       D17dg1aTKyCgd4           UNITED KI0UNITED KINGDOM EUROPE      33-804-544-7364MACHINERY 
3178      Customer#000003178       1En6hpAi                 SAUDI ARA2SAUDI ARABIA   MIDDLE EAST 30-598-646-3480BUILDING  
3186      Customer#000003186       cs,WxEl2hh7y,XgLWkg      INDIA    9INDIA          ASIA        18-275-361-7592AUTOMOBILE
3194      Customer#000003194       DFm36wShQqY 2Ct          SAUDI ARA1SAUDI ARABIA   MIDDLE EAST 30-748-919-6879HOUSEHOLD 
3202      Customer#000003202       iBKn,o                   MOROCCO  4MOROCCO        AFRICA      25-858-276-5019MACHINERY 
3210      Customer#000003210       yQP00tLjO                JORDAN   2JORDAN         MIDDLE EAST 23-204-848-6007BUILDING  
3218      Customer#000003218       SpzFa6dqSH               SAUDI ARA6SAUDI ARABIA   MIDDLE EAST 30-217-745-2253AUTOMOBILE
3226      Customer#000003226       M22Cb5zw9S               ARGENTINA9ARGENTINA      AMERICA     11-591-816-9641BUILDING  
3234      Customer#000003234       zmFc3i13                 FRANCE   7FRANCE         EUROPE      16-755-846-1112HOUSEHOLD 
3242      Customer#000003242       WnRzxx83sd5CIV0DgKvV     FRANCE   7FRANCE         EUROPE      16-550-854-6773FURNITURE 
3250      Customer#000003250       cPewujOCiyl2di8wBst Ix,  ROMANIA  7ROMANIA        EUROPE      29-796-550-4970FURNITURE 
3258      Customer#000003258       Fa0a7,BHMjncJUvbF        MOZAMBIQU3MOZAMBIQUE     AFRICA      26-866-189-8084MACHINERY 
3266      Customer#000003266       Zea1S4BuBhY1qHfMj        INDONESIA7INDONESIA      ASIA        19-230-340-7585AUTOMOBILE
3274      Customer#000003274       5owMqoUfIZG7yEsH b,uNncT VIETNAM  6VIETNAM        ASIA        31-643-545-6226FURNITURE 
3282      Customer#000003282       H39wITMBFjTaLI           INDONESIA8INDONESIA      ASIA        19-819-116-5519BUILDING  
3290      Customer#000003290       NF3D2 NlrA8ieSJrcS7D     IRAQ     4IRAQ           MIDDLE EAST 21-697-200-1059FURNITURE 
3298      Customer#000003298       imsULH                   ETHIOPIA 7ETHIOPIA       AFRICA      15-126-604-2440AUTOMOBILE
3306      Customer#000003306       3p7AADH1TQCCI5ch8WeL18S  PERU     9PERU           AMERICA     27-796-433-2493FURNITURE 
3314      Customer#000003314       Tf9UqIG GkgqdJZQpB3pqt7q VIETNAM  4VIETNAM        ASIA        31-180-963-5936BUILDING  
3322      Customer#000003322       9He6NG                   VIETNAM  2VIETNAM        ASIA        31-936-755-4985MACHINERY 
3330      Customer#000003330       rR5031Hi0                GERMANY  4GERMANY        EUROPE      17-968-998-7818BUILDING  
3338      Customer#000003338       zThnoJqlp9INn7sPY2UjU    CANADA   9CANADA         AMERICA     13-871-646-1964BUILDING  
3346      Customer#000003346       1sNr LeoqYYp9hquhWXcgM   IRAN     6IRAN           MIDDLE EAST 20-884-483-5296HOUSEHOLD 
3354      Customer#000003354       drYwCpYKy0               UNITED ST1UNITED STATES  AMERICA     34-975-984-8041AUTOMOBILE
3362      Customer#000003362       bLE2QWZByblc             UNITED KI4UNITED KINGDOM EUROPE      33-352-653-9141FURNITURE 
3370      Customer#000003370       PNlWD3                   EGYPT    3EGYPT          MIDDLE EAST 14-792-319-1163HOUSEHOLD 
3378      Customer#000003378       ,GMCNYhlEG7YqjOevAbM9    EGYPT    9EGYPT          MIDDLE EAST 14-171-308-2726BUILDING  
3386      Customer#000003386        ZJjUeiKlIYLmPChJe       IRAQ     3IRAQ           MIDDLE EAST 21-540-324-4079BUILDING  
3394      Customer#000003394       l9zkrzuApMorT0R9Cs       ROMANIA  2ROMANIA        EUROPE      29-936-558-7400FURNITURE 
3402      Customer#000003402       soieFpPeYdAFuZau         CHINA    9CHINA          ASIA        28-773-717-8742AUTOMOBILE
3410      Customer#000003410       4DR2uuEfn,,3jeM          JAPAN    8JAPAN          ASIA        22-451-330-9131HOUSEHOLD 
3418      Customer#000003418       p1ij4MhE                 JAPAN    0JAPAN          ASIA        22-244-629-1334FURNITURE 
3426      Customer#000003426       tO8lESiYVIs4z            ROMANIA  1ROMANIA        EUROPE      29-958-693-5024HOUSEHOLD 
3434      Customer#000003434       XLLfM0W0fyEX2Wkk         UNITED KI5UNITED KINGDOM EUROPE      33-321-661-8035HOUSEHOLD 
3442      Customer#000003442       67P9KOiLjV70mKpusOVvu    ARGENTINA7ARGENTINA      AMERICA     11-654-166-1695HOUSEHOLD 
3450      Customer#000003450       mUC Y8T1EsmPTG           MOROCCO  6MOROCCO        AFRICA      25-205-810-4126FURNITURE 
3458      Customer#000003458       b3OxyXY2ApL8mJfVegSjO6U7 ARGENTINA8ARGENTINA      AMERICA     11-206-637-2021HOUSEHOLD 
3466      Customer#000003466       A0ELunLlxSljco           MOZAMBIQU4MOZAMBIQUE     AFRICA      26-519-281-8772HOUSEHOLD 
3474      Customer#000003474       13x8R4 su                MOZAMBIQU4MOZAMBIQUE     AFRICA      26-619-605-4919BUILDING  
3482      Customer#000003482       fdj0tmmSOUJucczD3kxnlF2q ETHIOPIA 9ETHIOPIA       AFRICA      15-897-657-9636BUILDING  
3490      Customer#000003490       k3zYfljS,GM6Pjg2cro3     JORDAN   3JORDAN         MIDDLE EAST 23-671-823-6637FURNITURE 
3498      Customer#000003498       mQYsl8d2NE0,1xipT3gw     JAPAN    4JAPAN          ASIA        22-835-397-3552MACHINERY 
3506      Customer#000003506       nc97 wK9,f0q             VIETNAM  8VIETNAM        ASIA        31-371-659-4383FURNITURE 
3514      Customer#000003514       ,e4sQKHVrtswRjePKXe,8,K  UNITED KI2UNITED KINGDOM EUROPE      33-878-277-9212AUTOMOBILE
3522      Customer#000003522       TEyPf,                   CANADA   1CANADA         AMERICA     13-631-821-1929MACHINERY 
3530      Customer#000003530       oEz7wWo3                 FRANCE   7FRANCE         EUROPE      16-509-334-3759BUILDING  
3538      Customer#000003538       Hvf2qXd9                 UNITED ST5UNITED STATES  AMERICA     34-915-363-3486MACHINERY 
3546      Customer#000003546       2jfwwCMdhNjpsT6          GERMANY  9GERMANY        EUROPE      17-295-187-5131FURNITURE 
3554      Customer#000003554       Eynugco6TmEvRiBgjJ w     JAPAN    5JAPAN          ASIA        22-300-301-4035AUTOMOBILE
3562      Customer#000003562       e83zXtdzaoYDw VKswS      EGYPT    4EGYPT          MIDDLE EAST 14-206-633-5970MACHINERY 
3570      Customer#000003570       pbjNBxujazEIK0CJRU       JORDAN   7JORDAN         MIDDLE EAST 23-759-528-2397FURNITURE 
3578      Customer#000003578       JlIyMo5                  MOZAMBIQU6MOZAMBIQUE     AFRICA      26-886-903-4061BUILDING  
3586      Customer#000003586       4d70mZWOzSu59stp2V       ARGENTINA7ARGENTINA      AMERICA     11-231-186-9644MACHINERY 
3594      Customer#000003594       atbpCkSif5EHUyO9BStiM    INDIA    8INDIA          ASIA        18-581-427-7159MACHINERY 
3602      Customer#000003602       Pgkjq3S7                 GERMANY  6GERMANY        EUROPE      17-464-465-8578BUILDING  
3610      Customer#000003610       GNBqc5d11v5lez45q,7Zd    EGYPT    9EGYPT          MIDDLE EAST 14-506-172-1582MACHINERY 
3618      Customer#000003618       jmC4NISdUpg              RUSSIA   8RUSSIA         EUROPE      32-855-183-6528FURNITURE 
3626      Customer#000003626       zCfS3FpmBwTwD4S          CHINA    2CHINA          ASIA        28-361-689-2864AUTOMOBILE
3634      Customer#000003634       R5CEqirJoAotY70A6Gs      RUSSIA   0RUSSIA         EUROPE      32-313-572-7172BUILDING  
3642      Customer#000003642       ll5DOr z                 ETHIOPIA 6ETHIOPIA       AFRICA      15-661-980-9171BUILDING  
3650      Customer#000003650       RhVhkeyyvGat5BC2WFy      PERU     6PERU           AMERICA     27-910-233-7525MACHINERY 
3658      Customer#000003658       0WSgtsNzdVU7gMZV361      CANADA   9CANADA         AMERICA     13-512-245-8657AUTOMOBILE
3666      Customer#000003666       DMlvcIlpfVkdg            JAPAN    4JAPAN          ASIA        22-778-932-3722FURNITURE 
3674      Customer#000003674       fnga7y                   BRAZIL   5BRAZIL         AMERICA     12-871-278-8638MACHINERY 
3682      Customer#000003682       zMXVBUFRI                RUSSIA   4RUSSIA         EUROPE      32-368-146-2360BUILDING  
3690      Customer#000003690       J9aHtE8YtSvQCxr4ld       IRAQ     5IRAQ           MIDDLE EAST 21-315-666-1828HOUSEHOLD 
3698      Customer#000003698       gGoj DV2QulqLgXQQ        GERMANY  4GERMANY        EUROPE      17-341-608-8470BUILDING  
3706      Customer#000003706       XiSHytedIO               MOROCCO  3MOROCCO        AFRICA      25-899-581-1963AUTOMOBILE
3714      Customer#000003714       07aZWL8Pg0cKxG           ROMANIA  6ROMANIA        EUROPE      29-543-399-3570FURNITURE 
3722      Customer#000003722       rZzJy6AqEMeI23OFpJWz     SAUDI ARA5SAUDI ARABIA   MIDDLE EAST 30-902-408-3508MACHINERY 
3730      Customer#000003730       2QzQ4RBUjdW66Y           KENYA    7KENYA          AFRICA      24-398-436-5102FURNITURE 
3738      Customer#000003738       7TLH1t                   IRAN     3IRAN           MIDDLE EAST 20-228-390-2003AUTOMOBILE
3746      Customer#000003746       6CYmaCFzdk               ETHIOPIA 8ETHIOPIA       AFRICA      15-298-950-1281AUTOMOBILE
3754      Customer#000003754       OHtaLB                   UNITED KI8UNITED KINGDOM EUROPE      33-491-605-8652FURNITURE 
3762      Customer#000003762       cB95pb68r                CANADA   2CANADA         AMERICA     13-476-614-2005AUTOMOBILE
3770      Customer#000003770       x28o9LP8CutxhZSVNAG2zv   MOROCCO  7MOROCCO        AFRICA      25-975-408-6469FURNITURE 
3778      Customer#000003778       U5YEajekFfqX             FRANCE   7FRANCE         EUROPE      16-652-732-7270FURNITURE 
3786      Customer#000003786       10gBpyPLO                ETHIOPIA 2ETHIOPIA       AFRICA      15-595-204-6115HOUSEHOLD 
3794      Customer#000003794       ky HoguGJwCWjq27Y6DbQdo  PERU     7PERU           AMERICA     27-992-475-1900FURNITURE 
3802      Customer#000003802       ipYLKG UayInalsgxlmUPv   KENYA    2KENYA          AFRICA      24-721-972-4159FURNITURE 
3810      Customer#000003810       KF97idWMWje              CHINA    2CHINA          ASIA        28-891-435-9490FURNITURE 
3818      Customer#000003818       u woSkI6h5pzxTeuljOt8OEq GERMANY  3GERMANY        EUROPE      17-466-449-3074AUTOMOBILE
3826      Customer#000003826       Zlf0Xi                   ROMANIA  4ROMANIA        EUROPE      29-466-147-6115HOUSEHOLD 
3834      Customer#000003834       22OXSIaq                 UNITED ST7UNITED STATES  AMERICA     34-672-567-3247FURNITURE 
3842      Customer#000003842       y5BLftYNxyV              IRAQ     2IRAQ           MIDDLE EAST 21-778-524-1898HOUSEHOLD 
3850      Customer#000003850       gdto OD,tio8KN2LlX       ARGENTINA7ARGENTINA      AMERICA     11-335-591-7354MACHINERY 
3858      Customer#000003858       AC9svtvQxpt              ETHIOPIA 4ETHIOPIA       AFRICA      15-412-501-6182HOUSEHOLD 
3866      Customer#000003866       7JUgL,fWABhQxFM          ALGERIA  1ALGERIA        AFRICA      10-237-626-1827BUILDING  
3874      Customer#000003874       kPMcD4XtJOYx5TK6UmPM U   KENYA    4KENYA          AFRICA      24-112-911-4656BUILDING  
3882      Customer#000003882       ukLPYQdfYDJBQBE6c        GERMANY  1GERMANY        EUROPE      17-825-264-9093HOUSEHOLD 
3890      Customer#000003890       QLpSHL3ze9AZEobC         PERU     3PERU           AMERICA     27-706-105-7612HOUSEHOLD 
3898      Customer#000003898       BC GEoZotMwKx9tIMYWLeZ4  FRANCE   2FRANCE         EUROPE      16-941-200-7457MACHINERY 
3906      Customer#000003906       A0DPCE,HRHJ0             KENYA    3KENYA          AFRICA      24-896-724-2252MACHINERY 
3914      Customer#000003914       ttiejPeOh                BRAZIL   3BRAZIL         AMERICA     12-668-843-8994AUTOMOBILE
3922      Customer#000003922       IpTQEG7zJ4jLK8s04O       JAPAN    7JAPAN          ASIA        22-403-542-3956AUTOMOBILE
3930      Customer#000003930       FDi9hudMX                GERMANY  5GERMANY        EUROPE      17-500-708-5860AUTOMOBILE
3938      Customer#000003938       bzHbLYU5wfGuPJP6ny       UNITED ST9UNITED STATES  AMERICA     34-604-540-1486BUILDING  
3946      Customer#000003946       Oo51gmj                  GERMANY  5GERMANY        EUROPE      17-402-166-4037FURNITURE 
3954      Customer#000003954       LA8grSkL,EoaQGAEJRl      ETHIOPIA 9ETHIOPIA       AFRICA      15-831-313-6180FURNITURE 
3962      Customer#000003962       pephBaffSxZ9i            ARGENTINA3ARGENTINA      AMERICA     11-371-493-6877MACHINERY 
3970      Customer#000003970       Txs4mOv0wEWrtykO9ew      IRAQ     8IRAQ           MIDDLE EAST 21-588-622-5917BUILDING  
3978      Customer#000003978       iILVb8C1dPoa7y8QN        ETHIOPIA 9ETHIOPIA       AFRICA      15-119-450-2215HOUSEHOLD 
3986      Customer#000003986       99IrfzOSGPPh             INDIA    0INDIA          ASIA        18-838-655-5853FURNITURE 
3994      Customer#000003994       VZDgOVjtVm4              GERMANY  7GERMANY        EUROPE      17-742-377-6780FURNITURE 
4002      Customer#000004002       ct IJzjF017bMAkVZokae3   INDONESIA0INDONESIA      ASIA        19-507-292-7057AUTOMOBILE
4010      Customer#000004010       sWuZI6haHO7ycXhuVd,m98P  VIETNAM  5VIETNAM        ASIA        31-183-683-1930MACHINERY 
4018      Customer#000004018       D6dU uS3wFTSon93z        ARGENTINA7ARGENTINA      AMERICA     11-969-291-9948HOUSEHOLD 
4026      Customer#000004026       hy4FnB                   GERMANY  2GERMANY        EUROPE      17-850-670-3279AUTOMOBILE
4034      Customer#000004034       aHGvsYEla4qnVXRiq        VIETNAM  4VIETNAM        ASIA        31-657-943-4230HOUSEHOLD 
4042      Customer#000004042       PVELOAkjgJ9s02W          ALGERIA  6ALGERIA        AFRICA      10-188-167-2889AUTOMOBILE
4050      Customer#000004050       O44xwwH6Qa7n             KENYA    5KENYA          AFRICA      24-360-751-1510FURNITURE 
4058      Customer#000004058       wXhIEM9B3Nh6eo           IRAQ     3IRAQ           MIDDLE EAST 21-530-744-7994FURNITURE 
4066      Customer#000004066       VrrtSQaYfhp4A8QECx       UNITED ST9UNITED STATES  AMERICA     34-914-511-7198BUILDING  
4074      Customer#000004074       ZYBErVmoTbrJA43tS,eF2    UNITED ST4UNITED STATES  AMERICA     34-856-572-4300MACHINERY 
4082      Customer#000004082       IvqENK3UHpMp0XrT8I       UNITED ST9UNITED STATES  AMERICA     34-188-462-7160AUTOMOBILE
4090      Customer#000004090       6C8pm00f yk06            KENYA    4KENYA          AFRICA      24-272-827-4969MACHINERY 
4098      Customer#000004098       3UeFriTAHKeqsfCLvDI8     PERU     6PERU           AMERICA     27-376-171-6346BUILDING  
4106      Customer#000004106       U56nS1FP0i               IRAN     0IRAN           MIDDLE EAST 20-677-183-1303FURNITURE 
4114      Customer#000004114       ZqyRtr6l9tY              IRAN     8IRAN           MIDDLE EAST 20-284-858-3619BUILDING  
4122      Customer#000004122       Q06jZPq3g8krPMKW,KZ3xwSJ RUSSIA   3RUSSIA         EUROPE      32-777-532-7823BUILDING  
4130      Customer#000004130       ROW3aYSCffRcj            VIETNAM  8VIETNAM        ASIA        31-123-234-3912AUTOMOBILE
4138      Customer#000004138       1YO7g5HosOjWu            VIETNAM  9VIETNAM        ASIA        31-425-368-5414FURNITURE 
4146      Customer#000004146       nt4J466RkuAcU9PYHjb      ALGERIA  2ALGERIA        AFRICA      10-150-508-2853FURNITURE 
4154      Customer#000004154       7Nqwclvpp                VIETNAM  0VIETNAM        ASIA        31-869-363-4650BUILDING  
4162      Customer#000004162       WZM18851IbBcCRqE,oKWgvL  ALGERIA  0ALGERIA        AFRICA      10-458-956-9843AUTOMOBILE
4170      Customer#000004170       6Dfg1DWASgH baSo9dAitwnv INDIA    5INDIA          ASIA        18-436-824-1510MACHINERY 
4178      Customer#000004178       MxH3xpbmyhCK5            ROMANIA  2ROMANIA        EUROPE      29-445-284-1933HOUSEHOLD 
4186      Customer#000004186       3VmRMOcAUUAo3o0JmCwHLuXZ CHINA    5CHINA          ASIA        28-525-870-1858FURNITURE 
4194      Customer#000004194       DAnFsAvmoVJuXVgtxAwC8hM  VIETNAM  0VIETNAM        ASIA        31-989-924-1533MACHINERY 
4202      Customer#000004202       S89G7ZKOHizyR9QNWChJ     MOZAMBIQU6MOZAMBIQUE     AFRICA      26-898-125-3074FURNITURE 
4210      Customer#000004210       NntNsf3f,                JAPAN    2JAPAN          ASIA        22-972-216-6297AUTOMOBILE
4218      Customer#000004218       dHrR6ohMx0qO7i ,Sb,i3A   IRAQ     9IRAQ           MIDDLE EAST 21-817-361-4609FURNITURE 
4226      Customer#000004226       bMXmIamiLAgBSxGM9tfbl    VIETNAM  9VIETNAM        ASIA        31-489-446-8144HOUSEHOLD 
4234      Customer#000004234       MOzGta,G8q7aj            FRANCE   6FRANCE         EUROPE      16-899-324-7618MACHINERY 
4242      Customer#000004242       x1P5QKFUw9SH3            IRAQ     6IRAQ           MIDDLE EAST 21-862-132-9605HOUSEHOLD 
4250      Customer#000004250       bvrn6ublONVkPZ5kksvOyRp  ROMANIA  6ROMANIA        EUROPE      29-889-588-9628FURNITURE 
4258      Customer#000004258       ZmaUFc5jf9Gu             UNITED KI2UNITED KINGDOM EUROPE      33-300-194-5101BUILDING  
4266      Customer#000004266       S0nDPdkyOiV1 Tr          VIETNAM  4VIETNAM        ASIA        31-423-894-1277FURNITURE 
4274      Customer#000004274       KpSQwr24DxRZk            MOROCCO  9MOROCCO        AFRICA      25-611-713-9541AUTOMOBILE
4282      Customer#000004282       dueVECVsJUB7xGlmQf6nc    CANADA   1CANADA         AMERICA     13-398-830-3508HOUSEHOLD 
4290      Customer#000004290       m7aH1hvakOmfoePY         VIETNAM  5VIETNAM        ASIA        31-860-885-2317AUTOMOBILE
4298      Customer#000004298       1CU53nSLr2               KENYA    4KENYA          AFRICA      24-116-132-3809BUILDING  
4306      Customer#000004306       gXADRfS                  CHINA    5CHINA          ASIA        28-581-815-6660FURNITURE 
4314      Customer#000004314       xy4B29a2NrTOMkLZmI w     INDONESIA4INDONESIA      ASIA        19-972-626-3745FURNITURE 
4322      Customer#000004322       ZS8P,7Sv6lYOYotbhlg      INDIA    0INDIA          ASIA        18-566-700-7400HOUSEHOLD 
4330      Customer#000004330       UYt,kdD mC4TRHoxeUZGLf   UNITED ST0UNITED STATES  AMERICA     34-472-930-4442BUILDING  
4338      Customer#000004338       rc3Ur5UKQyWgOOg9lvrj3j   MOROCCO  2MOROCCO        AFRICA      25-406-679-5673MACHINERY 
4346      Customer#000004346       6E4aeq029SomRI nYFr4wAjJ INDONESIA9INDONESIA      ASIA        19-433-824-8759FURNITURE 
4354      Customer#000004354       7K8J8                    BRAZIL   4BRAZIL         AMERICA     12-208-237-1097AUTOMOBILE
4362      Customer#000004362       gJXRSLnj4,3U,V           IRAN     3IRAN           MIDDLE EAST 20-590-701-5825BUILDING  
4370      Customer#000004370       qQOorsLakgXzNkwitT       EGYPT    0EGYPT          MIDDLE EAST 14-176-998-1589FURNITURE 
4378      Customer#000004378       DBp,mXVFsz,CqbZ          MOZAMBIQU9MOZAMBIQUE     AFRICA      26-125-441-5666AUTOMOBILE
4386      Customer#000004386       s6,L3c KaQOM5hohOk4Lo    IRAQ     5IRAQ           MIDDLE EAST 21-544-414-3908AUTOMOBILE
4394      Customer#000004394       3lOBrSToM                SAUDI ARA6SAUDI ARABIA   MIDDLE EAST 30-380-296-5130MACHINERY 
4402      Customer#000004402       9otHUgjHmaIwM            MOROCCO  7MOROCCO        AFRICA      25-178-902-7751MACHINERY 
4410      Customer#000004410       oibPC1G50SRYw            JORDAN   2JORDAN         MIDDLE EAST 23-892-745-3328BUILDING  
4418      Customer#000004418       BRkeTdAc6VPHYhMwI        INDIA    3INDIA          ASIA        18-571-966-3812BUILDING  
4426      Customer#000004426       rmH8eaBNRc               ETHIOPIA 6ETHIOPIA       AFRICA      15-350-708-3548HOUSEHOLD 
4434      Customer#000004434       AkeVvJZX6Oi              JORDAN   2JORDAN         MIDDLE EAST 23-660-848-4787MACHINERY 
4442      Customer#000004442       WEy0WrSHcbQzaqPeo4b3L    GERMANY  8GERMANY        EUROPE      17-868-267-3686MACHINERY 
4450      Customer#000004450       yd0amA2uYsnSOrizrdh5y    INDIA    2INDIA          ASIA        18-333-172-5096BUILDING  
4458      Customer#000004458       3bIwBf9IRmKIi9T          CHINA    3CHINA          ASIA        28-270-609-8001AUTOMOBILE
4466      Customer#000004466       hDUMzbbVk52V7UQ          IRAN     9IRAN           MIDDLE EAST 20-855-105-3035FURNITURE 
4474      Customer#000004474       xsCfeKPI,B3HLqB3         FRANCE   7FRANCE         EUROPE      16-460-490-2825HOUSEHOLD 
4482      Customer#000004482       O9Cc7zWWY                JORDAN   5JORDAN         MIDDLE EAST 23-773-258-7680FURNITURE 
4490      Customer#000004490       zSCsE4qGErT586           EGYPT    0EGYPT          MIDDLE EAST 14-778-858-2899HOUSEHOLD 
4498      Customer#000004498       2oQbX6FSI7cqdOud1n6qb    EGYPT    2EGYPT          MIDDLE EAST 14-685-802-4548FURNITURE 
4506      Customer#000004506       iI1mw2                   INDONESIA9INDONESIA      ASIA        19-993-511-6345AUTOMOBILE
4514      Customer#000004514       kpIUiGRg0M9P2aXjs8EM     IRAN     2IRAN           MIDDLE EAST 20-266-826-9342FURNITURE 
4522      Customer#000004522       l55GF3yU3nRIqU0tZVmB     EGYPT    2EGYPT          MIDDLE EAST 14-336-947-8542BUILDING  
4530      Customer#000004530       0GUiHA                   ARGENTINA7ARGENTINA      AMERICA     11-875-772-6653FURNITURE 
4538      Customer#000004538       JCBYDNM7                 CANADA   0CANADA         AMERICA     13-974-535-9826MACHINERY 
4546      Customer#000004546       UOgz6T7E                 ALGERIA  3ALGERIA        AFRICA      10-973-989-9588MACHINERY 
4554      Customer#000004554       siMh1pRuBxAtqK0uq9ezXY2  RUSSIA   6RUSSIA         EUROPE      32-216-450-8296MACHINERY 
4562      Customer#000004562       jvqnxKSfIbn              IRAQ     0IRAQ           MIDDLE EAST 21-754-762-3295BUILDING  
4570      Customer#000004570       aZwwHP                   ETHIOPIA 3ETHIOPIA       AFRICA      15-349-529-3682AUTOMOBILE
4578      Customer#000004578       HW6gxKwzcdrJC1smCcCIHs   ETHIOPIA 0ETHIOPIA       AFRICA      15-821-986-5979HOUSEHOLD 
4586      Customer#000004586       HwMi,4ZX7rO0ds5El8t      CANADA   0CANADA         AMERICA     13-458-752-3410MACHINERY 
4594      Customer#000004594       ng p9Ik00p7yUk           ETHIOPIA 7ETHIOPIA       AFRICA      15-130-184-2399MACHINERY 
4602      Customer#000004602       grrmZo3hXO               ARGENTINA7ARGENTINA      AMERICA     11-209-383-3380FURNITURE 
4610      Customer#000004610       e1y6rRSHfgEwUgbw,BJ2w    ETHIOPIA 8ETHIOPIA       AFRICA      15-357-990-3978AUTOMOBILE
4618      Customer#000004618       tj8BnveEeukB             CANADA   8CANADA         AMERICA     13-923-332-2655HOUSEHOLD 
4626      Customer#000004626       a,YHPW3kadFi             ROMANIA  9ROMANIA        EUROPE      29-725-119-9705HOUSEHOLD 
4634      Customer#000004634       GOUf3hxHl51,hu4vA        UNITED ST8UNITED STATES  AMERICA     34-220-217-9453HOUSEHOLD 
4642      Customer#000004642       SMllmK9laZAeITaiBbIMmwK  INDONESIA5INDONESIA      ASIA        19-931-378-4343MACHINERY 
4650      Customer#000004650       lcd8VMiw01lYrwGt         BRAZIL   8BRAZIL         AMERICA     12-779-134-1381AUTOMOBILE
4658      Customer#000004658       IvkcegXfq5gijgLa4rT8JEs  SAUDI ARA3SAUDI ARABIA   MIDDLE EAST 30-510-981-2170HOUSEHOLD 
4666      Customer#000004666       jQSvV02b,7NnREu47u50kDe  VIETNAM  9VIETNAM        ASIA        31-899-403-2324AUTOMOBILE
4674      Customer#000004674       lfkhvFg4qXWV             FRANCE   9FRANCE         EUROPE      16-426-725-8159HOUSEHOLD 
4682      Customer#000004682       T9rAhBJVYVRNx9           ALGERIA  8ALGERIA        AFRICA      10-407-965-2462BUILDING  
4690      Customer#000004690       qo5KcGFa                 JORDAN   9JORDAN         MIDDLE EAST 23-153-565-3601BUILDING  
4698      Customer#000004698       fkBVIK69 Smf7jP7,bi      FRANCE   8FRANCE         EUROPE      16-270-137-2238AUTOMOBILE
4706      Customer#000004706       aYFUe4Au,aHgl            ALGERIA  5ALGERIA        AFRICA      10-390-657-2699BUILDING  
4714      Customer#000004714       yrTCI2o5k4uSA            IRAN     0IRAN           MIDDLE EAST 20-680-497-3843MACHINERY 
4722      Customer#000004722       NE70eVy                  UNITED KI7UNITED KINGDOM EUROPE      33-592-622-5512AUTOMOBILE
4730      Customer#000004730       6gkJrfdd8wMsd4bYnUCZnh1  IRAQ     3IRAQ           MIDDLE EAST 21-521-454-8461AUTOMOBILE
4738      Customer#000004738       d9Yk13MS4BmiJg97vhG6G    JAPAN    5JAPAN          ASIA        22-399-549-5907HOUSEHOLD 
4746      Customer#000004746       FgGn9eivxD4CBuNIK        JAPAN    7JAPAN          ASIA        22-194-556-7330FURNITURE 
4754      Customer#000004754        cIfAL7WA                KENYA    8KENYA          AFRICA      24-533-113-8377FURNITURE 
4762      Customer#000004762       NJmZur5k                 INDIA    5INDIA          ASIA        18-639-499-6256BUILDING  
4770      Customer#000004770       CNpKZctUtiVsurEKhRpJzE   ALGERIA  8ALGERIA        AFRICA      10-769-129-5171FURNITURE 
4778      Customer#000004778       v2eVbJ                   ALGERIA  0ALGERIA        AFRICA      10-920-687-5672MACHINERY 
4786      Customer#000004786       yXUEb2m3LEiRbZ9          JAPAN    2JAPAN          ASIA        22-150-271-7908AUTOMOBILE
4794      Customer#000004794       8L26J9wGXPP454GK8NgX,Bju INDIA    1INDIA          ASIA        18-572-845-7777HOUSEHOLD 
4802      Customer#000004802       VeM1jN1ZCQUo             IRAN     7IRAN           MIDDLE EAST 20-636-715-2176HOUSEHOLD 
4810      Customer#000004810       rPET7lG3JJnPB71I,WyPXFlU ROMANIA  1ROMANIA        EUROPE      29-523-231-2555FURNITURE 
4818      Customer#000004818       SEnGx1EJg4L7h85ul88ZtQ   KENYA    2KENYA          AFRICA      24-567-180-3584AUTOMOBILE
4826      Customer#000004826       q4kjn3MdWgg              CHINA    2CHINA          ASIA        28-291-341-6700HOUSEHOLD 
4834      Customer#000004834       cne8rG4FOccfKIh4RU       ETHIOPIA 5ETHIOPIA       AFRICA      15-667-368-4757FURNITURE 
4842      Customer#000004842       Wp2HYVczGSi2iEdG         ARGENTINA9ARGENTINA      AMERICA     11-602-581-4298BUILDING  
4850      Customer#000004850       qdvzs8uTo                RUSSIA   5RUSSIA         EUROPE      32-957-509-2614MACHINERY 
4858      Customer#000004858       P,ekZXElJO5KQTdgzsC9TbE  JAPAN    5JAPAN          ASIA        22-757-606-2412FURNITURE 
4866      Customer#000004866       NA74, GiAitqFc,2P8mm     JAPAN    2JAPAN          ASIA        22-304-940-5002BUILDING  
4874      Customer#000004874       L73kR5SA,aklxK1aPv       ETHIOPIA 0ETHIOPIA       AFRICA      15-377-202-4383AUTOMOBILE
4882      Customer#000004882       2CO1UDHco919nJM25ZZ5U    MOZAMBIQU3MOZAMBIQUE     AFRICA      26-564-190-8687AUTOMOBILE
4890      Customer#000004890       Kw2wlt,wOgSSQs8gns7er4sE FRANCE   2FRANCE         EUROPE      16-267-262-9290MACHINERY 
4898      Customer#000004898       a 2Z0NXyj                INDONESIA2INDONESIA      ASIA        19-453-932-7466MACHINERY 
4906      Customer#000004906       JHJHzZEwrSd7Is           ETHIOPIA 7ETHIOPIA       AFRICA      15-615-341-2187FURNITURE 
4914      Customer#000004914       7D47aJn,f7               UNITED ST7UNITED STATES  AMERICA     34-695-559-6931FURNITURE 
4922      Customer#000004922       KJqI2B                   FRANCE   8FRANCE         EUROPE      16-293-369-4505BUILDING  
4930      Customer#000004930       Yx91TO9OI                CHINA    5CHINA          ASIA        28-768-349-7808HOUSEHOLD 
4938      Customer#000004938       zZjqY2keP                INDIA    5INDIA          ASIA        18-216-635-1365BUILDING  
4946      Customer#000004946       kyV J9b68w6CmdJ          KENYA    9KENYA          AFRICA      24-754-332-3281BUILDING  
4954      Customer#000004954       UZB9iGccs                INDONESIA1INDONESIA      ASIA        19-415-227-9140HOUSEHOLD 
4962      Customer#000004962       EjY7tsHK                 MOROCCO  9MOROCCO        AFRICA      25-293-957-2990AUTOMOBILE
4970      Customer#000004970       wSGOznST4qe              EGYPT    2EGYPT          MIDDLE EAST 14-757-682-4177FURNITURE 
4978      Customer#000004978       KMnH2TK3o                ALGERIA  0ALGERIA        AFRICA      10-973-536-2839FURNITURE 
4986      Customer#000004986       I6PlZJcaBiUBg0zY3i9paQ   MOROCCO  5MOROCCO        AFRICA      25-297-712-5795MACHINERY 
4994      Customer#000004994       vEH5X 00gXgBjN           MOROCCO  7MOROCCO        AFRICA      25-614-600-6948FURNITURE 
5002      Customer#000005002       P6nTWXQWWdSTfwRKsqHevlJl ROMANIA  0ROMANIA        EUROPE      29-507-367-8820BUILDING  
5010      Customer#000005010       zuH8QKv7oZkHuoK7         ROMANIA  9ROMANIA        EUROPE      29-239-924-7138BUILDING  
5018      Customer#000005018       mNGOp4xLKjm3SIylaekU63Vi CANADA   3CANADA         AMERICA     13-411-349-2726MACHINERY 
5026      Customer#000005026       bMsh383OprwrRHjkiH9CefXc BRAZIL   8BRAZIL         AMERICA     12-436-510-2132BUILDING  
5034      Customer#000005034       7qPqam                   INDIA    2INDIA          ASIA        18-236-570-5084HOUSEHOLD 
5042      Customer#000005042       V660Ly8,3EnBmTlCbNR1     JAPAN    2JAPAN          ASIA        22-284-564-2216FURNITURE 
5050      Customer#000005050       LyCNAvQlJfSXeDi9K        GERMANY  8GERMANY        EUROPE      17-908-896-2927BUILDING  
5058      Customer#000005058       9K3ZCUKd7qIgoGsZg9       ALGERIA  7ALGERIA        AFRICA      10-647-332-5159MACHINERY 
5066      Customer#000005066       Ze6SX3N26Ey,x4Nat        SAUDI ARA6SAUDI ARABIA   MIDDLE EAST 30-830-111-4886MACHINERY 
5074      Customer#000005074       DFQLaa1btvlBrTAevIn      UNITED ST5UNITED STATES  AMERICA     34-950-155-3191MACHINERY 
5082      Customer#000005082       KCuSkafjaQ MJ1 gDmy      MOZAMBIQU8MOZAMBIQUE     AFRICA      26-318-888-4447BUILDING  
5090      Customer#000005090       XquAlgDLn M5nzr6X        MOZAMBIQU8MOZAMBIQUE     AFRICA      26-449-774-8546FURNITURE 
5098      Customer#000005098       hJLubC64dWXx             SAUDI ARA4SAUDI ARABIA   MIDDLE EAST 30-137-536-4688FURNITURE 
5106      Customer#000005106       sebOks2W8bDqW7k4x94JmU6  VIETNAM  6VIETNAM        ASIA        31-276-490-5641HOUSEHOLD 
5114      Customer#000005114       lWVs3AbLRvCvKBzeYi2      BRAZIL   0BRAZIL         AMERICA     12-607-974-9599HOUSEHOLD 
5122      Customer#000005122       gpG1DA7OFg9x7mn5KegM     CHINA    9CHINA          ASIA        28-580-799-8875MACHINERY 
5130      Customer#000005130       9UHv1gFf6HWBvVrW5A2ui3Q  JORDAN   9JORDAN         MIDDLE EAST 23-803-853-4301HOUSEHOLD 
5138      Customer#000005138       wiyxLLMCORpxUi           KENYA    1KENYA          AFRICA      24-844-446-1534FURNITURE 
5146      Customer#000005146       iySFzSF                  JAPAN    4JAPAN          ASIA        22-341-865-6067BUILDING  
5154      Customer#000005154       iLokKL JLissO            PERU     7PERU           AMERICA     27-649-270-1119FURNITURE 
5162      Customer#000005162       rwwURvXv7Trt2mU          SAUDI ARA7SAUDI ARABIA   MIDDLE EAST 30-998-839-7993MACHINERY 
5170      Customer#000005170       RwbPhaBsWtd6CiBT7bpxm4   IRAN     2IRAN           MIDDLE EAST 20-549-570-9415FURNITURE 
5178      Customer#000005178       dMTntA2ZXGrpm8oFKHMT     PERU     7PERU           AMERICA     27-922-237-4586AUTOMOBILE
5186      Customer#000005186       6Y1,cH6fqXt5APdKrURFZ v  CHINA    5CHINA          ASIA        28-377-584-1484HOUSEHOLD 
5194      Customer#000005194       MPvPAaVo                 ROMANIA  2ROMANIA        EUROPE      29-550-826-5570BUILDING  
5202      Customer#000005202       Rtbrzil9wRvmONOSdlby     MOZAMBIQU8MOZAMBIQUE     AFRICA      26-694-965-1796BUILDING  
5210      Customer#000005210       Yqt0wz7gJot Fa           GERMANY  6GERMANY        EUROPE      17-933-467-5487HOUSEHOLD 
5218      Customer#000005218       IhKJuTTe14MWQHvBZw7U3vl  RUSSIA   2RUSSIA         EUROPE      32-414-955-7994MACHINERY 
5226      Customer#000005226       3wYCCx                   UNITED KI0UNITED KINGDOM EUROPE      33-247-784-5346AUTOMOBILE
5234      Customer#000005234       oA0UPyCk8CIuouVOH        GERMANY  9GERMANY        EUROPE      17-893-284-4289AUTOMOBILE
5242      Customer#000005242       bUed69162Y6pjVLInyVuzBYn UNITED KI7UNITED KINGDOM EUROPE      33-766-961-4400MACHINERY 
5250      Customer#000005250       UHOIjAee ybqlk           CHINA    2CHINA          ASIA        28-252-432-2868FURNITURE 
5258      Customer#000005258       bKortvC8Y2nYPx           MOROCCO  5MOROCCO        AFRICA      25-585-625-6550MACHINERY 
5266      Customer#000005266       eBRpfy,Fge               IRAQ     5IRAQ           MIDDLE EAST 21-747-290-7213FURNITURE 
5274      Customer#000005274       mO1UnQ0f                 FRANCE   1FRANCE         EUROPE      16-860-174-1250FURNITURE 
5282      Customer#000005282       LhJlUi3QGSWqLTmk FOib    ARGENTINA0ARGENTINA      AMERICA     11-569-149-4144MACHINERY 
5290      Customer#000005290       aUfNQRoDGu               ALGERIA  6ALGERIA        AFRICA      10-303-867-2514BUILDING  
5298      Customer#000005298       U1MKT d                  MOZAMBIQU3MOZAMBIQUE     AFRICA      26-614-334-2140MACHINERY 
5306      Customer#000005306       4yycdewt0ocCP3           EGYPT    9EGYPT          MIDDLE EAST 14-774-801-1482FURNITURE 
5314      Customer#000005314       8FeuQi5orlEyhh8m7slLi    EGYPT    6EGYPT          MIDDLE EAST 14-524-517-7916BUILDING  
5322      Customer#000005322       fwoOVvTTCbsESaonB        JORDAN   4JORDAN         MIDDLE EAST 23-115-105-9938HOUSEHOLD 
5330      Customer#000005330       wRhsWa4,j,ppqmpEx        FRANCE   6FRANCE         EUROPE      16-987-629-7634FURNITURE 
5338      Customer#000005338       61J5moQtSSEtEW6V4        GERMANY  6GERMANY        EUROPE      17-389-671-6519HOUSEHOLD 
5346      Customer#000005346       MAf w5z3Vd,bIU83p        UNITED ST1UNITED STATES  AMERICA     34-616-843-5489MACHINERY 
5354      Customer#000005354       0qyixIOm9b               JORDAN   2JORDAN         MIDDLE EAST 23-301-958-4121BUILDING  
5362      Customer#000005362       OohgqmD36C1OkzCamu       JAPAN    1JAPAN          ASIA        22-282-553-6076BUILDING  
5370      Customer#000005370       4sLhLUVm77Km,jtb6DyH     INDIA    0INDIA          ASIA        18-910-968-4642AUTOMOBILE
5378      Customer#000005378       2xEzYVbv                 SAUDI ARA8SAUDI ARABIA   MIDDLE EAST 30-522-522-3330AUTOMOBILE
5386      Customer#000005386       ,QTmLkjDEasTzmVbNS       SAUDI ARA8SAUDI ARABIA   MIDDLE EAST 30-599-480-2108HOUSEHOLD 
5394      Customer#000005394       OFjnFIabJe               KENYA    5KENYA          AFRICA      24-516-777-2704MACHINERY 
5402      Customer#000005402       1xzpam                   CHINA    1CHINA          ASIA        28-973-807-1901HOUSEHOLD 
5410      Customer#000005410       VOO2Fkn3P7C              MOROCCO  9MOROCCO        AFRICA      25-162-171-4284HOUSEHOLD 
5418      Customer#000005418       VBv99P                   CANADA   0CANADA         AMERICA     13-768-712-6406FURNITURE 
5426      Customer#000005426       THEAD6R6FSzgCGinVDi      IRAN     1IRAN           MIDDLE EAST 20-747-157-5194HOUSEHOLD 
5434      Customer#000005434       I1k3uu780TT6xjEAIjr42i   PERU     3PERU           AMERICA     27-775-874-2488MACHINERY 
5442      Customer#000005442       VCM1Ir9BeIYFO3           ARGENTINA2ARGENTINA      AMERICA     11-695-803-5391BUILDING  
5450      Customer#000005450       nAhMX6MC0LzVabO          IRAN     0IRAN           MIDDLE EAST 20-680-636-3141AUTOMOBILE
5458      Customer#000005458       scTserC8E1ew lp          BRAZIL   6BRAZIL         AMERICA     12-520-370-6250BUILDING  
5466      Customer#000005466       hVCgEJnQwc               GERMANY  7GERMANY        EUROPE      17-217-963-1263MACHINERY 
5474      Customer#000005474       kZwNc8                   UNITED ST0UNITED STATES  AMERICA     34-829-649-5278HOUSEHOLD 
5482      Customer#000005482       uWFL1j0zpkQwvS0NXzP      FRANCE   5FRANCE         EUROPE      16-240-152-3231MACHINERY 
5490      Customer#000005490       b r,4m8PvI9wTNYZm0kY     BRAZIL   2BRAZIL         AMERICA     12-478-333-6100FURNITURE 
5498      Customer#000005498       QewnIMmj                 INDONESIA5INDONESIA      ASIA        19-467-956-5765AUTOMOBILE
5506      Customer#000005506       VaWRULTHH6IfE,44Rm       GERMANY  1GERMANY        EUROPE      17-273-533-1183MACHINERY 
5514      Customer#000005514       sR3Eewa9N0Pny4LIPou      ROMANIA  6ROMANIA        EUROPE      29-833-142-9696HOUSEHOLD 
5522      Customer#000005522       q8cuElNL3SajJ            ALGERIA  3ALGERIA        AFRICA      10-920-325-4094MACHINERY 
5530      Customer#000005530       16N5N5k9B                ETHIOPIA 7ETHIOPIA       AFRICA      15-751-175-6042HOUSEHOLD 
5538      Customer#000005538       zwy,PLLg,ph,LaP6MQ6S     IRAQ     6IRAQ           MIDDLE EAST 21-706-931-2213HOUSEHOLD 
5546      Customer#000005546       3q4K8algJ0ZKv2OdDIvko    EGYPT    1EGYPT          MIDDLE EAST 14-210-767-7269AUTOMOBILE
5554      Customer#000005554       Y1XyMepy2e25bmXK8        INDONESIA4INDONESIA      ASIA        19-689-386-2041MACHINERY 
5562      Customer#000005562       8wsUtCbQGo7uVquoWSLIeR   BRAZIL   5BRAZIL         AMERICA     12-747-237-9386HOUSEHOLD 
5570      Customer#000005570       r gwwR                   GERMANY  9GERMANY        EUROPE      17-218-917-4410HOUSEHOLD 
5578      Customer#000005578       nPh1giu9J,65IUKE9        ETHIOPIA 6ETHIOPIA       AFRICA      15-122-273-6194AUTOMOBILE
5586      Customer#000005586       bfuUov1xOsHGbAsaCXu      EGYPT    3EGYPT          MIDDLE EAST 14-349-570-3553HOUSEHOLD 
5594      Customer#000005594       P5CKasIA2t39XXi7jD       SAUDI ARA1SAUDI ARABIA   MIDDLE EAST 30-702-409-5433FURNITURE 
5602      Customer#000005602       UtfEDQOMsB               RUSSIA   6RUSSIA         EUROPE      32-358-309-9007HOUSEHOLD 
5610      Customer#000005610       6KM5Yp748TNyJLdqhJeSzI   INDIA    1INDIA          ASIA        18-868-675-7636FURNITURE 
5618      Customer#000005618       01hYNX8r,R6N7L94jL       JORDAN   7JORDAN         MIDDLE EAST 23-705-205-6000BUILDING  
5626      Customer#000005626       X,Q 0tzC                 SAUDI ARA8SAUDI ARABIA   MIDDLE EAST 30-262-827-7950FURNITURE 
5634      Customer#000005634       zMma04oEyvzXFv3df07N8,   JORDAN   4JORDAN         MIDDLE EAST 23-511-785-7851FURNITURE 
5642      Customer#000005642       2YQYhvRFz7Of6a           VIETNAM  6VIETNAM        ASIA        31-132-192-9390FURNITURE 
5650      Customer#000005650       Mot3CoQfqYkH9PSqCjtwQo   IRAN     8IRAN           MIDDLE EAST 20-143-167-6562BUILDING  
5658      Customer#000005658       o0BLZ6sHcb2X1FNzi        MOZAMBIQU5MOZAMBIQUE     AFRICA      26-182-896-7399MACHINERY 
5666      Customer#000005666        DTRSXMxiJXrZ 3jFm8z     ARGENTINA3ARGENTINA      AMERICA     11-118-207-9378AUTOMOBILE
5674      Customer#000005674       saCYcnm S7SZEFh          SAUDI ARA2SAUDI ARABIA   MIDDLE EAST 30-136-409-8281MACHINERY 
5682      Customer#000005682       aDYYSD9X2Mp512W3uJFeD    VIETNAM  6VIETNAM        ASIA        31-875-924-2451MACHINERY 
5690      Customer#000005690       6FtOUEYmMU               ETHIOPIA 4ETHIOPIA       AFRICA      15-905-442-1145BUILDING  
5698      Customer#000005698       GyktdevpYeDIhLtP         MOROCCO  5MOROCCO        AFRICA      25-317-658-6769AUTOMOBILE
5706      Customer#000005706       xiXNWccwRZFtu,qGPXojHHFc MOZAMBIQU6MOZAMBIQUE     AFRICA      26-638-805-1408HOUSEHOLD 
5714      Customer#000005714       2XtvAySXJF6mqNf          PERU     0PERU           AMERICA     27-596-706-2982MACHINERY 
5722      Customer#000005722       9Yvu9ljIpD5XG7SR         ALGERIA  8ALGERIA        AFRICA      10-570-643-3359BUILDING  
5730      Customer#000005730       G3ht0RepF5ff780OAI iUm   INDONESIA7INDONESIA      ASIA        19-876-561-4820BUILDING  
5738      Customer#000005738       oNmnMjr4xHCNrhwHu6p28O   PERU     9PERU           AMERICA     27-587-300-9316HOUSEHOLD 
5746      Customer#000005746       cIOpanXtp                ROMANIA  7ROMANIA        EUROPE      29-814-305-1379AUTOMOBILE
5754      Customer#000005754       6QQ6Phy9yLlW2RnrQD       ETHIOPIA 0ETHIOPIA       AFRICA      15-178-511-5040FURNITURE 
5762      Customer#000005762       RbTvDIxIrbi1FgqgdOac7So  KENYA    3KENYA          AFRICA      24-976-762-2321AUTOMOBILE
5770      Customer#000005770       YL4y,Wu                  INDONESIA8INDONESIA      ASIA        19-362-329-7361MACHINERY 
5778      Customer#000005778       fHvAFeGoAsAtVNt5mFmA     UNITED ST2UNITED STATES  AMERICA     34-822-965-3682BUILDING  
5786      Customer#000005786       1e3Fdl1kO                MOROCCO  7MOROCCO        AFRICA      25-366-187-9325HOUSEHOLD 
5794      Customer#000005794       YgBY0zZEbL               ARGENTINA7ARGENTINA      AMERICA     11-117-593-3872BUILDING  
5802      Customer#000005802       FK4DYrRXQ                JORDAN   8JORDAN         MIDDLE EAST 23-710-638-7093MACHINERY 
5810      Customer#000005810       kuzcsKcHS ,i             ALGERIA  5ALGERIA        AFRICA      10-746-629-9618BUILDING  
5818      Customer#000005818       Wipw6IaPiAlQz1L2Y8EE3C   UNITED ST4UNITED STATES  AMERICA     34-155-208-9368MACHINERY 
5826      Customer#000005826       4pjUeI4pjFClvtaX6yg      UNITED KI2UNITED KINGDOM EUROPE      33-568-236-3892BUILDING  
5834      Customer#000005834       yqhlQR0egAKFX            ROMANIA  7ROMANIA        EUROPE      29-482-413-2398FURNITURE 
5842      Customer#000005842       18,2N,xhfJY2O4InVbU6 Q   CHINA    3CHINA          ASIA        28-542-241-5373HOUSEHOLD 
5850      Customer#000005850       BVd q41                  ETHIOPIA 8ETHIOPIA       AFRICA      15-566-236-7675FURNITURE 
5858      Customer#000005858       7WxCmom                  CANADA   9CANADA         AMERICA     13-513-550-6857AUTOMOBILE
5866      Customer#000005866       ,2WpYMAaxyoF2 O7G        MOROCCO  0MOROCCO        AFRICA      25-188-287-5454MACHINERY 
5874      Customer#000005874       N1lneEb5jg8qNQ2qID8W UEV IRAQ     3IRAQ           MIDDLE EAST 21-233-143-9597BUILDING  
5882      Customer#000005882       cJA7RLU133VGwDgSCBvZspI  ALGERIA  7ALGERIA        AFRICA      10-300-749-3705MACHINERY 
5890      Customer#000005890       5Aa9GYlcUOm              CHINA    5CHINA          ASIA        28-837-319-4480AUTOMOBILE
5898      Customer#000005898       uoqFuUEeRjatp26cR        ETHIOPIA 3ETHIOPIA       AFRICA      15-766-415-5019MACHINERY 
5906      Customer#000005906       HY25tbBkdo               CHINA    7CHINA          ASIA        28-206-168-6757BUILDING  
5914      Customer#000005914       ZV6E7aXAoXHuoju          ARGENTINA1ARGENTINA      AMERICA     11-321-214-8423MACHINERY 
5922      Customer#000005922       s575r1Ix7rYlOzlOG60I7S   UNITED KI5UNITED KINGDOM EUROPE      33-631-115-9066HOUSEHOLD 
5930      Customer#000005930       8NvbdDFy76lPzwBd,,tLMbHe ETHIOPIA 2ETHIOPIA       AFRICA      15-741-404-9268BUILDING  
5938      Customer#000005938       qKzvQj,Qy                PERU     8PERU           AMERICA     27-624-381-6124MACHINERY 
5946      Customer#000005946       qdHptTvOD                MOROCCO  6MOROCCO        AFRICA      25-273-912-7152HOUSEHOLD 
5954      Customer#000005954       xA pZyRQmIbM0o9EfKM0i    UNITED KI7UNITED KINGDOM EUROPE      33-707-589-1258AUTOMOBILE
5962      Customer#000005962       PxR9c1MAeKdrFvwjNcZqkcE  EGYPT    1EGYPT          MIDDLE EAST 14-824-983-1081FURNITURE 
5970      Customer#000005970       OGsp4OzKWRvj             SAUDI ARA2SAUDI ARABIA   MIDDLE EAST 30-973-704-9532BUILDING  
5978      Customer#000005978       jMtWpvBW6fiK             MOZAMBIQU1MOZAMBIQUE     AFRICA      26-925-507-8493FURNITURE 
5986      Customer#000005986       r8zT1JCPh                UNITED KI1UNITED KINGDOM EUROPE      33-644-876-6198HOUSEHOLD 
5994      Customer#000005994       jqHONelGjAuleoiHrBsnDHKL CANADA   8CANADA         AMERICA     13-284-577-1896AUTOMOBILE
6002      Customer#000006002       ZnHuM0Y9nONIKR5TFrHGuJ   SAUDI ARA2SAUDI ARABIA   MIDDLE EAST 30-663-364-8268HOUSEHOLD 
6010      Customer#000006010       Oyw3CVbhnakZby zVlRd9j   UNITED KI4UNITED KINGDOM EUROPE      33-676-154-5492HOUSEHOLD 
6018      Customer#000006018       XNLYh8cfpN               ALGERIA  7ALGERIA        AFRICA      10-576-462-5037AUTOMOBILE
6026      Customer#000006026       ius6eByivZ4BVYaE         JAPAN    7JAPAN          ASIA        22-846-173-5121AUTOMOBILE
6034      Customer#000006034       9C1trxxcizUyNm           MOROCCO  3MOROCCO        AFRICA      25-873-758-2282HOUSEHOLD 
6042      Customer#000006042       5HJbh0QShvTfZ            ALGERIA  6ALGERIA        AFRICA      10-943-579-4496FURNITURE 
6050      Customer#000006050       orhXeGjD4                ALGERIA  9ALGERIA        AFRICA      10-328-250-4087AUTOMOBILE
6058      Customer#000006058       noUsJ1sGwB               VIETNAM  7VIETNAM        ASIA        31-989-596-5610MACHINERY 
6066      Customer#000006066       s,Txrg7qYwMSykuMvxh      FRANCE   5FRANCE         EUROPE      16-743-271-2855BUILDING  
6074      Customer#000006074       nrcHwNP                  INDIA    6INDIA          ASIA        18-647-462-5820AUTOMOBILE
6082      Customer#000006082       A VQviGoD7               IRAQ     5IRAQ           MIDDLE EAST 21-926-927-5504BUILDING  
6090      Customer#000006090       NqM,WhTKaDb4uzuNsmH      INDIA    5INDIA          ASIA        18-123-908-7648HOUSEHOLD 
6098      Customer#000006098       c Bp7dnCuklVVNOM         CANADA   1CANADA         AMERICA     13-685-752-2973HOUSEHOLD 
6106      Customer#000006106       nfroWgkspby66r6BkrvQCMX, GERMANY  6GERMANY        EUROPE      17-241-521-2132FURNITURE 
6114      Customer#000006114       87W0S9L9zjjL,lPnN        JAPAN    4JAPAN          ASIA        22-153-555-8173HOUSEHOLD 
6122      Customer#000006122       48JzmrY5BZiS2C5Ts,wg     CHINA    5CHINA          ASIA        28-770-998-4007BUILDING  
6130      Customer#000006130       uzgA6cyeuy               FRANCE   8FRANCE         EUROPE      16-837-728-6462BUILDING  
6138      Customer#000006138       Dm6,p6hst9ub9FiYivg      MOROCCO  2MOROCCO        AFRICA      25-857-705-4506FURNITURE 
6146      Customer#000006146       RNKo8PgfKqgW             ROMANIA  3ROMANIA        EUROPE      29-236-524-4509FURNITURE 
6154      Customer#000006154       FI1U42PTLrAG n3          IRAN     4IRAN           MIDDLE EAST 20-941-441-5472AUTOMOBILE
6162      Customer#000006162       wFK59S80D3m iXYc96       CANADA   9CANADA         AMERICA     13-732-618-1971HOUSEHOLD 
6170      Customer#000006170       PLJi9aPgRlkkIUsc8L       ROMANIA  9ROMANIA        EUROPE      29-316-523-3682BUILDING  
6178      Customer#000006178       ejgXNsz sI0Dl3F,FVziT    INDONESIA1INDONESIA      ASIA        19-577-948-9625FURNITURE 
6186      Customer#000006186       0dwkPKvOkPIniv3,         MOZAMBIQU6MOZAMBIQUE     AFRICA      26-439-361-6161AUTOMOBILE
6194      Customer#000006194       9GsTKrC4NgB2bqd4ui9k     INDONESIA7INDONESIA      ASIA        19-783-186-2424AUTOMOBILE
6202      Customer#000006202       E73qW mbEQINh gPym       MOROCCO  7MOROCCO        AFRICA      25-545-770-6666FURNITURE 
6210      Customer#000006210       d5fRx4ruNET9kj6          PERU     1PERU           AMERICA     27-518-567-9600AUTOMOBILE
6218      Customer#000006218       4,z5xJL2IWWO5LMrF36cZI   MOZAMBIQU0MOZAMBIQUE     AFRICA      26-462-805-3256HOUSEHOLD 
6226      Customer#000006226       8gPu8,NPGkfyQQ0hcIYU     UNITED KI1UNITED KINGDOM EUROPE      33-144-346-1222BUILDING  
6234      Customer#000006234       lQaP7fCR8lVTQY           UNITED KI4UNITED KINGDOM EUROPE      33-975-573-8368BUILDING  
6242      Customer#000006242       1J2Yz5f1lOL              KENYA    7KENYA          AFRICA      24-629-405-9328FURNITURE 
6250      Customer#000006250       swZXFA                   PERU     3PERU           AMERICA     27-668-101-5311FURNITURE 
6258      Customer#000006258       CzJGapE7fxQx3            CHINA    5CHINA          ASIA        28-481-667-9352FURNITURE 
6266      Customer#000006266       9OKHx1,rXIAV0pq6V        RUSSIA   1RUSSIA         EUROPE      32-899-270-5326BUILDING  
6274      Customer#000006274       SgRPgKV3mB1oPuGe1ccFvjhD UNITED ST6UNITED STATES  AMERICA     34-562-826-9462AUTOMOBILE
6282      Customer#000006282       fCqZiNSOZ46KUCa          MOZAMBIQU8MOZAMBIQUE     AFRICA      26-489-584-4133AUTOMOBILE
6290      Customer#000006290       Vi6,QwAcedleabbr0SEv6    CANADA   4CANADA         AMERICA     13-559-669-5135HOUSEHOLD 
6298      Customer#000006298       v5JDDFsvu                IRAN     1IRAN           MIDDLE EAST 20-140-780-7321FURNITURE 
6306      Customer#000006306       Bp0L3gbYTOCVi9N3Tq6Ct    GERMANY  4GERMANY        EUROPE      17-451-692-2009BUILDING  
6314      Customer#000006314       lqbO7daGUg0T0QppRJTL     UNITED ST7UNITED STATES  AMERICA     34-404-148-6005HOUSEHOLD 
6322      Customer#000006322       NK2pKqhhwp LJnExfiTmLeCZ INDONESIA7INDONESIA      ASIA        19-964-331-6075FURNITURE 
6330      Customer#000006330       6c1MemjbKFOa41           MOZAMBIQU3MOZAMBIQUE     AFRICA      26-853-200-9166HOUSEHOLD 
6338      Customer#000006338       PUuGLhCv0G               VIETNAM  7VIETNAM        ASIA        31-276-231-4176FURNITURE 
6346      Customer#000006346       50RfbxMaJIC              FRANCE   3FRANCE         EUROPE      16-514-427-4901FURNITURE 
6354      Customer#000006354       NUj4uSOE6Zl              ARGENTINA6ARGENTINA      AMERICA     11-783-337-9661HOUSEHOLD 
6362      Customer#000006362       0H7VGv7MTGlMxF8igva      MOROCCO  6MOROCCO        AFRICA      25-461-814-4121HOUSEHOLD 
6370      Customer#000006370       mpRkYWqUoJQncfc7Q3VEE    CANADA   0CANADA         AMERICA     13-705-474-7814HOUSEHOLD 
6378      Customer#000006378       jk4,Yt5J6YsUnLK          VIETNAM  2VIETNAM        ASIA        31-229-744-9622BUILDING  
6386      Customer#000006386        ,6di,DsCLRoei7          UNITED ST7UNITED STATES  AMERICA     34-288-710-9914HOUSEHOLD 
6394      Customer#000006394       Qsb,p1hXnullljxxWg7sv    BRAZIL   7BRAZIL         AMERICA     12-423-981-1567HOUSEHOLD 
6402      Customer#000006402       GLZyBHP                  INDONESIA0INDONESIA      ASIA        19-573-698-1326HOUSEHOLD 
6410      Customer#000006410       GGGN,NDpImMdzCHOjMg6D,   INDONESIA0INDONESIA      ASIA        19-229-771-3066FURNITURE 
6418      Customer#000006418        ydC4O                   ARGENTINA9ARGENTINA      AMERICA     11-553-108-2911AUTOMOBILE
6426      Customer#000006426       MBbafnBIIVTjNxVB8,yZcL   MOZAMBIQU1MOZAMBIQUE     AFRICA      26-149-810-3107MACHINERY 
6434      Customer#000006434       XEo,6jjEzKR0aOUc         BRAZIL   3BRAZIL         AMERICA     12-583-957-9780BUILDING  
6442      Customer#000006442       KHfAHw,EYDgYxunkuoCi5U   ROMANIA  1ROMANIA        EUROPE      29-259-219-7417AUTOMOBILE
6450      Customer#000006450       Gc,ojHknX6MUSgmX         UNITED ST4UNITED STATES  AMERICA     34-157-715-2816FURNITURE 
6458      Customer#000006458       9hveScYbQY iKmq          INDONESIA5INDONESIA      ASIA        19-131-644-4315MACHINERY 
6466      Customer#000006466       nxPwv4px0 1LW05BtXaT7m   SAUDI ARA8SAUDI ARABIA   MIDDLE EAST 30-976-758-1350MACHINERY 
6474      Customer#000006474       AqmYPBgr9r vxl8sMzecS    INDONESIA9INDONESIA      ASIA        19-228-345-2243BUILDING  
6482      Customer#000006482       dOVykuZo,txNWSMQncRnW    BRAZIL   3BRAZIL         AMERICA     12-663-828-5211MACHINERY 
6490      Customer#000006490       VjpZnXeSD2oIK0U,CNLNf    ARGENTINA6ARGENTINA      AMERICA     11-474-558-7674FURNITURE 
6498      Customer#000006498       M,,F70BZbI7wFy Eij7bct0  CANADA   0CANADA         AMERICA     13-990-637-4354MACHINERY 
